{
  "_format": "hh-sol-artifact-1",
  "contractName": "ECommerceLoyalty",
  "sourceName": "contracts/Loyalty.sol",
  "abi": [
    {
      "inputs": [
        {
          "internalType": "address",
          "name": "_loyaltyTokenAddress",
          "type": "address"
        },
        {
          "internalType": "uint256",
          "name": "_interval",
          "type": "uint256"
        }
      ],
      "stateMutability": "nonpayable",
      "type": "constructor"
    },
    {
      "anonymous": false,
      "inputs": [
        {
          "indexed": true,
          "internalType": "address",
          "name": "sellerAddress",
          "type": "address"
        },
        {
          "indexed": false,
          "internalType": "uint256",
          "name": "lrtAmount",
          "type": "uint256"
        },
        {
          "indexed": false,
          "internalType": "uint256",
          "name": "maticAmount",
          "type": "uint256"
        }
      ],
      "name": "LRTExchangedForMATIC",
      "type": "event"
    },
    {
      "anonymous": false,
      "inputs": [
        {
          "indexed": true,
          "internalType": "address",
          "name": "admin",
          "type": "address"
        },
        {
          "indexed": false,
          "internalType": "address",
          "name": "newLRTTokenAddress",
          "type": "address"
        }
      ],
      "name": "LRTTokenAddressUpdated",
      "type": "event"
    },
    {
      "anonymous": false,
      "inputs": [
        {
          "indexed": true,
          "internalType": "address",
          "name": "sellerAddress",
          "type": "address"
        },
        {
          "indexed": false,
          "internalType": "uint256",
          "name": "maticAmount",
          "type": "uint256"
        },
        {
          "indexed": false,
          "internalType": "uint256",
          "name": "lrtAmount",
          "type": "uint256"
        }
      ],
      "name": "MATICExchangedForLRT",
      "type": "event"
    },
    {
      "anonymous": false,
      "inputs": [
        {
          "indexed": true,
          "internalType": "address",
          "name": "admin",
          "type": "address"
        },
        {
          "indexed": false,
          "internalType": "uint256",
          "name": "amount",
          "type": "uint256"
        }
      ],
      "name": "MATICWithdrawn",
      "type": "event"
    },
    {
      "anonymous": false,
      "inputs": [
        {
          "indexed": true,
          "internalType": "address",
          "name": "buyerAddress",
          "type": "address"
        },
        {
          "indexed": false,
          "internalType": "uint256",
          "name": "pointsEarned",
          "type": "uint256"
        }
      ],
      "name": "PointsEarned",
      "type": "event"
    },
    {
      "anonymous": false,
      "inputs": [
        {
          "indexed": true,
          "internalType": "uint256",
          "name": "productId",
          "type": "uint256"
        },
        {
          "indexed": true,
          "internalType": "address",
          "name": "sellerAddress",
          "type": "address"
        },
        {
          "indexed": false,
          "internalType": "string",
          "name": "name",
          "type": "string"
        },
        {
          "indexed": false,
          "internalType": "uint256",
          "name": "price",
          "type": "uint256"
        }
      ],
      "name": "ProductAdded",
      "type": "event"
    },
    {
      "anonymous": false,
      "inputs": [
        {
          "indexed": true,
          "internalType": "uint256",
          "name": "orderId",
          "type": "uint256"
        },
        {
          "indexed": true,
          "internalType": "address",
          "name": "buyerAddress",
          "type": "address"
        },
        {
          "indexed": true,
          "internalType": "uint256",
          "name": "productId",
          "type": "uint256"
        },
        {
          "indexed": false,
          "internalType": "uint256",
          "name": "quantity",
          "type": "uint256"
        }
      ],
      "name": "ProductPurchased",
      "type": "event"
    },
    {
      "anonymous": false,
      "inputs": [
        {
          "indexed": true,
          "internalType": "address",
          "name": "sellerAddress",
          "type": "address"
        }
      ],
      "name": "SellerRegistered",
      "type": "event"
    },
    {
      "anonymous": false,
      "inputs": [
        {
          "indexed": true,
          "internalType": "address",
          "name": "admin",
          "type": "address"
        },
        {
          "indexed": false,
          "internalType": "uint256",
          "name": "amount",
          "type": "uint256"
        }
      ],
      "name": "TokensWithdrawn",
      "type": "event"
    },
    {
      "anonymous": false,
      "inputs": [
        {
          "indexed": true,
          "internalType": "address",
          "name": "userAddress",
          "type": "address"
        }
      ],
      "name": "UserRegistered",
      "type": "event"
    },
    {
      "stateMutability": "payable",
      "type": "fallback"
    },
    {
      "inputs": [],
      "name": "COMMISSION",
      "outputs": [
        {
          "internalType": "uint256",
          "name": "",
          "type": "uint256"
        }
      ],
      "stateMutability": "view",
      "type": "function"
    },
    {
      "inputs": [],
      "name": "RATE",
      "outputs": [
        {
          "internalType": "uint256",
          "name": "",
          "type": "uint256"
        }
      ],
      "stateMutability": "view",
      "type": "function"
    },
    {
      "inputs": [],
      "name": "SELLER_CAP",
      "outputs": [
        {
          "internalType": "uint256",
          "name": "",
          "type": "uint256"
        }
      ],
      "stateMutability": "view",
      "type": "function"
    },
    {
      "inputs": [
        {
          "internalType": "string",
          "name": "name",
          "type": "string"
        },
        {
          "internalType": "string",
          "name": "_description",
          "type": "string"
        },
        {
          "internalType": "uint256",
          "name": "_quantity",
          "type": "uint256"
        },
        {
          "internalType": "uint256",
          "name": "_price",
          "type": "uint256"
        },
        {
          "internalType": "uint256",
          "name": "_rewardPoints",
          "type": "uint256"
        },
        {
          "internalType": "uint256",
          "name": "loyaltyTokensAccepted",
          "type": "uint256"
        },
        {
          "internalType": "string",
          "name": "_imageURI",
          "type": "string"
        }
      ],
      "name": "addProduct",
      "outputs": [],
      "stateMutability": "nonpayable",
      "type": "function"
    },
    {
      "inputs": [],
      "name": "admin",
      "outputs": [
        {
          "internalType": "address",
          "name": "",
          "type": "address"
        }
      ],
      "stateMutability": "view",
      "type": "function"
    },
    {
      "inputs": [
        {
          "internalType": "bytes",
          "name": "",
          "type": "bytes"
        }
      ],
      "name": "checkUpkeep",
      "outputs": [
        {
          "internalType": "bool",
          "name": "upkeepNeeded",
          "type": "bool"
        },
        {
          "internalType": "bytes",
          "name": "performData",
          "type": "bytes"
        }
      ],
      "stateMutability": "view",
      "type": "function"
    },
    {
      "inputs": [
        {
          "internalType": "uint256",
          "name": "lrtAmount",
          "type": "uint256"
        }
      ],
      "name": "exchangeLRTForMATIC",
      "outputs": [],
      "stateMutability": "nonpayable",
      "type": "function"
    },
    {
      "inputs": [],
      "name": "exchangeMATICForLRT",
      "outputs": [],
      "stateMutability": "payable",
      "type": "function"
    },
    {
      "inputs": [],
      "name": "getAllProducts",
      "outputs": [
        {
          "components": [
            {
              "internalType": "uint256",
              "name": "productId",
              "type": "uint256"
            },
            {
              "internalType": "string",
              "name": "name",
              "type": "string"
            },
            {
              "internalType": "string",
              "name": "description",
              "type": "string"
            },
            {
              "internalType": "uint256",
              "name": "quantity",
              "type": "uint256"
            },
            {
              "internalType": "address",
              "name": "sellerAddress",
              "type": "address"
            },
            {
              "internalType": "uint256",
              "name": "price",
              "type": "uint256"
            },
            {
              "internalType": "uint256",
              "name": "rewardPoints",
              "type": "uint256"
            },
            {
              "internalType": "uint256",
              "name": "loyaltyTokensAccepted",
              "type": "uint256"
            },
            {
              "internalType": "string",
              "name": "imageURI",
              "type": "string"
            }
          ],
          "internalType": "struct ECommerceLoyalty.Product[]",
          "name": "",
          "type": "tuple[]"
        }
      ],
      "stateMutability": "view",
      "type": "function"
    },
    {
      "inputs": [],
      "name": "getLeaderBoard",
      "outputs": [
        {
          "internalType": "address[]",
          "name": "",
          "type": "address[]"
        }
      ],
      "stateMutability": "view",
      "type": "function"
    },
    {
      "inputs": [],
      "name": "interval",
      "outputs": [
        {
          "internalType": "uint256",
          "name": "",
          "type": "uint256"
        }
      ],
      "stateMutability": "view",
      "type": "function"
    },
    {
      "inputs": [
        {
          "internalType": "address",
          "name": "to",
          "type": "address"
        },
        {
          "internalType": "uint256",
          "name": "amount",
          "type": "uint256"
        }
      ],
      "name": "issueTokens",
      "outputs": [],
      "stateMutability": "nonpayable",
      "type": "function"
    },
    {
      "inputs": [
        {
          "internalType": "address",
          "name": "to",
          "type": "address"
        },
        {
          "internalType": "uint256",
          "name": "amount",
          "type": "uint256"
        }
      ],
      "name": "issueTokensBySeller",
      "outputs": [],
      "stateMutability": "nonpayable",
      "type": "function"
    },
    {
      "inputs": [
        {
          "internalType": "address",
          "name": "",
          "type": "address"
        }
      ],
      "name": "lastIssuedMonth",
      "outputs": [
        {
          "internalType": "uint256",
          "name": "",
          "type": "uint256"
        }
      ],
      "stateMutability": "view",
      "type": "function"
    },
    {
      "inputs": [],
      "name": "lastTimestamp",
      "outputs": [
        {
          "internalType": "uint256",
          "name": "",
          "type": "uint256"
        }
      ],
      "stateMutability": "view",
      "type": "function"
    },
    {
      "inputs": [
        {
          "internalType": "uint256",
          "name": "",
          "type": "uint256"
        }
      ],
      "name": "leaderboard",
      "outputs": [
        {
          "internalType": "address",
          "name": "",
          "type": "address"
        }
      ],
      "stateMutability": "view",
      "type": "function"
    },
    {
      "inputs": [],
      "name": "loyaltyToken",
      "outputs": [
        {
          "internalType": "contract IERC20",
          "name": "",
          "type": "address"
        }
      ],
      "stateMutability": "view",
      "type": "function"
    },
    {
      "inputs": [
        {
          "internalType": "address",
          "name": "",
          "type": "address"
        }
      ],
      "name": "monthlyIssuedBySeller",
      "outputs": [
        {
          "internalType": "uint256",
          "name": "",
          "type": "uint256"
        }
      ],
      "stateMutability": "view",
      "type": "function"
    },
    {
      "inputs": [],
      "name": "nextOrderId",
      "outputs": [
        {
          "internalType": "uint256",
          "name": "",
          "type": "uint256"
        }
      ],
      "stateMutability": "view",
      "type": "function"
    },
    {
      "inputs": [],
      "name": "nextProductId",
      "outputs": [
        {
          "internalType": "uint256",
          "name": "",
          "type": "uint256"
        }
      ],
      "stateMutability": "view",
      "type": "function"
    },
    {
      "inputs": [
        {
          "internalType": "uint256",
          "name": "",
          "type": "uint256"
        }
      ],
      "name": "orders",
      "outputs": [
        {
          "internalType": "uint256",
          "name": "orderId",
          "type": "uint256"
        },
        {
          "internalType": "address",
          "name": "buyerAddress",
          "type": "address"
        },
        {
          "internalType": "uint256",
          "name": "productId",
          "type": "uint256"
        },
        {
          "internalType": "uint256",
          "name": "quantity",
          "type": "uint256"
        }
      ],
      "stateMutability": "view",
      "type": "function"
    },
    {
      "inputs": [
        {
          "internalType": "bytes",
          "name": "performData",
          "type": "bytes"
        }
      ],
      "name": "performUpkeep",
      "outputs": [],
      "stateMutability": "nonpayable",
      "type": "function"
    },
    {
      "inputs": [
        {
          "internalType": "uint256",
          "name": "",
          "type": "uint256"
        }
      ],
      "name": "products",
      "outputs": [
        {
          "internalType": "uint256",
          "name": "productId",
          "type": "uint256"
        },
        {
          "internalType": "string",
          "name": "name",
          "type": "string"
        },
        {
          "internalType": "string",
          "name": "description",
          "type": "string"
        },
        {
          "internalType": "uint256",
          "name": "quantity",
          "type": "uint256"
        },
        {
          "internalType": "address",
          "name": "sellerAddress",
          "type": "address"
        },
        {
          "internalType": "uint256",
          "name": "price",
          "type": "uint256"
        },
        {
          "internalType": "uint256",
          "name": "rewardPoints",
          "type": "uint256"
        },
        {
          "internalType": "uint256",
          "name": "loyaltyTokensAccepted",
          "type": "uint256"
        },
        {
          "internalType": "string",
          "name": "imageURI",
          "type": "string"
        }
      ],
      "stateMutability": "view",
      "type": "function"
    },
    {
      "inputs": [
        {
          "internalType": "uint256[]",
          "name": "_productIds",
          "type": "uint256[]"
        },
        {
          "internalType": "uint256[]",
          "name": "_quantities",
          "type": "uint256[]"
        },
        {
          "internalType": "bool[]",
          "name": "_fullPaymentInMatic",
          "type": "bool[]"
        },
        {
          "internalType": "uint256",
          "name": "totalCost",
          "type": "uint256"
        },
        {
          "internalType": "uint256",
          "name": "totalLoyaltyTokensUsed",
          "type": "uint256"
        }
      ],
      "name": "purchaseProducts",
      "outputs": [],
      "stateMutability": "payable",
      "type": "function"
    },
    {
      "inputs": [],
      "name": "registerSeller",
      "outputs": [],
      "stateMutability": "nonpayable",
      "type": "function"
    },
    {
      "inputs": [],
      "name": "registerUser",
      "outputs": [],
      "stateMutability": "nonpayable",
      "type": "function"
    },
    {
      "inputs": [
        {
          "internalType": "address",
          "name": "",
          "type": "address"
        }
      ],
      "name": "sellers",
      "outputs": [
        {
          "internalType": "address",
          "name": "sellerAddress",
          "type": "address"
        }
      ],
      "stateMutability": "view",
      "type": "function"
    },
    {
      "inputs": [
        {
          "internalType": "address",
          "name": "_lrtToken",
          "type": "address"
        }
      ],
      "name": "setLRTToken",
      "outputs": [],
      "stateMutability": "nonpayable",
      "type": "function"
    },
    {
      "inputs": [
        {
          "internalType": "address",
          "name": "",
          "type": "address"
        }
      ],
      "name": "users",
      "outputs": [
        {
          "internalType": "address",
          "name": "userAddress",
          "type": "address"
        },
        {
          "internalType": "uint256",
          "name": "loyaltyPoints",
          "type": "uint256"
        },
        {
          "internalType": "uint256",
          "name": "points",
          "type": "uint256"
        }
      ],
      "stateMutability": "view",
      "type": "function"
    },
    {
      "inputs": [
        {
          "internalType": "uint256",
          "name": "amount",
          "type": "uint256"
        }
      ],
      "name": "withdrawMATIC",
      "outputs": [],
      "stateMutability": "nonpayable",
      "type": "function"
    },
    {
      "inputs": [
        {
          "internalType": "uint256",
          "name": "amount",
          "type": "uint256"
        }
      ],
      "name": "withdrawTokens",
      "outputs": [],
      "stateMutability": "nonpayable",
      "type": "function"
    },
    {
      "stateMutability": "payable",
      "type": "receive"
    }
  ],
  "bytecode": "0x60a0604052600160085560016009553480156200001b57600080fd5b50604051620054b8380380620054b883398181016040528101906200004191906200017e565b336000806101000a81548173ffffffffffffffffffffffffffffffffffffffff021916908373ffffffffffffffffffffffffffffffffffffffff16021790555081600160006101000a81548173ffffffffffffffffffffffffffffffffffffffff021916908373ffffffffffffffffffffffffffffffffffffffff1602179055508060808181525050426002819055505050620001c5565b600080fd5b600073ffffffffffffffffffffffffffffffffffffffff82169050919050565b60006200010b82620000de565b9050919050565b6200011d81620000fe565b81146200012957600080fd5b50565b6000815190506200013d8162000112565b92915050565b6000819050919050565b620001588162000143565b81146200016457600080fd5b50565b60008151905062000178816200014d565b92915050565b60008060408385031215620001985762000197620000d9565b5b6000620001a8858286016200012c565b9250506020620001bb8582860162000167565b9150509250929050565b6080516152d0620001e86000396000818161217d015261298801526152d06000f3fe6080604052600436106101dc5760003560e01c80636e04ff0d11610102578063bf36839911610095578063f6356b3011610064578063f6356b30146106e9578063f851a44014610712578063fddbe9a81461073d578063ffa8efc914610768576101eb565b8063bf36839914610607578063c29d72bc14610644578063c2bd67e21461066f578063d365cf6b146106ac576101eb565b8063947a36fb116100d1578063947a36fb14610534578063a85c38ef1461055f578063a87430ba1461059f578063b656638b146105de576101eb565b80636e04ff0d1461045d578063770aa84d1461049b5780637acc0b20146104c6578063816837e31461050b576101eb565b806345a382931161017a57806352c9224c1161014957806352c9224c146103b3578063562df3d5146103ca578063664e9704146103f55780636d47ab7214610420576101eb565b806345a382931461032c578063475a9fa9146103485780634d3820eb146103715780634de91a6314610388576101eb565b8063315a095d116101b6578063315a095d146102a757806333ff7bbd146102d057806342df2b1d146102da5780634585e33b14610303576101eb565b806302ee3a521461022657806319d8ac61146102515780632a58b3301461027c576101eb565b366101eb576101e9610791565b005b6040517f08c379a000000000000000000000000000000000000000000000000000000000815260040161021d906136d5565b60405180910390fd5b34801561023257600080fd5b5061023b610a03565b6040516102489190613974565b60405180910390f35b34801561025d57600080fd5b50610266610d1e565b60405161027391906139a5565b60405180910390f35b34801561028857600080fd5b50610291610d24565b60405161029e91906139a5565b60405180910390f35b3480156102b357600080fd5b506102ce60048036038101906102c99190613a00565b610d2a565b005b6102d8610791565b005b3480156102e657600080fd5b5061030160048036038101906102fc9190613a59565b610eca565b005b34801561030f57600080fd5b5061032a60048036038101906103259190613aeb565b610fea565b005b61034660048036038101906103419190613d71565b61107e565b005b34801561035457600080fd5b5061036f600480360381019061036a9190613e40565b611a8d565b005b34801561037d57600080fd5b50610386611c9e565b005b34801561039457600080fd5b5061039d611ef0565b6040516103aa91906139a5565b60405180910390f35b3480156103bf57600080fd5b506103c8611ef6565b005b3480156103d657600080fd5b506103df612126565b6040516103ec91906139a5565b60405180910390f35b34801561040157600080fd5b5061040a61212b565b60405161041791906139a5565b60405180910390f35b34801561042c57600080fd5b5061044760048036038101906104429190613a59565b612137565b6040516104549190613e8f565b60405180910390f35b34801561046957600080fd5b50610484600480360381019061047f9190613f5f565b612175565b60405161049292919061400c565b60405180910390f35b3480156104a757600080fd5b506104b0612614565b6040516104bd919061409b565b60405180910390f35b3480156104d257600080fd5b506104ed60048036038101906104e89190613a00565b61263a565b604051610502999897969594939291906140ef565b60405180910390f35b34801561051757600080fd5b50610532600480360381019061052d9190613a00565b612840565b005b34801561054057600080fd5b50610549612986565b60405161055691906139a5565b60405180910390f35b34801561056b57600080fd5b5061058660048036038101906105819190613a00565b6129aa565b6040516105969493929190614191565b60405180910390f35b3480156105ab57600080fd5b506105c660048036038101906105c19190613a59565b6129fa565b6040516105d5939291906141d6565b60405180910390f35b3480156105ea57600080fd5b50610605600480360381019061060091906142ae565b612a44565b005b34801561061357600080fd5b5061062e60048036038101906106299190613a00565b612d20565b60405161063b9190613e8f565b60405180910390f35b34801561065057600080fd5b50610659612d5f565b6040516106669190614453565b60405180910390f35b34801561067b57600080fd5b5061069660048036038101906106919190613a59565b612ded565b6040516106a391906139a5565b60405180910390f35b3480156106b857600080fd5b506106d360048036038101906106ce9190613a59565b612e05565b6040516106e091906139a5565b60405180910390f35b3480156106f557600080fd5b50610710600480360381019061070b9190613e40565b612e1d565b005b34801561071e57600080fd5b506107276132d0565b6040516107349190613e8f565b60405180910390f35b34801561074957600080fd5b506107526132f4565b60405161075f91906139a5565b60405180910390f35b34801561077457600080fd5b5061078f600480360381019061078a9190613a00565b613302565b005b600034116107d4576040517f08c379a00000000000000000000000000000000000000000000000000000000081526004016107cb906144e7565b60405180910390fd5b60006107f1670de0b6b3a7640000346134e090919063ffffffff16565b905080600160009054906101000a900473ffffffffffffffffffffffffffffffffffffffff1673ffffffffffffffffffffffffffffffffffffffff166370a08231306040518263ffffffff1660e01b815260040161084f9190613e8f565b602060405180830381865afa15801561086c573d6000803e3d6000fd5b505050506040513d601f19601f82011682018060405250810190610890919061451c565b10156108d1576040517f08c379a00000000000000000000000000000000000000000000000000000000081526004016108c890614595565b60405180910390fd5b600160009054906101000a900473ffffffffffffffffffffffffffffffffffffffff1673ffffffffffffffffffffffffffffffffffffffff1663a9059cbb33836040518363ffffffff1660e01b815260040161092e9291906145b5565b6020604051808303816000875af115801561094d573d6000803e3d6000fd5b505050506040513d601f19601f8201168201806040525081019061097191906145f3565b6109b0576040517f08c379a00000000000000000000000000000000000000000000000000000000081526004016109a79061466c565b60405180910390fd5b3373ffffffffffffffffffffffffffffffffffffffff167f95db8762f4600873df8fdbc44f0e34fa831e5cc7396f3dda3a5cd0825acd5bdb34836040516109f892919061468c565b60405180910390a250565b606060006001600854610a1691906146e4565b67ffffffffffffffff811115610a2f57610a2e613b38565b5b604051908082528060200260200182016040528015610a6857816020015b610a55613522565b815260200190600190039081610a4d5790505b5090506000600190505b600854811015610d1657600660008281526020019081526020016000206040518061012001604052908160008201548152602001600182018054610ab590614747565b80601f0160208091040260200160405190810160405280929190818152602001828054610ae190614747565b8015610b2e5780601f10610b0357610100808354040283529160200191610b2e565b820191906000526020600020905b815481529060010190602001808311610b1157829003601f168201915b50505050508152602001600282018054610b4790614747565b80601f0160208091040260200160405190810160405280929190818152602001828054610b7390614747565b8015610bc05780601f10610b9557610100808354040283529160200191610bc0565b820191906000526020600020905b815481529060010190602001808311610ba357829003601f168201915b50505050508152602001600382015481526020016004820160009054906101000a900473ffffffffffffffffffffffffffffffffffffffff1673ffffffffffffffffffffffffffffffffffffffff1673ffffffffffffffffffffffffffffffffffffffff168152602001600582015481526020016006820154815260200160078201548152602001600882018054610c5790614747565b80601f0160208091040260200160405190810160405280929190818152602001828054610c8390614747565b8015610cd05780601f10610ca557610100808354040283529160200191610cd0565b820191906000526020600020905b815481529060010190602001808311610cb357829003601f168201915b50505050508152505082600183610ce791906146e4565b81518110610cf857610cf7614778565b5b60200260200101819052508080610d0e906147a7565b915050610a72565b508091505090565b60025481565b60095481565b60008054906101000a900473ffffffffffffffffffffffffffffffffffffffff1673ffffffffffffffffffffffffffffffffffffffff163373ffffffffffffffffffffffffffffffffffffffff1614610db8576040517f08c379a0000000000000000000000000000000000000000000000000000000008152600401610daf90614861565b60405180910390fd5b600160009054906101000a900473ffffffffffffffffffffffffffffffffffffffff1673ffffffffffffffffffffffffffffffffffffffff1663a9059cbb60008054906101000a900473ffffffffffffffffffffffffffffffffffffffff16836040518363ffffffff1660e01b8152600401610e359291906145b5565b6020604051808303816000875af1158015610e54573d6000803e3d6000fd5b505050506040513d601f19601f82011682018060405250810190610e7891906145f3565b503373ffffffffffffffffffffffffffffffffffffffff167f6352c5382c4a4578e712449ca65e83cdb392d045dfcf1cad9615189db2da244b82604051610ebf91906139a5565b60405180910390a250565b60008054906101000a900473ffffffffffffffffffffffffffffffffffffffff1673ffffffffffffffffffffffffffffffffffffffff163373ffffffffffffffffffffffffffffffffffffffff1614610f58576040517f08c379a0000000000000000000000000000000000000000000000000000000008152600401610f4f90614861565b60405180910390fd5b80600160006101000a81548173ffffffffffffffffffffffffffffffffffffffff021916908373ffffffffffffffffffffffffffffffffffffffff1602179055503373ffffffffffffffffffffffffffffffffffffffff167f6eca818bb499e114c9a2ead8c104a976418f0ca9c27fd7ead167e9125e613d4582604051610fdf9190613e8f565b60405180910390a250565b600061100460405180602001604052806000815250612175565b50905080611047576040517f08c379a000000000000000000000000000000000000000000000000000000000815260040161103e906148cd565b60405180910390fd5b6000838381019061105891906149b0565b90508060039080519060200190611070929190613584565b504260028190555050505050565b83518551146110c2576040517f08c379a00000000000000000000000000000000000000000000000000000000081526004016110b990614a6b565b60405180910390fd5b600060646005846110d39190614a8b565b6110dd9190614afc565b9050600082846110ed91906146e4565b905080341015611132576040517f08c379a000000000000000000000000000000000000000000000000000000000815260040161112990614b79565b60405180910390fd5b3073ffffffffffffffffffffffffffffffffffffffff166108fc839081150290604051600060405180830381858888f19350505050158015611178573d6000803e3d6000fd5b5060005b8751811015611a83576000600660008a848151811061119e5761119d614778565b5b6020026020010151815260200190815260200160002060405180610120016040529081600082015481526020016001820180546111da90614747565b80601f016020809104026020016040519081016040528092919081815260200182805461120690614747565b80156112535780601f1061122857610100808354040283529160200191611253565b820191906000526020600020905b81548152906001019060200180831161123657829003601f168201915b5050505050815260200160028201805461126c90614747565b80601f016020809104026020016040519081016040528092919081815260200182805461129890614747565b80156112e55780601f106112ba576101008083540402835291602001916112e5565b820191906000526020600020905b8154815290600101906020018083116112c857829003601f168201915b50505050508152602001600382015481526020016004820160009054906101000a900473ffffffffffffffffffffffffffffffffffffffff1673ffffffffffffffffffffffffffffffffffffffff1673ffffffffffffffffffffffffffffffffffffffff16815260200160058201548152602001600682015481526020016007820154815260200160088201805461137c90614747565b80601f01602080910402602001604051908101604052809291908181526020018280546113a890614747565b80156113f55780601f106113ca576101008083540402835291602001916113f5565b820191906000526020600020905b8154815290600101906020018083116113d857829003601f168201915b5050505050815250509050600088838151811061141557611414614778565b5b60200260200101518260a0015161142c9190614a8b565b90506000600a8261143d9190614afc565b905061149481600460003373ffffffffffffffffffffffffffffffffffffffff1673ffffffffffffffffffffffffffffffffffffffff168152602001908152602001600020600201546134f690919063ffffffff16565b600460003373ffffffffffffffffffffffffffffffffffffffff1673ffffffffffffffffffffffffffffffffffffffff168152602001908152602001600020600201819055503373ffffffffffffffffffffffffffffffffffffffff167f2c4c0dc427a50c4a69d2fc184c47a311acf950d8d2f289fbaee64e83e9b289678260405161152091906139a5565b60405180910390a288848151811061153b5761153a614778565b5b6020026020010151156116c957826080015173ffffffffffffffffffffffffffffffffffffffff166108fc60646005856115759190614a8b565b61157f9190614afc565b8461158a91906146e4565b9081150290604051600060405180830381858888f193505050501580156115b5573d6000803e3d6000fd5b50600160009054906101000a900473ffffffffffffffffffffffffffffffffffffffff1673ffffffffffffffffffffffffffffffffffffffff166323b872dd8460800151338d888151811061160d5761160c614778565b5b60200260200101518760c001516116249190614a8b565b6040518463ffffffff1660e01b815260040161164293929190614b99565b6020604051808303816000875af1158015611661573d6000803e3d6000fd5b505050506040513d601f19601f8201168201806040525081019061168591906145f3565b6116c4576040517f08c379a00000000000000000000000000000000000000000000000000000000081526004016116bb90614c1c565b60405180910390fd5b61187a565b826080015173ffffffffffffffffffffffffffffffffffffffff166108fc60646005856116f69190614a8b565b6117009190614afc565b8c878151811061171357611712614778565b5b60200260200101518660e0015161172a9190614a8b565b8561173591906146e4565b61173f91906146e4565b9081150290604051600060405180830381858888f1935050505015801561176a573d6000803e3d6000fd5b50600160009054906101000a900473ffffffffffffffffffffffffffffffffffffffff1673ffffffffffffffffffffffffffffffffffffffff166323b872dd3385608001518d88815181106117c2576117c1614778565b5b60200260200101518760e001516117d99190614a8b565b6040518463ffffffff1660e01b81526004016117f793929190614b99565b6020604051808303816000875af1158015611816573d6000803e3d6000fd5b505050506040513d601f19601f8201168201806040525081019061183a91906145f3565b611879576040517f08c379a000000000000000000000000000000000000000000000000000000000815260040161187090614c88565b60405180910390fd5b5b604051806080016040528060095481526020013373ffffffffffffffffffffffffffffffffffffffff1681526020018c86815181106118bc576118bb614778565b5b602002602001015181526020018b86815181106118dc576118db614778565b5b60200260200101518152506007600060095481526020019081526020016000206000820151816000015560208201518160010160006101000a81548173ffffffffffffffffffffffffffffffffffffffff021916908373ffffffffffffffffffffffffffffffffffffffff1602179055506040820151816002015560608201518160030155905050600460003373ffffffffffffffffffffffffffffffffffffffff1673ffffffffffffffffffffffffffffffffffffffff16815260200190815260200160002060030160095490806001815401808255809150506001900390600052602060002001600090919091909150558a84815181106119e2576119e1614778565b5b60200260200101513373ffffffffffffffffffffffffffffffffffffffff166009547f7d3c39a6cce20f6949eff0833a4d54fca734dc7c6027773d8885e7faeac98a958d8881518110611a3857611a37614778565b5b6020026020010151604051611a4d91906139a5565b60405180910390a460096000815480929190611a68906147a7565b91905055505050508080611a7b906147a7565b91505061117c565b5050505050505050565b60008054906101000a900473ffffffffffffffffffffffffffffffffffffffff1673ffffffffffffffffffffffffffffffffffffffff163373ffffffffffffffffffffffffffffffffffffffff1614611b1b576040517f08c379a0000000000000000000000000000000000000000000000000000000008152600401611b1290614861565b60405180910390fd5b600160009054906101000a900473ffffffffffffffffffffffffffffffffffffffff1673ffffffffffffffffffffffffffffffffffffffff166370a08231306040518263ffffffff1660e01b8152600401611b769190613e8f565b602060405180830381865afa158015611b93573d6000803e3d6000fd5b505050506040513d601f19601f82011682018060405250810190611bb7919061451c565b811115611bf9576040517f08c379a0000000000000000000000000000000000000000000000000000000008152600401611bf090614cf4565b60405180910390fd5b600160009054906101000a900473ffffffffffffffffffffffffffffffffffffffff1673ffffffffffffffffffffffffffffffffffffffff1663a9059cbb83836040518363ffffffff1660e01b8152600401611c569291906145b5565b6020604051808303816000875af1158015611c75573d6000803e3d6000fd5b505050506040513d601f19601f82011682018060405250810190611c9991906145f3565b505050565b600073ffffffffffffffffffffffffffffffffffffffff16600460003373ffffffffffffffffffffffffffffffffffffffff1673ffffffffffffffffffffffffffffffffffffffff16815260200190815260200160002060000160009054906101000a900473ffffffffffffffffffffffffffffffffffffffff1673ffffffffffffffffffffffffffffffffffffffff1614611d6f576040517f08c379a0000000000000000000000000000000000000000000000000000000008152600401611d6690614d60565b60405180910390fd5b60405180608001604052803373ffffffffffffffffffffffffffffffffffffffff1681526020016000815260200160008152602001600067ffffffffffffffff811115611dbf57611dbe613b38565b5b604051908082528060200260200182016040528015611ded5781602001602082028036833780820191505090505b50815250600460003373ffffffffffffffffffffffffffffffffffffffff1673ffffffffffffffffffffffffffffffffffffffff16815260200190815260200160002060008201518160000160006101000a81548173ffffffffffffffffffffffffffffffffffffffff021916908373ffffffffffffffffffffffffffffffffffffffff16021790555060208201518160010155604082015181600201556060820151816003019080519060200190611ea792919061360e565b509050503373ffffffffffffffffffffffffffffffffffffffff167f54db7a5cb4735e1aac1f53db512d3390390bb6637bd30ad4bf9fc98667d9b9b960405160405180910390a2565b60085481565b600073ffffffffffffffffffffffffffffffffffffffff16600560003373ffffffffffffffffffffffffffffffffffffffff1673ffffffffffffffffffffffffffffffffffffffff16815260200190815260200160002060000160009054906101000a900473ffffffffffffffffffffffffffffffffffffffff1673ffffffffffffffffffffffffffffffffffffffff1614611fc7576040517f08c379a0000000000000000000000000000000000000000000000000000000008152600401611fbe90614dcc565b60405180910390fd5b60405180604001604052803373ffffffffffffffffffffffffffffffffffffffff168152602001600067ffffffffffffffff81111561200957612008613b38565b5b6040519080825280602002602001820160405280156120375781602001602082028036833780820191505090505b50815250600560003373ffffffffffffffffffffffffffffffffffffffff1673ffffffffffffffffffffffffffffffffffffffff16815260200190815260200160002060008201518160000160006101000a81548173ffffffffffffffffffffffffffffffffffffffff021916908373ffffffffffffffffffffffffffffffffffffffff16021790555060208201518160010190805190602001906120dd92919061360e565b509050503373ffffffffffffffffffffffffffffffffffffffff167f4d97d287a8f631378031b05cb24c876085261ddaa7b8f584477370ef473fbb3d60405160405180910390a2565b600581565b670de0b6b3a764000081565b60056020528060005260406000206000915090508060000160009054906101000a900473ffffffffffffffffffffffffffffffffffffffff16905081565b6000606060007f0000000000000000000000000000000000000000000000000000000000000000600254426121aa91906146e4565b1190506000606467ffffffffffffffff8111156121ca576121c9613b38565b5b6040519080825280602002602001820160405280156121f85781602001602082028036833780820191505090505b5090506000606467ffffffffffffffff81111561221857612217613b38565b5b6040519080825280602002602001820160405280156122465781602001602082028036833780820191505090505b509050600080606460095461225b91906146e4565b11612267576000612277565b606460095461227691906146e4565b5b905060008190505b6009548110156123d0576007600082815260200190815260200160002060010160009054906101000a900473ffffffffffffffffffffffffffffffffffffffff16846001836122ce91906146e4565b815181106122df576122de614778565b5b602002602001019073ffffffffffffffffffffffffffffffffffffffff16908173ffffffffffffffffffffffffffffffffffffffff1681525050600460006007600084815260200190815260200160002060010160009054906101000a900473ffffffffffffffffffffffffffffffffffffffff1673ffffffffffffffffffffffffffffffffffffffff1673ffffffffffffffffffffffffffffffffffffffff16815260200190815260200160002060020154836001836123a091906146e4565b815181106123b1576123b0614778565b5b60200260200101818152505080806123c8906147a7565b91505061227f565b5060005b82518110156125e55760005b600184516123ee91906146e4565b8110156125d157836001826124039190614dec565b8151811061241457612413614778565b5b602002602001015184828151811061242f5761242e614778565b5b602002602001015110156125be57600084828151811061245257612451614778565b5b602002602001015190508460018361246a9190614dec565b8151811061247b5761247a614778565b5b602002602001015185838151811061249657612495614778565b5b60200260200101818152505080856001846124b19190614dec565b815181106124c2576124c1614778565b5b60200260200101818152505060008683815181106124e3576124e2614778565b5b60200260200101519050866001846124fb9190614dec565b8151811061250c5761250b614778565b5b602002602001015187848151811061252757612526614778565b5b602002602001019073ffffffffffffffffffffffffffffffffffffffff16908173ffffffffffffffffffffffffffffffffffffffff168152505080876001856125709190614dec565b8151811061258157612580614778565b5b602002602001019073ffffffffffffffffffffffffffffffffffffffff16908173ffffffffffffffffffffffffffffffffffffffff168152505050505b80806125c9906147a7565b9150506123e0565b5080806125dd906147a7565b9150506123d4565b50839550826040516020016125fa9190614453565b604051602081830303815290604052945050505050915091565b600160009054906101000a900473ffffffffffffffffffffffffffffffffffffffff1681565b600660205280600052604060002060009150905080600001549080600101805461266390614747565b80601f016020809104026020016040519081016040528092919081815260200182805461268f90614747565b80156126dc5780601f106126b1576101008083540402835291602001916126dc565b820191906000526020600020905b8154815290600101906020018083116126bf57829003601f168201915b5050505050908060020180546126f190614747565b80601f016020809104026020016040519081016040528092919081815260200182805461271d90614747565b801561276a5780601f1061273f5761010080835404028352916020019161276a565b820191906000526020600020905b81548152906001019060200180831161274d57829003601f168201915b5050505050908060030154908060040160009054906101000a900473ffffffffffffffffffffffffffffffffffffffff16908060050154908060060154908060070154908060080180546127bd90614747565b80601f01602080910402602001604051908101604052809291908181526020018280546127e990614747565b80156128365780601f1061280b57610100808354040283529160200191612836565b820191906000526020600020905b81548152906001019060200180831161281957829003601f168201915b5050505050905089565b60008054906101000a900473ffffffffffffffffffffffffffffffffffffffff1673ffffffffffffffffffffffffffffffffffffffff163373ffffffffffffffffffffffffffffffffffffffff16146128ce576040517f08c379a00000000000000000000000000000000000000000000000000000000081526004016128c590614861565b60405180910390fd5b60008054906101000a900473ffffffffffffffffffffffffffffffffffffffff1673ffffffffffffffffffffffffffffffffffffffff166108fc829081150290604051600060405180830381858888f19350505050158015612934573d6000803e3d6000fd5b503373ffffffffffffffffffffffffffffffffffffffff167f6efac6899ee41c0fab9566f807fee81972320248574ef8adeac6599ea7eae2468260405161297b91906139a5565b60405180910390a250565b7f000000000000000000000000000000000000000000000000000000000000000081565b60076020528060005260406000206000915090508060000154908060010160009054906101000a900473ffffffffffffffffffffffffffffffffffffffff16908060020154908060030154905084565b60046020528060005260406000206000915090508060000160009054906101000a900473ffffffffffffffffffffffffffffffffffffffff16908060010154908060020154905083565b600073ffffffffffffffffffffffffffffffffffffffff16600560003373ffffffffffffffffffffffffffffffffffffffff1673ffffffffffffffffffffffffffffffffffffffff16815260200190815260200160002060000160009054906101000a900473ffffffffffffffffffffffffffffffffffffffff1673ffffffffffffffffffffffffffffffffffffffff1603612b15576040517f08c379a0000000000000000000000000000000000000000000000000000000008152600401612b0c90614e92565b60405180910390fd5b60405180610120016040528060085481526020018881526020018781526020018681526020013373ffffffffffffffffffffffffffffffffffffffff16815260200185815260200184815260200183815260200182815250600660006008548152602001908152602001600020600082015181600001556020820151816001019081612ba19190615054565b506040820151816002019081612bb79190615054565b506060820151816003015560808201518160040160006101000a81548173ffffffffffffffffffffffffffffffffffffffff021916908373ffffffffffffffffffffffffffffffffffffffff16021790555060a0820151816005015560c0820151816006015560e08201518160070155610100820151816008019081612c3d9190615054565b50905050600560003373ffffffffffffffffffffffffffffffffffffffff1673ffffffffffffffffffffffffffffffffffffffff16815260200190815260200160002060010160085490806001815401808255809150506001900390600052602060002001600090919091909150553373ffffffffffffffffffffffffffffffffffffffff166008547fef311eec1d40202fee1909ab585df5e024df1930dc6bba97722d1e60e91c01f78987604051612cf7929190615126565b60405180910390a360086000815480929190612d12906147a7565b919050555050505050505050565b60038181548110612d3057600080fd5b906000526020600020016000915054906101000a900473ffffffffffffffffffffffffffffffffffffffff1681565b60606003805480602002602001604051908101604052809291908181526020018280548015612de357602002820191906000526020600020905b8160009054906101000a900473ffffffffffffffffffffffffffffffffffffffff1673ffffffffffffffffffffffffffffffffffffffff1681526020019060010190808311612d99575b5050505050905090565b600b6020528060005260406000206000915090505481565b600a6020528060005260406000206000915090505481565b600073ffffffffffffffffffffffffffffffffffffffff16600560003373ffffffffffffffffffffffffffffffffffffffff1673ffffffffffffffffffffffffffffffffffffffff16815260200190815260200160002060000160009054906101000a900473ffffffffffffffffffffffffffffffffffffffff1673ffffffffffffffffffffffffffffffffffffffff1603612eee576040517f08c379a0000000000000000000000000000000000000000000000000000000008152600401612ee590614e92565b60405180910390fd5b69010f0cf064dd59200000811115612f3b576040517f08c379a0000000000000000000000000000000000000000000000000000000008152600401612f32906151a2565b60405180910390fd5b62278d00600b60003373ffffffffffffffffffffffffffffffffffffffff1673ffffffffffffffffffffffffffffffffffffffff16815260200190815260200160002054612f899190614dec565b42111561301a576000600a60003373ffffffffffffffffffffffffffffffffffffffff1673ffffffffffffffffffffffffffffffffffffffff1681526020019081526020016000208190555042600b60003373ffffffffffffffffffffffffffffffffffffffff1673ffffffffffffffffffffffffffffffffffffffff168152602001908152602001600020819055505b69010f0cf064dd5920000061307782600a60003373ffffffffffffffffffffffffffffffffffffffff1673ffffffffffffffffffffffffffffffffffffffff168152602001908152602001600020546134f690919063ffffffff16565b11156130b8576040517f08c379a00000000000000000000000000000000000000000000000000000000081526004016130af9061520e565b60405180910390fd5b600160009054906101000a900473ffffffffffffffffffffffffffffffffffffffff1673ffffffffffffffffffffffffffffffffffffffff166370a08231306040518263ffffffff1660e01b81526004016131139190613e8f565b602060405180830381865afa158015613130573d6000803e3d6000fd5b505050506040513d601f19601f82011682018060405250810190613154919061451c565b811115613196576040517f08c379a000000000000000000000000000000000000000000000000000000000815260040161318d90614cf4565b60405180910390fd5b600160009054906101000a900473ffffffffffffffffffffffffffffffffffffffff1673ffffffffffffffffffffffffffffffffffffffff1663a9059cbb83836040518363ffffffff1660e01b81526004016131f39291906145b5565b6020604051808303816000875af1158015613212573d6000803e3d6000fd5b505050506040513d601f19601f8201168201806040525081019061323691906145f3565b5061328981600a60003373ffffffffffffffffffffffffffffffffffffffff1673ffffffffffffffffffffffffffffffffffffffff168152602001908152602001600020546134f690919063ffffffff16565b600a60003373ffffffffffffffffffffffffffffffffffffffff1673ffffffffffffffffffffffffffffffffffffffff168152602001908152602001600020819055505050565b60008054906101000a900473ffffffffffffffffffffffffffffffffffffffff1681565b69010f0cf064dd5920000081565b60008111613345576040517f08c379a000000000000000000000000000000000000000000000000000000000815260040161333c9061527a565b60405180910390fd5b6000613362670de0b6b3a76400008361350c90919063ffffffff16565b9050600160009054906101000a900473ffffffffffffffffffffffffffffffffffffffff1673ffffffffffffffffffffffffffffffffffffffff166323b872dd3330856040518463ffffffff1660e01b81526004016133c393929190614b99565b6020604051808303816000875af11580156133e2573d6000803e3d6000fd5b505050506040513d601f19601f8201168201806040525081019061340691906145f3565b613445576040517f08c379a000000000000000000000000000000000000000000000000000000000815260040161343c9061466c565b60405180910390fd5b3373ffffffffffffffffffffffffffffffffffffffff166108fc829081150290604051600060405180830381858888f1935050505015801561348b573d6000803e3d6000fd5b503373ffffffffffffffffffffffffffffffffffffffff167fae8bcd366b92d4b55d90c0ccbfd8a50a60bae24f201c5899a989e99a3d877b9383836040516134d492919061468c565b60405180910390a25050565b600081836134ee9190614afc565b905092915050565b600081836135049190614dec565b905092915050565b6000818361351a9190614a8b565b905092915050565b60405180610120016040528060008152602001606081526020016060815260200160008152602001600073ffffffffffffffffffffffffffffffffffffffff168152602001600081526020016000815260200160008152602001606081525090565b8280548282559060005260206000209081019282156135fd579160200282015b828111156135fc5782518260006101000a81548173ffffffffffffffffffffffffffffffffffffffff021916908373ffffffffffffffffffffffffffffffffffffffff160217905550916020019190600101906135a4565b5b50905061360a919061365b565b5090565b82805482825590600052602060002090810192821561364a579160200282015b8281111561364957825182559160200191906001019061362e565b5b509050613657919061365b565b5090565b5b8082111561367457600081600090555060010161365c565b5090565b600082825260208201905092915050565b7f4f7065726174696f6e206e6f7420737570706f72746564000000000000000000600082015250565b60006136bf601783613678565b91506136ca82613689565b602082019050919050565b600060208201905081810360008301526136ee816136b2565b9050919050565b600081519050919050565b600082825260208201905092915050565b6000819050602082019050919050565b6000819050919050565b61373481613721565b82525050565b600081519050919050565b600082825260208201905092915050565b60005b83811015613774578082015181840152602081019050613759565b60008484015250505050565b6000601f19601f8301169050919050565b600061379c8261373a565b6137a68185613745565b93506137b6818560208601613756565b6137bf81613780565b840191505092915050565b600073ffffffffffffffffffffffffffffffffffffffff82169050919050565b60006137f5826137ca565b9050919050565b613805816137ea565b82525050565b600061012083016000830151613824600086018261372b565b506020830151848203602086015261383c8282613791565b915050604083015184820360408601526138568282613791565b915050606083015161386b606086018261372b565b50608083015161387e60808601826137fc565b5060a083015161389160a086018261372b565b5060c08301516138a460c086018261372b565b5060e08301516138b760e086018261372b565b506101008301518482036101008601526138d18282613791565b9150508091505092915050565b60006138ea838361380b565b905092915050565b6000602082019050919050565b600061390a826136f5565b6139148185613700565b93508360208202850161392685613711565b8060005b85811015613962578484038952815161394385826138de565b945061394e836138f2565b925060208a0199505060018101905061392a565b50829750879550505050505092915050565b6000602082019050818103600083015261398e81846138ff565b905092915050565b61399f81613721565b82525050565b60006020820190506139ba6000830184613996565b92915050565b6000604051905090565b600080fd5b600080fd5b6139dd81613721565b81146139e857600080fd5b50565b6000813590506139fa816139d4565b92915050565b600060208284031215613a1657613a156139ca565b5b6000613a24848285016139eb565b91505092915050565b613a36816137ea565b8114613a4157600080fd5b50565b600081359050613a5381613a2d565b92915050565b600060208284031215613a6f57613a6e6139ca565b5b6000613a7d84828501613a44565b91505092915050565b600080fd5b600080fd5b600080fd5b60008083601f840112613aab57613aaa613a86565b5b8235905067ffffffffffffffff811115613ac857613ac7613a8b565b5b602083019150836001820283011115613ae457613ae3613a90565b5b9250929050565b60008060208385031215613b0257613b016139ca565b5b600083013567ffffffffffffffff811115613b2057613b1f6139cf565b5b613b2c85828601613a95565b92509250509250929050565b7f4e487b7100000000000000000000000000000000000000000000000000000000600052604160045260246000fd5b613b7082613780565b810181811067ffffffffffffffff82111715613b8f57613b8e613b38565b5b80604052505050565b6000613ba26139c0565b9050613bae8282613b67565b919050565b600067ffffffffffffffff821115613bce57613bcd613b38565b5b602082029050602081019050919050565b6000613bf2613bed84613bb3565b613b98565b90508083825260208201905060208402830185811115613c1557613c14613a90565b5b835b81811015613c3e5780613c2a88826139eb565b845260208401935050602081019050613c17565b5050509392505050565b600082601f830112613c5d57613c5c613a86565b5b8135613c6d848260208601613bdf565b91505092915050565b600067ffffffffffffffff821115613c9157613c90613b38565b5b602082029050602081019050919050565b60008115159050919050565b613cb781613ca2565b8114613cc257600080fd5b50565b600081359050613cd481613cae565b92915050565b6000613ced613ce884613c76565b613b98565b90508083825260208201905060208402830185811115613d1057613d0f613a90565b5b835b81811015613d395780613d258882613cc5565b845260208401935050602081019050613d12565b5050509392505050565b600082601f830112613d5857613d57613a86565b5b8135613d68848260208601613cda565b91505092915050565b600080600080600060a08688031215613d8d57613d8c6139ca565b5b600086013567ffffffffffffffff811115613dab57613daa6139cf565b5b613db788828901613c48565b955050602086013567ffffffffffffffff811115613dd857613dd76139cf565b5b613de488828901613c48565b945050604086013567ffffffffffffffff811115613e0557613e046139cf565b5b613e1188828901613d43565b9350506060613e22888289016139eb565b9250506080613e33888289016139eb565b9150509295509295909350565b60008060408385031215613e5757613e566139ca565b5b6000613e6585828601613a44565b9250506020613e76858286016139eb565b9150509250929050565b613e89816137ea565b82525050565b6000602082019050613ea46000830184613e80565b92915050565b600080fd5b600067ffffffffffffffff821115613eca57613ec9613b38565b5b613ed382613780565b9050602081019050919050565b82818337600083830152505050565b6000613f02613efd84613eaf565b613b98565b905082815260208101848484011115613f1e57613f1d613eaa565b5b613f29848285613ee0565b509392505050565b600082601f830112613f4657613f45613a86565b5b8135613f56848260208601613eef565b91505092915050565b600060208284031215613f7557613f746139ca565b5b600082013567ffffffffffffffff811115613f9357613f926139cf565b5b613f9f84828501613f31565b91505092915050565b613fb181613ca2565b82525050565b600081519050919050565b600082825260208201905092915050565b6000613fde82613fb7565b613fe88185613fc2565b9350613ff8818560208601613756565b61400181613780565b840191505092915050565b60006040820190506140216000830185613fa8565b81810360208301526140338184613fd3565b90509392505050565b6000819050919050565b600061406161405c614057846137ca565b61403c565b6137ca565b9050919050565b600061407382614046565b9050919050565b600061408582614068565b9050919050565b6140958161407a565b82525050565b60006020820190506140b0600083018461408c565b92915050565b60006140c18261373a565b6140cb8185613678565b93506140db818560208601613756565b6140e481613780565b840191505092915050565b600061012082019050614105600083018c613996565b8181036020830152614117818b6140b6565b9050818103604083015261412b818a6140b6565b905061413a6060830189613996565b6141476080830188613e80565b61415460a0830187613996565b61416160c0830186613996565b61416e60e0830185613996565b81810361010083015261418181846140b6565b90509a9950505050505050505050565b60006080820190506141a66000830187613996565b6141b36020830186613e80565b6141c06040830185613996565b6141cd6060830184613996565b95945050505050565b60006060820190506141eb6000830186613e80565b6141f86020830185613996565b6142056040830184613996565b949350505050565b600067ffffffffffffffff82111561422857614227613b38565b5b61423182613780565b9050602081019050919050565b600061425161424c8461420d565b613b98565b90508281526020810184848401111561426d5761426c613eaa565b5b614278848285613ee0565b509392505050565b600082601f83011261429557614294613a86565b5b81356142a584826020860161423e565b91505092915050565b600080600080600080600060e0888a0312156142cd576142cc6139ca565b5b600088013567ffffffffffffffff8111156142eb576142ea6139cf565b5b6142f78a828b01614280565b975050602088013567ffffffffffffffff811115614318576143176139cf565b5b6143248a828b01614280565b96505060406143358a828b016139eb565b95505060606143468a828b016139eb565b94505060806143578a828b016139eb565b93505060a06143688a828b016139eb565b92505060c088013567ffffffffffffffff811115614389576143886139cf565b5b6143958a828b01614280565b91505092959891949750929550565b600081519050919050565b600082825260208201905092915050565b6000819050602082019050919050565b60006143dc83836137fc565b60208301905092915050565b6000602082019050919050565b6000614400826143a4565b61440a81856143af565b9350614415836143c0565b8060005b8381101561444657815161442d88826143d0565b9750614438836143e8565b925050600181019050614419565b5085935050505092915050565b6000602082019050818103600083015261446d81846143f5565b905092915050565b7f4d4154494320616d6f756e742073686f756c642062652067726561746572207460008201527f68616e2030000000000000000000000000000000000000000000000000000000602082015250565b60006144d1602583613678565b91506144dc82614475565b604082019050919050565b60006020820190508181036000830152614500816144c4565b9050919050565b600081519050614516816139d4565b92915050565b600060208284031215614532576145316139ca565b5b600061454084828501614507565b91505092915050565b7f4e6f7420656e6f756768204c525420696e20636f6e7472616374000000000000600082015250565b600061457f601a83613678565b915061458a82614549565b602082019050919050565b600060208201905081810360008301526145ae81614572565b9050919050565b60006040820190506145ca6000830185613e80565b6145d76020830184613996565b9392505050565b6000815190506145ed81613cae565b92915050565b600060208284031215614609576146086139ca565b5b6000614617848285016145de565b91505092915050565b7f4c5254207472616e73666572206661696c656400000000000000000000000000600082015250565b6000614656601383613678565b915061466182614620565b602082019050919050565b6000602082019050818103600083015261468581614649565b9050919050565b60006040820190506146a16000830185613996565b6146ae6020830184613996565b9392505050565b7f4e487b7100000000000000000000000000000000000000000000000000000000600052601160045260246000fd5b60006146ef82613721565b91506146fa83613721565b9250828203905081811115614712576147116146b5565b5b92915050565b7f4e487b7100000000000000000000000000000000000000000000000000000000600052602260045260246000fd5b6000600282049050600182168061475f57607f821691505b60208210810361477257614771614718565b5b50919050565b7f4e487b7100000000000000000000000000000000000000000000000000000000600052603260045260246000fd5b60006147b282613721565b91507fffffffffffffffffffffffffffffffffffffffffffffffffffffffffffffffff82036147e4576147e36146b5565b5b600182019050919050565b7f4f6e6c792061646d696e2063616e2063616c6c20746869732066756e6374696f60008201527f6e00000000000000000000000000000000000000000000000000000000000000602082015250565b600061484b602183613678565b9150614856826147ef565b604082019050919050565b6000602082019050818103600083015261487a8161483e565b9050919050565b7f55706b656570206e6f74206e6565646564000000000000000000000000000000600082015250565b60006148b7601183613678565b91506148c282614881565b602082019050919050565b600060208201905081810360008301526148e6816148aa565b9050919050565b600067ffffffffffffffff82111561490857614907613b38565b5b602082029050602081019050919050565b600061492c614927846148ed565b613b98565b9050808382526020820190506020840283018581111561494f5761494e613a90565b5b835b8181101561497857806149648882613a44565b845260208401935050602081019050614951565b5050509392505050565b600082601f83011261499757614996613a86565b5b81356149a7848260208601614919565b91505092915050565b6000602082840312156149c6576149c56139ca565b5b600082013567ffffffffffffffff8111156149e4576149e36139cf565b5b6149f084828501614982565b91505092915050565b7f4d69736d6174636820696e2070726f647563742049447320616e64207175616e60008201527f746974696573206c656e67746800000000000000000000000000000000000000602082015250565b6000614a55602d83613678565b9150614a60826149f9565b604082019050919050565b60006020820190508181036000830152614a8481614a48565b9050919050565b6000614a9682613721565b9150614aa183613721565b9250828202614aaf81613721565b91508282048414831517614ac657614ac56146b5565b5b5092915050565b7f4e487b7100000000000000000000000000000000000000000000000000000000600052601260045260246000fd5b6000614b0782613721565b9150614b1283613721565b925082614b2257614b21614acd565b5b828204905092915050565b7f496e636f7272656374204d415449432073656e74000000000000000000000000600082015250565b6000614b63601483613678565b9150614b6e82614b2d565b602082019050919050565b60006020820190508181036000830152614b9281614b56565b9050919050565b6000606082019050614bae6000830186613e80565b614bbb6020830185613e80565b614bc86040830184613996565b949350505050565b7f52657761726420506f696e7473207472616e73666572206661696c6564000000600082015250565b6000614c06601d83613678565b9150614c1182614bd0565b602082019050919050565b60006020820190508181036000830152614c3581614bf9565b9050919050565b7f4c6f79616c747920546f6b656e207472616e73666572206661696c6564000000600082015250565b6000614c72601d83613678565b9150614c7d82614c3c565b602082019050919050565b60006020820190508181036000830152614ca181614c65565b9050919050565b7f4e6f7420656e6f75676820746f6b656e7320696e207472656173757279000000600082015250565b6000614cde601d83613678565b9150614ce982614ca8565b602082019050919050565b60006020820190508181036000830152614d0d81614cd1565b9050919050565b7f5573657220616c72656164792072656769737465726564000000000000000000600082015250565b6000614d4a601783613678565b9150614d5582614d14565b602082019050919050565b60006020820190508181036000830152614d7981614d3d565b9050919050565b7f53656c6c657220616c7265616479207265676973746572656400000000000000600082015250565b6000614db6601983613678565b9150614dc182614d80565b602082019050919050565b60006020820190508181036000830152614de581614da9565b9050919050565b6000614df782613721565b9150614e0283613721565b9250828201905080821115614e1a57614e196146b5565b5b92915050565b7f4f6e6c792073656c6c6572732063616e2063616c6c20746869732066756e637460008201527f696f6e0000000000000000000000000000000000000000000000000000000000602082015250565b6000614e7c602383613678565b9150614e8782614e20565b604082019050919050565b60006020820190508181036000830152614eab81614e6f565b9050919050565b60008190508160005260206000209050919050565b60006020601f8301049050919050565b600082821b905092915050565b600060088302614f147fffffffffffffffffffffffffffffffffffffffffffffffffffffffffffffffff82614ed7565b614f1e8683614ed7565b95508019841693508086168417925050509392505050565b6000614f51614f4c614f4784613721565b61403c565b613721565b9050919050565b6000819050919050565b614f6b83614f36565b614f7f614f7782614f58565b848454614ee4565b825550505050565b600090565b614f94614f87565b614f9f818484614f62565b505050565b5b81811015614fc357614fb8600082614f8c565b600181019050614fa5565b5050565b601f82111561500857614fd981614eb2565b614fe284614ec7565b81016020851015614ff1578190505b615005614ffd85614ec7565b830182614fa4565b50505b505050565b600082821c905092915050565b600061502b6000198460080261500d565b1980831691505092915050565b6000615044838361501a565b9150826002028217905092915050565b61505d8261373a565b67ffffffffffffffff81111561507657615075613b38565b5b6150808254614747565b61508b828285614fc7565b600060209050601f8311600181146150be57600084156150ac578287015190505b6150b68582615038565b86555061511e565b601f1984166150cc86614eb2565b60005b828110156150f4578489015182556001820191506020850194506020810190506150cf565b86831015615111578489015161510d601f89168261501a565b8355505b6001600288020188555050505b505050505050565b6000604082019050818103600083015261514081856140b6565b905061514f6020830184613996565b9392505050565b7f45786365656473206d6f6e74686c792063617000000000000000000000000000600082015250565b600061518c601383613678565b915061519782615156565b602082019050919050565b600060208201905081810360008301526151bb8161517f565b9050919050565b7f45786365656473206d6f6e74686c792063617020666f722073656c6c65720000600082015250565b60006151f8601e83613678565b9150615203826151c2565b602082019050919050565b60006020820190508181036000830152615227816151eb565b9050919050565b7f416d6f756e742073686f756c642062652067726561746572207468616e203000600082015250565b6000615264601f83613678565b915061526f8261522e565b602082019050919050565b6000602082019050818103600083015261529381615257565b905091905056fea26469706673582212207154f3dd1dfabbfcdcb7de2cc445d8a08eb674bc66d66d271ad139577db57f3564736f6c63430008130033",
  "linkReferences": {},
  "deployedLinkReferences": {}
}