{
  "_format": "hh-sol-artifact-1",
  "contractName": "ECommerceLoyalty",
  "sourceName": "contracts/Loyalty.sol",
  "abi": [
    {
      "inputs": [
        {
          "internalType": "address",
          "name": "_loyaltyTokenAddress",
          "type": "address"
        },
        {
          "internalType": "uint256",
          "name": "_interval",
          "type": "uint256"
        }
      ],
      "stateMutability": "nonpayable",
      "type": "constructor"
    },
    {
      "anonymous": false,
      "inputs": [
        {
          "indexed": true,
          "internalType": "address",
          "name": "sellerAddress",
          "type": "address"
        },
        {
          "indexed": false,
          "internalType": "uint256",
          "name": "lrtAmount",
          "type": "uint256"
        },
        {
          "indexed": false,
          "internalType": "uint256",
          "name": "maticAmount",
          "type": "uint256"
        }
      ],
      "name": "LRTExchangedForMATIC",
      "type": "event"
    },
    {
      "anonymous": false,
      "inputs": [
        {
          "indexed": true,
          "internalType": "address",
          "name": "admin",
          "type": "address"
        },
        {
          "indexed": false,
          "internalType": "address",
          "name": "newLRTTokenAddress",
          "type": "address"
        }
      ],
      "name": "LRTTokenAddressUpdated",
      "type": "event"
    },
    {
      "anonymous": false,
      "inputs": [
        {
          "indexed": true,
          "internalType": "address",
          "name": "sellerAddress",
          "type": "address"
        },
        {
          "indexed": false,
          "internalType": "uint256",
          "name": "maticAmount",
          "type": "uint256"
        },
        {
          "indexed": false,
          "internalType": "uint256",
          "name": "lrtAmount",
          "type": "uint256"
        }
      ],
      "name": "MATICExchangedForLRT",
      "type": "event"
    },
    {
      "anonymous": false,
      "inputs": [
        {
          "indexed": true,
          "internalType": "address",
          "name": "admin",
          "type": "address"
        },
        {
          "indexed": false,
          "internalType": "uint256",
          "name": "amount",
          "type": "uint256"
        }
      ],
      "name": "MATICWithdrawn",
      "type": "event"
    },
    {
      "anonymous": false,
      "inputs": [
        {
          "indexed": true,
          "internalType": "address",
          "name": "buyerAddress",
          "type": "address"
        },
        {
          "indexed": false,
          "internalType": "uint256",
          "name": "pointsEarned",
          "type": "uint256"
        }
      ],
      "name": "PointsEarned",
      "type": "event"
    },
    {
      "anonymous": false,
      "inputs": [
        {
          "indexed": true,
          "internalType": "uint256",
          "name": "productId",
          "type": "uint256"
        },
        {
          "indexed": true,
          "internalType": "address",
          "name": "sellerAddress",
          "type": "address"
        },
        {
          "indexed": false,
          "internalType": "string",
          "name": "name",
          "type": "string"
        },
        {
          "indexed": false,
          "internalType": "uint256",
          "name": "price",
          "type": "uint256"
        }
      ],
      "name": "ProductAdded",
      "type": "event"
    },
    {
      "anonymous": false,
      "inputs": [
        {
          "indexed": true,
          "internalType": "uint256",
          "name": "orderId",
          "type": "uint256"
        },
        {
          "indexed": true,
          "internalType": "address",
          "name": "buyerAddress",
          "type": "address"
        },
        {
          "indexed": true,
          "internalType": "uint256",
          "name": "productId",
          "type": "uint256"
        },
        {
          "indexed": false,
          "internalType": "uint256",
          "name": "quantity",
          "type": "uint256"
        }
      ],
      "name": "ProductPurchased",
      "type": "event"
    },
    {
      "anonymous": false,
      "inputs": [
        {
          "indexed": true,
          "internalType": "address",
          "name": "sellerAddress",
          "type": "address"
        }
      ],
      "name": "SellerRegistered",
      "type": "event"
    },
    {
      "anonymous": false,
      "inputs": [
        {
          "indexed": true,
          "internalType": "address",
          "name": "admin",
          "type": "address"
        },
        {
          "indexed": false,
          "internalType": "uint256",
          "name": "amount",
          "type": "uint256"
        }
      ],
      "name": "TokensWithdrawn",
      "type": "event"
    },
    {
      "anonymous": false,
      "inputs": [
        {
          "indexed": true,
          "internalType": "address",
          "name": "userAddress",
          "type": "address"
        }
      ],
      "name": "UserRegistered",
      "type": "event"
    },
    {
      "stateMutability": "payable",
      "type": "fallback"
    },
    {
      "inputs": [],
      "name": "COMMISSION",
      "outputs": [
        {
          "internalType": "uint256",
          "name": "",
          "type": "uint256"
        }
      ],
      "stateMutability": "view",
      "type": "function"
    },
    {
      "inputs": [],
      "name": "RATE",
      "outputs": [
        {
          "internalType": "uint256",
          "name": "",
          "type": "uint256"
        }
      ],
      "stateMutability": "view",
      "type": "function"
    },
    {
      "inputs": [],
      "name": "SELLER_CAP",
      "outputs": [
        {
          "internalType": "uint256",
          "name": "",
          "type": "uint256"
        }
      ],
      "stateMutability": "view",
      "type": "function"
    },
    {
      "inputs": [
        {
          "internalType": "string",
          "name": "name",
          "type": "string"
        },
        {
          "internalType": "string",
          "name": "_description",
          "type": "string"
        },
        {
          "internalType": "uint256",
          "name": "_quantity",
          "type": "uint256"
        },
        {
          "internalType": "uint256",
          "name": "_price",
          "type": "uint256"
        },
        {
          "internalType": "uint256",
          "name": "_rewardPoints",
          "type": "uint256"
        },
        {
          "internalType": "uint256",
          "name": "loyaltyTokensAccepted",
          "type": "uint256"
        },
        {
          "internalType": "string",
          "name": "_imageURI",
          "type": "string"
        }
      ],
      "name": "addProduct",
      "outputs": [],
      "stateMutability": "nonpayable",
      "type": "function"
    },
    {
      "inputs": [],
      "name": "admin",
      "outputs": [
        {
          "internalType": "address",
          "name": "",
          "type": "address"
        }
      ],
      "stateMutability": "view",
      "type": "function"
    },
    {
      "inputs": [
        {
          "internalType": "bytes",
          "name": "",
          "type": "bytes"
        }
      ],
      "name": "checkUpkeep",
      "outputs": [
        {
          "internalType": "bool",
          "name": "upkeepNeeded",
          "type": "bool"
        },
        {
          "internalType": "bytes",
          "name": "performData",
          "type": "bytes"
        }
      ],
      "stateMutability": "view",
      "type": "function"
    },
    {
      "inputs": [
        {
          "internalType": "uint256",
          "name": "lrtAmount",
          "type": "uint256"
        }
      ],
      "name": "exchangeLRTForMATIC",
      "outputs": [],
      "stateMutability": "nonpayable",
      "type": "function"
    },
    {
      "inputs": [],
      "name": "exchangeMATICForLRT",
      "outputs": [],
      "stateMutability": "payable",
      "type": "function"
    },
    {
      "inputs": [],
      "name": "getAllProducts",
      "outputs": [
        {
          "components": [
            {
              "internalType": "uint256",
              "name": "productId",
              "type": "uint256"
            },
            {
              "internalType": "string",
              "name": "name",
              "type": "string"
            },
            {
              "internalType": "string",
              "name": "description",
              "type": "string"
            },
            {
              "internalType": "uint256",
              "name": "quantity",
              "type": "uint256"
            },
            {
              "internalType": "address",
              "name": "sellerAddress",
              "type": "address"
            },
            {
              "internalType": "uint256",
              "name": "price",
              "type": "uint256"
            },
            {
              "internalType": "uint256",
              "name": "rewardPoints",
              "type": "uint256"
            },
            {
              "internalType": "uint256",
              "name": "loyaltyTokensAccepted",
              "type": "uint256"
            },
            {
              "internalType": "string",
              "name": "imageURI",
              "type": "string"
            }
          ],
          "internalType": "struct ECommerceLoyalty.Product[]",
          "name": "",
          "type": "tuple[]"
        }
      ],
      "stateMutability": "view",
      "type": "function"
    },
    {
      "inputs": [],
      "name": "getLeaderBoard",
      "outputs": [
        {
          "internalType": "address[]",
          "name": "",
          "type": "address[]"
        }
      ],
      "stateMutability": "view",
      "type": "function"
    },
    {
      "inputs": [
        {
          "internalType": "address",
          "name": "_add",
          "type": "address"
        }
      ],
      "name": "getUserOrders",
      "outputs": [
        {
          "components": [
            {
              "internalType": "uint256",
              "name": "productId",
              "type": "uint256"
            },
            {
              "internalType": "string",
              "name": "name",
              "type": "string"
            },
            {
              "internalType": "string",
              "name": "description",
              "type": "string"
            },
            {
              "internalType": "uint256",
              "name": "quantity",
              "type": "uint256"
            },
            {
              "internalType": "address",
              "name": "sellerAddress",
              "type": "address"
            },
            {
              "internalType": "uint256",
              "name": "price",
              "type": "uint256"
            },
            {
              "internalType": "uint256",
              "name": "rewardPoints",
              "type": "uint256"
            },
            {
              "internalType": "uint256",
              "name": "loyaltyTokensAccepted",
              "type": "uint256"
            },
            {
              "internalType": "string",
              "name": "imageURI",
              "type": "string"
            }
          ],
          "internalType": "struct ECommerceLoyalty.Product[]",
          "name": "",
          "type": "tuple[]"
        }
      ],
      "stateMutability": "view",
      "type": "function"
    },
    {
      "inputs": [],
      "name": "interval",
      "outputs": [
        {
          "internalType": "uint256",
          "name": "",
          "type": "uint256"
        }
      ],
      "stateMutability": "view",
      "type": "function"
    },
    {
      "inputs": [
        {
          "internalType": "address",
          "name": "to",
          "type": "address"
        },
        {
          "internalType": "uint256",
          "name": "amount",
          "type": "uint256"
        }
      ],
      "name": "issueTokens",
      "outputs": [],
      "stateMutability": "nonpayable",
      "type": "function"
    },
    {
      "inputs": [
        {
          "internalType": "address",
          "name": "to",
          "type": "address"
        },
        {
          "internalType": "uint256",
          "name": "amount",
          "type": "uint256"
        }
      ],
      "name": "issueTokensBySeller",
      "outputs": [],
      "stateMutability": "nonpayable",
      "type": "function"
    },
    {
      "inputs": [
        {
          "internalType": "address",
          "name": "",
          "type": "address"
        }
      ],
      "name": "lastIssuedMonth",
      "outputs": [
        {
          "internalType": "uint256",
          "name": "",
          "type": "uint256"
        }
      ],
      "stateMutability": "view",
      "type": "function"
    },
    {
      "inputs": [],
      "name": "lastTimestamp",
      "outputs": [
        {
          "internalType": "uint256",
          "name": "",
          "type": "uint256"
        }
      ],
      "stateMutability": "view",
      "type": "function"
    },
    {
      "inputs": [
        {
          "internalType": "uint256",
          "name": "",
          "type": "uint256"
        }
      ],
      "name": "leaderboard",
      "outputs": [
        {
          "internalType": "address",
          "name": "",
          "type": "address"
        }
      ],
      "stateMutability": "view",
      "type": "function"
    },
    {
      "inputs": [],
      "name": "loyaltyToken",
      "outputs": [
        {
          "internalType": "contract IERC20",
          "name": "",
          "type": "address"
        }
      ],
      "stateMutability": "view",
      "type": "function"
    },
    {
      "inputs": [
        {
          "internalType": "address",
          "name": "",
          "type": "address"
        }
      ],
      "name": "monthlyIssuedBySeller",
      "outputs": [
        {
          "internalType": "uint256",
          "name": "",
          "type": "uint256"
        }
      ],
      "stateMutability": "view",
      "type": "function"
    },
    {
      "inputs": [],
      "name": "nextOrderId",
      "outputs": [
        {
          "internalType": "uint256",
          "name": "",
          "type": "uint256"
        }
      ],
      "stateMutability": "view",
      "type": "function"
    },
    {
      "inputs": [],
      "name": "nextProductId",
      "outputs": [
        {
          "internalType": "uint256",
          "name": "",
          "type": "uint256"
        }
      ],
      "stateMutability": "view",
      "type": "function"
    },
    {
      "inputs": [
        {
          "internalType": "uint256",
          "name": "",
          "type": "uint256"
        }
      ],
      "name": "orders",
      "outputs": [
        {
          "internalType": "uint256",
          "name": "orderId",
          "type": "uint256"
        },
        {
          "internalType": "address",
          "name": "buyerAddress",
          "type": "address"
        },
        {
          "internalType": "uint256",
          "name": "productId",
          "type": "uint256"
        },
        {
          "internalType": "uint256",
          "name": "quantity",
          "type": "uint256"
        }
      ],
      "stateMutability": "view",
      "type": "function"
    },
    {
      "inputs": [
        {
          "internalType": "bytes",
          "name": "performData",
          "type": "bytes"
        }
      ],
      "name": "performUpkeep",
      "outputs": [],
      "stateMutability": "nonpayable",
      "type": "function"
    },
    {
      "inputs": [
        {
          "internalType": "uint256",
          "name": "",
          "type": "uint256"
        }
      ],
      "name": "products",
      "outputs": [
        {
          "internalType": "uint256",
          "name": "productId",
          "type": "uint256"
        },
        {
          "internalType": "string",
          "name": "name",
          "type": "string"
        },
        {
          "internalType": "string",
          "name": "description",
          "type": "string"
        },
        {
          "internalType": "uint256",
          "name": "quantity",
          "type": "uint256"
        },
        {
          "internalType": "address",
          "name": "sellerAddress",
          "type": "address"
        },
        {
          "internalType": "uint256",
          "name": "price",
          "type": "uint256"
        },
        {
          "internalType": "uint256",
          "name": "rewardPoints",
          "type": "uint256"
        },
        {
          "internalType": "uint256",
          "name": "loyaltyTokensAccepted",
          "type": "uint256"
        },
        {
          "internalType": "string",
          "name": "imageURI",
          "type": "string"
        }
      ],
      "stateMutability": "view",
      "type": "function"
    },
    {
      "inputs": [
        {
          "internalType": "uint256[]",
          "name": "_productIds",
          "type": "uint256[]"
        },
        {
          "internalType": "uint256[]",
          "name": "_quantities",
          "type": "uint256[]"
        },
        {
          "internalType": "bool[]",
          "name": "_fullPaymentInMatic",
          "type": "bool[]"
        },
        {
          "internalType": "uint256",
          "name": "totalCost",
          "type": "uint256"
        },
        {
          "internalType": "uint256",
          "name": "totalLoyaltyTokensUsed",
          "type": "uint256"
        }
      ],
      "name": "purchaseProducts",
      "outputs": [],
      "stateMutability": "payable",
      "type": "function"
    },
    {
      "inputs": [],
      "name": "registerSeller",
      "outputs": [],
      "stateMutability": "nonpayable",
      "type": "function"
    },
    {
      "inputs": [],
      "name": "registerUser",
      "outputs": [],
      "stateMutability": "nonpayable",
      "type": "function"
    },
    {
      "inputs": [
        {
          "internalType": "address",
          "name": "_add",
          "type": "address"
        }
      ],
      "name": "searchSeller",
      "outputs": [
        {
          "components": [
            {
              "internalType": "address",
              "name": "sellerAddress",
              "type": "address"
            },
            {
              "internalType": "uint256[]",
              "name": "productIds",
              "type": "uint256[]"
            }
          ],
          "internalType": "struct ECommerceLoyalty.Seller",
          "name": "",
          "type": "tuple"
        }
      ],
      "stateMutability": "view",
      "type": "function"
    },
    {
      "inputs": [
        {
          "internalType": "address",
          "name": "_add",
          "type": "address"
        }
      ],
      "name": "searchUser",
      "outputs": [
        {
          "components": [
            {
              "internalType": "address",
              "name": "userAddress",
              "type": "address"
            },
            {
              "internalType": "uint256",
              "name": "loyaltyPoints",
              "type": "uint256"
            },
            {
              "internalType": "uint256",
              "name": "points",
              "type": "uint256"
            },
            {
              "internalType": "uint256[]",
              "name": "orderIds",
              "type": "uint256[]"
            }
          ],
          "internalType": "struct ECommerceLoyalty.User",
          "name": "",
          "type": "tuple"
        }
      ],
      "stateMutability": "view",
      "type": "function"
    },
    {
      "inputs": [
        {
          "internalType": "address",
          "name": "",
          "type": "address"
        }
      ],
      "name": "sellers",
      "outputs": [
        {
          "internalType": "address",
          "name": "sellerAddress",
          "type": "address"
        }
      ],
      "stateMutability": "view",
      "type": "function"
    },
    {
      "inputs": [
        {
          "internalType": "address",
          "name": "_lrtToken",
          "type": "address"
        }
      ],
      "name": "setLRTToken",
      "outputs": [],
      "stateMutability": "nonpayable",
      "type": "function"
    },
    {
      "inputs": [
        {
          "internalType": "address",
          "name": "",
          "type": "address"
        }
      ],
      "name": "users",
      "outputs": [
        {
          "internalType": "address",
          "name": "userAddress",
          "type": "address"
        },
        {
          "internalType": "uint256",
          "name": "loyaltyPoints",
          "type": "uint256"
        },
        {
          "internalType": "uint256",
          "name": "points",
          "type": "uint256"
        }
      ],
      "stateMutability": "view",
      "type": "function"
    },
    {
      "inputs": [
        {
          "internalType": "uint256",
          "name": "amount",
          "type": "uint256"
        }
      ],
      "name": "withdrawMATIC",
      "outputs": [],
      "stateMutability": "nonpayable",
      "type": "function"
    },
    {
      "inputs": [
        {
          "internalType": "uint256",
          "name": "amount",
          "type": "uint256"
        }
      ],
      "name": "withdrawTokens",
      "outputs": [],
      "stateMutability": "nonpayable",
      "type": "function"
    },
    {
      "stateMutability": "payable",
      "type": "receive"
    }
  ],
  "bytecode": "0x60a0604052600160085560016009553480156200001b57600080fd5b5060405162005dba38038062005dba83398181016040528101906200004191906200017e565b336000806101000a81548173ffffffffffffffffffffffffffffffffffffffff021916908373ffffffffffffffffffffffffffffffffffffffff16021790555081600160006101000a81548173ffffffffffffffffffffffffffffffffffffffff021916908373ffffffffffffffffffffffffffffffffffffffff1602179055508060808181525050426002819055505050620001c5565b600080fd5b600073ffffffffffffffffffffffffffffffffffffffff82169050919050565b60006200010b82620000de565b9050919050565b6200011d81620000fe565b81146200012957600080fd5b50565b6000815190506200013d8162000112565b92915050565b6000819050919050565b620001588162000143565b81146200016457600080fd5b50565b60008151905062000178816200014d565b92915050565b60008060408385031215620001985762000197620000d9565b5b6000620001a8858286016200012c565b9250506020620001bb8582860162000167565b9150509250929050565b608051615bd2620001e86000396000818161265c0152612e670152615bd26000f3fe6080604052600436106101fd5760003560e01c8063770aa84d1161010d578063bf368399116100a0578063eee47c021161006f578063eee47c0214610784578063f6356b30146107c1578063f851a440146107ea578063fddbe9a814610815578063ffa8efc9146108405761020c565b8063bf368399146106a2578063c29d72bc146106df578063c2bd67e21461070a578063d365cf6b146107475761020c565b80639bd7417f116100dc5780639bd7417f146105bd578063a85c38ef146105fa578063a87430ba1461063a578063b656638b146106795761020c565b8063770aa84d146104f95780637acc0b2014610524578063816837e314610569578063947a36fb146105925761020c565b8063475a9fa911610190578063562df3d51161015f578063562df3d5146103eb57806363c69f0814610416578063664e9704146104535780636d47ab721461047e5780636e04ff0d146104bb5761020c565b8063475a9fa9146103695780634d3820eb146103925780634de91a63146103a957806352c9224c146103d45761020c565b806333ff7bbd116101cc57806333ff7bbd146102f157806342df2b1d146102fb5780634585e33b1461032457806345a382931461034d5761020c565b806302ee3a521461024757806319d8ac61146102725780632a58b3301461029d578063315a095d146102c85761020c565b3661020c5761020a610869565b005b6040517f08c379a000000000000000000000000000000000000000000000000000000000815260040161023e90613e44565b60405180910390fd5b34801561025357600080fd5b5061025c610adb565b60405161026991906140e3565b60405180910390f35b34801561027e57600080fd5b50610287610df6565b6040516102949190614114565b60405180910390f35b3480156102a957600080fd5b506102b2610dfc565b6040516102bf9190614114565b60405180910390f35b3480156102d457600080fd5b506102ef60048036038101906102ea919061416f565b610e02565b005b6102f9610869565b005b34801561030757600080fd5b50610322600480360381019061031d91906141c8565b610fa2565b005b34801561033057600080fd5b5061034b6004803603810190610346919061425a565b6110c2565b005b610367600480360381019061036291906144e0565b611156565b005b34801561037557600080fd5b50610390600480360381019061038b91906145af565b611b65565b005b34801561039e57600080fd5b506103a7611d76565b005b3480156103b557600080fd5b506103be611fc8565b6040516103cb9190614114565b60405180910390f35b3480156103e057600080fd5b506103e9611fce565b005b3480156103f757600080fd5b506104006121fe565b60405161040d9190614114565b60405180910390f35b34801561042257600080fd5b5061043d600480360381019061043891906141c8565b612203565b60405161044a91906140e3565b60405180910390f35b34801561045f57600080fd5b5061046861260a565b6040516104759190614114565b60405180910390f35b34801561048a57600080fd5b506104a560048036038101906104a091906141c8565b612616565b6040516104b291906145fe565b60405180910390f35b3480156104c757600080fd5b506104e260048036038101906104dd91906146ce565b612654565b6040516104f092919061477b565b60405180910390f35b34801561050557600080fd5b5061050e612af3565b60405161051b919061480a565b60405180910390f35b34801561053057600080fd5b5061054b6004803603810190610546919061416f565b612b19565b6040516105609998979695949392919061485e565b60405180910390f35b34801561057557600080fd5b50610590600480360381019061058b919061416f565b612d1f565b005b34801561059e57600080fd5b506105a7612e65565b6040516105b49190614114565b60405180910390f35b3480156105c957600080fd5b506105e460048036038101906105df91906141c8565b612e89565b6040516105f19190614a12565b60405180910390f35b34801561060657600080fd5b50610621600480360381019061061c919061416f565b612fa4565b6040516106319493929190614a34565b60405180910390f35b34801561064657600080fd5b50610661600480360381019061065c91906141c8565b612ff4565b60405161067093929190614a79565b60405180910390f35b34801561068557600080fd5b506106a0600480360381019061069b9190614b51565b61303e565b005b3480156106ae57600080fd5b506106c960048036038101906106c4919061416f565b61331a565b6040516106d691906145fe565b60405180910390f35b3480156106eb57600080fd5b506106f4613359565b6040516107019190614cf6565b60405180910390f35b34801561071657600080fd5b50610731600480360381019061072c91906141c8565b6133e7565b60405161073e9190614114565b60405180910390f35b34801561075357600080fd5b5061076e600480360381019061076991906141c8565b6133ff565b60405161077b9190614114565b60405180910390f35b34801561079057600080fd5b506107ab60048036038101906107a691906141c8565b613417565b6040516107b89190614d55565b60405180910390f35b3480156107cd57600080fd5b506107e860048036038101906107e391906145af565b61351e565b005b3480156107f657600080fd5b506107ff6139d1565b60405161080c91906145fe565b60405180910390f35b34801561082157600080fd5b5061082a6139f5565b6040516108379190614114565b60405180910390f35b34801561084c57600080fd5b506108676004803603810190610862919061416f565b613a03565b005b600034116108ac576040517f08c379a00000000000000000000000000000000000000000000000000000000081526004016108a390614de9565b60405180910390fd5b60006108c9670de0b6b3a764000034613be190919063ffffffff16565b905080600160009054906101000a900473ffffffffffffffffffffffffffffffffffffffff1673ffffffffffffffffffffffffffffffffffffffff166370a08231306040518263ffffffff1660e01b815260040161092791906145fe565b602060405180830381865afa158015610944573d6000803e3d6000fd5b505050506040513d601f19601f820116820180604052508101906109689190614e1e565b10156109a9576040517f08c379a00000000000000000000000000000000000000000000000000000000081526004016109a090614e97565b60405180910390fd5b600160009054906101000a900473ffffffffffffffffffffffffffffffffffffffff1673ffffffffffffffffffffffffffffffffffffffff1663a9059cbb33836040518363ffffffff1660e01b8152600401610a06929190614eb7565b6020604051808303816000875af1158015610a25573d6000803e3d6000fd5b505050506040513d601f19601f82011682018060405250810190610a499190614ef5565b610a88576040517f08c379a0000000000000000000000000000000000000000000000000000000008152600401610a7f90614f6e565b60405180910390fd5b3373ffffffffffffffffffffffffffffffffffffffff167f95db8762f4600873df8fdbc44f0e34fa831e5cc7396f3dda3a5cd0825acd5bdb3483604051610ad0929190614f8e565b60405180910390a250565b606060006001600854610aee9190614fe6565b67ffffffffffffffff811115610b0757610b066142a7565b5b604051908082528060200260200182016040528015610b4057816020015b610b2d613c23565b815260200190600190039081610b255790505b5090506000600190505b600854811015610dee57600660008281526020019081526020016000206040518061012001604052908160008201548152602001600182018054610b8d90615049565b80601f0160208091040260200160405190810160405280929190818152602001828054610bb990615049565b8015610c065780601f10610bdb57610100808354040283529160200191610c06565b820191906000526020600020905b815481529060010190602001808311610be957829003601f168201915b50505050508152602001600282018054610c1f90615049565b80601f0160208091040260200160405190810160405280929190818152602001828054610c4b90615049565b8015610c985780601f10610c6d57610100808354040283529160200191610c98565b820191906000526020600020905b815481529060010190602001808311610c7b57829003601f168201915b50505050508152602001600382015481526020016004820160009054906101000a900473ffffffffffffffffffffffffffffffffffffffff1673ffffffffffffffffffffffffffffffffffffffff1673ffffffffffffffffffffffffffffffffffffffff168152602001600582015481526020016006820154815260200160078201548152602001600882018054610d2f90615049565b80601f0160208091040260200160405190810160405280929190818152602001828054610d5b90615049565b8015610da85780601f10610d7d57610100808354040283529160200191610da8565b820191906000526020600020905b815481529060010190602001808311610d8b57829003601f168201915b50505050508152505082600183610dbf9190614fe6565b81518110610dd057610dcf61507a565b5b60200260200101819052508080610de6906150a9565b915050610b4a565b508091505090565b60025481565b60095481565b60008054906101000a900473ffffffffffffffffffffffffffffffffffffffff1673ffffffffffffffffffffffffffffffffffffffff163373ffffffffffffffffffffffffffffffffffffffff1614610e90576040517f08c379a0000000000000000000000000000000000000000000000000000000008152600401610e8790615163565b60405180910390fd5b600160009054906101000a900473ffffffffffffffffffffffffffffffffffffffff1673ffffffffffffffffffffffffffffffffffffffff1663a9059cbb60008054906101000a900473ffffffffffffffffffffffffffffffffffffffff16836040518363ffffffff1660e01b8152600401610f0d929190614eb7565b6020604051808303816000875af1158015610f2c573d6000803e3d6000fd5b505050506040513d601f19601f82011682018060405250810190610f509190614ef5565b503373ffffffffffffffffffffffffffffffffffffffff167f6352c5382c4a4578e712449ca65e83cdb392d045dfcf1cad9615189db2da244b82604051610f979190614114565b60405180910390a250565b60008054906101000a900473ffffffffffffffffffffffffffffffffffffffff1673ffffffffffffffffffffffffffffffffffffffff163373ffffffffffffffffffffffffffffffffffffffff1614611030576040517f08c379a000000000000000000000000000000000000000000000000000000000815260040161102790615163565b60405180910390fd5b80600160006101000a81548173ffffffffffffffffffffffffffffffffffffffff021916908373ffffffffffffffffffffffffffffffffffffffff1602179055503373ffffffffffffffffffffffffffffffffffffffff167f6eca818bb499e114c9a2ead8c104a976418f0ca9c27fd7ead167e9125e613d45826040516110b791906145fe565b60405180910390a250565b60006110dc60405180602001604052806000815250612654565b5090508061111f576040517f08c379a0000000000000000000000000000000000000000000000000000000008152600401611116906151cf565b60405180910390fd5b6000838381019061113091906152b2565b90508060039080519060200190611148929190613c85565b504260028190555050505050565b835185511461119a576040517f08c379a00000000000000000000000000000000000000000000000000000000081526004016111919061536d565b60405180910390fd5b600060646005846111ab919061538d565b6111b591906153fe565b9050600082846111c59190614fe6565b90508034101561120a576040517f08c379a00000000000000000000000000000000000000000000000000000000081526004016112019061547b565b60405180910390fd5b3073ffffffffffffffffffffffffffffffffffffffff166108fc839081150290604051600060405180830381858888f19350505050158015611250573d6000803e3d6000fd5b5060005b8751811015611b5b576000600660008a84815181106112765761127561507a565b5b6020026020010151815260200190815260200160002060405180610120016040529081600082015481526020016001820180546112b290615049565b80601f01602080910402602001604051908101604052809291908181526020018280546112de90615049565b801561132b5780601f106113005761010080835404028352916020019161132b565b820191906000526020600020905b81548152906001019060200180831161130e57829003601f168201915b5050505050815260200160028201805461134490615049565b80601f016020809104026020016040519081016040528092919081815260200182805461137090615049565b80156113bd5780601f10611392576101008083540402835291602001916113bd565b820191906000526020600020905b8154815290600101906020018083116113a057829003601f168201915b50505050508152602001600382015481526020016004820160009054906101000a900473ffffffffffffffffffffffffffffffffffffffff1673ffffffffffffffffffffffffffffffffffffffff1673ffffffffffffffffffffffffffffffffffffffff16815260200160058201548152602001600682015481526020016007820154815260200160088201805461145490615049565b80601f016020809104026020016040519081016040528092919081815260200182805461148090615049565b80156114cd5780601f106114a2576101008083540402835291602001916114cd565b820191906000526020600020905b8154815290600101906020018083116114b057829003601f168201915b505050505081525050905060008883815181106114ed576114ec61507a565b5b60200260200101518260a00151611504919061538d565b90506000600a8261151591906153fe565b905061156c81600460003373ffffffffffffffffffffffffffffffffffffffff1673ffffffffffffffffffffffffffffffffffffffff16815260200190815260200160002060020154613bf790919063ffffffff16565b600460003373ffffffffffffffffffffffffffffffffffffffff1673ffffffffffffffffffffffffffffffffffffffff168152602001908152602001600020600201819055503373ffffffffffffffffffffffffffffffffffffffff167f2c4c0dc427a50c4a69d2fc184c47a311acf950d8d2f289fbaee64e83e9b28967826040516115f89190614114565b60405180910390a28884815181106116135761161261507a565b5b6020026020010151156117a157826080015173ffffffffffffffffffffffffffffffffffffffff166108fc606460058561164d919061538d565b61165791906153fe565b846116629190614fe6565b9081150290604051600060405180830381858888f1935050505015801561168d573d6000803e3d6000fd5b50600160009054906101000a900473ffffffffffffffffffffffffffffffffffffffff1673ffffffffffffffffffffffffffffffffffffffff166323b872dd8460800151338d88815181106116e5576116e461507a565b5b60200260200101518760c001516116fc919061538d565b6040518463ffffffff1660e01b815260040161171a9392919061549b565b6020604051808303816000875af1158015611739573d6000803e3d6000fd5b505050506040513d601f19601f8201168201806040525081019061175d9190614ef5565b61179c576040517f08c379a00000000000000000000000000000000000000000000000000000000081526004016117939061551e565b60405180910390fd5b611952565b826080015173ffffffffffffffffffffffffffffffffffffffff166108fc60646005856117ce919061538d565b6117d891906153fe565b8c87815181106117eb576117ea61507a565b5b60200260200101518660e00151611802919061538d565b8561180d9190614fe6565b6118179190614fe6565b9081150290604051600060405180830381858888f19350505050158015611842573d6000803e3d6000fd5b50600160009054906101000a900473ffffffffffffffffffffffffffffffffffffffff1673ffffffffffffffffffffffffffffffffffffffff166323b872dd3385608001518d888151811061189a5761189961507a565b5b60200260200101518760e001516118b1919061538d565b6040518463ffffffff1660e01b81526004016118cf9392919061549b565b6020604051808303816000875af11580156118ee573d6000803e3d6000fd5b505050506040513d601f19601f820116820180604052508101906119129190614ef5565b611951576040517f08c379a00000000000000000000000000000000000000000000000000000000081526004016119489061558a565b60405180910390fd5b5b604051806080016040528060095481526020013373ffffffffffffffffffffffffffffffffffffffff1681526020018c86815181106119945761199361507a565b5b602002602001015181526020018b86815181106119b4576119b361507a565b5b60200260200101518152506007600060095481526020019081526020016000206000820151816000015560208201518160010160006101000a81548173ffffffffffffffffffffffffffffffffffffffff021916908373ffffffffffffffffffffffffffffffffffffffff1602179055506040820151816002015560608201518160030155905050600460003373ffffffffffffffffffffffffffffffffffffffff1673ffffffffffffffffffffffffffffffffffffffff16815260200190815260200160002060030160095490806001815401808255809150506001900390600052602060002001600090919091909150558a8481518110611aba57611ab961507a565b5b60200260200101513373ffffffffffffffffffffffffffffffffffffffff166009547f7d3c39a6cce20f6949eff0833a4d54fca734dc7c6027773d8885e7faeac98a958d8881518110611b1057611b0f61507a565b5b6020026020010151604051611b259190614114565b60405180910390a460096000815480929190611b40906150a9565b91905055505050508080611b53906150a9565b915050611254565b5050505050505050565b60008054906101000a900473ffffffffffffffffffffffffffffffffffffffff1673ffffffffffffffffffffffffffffffffffffffff163373ffffffffffffffffffffffffffffffffffffffff1614611bf3576040517f08c379a0000000000000000000000000000000000000000000000000000000008152600401611bea90615163565b60405180910390fd5b600160009054906101000a900473ffffffffffffffffffffffffffffffffffffffff1673ffffffffffffffffffffffffffffffffffffffff166370a08231306040518263ffffffff1660e01b8152600401611c4e91906145fe565b602060405180830381865afa158015611c6b573d6000803e3d6000fd5b505050506040513d601f19601f82011682018060405250810190611c8f9190614e1e565b811115611cd1576040517f08c379a0000000000000000000000000000000000000000000000000000000008152600401611cc8906155f6565b60405180910390fd5b600160009054906101000a900473ffffffffffffffffffffffffffffffffffffffff1673ffffffffffffffffffffffffffffffffffffffff1663a9059cbb83836040518363ffffffff1660e01b8152600401611d2e929190614eb7565b6020604051808303816000875af1158015611d4d573d6000803e3d6000fd5b505050506040513d601f19601f82011682018060405250810190611d719190614ef5565b505050565b600073ffffffffffffffffffffffffffffffffffffffff16600460003373ffffffffffffffffffffffffffffffffffffffff1673ffffffffffffffffffffffffffffffffffffffff16815260200190815260200160002060000160009054906101000a900473ffffffffffffffffffffffffffffffffffffffff1673ffffffffffffffffffffffffffffffffffffffff1614611e47576040517f08c379a0000000000000000000000000000000000000000000000000000000008152600401611e3e90615662565b60405180910390fd5b60405180608001604052803373ffffffffffffffffffffffffffffffffffffffff1681526020016000815260200160008152602001600067ffffffffffffffff811115611e9757611e966142a7565b5b604051908082528060200260200182016040528015611ec55781602001602082028036833780820191505090505b50815250600460003373ffffffffffffffffffffffffffffffffffffffff1673ffffffffffffffffffffffffffffffffffffffff16815260200190815260200160002060008201518160000160006101000a81548173ffffffffffffffffffffffffffffffffffffffff021916908373ffffffffffffffffffffffffffffffffffffffff16021790555060208201518160010155604082015181600201556060820151816003019080519060200190611f7f929190613d0f565b509050503373ffffffffffffffffffffffffffffffffffffffff167f54db7a5cb4735e1aac1f53db512d3390390bb6637bd30ad4bf9fc98667d9b9b960405160405180910390a2565b60085481565b600073ffffffffffffffffffffffffffffffffffffffff16600560003373ffffffffffffffffffffffffffffffffffffffff1673ffffffffffffffffffffffffffffffffffffffff16815260200190815260200160002060000160009054906101000a900473ffffffffffffffffffffffffffffffffffffffff1673ffffffffffffffffffffffffffffffffffffffff161461209f576040517f08c379a0000000000000000000000000000000000000000000000000000000008152600401612096906156ce565b60405180910390fd5b60405180604001604052803373ffffffffffffffffffffffffffffffffffffffff168152602001600067ffffffffffffffff8111156120e1576120e06142a7565b5b60405190808252806020026020018201604052801561210f5781602001602082028036833780820191505090505b50815250600560003373ffffffffffffffffffffffffffffffffffffffff1673ffffffffffffffffffffffffffffffffffffffff16815260200190815260200160002060008201518160000160006101000a81548173ffffffffffffffffffffffffffffffffffffffff021916908373ffffffffffffffffffffffffffffffffffffffff16021790555060208201518160010190805190602001906121b5929190613d0f565b509050503373ffffffffffffffffffffffffffffffffffffffff167f4d97d287a8f631378031b05cb24c876085261ddaa7b8f584477370ef473fbb3d60405160405180910390a2565b600581565b60606000600460008473ffffffffffffffffffffffffffffffffffffffff1673ffffffffffffffffffffffffffffffffffffffff1681526020019081526020016000206003018054905067ffffffffffffffff811115612266576122656142a7565b5b60405190808252806020026020018201604052801561229f57816020015b61228c613c23565b8152602001906001900390816122845790505b50905060005b600460008573ffffffffffffffffffffffffffffffffffffffff1673ffffffffffffffffffffffffffffffffffffffff16815260200190815260200160002060030180549050811015612600576006600060076000600460008973ffffffffffffffffffffffffffffffffffffffff1673ffffffffffffffffffffffffffffffffffffffff168152602001908152602001600020600301858154811061234e5761234d61507a565b5b90600052602060002001548152602001908152602001600020600201548152602001908152602001600020604051806101200160405290816000820154815260200160018201805461239f90615049565b80601f01602080910402602001604051908101604052809291908181526020018280546123cb90615049565b80156124185780601f106123ed57610100808354040283529160200191612418565b820191906000526020600020905b8154815290600101906020018083116123fb57829003601f168201915b5050505050815260200160028201805461243190615049565b80601f016020809104026020016040519081016040528092919081815260200182805461245d90615049565b80156124aa5780601f1061247f576101008083540402835291602001916124aa565b820191906000526020600020905b81548152906001019060200180831161248d57829003601f168201915b50505050508152602001600382015481526020016004820160009054906101000a900473ffffffffffffffffffffffffffffffffffffffff1673ffffffffffffffffffffffffffffffffffffffff1673ffffffffffffffffffffffffffffffffffffffff16815260200160058201548152602001600682015481526020016007820154815260200160088201805461254190615049565b80601f016020809104026020016040519081016040528092919081815260200182805461256d90615049565b80156125ba5780601f1061258f576101008083540402835291602001916125ba565b820191906000526020600020905b81548152906001019060200180831161259d57829003601f168201915b505050505081525050826001836125d19190614fe6565b815181106125e2576125e161507a565b5b602002602001018190525080806125f8906150a9565b9150506122a5565b5080915050919050565b670de0b6b3a764000081565b60056020528060005260406000206000915090508060000160009054906101000a900473ffffffffffffffffffffffffffffffffffffffff16905081565b6000606060007f0000000000000000000000000000000000000000000000000000000000000000600254426126899190614fe6565b1190506000606467ffffffffffffffff8111156126a9576126a86142a7565b5b6040519080825280602002602001820160405280156126d75781602001602082028036833780820191505090505b5090506000606467ffffffffffffffff8111156126f7576126f66142a7565b5b6040519080825280602002602001820160405280156127255781602001602082028036833780820191505090505b509050600080606460095461273a9190614fe6565b11612746576000612756565b60646009546127559190614fe6565b5b905060008190505b6009548110156128af576007600082815260200190815260200160002060010160009054906101000a900473ffffffffffffffffffffffffffffffffffffffff16846001836127ad9190614fe6565b815181106127be576127bd61507a565b5b602002602001019073ffffffffffffffffffffffffffffffffffffffff16908173ffffffffffffffffffffffffffffffffffffffff1681525050600460006007600084815260200190815260200160002060010160009054906101000a900473ffffffffffffffffffffffffffffffffffffffff1673ffffffffffffffffffffffffffffffffffffffff1673ffffffffffffffffffffffffffffffffffffffff168152602001908152602001600020600201548360018361287f9190614fe6565b815181106128905761288f61507a565b5b60200260200101818152505080806128a7906150a9565b91505061275e565b5060005b8251811015612ac45760005b600184516128cd9190614fe6565b811015612ab057836001826128e291906156ee565b815181106128f3576128f261507a565b5b602002602001015184828151811061290e5761290d61507a565b5b60200260200101511015612a9d5760008482815181106129315761293061507a565b5b602002602001015190508460018361294991906156ee565b8151811061295a5761295961507a565b5b60200260200101518583815181106129755761297461507a565b5b602002602001018181525050808560018461299091906156ee565b815181106129a1576129a061507a565b5b60200260200101818152505060008683815181106129c2576129c161507a565b5b60200260200101519050866001846129da91906156ee565b815181106129eb576129ea61507a565b5b6020026020010151878481518110612a0657612a0561507a565b5b602002602001019073ffffffffffffffffffffffffffffffffffffffff16908173ffffffffffffffffffffffffffffffffffffffff16815250508087600185612a4f91906156ee565b81518110612a6057612a5f61507a565b5b602002602001019073ffffffffffffffffffffffffffffffffffffffff16908173ffffffffffffffffffffffffffffffffffffffff168152505050505b8080612aa8906150a9565b9150506128bf565b508080612abc906150a9565b9150506128b3565b5083955082604051602001612ad99190614cf6565b604051602081830303815290604052945050505050915091565b600160009054906101000a900473ffffffffffffffffffffffffffffffffffffffff1681565b6006602052806000526040600020600091509050806000015490806001018054612b4290615049565b80601f0160208091040260200160405190810160405280929190818152602001828054612b6e90615049565b8015612bbb5780601f10612b9057610100808354040283529160200191612bbb565b820191906000526020600020905b815481529060010190602001808311612b9e57829003601f168201915b505050505090806002018054612bd090615049565b80601f0160208091040260200160405190810160405280929190818152602001828054612bfc90615049565b8015612c495780601f10612c1e57610100808354040283529160200191612c49565b820191906000526020600020905b815481529060010190602001808311612c2c57829003601f168201915b5050505050908060030154908060040160009054906101000a900473ffffffffffffffffffffffffffffffffffffffff1690806005015490806006015490806007015490806008018054612c9c90615049565b80601f0160208091040260200160405190810160405280929190818152602001828054612cc890615049565b8015612d155780601f10612cea57610100808354040283529160200191612d15565b820191906000526020600020905b815481529060010190602001808311612cf857829003601f168201915b5050505050905089565b60008054906101000a900473ffffffffffffffffffffffffffffffffffffffff1673ffffffffffffffffffffffffffffffffffffffff163373ffffffffffffffffffffffffffffffffffffffff1614612dad576040517f08c379a0000000000000000000000000000000000000000000000000000000008152600401612da490615163565b60405180910390fd5b60008054906101000a900473ffffffffffffffffffffffffffffffffffffffff1673ffffffffffffffffffffffffffffffffffffffff166108fc829081150290604051600060405180830381858888f19350505050158015612e13573d6000803e3d6000fd5b503373ffffffffffffffffffffffffffffffffffffffff167f6efac6899ee41c0fab9566f807fee81972320248574ef8adeac6599ea7eae24682604051612e5a9190614114565b60405180910390a250565b7f000000000000000000000000000000000000000000000000000000000000000081565b612e91613d5c565b600460008373ffffffffffffffffffffffffffffffffffffffff1673ffffffffffffffffffffffffffffffffffffffff1681526020019081526020016000206040518060800160405290816000820160009054906101000a900473ffffffffffffffffffffffffffffffffffffffff1673ffffffffffffffffffffffffffffffffffffffff1673ffffffffffffffffffffffffffffffffffffffff168152602001600182015481526020016002820154815260200160038201805480602002602001604051908101604052809291908181526020018280548015612f9457602002820191906000526020600020905b815481526020019060010190808311612f80575b5050505050815250509050919050565b60076020528060005260406000206000915090508060000154908060010160009054906101000a900473ffffffffffffffffffffffffffffffffffffffff16908060020154908060030154905084565b60046020528060005260406000206000915090508060000160009054906101000a900473ffffffffffffffffffffffffffffffffffffffff16908060010154908060020154905083565b600073ffffffffffffffffffffffffffffffffffffffff16600560003373ffffffffffffffffffffffffffffffffffffffff1673ffffffffffffffffffffffffffffffffffffffff16815260200190815260200160002060000160009054906101000a900473ffffffffffffffffffffffffffffffffffffffff1673ffffffffffffffffffffffffffffffffffffffff160361310f576040517f08c379a000000000000000000000000000000000000000000000000000000000815260040161310690615794565b60405180910390fd5b60405180610120016040528060085481526020018881526020018781526020018681526020013373ffffffffffffffffffffffffffffffffffffffff1681526020018581526020018481526020018381526020018281525060066000600854815260200190815260200160002060008201518160000155602082015181600101908161319b9190615956565b5060408201518160020190816131b19190615956565b506060820151816003015560808201518160040160006101000a81548173ffffffffffffffffffffffffffffffffffffffff021916908373ffffffffffffffffffffffffffffffffffffffff16021790555060a0820151816005015560c0820151816006015560e082015181600701556101008201518160080190816132379190615956565b50905050600560003373ffffffffffffffffffffffffffffffffffffffff1673ffffffffffffffffffffffffffffffffffffffff16815260200190815260200160002060010160085490806001815401808255809150506001900390600052602060002001600090919091909150553373ffffffffffffffffffffffffffffffffffffffff166008547fef311eec1d40202fee1909ab585df5e024df1930dc6bba97722d1e60e91c01f789876040516132f1929190615a28565b60405180910390a36008600081548092919061330c906150a9565b919050555050505050505050565b6003818154811061332a57600080fd5b906000526020600020016000915054906101000a900473ffffffffffffffffffffffffffffffffffffffff1681565b606060038054806020026020016040519081016040528092919081815260200182805480156133dd57602002820191906000526020600020905b8160009054906101000a900473ffffffffffffffffffffffffffffffffffffffff1673ffffffffffffffffffffffffffffffffffffffff1681526020019060010190808311613393575b5050505050905090565b600b6020528060005260406000206000915090505481565b600a6020528060005260406000206000915090505481565b61341f613d9a565b600560008373ffffffffffffffffffffffffffffffffffffffff1673ffffffffffffffffffffffffffffffffffffffff1681526020019081526020016000206040518060400160405290816000820160009054906101000a900473ffffffffffffffffffffffffffffffffffffffff1673ffffffffffffffffffffffffffffffffffffffff1673ffffffffffffffffffffffffffffffffffffffff1681526020016001820180548060200260200160405190810160405280929190818152602001828054801561350e57602002820191906000526020600020905b8154815260200190600101908083116134fa575b5050505050815250509050919050565b600073ffffffffffffffffffffffffffffffffffffffff16600560003373ffffffffffffffffffffffffffffffffffffffff1673ffffffffffffffffffffffffffffffffffffffff16815260200190815260200160002060000160009054906101000a900473ffffffffffffffffffffffffffffffffffffffff1673ffffffffffffffffffffffffffffffffffffffff16036135ef576040517f08c379a00000000000000000000000000000000000000000000000000000000081526004016135e690615794565b60405180910390fd5b69010f0cf064dd5920000081111561363c576040517f08c379a000000000000000000000000000000000000000000000000000000000815260040161363390615aa4565b60405180910390fd5b62278d00600b60003373ffffffffffffffffffffffffffffffffffffffff1673ffffffffffffffffffffffffffffffffffffffff1681526020019081526020016000205461368a91906156ee565b42111561371b576000600a60003373ffffffffffffffffffffffffffffffffffffffff1673ffffffffffffffffffffffffffffffffffffffff1681526020019081526020016000208190555042600b60003373ffffffffffffffffffffffffffffffffffffffff1673ffffffffffffffffffffffffffffffffffffffff168152602001908152602001600020819055505b69010f0cf064dd5920000061377882600a60003373ffffffffffffffffffffffffffffffffffffffff1673ffffffffffffffffffffffffffffffffffffffff16815260200190815260200160002054613bf790919063ffffffff16565b11156137b9576040517f08c379a00000000000000000000000000000000000000000000000000000000081526004016137b090615b10565b60405180910390fd5b600160009054906101000a900473ffffffffffffffffffffffffffffffffffffffff1673ffffffffffffffffffffffffffffffffffffffff166370a08231306040518263ffffffff1660e01b815260040161381491906145fe565b602060405180830381865afa158015613831573d6000803e3d6000fd5b505050506040513d601f19601f820116820180604052508101906138559190614e1e565b811115613897576040517f08c379a000000000000000000000000000000000000000000000000000000000815260040161388e906155f6565b60405180910390fd5b600160009054906101000a900473ffffffffffffffffffffffffffffffffffffffff1673ffffffffffffffffffffffffffffffffffffffff1663a9059cbb83836040518363ffffffff1660e01b81526004016138f4929190614eb7565b6020604051808303816000875af1158015613913573d6000803e3d6000fd5b505050506040513d601f19601f820116820180604052508101906139379190614ef5565b5061398a81600a60003373ffffffffffffffffffffffffffffffffffffffff1673ffffffffffffffffffffffffffffffffffffffff16815260200190815260200160002054613bf790919063ffffffff16565b600a60003373ffffffffffffffffffffffffffffffffffffffff1673ffffffffffffffffffffffffffffffffffffffff168152602001908152602001600020819055505050565b60008054906101000a900473ffffffffffffffffffffffffffffffffffffffff1681565b69010f0cf064dd5920000081565b60008111613a46576040517f08c379a0000000000000000000000000000000000000000000000000000000008152600401613a3d90615b7c565b60405180910390fd5b6000613a63670de0b6b3a764000083613c0d90919063ffffffff16565b9050600160009054906101000a900473ffffffffffffffffffffffffffffffffffffffff1673ffffffffffffffffffffffffffffffffffffffff166323b872dd3330856040518463ffffffff1660e01b8152600401613ac49392919061549b565b6020604051808303816000875af1158015613ae3573d6000803e3d6000fd5b505050506040513d601f19601f82011682018060405250810190613b079190614ef5565b613b46576040517f08c379a0000000000000000000000000000000000000000000000000000000008152600401613b3d90614f6e565b60405180910390fd5b3373ffffffffffffffffffffffffffffffffffffffff166108fc829081150290604051600060405180830381858888f19350505050158015613b8c573d6000803e3d6000fd5b503373ffffffffffffffffffffffffffffffffffffffff167fae8bcd366b92d4b55d90c0ccbfd8a50a60bae24f201c5899a989e99a3d877b938383604051613bd5929190614f8e565b60405180910390a25050565b60008183613bef91906153fe565b905092915050565b60008183613c0591906156ee565b905092915050565b60008183613c1b919061538d565b905092915050565b60405180610120016040528060008152602001606081526020016060815260200160008152602001600073ffffffffffffffffffffffffffffffffffffffff168152602001600081526020016000815260200160008152602001606081525090565b828054828255906000526020600020908101928215613cfe579160200282015b82811115613cfd5782518260006101000a81548173ffffffffffffffffffffffffffffffffffffffff021916908373ffffffffffffffffffffffffffffffffffffffff16021790555091602001919060010190613ca5565b5b509050613d0b9190613dca565b5090565b828054828255906000526020600020908101928215613d4b579160200282015b82811115613d4a578251825591602001919060010190613d2f565b5b509050613d589190613dca565b5090565b6040518060800160405280600073ffffffffffffffffffffffffffffffffffffffff1681526020016000815260200160008152602001606081525090565b6040518060400160405280600073ffffffffffffffffffffffffffffffffffffffff168152602001606081525090565b5b80821115613de3576000816000905550600101613dcb565b5090565b600082825260208201905092915050565b7f4f7065726174696f6e206e6f7420737570706f72746564000000000000000000600082015250565b6000613e2e601783613de7565b9150613e3982613df8565b602082019050919050565b60006020820190508181036000830152613e5d81613e21565b9050919050565b600081519050919050565b600082825260208201905092915050565b6000819050602082019050919050565b6000819050919050565b613ea381613e90565b82525050565b600081519050919050565b600082825260208201905092915050565b60005b83811015613ee3578082015181840152602081019050613ec8565b60008484015250505050565b6000601f19601f8301169050919050565b6000613f0b82613ea9565b613f158185613eb4565b9350613f25818560208601613ec5565b613f2e81613eef565b840191505092915050565b600073ffffffffffffffffffffffffffffffffffffffff82169050919050565b6000613f6482613f39565b9050919050565b613f7481613f59565b82525050565b600061012083016000830151613f936000860182613e9a565b5060208301518482036020860152613fab8282613f00565b91505060408301518482036040860152613fc58282613f00565b9150506060830151613fda6060860182613e9a565b506080830151613fed6080860182613f6b565b5060a083015161400060a0860182613e9a565b5060c083015161401360c0860182613e9a565b5060e083015161402660e0860182613e9a565b506101008301518482036101008601526140408282613f00565b9150508091505092915050565b60006140598383613f7a565b905092915050565b6000602082019050919050565b600061407982613e64565b6140838185613e6f565b93508360208202850161409585613e80565b8060005b858110156140d157848403895281516140b2858261404d565b94506140bd83614061565b925060208a01995050600181019050614099565b50829750879550505050505092915050565b600060208201905081810360008301526140fd818461406e565b905092915050565b61410e81613e90565b82525050565b60006020820190506141296000830184614105565b92915050565b6000604051905090565b600080fd5b600080fd5b61414c81613e90565b811461415757600080fd5b50565b60008135905061416981614143565b92915050565b60006020828403121561418557614184614139565b5b60006141938482850161415a565b91505092915050565b6141a581613f59565b81146141b057600080fd5b50565b6000813590506141c28161419c565b92915050565b6000602082840312156141de576141dd614139565b5b60006141ec848285016141b3565b91505092915050565b600080fd5b600080fd5b600080fd5b60008083601f84011261421a576142196141f5565b5b8235905067ffffffffffffffff811115614237576142366141fa565b5b602083019150836001820283011115614253576142526141ff565b5b9250929050565b6000806020838503121561427157614270614139565b5b600083013567ffffffffffffffff81111561428f5761428e61413e565b5b61429b85828601614204565b92509250509250929050565b7f4e487b7100000000000000000000000000000000000000000000000000000000600052604160045260246000fd5b6142df82613eef565b810181811067ffffffffffffffff821117156142fe576142fd6142a7565b5b80604052505050565b600061431161412f565b905061431d82826142d6565b919050565b600067ffffffffffffffff82111561433d5761433c6142a7565b5b602082029050602081019050919050565b600061436161435c84614322565b614307565b90508083825260208201905060208402830185811115614384576143836141ff565b5b835b818110156143ad5780614399888261415a565b845260208401935050602081019050614386565b5050509392505050565b600082601f8301126143cc576143cb6141f5565b5b81356143dc84826020860161434e565b91505092915050565b600067ffffffffffffffff821115614400576143ff6142a7565b5b602082029050602081019050919050565b60008115159050919050565b61442681614411565b811461443157600080fd5b50565b6000813590506144438161441d565b92915050565b600061445c614457846143e5565b614307565b9050808382526020820190506020840283018581111561447f5761447e6141ff565b5b835b818110156144a857806144948882614434565b845260208401935050602081019050614481565b5050509392505050565b600082601f8301126144c7576144c66141f5565b5b81356144d7848260208601614449565b91505092915050565b600080600080600060a086880312156144fc576144fb614139565b5b600086013567ffffffffffffffff81111561451a5761451961413e565b5b614526888289016143b7565b955050602086013567ffffffffffffffff8111156145475761454661413e565b5b614553888289016143b7565b945050604086013567ffffffffffffffff8111156145745761457361413e565b5b614580888289016144b2565b93505060606145918882890161415a565b92505060806145a28882890161415a565b9150509295509295909350565b600080604083850312156145c6576145c5614139565b5b60006145d4858286016141b3565b92505060206145e58582860161415a565b9150509250929050565b6145f881613f59565b82525050565b600060208201905061461360008301846145ef565b92915050565b600080fd5b600067ffffffffffffffff821115614639576146386142a7565b5b61464282613eef565b9050602081019050919050565b82818337600083830152505050565b600061467161466c8461461e565b614307565b90508281526020810184848401111561468d5761468c614619565b5b61469884828561464f565b509392505050565b600082601f8301126146b5576146b46141f5565b5b81356146c584826020860161465e565b91505092915050565b6000602082840312156146e4576146e3614139565b5b600082013567ffffffffffffffff8111156147025761470161413e565b5b61470e848285016146a0565b91505092915050565b61472081614411565b82525050565b600081519050919050565b600082825260208201905092915050565b600061474d82614726565b6147578185614731565b9350614767818560208601613ec5565b61477081613eef565b840191505092915050565b60006040820190506147906000830185614717565b81810360208301526147a28184614742565b90509392505050565b6000819050919050565b60006147d06147cb6147c684613f39565b6147ab565b613f39565b9050919050565b60006147e2826147b5565b9050919050565b60006147f4826147d7565b9050919050565b614804816147e9565b82525050565b600060208201905061481f60008301846147fb565b92915050565b600061483082613ea9565b61483a8185613de7565b935061484a818560208601613ec5565b61485381613eef565b840191505092915050565b600061012082019050614874600083018c614105565b8181036020830152614886818b614825565b9050818103604083015261489a818a614825565b90506148a96060830189614105565b6148b660808301886145ef565b6148c360a0830187614105565b6148d060c0830186614105565b6148dd60e0830185614105565b8181036101008301526148f08184614825565b90509a9950505050505050505050565b600081519050919050565b600082825260208201905092915050565b6000819050602082019050919050565b60006149388383613e9a565b60208301905092915050565b6000602082019050919050565b600061495c82614900565b614966818561490b565b93506149718361491c565b8060005b838110156149a2578151614989888261492c565b975061499483614944565b925050600181019050614975565b5085935050505092915050565b60006080830160008301516149c76000860182613f6b565b5060208301516149da6020860182613e9a565b5060408301516149ed6040860182613e9a565b5060608301518482036060860152614a058282614951565b9150508091505092915050565b60006020820190508181036000830152614a2c81846149af565b905092915050565b6000608082019050614a496000830187614105565b614a5660208301866145ef565b614a636040830185614105565b614a706060830184614105565b95945050505050565b6000606082019050614a8e60008301866145ef565b614a9b6020830185614105565b614aa86040830184614105565b949350505050565b600067ffffffffffffffff821115614acb57614aca6142a7565b5b614ad482613eef565b9050602081019050919050565b6000614af4614aef84614ab0565b614307565b905082815260208101848484011115614b1057614b0f614619565b5b614b1b84828561464f565b509392505050565b600082601f830112614b3857614b376141f5565b5b8135614b48848260208601614ae1565b91505092915050565b600080600080600080600060e0888a031215614b7057614b6f614139565b5b600088013567ffffffffffffffff811115614b8e57614b8d61413e565b5b614b9a8a828b01614b23565b975050602088013567ffffffffffffffff811115614bbb57614bba61413e565b5b614bc78a828b01614b23565b9650506040614bd88a828b0161415a565b9550506060614be98a828b0161415a565b9450506080614bfa8a828b0161415a565b93505060a0614c0b8a828b0161415a565b92505060c088013567ffffffffffffffff811115614c2c57614c2b61413e565b5b614c388a828b01614b23565b91505092959891949750929550565b600081519050919050565b600082825260208201905092915050565b6000819050602082019050919050565b6000614c7f8383613f6b565b60208301905092915050565b6000602082019050919050565b6000614ca382614c47565b614cad8185614c52565b9350614cb883614c63565b8060005b83811015614ce9578151614cd08882614c73565b9750614cdb83614c8b565b925050600181019050614cbc565b5085935050505092915050565b60006020820190508181036000830152614d108184614c98565b905092915050565b6000604083016000830151614d306000860182613f6b565b5060208301518482036020860152614d488282614951565b9150508091505092915050565b60006020820190508181036000830152614d6f8184614d18565b905092915050565b7f4d4154494320616d6f756e742073686f756c642062652067726561746572207460008201527f68616e2030000000000000000000000000000000000000000000000000000000602082015250565b6000614dd3602583613de7565b9150614dde82614d77565b604082019050919050565b60006020820190508181036000830152614e0281614dc6565b9050919050565b600081519050614e1881614143565b92915050565b600060208284031215614e3457614e33614139565b5b6000614e4284828501614e09565b91505092915050565b7f4e6f7420656e6f756768204c525420696e20636f6e7472616374000000000000600082015250565b6000614e81601a83613de7565b9150614e8c82614e4b565b602082019050919050565b60006020820190508181036000830152614eb081614e74565b9050919050565b6000604082019050614ecc60008301856145ef565b614ed96020830184614105565b9392505050565b600081519050614eef8161441d565b92915050565b600060208284031215614f0b57614f0a614139565b5b6000614f1984828501614ee0565b91505092915050565b7f4c5254207472616e73666572206661696c656400000000000000000000000000600082015250565b6000614f58601383613de7565b9150614f6382614f22565b602082019050919050565b60006020820190508181036000830152614f8781614f4b565b9050919050565b6000604082019050614fa36000830185614105565b614fb06020830184614105565b9392505050565b7f4e487b7100000000000000000000000000000000000000000000000000000000600052601160045260246000fd5b6000614ff182613e90565b9150614ffc83613e90565b925082820390508181111561501457615013614fb7565b5b92915050565b7f4e487b7100000000000000000000000000000000000000000000000000000000600052602260045260246000fd5b6000600282049050600182168061506157607f821691505b6020821081036150745761507361501a565b5b50919050565b7f4e487b7100000000000000000000000000000000000000000000000000000000600052603260045260246000fd5b60006150b482613e90565b91507fffffffffffffffffffffffffffffffffffffffffffffffffffffffffffffffff82036150e6576150e5614fb7565b5b600182019050919050565b7f4f6e6c792061646d696e2063616e2063616c6c20746869732066756e6374696f60008201527f6e00000000000000000000000000000000000000000000000000000000000000602082015250565b600061514d602183613de7565b9150615158826150f1565b604082019050919050565b6000602082019050818103600083015261517c81615140565b9050919050565b7f55706b656570206e6f74206e6565646564000000000000000000000000000000600082015250565b60006151b9601183613de7565b91506151c482615183565b602082019050919050565b600060208201905081810360008301526151e8816151ac565b9050919050565b600067ffffffffffffffff82111561520a576152096142a7565b5b602082029050602081019050919050565b600061522e615229846151ef565b614307565b90508083825260208201905060208402830185811115615251576152506141ff565b5b835b8181101561527a578061526688826141b3565b845260208401935050602081019050615253565b5050509392505050565b600082601f830112615299576152986141f5565b5b81356152a984826020860161521b565b91505092915050565b6000602082840312156152c8576152c7614139565b5b600082013567ffffffffffffffff8111156152e6576152e561413e565b5b6152f284828501615284565b91505092915050565b7f4d69736d6174636820696e2070726f647563742049447320616e64207175616e60008201527f746974696573206c656e67746800000000000000000000000000000000000000602082015250565b6000615357602d83613de7565b9150615362826152fb565b604082019050919050565b600060208201905081810360008301526153868161534a565b9050919050565b600061539882613e90565b91506153a383613e90565b92508282026153b181613e90565b915082820484148315176153c8576153c7614fb7565b5b5092915050565b7f4e487b7100000000000000000000000000000000000000000000000000000000600052601260045260246000fd5b600061540982613e90565b915061541483613e90565b925082615424576154236153cf565b5b828204905092915050565b7f496e636f7272656374204d415449432073656e74000000000000000000000000600082015250565b6000615465601483613de7565b91506154708261542f565b602082019050919050565b6000602082019050818103600083015261549481615458565b9050919050565b60006060820190506154b060008301866145ef565b6154bd60208301856145ef565b6154ca6040830184614105565b949350505050565b7f52657761726420506f696e7473207472616e73666572206661696c6564000000600082015250565b6000615508601d83613de7565b9150615513826154d2565b602082019050919050565b60006020820190508181036000830152615537816154fb565b9050919050565b7f4c6f79616c747920546f6b656e207472616e73666572206661696c6564000000600082015250565b6000615574601d83613de7565b915061557f8261553e565b602082019050919050565b600060208201905081810360008301526155a381615567565b9050919050565b7f4e6f7420656e6f75676820746f6b656e7320696e207472656173757279000000600082015250565b60006155e0601d83613de7565b91506155eb826155aa565b602082019050919050565b6000602082019050818103600083015261560f816155d3565b9050919050565b7f5573657220616c72656164792072656769737465726564000000000000000000600082015250565b600061564c601783613de7565b915061565782615616565b602082019050919050565b6000602082019050818103600083015261567b8161563f565b9050919050565b7f53656c6c657220616c7265616479207265676973746572656400000000000000600082015250565b60006156b8601983613de7565b91506156c382615682565b602082019050919050565b600060208201905081810360008301526156e7816156ab565b9050919050565b60006156f982613e90565b915061570483613e90565b925082820190508082111561571c5761571b614fb7565b5b92915050565b7f4f6e6c792073656c6c6572732063616e2063616c6c20746869732066756e637460008201527f696f6e0000000000000000000000000000000000000000000000000000000000602082015250565b600061577e602383613de7565b915061578982615722565b604082019050919050565b600060208201905081810360008301526157ad81615771565b9050919050565b60008190508160005260206000209050919050565b60006020601f8301049050919050565b600082821b905092915050565b6000600883026158167fffffffffffffffffffffffffffffffffffffffffffffffffffffffffffffffff826157d9565b61582086836157d9565b95508019841693508086168417925050509392505050565b600061585361584e61584984613e90565b6147ab565b613e90565b9050919050565b6000819050919050565b61586d83615838565b6158816158798261585a565b8484546157e6565b825550505050565b600090565b615896615889565b6158a1818484615864565b505050565b5b818110156158c5576158ba60008261588e565b6001810190506158a7565b5050565b601f82111561590a576158db816157b4565b6158e4846157c9565b810160208510156158f3578190505b6159076158ff856157c9565b8301826158a6565b50505b505050565b600082821c905092915050565b600061592d6000198460080261590f565b1980831691505092915050565b6000615946838361591c565b9150826002028217905092915050565b61595f82613ea9565b67ffffffffffffffff811115615978576159776142a7565b5b6159828254615049565b61598d8282856158c9565b600060209050601f8311600181146159c057600084156159ae578287015190505b6159b8858261593a565b865550615a20565b601f1984166159ce866157b4565b60005b828110156159f6578489015182556001820191506020850194506020810190506159d1565b86831015615a135784890151615a0f601f89168261591c565b8355505b6001600288020188555050505b505050505050565b60006040820190508181036000830152615a428185614825565b9050615a516020830184614105565b9392505050565b7f45786365656473206d6f6e74686c792063617000000000000000000000000000600082015250565b6000615a8e601383613de7565b9150615a9982615a58565b602082019050919050565b60006020820190508181036000830152615abd81615a81565b9050919050565b7f45786365656473206d6f6e74686c792063617020666f722073656c6c65720000600082015250565b6000615afa601e83613de7565b9150615b0582615ac4565b602082019050919050565b60006020820190508181036000830152615b2981615aed565b9050919050565b7f416d6f756e742073686f756c642062652067726561746572207468616e203000600082015250565b6000615b66601f83613de7565b9150615b7182615b30565b602082019050919050565b60006020820190508181036000830152615b9581615b59565b905091905056fea26469706673582212203f2e4a9d484f4a699ca17dee51f8f6b6c3461c0e9cb945e80ecac6ed6a0a64f364736f6c63430008130033",
  "linkReferences": {},
  "deployedLinkReferences": {}
}