{
  "_format": "hh-sol-artifact-1",
  "contractName": "ECommerceLoyalty",
  "sourceName": "contracts/Loyalty.sol",
  "abi": [
    {
      "inputs": [
        {
          "internalType": "address",
          "name": "_loyaltyTokenAddress",
          "type": "address"
        },
        {
          "internalType": "uint256",
          "name": "_interval",
          "type": "uint256"
        }
      ],
      "stateMutability": "nonpayable",
      "type": "constructor"
    },
    {
      "anonymous": false,
      "inputs": [
        {
          "indexed": true,
          "internalType": "address",
          "name": "sellerAddress",
          "type": "address"
        },
        {
          "indexed": false,
          "internalType": "uint256",
          "name": "lrtAmount",
          "type": "uint256"
        },
        {
          "indexed": false,
          "internalType": "uint256",
          "name": "maticAmount",
          "type": "uint256"
        }
      ],
      "name": "LRTExchangedForMATIC",
      "type": "event"
    },
    {
      "anonymous": false,
      "inputs": [
        {
          "indexed": true,
          "internalType": "address",
          "name": "admin",
          "type": "address"
        },
        {
          "indexed": false,
          "internalType": "address",
          "name": "newLRTTokenAddress",
          "type": "address"
        }
      ],
      "name": "LRTTokenAddressUpdated",
      "type": "event"
    },
    {
      "anonymous": false,
      "inputs": [
        {
          "indexed": true,
          "internalType": "address",
          "name": "sellerAddress",
          "type": "address"
        },
        {
          "indexed": false,
          "internalType": "uint256",
          "name": "maticAmount",
          "type": "uint256"
        },
        {
          "indexed": false,
          "internalType": "uint256",
          "name": "lrtAmount",
          "type": "uint256"
        }
      ],
      "name": "MATICExchangedForLRT",
      "type": "event"
    },
    {
      "anonymous": false,
      "inputs": [
        {
          "indexed": true,
          "internalType": "address",
          "name": "admin",
          "type": "address"
        },
        {
          "indexed": false,
          "internalType": "uint256",
          "name": "amount",
          "type": "uint256"
        }
      ],
      "name": "MATICWithdrawn",
      "type": "event"
    },
    {
      "anonymous": false,
      "inputs": [
        {
          "indexed": true,
          "internalType": "address",
          "name": "buyerAddress",
          "type": "address"
        },
        {
          "indexed": false,
          "internalType": "uint256",
          "name": "pointsEarned",
          "type": "uint256"
        }
      ],
      "name": "PointsEarned",
      "type": "event"
    },
    {
      "anonymous": false,
      "inputs": [
        {
          "indexed": true,
          "internalType": "uint256",
          "name": "productId",
          "type": "uint256"
        },
        {
          "indexed": true,
          "internalType": "address",
          "name": "sellerAddress",
          "type": "address"
        },
        {
          "indexed": false,
          "internalType": "string",
          "name": "name",
          "type": "string"
        },
        {
          "indexed": false,
          "internalType": "uint256",
          "name": "price",
          "type": "uint256"
        }
      ],
      "name": "ProductAdded",
      "type": "event"
    },
    {
      "anonymous": false,
      "inputs": [
        {
          "indexed": true,
          "internalType": "uint256",
          "name": "orderId",
          "type": "uint256"
        },
        {
          "indexed": true,
          "internalType": "address",
          "name": "buyerAddress",
          "type": "address"
        },
        {
          "indexed": true,
          "internalType": "uint256",
          "name": "productId",
          "type": "uint256"
        },
        {
          "indexed": false,
          "internalType": "uint256",
          "name": "quantity",
          "type": "uint256"
        }
      ],
      "name": "ProductPurchased",
      "type": "event"
    },
    {
      "anonymous": false,
      "inputs": [
        {
          "indexed": true,
          "internalType": "address",
          "name": "sellerAddress",
          "type": "address"
        }
      ],
      "name": "SellerRegistered",
      "type": "event"
    },
    {
      "anonymous": false,
      "inputs": [
        {
          "indexed": true,
          "internalType": "address",
          "name": "admin",
          "type": "address"
        },
        {
          "indexed": false,
          "internalType": "uint256",
          "name": "amount",
          "type": "uint256"
        }
      ],
      "name": "TokensWithdrawn",
      "type": "event"
    },
    {
      "anonymous": false,
      "inputs": [
        {
          "indexed": true,
          "internalType": "address",
          "name": "userAddress",
          "type": "address"
        }
      ],
      "name": "UserRegistered",
      "type": "event"
    },
    {
      "stateMutability": "payable",
      "type": "fallback"
    },
    {
      "inputs": [],
      "name": "COMMISSION",
      "outputs": [
        {
          "internalType": "uint256",
          "name": "",
          "type": "uint256"
        }
      ],
      "stateMutability": "view",
      "type": "function"
    },
    {
      "inputs": [],
      "name": "RATE",
      "outputs": [
        {
          "internalType": "uint256",
          "name": "",
          "type": "uint256"
        }
      ],
      "stateMutability": "view",
      "type": "function"
    },
    {
      "inputs": [],
      "name": "SELLER_CAP",
      "outputs": [
        {
          "internalType": "uint256",
          "name": "",
          "type": "uint256"
        }
      ],
      "stateMutability": "view",
      "type": "function"
    },
    {
      "inputs": [
        {
          "internalType": "string",
          "name": "name",
          "type": "string"
        },
        {
          "internalType": "string",
          "name": "_description",
          "type": "string"
        },
        {
          "internalType": "uint256",
          "name": "_quantity",
          "type": "uint256"
        },
        {
          "internalType": "uint256",
          "name": "_price",
          "type": "uint256"
        },
        {
          "internalType": "uint256",
          "name": "_rewardPoints",
          "type": "uint256"
        },
        {
          "internalType": "uint256",
          "name": "loyaltyTokensAccepted",
          "type": "uint256"
        },
        {
          "internalType": "string",
          "name": "_imageURI",
          "type": "string"
        }
      ],
      "name": "addProduct",
      "outputs": [],
      "stateMutability": "nonpayable",
      "type": "function"
    },
    {
      "inputs": [],
      "name": "admin",
      "outputs": [
        {
          "internalType": "address",
          "name": "",
          "type": "address"
        }
      ],
      "stateMutability": "view",
      "type": "function"
    },
    {
      "inputs": [
        {
          "internalType": "bytes",
          "name": "",
          "type": "bytes"
        }
      ],
      "name": "checkUpkeep",
      "outputs": [
        {
          "internalType": "bool",
          "name": "upkeepNeeded",
          "type": "bool"
        },
        {
          "internalType": "bytes",
          "name": "performData",
          "type": "bytes"
        }
      ],
      "stateMutability": "view",
      "type": "function"
    },
    {
      "inputs": [
        {
          "internalType": "uint256",
          "name": "lrtAmount",
          "type": "uint256"
        }
      ],
      "name": "exchangeLRTForMATIC",
      "outputs": [],
      "stateMutability": "nonpayable",
      "type": "function"
    },
    {
      "inputs": [],
      "name": "exchangeMATICForLRT",
      "outputs": [],
      "stateMutability": "payable",
      "type": "function"
    },
    {
      "inputs": [],
      "name": "getAllProducts",
      "outputs": [
        {
          "components": [
            {
              "internalType": "uint256",
              "name": "productId",
              "type": "uint256"
            },
            {
              "internalType": "string",
              "name": "name",
              "type": "string"
            },
            {
              "internalType": "string",
              "name": "description",
              "type": "string"
            },
            {
              "internalType": "uint256",
              "name": "quantity",
              "type": "uint256"
            },
            {
              "internalType": "address",
              "name": "sellerAddress",
              "type": "address"
            },
            {
              "internalType": "uint256",
              "name": "price",
              "type": "uint256"
            },
            {
              "internalType": "uint256",
              "name": "rewardPoints",
              "type": "uint256"
            },
            {
              "internalType": "uint256",
              "name": "loyaltyTokensAccepted",
              "type": "uint256"
            },
            {
              "internalType": "string",
              "name": "imageURI",
              "type": "string"
            }
          ],
          "internalType": "struct ECommerceLoyalty.Product[]",
          "name": "",
          "type": "tuple[]"
        }
      ],
      "stateMutability": "view",
      "type": "function"
    },
    {
      "inputs": [],
      "name": "getLeaderBoard",
      "outputs": [
        {
          "internalType": "address[]",
          "name": "",
          "type": "address[]"
        }
      ],
      "stateMutability": "view",
      "type": "function"
    },
    {
      "inputs": [
        {
          "internalType": "address",
          "name": "_add",
          "type": "address"
        }
      ],
      "name": "getUserOrders",
      "outputs": [
        {
          "components": [
            {
              "internalType": "uint256",
              "name": "productId",
              "type": "uint256"
            },
            {
              "internalType": "string",
              "name": "name",
              "type": "string"
            },
            {
              "internalType": "string",
              "name": "description",
              "type": "string"
            },
            {
              "internalType": "uint256",
              "name": "quantity",
              "type": "uint256"
            },
            {
              "internalType": "address",
              "name": "sellerAddress",
              "type": "address"
            },
            {
              "internalType": "uint256",
              "name": "price",
              "type": "uint256"
            },
            {
              "internalType": "uint256",
              "name": "rewardPoints",
              "type": "uint256"
            },
            {
              "internalType": "uint256",
              "name": "loyaltyTokensAccepted",
              "type": "uint256"
            },
            {
              "internalType": "string",
              "name": "imageURI",
              "type": "string"
            }
          ],
          "internalType": "struct ECommerceLoyalty.Product[]",
          "name": "",
          "type": "tuple[]"
        }
      ],
      "stateMutability": "view",
      "type": "function"
    },
    {
      "inputs": [],
      "name": "interval",
      "outputs": [
        {
          "internalType": "uint256",
          "name": "",
          "type": "uint256"
        }
      ],
      "stateMutability": "view",
      "type": "function"
    },
    {
      "inputs": [
        {
          "internalType": "address",
          "name": "to",
          "type": "address"
        },
        {
          "internalType": "uint256",
          "name": "amount",
          "type": "uint256"
        }
      ],
      "name": "issueTokens",
      "outputs": [],
      "stateMutability": "nonpayable",
      "type": "function"
    },
    {
      "inputs": [
        {
          "internalType": "address",
          "name": "to",
          "type": "address"
        },
        {
          "internalType": "uint256",
          "name": "amount",
          "type": "uint256"
        }
      ],
      "name": "issueTokensBySeller",
      "outputs": [],
      "stateMutability": "nonpayable",
      "type": "function"
    },
    {
      "inputs": [
        {
          "internalType": "address",
          "name": "",
          "type": "address"
        }
      ],
      "name": "lastIssuedMonth",
      "outputs": [
        {
          "internalType": "uint256",
          "name": "",
          "type": "uint256"
        }
      ],
      "stateMutability": "view",
      "type": "function"
    },
    {
      "inputs": [],
      "name": "lastTimestamp",
      "outputs": [
        {
          "internalType": "uint256",
          "name": "",
          "type": "uint256"
        }
      ],
      "stateMutability": "view",
      "type": "function"
    },
    {
      "inputs": [
        {
          "internalType": "uint256",
          "name": "",
          "type": "uint256"
        }
      ],
      "name": "leaderboard",
      "outputs": [
        {
          "internalType": "address",
          "name": "",
          "type": "address"
        }
      ],
      "stateMutability": "view",
      "type": "function"
    },
    {
      "inputs": [],
      "name": "loyaltyToken",
      "outputs": [
        {
          "internalType": "contract IERC20",
          "name": "",
          "type": "address"
        }
      ],
      "stateMutability": "view",
      "type": "function"
    },
    {
      "inputs": [
        {
          "internalType": "address",
          "name": "",
          "type": "address"
        }
      ],
      "name": "monthlyIssuedBySeller",
      "outputs": [
        {
          "internalType": "uint256",
          "name": "",
          "type": "uint256"
        }
      ],
      "stateMutability": "view",
      "type": "function"
    },
    {
      "inputs": [],
      "name": "nextOrderId",
      "outputs": [
        {
          "internalType": "uint256",
          "name": "",
          "type": "uint256"
        }
      ],
      "stateMutability": "view",
      "type": "function"
    },
    {
      "inputs": [],
      "name": "nextProductId",
      "outputs": [
        {
          "internalType": "uint256",
          "name": "",
          "type": "uint256"
        }
      ],
      "stateMutability": "view",
      "type": "function"
    },
    {
      "inputs": [
        {
          "internalType": "uint256",
          "name": "",
          "type": "uint256"
        }
      ],
      "name": "orders",
      "outputs": [
        {
          "internalType": "uint256",
          "name": "orderId",
          "type": "uint256"
        },
        {
          "internalType": "address",
          "name": "buyerAddress",
          "type": "address"
        },
        {
          "internalType": "uint256",
          "name": "productId",
          "type": "uint256"
        },
        {
          "internalType": "uint256",
          "name": "quantity",
          "type": "uint256"
        }
      ],
      "stateMutability": "view",
      "type": "function"
    },
    {
      "inputs": [
        {
          "internalType": "bytes",
          "name": "performData",
          "type": "bytes"
        }
      ],
      "name": "performUpkeep",
      "outputs": [],
      "stateMutability": "nonpayable",
      "type": "function"
    },
    {
      "inputs": [
        {
          "internalType": "uint256",
          "name": "",
          "type": "uint256"
        }
      ],
      "name": "products",
      "outputs": [
        {
          "internalType": "uint256",
          "name": "productId",
          "type": "uint256"
        },
        {
          "internalType": "string",
          "name": "name",
          "type": "string"
        },
        {
          "internalType": "string",
          "name": "description",
          "type": "string"
        },
        {
          "internalType": "uint256",
          "name": "quantity",
          "type": "uint256"
        },
        {
          "internalType": "address",
          "name": "sellerAddress",
          "type": "address"
        },
        {
          "internalType": "uint256",
          "name": "price",
          "type": "uint256"
        },
        {
          "internalType": "uint256",
          "name": "rewardPoints",
          "type": "uint256"
        },
        {
          "internalType": "uint256",
          "name": "loyaltyTokensAccepted",
          "type": "uint256"
        },
        {
          "internalType": "string",
          "name": "imageURI",
          "type": "string"
        }
      ],
      "stateMutability": "view",
      "type": "function"
    },
    {
      "inputs": [
        {
          "internalType": "uint256[]",
          "name": "_productIds",
          "type": "uint256[]"
        },
        {
          "internalType": "uint256[]",
          "name": "_quantities",
          "type": "uint256[]"
        },
        {
          "internalType": "bool[]",
          "name": "_fullPaymentInMatic",
          "type": "bool[]"
        },
        {
          "internalType": "uint256",
          "name": "totalCost",
          "type": "uint256"
        },
        {
          "internalType": "uint256",
          "name": "totalLoyaltyTokensUsed",
          "type": "uint256"
        }
      ],
      "name": "purchaseProducts",
      "outputs": [],
      "stateMutability": "payable",
      "type": "function"
    },
    {
      "inputs": [],
      "name": "registerSeller",
      "outputs": [],
      "stateMutability": "nonpayable",
      "type": "function"
    },
    {
      "inputs": [],
      "name": "registerUser",
      "outputs": [],
      "stateMutability": "nonpayable",
      "type": "function"
    },
    {
      "inputs": [
        {
          "internalType": "address",
          "name": "",
          "type": "address"
        }
      ],
      "name": "sellers",
      "outputs": [
        {
          "internalType": "address",
          "name": "sellerAddress",
          "type": "address"
        }
      ],
      "stateMutability": "view",
      "type": "function"
    },
    {
      "inputs": [
        {
          "internalType": "address",
          "name": "_lrtToken",
          "type": "address"
        }
      ],
      "name": "setLRTToken",
      "outputs": [],
      "stateMutability": "nonpayable",
      "type": "function"
    },
    {
      "inputs": [
        {
          "internalType": "address",
          "name": "",
          "type": "address"
        }
      ],
      "name": "users",
      "outputs": [
        {
          "internalType": "address",
          "name": "userAddress",
          "type": "address"
        },
        {
          "internalType": "uint256",
          "name": "loyaltyPoints",
          "type": "uint256"
        },
        {
          "internalType": "uint256",
          "name": "points",
          "type": "uint256"
        }
      ],
      "stateMutability": "view",
      "type": "function"
    },
    {
      "inputs": [
        {
          "internalType": "uint256",
          "name": "amount",
          "type": "uint256"
        }
      ],
      "name": "withdrawMATIC",
      "outputs": [],
      "stateMutability": "nonpayable",
      "type": "function"
    },
    {
      "inputs": [
        {
          "internalType": "uint256",
          "name": "amount",
          "type": "uint256"
        }
      ],
      "name": "withdrawTokens",
      "outputs": [],
      "stateMutability": "nonpayable",
      "type": "function"
    },
    {
      "stateMutability": "payable",
      "type": "receive"
    }
  ],
  "bytecode": "0x60a0604052600160085560016009553480156200001b57600080fd5b50604051620059073803806200590783398181016040528101906200004191906200017e565b336000806101000a81548173ffffffffffffffffffffffffffffffffffffffff021916908373ffffffffffffffffffffffffffffffffffffffff16021790555081600160006101000a81548173ffffffffffffffffffffffffffffffffffffffff021916908373ffffffffffffffffffffffffffffffffffffffff1602179055508060808181525050426002819055505050620001c5565b600080fd5b600073ffffffffffffffffffffffffffffffffffffffff82169050919050565b60006200010b82620000de565b9050919050565b6200011d81620000fe565b81146200012957600080fd5b50565b6000815190506200013d8162000112565b92915050565b6000819050919050565b620001588162000143565b81146200016457600080fd5b50565b60008151905062000178816200014d565b92915050565b60008060408385031215620001985762000197620000d9565b5b6000620001a8858286016200012c565b9250506020620001bb8582860162000167565b9150509250929050565b60805161571f620001e8600039600081816125cc0152612dd7015261571f6000f3fe6080604052600436106101e75760003560e01c80636e04ff0d11610102578063bf36839911610095578063f6356b3011610064578063f6356b3014610731578063f851a4401461075a578063fddbe9a814610785578063ffa8efc9146107b0576101f6565b8063bf3683991461064f578063c29d72bc1461068c578063c2bd67e2146106b7578063d365cf6b146106f4576101f6565b8063947a36fb116100d1578063947a36fb1461057c578063a85c38ef146105a7578063a87430ba146105e7578063b656638b14610626576101f6565b80636e04ff0d146104a5578063770aa84d146104e35780637acc0b201461050e578063816837e314610553576101f6565b8063475a9fa91161017a578063562df3d511610149578063562df3d5146103d557806363c69f0814610400578063664e97041461043d5780636d47ab7214610468576101f6565b8063475a9fa9146103535780634d3820eb1461037c5780634de91a631461039357806352c9224c146103be576101f6565b806333ff7bbd116101b657806333ff7bbd146102db57806342df2b1d146102e55780634585e33b1461030e57806345a3829314610337576101f6565b806302ee3a521461023157806319d8ac611461025c5780632a58b33014610287578063315a095d146102b2576101f6565b366101f6576101f46107d9565b005b6040517f08c379a000000000000000000000000000000000000000000000000000000000815260040161022890613b24565b60405180910390fd5b34801561023d57600080fd5b50610246610a4b565b6040516102539190613dc3565b60405180910390f35b34801561026857600080fd5b50610271610d66565b60405161027e9190613df4565b60405180910390f35b34801561029357600080fd5b5061029c610d6c565b6040516102a99190613df4565b60405180910390f35b3480156102be57600080fd5b506102d960048036038101906102d49190613e4f565b610d72565b005b6102e36107d9565b005b3480156102f157600080fd5b5061030c60048036038101906103079190613ea8565b610f12565b005b34801561031a57600080fd5b5061033560048036038101906103309190613f3a565b611032565b005b610351600480360381019061034c91906141c0565b6110c6565b005b34801561035f57600080fd5b5061037a6004803603810190610375919061428f565b611ad5565b005b34801561038857600080fd5b50610391611ce6565b005b34801561039f57600080fd5b506103a8611f38565b6040516103b59190613df4565b60405180910390f35b3480156103ca57600080fd5b506103d3611f3e565b005b3480156103e157600080fd5b506103ea61216e565b6040516103f79190613df4565b60405180910390f35b34801561040c57600080fd5b5061042760048036038101906104229190613ea8565b612173565b6040516104349190613dc3565b60405180910390f35b34801561044957600080fd5b5061045261257a565b60405161045f9190613df4565b60405180910390f35b34801561047457600080fd5b5061048f600480360381019061048a9190613ea8565b612586565b60405161049c91906142de565b60405180910390f35b3480156104b157600080fd5b506104cc60048036038101906104c791906143ae565b6125c4565b6040516104da92919061445b565b60405180910390f35b3480156104ef57600080fd5b506104f8612a63565b60405161050591906144ea565b60405180910390f35b34801561051a57600080fd5b5061053560048036038101906105309190613e4f565b612a89565b60405161054a9998979695949392919061453e565b60405180910390f35b34801561055f57600080fd5b5061057a60048036038101906105759190613e4f565b612c8f565b005b34801561058857600080fd5b50610591612dd5565b60405161059e9190613df4565b60405180910390f35b3480156105b357600080fd5b506105ce60048036038101906105c99190613e4f565b612df9565b6040516105de94939291906145e0565b60405180910390f35b3480156105f357600080fd5b5061060e60048036038101906106099190613ea8565b612e49565b60405161061d93929190614625565b60405180910390f35b34801561063257600080fd5b5061064d600480360381019061064891906146fd565b612e93565b005b34801561065b57600080fd5b5061067660048036038101906106719190613e4f565b61316f565b60405161068391906142de565b60405180910390f35b34801561069857600080fd5b506106a16131ae565b6040516106ae91906148a2565b60405180910390f35b3480156106c357600080fd5b506106de60048036038101906106d99190613ea8565b61323c565b6040516106eb9190613df4565b60405180910390f35b34801561070057600080fd5b5061071b60048036038101906107169190613ea8565b613254565b6040516107289190613df4565b60405180910390f35b34801561073d57600080fd5b506107586004803603810190610753919061428f565b61326c565b005b34801561076657600080fd5b5061076f61371f565b60405161077c91906142de565b60405180910390f35b34801561079157600080fd5b5061079a613743565b6040516107a79190613df4565b60405180910390f35b3480156107bc57600080fd5b506107d760048036038101906107d29190613e4f565b613751565b005b6000341161081c576040517f08c379a000000000000000000000000000000000000000000000000000000000815260040161081390614936565b60405180910390fd5b6000610839670de0b6b3a76400003461392f90919063ffffffff16565b905080600160009054906101000a900473ffffffffffffffffffffffffffffffffffffffff1673ffffffffffffffffffffffffffffffffffffffff166370a08231306040518263ffffffff1660e01b815260040161089791906142de565b602060405180830381865afa1580156108b4573d6000803e3d6000fd5b505050506040513d601f19601f820116820180604052508101906108d8919061496b565b1015610919576040517f08c379a0000000000000000000000000000000000000000000000000000000008152600401610910906149e4565b60405180910390fd5b600160009054906101000a900473ffffffffffffffffffffffffffffffffffffffff1673ffffffffffffffffffffffffffffffffffffffff1663a9059cbb33836040518363ffffffff1660e01b8152600401610976929190614a04565b6020604051808303816000875af1158015610995573d6000803e3d6000fd5b505050506040513d601f19601f820116820180604052508101906109b99190614a42565b6109f8576040517f08c379a00000000000000000000000000000000000000000000000000000000081526004016109ef90614abb565b60405180910390fd5b3373ffffffffffffffffffffffffffffffffffffffff167f95db8762f4600873df8fdbc44f0e34fa831e5cc7396f3dda3a5cd0825acd5bdb3483604051610a40929190614adb565b60405180910390a250565b606060006001600854610a5e9190614b33565b67ffffffffffffffff811115610a7757610a76613f87565b5b604051908082528060200260200182016040528015610ab057816020015b610a9d613971565b815260200190600190039081610a955790505b5090506000600190505b600854811015610d5e57600660008281526020019081526020016000206040518061012001604052908160008201548152602001600182018054610afd90614b96565b80601f0160208091040260200160405190810160405280929190818152602001828054610b2990614b96565b8015610b765780601f10610b4b57610100808354040283529160200191610b76565b820191906000526020600020905b815481529060010190602001808311610b5957829003601f168201915b50505050508152602001600282018054610b8f90614b96565b80601f0160208091040260200160405190810160405280929190818152602001828054610bbb90614b96565b8015610c085780601f10610bdd57610100808354040283529160200191610c08565b820191906000526020600020905b815481529060010190602001808311610beb57829003601f168201915b50505050508152602001600382015481526020016004820160009054906101000a900473ffffffffffffffffffffffffffffffffffffffff1673ffffffffffffffffffffffffffffffffffffffff1673ffffffffffffffffffffffffffffffffffffffff168152602001600582015481526020016006820154815260200160078201548152602001600882018054610c9f90614b96565b80601f0160208091040260200160405190810160405280929190818152602001828054610ccb90614b96565b8015610d185780601f10610ced57610100808354040283529160200191610d18565b820191906000526020600020905b815481529060010190602001808311610cfb57829003601f168201915b50505050508152505082600183610d2f9190614b33565b81518110610d4057610d3f614bc7565b5b60200260200101819052508080610d5690614bf6565b915050610aba565b508091505090565b60025481565b60095481565b60008054906101000a900473ffffffffffffffffffffffffffffffffffffffff1673ffffffffffffffffffffffffffffffffffffffff163373ffffffffffffffffffffffffffffffffffffffff1614610e00576040517f08c379a0000000000000000000000000000000000000000000000000000000008152600401610df790614cb0565b60405180910390fd5b600160009054906101000a900473ffffffffffffffffffffffffffffffffffffffff1673ffffffffffffffffffffffffffffffffffffffff1663a9059cbb60008054906101000a900473ffffffffffffffffffffffffffffffffffffffff16836040518363ffffffff1660e01b8152600401610e7d929190614a04565b6020604051808303816000875af1158015610e9c573d6000803e3d6000fd5b505050506040513d601f19601f82011682018060405250810190610ec09190614a42565b503373ffffffffffffffffffffffffffffffffffffffff167f6352c5382c4a4578e712449ca65e83cdb392d045dfcf1cad9615189db2da244b82604051610f079190613df4565b60405180910390a250565b60008054906101000a900473ffffffffffffffffffffffffffffffffffffffff1673ffffffffffffffffffffffffffffffffffffffff163373ffffffffffffffffffffffffffffffffffffffff1614610fa0576040517f08c379a0000000000000000000000000000000000000000000000000000000008152600401610f9790614cb0565b60405180910390fd5b80600160006101000a81548173ffffffffffffffffffffffffffffffffffffffff021916908373ffffffffffffffffffffffffffffffffffffffff1602179055503373ffffffffffffffffffffffffffffffffffffffff167f6eca818bb499e114c9a2ead8c104a976418f0ca9c27fd7ead167e9125e613d458260405161102791906142de565b60405180910390a250565b600061104c604051806020016040528060008152506125c4565b5090508061108f576040517f08c379a000000000000000000000000000000000000000000000000000000000815260040161108690614d1c565b60405180910390fd5b600083838101906110a09190614dff565b905080600390805190602001906110b89291906139d3565b504260028190555050505050565b835185511461110a576040517f08c379a000000000000000000000000000000000000000000000000000000000815260040161110190614eba565b60405180910390fd5b6000606460058461111b9190614eda565b6111259190614f4b565b9050600082846111359190614b33565b90508034101561117a576040517f08c379a000000000000000000000000000000000000000000000000000000000815260040161117190614fc8565b60405180910390fd5b3073ffffffffffffffffffffffffffffffffffffffff166108fc839081150290604051600060405180830381858888f193505050501580156111c0573d6000803e3d6000fd5b5060005b8751811015611acb576000600660008a84815181106111e6576111e5614bc7565b5b60200260200101518152602001908152602001600020604051806101200160405290816000820154815260200160018201805461122290614b96565b80601f016020809104026020016040519081016040528092919081815260200182805461124e90614b96565b801561129b5780601f106112705761010080835404028352916020019161129b565b820191906000526020600020905b81548152906001019060200180831161127e57829003601f168201915b505050505081526020016002820180546112b490614b96565b80601f01602080910402602001604051908101604052809291908181526020018280546112e090614b96565b801561132d5780601f106113025761010080835404028352916020019161132d565b820191906000526020600020905b81548152906001019060200180831161131057829003601f168201915b50505050508152602001600382015481526020016004820160009054906101000a900473ffffffffffffffffffffffffffffffffffffffff1673ffffffffffffffffffffffffffffffffffffffff1673ffffffffffffffffffffffffffffffffffffffff1681526020016005820154815260200160068201548152602001600782015481526020016008820180546113c490614b96565b80601f01602080910402602001604051908101604052809291908181526020018280546113f090614b96565b801561143d5780601f106114125761010080835404028352916020019161143d565b820191906000526020600020905b81548152906001019060200180831161142057829003601f168201915b5050505050815250509050600088838151811061145d5761145c614bc7565b5b60200260200101518260a001516114749190614eda565b90506000600a826114859190614f4b565b90506114dc81600460003373ffffffffffffffffffffffffffffffffffffffff1673ffffffffffffffffffffffffffffffffffffffff1681526020019081526020016000206002015461394590919063ffffffff16565b600460003373ffffffffffffffffffffffffffffffffffffffff1673ffffffffffffffffffffffffffffffffffffffff168152602001908152602001600020600201819055503373ffffffffffffffffffffffffffffffffffffffff167f2c4c0dc427a50c4a69d2fc184c47a311acf950d8d2f289fbaee64e83e9b28967826040516115689190613df4565b60405180910390a288848151811061158357611582614bc7565b5b60200260200101511561171157826080015173ffffffffffffffffffffffffffffffffffffffff166108fc60646005856115bd9190614eda565b6115c79190614f4b565b846115d29190614b33565b9081150290604051600060405180830381858888f193505050501580156115fd573d6000803e3d6000fd5b50600160009054906101000a900473ffffffffffffffffffffffffffffffffffffffff1673ffffffffffffffffffffffffffffffffffffffff166323b872dd8460800151338d888151811061165557611654614bc7565b5b60200260200101518760c0015161166c9190614eda565b6040518463ffffffff1660e01b815260040161168a93929190614fe8565b6020604051808303816000875af11580156116a9573d6000803e3d6000fd5b505050506040513d601f19601f820116820180604052508101906116cd9190614a42565b61170c576040517f08c379a00000000000000000000000000000000000000000000000000000000081526004016117039061506b565b60405180910390fd5b6118c2565b826080015173ffffffffffffffffffffffffffffffffffffffff166108fc606460058561173e9190614eda565b6117489190614f4b565b8c878151811061175b5761175a614bc7565b5b60200260200101518660e001516117729190614eda565b8561177d9190614b33565b6117879190614b33565b9081150290604051600060405180830381858888f193505050501580156117b2573d6000803e3d6000fd5b50600160009054906101000a900473ffffffffffffffffffffffffffffffffffffffff1673ffffffffffffffffffffffffffffffffffffffff166323b872dd3385608001518d888151811061180a57611809614bc7565b5b60200260200101518760e001516118219190614eda565b6040518463ffffffff1660e01b815260040161183f93929190614fe8565b6020604051808303816000875af115801561185e573d6000803e3d6000fd5b505050506040513d601f19601f820116820180604052508101906118829190614a42565b6118c1576040517f08c379a00000000000000000000000000000000000000000000000000000000081526004016118b8906150d7565b60405180910390fd5b5b604051806080016040528060095481526020013373ffffffffffffffffffffffffffffffffffffffff1681526020018c868151811061190457611903614bc7565b5b602002602001015181526020018b868151811061192457611923614bc7565b5b60200260200101518152506007600060095481526020019081526020016000206000820151816000015560208201518160010160006101000a81548173ffffffffffffffffffffffffffffffffffffffff021916908373ffffffffffffffffffffffffffffffffffffffff1602179055506040820151816002015560608201518160030155905050600460003373ffffffffffffffffffffffffffffffffffffffff1673ffffffffffffffffffffffffffffffffffffffff16815260200190815260200160002060030160095490806001815401808255809150506001900390600052602060002001600090919091909150558a8481518110611a2a57611a29614bc7565b5b60200260200101513373ffffffffffffffffffffffffffffffffffffffff166009547f7d3c39a6cce20f6949eff0833a4d54fca734dc7c6027773d8885e7faeac98a958d8881518110611a8057611a7f614bc7565b5b6020026020010151604051611a959190613df4565b60405180910390a460096000815480929190611ab090614bf6565b91905055505050508080611ac390614bf6565b9150506111c4565b5050505050505050565b60008054906101000a900473ffffffffffffffffffffffffffffffffffffffff1673ffffffffffffffffffffffffffffffffffffffff163373ffffffffffffffffffffffffffffffffffffffff1614611b63576040517f08c379a0000000000000000000000000000000000000000000000000000000008152600401611b5a90614cb0565b60405180910390fd5b600160009054906101000a900473ffffffffffffffffffffffffffffffffffffffff1673ffffffffffffffffffffffffffffffffffffffff166370a08231306040518263ffffffff1660e01b8152600401611bbe91906142de565b602060405180830381865afa158015611bdb573d6000803e3d6000fd5b505050506040513d601f19601f82011682018060405250810190611bff919061496b565b811115611c41576040517f08c379a0000000000000000000000000000000000000000000000000000000008152600401611c3890615143565b60405180910390fd5b600160009054906101000a900473ffffffffffffffffffffffffffffffffffffffff1673ffffffffffffffffffffffffffffffffffffffff1663a9059cbb83836040518363ffffffff1660e01b8152600401611c9e929190614a04565b6020604051808303816000875af1158015611cbd573d6000803e3d6000fd5b505050506040513d601f19601f82011682018060405250810190611ce19190614a42565b505050565b600073ffffffffffffffffffffffffffffffffffffffff16600460003373ffffffffffffffffffffffffffffffffffffffff1673ffffffffffffffffffffffffffffffffffffffff16815260200190815260200160002060000160009054906101000a900473ffffffffffffffffffffffffffffffffffffffff1673ffffffffffffffffffffffffffffffffffffffff1614611db7576040517f08c379a0000000000000000000000000000000000000000000000000000000008152600401611dae906151af565b60405180910390fd5b60405180608001604052803373ffffffffffffffffffffffffffffffffffffffff1681526020016000815260200160008152602001600067ffffffffffffffff811115611e0757611e06613f87565b5b604051908082528060200260200182016040528015611e355781602001602082028036833780820191505090505b50815250600460003373ffffffffffffffffffffffffffffffffffffffff1673ffffffffffffffffffffffffffffffffffffffff16815260200190815260200160002060008201518160000160006101000a81548173ffffffffffffffffffffffffffffffffffffffff021916908373ffffffffffffffffffffffffffffffffffffffff16021790555060208201518160010155604082015181600201556060820151816003019080519060200190611eef929190613a5d565b509050503373ffffffffffffffffffffffffffffffffffffffff167f54db7a5cb4735e1aac1f53db512d3390390bb6637bd30ad4bf9fc98667d9b9b960405160405180910390a2565b60085481565b600073ffffffffffffffffffffffffffffffffffffffff16600560003373ffffffffffffffffffffffffffffffffffffffff1673ffffffffffffffffffffffffffffffffffffffff16815260200190815260200160002060000160009054906101000a900473ffffffffffffffffffffffffffffffffffffffff1673ffffffffffffffffffffffffffffffffffffffff161461200f576040517f08c379a00000000000000000000000000000000000000000000000000000000081526004016120069061521b565b60405180910390fd5b60405180604001604052803373ffffffffffffffffffffffffffffffffffffffff168152602001600067ffffffffffffffff81111561205157612050613f87565b5b60405190808252806020026020018201604052801561207f5781602001602082028036833780820191505090505b50815250600560003373ffffffffffffffffffffffffffffffffffffffff1673ffffffffffffffffffffffffffffffffffffffff16815260200190815260200160002060008201518160000160006101000a81548173ffffffffffffffffffffffffffffffffffffffff021916908373ffffffffffffffffffffffffffffffffffffffff1602179055506020820151816001019080519060200190612125929190613a5d565b509050503373ffffffffffffffffffffffffffffffffffffffff167f4d97d287a8f631378031b05cb24c876085261ddaa7b8f584477370ef473fbb3d60405160405180910390a2565b600581565b60606000600460008473ffffffffffffffffffffffffffffffffffffffff1673ffffffffffffffffffffffffffffffffffffffff1681526020019081526020016000206003018054905067ffffffffffffffff8111156121d6576121d5613f87565b5b60405190808252806020026020018201604052801561220f57816020015b6121fc613971565b8152602001906001900390816121f45790505b50905060005b600460008573ffffffffffffffffffffffffffffffffffffffff1673ffffffffffffffffffffffffffffffffffffffff16815260200190815260200160002060030180549050811015612570576006600060076000600460008973ffffffffffffffffffffffffffffffffffffffff1673ffffffffffffffffffffffffffffffffffffffff16815260200190815260200160002060030185815481106122be576122bd614bc7565b5b90600052602060002001548152602001908152602001600020600201548152602001908152602001600020604051806101200160405290816000820154815260200160018201805461230f90614b96565b80601f016020809104026020016040519081016040528092919081815260200182805461233b90614b96565b80156123885780601f1061235d57610100808354040283529160200191612388565b820191906000526020600020905b81548152906001019060200180831161236b57829003601f168201915b505050505081526020016002820180546123a190614b96565b80601f01602080910402602001604051908101604052809291908181526020018280546123cd90614b96565b801561241a5780601f106123ef5761010080835404028352916020019161241a565b820191906000526020600020905b8154815290600101906020018083116123fd57829003601f168201915b50505050508152602001600382015481526020016004820160009054906101000a900473ffffffffffffffffffffffffffffffffffffffff1673ffffffffffffffffffffffffffffffffffffffff1673ffffffffffffffffffffffffffffffffffffffff1681526020016005820154815260200160068201548152602001600782015481526020016008820180546124b190614b96565b80601f01602080910402602001604051908101604052809291908181526020018280546124dd90614b96565b801561252a5780601f106124ff5761010080835404028352916020019161252a565b820191906000526020600020905b81548152906001019060200180831161250d57829003601f168201915b505050505081525050826001836125419190614b33565b8151811061255257612551614bc7565b5b6020026020010181905250808061256890614bf6565b915050612215565b5080915050919050565b670de0b6b3a764000081565b60056020528060005260406000206000915090508060000160009054906101000a900473ffffffffffffffffffffffffffffffffffffffff16905081565b6000606060007f0000000000000000000000000000000000000000000000000000000000000000600254426125f99190614b33565b1190506000606467ffffffffffffffff81111561261957612618613f87565b5b6040519080825280602002602001820160405280156126475781602001602082028036833780820191505090505b5090506000606467ffffffffffffffff81111561266757612666613f87565b5b6040519080825280602002602001820160405280156126955781602001602082028036833780820191505090505b50905060008060646009546126aa9190614b33565b116126b65760006126c6565b60646009546126c59190614b33565b5b905060008190505b60095481101561281f576007600082815260200190815260200160002060010160009054906101000a900473ffffffffffffffffffffffffffffffffffffffff168460018361271d9190614b33565b8151811061272e5761272d614bc7565b5b602002602001019073ffffffffffffffffffffffffffffffffffffffff16908173ffffffffffffffffffffffffffffffffffffffff1681525050600460006007600084815260200190815260200160002060010160009054906101000a900473ffffffffffffffffffffffffffffffffffffffff1673ffffffffffffffffffffffffffffffffffffffff1673ffffffffffffffffffffffffffffffffffffffff16815260200190815260200160002060020154836001836127ef9190614b33565b81518110612800576127ff614bc7565b5b602002602001018181525050808061281790614bf6565b9150506126ce565b5060005b8251811015612a345760005b6001845161283d9190614b33565b811015612a205783600182612852919061523b565b8151811061286357612862614bc7565b5b602002602001015184828151811061287e5761287d614bc7565b5b60200260200101511015612a0d5760008482815181106128a1576128a0614bc7565b5b60200260200101519050846001836128b9919061523b565b815181106128ca576128c9614bc7565b5b60200260200101518583815181106128e5576128e4614bc7565b5b6020026020010181815250508085600184612900919061523b565b8151811061291157612910614bc7565b5b602002602001018181525050600086838151811061293257612931614bc7565b5b602002602001015190508660018461294a919061523b565b8151811061295b5761295a614bc7565b5b602002602001015187848151811061297657612975614bc7565b5b602002602001019073ffffffffffffffffffffffffffffffffffffffff16908173ffffffffffffffffffffffffffffffffffffffff168152505080876001856129bf919061523b565b815181106129d0576129cf614bc7565b5b602002602001019073ffffffffffffffffffffffffffffffffffffffff16908173ffffffffffffffffffffffffffffffffffffffff168152505050505b8080612a1890614bf6565b91505061282f565b508080612a2c90614bf6565b915050612823565b5083955082604051602001612a4991906148a2565b604051602081830303815290604052945050505050915091565b600160009054906101000a900473ffffffffffffffffffffffffffffffffffffffff1681565b6006602052806000526040600020600091509050806000015490806001018054612ab290614b96565b80601f0160208091040260200160405190810160405280929190818152602001828054612ade90614b96565b8015612b2b5780601f10612b0057610100808354040283529160200191612b2b565b820191906000526020600020905b815481529060010190602001808311612b0e57829003601f168201915b505050505090806002018054612b4090614b96565b80601f0160208091040260200160405190810160405280929190818152602001828054612b6c90614b96565b8015612bb95780601f10612b8e57610100808354040283529160200191612bb9565b820191906000526020600020905b815481529060010190602001808311612b9c57829003601f168201915b5050505050908060030154908060040160009054906101000a900473ffffffffffffffffffffffffffffffffffffffff1690806005015490806006015490806007015490806008018054612c0c90614b96565b80601f0160208091040260200160405190810160405280929190818152602001828054612c3890614b96565b8015612c855780601f10612c5a57610100808354040283529160200191612c85565b820191906000526020600020905b815481529060010190602001808311612c6857829003601f168201915b5050505050905089565b60008054906101000a900473ffffffffffffffffffffffffffffffffffffffff1673ffffffffffffffffffffffffffffffffffffffff163373ffffffffffffffffffffffffffffffffffffffff1614612d1d576040517f08c379a0000000000000000000000000000000000000000000000000000000008152600401612d1490614cb0565b60405180910390fd5b60008054906101000a900473ffffffffffffffffffffffffffffffffffffffff1673ffffffffffffffffffffffffffffffffffffffff166108fc829081150290604051600060405180830381858888f19350505050158015612d83573d6000803e3d6000fd5b503373ffffffffffffffffffffffffffffffffffffffff167f6efac6899ee41c0fab9566f807fee81972320248574ef8adeac6599ea7eae24682604051612dca9190613df4565b60405180910390a250565b7f000000000000000000000000000000000000000000000000000000000000000081565b60076020528060005260406000206000915090508060000154908060010160009054906101000a900473ffffffffffffffffffffffffffffffffffffffff16908060020154908060030154905084565b60046020528060005260406000206000915090508060000160009054906101000a900473ffffffffffffffffffffffffffffffffffffffff16908060010154908060020154905083565b600073ffffffffffffffffffffffffffffffffffffffff16600560003373ffffffffffffffffffffffffffffffffffffffff1673ffffffffffffffffffffffffffffffffffffffff16815260200190815260200160002060000160009054906101000a900473ffffffffffffffffffffffffffffffffffffffff1673ffffffffffffffffffffffffffffffffffffffff1603612f64576040517f08c379a0000000000000000000000000000000000000000000000000000000008152600401612f5b906152e1565b60405180910390fd5b60405180610120016040528060085481526020018881526020018781526020018681526020013373ffffffffffffffffffffffffffffffffffffffff16815260200185815260200184815260200183815260200182815250600660006008548152602001908152602001600020600082015181600001556020820151816001019081612ff091906154a3565b50604082015181600201908161300691906154a3565b506060820151816003015560808201518160040160006101000a81548173ffffffffffffffffffffffffffffffffffffffff021916908373ffffffffffffffffffffffffffffffffffffffff16021790555060a0820151816005015560c0820151816006015560e0820151816007015561010082015181600801908161308c91906154a3565b50905050600560003373ffffffffffffffffffffffffffffffffffffffff1673ffffffffffffffffffffffffffffffffffffffff16815260200190815260200160002060010160085490806001815401808255809150506001900390600052602060002001600090919091909150553373ffffffffffffffffffffffffffffffffffffffff166008547fef311eec1d40202fee1909ab585df5e024df1930dc6bba97722d1e60e91c01f78987604051613146929190615575565b60405180910390a36008600081548092919061316190614bf6565b919050555050505050505050565b6003818154811061317f57600080fd5b906000526020600020016000915054906101000a900473ffffffffffffffffffffffffffffffffffffffff1681565b6060600380548060200260200160405190810160405280929190818152602001828054801561323257602002820191906000526020600020905b8160009054906101000a900473ffffffffffffffffffffffffffffffffffffffff1673ffffffffffffffffffffffffffffffffffffffff16815260200190600101908083116131e8575b5050505050905090565b600b6020528060005260406000206000915090505481565b600a6020528060005260406000206000915090505481565b600073ffffffffffffffffffffffffffffffffffffffff16600560003373ffffffffffffffffffffffffffffffffffffffff1673ffffffffffffffffffffffffffffffffffffffff16815260200190815260200160002060000160009054906101000a900473ffffffffffffffffffffffffffffffffffffffff1673ffffffffffffffffffffffffffffffffffffffff160361333d576040517f08c379a0000000000000000000000000000000000000000000000000000000008152600401613334906152e1565b60405180910390fd5b69010f0cf064dd5920000081111561338a576040517f08c379a0000000000000000000000000000000000000000000000000000000008152600401613381906155f1565b60405180910390fd5b62278d00600b60003373ffffffffffffffffffffffffffffffffffffffff1673ffffffffffffffffffffffffffffffffffffffff168152602001908152602001600020546133d8919061523b565b421115613469576000600a60003373ffffffffffffffffffffffffffffffffffffffff1673ffffffffffffffffffffffffffffffffffffffff1681526020019081526020016000208190555042600b60003373ffffffffffffffffffffffffffffffffffffffff1673ffffffffffffffffffffffffffffffffffffffff168152602001908152602001600020819055505b69010f0cf064dd592000006134c682600a60003373ffffffffffffffffffffffffffffffffffffffff1673ffffffffffffffffffffffffffffffffffffffff1681526020019081526020016000205461394590919063ffffffff16565b1115613507576040517f08c379a00000000000000000000000000000000000000000000000000000000081526004016134fe9061565d565b60405180910390fd5b600160009054906101000a900473ffffffffffffffffffffffffffffffffffffffff1673ffffffffffffffffffffffffffffffffffffffff166370a08231306040518263ffffffff1660e01b815260040161356291906142de565b602060405180830381865afa15801561357f573d6000803e3d6000fd5b505050506040513d601f19601f820116820180604052508101906135a3919061496b565b8111156135e5576040517f08c379a00000000000000000000000000000000000000000000000000000000081526004016135dc90615143565b60405180910390fd5b600160009054906101000a900473ffffffffffffffffffffffffffffffffffffffff1673ffffffffffffffffffffffffffffffffffffffff1663a9059cbb83836040518363ffffffff1660e01b8152600401613642929190614a04565b6020604051808303816000875af1158015613661573d6000803e3d6000fd5b505050506040513d601f19601f820116820180604052508101906136859190614a42565b506136d881600a60003373ffffffffffffffffffffffffffffffffffffffff1673ffffffffffffffffffffffffffffffffffffffff1681526020019081526020016000205461394590919063ffffffff16565b600a60003373ffffffffffffffffffffffffffffffffffffffff1673ffffffffffffffffffffffffffffffffffffffff168152602001908152602001600020819055505050565b60008054906101000a900473ffffffffffffffffffffffffffffffffffffffff1681565b69010f0cf064dd5920000081565b60008111613794576040517f08c379a000000000000000000000000000000000000000000000000000000000815260040161378b906156c9565b60405180910390fd5b60006137b1670de0b6b3a76400008361395b90919063ffffffff16565b9050600160009054906101000a900473ffffffffffffffffffffffffffffffffffffffff1673ffffffffffffffffffffffffffffffffffffffff166323b872dd3330856040518463ffffffff1660e01b815260040161381293929190614fe8565b6020604051808303816000875af1158015613831573d6000803e3d6000fd5b505050506040513d601f19601f820116820180604052508101906138559190614a42565b613894576040517f08c379a000000000000000000000000000000000000000000000000000000000815260040161388b90614abb565b60405180910390fd5b3373ffffffffffffffffffffffffffffffffffffffff166108fc829081150290604051600060405180830381858888f193505050501580156138da573d6000803e3d6000fd5b503373ffffffffffffffffffffffffffffffffffffffff167fae8bcd366b92d4b55d90c0ccbfd8a50a60bae24f201c5899a989e99a3d877b938383604051613923929190614adb565b60405180910390a25050565b6000818361393d9190614f4b565b905092915050565b60008183613953919061523b565b905092915050565b600081836139699190614eda565b905092915050565b60405180610120016040528060008152602001606081526020016060815260200160008152602001600073ffffffffffffffffffffffffffffffffffffffff168152602001600081526020016000815260200160008152602001606081525090565b828054828255906000526020600020908101928215613a4c579160200282015b82811115613a4b5782518260006101000a81548173ffffffffffffffffffffffffffffffffffffffff021916908373ffffffffffffffffffffffffffffffffffffffff160217905550916020019190600101906139f3565b5b509050613a599190613aaa565b5090565b828054828255906000526020600020908101928215613a99579160200282015b82811115613a98578251825591602001919060010190613a7d565b5b509050613aa69190613aaa565b5090565b5b80821115613ac3576000816000905550600101613aab565b5090565b600082825260208201905092915050565b7f4f7065726174696f6e206e6f7420737570706f72746564000000000000000000600082015250565b6000613b0e601783613ac7565b9150613b1982613ad8565b602082019050919050565b60006020820190508181036000830152613b3d81613b01565b9050919050565b600081519050919050565b600082825260208201905092915050565b6000819050602082019050919050565b6000819050919050565b613b8381613b70565b82525050565b600081519050919050565b600082825260208201905092915050565b60005b83811015613bc3578082015181840152602081019050613ba8565b60008484015250505050565b6000601f19601f8301169050919050565b6000613beb82613b89565b613bf58185613b94565b9350613c05818560208601613ba5565b613c0e81613bcf565b840191505092915050565b600073ffffffffffffffffffffffffffffffffffffffff82169050919050565b6000613c4482613c19565b9050919050565b613c5481613c39565b82525050565b600061012083016000830151613c736000860182613b7a565b5060208301518482036020860152613c8b8282613be0565b91505060408301518482036040860152613ca58282613be0565b9150506060830151613cba6060860182613b7a565b506080830151613ccd6080860182613c4b565b5060a0830151613ce060a0860182613b7a565b5060c0830151613cf360c0860182613b7a565b5060e0830151613d0660e0860182613b7a565b50610100830151848203610100860152613d208282613be0565b9150508091505092915050565b6000613d398383613c5a565b905092915050565b6000602082019050919050565b6000613d5982613b44565b613d638185613b4f565b935083602082028501613d7585613b60565b8060005b85811015613db15784840389528151613d928582613d2d565b9450613d9d83613d41565b925060208a01995050600181019050613d79565b50829750879550505050505092915050565b60006020820190508181036000830152613ddd8184613d4e565b905092915050565b613dee81613b70565b82525050565b6000602082019050613e096000830184613de5565b92915050565b6000604051905090565b600080fd5b600080fd5b613e2c81613b70565b8114613e3757600080fd5b50565b600081359050613e4981613e23565b92915050565b600060208284031215613e6557613e64613e19565b5b6000613e7384828501613e3a565b91505092915050565b613e8581613c39565b8114613e9057600080fd5b50565b600081359050613ea281613e7c565b92915050565b600060208284031215613ebe57613ebd613e19565b5b6000613ecc84828501613e93565b91505092915050565b600080fd5b600080fd5b600080fd5b60008083601f840112613efa57613ef9613ed5565b5b8235905067ffffffffffffffff811115613f1757613f16613eda565b5b602083019150836001820283011115613f3357613f32613edf565b5b9250929050565b60008060208385031215613f5157613f50613e19565b5b600083013567ffffffffffffffff811115613f6f57613f6e613e1e565b5b613f7b85828601613ee4565b92509250509250929050565b7f4e487b7100000000000000000000000000000000000000000000000000000000600052604160045260246000fd5b613fbf82613bcf565b810181811067ffffffffffffffff82111715613fde57613fdd613f87565b5b80604052505050565b6000613ff1613e0f565b9050613ffd8282613fb6565b919050565b600067ffffffffffffffff82111561401d5761401c613f87565b5b602082029050602081019050919050565b600061404161403c84614002565b613fe7565b9050808382526020820190506020840283018581111561406457614063613edf565b5b835b8181101561408d57806140798882613e3a565b845260208401935050602081019050614066565b5050509392505050565b600082601f8301126140ac576140ab613ed5565b5b81356140bc84826020860161402e565b91505092915050565b600067ffffffffffffffff8211156140e0576140df613f87565b5b602082029050602081019050919050565b60008115159050919050565b614106816140f1565b811461411157600080fd5b50565b600081359050614123816140fd565b92915050565b600061413c614137846140c5565b613fe7565b9050808382526020820190506020840283018581111561415f5761415e613edf565b5b835b8181101561418857806141748882614114565b845260208401935050602081019050614161565b5050509392505050565b600082601f8301126141a7576141a6613ed5565b5b81356141b7848260208601614129565b91505092915050565b600080600080600060a086880312156141dc576141db613e19565b5b600086013567ffffffffffffffff8111156141fa576141f9613e1e565b5b61420688828901614097565b955050602086013567ffffffffffffffff81111561422757614226613e1e565b5b61423388828901614097565b945050604086013567ffffffffffffffff81111561425457614253613e1e565b5b61426088828901614192565b935050606061427188828901613e3a565b925050608061428288828901613e3a565b9150509295509295909350565b600080604083850312156142a6576142a5613e19565b5b60006142b485828601613e93565b92505060206142c585828601613e3a565b9150509250929050565b6142d881613c39565b82525050565b60006020820190506142f360008301846142cf565b92915050565b600080fd5b600067ffffffffffffffff82111561431957614318613f87565b5b61432282613bcf565b9050602081019050919050565b82818337600083830152505050565b600061435161434c846142fe565b613fe7565b90508281526020810184848401111561436d5761436c6142f9565b5b61437884828561432f565b509392505050565b600082601f83011261439557614394613ed5565b5b81356143a584826020860161433e565b91505092915050565b6000602082840312156143c4576143c3613e19565b5b600082013567ffffffffffffffff8111156143e2576143e1613e1e565b5b6143ee84828501614380565b91505092915050565b614400816140f1565b82525050565b600081519050919050565b600082825260208201905092915050565b600061442d82614406565b6144378185614411565b9350614447818560208601613ba5565b61445081613bcf565b840191505092915050565b600060408201905061447060008301856143f7565b81810360208301526144828184614422565b90509392505050565b6000819050919050565b60006144b06144ab6144a684613c19565b61448b565b613c19565b9050919050565b60006144c282614495565b9050919050565b60006144d4826144b7565b9050919050565b6144e4816144c9565b82525050565b60006020820190506144ff60008301846144db565b92915050565b600061451082613b89565b61451a8185613ac7565b935061452a818560208601613ba5565b61453381613bcf565b840191505092915050565b600061012082019050614554600083018c613de5565b8181036020830152614566818b614505565b9050818103604083015261457a818a614505565b90506145896060830189613de5565b61459660808301886142cf565b6145a360a0830187613de5565b6145b060c0830186613de5565b6145bd60e0830185613de5565b8181036101008301526145d08184614505565b90509a9950505050505050505050565b60006080820190506145f56000830187613de5565b61460260208301866142cf565b61460f6040830185613de5565b61461c6060830184613de5565b95945050505050565b600060608201905061463a60008301866142cf565b6146476020830185613de5565b6146546040830184613de5565b949350505050565b600067ffffffffffffffff82111561467757614676613f87565b5b61468082613bcf565b9050602081019050919050565b60006146a061469b8461465c565b613fe7565b9050828152602081018484840111156146bc576146bb6142f9565b5b6146c784828561432f565b509392505050565b600082601f8301126146e4576146e3613ed5565b5b81356146f484826020860161468d565b91505092915050565b600080600080600080600060e0888a03121561471c5761471b613e19565b5b600088013567ffffffffffffffff81111561473a57614739613e1e565b5b6147468a828b016146cf565b975050602088013567ffffffffffffffff81111561476757614766613e1e565b5b6147738a828b016146cf565b96505060406147848a828b01613e3a565b95505060606147958a828b01613e3a565b94505060806147a68a828b01613e3a565b93505060a06147b78a828b01613e3a565b92505060c088013567ffffffffffffffff8111156147d8576147d7613e1e565b5b6147e48a828b016146cf565b91505092959891949750929550565b600081519050919050565b600082825260208201905092915050565b6000819050602082019050919050565b600061482b8383613c4b565b60208301905092915050565b6000602082019050919050565b600061484f826147f3565b61485981856147fe565b93506148648361480f565b8060005b8381101561489557815161487c888261481f565b975061488783614837565b925050600181019050614868565b5085935050505092915050565b600060208201905081810360008301526148bc8184614844565b905092915050565b7f4d4154494320616d6f756e742073686f756c642062652067726561746572207460008201527f68616e2030000000000000000000000000000000000000000000000000000000602082015250565b6000614920602583613ac7565b915061492b826148c4565b604082019050919050565b6000602082019050818103600083015261494f81614913565b9050919050565b60008151905061496581613e23565b92915050565b60006020828403121561498157614980613e19565b5b600061498f84828501614956565b91505092915050565b7f4e6f7420656e6f756768204c525420696e20636f6e7472616374000000000000600082015250565b60006149ce601a83613ac7565b91506149d982614998565b602082019050919050565b600060208201905081810360008301526149fd816149c1565b9050919050565b6000604082019050614a1960008301856142cf565b614a266020830184613de5565b9392505050565b600081519050614a3c816140fd565b92915050565b600060208284031215614a5857614a57613e19565b5b6000614a6684828501614a2d565b91505092915050565b7f4c5254207472616e73666572206661696c656400000000000000000000000000600082015250565b6000614aa5601383613ac7565b9150614ab082614a6f565b602082019050919050565b60006020820190508181036000830152614ad481614a98565b9050919050565b6000604082019050614af06000830185613de5565b614afd6020830184613de5565b9392505050565b7f4e487b7100000000000000000000000000000000000000000000000000000000600052601160045260246000fd5b6000614b3e82613b70565b9150614b4983613b70565b9250828203905081811115614b6157614b60614b04565b5b92915050565b7f4e487b7100000000000000000000000000000000000000000000000000000000600052602260045260246000fd5b60006002820490506001821680614bae57607f821691505b602082108103614bc157614bc0614b67565b5b50919050565b7f4e487b7100000000000000000000000000000000000000000000000000000000600052603260045260246000fd5b6000614c0182613b70565b91507fffffffffffffffffffffffffffffffffffffffffffffffffffffffffffffffff8203614c3357614c32614b04565b5b600182019050919050565b7f4f6e6c792061646d696e2063616e2063616c6c20746869732066756e6374696f60008201527f6e00000000000000000000000000000000000000000000000000000000000000602082015250565b6000614c9a602183613ac7565b9150614ca582614c3e565b604082019050919050565b60006020820190508181036000830152614cc981614c8d565b9050919050565b7f55706b656570206e6f74206e6565646564000000000000000000000000000000600082015250565b6000614d06601183613ac7565b9150614d1182614cd0565b602082019050919050565b60006020820190508181036000830152614d3581614cf9565b9050919050565b600067ffffffffffffffff821115614d5757614d56613f87565b5b602082029050602081019050919050565b6000614d7b614d7684614d3c565b613fe7565b90508083825260208201905060208402830185811115614d9e57614d9d613edf565b5b835b81811015614dc75780614db38882613e93565b845260208401935050602081019050614da0565b5050509392505050565b600082601f830112614de657614de5613ed5565b5b8135614df6848260208601614d68565b91505092915050565b600060208284031215614e1557614e14613e19565b5b600082013567ffffffffffffffff811115614e3357614e32613e1e565b5b614e3f84828501614dd1565b91505092915050565b7f4d69736d6174636820696e2070726f647563742049447320616e64207175616e60008201527f746974696573206c656e67746800000000000000000000000000000000000000602082015250565b6000614ea4602d83613ac7565b9150614eaf82614e48565b604082019050919050565b60006020820190508181036000830152614ed381614e97565b9050919050565b6000614ee582613b70565b9150614ef083613b70565b9250828202614efe81613b70565b91508282048414831517614f1557614f14614b04565b5b5092915050565b7f4e487b7100000000000000000000000000000000000000000000000000000000600052601260045260246000fd5b6000614f5682613b70565b9150614f6183613b70565b925082614f7157614f70614f1c565b5b828204905092915050565b7f496e636f7272656374204d415449432073656e74000000000000000000000000600082015250565b6000614fb2601483613ac7565b9150614fbd82614f7c565b602082019050919050565b60006020820190508181036000830152614fe181614fa5565b9050919050565b6000606082019050614ffd60008301866142cf565b61500a60208301856142cf565b6150176040830184613de5565b949350505050565b7f52657761726420506f696e7473207472616e73666572206661696c6564000000600082015250565b6000615055601d83613ac7565b91506150608261501f565b602082019050919050565b6000602082019050818103600083015261508481615048565b9050919050565b7f4c6f79616c747920546f6b656e207472616e73666572206661696c6564000000600082015250565b60006150c1601d83613ac7565b91506150cc8261508b565b602082019050919050565b600060208201905081810360008301526150f0816150b4565b9050919050565b7f4e6f7420656e6f75676820746f6b656e7320696e207472656173757279000000600082015250565b600061512d601d83613ac7565b9150615138826150f7565b602082019050919050565b6000602082019050818103600083015261515c81615120565b9050919050565b7f5573657220616c72656164792072656769737465726564000000000000000000600082015250565b6000615199601783613ac7565b91506151a482615163565b602082019050919050565b600060208201905081810360008301526151c88161518c565b9050919050565b7f53656c6c657220616c7265616479207265676973746572656400000000000000600082015250565b6000615205601983613ac7565b9150615210826151cf565b602082019050919050565b60006020820190508181036000830152615234816151f8565b9050919050565b600061524682613b70565b915061525183613b70565b925082820190508082111561526957615268614b04565b5b92915050565b7f4f6e6c792073656c6c6572732063616e2063616c6c20746869732066756e637460008201527f696f6e0000000000000000000000000000000000000000000000000000000000602082015250565b60006152cb602383613ac7565b91506152d68261526f565b604082019050919050565b600060208201905081810360008301526152fa816152be565b9050919050565b60008190508160005260206000209050919050565b60006020601f8301049050919050565b600082821b905092915050565b6000600883026153637fffffffffffffffffffffffffffffffffffffffffffffffffffffffffffffffff82615326565b61536d8683615326565b95508019841693508086168417925050509392505050565b60006153a061539b61539684613b70565b61448b565b613b70565b9050919050565b6000819050919050565b6153ba83615385565b6153ce6153c6826153a7565b848454615333565b825550505050565b600090565b6153e36153d6565b6153ee8184846153b1565b505050565b5b81811015615412576154076000826153db565b6001810190506153f4565b5050565b601f8211156154575761542881615301565b61543184615316565b81016020851015615440578190505b61545461544c85615316565b8301826153f3565b50505b505050565b600082821c905092915050565b600061547a6000198460080261545c565b1980831691505092915050565b60006154938383615469565b9150826002028217905092915050565b6154ac82613b89565b67ffffffffffffffff8111156154c5576154c4613f87565b5b6154cf8254614b96565b6154da828285615416565b600060209050601f83116001811461550d57600084156154fb578287015190505b6155058582615487565b86555061556d565b601f19841661551b86615301565b60005b828110156155435784890151825560018201915060208501945060208101905061551e565b86831015615560578489015161555c601f891682615469565b8355505b6001600288020188555050505b505050505050565b6000604082019050818103600083015261558f8185614505565b905061559e6020830184613de5565b9392505050565b7f45786365656473206d6f6e74686c792063617000000000000000000000000000600082015250565b60006155db601383613ac7565b91506155e6826155a5565b602082019050919050565b6000602082019050818103600083015261560a816155ce565b9050919050565b7f45786365656473206d6f6e74686c792063617020666f722073656c6c65720000600082015250565b6000615647601e83613ac7565b915061565282615611565b602082019050919050565b600060208201905081810360008301526156768161563a565b9050919050565b7f416d6f756e742073686f756c642062652067726561746572207468616e203000600082015250565b60006156b3601f83613ac7565b91506156be8261567d565b602082019050919050565b600060208201905081810360008301526156e2816156a6565b905091905056fea2646970667358221220259ce29f48276fd715a193efd4ce792df6311575acf38a735e760a446e0ea99764736f6c63430008130033",
  "linkReferences": {},
  "deployedLinkReferences": {}
}