{
  "_format": "hh-sol-artifact-1",
  "contractName": "ECommerceLoyalty",
  "sourceName": "contracts/Loyalty.sol",
  "abi": [
    {
      "inputs": [
        {
          "internalType": "address",
          "name": "_loyaltyTokenAddress",
          "type": "address"
        }
      ],
      "stateMutability": "nonpayable",
      "type": "constructor"
    },
    {
      "stateMutability": "payable",
      "type": "fallback"
    },
    {
      "inputs": [],
      "name": "COMMISSION",
      "outputs": [
        {
          "internalType": "uint256",
          "name": "",
          "type": "uint256"
        }
      ],
      "stateMutability": "view",
      "type": "function"
    },
    {
      "inputs": [],
      "name": "RATE",
      "outputs": [
        {
          "internalType": "uint256",
          "name": "",
          "type": "uint256"
        }
      ],
      "stateMutability": "view",
      "type": "function"
    },
    {
      "inputs": [
        {
          "internalType": "string",
          "name": "name",
          "type": "string"
        },
        {
          "internalType": "uint256",
          "name": "_quantity",
          "type": "uint256"
        },
        {
          "internalType": "uint256",
          "name": "_price",
          "type": "uint256"
        },
        {
          "internalType": "uint256",
          "name": "_rewardPoints",
          "type": "uint256"
        },
        {
          "internalType": "uint256",
          "name": "loyaltyTokensAccepted",
          "type": "uint256"
        },
        {
          "internalType": "string",
          "name": "_imageURI",
          "type": "string"
        }
      ],
      "name": "addProduct",
      "outputs": [],
      "stateMutability": "nonpayable",
      "type": "function"
    },
    {
      "inputs": [],
      "name": "admin",
      "outputs": [
        {
          "internalType": "address",
          "name": "",
          "type": "address"
        }
      ],
      "stateMutability": "view",
      "type": "function"
    },
    {
      "inputs": [
        {
          "internalType": "uint256",
          "name": "lrtAmount",
          "type": "uint256"
        }
      ],
      "name": "exchangeLRTForMATIC",
      "outputs": [],
      "stateMutability": "nonpayable",
      "type": "function"
    },
    {
      "inputs": [],
      "name": "exchangeMATICForLRT",
      "outputs": [],
      "stateMutability": "payable",
      "type": "function"
    },
    {
      "inputs": [],
      "name": "loyaltyToken",
      "outputs": [
        {
          "internalType": "contract IERC20",
          "name": "",
          "type": "address"
        }
      ],
      "stateMutability": "view",
      "type": "function"
    },
    {
      "inputs": [],
      "name": "nextOrderId",
      "outputs": [
        {
          "internalType": "uint256",
          "name": "",
          "type": "uint256"
        }
      ],
      "stateMutability": "view",
      "type": "function"
    },
    {
      "inputs": [],
      "name": "nextProductId",
      "outputs": [
        {
          "internalType": "uint256",
          "name": "",
          "type": "uint256"
        }
      ],
      "stateMutability": "view",
      "type": "function"
    },
    {
      "inputs": [
        {
          "internalType": "uint256",
          "name": "",
          "type": "uint256"
        }
      ],
      "name": "orders",
      "outputs": [
        {
          "internalType": "uint256",
          "name": "orderId",
          "type": "uint256"
        },
        {
          "internalType": "address",
          "name": "buyerAddress",
          "type": "address"
        },
        {
          "internalType": "uint256",
          "name": "productId",
          "type": "uint256"
        },
        {
          "internalType": "uint256",
          "name": "quantity",
          "type": "uint256"
        }
      ],
      "stateMutability": "view",
      "type": "function"
    },
    {
      "inputs": [
        {
          "internalType": "uint256",
          "name": "",
          "type": "uint256"
        }
      ],
      "name": "products",
      "outputs": [
        {
          "internalType": "uint256",
          "name": "productId",
          "type": "uint256"
        },
        {
          "internalType": "string",
          "name": "name",
          "type": "string"
        },
        {
          "internalType": "uint256",
          "name": "quantity",
          "type": "uint256"
        },
        {
          "internalType": "address",
          "name": "sellerAddress",
          "type": "address"
        },
        {
          "internalType": "uint256",
          "name": "price",
          "type": "uint256"
        },
        {
          "internalType": "uint256",
          "name": "rewardPoints",
          "type": "uint256"
        },
        {
          "internalType": "uint256",
          "name": "loyaltyTokensAccepted",
          "type": "uint256"
        },
        {
          "internalType": "string",
          "name": "imageURI",
          "type": "string"
        }
      ],
      "stateMutability": "view",
      "type": "function"
    },
    {
      "inputs": [
        {
          "internalType": "uint256[]",
          "name": "_productIds",
          "type": "uint256[]"
        },
        {
          "internalType": "uint256[]",
          "name": "_quantities",
          "type": "uint256[]"
        },
        {
          "internalType": "bool[]",
          "name": "_fullPaymentInMatic",
          "type": "bool[]"
        },
        {
          "internalType": "uint256",
          "name": "totalCost",
          "type": "uint256"
        },
        {
          "internalType": "uint256",
          "name": "totalRewardPoints",
          "type": "uint256"
        },
        {
          "internalType": "uint256",
          "name": "totalLoyaltyTokensUsed",
          "type": "uint256"
        }
      ],
      "name": "purchaseProducts",
      "outputs": [],
      "stateMutability": "payable",
      "type": "function"
    },
    {
      "inputs": [],
      "name": "registerSeller",
      "outputs": [],
      "stateMutability": "nonpayable",
      "type": "function"
    },
    {
      "inputs": [
        {
          "internalType": "address",
          "name": "",
          "type": "address"
        }
      ],
      "name": "sellers",
      "outputs": [
        {
          "internalType": "address",
          "name": "sellerAddress",
          "type": "address"
        }
      ],
      "stateMutability": "view",
      "type": "function"
    },
    {
      "inputs": [
        {
          "internalType": "address",
          "name": "_lrtToken",
          "type": "address"
        }
      ],
      "name": "setLRTToken",
      "outputs": [],
      "stateMutability": "nonpayable",
      "type": "function"
    },
    {
      "inputs": [
        {
          "internalType": "address",
          "name": "",
          "type": "address"
        }
      ],
      "name": "users",
      "outputs": [
        {
          "internalType": "address",
          "name": "userAddress",
          "type": "address"
        },
        {
          "internalType": "uint256",
          "name": "loyaltyPoints",
          "type": "uint256"
        }
      ],
      "stateMutability": "view",
      "type": "function"
    },
    {
      "inputs": [
        {
          "internalType": "uint256",
          "name": "amount",
          "type": "uint256"
        }
      ],
      "name": "withdrawMATIC",
      "outputs": [],
      "stateMutability": "nonpayable",
      "type": "function"
    },
    {
      "inputs": [
        {
          "internalType": "uint256",
          "name": "amount",
          "type": "uint256"
        }
      ],
      "name": "withdrawTokens",
      "outputs": [],
      "stateMutability": "nonpayable",
      "type": "function"
    },
    {
      "stateMutability": "payable",
      "type": "receive"
    }
  ],
  "bytecode": "0x6080604052600160065560016007553480156200001b57600080fd5b5060405162002f0438038062002f04833981810160405281019062000041919062000133565b336000806101000a81548173ffffffffffffffffffffffffffffffffffffffff021916908373ffffffffffffffffffffffffffffffffffffffff16021790555080600160006101000a81548173ffffffffffffffffffffffffffffffffffffffff021916908373ffffffffffffffffffffffffffffffffffffffff1602179055505062000165565b600080fd5b600073ffffffffffffffffffffffffffffffffffffffff82169050919050565b6000620000fb82620000ce565b9050919050565b6200010d81620000ee565b81146200011957600080fd5b50565b6000815190506200012d8162000102565b92915050565b6000602082840312156200014c576200014b620000c9565b5b60006200015c848285016200011c565b91505092915050565b612d8f80620001756000396000f3fe60806040526004361061010d5760003560e01c8063770aa84d11610095578063a85c38ef11610064578063a85c38ef14610374578063a87430ba146103b4578063f599e4f4146103f2578063f851a4401461040e578063ffa8efc9146104395761011c565b8063770aa84d146102b357806379586766146102de5780637acc0b2014610307578063816837e31461034b5761011c565b80634de91a63116100dc5780634de91a63146101de57806352c9224c14610209578063562df3d514610220578063664e97041461024b5780636d47ab72146102765761011c565b80632a58b33014610157578063315a095d1461018257806333ff7bbd146101ab57806342df2b1d146101b55761011c565b3661011c5761011a610462565b005b6040517f08c379a000000000000000000000000000000000000000000000000000000000815260040161014e90611b77565b60405180910390fd5b34801561016357600080fd5b5061016c6106a6565b6040516101799190611bb0565b60405180910390f35b34801561018e57600080fd5b506101a960048036038101906101a49190611c0b565b6106ac565b005b6101b3610462565b005b3480156101c157600080fd5b506101dc60048036038101906101d79190611c96565b6107fe565b005b3480156101ea57600080fd5b506101f36108d0565b6040516102009190611bb0565b60405180910390f35b34801561021557600080fd5b5061021e6108d6565b005b34801561022c57600080fd5b50610235610ac3565b6040516102429190611bb0565b60405180910390f35b34801561025757600080fd5b50610260610ac8565b60405161026d9190611bb0565b60405180910390f35b34801561028257600080fd5b5061029d60048036038101906102989190611c96565b610ad4565b6040516102aa9190611cd2565b60405180910390f35b3480156102bf57600080fd5b506102c8610b12565b6040516102d59190611d4c565b60405180910390f35b3480156102ea57600080fd5b5061030560048036038101906103009190611ead565b610b38565b005b34801561031357600080fd5b5061032e60048036038101906103299190611c0b565b610da3565b604051610342989796959493929190611fe0565b60405180910390f35b34801561035757600080fd5b50610372600480360381019061036d9190611c0b565b610f1b565b005b34801561038057600080fd5b5061039b60048036038101906103969190611c0b565b611013565b6040516103ab949392919061206c565b60405180910390f35b3480156103c057600080fd5b506103db60048036038101906103d69190611c96565b611063565b6040516103e99291906120b1565b60405180910390f35b61040c6004803603810190610407919061229d565b6110a7565b005b34801561041a57600080fd5b506104236118b0565b6040516104309190611cd2565b60405180910390f35b34801561044557600080fd5b50610460600480360381019061045b9190611c0b565b6118d4565b005b600034116104a5576040517f08c379a000000000000000000000000000000000000000000000000000000000815260040161049c906123f0565b60405180910390fd5b60006104c2670de0b6b3a764000034611a8490919063ffffffff16565b905080600160009054906101000a900473ffffffffffffffffffffffffffffffffffffffff1673ffffffffffffffffffffffffffffffffffffffff166370a08231600160009054906101000a900473ffffffffffffffffffffffffffffffffffffffff166040518263ffffffff1660e01b81526004016105429190611cd2565b602060405180830381865afa15801561055f573d6000803e3d6000fd5b505050506040513d601f19601f820116820180604052508101906105839190612425565b10156105c4576040517f08c379a00000000000000000000000000000000000000000000000000000000081526004016105bb9061249e565b60405180910390fd5b600160009054906101000a900473ffffffffffffffffffffffffffffffffffffffff1673ffffffffffffffffffffffffffffffffffffffff1663a9059cbb33836040518363ffffffff1660e01b81526004016106219291906120b1565b6020604051808303816000875af1158015610640573d6000803e3d6000fd5b505050506040513d601f19601f8201168201806040525081019061066491906124d3565b6106a3576040517f08c379a000000000000000000000000000000000000000000000000000000000815260040161069a9061254c565b60405180910390fd5b50565b60075481565b60008054906101000a900473ffffffffffffffffffffffffffffffffffffffff1673ffffffffffffffffffffffffffffffffffffffff163373ffffffffffffffffffffffffffffffffffffffff161461073a576040517f08c379a0000000000000000000000000000000000000000000000000000000008152600401610731906125de565b60405180910390fd5b600160009054906101000a900473ffffffffffffffffffffffffffffffffffffffff1673ffffffffffffffffffffffffffffffffffffffff1663a9059cbb60008054906101000a900473ffffffffffffffffffffffffffffffffffffffff16836040518363ffffffff1660e01b81526004016107b79291906120b1565b6020604051808303816000875af11580156107d6573d6000803e3d6000fd5b505050506040513d601f19601f820116820180604052508101906107fa91906124d3565b5050565b60008054906101000a900473ffffffffffffffffffffffffffffffffffffffff1673ffffffffffffffffffffffffffffffffffffffff163373ffffffffffffffffffffffffffffffffffffffff161461088c576040517f08c379a0000000000000000000000000000000000000000000000000000000008152600401610883906125de565b60405180910390fd5b80600160006101000a81548173ffffffffffffffffffffffffffffffffffffffff021916908373ffffffffffffffffffffffffffffffffffffffff16021790555050565b60065481565b600073ffffffffffffffffffffffffffffffffffffffff16600360003373ffffffffffffffffffffffffffffffffffffffff1673ffffffffffffffffffffffffffffffffffffffff16815260200190815260200160002060000160009054906101000a900473ffffffffffffffffffffffffffffffffffffffff1673ffffffffffffffffffffffffffffffffffffffff16146109a7576040517f08c379a000000000000000000000000000000000000000000000000000000000815260040161099e9061264a565b60405180910390fd5b60405180604001604052803373ffffffffffffffffffffffffffffffffffffffff168152602001600067ffffffffffffffff8111156109e9576109e8611d82565b5b604051908082528060200260200182016040528015610a175781602001602082028036833780820191505090505b50815250600360003373ffffffffffffffffffffffffffffffffffffffff1673ffffffffffffffffffffffffffffffffffffffff16815260200190815260200160002060008201518160000160006101000a81548173ffffffffffffffffffffffffffffffffffffffff021916908373ffffffffffffffffffffffffffffffffffffffff1602179055506020820151816001019080519060200190610abd929190611ab0565b50905050565b600581565b670de0b6b3a764000081565b60036020528060005260406000206000915090508060000160009054906101000a900473ffffffffffffffffffffffffffffffffffffffff16905081565b600160009054906101000a900473ffffffffffffffffffffffffffffffffffffffff1681565b600073ffffffffffffffffffffffffffffffffffffffff16600360003373ffffffffffffffffffffffffffffffffffffffff1673ffffffffffffffffffffffffffffffffffffffff16815260200190815260200160002060000160009054906101000a900473ffffffffffffffffffffffffffffffffffffffff1673ffffffffffffffffffffffffffffffffffffffff1603610c09576040517f08c379a0000000000000000000000000000000000000000000000000000000008152600401610c00906126dc565b60405180910390fd5b60405180610100016040528060065481526020018781526020018681526020013373ffffffffffffffffffffffffffffffffffffffff16815260200185815260200184815260200183815260200182815250600460006006548152602001908152602001600020600082015181600001556020820151816001019081610c8f91906128fe565b506040820151816002015560608201518160030160006101000a81548173ffffffffffffffffffffffffffffffffffffffff021916908373ffffffffffffffffffffffffffffffffffffffff1602179055506080820151816004015560a0820151816005015560c0820151816006015560e0820151816007019081610d1491906128fe565b50905050600360003373ffffffffffffffffffffffffffffffffffffffff1673ffffffffffffffffffffffffffffffffffffffff168152602001908152602001600020600101600654908060018154018082558091505060019003906000526020600020016000909190919091505560066000815480929190610d96906129ff565b9190505550505050505050565b6004602052806000526040600020600091509050806000015490806001018054610dcc9061272b565b80601f0160208091040260200160405190810160405280929190818152602001828054610df89061272b565b8015610e455780601f10610e1a57610100808354040283529160200191610e45565b820191906000526020600020905b815481529060010190602001808311610e2857829003601f168201915b5050505050908060020154908060030160009054906101000a900473ffffffffffffffffffffffffffffffffffffffff1690806004015490806005015490806006015490806007018054610e989061272b565b80601f0160208091040260200160405190810160405280929190818152602001828054610ec49061272b565b8015610f115780601f10610ee657610100808354040283529160200191610f11565b820191906000526020600020905b815481529060010190602001808311610ef457829003601f168201915b5050505050905088565b60008054906101000a900473ffffffffffffffffffffffffffffffffffffffff1673ffffffffffffffffffffffffffffffffffffffff163373ffffffffffffffffffffffffffffffffffffffff1614610fa9576040517f08c379a0000000000000000000000000000000000000000000000000000000008152600401610fa0906125de565b60405180910390fd5b60008054906101000a900473ffffffffffffffffffffffffffffffffffffffff1673ffffffffffffffffffffffffffffffffffffffff166108fc829081150290604051600060405180830381858888f1935050505015801561100f573d6000803e3d6000fd5b5050565b60056020528060005260406000206000915090508060000154908060010160009054906101000a900473ffffffffffffffffffffffffffffffffffffffff16908060020154908060030154905084565b60026020528060005260406000206000915090508060000160009054906101000a900473ffffffffffffffffffffffffffffffffffffffff16908060010154905082565b84518651146110eb576040517f08c379a00000000000000000000000000000000000000000000000000000000081526004016110e290612ab9565b60405180910390fd5b600060646005856110fc9190612ad9565b6111069190612b4a565b9050600082856111169190612b7b565b90508034101561115b576040517f08c379a000000000000000000000000000000000000000000000000000000000815260040161115290612bfb565b60405180910390fd5b600160009054906101000a900473ffffffffffffffffffffffffffffffffffffffff1673ffffffffffffffffffffffffffffffffffffffff166323b872dd33600160009054906101000a900473ffffffffffffffffffffffffffffffffffffffff16866040518463ffffffff1660e01b81526004016111dc93929190612c1b565b6020604051808303816000875af11580156111fb573d6000803e3d6000fd5b505050506040513d601f19601f8201168201806040525081019061121f91906124d3565b61125e576040517f08c379a000000000000000000000000000000000000000000000000000000000815260040161125590612c9e565b60405180910390fd5b3073ffffffffffffffffffffffffffffffffffffffff166108fc839081150290604051600060405180830381858888f193505050501580156112a4573d6000803e3d6000fd5b5060005b8851811015611804576000600460008b84815181106112ca576112c9612cbe565b5b6020026020010151815260200190815260200160002060405180610100016040529081600082015481526020016001820180546113069061272b565b80601f01602080910402602001604051908101604052809291908181526020018280546113329061272b565b801561137f5780601f106113545761010080835404028352916020019161137f565b820191906000526020600020905b81548152906001019060200180831161136257829003601f168201915b50505050508152602001600282015481526020016003820160009054906101000a900473ffffffffffffffffffffffffffffffffffffffff1673ffffffffffffffffffffffffffffffffffffffff1673ffffffffffffffffffffffffffffffffffffffff1681526020016004820154815260200160058201548152602001600682015481526020016007820180546114169061272b565b80601f01602080910402602001604051908101604052809291908181526020018280546114429061272b565b801561148f5780601f106114645761010080835404028352916020019161148f565b820191906000526020600020905b81548152906001019060200180831161147257829003601f168201915b505050505081525050905060008983815181106114af576114ae612cbe565b5b602002602001015182608001516114c69190612ad9565b90508883815181106114db576114da612cbe565b5b60200260200101511561155b57816060015173ffffffffffffffffffffffffffffffffffffffff166108fc60646005846115159190612ad9565b61151f9190612b4a565b8361152a9190612b7b565b9081150290604051600060405180830381858888f19350505050158015611555573d6000803e3d6000fd5b50611682565b816060015173ffffffffffffffffffffffffffffffffffffffff166108fc60646005846115889190612ad9565b6115929190612b4a565b8460c00151846115a29190612b7b565b6115ac9190612b7b565b9081150290604051600060405180830381858888f193505050501580156115d7573d6000803e3d6000fd5b50600160009054906101000a900473ffffffffffffffffffffffffffffffffffffffff1673ffffffffffffffffffffffffffffffffffffffff1663a9059cbb83606001518460c001516040518363ffffffff1660e01b815260040161163d9291906120b1565b6020604051808303816000875af115801561165c573d6000803e3d6000fd5b505050506040513d601f19601f8201168201806040525081019061168091906124d3565b505b604051806080016040528060075481526020013373ffffffffffffffffffffffffffffffffffffffff1681526020018c85815181106116c4576116c3612cbe565b5b602002602001015181526020018b85815181106116e4576116e3612cbe565b5b60200260200101518152506005600060075481526020019081526020016000206000820151816000015560208201518160010160006101000a81548173ffffffffffffffffffffffffffffffffffffffff021916908373ffffffffffffffffffffffffffffffffffffffff1602179055506040820151816002015560608201518160030155905050600260003373ffffffffffffffffffffffffffffffffffffffff1673ffffffffffffffffffffffffffffffffffffffff1681526020019081526020016000206002016007549080600181540180825580915050600190039060005260206000200160009091909190915055600760008154809291906117ea906129ff565b9190505550505080806117fc906129ff565b9150506112a8565b50600160009054906101000a900473ffffffffffffffffffffffffffffffffffffffff1673ffffffffffffffffffffffffffffffffffffffff1663a9059cbb33866040518363ffffffff1660e01b81526004016118629291906120b1565b6020604051808303816000875af1158015611881573d6000803e3d6000fd5b505050506040513d601f19601f820116820180604052508101906118a591906124d3565b505050505050505050565b60008054906101000a900473ffffffffffffffffffffffffffffffffffffffff1681565b60008111611917576040517f08c379a000000000000000000000000000000000000000000000000000000000815260040161190e90612d39565b60405180910390fd5b6000611934670de0b6b3a764000083611a9a90919063ffffffff16565b9050600160009054906101000a900473ffffffffffffffffffffffffffffffffffffffff1673ffffffffffffffffffffffffffffffffffffffff166323b872dd33600160009054906101000a900473ffffffffffffffffffffffffffffffffffffffff16856040518463ffffffff1660e01b81526004016119b793929190612c1b565b6020604051808303816000875af11580156119d6573d6000803e3d6000fd5b505050506040513d601f19601f820116820180604052508101906119fa91906124d3565b611a39576040517f08c379a0000000000000000000000000000000000000000000000000000000008152600401611a309061254c565b60405180910390fd5b3373ffffffffffffffffffffffffffffffffffffffff166108fc829081150290604051600060405180830381858888f19350505050158015611a7f573d6000803e3d6000fd5b505050565b60008183611a929190612b4a565b905092915050565b60008183611aa89190612ad9565b905092915050565b828054828255906000526020600020908101928215611aec579160200282015b82811115611aeb578251825591602001919060010190611ad0565b5b509050611af99190611afd565b5090565b5b80821115611b16576000816000905550600101611afe565b5090565b600082825260208201905092915050565b7f4f7065726174696f6e206e6f7420737570706f72746564000000000000000000600082015250565b6000611b61601783611b1a565b9150611b6c82611b2b565b602082019050919050565b60006020820190508181036000830152611b9081611b54565b9050919050565b6000819050919050565b611baa81611b97565b82525050565b6000602082019050611bc56000830184611ba1565b92915050565b6000604051905090565b600080fd5b600080fd5b611be881611b97565b8114611bf357600080fd5b50565b600081359050611c0581611bdf565b92915050565b600060208284031215611c2157611c20611bd5565b5b6000611c2f84828501611bf6565b91505092915050565b600073ffffffffffffffffffffffffffffffffffffffff82169050919050565b6000611c6382611c38565b9050919050565b611c7381611c58565b8114611c7e57600080fd5b50565b600081359050611c9081611c6a565b92915050565b600060208284031215611cac57611cab611bd5565b5b6000611cba84828501611c81565b91505092915050565b611ccc81611c58565b82525050565b6000602082019050611ce76000830184611cc3565b92915050565b6000819050919050565b6000611d12611d0d611d0884611c38565b611ced565b611c38565b9050919050565b6000611d2482611cf7565b9050919050565b6000611d3682611d19565b9050919050565b611d4681611d2b565b82525050565b6000602082019050611d616000830184611d3d565b92915050565b600080fd5b600080fd5b6000601f19601f8301169050919050565b7f4e487b7100000000000000000000000000000000000000000000000000000000600052604160045260246000fd5b611dba82611d71565b810181811067ffffffffffffffff82111715611dd957611dd8611d82565b5b80604052505050565b6000611dec611bcb565b9050611df88282611db1565b919050565b600067ffffffffffffffff821115611e1857611e17611d82565b5b611e2182611d71565b9050602081019050919050565b82818337600083830152505050565b6000611e50611e4b84611dfd565b611de2565b905082815260208101848484011115611e6c57611e6b611d6c565b5b611e77848285611e2e565b509392505050565b600082601f830112611e9457611e93611d67565b5b8135611ea4848260208601611e3d565b91505092915050565b60008060008060008060c08789031215611eca57611ec9611bd5565b5b600087013567ffffffffffffffff811115611ee857611ee7611bda565b5b611ef489828a01611e7f565b9650506020611f0589828a01611bf6565b9550506040611f1689828a01611bf6565b9450506060611f2789828a01611bf6565b9350506080611f3889828a01611bf6565b92505060a087013567ffffffffffffffff811115611f5957611f58611bda565b5b611f6589828a01611e7f565b9150509295509295509295565b600081519050919050565b60005b83811015611f9b578082015181840152602081019050611f80565b60008484015250505050565b6000611fb282611f72565b611fbc8185611b1a565b9350611fcc818560208601611f7d565b611fd581611d71565b840191505092915050565b600061010082019050611ff6600083018b611ba1565b8181036020830152612008818a611fa7565b90506120176040830189611ba1565b6120246060830188611cc3565b6120316080830187611ba1565b61203e60a0830186611ba1565b61204b60c0830185611ba1565b81810360e083015261205d8184611fa7565b90509998505050505050505050565b60006080820190506120816000830187611ba1565b61208e6020830186611cc3565b61209b6040830185611ba1565b6120a86060830184611ba1565b95945050505050565b60006040820190506120c66000830185611cc3565b6120d36020830184611ba1565b9392505050565b600067ffffffffffffffff8211156120f5576120f4611d82565b5b602082029050602081019050919050565b600080fd5b600061211e612119846120da565b611de2565b9050808382526020820190506020840283018581111561214157612140612106565b5b835b8181101561216a57806121568882611bf6565b845260208401935050602081019050612143565b5050509392505050565b600082601f83011261218957612188611d67565b5b813561219984826020860161210b565b91505092915050565b600067ffffffffffffffff8211156121bd576121bc611d82565b5b602082029050602081019050919050565b60008115159050919050565b6121e3816121ce565b81146121ee57600080fd5b50565b600081359050612200816121da565b92915050565b6000612219612214846121a2565b611de2565b9050808382526020820190506020840283018581111561223c5761223b612106565b5b835b81811015612265578061225188826121f1565b84526020840193505060208101905061223e565b5050509392505050565b600082601f83011261228457612283611d67565b5b8135612294848260208601612206565b91505092915050565b60008060008060008060c087890312156122ba576122b9611bd5565b5b600087013567ffffffffffffffff8111156122d8576122d7611bda565b5b6122e489828a01612174565b965050602087013567ffffffffffffffff81111561230557612304611bda565b5b61231189828a01612174565b955050604087013567ffffffffffffffff81111561233257612331611bda565b5b61233e89828a0161226f565b945050606061234f89828a01611bf6565b935050608061236089828a01611bf6565b92505060a061237189828a01611bf6565b9150509295509295509295565b7f4d4154494320616d6f756e742073686f756c642062652067726561746572207460008201527f68616e2030000000000000000000000000000000000000000000000000000000602082015250565b60006123da602583611b1a565b91506123e58261237e565b604082019050919050565b60006020820190508181036000830152612409816123cd565b9050919050565b60008151905061241f81611bdf565b92915050565b60006020828403121561243b5761243a611bd5565b5b600061244984828501612410565b91505092915050565b7f4e6f7420656e6f756768204c525420696e20636f6e7472616374000000000000600082015250565b6000612488601a83611b1a565b915061249382612452565b602082019050919050565b600060208201905081810360008301526124b78161247b565b9050919050565b6000815190506124cd816121da565b92915050565b6000602082840312156124e9576124e8611bd5565b5b60006124f7848285016124be565b91505092915050565b7f4c5254207472616e73666572206661696c656400000000000000000000000000600082015250565b6000612536601383611b1a565b915061254182612500565b602082019050919050565b6000602082019050818103600083015261256581612529565b9050919050565b7f4f6e6c792061646d696e2063616e2063616c6c20746869732066756e6374696f60008201527f6e00000000000000000000000000000000000000000000000000000000000000602082015250565b60006125c8602183611b1a565b91506125d38261256c565b604082019050919050565b600060208201905081810360008301526125f7816125bb565b9050919050565b7f53656c6c657220616c7265616479207265676973746572656400000000000000600082015250565b6000612634601983611b1a565b915061263f826125fe565b602082019050919050565b6000602082019050818103600083015261266381612627565b9050919050565b7f4f6e6c792073656c6c6572732063616e2063616c6c20746869732066756e637460008201527f696f6e0000000000000000000000000000000000000000000000000000000000602082015250565b60006126c6602383611b1a565b91506126d18261266a565b604082019050919050565b600060208201905081810360008301526126f5816126b9565b9050919050565b7f4e487b7100000000000000000000000000000000000000000000000000000000600052602260045260246000fd5b6000600282049050600182168061274357607f821691505b602082108103612756576127556126fc565b5b50919050565b60008190508160005260206000209050919050565b60006020601f8301049050919050565b600082821b905092915050565b6000600883026127be7fffffffffffffffffffffffffffffffffffffffffffffffffffffffffffffffff82612781565b6127c88683612781565b95508019841693508086168417925050509392505050565b60006127fb6127f66127f184611b97565b611ced565b611b97565b9050919050565b6000819050919050565b612815836127e0565b61282961282182612802565b84845461278e565b825550505050565b600090565b61283e612831565b61284981848461280c565b505050565b5b8181101561286d57612862600082612836565b60018101905061284f565b5050565b601f8211156128b2576128838161275c565b61288c84612771565b8101602085101561289b578190505b6128af6128a785612771565b83018261284e565b50505b505050565b600082821c905092915050565b60006128d5600019846008026128b7565b1980831691505092915050565b60006128ee83836128c4565b9150826002028217905092915050565b61290782611f72565b67ffffffffffffffff8111156129205761291f611d82565b5b61292a825461272b565b612935828285612871565b600060209050601f8311600181146129685760008415612956578287015190505b61296085826128e2565b8655506129c8565b601f1984166129768661275c565b60005b8281101561299e57848901518255600182019150602085019450602081019050612979565b868310156129bb57848901516129b7601f8916826128c4565b8355505b6001600288020188555050505b505050505050565b7f4e487b7100000000000000000000000000000000000000000000000000000000600052601160045260246000fd5b6000612a0a82611b97565b91507fffffffffffffffffffffffffffffffffffffffffffffffffffffffffffffffff8203612a3c57612a3b6129d0565b5b600182019050919050565b7f4d69736d6174636820696e2070726f647563742049447320616e64207175616e60008201527f746974696573206c656e67746800000000000000000000000000000000000000602082015250565b6000612aa3602d83611b1a565b9150612aae82612a47565b604082019050919050565b60006020820190508181036000830152612ad281612a96565b9050919050565b6000612ae482611b97565b9150612aef83611b97565b9250828202612afd81611b97565b91508282048414831517612b1457612b136129d0565b5b5092915050565b7f4e487b7100000000000000000000000000000000000000000000000000000000600052601260045260246000fd5b6000612b5582611b97565b9150612b6083611b97565b925082612b7057612b6f612b1b565b5b828204905092915050565b6000612b8682611b97565b9150612b9183611b97565b9250828203905081811115612ba957612ba86129d0565b5b92915050565b7f496e636f7272656374204d415449432073656e74000000000000000000000000600082015250565b6000612be5601483611b1a565b9150612bf082612baf565b602082019050919050565b60006020820190508181036000830152612c1481612bd8565b9050919050565b6000606082019050612c306000830186611cc3565b612c3d6020830185611cc3565b612c4a6040830184611ba1565b949350505050565b7f4c6f79616c747920546f6b656e207472616e73666572206661696c6564000000600082015250565b6000612c88601d83611b1a565b9150612c9382612c52565b602082019050919050565b60006020820190508181036000830152612cb781612c7b565b9050919050565b7f4e487b7100000000000000000000000000000000000000000000000000000000600052603260045260246000fd5b7f416d6f756e742073686f756c642062652067726561746572207468616e203000600082015250565b6000612d23601f83611b1a565b9150612d2e82612ced565b602082019050919050565b60006020820190508181036000830152612d5281612d16565b905091905056fea264697066735822122016abe240ca82d75c89dc3ca68d33f29eba0c34728555c9eec3ca95ddd816109f64736f6c63430008130033",
  "linkReferences": {},
  "deployedLinkReferences": {}
}