{
  "_format": "hh-sol-artifact-1",
  "contractName": "ECommerceLoyalty",
  "sourceName": "contracts/Loyalty.sol",
  "abi": [
    {
      "inputs": [
        {
          "internalType": "address",
          "name": "_loyaltyTokenAddress",
          "type": "address"
        },
        {
          "internalType": "uint256",
          "name": "_interval",
          "type": "uint256"
        }
      ],
      "stateMutability": "nonpayable",
      "type": "constructor"
    },
    {
      "anonymous": false,
      "inputs": [
        {
          "indexed": true,
          "internalType": "address",
          "name": "sellerAddress",
          "type": "address"
        },
        {
          "indexed": false,
          "internalType": "uint256",
          "name": "lrtAmount",
          "type": "uint256"
        },
        {
          "indexed": false,
          "internalType": "uint256",
          "name": "maticAmount",
          "type": "uint256"
        }
      ],
      "name": "LRTExchangedForMATIC",
      "type": "event"
    },
    {
      "anonymous": false,
      "inputs": [
        {
          "indexed": true,
          "internalType": "address",
          "name": "admin",
          "type": "address"
        },
        {
          "indexed": false,
          "internalType": "address",
          "name": "newLRTTokenAddress",
          "type": "address"
        }
      ],
      "name": "LRTTokenAddressUpdated",
      "type": "event"
    },
    {
      "anonymous": false,
      "inputs": [
        {
          "indexed": true,
          "internalType": "address",
          "name": "sellerAddress",
          "type": "address"
        },
        {
          "indexed": false,
          "internalType": "uint256",
          "name": "maticAmount",
          "type": "uint256"
        },
        {
          "indexed": false,
          "internalType": "uint256",
          "name": "lrtAmount",
          "type": "uint256"
        }
      ],
      "name": "MATICExchangedForLRT",
      "type": "event"
    },
    {
      "anonymous": false,
      "inputs": [
        {
          "indexed": true,
          "internalType": "address",
          "name": "admin",
          "type": "address"
        },
        {
          "indexed": false,
          "internalType": "uint256",
          "name": "amount",
          "type": "uint256"
        }
      ],
      "name": "MATICWithdrawn",
      "type": "event"
    },
    {
      "anonymous": false,
      "inputs": [
        {
          "indexed": true,
          "internalType": "address",
          "name": "buyerAddress",
          "type": "address"
        },
        {
          "indexed": false,
          "internalType": "uint256",
          "name": "pointsEarned",
          "type": "uint256"
        }
      ],
      "name": "PointsEarned",
      "type": "event"
    },
    {
      "anonymous": false,
      "inputs": [
        {
          "indexed": true,
          "internalType": "uint256",
          "name": "productId",
          "type": "uint256"
        },
        {
          "indexed": true,
          "internalType": "address",
          "name": "sellerAddress",
          "type": "address"
        },
        {
          "indexed": false,
          "internalType": "string",
          "name": "name",
          "type": "string"
        },
        {
          "indexed": false,
          "internalType": "uint256",
          "name": "price",
          "type": "uint256"
        }
      ],
      "name": "ProductAdded",
      "type": "event"
    },
    {
      "anonymous": false,
      "inputs": [
        {
          "indexed": true,
          "internalType": "uint256",
          "name": "orderId",
          "type": "uint256"
        },
        {
          "indexed": true,
          "internalType": "address",
          "name": "buyerAddress",
          "type": "address"
        },
        {
          "indexed": true,
          "internalType": "uint256",
          "name": "productId",
          "type": "uint256"
        },
        {
          "indexed": false,
          "internalType": "uint256",
          "name": "quantity",
          "type": "uint256"
        }
      ],
      "name": "ProductPurchased",
      "type": "event"
    },
    {
      "anonymous": false,
      "inputs": [
        {
          "indexed": true,
          "internalType": "address",
          "name": "sellerAddress",
          "type": "address"
        }
      ],
      "name": "SellerRegistered",
      "type": "event"
    },
    {
      "anonymous": false,
      "inputs": [
        {
          "indexed": true,
          "internalType": "address",
          "name": "admin",
          "type": "address"
        },
        {
          "indexed": false,
          "internalType": "uint256",
          "name": "amount",
          "type": "uint256"
        }
      ],
      "name": "TokensWithdrawn",
      "type": "event"
    },
    {
      "anonymous": false,
      "inputs": [
        {
          "indexed": true,
          "internalType": "address",
          "name": "userAddress",
          "type": "address"
        }
      ],
      "name": "UserRegistered",
      "type": "event"
    },
    {
      "stateMutability": "payable",
      "type": "fallback"
    },
    {
      "inputs": [],
      "name": "COMMISSION",
      "outputs": [
        {
          "internalType": "uint256",
          "name": "",
          "type": "uint256"
        }
      ],
      "stateMutability": "view",
      "type": "function"
    },
    {
      "inputs": [],
      "name": "RATE",
      "outputs": [
        {
          "internalType": "uint256",
          "name": "",
          "type": "uint256"
        }
      ],
      "stateMutability": "view",
      "type": "function"
    },
    {
      "inputs": [
        {
          "internalType": "string",
          "name": "name",
          "type": "string"
        },
        {
          "internalType": "string",
          "name": "_description",
          "type": "string"
        },
        {
          "internalType": "uint256",
          "name": "_quantity",
          "type": "uint256"
        },
        {
          "internalType": "uint256",
          "name": "_price",
          "type": "uint256"
        },
        {
          "internalType": "uint256",
          "name": "_rewardPoints",
          "type": "uint256"
        },
        {
          "internalType": "uint256",
          "name": "loyaltyTokensAccepted",
          "type": "uint256"
        },
        {
          "internalType": "string",
          "name": "_imageURI",
          "type": "string"
        }
      ],
      "name": "addProduct",
      "outputs": [],
      "stateMutability": "nonpayable",
      "type": "function"
    },
    {
      "inputs": [],
      "name": "admin",
      "outputs": [
        {
          "internalType": "address",
          "name": "",
          "type": "address"
        }
      ],
      "stateMutability": "view",
      "type": "function"
    },
    {
      "inputs": [
        {
          "internalType": "bytes",
          "name": "",
          "type": "bytes"
        }
      ],
      "name": "checkUpkeep",
      "outputs": [
        {
          "internalType": "bool",
          "name": "upkeepNeeded",
          "type": "bool"
        },
        {
          "internalType": "bytes",
          "name": "performData",
          "type": "bytes"
        }
      ],
      "stateMutability": "view",
      "type": "function"
    },
    {
      "inputs": [
        {
          "internalType": "uint256",
          "name": "lrtAmount",
          "type": "uint256"
        }
      ],
      "name": "exchangeLRTForMATIC",
      "outputs": [],
      "stateMutability": "nonpayable",
      "type": "function"
    },
    {
      "inputs": [],
      "name": "exchangeMATICForLRT",
      "outputs": [],
      "stateMutability": "payable",
      "type": "function"
    },
    {
      "inputs": [],
      "name": "getAllProducts",
      "outputs": [
        {
          "components": [
            {
              "internalType": "uint256",
              "name": "productId",
              "type": "uint256"
            },
            {
              "internalType": "string",
              "name": "name",
              "type": "string"
            },
            {
              "internalType": "string",
              "name": "description",
              "type": "string"
            },
            {
              "internalType": "uint256",
              "name": "quantity",
              "type": "uint256"
            },
            {
              "internalType": "address",
              "name": "sellerAddress",
              "type": "address"
            },
            {
              "internalType": "uint256",
              "name": "price",
              "type": "uint256"
            },
            {
              "internalType": "uint256",
              "name": "rewardPoints",
              "type": "uint256"
            },
            {
              "internalType": "uint256",
              "name": "loyaltyTokensAccepted",
              "type": "uint256"
            },
            {
              "internalType": "string",
              "name": "imageURI",
              "type": "string"
            }
          ],
          "internalType": "struct ECommerceLoyalty.Product[]",
          "name": "",
          "type": "tuple[]"
        }
      ],
      "stateMutability": "view",
      "type": "function"
    },
    {
      "inputs": [],
      "name": "getLeaderBoard",
      "outputs": [
        {
          "internalType": "address[]",
          "name": "",
          "type": "address[]"
        }
      ],
      "stateMutability": "view",
      "type": "function"
    },
    {
      "inputs": [],
      "name": "interval",
      "outputs": [
        {
          "internalType": "uint256",
          "name": "",
          "type": "uint256"
        }
      ],
      "stateMutability": "view",
      "type": "function"
    },
    {
      "inputs": [],
      "name": "lastTimestamp",
      "outputs": [
        {
          "internalType": "uint256",
          "name": "",
          "type": "uint256"
        }
      ],
      "stateMutability": "view",
      "type": "function"
    },
    {
      "inputs": [
        {
          "internalType": "uint256",
          "name": "",
          "type": "uint256"
        }
      ],
      "name": "leaderboard",
      "outputs": [
        {
          "internalType": "address",
          "name": "",
          "type": "address"
        }
      ],
      "stateMutability": "view",
      "type": "function"
    },
    {
      "inputs": [],
      "name": "loyaltyToken",
      "outputs": [
        {
          "internalType": "contract IERC20",
          "name": "",
          "type": "address"
        }
      ],
      "stateMutability": "view",
      "type": "function"
    },
    {
      "inputs": [],
      "name": "nextOrderId",
      "outputs": [
        {
          "internalType": "uint256",
          "name": "",
          "type": "uint256"
        }
      ],
      "stateMutability": "view",
      "type": "function"
    },
    {
      "inputs": [],
      "name": "nextProductId",
      "outputs": [
        {
          "internalType": "uint256",
          "name": "",
          "type": "uint256"
        }
      ],
      "stateMutability": "view",
      "type": "function"
    },
    {
      "inputs": [
        {
          "internalType": "uint256",
          "name": "",
          "type": "uint256"
        }
      ],
      "name": "orders",
      "outputs": [
        {
          "internalType": "uint256",
          "name": "orderId",
          "type": "uint256"
        },
        {
          "internalType": "address",
          "name": "buyerAddress",
          "type": "address"
        },
        {
          "internalType": "uint256",
          "name": "productId",
          "type": "uint256"
        },
        {
          "internalType": "uint256",
          "name": "quantity",
          "type": "uint256"
        }
      ],
      "stateMutability": "view",
      "type": "function"
    },
    {
      "inputs": [
        {
          "internalType": "bytes",
          "name": "performData",
          "type": "bytes"
        }
      ],
      "name": "performUpkeep",
      "outputs": [],
      "stateMutability": "nonpayable",
      "type": "function"
    },
    {
      "inputs": [
        {
          "internalType": "uint256",
          "name": "",
          "type": "uint256"
        }
      ],
      "name": "products",
      "outputs": [
        {
          "internalType": "uint256",
          "name": "productId",
          "type": "uint256"
        },
        {
          "internalType": "string",
          "name": "name",
          "type": "string"
        },
        {
          "internalType": "string",
          "name": "description",
          "type": "string"
        },
        {
          "internalType": "uint256",
          "name": "quantity",
          "type": "uint256"
        },
        {
          "internalType": "address",
          "name": "sellerAddress",
          "type": "address"
        },
        {
          "internalType": "uint256",
          "name": "price",
          "type": "uint256"
        },
        {
          "internalType": "uint256",
          "name": "rewardPoints",
          "type": "uint256"
        },
        {
          "internalType": "uint256",
          "name": "loyaltyTokensAccepted",
          "type": "uint256"
        },
        {
          "internalType": "string",
          "name": "imageURI",
          "type": "string"
        }
      ],
      "stateMutability": "view",
      "type": "function"
    },
    {
      "inputs": [
        {
          "internalType": "uint256[]",
          "name": "_productIds",
          "type": "uint256[]"
        },
        {
          "internalType": "uint256[]",
          "name": "_quantities",
          "type": "uint256[]"
        },
        {
          "internalType": "bool[]",
          "name": "_fullPaymentInMatic",
          "type": "bool[]"
        },
        {
          "internalType": "uint256",
          "name": "totalCost",
          "type": "uint256"
        },
        {
          "internalType": "uint256",
          "name": "totalLoyaltyTokensUsed",
          "type": "uint256"
        }
      ],
      "name": "purchaseProducts",
      "outputs": [],
      "stateMutability": "payable",
      "type": "function"
    },
    {
      "inputs": [],
      "name": "registerSeller",
      "outputs": [],
      "stateMutability": "nonpayable",
      "type": "function"
    },
    {
      "inputs": [],
      "name": "registerUser",
      "outputs": [],
      "stateMutability": "nonpayable",
      "type": "function"
    },
    {
      "inputs": [
        {
          "internalType": "address",
          "name": "",
          "type": "address"
        }
      ],
      "name": "sellers",
      "outputs": [
        {
          "internalType": "address",
          "name": "sellerAddress",
          "type": "address"
        }
      ],
      "stateMutability": "view",
      "type": "function"
    },
    {
      "inputs": [
        {
          "internalType": "address",
          "name": "_lrtToken",
          "type": "address"
        }
      ],
      "name": "setLRTToken",
      "outputs": [],
      "stateMutability": "nonpayable",
      "type": "function"
    },
    {
      "inputs": [
        {
          "internalType": "address",
          "name": "",
          "type": "address"
        }
      ],
      "name": "users",
      "outputs": [
        {
          "internalType": "address",
          "name": "userAddress",
          "type": "address"
        },
        {
          "internalType": "uint256",
          "name": "loyaltyPoints",
          "type": "uint256"
        },
        {
          "internalType": "uint256",
          "name": "points",
          "type": "uint256"
        }
      ],
      "stateMutability": "view",
      "type": "function"
    },
    {
      "inputs": [
        {
          "internalType": "uint256",
          "name": "amount",
          "type": "uint256"
        }
      ],
      "name": "withdrawMATIC",
      "outputs": [],
      "stateMutability": "nonpayable",
      "type": "function"
    },
    {
      "inputs": [
        {
          "internalType": "uint256",
          "name": "amount",
          "type": "uint256"
        }
      ],
      "name": "withdrawTokens",
      "outputs": [],
      "stateMutability": "nonpayable",
      "type": "function"
    },
    {
      "stateMutability": "payable",
      "type": "receive"
    }
  ],
  "bytecode": "0x60a0604052600160085560016009553480156200001b57600080fd5b5060405162004ae438038062004ae483398181016040528101906200004191906200017e565b336000806101000a81548173ffffffffffffffffffffffffffffffffffffffff021916908373ffffffffffffffffffffffffffffffffffffffff16021790555081600160006101000a81548173ffffffffffffffffffffffffffffffffffffffff021916908373ffffffffffffffffffffffffffffffffffffffff1602179055508060808181525050426002819055505050620001c5565b600080fd5b600073ffffffffffffffffffffffffffffffffffffffff82169050919050565b60006200010b82620000de565b9050919050565b6200011d81620000fe565b81146200012957600080fd5b50565b6000815190506200013d8162000112565b92915050565b6000819050919050565b620001588162000143565b81146200016457600080fd5b50565b60008151905062000178816200014d565b92915050565b60008060408385031215620001985762000197620000d9565b5b6000620001a8858286016200012c565b9250506020620001bb8582860162000167565b9150509250929050565b6080516148fc620001e860003960008181611e1e015261262901526148fc6000f3fe6080604052600436106101855760003560e01c80636d47ab72116100d1578063a85c38ef1161008a578063bf36839911610064578063bf36839914610587578063c29d72bc146105c4578063f851a440146105ef578063ffa8efc91461061a57610194565b8063a85c38ef146104df578063a87430ba1461051f578063b656638b1461055e57610194565b80636d47ab72146103a05780636e04ff0d146103dd578063770aa84d1461041b5780637acc0b2014610446578063816837e31461048b578063947a36fb146104b457610194565b80634585e33b1161013e5780634de91a63116101185780634de91a631461030857806352c9224c14610333578063562df3d51461034a578063664e97041461037557610194565b80634585e33b146102ac57806345a38293146102d55780634d3820eb146102f157610194565b806302ee3a52146101cf57806319d8ac61146101fa5780632a58b33014610225578063315a095d1461025057806333ff7bbd1461027957806342df2b1d1461028357610194565b3661019457610192610643565b005b6040517f08c379a00000000000000000000000000000000000000000000000000000000081526004016101c690612e85565b60405180910390fd5b3480156101db57600080fd5b506101e46108b5565b6040516101f19190613124565b60405180910390f35b34801561020657600080fd5b5061020f610bd0565b60405161021c9190613155565b60405180910390f35b34801561023157600080fd5b5061023a610bd6565b6040516102479190613155565b60405180910390f35b34801561025c57600080fd5b50610277600480360381019061027291906131b0565b610bdc565b005b610281610643565b005b34801561028f57600080fd5b506102aa60048036038101906102a59190613209565b610d7c565b005b3480156102b857600080fd5b506102d360048036038101906102ce919061329b565b610e9c565b005b6102ef60048036038101906102ea9190613521565b610f30565b005b3480156102fd57600080fd5b5061030661193f565b005b34801561031457600080fd5b5061031d611b91565b60405161032a9190613155565b60405180910390f35b34801561033f57600080fd5b50610348611b97565b005b34801561035657600080fd5b5061035f611dc7565b60405161036c9190613155565b60405180910390f35b34801561038157600080fd5b5061038a611dcc565b6040516103979190613155565b60405180910390f35b3480156103ac57600080fd5b506103c760048036038101906103c29190613209565b611dd8565b6040516103d491906135ff565b60405180910390f35b3480156103e957600080fd5b5061040460048036038101906103ff91906136cf565b611e16565b60405161041292919061377c565b60405180910390f35b34801561042757600080fd5b506104306122b5565b60405161043d919061380b565b60405180910390f35b34801561045257600080fd5b5061046d600480360381019061046891906131b0565b6122db565b6040516104829998979695949392919061385f565b60405180910390f35b34801561049757600080fd5b506104b260048036038101906104ad91906131b0565b6124e1565b005b3480156104c057600080fd5b506104c9612627565b6040516104d69190613155565b60405180910390f35b3480156104eb57600080fd5b50610506600480360381019061050191906131b0565b61264b565b6040516105169493929190613901565b60405180910390f35b34801561052b57600080fd5b5061054660048036038101906105419190613209565b61269b565b60405161055593929190613946565b60405180910390f35b34801561056a57600080fd5b5061058560048036038101906105809190613a1e565b6126e5565b005b34801561059357600080fd5b506105ae60048036038101906105a991906131b0565b6129c1565b6040516105bb91906135ff565b60405180910390f35b3480156105d057600080fd5b506105d9612a00565b6040516105e69190613bc3565b60405180910390f35b3480156105fb57600080fd5b50610604612a8e565b60405161061191906135ff565b60405180910390f35b34801561062657600080fd5b50610641600480360381019061063c91906131b0565b612ab2565b005b60003411610686576040517f08c379a000000000000000000000000000000000000000000000000000000000815260040161067d90613c57565b60405180910390fd5b60006106a3670de0b6b3a764000034612c9090919063ffffffff16565b905080600160009054906101000a900473ffffffffffffffffffffffffffffffffffffffff1673ffffffffffffffffffffffffffffffffffffffff166370a08231306040518263ffffffff1660e01b815260040161070191906135ff565b602060405180830381865afa15801561071e573d6000803e3d6000fd5b505050506040513d601f19601f820116820180604052508101906107429190613c8c565b1015610783576040517f08c379a000000000000000000000000000000000000000000000000000000000815260040161077a90613d05565b60405180910390fd5b600160009054906101000a900473ffffffffffffffffffffffffffffffffffffffff1673ffffffffffffffffffffffffffffffffffffffff1663a9059cbb33836040518363ffffffff1660e01b81526004016107e0929190613d25565b6020604051808303816000875af11580156107ff573d6000803e3d6000fd5b505050506040513d601f19601f820116820180604052508101906108239190613d63565b610862576040517f08c379a000000000000000000000000000000000000000000000000000000000815260040161085990613ddc565b60405180910390fd5b3373ffffffffffffffffffffffffffffffffffffffff167f95db8762f4600873df8fdbc44f0e34fa831e5cc7396f3dda3a5cd0825acd5bdb34836040516108aa929190613dfc565b60405180910390a250565b6060600060016008546108c89190613e54565b67ffffffffffffffff8111156108e1576108e06132e8565b5b60405190808252806020026020018201604052801561091a57816020015b610907612cd2565b8152602001906001900390816108ff5790505b5090506000600190505b600854811015610bc85760066000828152602001908152602001600020604051806101200160405290816000820154815260200160018201805461096790613eb7565b80601f016020809104026020016040519081016040528092919081815260200182805461099390613eb7565b80156109e05780601f106109b5576101008083540402835291602001916109e0565b820191906000526020600020905b8154815290600101906020018083116109c357829003601f168201915b505050505081526020016002820180546109f990613eb7565b80601f0160208091040260200160405190810160405280929190818152602001828054610a2590613eb7565b8015610a725780601f10610a4757610100808354040283529160200191610a72565b820191906000526020600020905b815481529060010190602001808311610a5557829003601f168201915b50505050508152602001600382015481526020016004820160009054906101000a900473ffffffffffffffffffffffffffffffffffffffff1673ffffffffffffffffffffffffffffffffffffffff1673ffffffffffffffffffffffffffffffffffffffff168152602001600582015481526020016006820154815260200160078201548152602001600882018054610b0990613eb7565b80601f0160208091040260200160405190810160405280929190818152602001828054610b3590613eb7565b8015610b825780601f10610b5757610100808354040283529160200191610b82565b820191906000526020600020905b815481529060010190602001808311610b6557829003601f168201915b50505050508152505082600183610b999190613e54565b81518110610baa57610ba9613ee8565b5b60200260200101819052508080610bc090613f17565b915050610924565b508091505090565b60025481565b60095481565b60008054906101000a900473ffffffffffffffffffffffffffffffffffffffff1673ffffffffffffffffffffffffffffffffffffffff163373ffffffffffffffffffffffffffffffffffffffff1614610c6a576040517f08c379a0000000000000000000000000000000000000000000000000000000008152600401610c6190613fd1565b60405180910390fd5b600160009054906101000a900473ffffffffffffffffffffffffffffffffffffffff1673ffffffffffffffffffffffffffffffffffffffff1663a9059cbb60008054906101000a900473ffffffffffffffffffffffffffffffffffffffff16836040518363ffffffff1660e01b8152600401610ce7929190613d25565b6020604051808303816000875af1158015610d06573d6000803e3d6000fd5b505050506040513d601f19601f82011682018060405250810190610d2a9190613d63565b503373ffffffffffffffffffffffffffffffffffffffff167f6352c5382c4a4578e712449ca65e83cdb392d045dfcf1cad9615189db2da244b82604051610d719190613155565b60405180910390a250565b60008054906101000a900473ffffffffffffffffffffffffffffffffffffffff1673ffffffffffffffffffffffffffffffffffffffff163373ffffffffffffffffffffffffffffffffffffffff1614610e0a576040517f08c379a0000000000000000000000000000000000000000000000000000000008152600401610e0190613fd1565b60405180910390fd5b80600160006101000a81548173ffffffffffffffffffffffffffffffffffffffff021916908373ffffffffffffffffffffffffffffffffffffffff1602179055503373ffffffffffffffffffffffffffffffffffffffff167f6eca818bb499e114c9a2ead8c104a976418f0ca9c27fd7ead167e9125e613d4582604051610e9191906135ff565b60405180910390a250565b6000610eb660405180602001604052806000815250611e16565b50905080610ef9576040517f08c379a0000000000000000000000000000000000000000000000000000000008152600401610ef09061403d565b60405180910390fd5b60008383810190610f0a9190614120565b90508060039080519060200190610f22929190612d34565b504260028190555050505050565b8351855114610f74576040517f08c379a0000000000000000000000000000000000000000000000000000000008152600401610f6b906141db565b60405180910390fd5b60006064600584610f8591906141fb565b610f8f919061426c565b905060008284610f9f9190613e54565b905080341015610fe4576040517f08c379a0000000000000000000000000000000000000000000000000000000008152600401610fdb906142e9565b60405180910390fd5b3073ffffffffffffffffffffffffffffffffffffffff166108fc839081150290604051600060405180830381858888f1935050505015801561102a573d6000803e3d6000fd5b5060005b8751811015611935576000600660008a84815181106110505761104f613ee8565b5b60200260200101518152602001908152602001600020604051806101200160405290816000820154815260200160018201805461108c90613eb7565b80601f01602080910402602001604051908101604052809291908181526020018280546110b890613eb7565b80156111055780601f106110da57610100808354040283529160200191611105565b820191906000526020600020905b8154815290600101906020018083116110e857829003601f168201915b5050505050815260200160028201805461111e90613eb7565b80601f016020809104026020016040519081016040528092919081815260200182805461114a90613eb7565b80156111975780601f1061116c57610100808354040283529160200191611197565b820191906000526020600020905b81548152906001019060200180831161117a57829003601f168201915b50505050508152602001600382015481526020016004820160009054906101000a900473ffffffffffffffffffffffffffffffffffffffff1673ffffffffffffffffffffffffffffffffffffffff1673ffffffffffffffffffffffffffffffffffffffff16815260200160058201548152602001600682015481526020016007820154815260200160088201805461122e90613eb7565b80601f016020809104026020016040519081016040528092919081815260200182805461125a90613eb7565b80156112a75780601f1061127c576101008083540402835291602001916112a7565b820191906000526020600020905b81548152906001019060200180831161128a57829003601f168201915b505050505081525050905060008883815181106112c7576112c6613ee8565b5b60200260200101518260a001516112de91906141fb565b90506000600a826112ef919061426c565b905061134681600460003373ffffffffffffffffffffffffffffffffffffffff1673ffffffffffffffffffffffffffffffffffffffff16815260200190815260200160002060020154612ca690919063ffffffff16565b600460003373ffffffffffffffffffffffffffffffffffffffff1673ffffffffffffffffffffffffffffffffffffffff168152602001908152602001600020600201819055503373ffffffffffffffffffffffffffffffffffffffff167f2c4c0dc427a50c4a69d2fc184c47a311acf950d8d2f289fbaee64e83e9b28967826040516113d29190613155565b60405180910390a28884815181106113ed576113ec613ee8565b5b60200260200101511561157b57826080015173ffffffffffffffffffffffffffffffffffffffff166108fc606460058561142791906141fb565b611431919061426c565b8461143c9190613e54565b9081150290604051600060405180830381858888f19350505050158015611467573d6000803e3d6000fd5b50600160009054906101000a900473ffffffffffffffffffffffffffffffffffffffff1673ffffffffffffffffffffffffffffffffffffffff166323b872dd8460800151338d88815181106114bf576114be613ee8565b5b60200260200101518760c001516114d691906141fb565b6040518463ffffffff1660e01b81526004016114f493929190614309565b6020604051808303816000875af1158015611513573d6000803e3d6000fd5b505050506040513d601f19601f820116820180604052508101906115379190613d63565b611576576040517f08c379a000000000000000000000000000000000000000000000000000000000815260040161156d9061438c565b60405180910390fd5b61172c565b826080015173ffffffffffffffffffffffffffffffffffffffff166108fc60646005856115a891906141fb565b6115b2919061426c565b8c87815181106115c5576115c4613ee8565b5b60200260200101518660e001516115dc91906141fb565b856115e79190613e54565b6115f19190613e54565b9081150290604051600060405180830381858888f1935050505015801561161c573d6000803e3d6000fd5b50600160009054906101000a900473ffffffffffffffffffffffffffffffffffffffff1673ffffffffffffffffffffffffffffffffffffffff166323b872dd3385608001518d888151811061167457611673613ee8565b5b60200260200101518760e0015161168b91906141fb565b6040518463ffffffff1660e01b81526004016116a993929190614309565b6020604051808303816000875af11580156116c8573d6000803e3d6000fd5b505050506040513d601f19601f820116820180604052508101906116ec9190613d63565b61172b576040517f08c379a0000000000000000000000000000000000000000000000000000000008152600401611722906143f8565b60405180910390fd5b5b604051806080016040528060095481526020013373ffffffffffffffffffffffffffffffffffffffff1681526020018c868151811061176e5761176d613ee8565b5b602002602001015181526020018b868151811061178e5761178d613ee8565b5b60200260200101518152506007600060095481526020019081526020016000206000820151816000015560208201518160010160006101000a81548173ffffffffffffffffffffffffffffffffffffffff021916908373ffffffffffffffffffffffffffffffffffffffff1602179055506040820151816002015560608201518160030155905050600460003373ffffffffffffffffffffffffffffffffffffffff1673ffffffffffffffffffffffffffffffffffffffff16815260200190815260200160002060030160095490806001815401808255809150506001900390600052602060002001600090919091909150558a848151811061189457611893613ee8565b5b60200260200101513373ffffffffffffffffffffffffffffffffffffffff166009547f7d3c39a6cce20f6949eff0833a4d54fca734dc7c6027773d8885e7faeac98a958d88815181106118ea576118e9613ee8565b5b60200260200101516040516118ff9190613155565b60405180910390a46009600081548092919061191a90613f17565b9190505550505050808061192d90613f17565b91505061102e565b5050505050505050565b600073ffffffffffffffffffffffffffffffffffffffff16600460003373ffffffffffffffffffffffffffffffffffffffff1673ffffffffffffffffffffffffffffffffffffffff16815260200190815260200160002060000160009054906101000a900473ffffffffffffffffffffffffffffffffffffffff1673ffffffffffffffffffffffffffffffffffffffff1614611a10576040517f08c379a0000000000000000000000000000000000000000000000000000000008152600401611a0790614464565b60405180910390fd5b60405180608001604052803373ffffffffffffffffffffffffffffffffffffffff1681526020016000815260200160008152602001600067ffffffffffffffff811115611a6057611a5f6132e8565b5b604051908082528060200260200182016040528015611a8e5781602001602082028036833780820191505090505b50815250600460003373ffffffffffffffffffffffffffffffffffffffff1673ffffffffffffffffffffffffffffffffffffffff16815260200190815260200160002060008201518160000160006101000a81548173ffffffffffffffffffffffffffffffffffffffff021916908373ffffffffffffffffffffffffffffffffffffffff16021790555060208201518160010155604082015181600201556060820151816003019080519060200190611b48929190612dbe565b509050503373ffffffffffffffffffffffffffffffffffffffff167f54db7a5cb4735e1aac1f53db512d3390390bb6637bd30ad4bf9fc98667d9b9b960405160405180910390a2565b60085481565b600073ffffffffffffffffffffffffffffffffffffffff16600560003373ffffffffffffffffffffffffffffffffffffffff1673ffffffffffffffffffffffffffffffffffffffff16815260200190815260200160002060000160009054906101000a900473ffffffffffffffffffffffffffffffffffffffff1673ffffffffffffffffffffffffffffffffffffffff1614611c68576040517f08c379a0000000000000000000000000000000000000000000000000000000008152600401611c5f906144d0565b60405180910390fd5b60405180604001604052803373ffffffffffffffffffffffffffffffffffffffff168152602001600067ffffffffffffffff811115611caa57611ca96132e8565b5b604051908082528060200260200182016040528015611cd85781602001602082028036833780820191505090505b50815250600560003373ffffffffffffffffffffffffffffffffffffffff1673ffffffffffffffffffffffffffffffffffffffff16815260200190815260200160002060008201518160000160006101000a81548173ffffffffffffffffffffffffffffffffffffffff021916908373ffffffffffffffffffffffffffffffffffffffff1602179055506020820151816001019080519060200190611d7e929190612dbe565b509050503373ffffffffffffffffffffffffffffffffffffffff167f4d97d287a8f631378031b05cb24c876085261ddaa7b8f584477370ef473fbb3d60405160405180910390a2565b600581565b670de0b6b3a764000081565b60056020528060005260406000206000915090508060000160009054906101000a900473ffffffffffffffffffffffffffffffffffffffff16905081565b6000606060007f000000000000000000000000000000000000000000000000000000000000000060025442611e4b9190613e54565b1190506000606467ffffffffffffffff811115611e6b57611e6a6132e8565b5b604051908082528060200260200182016040528015611e995781602001602082028036833780820191505090505b5090506000606467ffffffffffffffff811115611eb957611eb86132e8565b5b604051908082528060200260200182016040528015611ee75781602001602082028036833780820191505090505b5090506000806064600954611efc9190613e54565b11611f08576000611f18565b6064600954611f179190613e54565b5b905060008190505b600954811015612071576007600082815260200190815260200160002060010160009054906101000a900473ffffffffffffffffffffffffffffffffffffffff1684600183611f6f9190613e54565b81518110611f8057611f7f613ee8565b5b602002602001019073ffffffffffffffffffffffffffffffffffffffff16908173ffffffffffffffffffffffffffffffffffffffff1681525050600460006007600084815260200190815260200160002060010160009054906101000a900473ffffffffffffffffffffffffffffffffffffffff1673ffffffffffffffffffffffffffffffffffffffff1673ffffffffffffffffffffffffffffffffffffffff16815260200190815260200160002060020154836001836120419190613e54565b8151811061205257612051613ee8565b5b602002602001018181525050808061206990613f17565b915050611f20565b5060005b82518110156122865760005b6001845161208f9190613e54565b81101561227257836001826120a491906144f0565b815181106120b5576120b4613ee8565b5b60200260200101518482815181106120d0576120cf613ee8565b5b6020026020010151101561225f5760008482815181106120f3576120f2613ee8565b5b602002602001015190508460018361210b91906144f0565b8151811061211c5761211b613ee8565b5b602002602001015185838151811061213757612136613ee8565b5b602002602001018181525050808560018461215291906144f0565b8151811061216357612162613ee8565b5b602002602001018181525050600086838151811061218457612183613ee8565b5b602002602001015190508660018461219c91906144f0565b815181106121ad576121ac613ee8565b5b60200260200101518784815181106121c8576121c7613ee8565b5b602002602001019073ffffffffffffffffffffffffffffffffffffffff16908173ffffffffffffffffffffffffffffffffffffffff1681525050808760018561221191906144f0565b8151811061222257612221613ee8565b5b602002602001019073ffffffffffffffffffffffffffffffffffffffff16908173ffffffffffffffffffffffffffffffffffffffff168152505050505b808061226a90613f17565b915050612081565b50808061227e90613f17565b915050612075565b508395508260405160200161229b9190613bc3565b604051602081830303815290604052945050505050915091565b600160009054906101000a900473ffffffffffffffffffffffffffffffffffffffff1681565b600660205280600052604060002060009150905080600001549080600101805461230490613eb7565b80601f016020809104026020016040519081016040528092919081815260200182805461233090613eb7565b801561237d5780601f106123525761010080835404028352916020019161237d565b820191906000526020600020905b81548152906001019060200180831161236057829003601f168201915b50505050509080600201805461239290613eb7565b80601f01602080910402602001604051908101604052809291908181526020018280546123be90613eb7565b801561240b5780601f106123e05761010080835404028352916020019161240b565b820191906000526020600020905b8154815290600101906020018083116123ee57829003601f168201915b5050505050908060030154908060040160009054906101000a900473ffffffffffffffffffffffffffffffffffffffff169080600501549080600601549080600701549080600801805461245e90613eb7565b80601f016020809104026020016040519081016040528092919081815260200182805461248a90613eb7565b80156124d75780601f106124ac576101008083540402835291602001916124d7565b820191906000526020600020905b8154815290600101906020018083116124ba57829003601f168201915b5050505050905089565b60008054906101000a900473ffffffffffffffffffffffffffffffffffffffff1673ffffffffffffffffffffffffffffffffffffffff163373ffffffffffffffffffffffffffffffffffffffff161461256f576040517f08c379a000000000000000000000000000000000000000000000000000000000815260040161256690613fd1565b60405180910390fd5b60008054906101000a900473ffffffffffffffffffffffffffffffffffffffff1673ffffffffffffffffffffffffffffffffffffffff166108fc829081150290604051600060405180830381858888f193505050501580156125d5573d6000803e3d6000fd5b503373ffffffffffffffffffffffffffffffffffffffff167f6efac6899ee41c0fab9566f807fee81972320248574ef8adeac6599ea7eae2468260405161261c9190613155565b60405180910390a250565b7f000000000000000000000000000000000000000000000000000000000000000081565b60076020528060005260406000206000915090508060000154908060010160009054906101000a900473ffffffffffffffffffffffffffffffffffffffff16908060020154908060030154905084565b60046020528060005260406000206000915090508060000160009054906101000a900473ffffffffffffffffffffffffffffffffffffffff16908060010154908060020154905083565b600073ffffffffffffffffffffffffffffffffffffffff16600560003373ffffffffffffffffffffffffffffffffffffffff1673ffffffffffffffffffffffffffffffffffffffff16815260200190815260200160002060000160009054906101000a900473ffffffffffffffffffffffffffffffffffffffff1673ffffffffffffffffffffffffffffffffffffffff16036127b6576040517f08c379a00000000000000000000000000000000000000000000000000000000081526004016127ad90614596565b60405180910390fd5b60405180610120016040528060085481526020018881526020018781526020018681526020013373ffffffffffffffffffffffffffffffffffffffff168152602001858152602001848152602001838152602001828152506006600060085481526020019081526020016000206000820151816000015560208201518160010190816128429190614758565b5060408201518160020190816128589190614758565b506060820151816003015560808201518160040160006101000a81548173ffffffffffffffffffffffffffffffffffffffff021916908373ffffffffffffffffffffffffffffffffffffffff16021790555060a0820151816005015560c0820151816006015560e082015181600701556101008201518160080190816128de9190614758565b50905050600560003373ffffffffffffffffffffffffffffffffffffffff1673ffffffffffffffffffffffffffffffffffffffff16815260200190815260200160002060010160085490806001815401808255809150506001900390600052602060002001600090919091909150553373ffffffffffffffffffffffffffffffffffffffff166008547fef311eec1d40202fee1909ab585df5e024df1930dc6bba97722d1e60e91c01f7898760405161299892919061482a565b60405180910390a3600860008154809291906129b390613f17565b919050555050505050505050565b600381815481106129d157600080fd5b906000526020600020016000915054906101000a900473ffffffffffffffffffffffffffffffffffffffff1681565b60606003805480602002602001604051908101604052809291908181526020018280548015612a8457602002820191906000526020600020905b8160009054906101000a900473ffffffffffffffffffffffffffffffffffffffff1673ffffffffffffffffffffffffffffffffffffffff1681526020019060010190808311612a3a575b5050505050905090565b60008054906101000a900473ffffffffffffffffffffffffffffffffffffffff1681565b60008111612af5576040517f08c379a0000000000000000000000000000000000000000000000000000000008152600401612aec906148a6565b60405180910390fd5b6000612b12670de0b6b3a764000083612cbc90919063ffffffff16565b9050600160009054906101000a900473ffffffffffffffffffffffffffffffffffffffff1673ffffffffffffffffffffffffffffffffffffffff166323b872dd3330856040518463ffffffff1660e01b8152600401612b7393929190614309565b6020604051808303816000875af1158015612b92573d6000803e3d6000fd5b505050506040513d601f19601f82011682018060405250810190612bb69190613d63565b612bf5576040517f08c379a0000000000000000000000000000000000000000000000000000000008152600401612bec90613ddc565b60405180910390fd5b3373ffffffffffffffffffffffffffffffffffffffff166108fc829081150290604051600060405180830381858888f19350505050158015612c3b573d6000803e3d6000fd5b503373ffffffffffffffffffffffffffffffffffffffff167fae8bcd366b92d4b55d90c0ccbfd8a50a60bae24f201c5899a989e99a3d877b938383604051612c84929190613dfc565b60405180910390a25050565b60008183612c9e919061426c565b905092915050565b60008183612cb491906144f0565b905092915050565b60008183612cca91906141fb565b905092915050565b60405180610120016040528060008152602001606081526020016060815260200160008152602001600073ffffffffffffffffffffffffffffffffffffffff168152602001600081526020016000815260200160008152602001606081525090565b828054828255906000526020600020908101928215612dad579160200282015b82811115612dac5782518260006101000a81548173ffffffffffffffffffffffffffffffffffffffff021916908373ffffffffffffffffffffffffffffffffffffffff16021790555091602001919060010190612d54565b5b509050612dba9190612e0b565b5090565b828054828255906000526020600020908101928215612dfa579160200282015b82811115612df9578251825591602001919060010190612dde565b5b509050612e079190612e0b565b5090565b5b80821115612e24576000816000905550600101612e0c565b5090565b600082825260208201905092915050565b7f4f7065726174696f6e206e6f7420737570706f72746564000000000000000000600082015250565b6000612e6f601783612e28565b9150612e7a82612e39565b602082019050919050565b60006020820190508181036000830152612e9e81612e62565b9050919050565b600081519050919050565b600082825260208201905092915050565b6000819050602082019050919050565b6000819050919050565b612ee481612ed1565b82525050565b600081519050919050565b600082825260208201905092915050565b60005b83811015612f24578082015181840152602081019050612f09565b60008484015250505050565b6000601f19601f8301169050919050565b6000612f4c82612eea565b612f568185612ef5565b9350612f66818560208601612f06565b612f6f81612f30565b840191505092915050565b600073ffffffffffffffffffffffffffffffffffffffff82169050919050565b6000612fa582612f7a565b9050919050565b612fb581612f9a565b82525050565b600061012083016000830151612fd46000860182612edb565b5060208301518482036020860152612fec8282612f41565b915050604083015184820360408601526130068282612f41565b915050606083015161301b6060860182612edb565b50608083015161302e6080860182612fac565b5060a083015161304160a0860182612edb565b5060c083015161305460c0860182612edb565b5060e083015161306760e0860182612edb565b506101008301518482036101008601526130818282612f41565b9150508091505092915050565b600061309a8383612fbb565b905092915050565b6000602082019050919050565b60006130ba82612ea5565b6130c48185612eb0565b9350836020820285016130d685612ec1565b8060005b8581101561311257848403895281516130f3858261308e565b94506130fe836130a2565b925060208a019950506001810190506130da565b50829750879550505050505092915050565b6000602082019050818103600083015261313e81846130af565b905092915050565b61314f81612ed1565b82525050565b600060208201905061316a6000830184613146565b92915050565b6000604051905090565b600080fd5b600080fd5b61318d81612ed1565b811461319857600080fd5b50565b6000813590506131aa81613184565b92915050565b6000602082840312156131c6576131c561317a565b5b60006131d48482850161319b565b91505092915050565b6131e681612f9a565b81146131f157600080fd5b50565b600081359050613203816131dd565b92915050565b60006020828403121561321f5761321e61317a565b5b600061322d848285016131f4565b91505092915050565b600080fd5b600080fd5b600080fd5b60008083601f84011261325b5761325a613236565b5b8235905067ffffffffffffffff8111156132785761327761323b565b5b60208301915083600182028301111561329457613293613240565b5b9250929050565b600080602083850312156132b2576132b161317a565b5b600083013567ffffffffffffffff8111156132d0576132cf61317f565b5b6132dc85828601613245565b92509250509250929050565b7f4e487b7100000000000000000000000000000000000000000000000000000000600052604160045260246000fd5b61332082612f30565b810181811067ffffffffffffffff8211171561333f5761333e6132e8565b5b80604052505050565b6000613352613170565b905061335e8282613317565b919050565b600067ffffffffffffffff82111561337e5761337d6132e8565b5b602082029050602081019050919050565b60006133a261339d84613363565b613348565b905080838252602082019050602084028301858111156133c5576133c4613240565b5b835b818110156133ee57806133da888261319b565b8452602084019350506020810190506133c7565b5050509392505050565b600082601f83011261340d5761340c613236565b5b813561341d84826020860161338f565b91505092915050565b600067ffffffffffffffff821115613441576134406132e8565b5b602082029050602081019050919050565b60008115159050919050565b61346781613452565b811461347257600080fd5b50565b6000813590506134848161345e565b92915050565b600061349d61349884613426565b613348565b905080838252602082019050602084028301858111156134c0576134bf613240565b5b835b818110156134e957806134d58882613475565b8452602084019350506020810190506134c2565b5050509392505050565b600082601f83011261350857613507613236565b5b813561351884826020860161348a565b91505092915050565b600080600080600060a0868803121561353d5761353c61317a565b5b600086013567ffffffffffffffff81111561355b5761355a61317f565b5b613567888289016133f8565b955050602086013567ffffffffffffffff8111156135885761358761317f565b5b613594888289016133f8565b945050604086013567ffffffffffffffff8111156135b5576135b461317f565b5b6135c1888289016134f3565b93505060606135d28882890161319b565b92505060806135e38882890161319b565b9150509295509295909350565b6135f981612f9a565b82525050565b600060208201905061361460008301846135f0565b92915050565b600080fd5b600067ffffffffffffffff82111561363a576136396132e8565b5b61364382612f30565b9050602081019050919050565b82818337600083830152505050565b600061367261366d8461361f565b613348565b90508281526020810184848401111561368e5761368d61361a565b5b613699848285613650565b509392505050565b600082601f8301126136b6576136b5613236565b5b81356136c684826020860161365f565b91505092915050565b6000602082840312156136e5576136e461317a565b5b600082013567ffffffffffffffff8111156137035761370261317f565b5b61370f848285016136a1565b91505092915050565b61372181613452565b82525050565b600081519050919050565b600082825260208201905092915050565b600061374e82613727565b6137588185613732565b9350613768818560208601612f06565b61377181612f30565b840191505092915050565b60006040820190506137916000830185613718565b81810360208301526137a38184613743565b90509392505050565b6000819050919050565b60006137d16137cc6137c784612f7a565b6137ac565b612f7a565b9050919050565b60006137e3826137b6565b9050919050565b60006137f5826137d8565b9050919050565b613805816137ea565b82525050565b600060208201905061382060008301846137fc565b92915050565b600061383182612eea565b61383b8185612e28565b935061384b818560208601612f06565b61385481612f30565b840191505092915050565b600061012082019050613875600083018c613146565b8181036020830152613887818b613826565b9050818103604083015261389b818a613826565b90506138aa6060830189613146565b6138b760808301886135f0565b6138c460a0830187613146565b6138d160c0830186613146565b6138de60e0830185613146565b8181036101008301526138f18184613826565b90509a9950505050505050505050565b60006080820190506139166000830187613146565b61392360208301866135f0565b6139306040830185613146565b61393d6060830184613146565b95945050505050565b600060608201905061395b60008301866135f0565b6139686020830185613146565b6139756040830184613146565b949350505050565b600067ffffffffffffffff821115613998576139976132e8565b5b6139a182612f30565b9050602081019050919050565b60006139c16139bc8461397d565b613348565b9050828152602081018484840111156139dd576139dc61361a565b5b6139e8848285613650565b509392505050565b600082601f830112613a0557613a04613236565b5b8135613a158482602086016139ae565b91505092915050565b600080600080600080600060e0888a031215613a3d57613a3c61317a565b5b600088013567ffffffffffffffff811115613a5b57613a5a61317f565b5b613a678a828b016139f0565b975050602088013567ffffffffffffffff811115613a8857613a8761317f565b5b613a948a828b016139f0565b9650506040613aa58a828b0161319b565b9550506060613ab68a828b0161319b565b9450506080613ac78a828b0161319b565b93505060a0613ad88a828b0161319b565b92505060c088013567ffffffffffffffff811115613af957613af861317f565b5b613b058a828b016139f0565b91505092959891949750929550565b600081519050919050565b600082825260208201905092915050565b6000819050602082019050919050565b6000613b4c8383612fac565b60208301905092915050565b6000602082019050919050565b6000613b7082613b14565b613b7a8185613b1f565b9350613b8583613b30565b8060005b83811015613bb6578151613b9d8882613b40565b9750613ba883613b58565b925050600181019050613b89565b5085935050505092915050565b60006020820190508181036000830152613bdd8184613b65565b905092915050565b7f4d4154494320616d6f756e742073686f756c642062652067726561746572207460008201527f68616e2030000000000000000000000000000000000000000000000000000000602082015250565b6000613c41602583612e28565b9150613c4c82613be5565b604082019050919050565b60006020820190508181036000830152613c7081613c34565b9050919050565b600081519050613c8681613184565b92915050565b600060208284031215613ca257613ca161317a565b5b6000613cb084828501613c77565b91505092915050565b7f4e6f7420656e6f756768204c525420696e20636f6e7472616374000000000000600082015250565b6000613cef601a83612e28565b9150613cfa82613cb9565b602082019050919050565b60006020820190508181036000830152613d1e81613ce2565b9050919050565b6000604082019050613d3a60008301856135f0565b613d476020830184613146565b9392505050565b600081519050613d5d8161345e565b92915050565b600060208284031215613d7957613d7861317a565b5b6000613d8784828501613d4e565b91505092915050565b7f4c5254207472616e73666572206661696c656400000000000000000000000000600082015250565b6000613dc6601383612e28565b9150613dd182613d90565b602082019050919050565b60006020820190508181036000830152613df581613db9565b9050919050565b6000604082019050613e116000830185613146565b613e1e6020830184613146565b9392505050565b7f4e487b7100000000000000000000000000000000000000000000000000000000600052601160045260246000fd5b6000613e5f82612ed1565b9150613e6a83612ed1565b9250828203905081811115613e8257613e81613e25565b5b92915050565b7f4e487b7100000000000000000000000000000000000000000000000000000000600052602260045260246000fd5b60006002820490506001821680613ecf57607f821691505b602082108103613ee257613ee1613e88565b5b50919050565b7f4e487b7100000000000000000000000000000000000000000000000000000000600052603260045260246000fd5b6000613f2282612ed1565b91507fffffffffffffffffffffffffffffffffffffffffffffffffffffffffffffffff8203613f5457613f53613e25565b5b600182019050919050565b7f4f6e6c792061646d696e2063616e2063616c6c20746869732066756e6374696f60008201527f6e00000000000000000000000000000000000000000000000000000000000000602082015250565b6000613fbb602183612e28565b9150613fc682613f5f565b604082019050919050565b60006020820190508181036000830152613fea81613fae565b9050919050565b7f55706b656570206e6f74206e6565646564000000000000000000000000000000600082015250565b6000614027601183612e28565b915061403282613ff1565b602082019050919050565b600060208201905081810360008301526140568161401a565b9050919050565b600067ffffffffffffffff821115614078576140776132e8565b5b602082029050602081019050919050565b600061409c6140978461405d565b613348565b905080838252602082019050602084028301858111156140bf576140be613240565b5b835b818110156140e857806140d488826131f4565b8452602084019350506020810190506140c1565b5050509392505050565b600082601f83011261410757614106613236565b5b8135614117848260208601614089565b91505092915050565b6000602082840312156141365761413561317a565b5b600082013567ffffffffffffffff8111156141545761415361317f565b5b614160848285016140f2565b91505092915050565b7f4d69736d6174636820696e2070726f647563742049447320616e64207175616e60008201527f746974696573206c656e67746800000000000000000000000000000000000000602082015250565b60006141c5602d83612e28565b91506141d082614169565b604082019050919050565b600060208201905081810360008301526141f4816141b8565b9050919050565b600061420682612ed1565b915061421183612ed1565b925082820261421f81612ed1565b9150828204841483151761423657614235613e25565b5b5092915050565b7f4e487b7100000000000000000000000000000000000000000000000000000000600052601260045260246000fd5b600061427782612ed1565b915061428283612ed1565b9250826142925761429161423d565b5b828204905092915050565b7f496e636f7272656374204d415449432073656e74000000000000000000000000600082015250565b60006142d3601483612e28565b91506142de8261429d565b602082019050919050565b60006020820190508181036000830152614302816142c6565b9050919050565b600060608201905061431e60008301866135f0565b61432b60208301856135f0565b6143386040830184613146565b949350505050565b7f52657761726420506f696e7473207472616e73666572206661696c6564000000600082015250565b6000614376601d83612e28565b915061438182614340565b602082019050919050565b600060208201905081810360008301526143a581614369565b9050919050565b7f4c6f79616c747920546f6b656e207472616e73666572206661696c6564000000600082015250565b60006143e2601d83612e28565b91506143ed826143ac565b602082019050919050565b60006020820190508181036000830152614411816143d5565b9050919050565b7f5573657220616c72656164792072656769737465726564000000000000000000600082015250565b600061444e601783612e28565b915061445982614418565b602082019050919050565b6000602082019050818103600083015261447d81614441565b9050919050565b7f53656c6c657220616c7265616479207265676973746572656400000000000000600082015250565b60006144ba601983612e28565b91506144c582614484565b602082019050919050565b600060208201905081810360008301526144e9816144ad565b9050919050565b60006144fb82612ed1565b915061450683612ed1565b925082820190508082111561451e5761451d613e25565b5b92915050565b7f4f6e6c792073656c6c6572732063616e2063616c6c20746869732066756e637460008201527f696f6e0000000000000000000000000000000000000000000000000000000000602082015250565b6000614580602383612e28565b915061458b82614524565b604082019050919050565b600060208201905081810360008301526145af81614573565b9050919050565b60008190508160005260206000209050919050565b60006020601f8301049050919050565b600082821b905092915050565b6000600883026146187fffffffffffffffffffffffffffffffffffffffffffffffffffffffffffffffff826145db565b61462286836145db565b95508019841693508086168417925050509392505050565b600061465561465061464b84612ed1565b6137ac565b612ed1565b9050919050565b6000819050919050565b61466f8361463a565b61468361467b8261465c565b8484546145e8565b825550505050565b600090565b61469861468b565b6146a3818484614666565b505050565b5b818110156146c7576146bc600082614690565b6001810190506146a9565b5050565b601f82111561470c576146dd816145b6565b6146e6846145cb565b810160208510156146f5578190505b614709614701856145cb565b8301826146a8565b50505b505050565b600082821c905092915050565b600061472f60001984600802614711565b1980831691505092915050565b6000614748838361471e565b9150826002028217905092915050565b61476182612eea565b67ffffffffffffffff81111561477a576147796132e8565b5b6147848254613eb7565b61478f8282856146cb565b600060209050601f8311600181146147c257600084156147b0578287015190505b6147ba858261473c565b865550614822565b601f1984166147d0866145b6565b60005b828110156147f8578489015182556001820191506020850194506020810190506147d3565b868310156148155784890151614811601f89168261471e565b8355505b6001600288020188555050505b505050505050565b600060408201905081810360008301526148448185613826565b90506148536020830184613146565b9392505050565b7f416d6f756e742073686f756c642062652067726561746572207468616e203000600082015250565b6000614890601f83612e28565b915061489b8261485a565b602082019050919050565b600060208201905081810360008301526148bf81614883565b905091905056fea2646970667358221220f28a4adbecf5557a49839a8b37fcdad8ab8686b04d2932b4a7de2b8dc30d51b464736f6c63430008130033",
  "linkReferences": {},
  "deployedLinkReferences": {}
}