{"contracts/Loyalty.sol":{"ECommerceLoyalty":{"abi":[{"inputs":[{"internalType":"address","name":"_loyaltyTokenAddress","type":"address"}],"stateMutability":"nonpayable","type":"constructor"},{"anonymous":false,"inputs":[{"indexed":true,"internalType":"address","name":"sellerAddress","type":"address"},{"indexed":false,"internalType":"uint256","name":"lrtAmount","type":"uint256"},{"indexed":false,"internalType":"uint256","name":"maticAmount","type":"uint256"}],"name":"LRTExchangedForMATIC","type":"event"},{"anonymous":false,"inputs":[{"indexed":true,"internalType":"address","name":"admin","type":"address"},{"indexed":false,"internalType":"address","name":"newLRTTokenAddress","type":"address"}],"name":"LRTTokenAddressUpdated","type":"event"},{"anonymous":false,"inputs":[{"indexed":true,"internalType":"address","name":"sellerAddress","type":"address"},{"indexed":false,"internalType":"uint256","name":"maticAmount","type":"uint256"},{"indexed":false,"internalType":"uint256","name":"lrtAmount","type":"uint256"}],"name":"MATICExchangedForLRT","type":"event"},{"anonymous":false,"inputs":[{"indexed":true,"internalType":"address","name":"admin","type":"address"},{"indexed":false,"internalType":"uint256","name":"amount","type":"uint256"}],"name":"MATICWithdrawn","type":"event"},{"anonymous":false,"inputs":[{"indexed":true,"internalType":"uint256","name":"productId","type":"uint256"},{"indexed":true,"internalType":"address","name":"sellerAddress","type":"address"},{"indexed":false,"internalType":"string","name":"name","type":"string"},{"indexed":false,"internalType":"uint256","name":"price","type":"uint256"}],"name":"ProductAdded","type":"event"},{"anonymous":false,"inputs":[{"indexed":true,"internalType":"uint256","name":"orderId","type":"uint256"},{"indexed":true,"internalType":"address","name":"buyerAddress","type":"address"},{"indexed":true,"internalType":"uint256","name":"productId","type":"uint256"},{"indexed":false,"internalType":"uint256","name":"quantity","type":"uint256"}],"name":"ProductPurchased","type":"event"},{"anonymous":false,"inputs":[{"indexed":true,"internalType":"address","name":"sellerAddress","type":"address"}],"name":"SellerRegistered","type":"event"},{"anonymous":false,"inputs":[{"indexed":true,"internalType":"address","name":"admin","type":"address"},{"indexed":false,"internalType":"uint256","name":"amount","type":"uint256"}],"name":"TokensWithdrawn","type":"event"},{"stateMutability":"payable","type":"fallback"},{"inputs":[],"name":"COMMISSION","outputs":[{"internalType":"uint256","name":"","type":"uint256"}],"stateMutability":"view","type":"function"},{"inputs":[],"name":"RATE","outputs":[{"internalType":"uint256","name":"","type":"uint256"}],"stateMutability":"view","type":"function"},{"inputs":[{"internalType":"string","name":"name","type":"string"},{"internalType":"string","name":"_description","type":"string"},{"internalType":"uint256","name":"_quantity","type":"uint256"},{"internalType":"uint256","name":"_price","type":"uint256"},{"internalType":"uint256","name":"_rewardPoints","type":"uint256"},{"internalType":"uint256","name":"loyaltyTokensAccepted","type":"uint256"},{"internalType":"string","name":"_imageURI","type":"string"}],"name":"addProduct","outputs":[],"stateMutability":"nonpayable","type":"function"},{"inputs":[],"name":"admin","outputs":[{"internalType":"address","name":"","type":"address"}],"stateMutability":"view","type":"function"},{"inputs":[{"internalType":"uint256","name":"lrtAmount","type":"uint256"}],"name":"exchangeLRTForMATIC","outputs":[],"stateMutability":"nonpayable","type":"function"},{"inputs":[],"name":"exchangeMATICForLRT","outputs":[],"stateMutability":"payable","type":"function"},{"inputs":[],"name":"getAllProducts","outputs":[{"components":[{"internalType":"uint256","name":"productId","type":"uint256"},{"internalType":"string","name":"name","type":"string"},{"internalType":"string","name":"description","type":"string"},{"internalType":"uint256","name":"quantity","type":"uint256"},{"internalType":"address","name":"sellerAddress","type":"address"},{"internalType":"uint256","name":"price","type":"uint256"},{"internalType":"uint256","name":"rewardPoints","type":"uint256"},{"internalType":"uint256","name":"loyaltyTokensAccepted","type":"uint256"},{"internalType":"string","name":"imageURI","type":"string"}],"internalType":"struct ECommerceLoyalty.Product[]","name":"","type":"tuple[]"}],"stateMutability":"view","type":"function"},{"inputs":[],"name":"loyaltyToken","outputs":[{"internalType":"contract IERC20","name":"","type":"address"}],"stateMutability":"view","type":"function"},{"inputs":[],"name":"nextOrderId","outputs":[{"internalType":"uint256","name":"","type":"uint256"}],"stateMutability":"view","type":"function"},{"inputs":[],"name":"nextProductId","outputs":[{"internalType":"uint256","name":"","type":"uint256"}],"stateMutability":"view","type":"function"},{"inputs":[{"internalType":"uint256","name":"","type":"uint256"}],"name":"orders","outputs":[{"internalType":"uint256","name":"orderId","type":"uint256"},{"internalType":"address","name":"buyerAddress","type":"address"},{"internalType":"uint256","name":"productId","type":"uint256"},{"internalType":"uint256","name":"quantity","type":"uint256"}],"stateMutability":"view","type":"function"},{"inputs":[{"internalType":"uint256","name":"","type":"uint256"}],"name":"products","outputs":[{"internalType":"uint256","name":"productId","type":"uint256"},{"internalType":"string","name":"name","type":"string"},{"internalType":"string","name":"description","type":"string"},{"internalType":"uint256","name":"quantity","type":"uint256"},{"internalType":"address","name":"sellerAddress","type":"address"},{"internalType":"uint256","name":"price","type":"uint256"},{"internalType":"uint256","name":"rewardPoints","type":"uint256"},{"internalType":"uint256","name":"loyaltyTokensAccepted","type":"uint256"},{"internalType":"string","name":"imageURI","type":"string"}],"stateMutability":"view","type":"function"},{"inputs":[{"internalType":"uint256[]","name":"_productIds","type":"uint256[]"},{"internalType":"uint256[]","name":"_quantities","type":"uint256[]"},{"internalType":"bool[]","name":"_fullPaymentInMatic","type":"bool[]"},{"internalType":"uint256","name":"totalCost","type":"uint256"},{"internalType":"uint256","name":"totalRewardPoints","type":"uint256"},{"internalType":"uint256","name":"totalLoyaltyTokensUsed","type":"uint256"}],"name":"purchaseProducts","outputs":[],"stateMutability":"payable","type":"function"},{"inputs":[],"name":"registerSeller","outputs":[],"stateMutability":"nonpayable","type":"function"},{"inputs":[{"internalType":"address","name":"","type":"address"}],"name":"sellers","outputs":[{"internalType":"address","name":"sellerAddress","type":"address"}],"stateMutability":"view","type":"function"},{"inputs":[{"internalType":"address","name":"_lrtToken","type":"address"}],"name":"setLRTToken","outputs":[],"stateMutability":"nonpayable","type":"function"},{"inputs":[{"internalType":"address","name":"","type":"address"}],"name":"users","outputs":[{"internalType":"address","name":"userAddress","type":"address"},{"internalType":"uint256","name":"loyaltyPoints","type":"uint256"}],"stateMutability":"view","type":"function"},{"inputs":[{"internalType":"uint256","name":"amount","type":"uint256"}],"name":"withdrawMATIC","outputs":[],"stateMutability":"nonpayable","type":"function"},{"inputs":[{"internalType":"uint256","name":"amount","type":"uint256"}],"name":"withdrawTokens","outputs":[],"stateMutability":"nonpayable","type":"function"},{"stateMutability":"payable","type":"receive"}],"evm":{"bytecode":{"linkReferences":{},"object":"6080604052600160065560016007553480156200001b57600080fd5b506040516200395b3803806200395b833981810160405281019062000041919062000133565b336000806101000a81548173ffffffffffffffffffffffffffffffffffffffff021916908373ffffffffffffffffffffffffffffffffffffffff16021790555080600160006101000a81548173ffffffffffffffffffffffffffffffffffffffff021916908373ffffffffffffffffffffffffffffffffffffffff1602179055505062000165565b600080fd5b600073ffffffffffffffffffffffffffffffffffffffff82169050919050565b6000620000fb82620000ce565b9050919050565b6200010d81620000ee565b81146200011957600080fd5b50565b6000815190506200012d8162000102565b92915050565b6000602082840312156200014c576200014b620000c9565b5b60006200015c848285016200011c565b91505092915050565b6137e680620001756000396000f3fe6080604052600436106101185760003560e01c80636d47ab72116100a0578063a87430ba11610064578063a87430ba146103c2578063b656638b14610400578063f599e4f414610429578063f851a44014610445578063ffa8efc91461047057610127565b80636d47ab72146102ac578063770aa84d146102e95780637acc0b2014610314578063816837e314610359578063a85c38ef1461038257610127565b806342df2b1d116100e757806342df2b1d146101eb5780634de91a631461021457806352c9224c1461023f578063562df3d514610256578063664e97041461028157610127565b806302ee3a52146101625780632a58b3301461018d578063315a095d146101b857806333ff7bbd146101e157610127565b3661012757610125610499565b005b6040517f08c379a00000000000000000000000000000000000000000000000000000000081526004016101599061230f565b60405180910390fd5b34801561016e57600080fd5b5061017761072d565b60405161018491906125ae565b60405180910390f35b34801561019957600080fd5b506101a2610a48565b6040516101af91906125df565b60405180910390f35b3480156101c457600080fd5b506101df60048036038101906101da919061263a565b610a4e565b005b6101e9610499565b005b3480156101f757600080fd5b50610212600480360381019061020d9190612693565b610bee565b005b34801561022057600080fd5b50610229610d0e565b60405161023691906125df565b60405180910390f35b34801561024b57600080fd5b50610254610d14565b005b34801561026257600080fd5b5061026b610f44565b60405161027891906125df565b60405180910390f35b34801561028d57600080fd5b50610296610f49565b6040516102a391906125df565b60405180910390f35b3480156102b857600080fd5b506102d360048036038101906102ce9190612693565b610f55565b6040516102e091906126cf565b60405180910390f35b3480156102f557600080fd5b506102fe610f93565b60405161030b9190612749565b60405180910390f35b34801561032057600080fd5b5061033b6004803603810190610336919061263a565b610fb9565b6040516103509998979695949392919061279d565b60405180910390f35b34801561036557600080fd5b50610380600480360381019061037b919061263a565b6111bf565b005b34801561038e57600080fd5b506103a960048036038101906103a4919061263a565b611305565b6040516103b9949392919061283f565b60405180910390f35b3480156103ce57600080fd5b506103e960048036038101906103e49190612693565b611355565b6040516103f7929190612884565b60405180910390f35b34801561040c57600080fd5b50610427600480360381019061042291906129e2565b611399565b005b610443600480360381019061043e9190612c9b565b611675565b005b34801561045157600080fd5b5061045a611f96565b60405161046791906126cf565b60405180910390f35b34801561047c57600080fd5b506104976004803603810190610492919061263a565b611fba565b005b600034116104dc576040517f08c379a00000000000000000000000000000000000000000000000000000000081526004016104d390612dee565b60405180910390fd5b60006104f9670de0b6b3a7640000346121ba90919063ffffffff16565b905080600160009054906101000a900473ffffffffffffffffffffffffffffffffffffffff1673ffffffffffffffffffffffffffffffffffffffff166370a08231600160009054906101000a900473ffffffffffffffffffffffffffffffffffffffff166040518263ffffffff1660e01b815260040161057991906126cf565b602060405180830381865afa158015610596573d6000803e3d6000fd5b505050506040513d601f19601f820116820180604052508101906105ba9190612e23565b10156105fb576040517f08c379a00000000000000000000000000000000000000000000000000000000081526004016105f290612e9c565b60405180910390fd5b600160009054906101000a900473ffffffffffffffffffffffffffffffffffffffff1673ffffffffffffffffffffffffffffffffffffffff1663a9059cbb33836040518363ffffffff1660e01b8152600401610658929190612884565b6020604051808303816000875af1158015610677573d6000803e3d6000fd5b505050506040513d601f19601f8201168201806040525081019061069b9190612ed1565b6106da576040517f08c379a00000000000000000000000000000000000000000000000000000000081526004016106d190612f4a565b60405180910390fd5b3373ffffffffffffffffffffffffffffffffffffffff167f95db8762f4600873df8fdbc44f0e34fa831e5cc7396f3dda3a5cd0825acd5bdb3483604051610722929190612f6a565b60405180910390a250565b6060600060016006546107409190612fc2565b67ffffffffffffffff811115610759576107586128b7565b5b60405190808252806020026020018201604052801561079257816020015b61077f6121e6565b8152602001906001900390816107775790505b5090506000600190505b600654811015610a40576004600082815260200190815260200160002060405180610120016040529081600082015481526020016001820180546107df90613025565b80601f016020809104026020016040519081016040528092919081815260200182805461080b90613025565b80156108585780601f1061082d57610100808354040283529160200191610858565b820191906000526020600020905b81548152906001019060200180831161083b57829003601f168201915b5050505050815260200160028201805461087190613025565b80601f016020809104026020016040519081016040528092919081815260200182805461089d90613025565b80156108ea5780601f106108bf576101008083540402835291602001916108ea565b820191906000526020600020905b8154815290600101906020018083116108cd57829003601f168201915b50505050508152602001600382015481526020016004820160009054906101000a900473ffffffffffffffffffffffffffffffffffffffff1673ffffffffffffffffffffffffffffffffffffffff1673ffffffffffffffffffffffffffffffffffffffff16815260200160058201548152602001600682015481526020016007820154815260200160088201805461098190613025565b80601f01602080910402602001604051908101604052809291908181526020018280546109ad90613025565b80156109fa5780601f106109cf576101008083540402835291602001916109fa565b820191906000526020600020905b8154815290600101906020018083116109dd57829003601f168201915b50505050508152505082600183610a119190612fc2565b81518110610a2257610a21613056565b5b60200260200101819052508080610a3890613085565b91505061079c565b508091505090565b60075481565b60008054906101000a900473ffffffffffffffffffffffffffffffffffffffff1673ffffffffffffffffffffffffffffffffffffffff163373ffffffffffffffffffffffffffffffffffffffff1614610adc576040517f08c379a0000000000000000000000000000000000000000000000000000000008152600401610ad39061313f565b60405180910390fd5b600160009054906101000a900473ffffffffffffffffffffffffffffffffffffffff1673ffffffffffffffffffffffffffffffffffffffff1663a9059cbb60008054906101000a900473ffffffffffffffffffffffffffffffffffffffff16836040518363ffffffff1660e01b8152600401610b59929190612884565b6020604051808303816000875af1158015610b78573d6000803e3d6000fd5b505050506040513d601f19601f82011682018060405250810190610b9c9190612ed1565b503373ffffffffffffffffffffffffffffffffffffffff167f6352c5382c4a4578e712449ca65e83cdb392d045dfcf1cad9615189db2da244b82604051610be391906125df565b60405180910390a250565b60008054906101000a900473ffffffffffffffffffffffffffffffffffffffff1673ffffffffffffffffffffffffffffffffffffffff163373ffffffffffffffffffffffffffffffffffffffff1614610c7c576040517f08c379a0000000000000000000000000000000000000000000000000000000008152600401610c739061313f565b60405180910390fd5b80600160006101000a81548173ffffffffffffffffffffffffffffffffffffffff021916908373ffffffffffffffffffffffffffffffffffffffff1602179055503373ffffffffffffffffffffffffffffffffffffffff167f6eca818bb499e114c9a2ead8c104a976418f0ca9c27fd7ead167e9125e613d4582604051610d0391906126cf565b60405180910390a250565b60065481565b600073ffffffffffffffffffffffffffffffffffffffff16600360003373ffffffffffffffffffffffffffffffffffffffff1673ffffffffffffffffffffffffffffffffffffffff16815260200190815260200160002060000160009054906101000a900473ffffffffffffffffffffffffffffffffffffffff1673ffffffffffffffffffffffffffffffffffffffff1614610de5576040517f08c379a0000000000000000000000000000000000000000000000000000000008152600401610ddc906131ab565b60405180910390fd5b60405180604001604052803373ffffffffffffffffffffffffffffffffffffffff168152602001600067ffffffffffffffff811115610e2757610e266128b7565b5b604051908082528060200260200182016040528015610e555781602001602082028036833780820191505090505b50815250600360003373ffffffffffffffffffffffffffffffffffffffff1673ffffffffffffffffffffffffffffffffffffffff16815260200190815260200160002060008201518160000160006101000a81548173ffffffffffffffffffffffffffffffffffffffff021916908373ffffffffffffffffffffffffffffffffffffffff1602179055506020820151816001019080519060200190610efb929190612248565b509050503373ffffffffffffffffffffffffffffffffffffffff167f4d97d287a8f631378031b05cb24c876085261ddaa7b8f584477370ef473fbb3d60405160405180910390a2565b600581565b670de0b6b3a764000081565b60036020528060005260406000206000915090508060000160009054906101000a900473ffffffffffffffffffffffffffffffffffffffff16905081565b600160009054906101000a900473ffffffffffffffffffffffffffffffffffffffff1681565b6004602052806000526040600020600091509050806000015490806001018054610fe290613025565b80601f016020809104026020016040519081016040528092919081815260200182805461100e90613025565b801561105b5780601f106110305761010080835404028352916020019161105b565b820191906000526020600020905b81548152906001019060200180831161103e57829003601f168201915b50505050509080600201805461107090613025565b80601f016020809104026020016040519081016040528092919081815260200182805461109c90613025565b80156110e95780601f106110be576101008083540402835291602001916110e9565b820191906000526020600020905b8154815290600101906020018083116110cc57829003601f168201915b5050505050908060030154908060040160009054906101000a900473ffffffffffffffffffffffffffffffffffffffff169080600501549080600601549080600701549080600801805461113c90613025565b80601f016020809104026020016040519081016040528092919081815260200182805461116890613025565b80156111b55780601f1061118a576101008083540402835291602001916111b5565b820191906000526020600020905b81548152906001019060200180831161119857829003601f168201915b5050505050905089565b60008054906101000a900473ffffffffffffffffffffffffffffffffffffffff1673ffffffffffffffffffffffffffffffffffffffff163373ffffffffffffffffffffffffffffffffffffffff161461124d576040517f08c379a00000000000000000000000000000000000000000000000000000000081526004016112449061313f565b60405180910390fd5b60008054906101000a900473ffffffffffffffffffffffffffffffffffffffff1673ffffffffffffffffffffffffffffffffffffffff166108fc829081150290604051600060405180830381858888f193505050501580156112b3573d6000803e3d6000fd5b503373ffffffffffffffffffffffffffffffffffffffff167f6efac6899ee41c0fab9566f807fee81972320248574ef8adeac6599ea7eae246826040516112fa91906125df565b60405180910390a250565b60056020528060005260406000206000915090508060000154908060010160009054906101000a900473ffffffffffffffffffffffffffffffffffffffff16908060020154908060030154905084565b60026020528060005260406000206000915090508060000160009054906101000a900473ffffffffffffffffffffffffffffffffffffffff16908060010154905082565b600073ffffffffffffffffffffffffffffffffffffffff16600360003373ffffffffffffffffffffffffffffffffffffffff1673ffffffffffffffffffffffffffffffffffffffff16815260200190815260200160002060000160009054906101000a900473ffffffffffffffffffffffffffffffffffffffff1673ffffffffffffffffffffffffffffffffffffffff160361146a576040517f08c379a00000000000000000000000000000000000000000000000000000000081526004016114619061323d565b60405180910390fd5b60405180610120016040528060065481526020018881526020018781526020018681526020013373ffffffffffffffffffffffffffffffffffffffff168152602001858152602001848152602001838152602001828152506004600060065481526020019081526020016000206000820151816000015560208201518160010190816114f691906133ff565b50604082015181600201908161150c91906133ff565b506060820151816003015560808201518160040160006101000a81548173ffffffffffffffffffffffffffffffffffffffff021916908373ffffffffffffffffffffffffffffffffffffffff16021790555060a0820151816005015560c0820151816006015560e0820151816007015561010082015181600801908161159291906133ff565b50905050600360003373ffffffffffffffffffffffffffffffffffffffff1673ffffffffffffffffffffffffffffffffffffffff16815260200190815260200160002060010160065490806001815401808255809150506001900390600052602060002001600090919091909150553373ffffffffffffffffffffffffffffffffffffffff166006547fef311eec1d40202fee1909ab585df5e024df1930dc6bba97722d1e60e91c01f7898760405161164c9291906134d1565b60405180910390a36006600081548092919061166790613085565b919050555050505050505050565b84518651146116b9576040517f08c379a00000000000000000000000000000000000000000000000000000000081526004016116b090613573565b60405180910390fd5b600060646005856116ca9190613593565b6116d49190613604565b9050600082856116e49190612fc2565b905080341015611729576040517f08c379a000000000000000000000000000000000000000000000000000000000815260040161172090613681565b60405180910390fd5b600160009054906101000a900473ffffffffffffffffffffffffffffffffffffffff1673ffffffffffffffffffffffffffffffffffffffff166323b872dd33600160009054906101000a900473ffffffffffffffffffffffffffffffffffffffff16866040518463ffffffff1660e01b81526004016117aa939291906136a1565b6020604051808303816000875af11580156117c9573d6000803e3d6000fd5b505050506040513d601f19601f820116820180604052508101906117ed9190612ed1565b61182c576040517f08c379a000000000000000000000000000000000000000000000000000000000815260040161182390613724565b60405180910390fd5b3073ffffffffffffffffffffffffffffffffffffffff166108fc839081150290604051600060405180830381858888f19350505050158015611872573d6000803e3d6000fd5b5060005b8851811015611eea576000600460008b848151811061189857611897613056565b5b6020026020010151815260200190815260200160002060405180610120016040529081600082015481526020016001820180546118d490613025565b80601f016020809104026020016040519081016040528092919081815260200182805461190090613025565b801561194d5780601f106119225761010080835404028352916020019161194d565b820191906000526020600020905b81548152906001019060200180831161193057829003601f168201915b5050505050815260200160028201805461196690613025565b80601f016020809104026020016040519081016040528092919081815260200182805461199290613025565b80156119df5780601f106119b4576101008083540402835291602001916119df565b820191906000526020600020905b8154815290600101906020018083116119c257829003601f168201915b50505050508152602001600382015481526020016004820160009054906101000a900473ffffffffffffffffffffffffffffffffffffffff1673ffffffffffffffffffffffffffffffffffffffff1673ffffffffffffffffffffffffffffffffffffffff168152602001600582015481526020016006820154815260200160078201548152602001600882018054611a7690613025565b80601f0160208091040260200160405190810160405280929190818152602001828054611aa290613025565b8015611aef5780601f10611ac457610100808354040283529160200191611aef565b820191906000526020600020905b815481529060010190602001808311611ad257829003601f168201915b50505050508152505090506000898381518110611b0f57611b0e613056565b5b60200260200101518260a00151611b269190613593565b9050888381518110611b3b57611b3a613056565b5b602002602001015115611bbb57816080015173ffffffffffffffffffffffffffffffffffffffff166108fc6064600584611b759190613593565b611b7f9190613604565b83611b8a9190612fc2565b9081150290604051600060405180830381858888f19350505050158015611bb5573d6000803e3d6000fd5b50611ce2565b816080015173ffffffffffffffffffffffffffffffffffffffff166108fc6064600584611be89190613593565b611bf29190613604565b8460e0015184611c029190612fc2565b611c0c9190612fc2565b9081150290604051600060405180830381858888f19350505050158015611c37573d6000803e3d6000fd5b50600160009054906101000a900473ffffffffffffffffffffffffffffffffffffffff1673ffffffffffffffffffffffffffffffffffffffff1663a9059cbb83608001518460e001516040518363ffffffff1660e01b8152600401611c9d929190612884565b6020604051808303816000875af1158015611cbc573d6000803e3d6000fd5b505050506040513d601f19601f82011682018060405250810190611ce09190612ed1565b505b604051806080016040528060075481526020013373ffffffffffffffffffffffffffffffffffffffff1681526020018c8581518110611d2457611d23613056565b5b602002602001015181526020018b8581518110611d4457611d43613056565b5b60200260200101518152506005600060075481526020019081526020016000206000820151816000015560208201518160010160006101000a81548173ffffffffffffffffffffffffffffffffffffffff021916908373ffffffffffffffffffffffffffffffffffffffff1602179055506040820151816002015560608201518160030155905050600260003373ffffffffffffffffffffffffffffffffffffffff1673ffffffffffffffffffffffffffffffffffffffff16815260200190815260200160002060020160075490806001815401808255809150506001900390600052602060002001600090919091909150558a8381518110611e4a57611e49613056565b5b60200260200101513373ffffffffffffffffffffffffffffffffffffffff166007547f7d3c39a6cce20f6949eff0833a4d54fca734dc7c6027773d8885e7faeac98a958d8781518110611ea057611e9f613056565b5b6020026020010151604051611eb591906125df565b60405180910390a460076000815480929190611ed090613085565b919050555050508080611ee290613085565b915050611876565b50600160009054906101000a900473ffffffffffffffffffffffffffffffffffffffff1673ffffffffffffffffffffffffffffffffffffffff1663a9059cbb33866040518363ffffffff1660e01b8152600401611f48929190612884565b6020604051808303816000875af1158015611f67573d6000803e3d6000fd5b505050506040513d601f19601f82011682018060405250810190611f8b9190612ed1565b505050505050505050565b60008054906101000a900473ffffffffffffffffffffffffffffffffffffffff1681565b60008111611ffd576040517f08c379a0000000000000000000000000000000000000000000000000000000008152600401611ff490613790565b60405180910390fd5b600061201a670de0b6b3a7640000836121d090919063ffffffff16565b9050600160009054906101000a900473ffffffffffffffffffffffffffffffffffffffff1673ffffffffffffffffffffffffffffffffffffffff166323b872dd33600160009054906101000a900473ffffffffffffffffffffffffffffffffffffffff16856040518463ffffffff1660e01b815260040161209d939291906136a1565b6020604051808303816000875af11580156120bc573d6000803e3d6000fd5b505050506040513d601f19601f820116820180604052508101906120e09190612ed1565b61211f576040517f08c379a000000000000000000000000000000000000000000000000000000000815260040161211690612f4a565b60405180910390fd5b3373ffffffffffffffffffffffffffffffffffffffff166108fc829081150290604051600060405180830381858888f19350505050158015612165573d6000803e3d6000fd5b503373ffffffffffffffffffffffffffffffffffffffff167fae8bcd366b92d4b55d90c0ccbfd8a50a60bae24f201c5899a989e99a3d877b9383836040516121ae929190612f6a565b60405180910390a25050565b600081836121c89190613604565b905092915050565b600081836121de9190613593565b905092915050565b60405180610120016040528060008152602001606081526020016060815260200160008152602001600073ffffffffffffffffffffffffffffffffffffffff168152602001600081526020016000815260200160008152602001606081525090565b828054828255906000526020600020908101928215612284579160200282015b82811115612283578251825591602001919060010190612268565b5b5090506122919190612295565b5090565b5b808211156122ae576000816000905550600101612296565b5090565b600082825260208201905092915050565b7f4f7065726174696f6e206e6f7420737570706f72746564000000000000000000600082015250565b60006122f96017836122b2565b9150612304826122c3565b602082019050919050565b60006020820190508181036000830152612328816122ec565b9050919050565b600081519050919050565b600082825260208201905092915050565b6000819050602082019050919050565b6000819050919050565b61236e8161235b565b82525050565b600081519050919050565b600082825260208201905092915050565b60005b838110156123ae578082015181840152602081019050612393565b60008484015250505050565b6000601f19601f8301169050919050565b60006123d682612374565b6123e0818561237f565b93506123f0818560208601612390565b6123f9816123ba565b840191505092915050565b600073ffffffffffffffffffffffffffffffffffffffff82169050919050565b600061242f82612404565b9050919050565b61243f81612424565b82525050565b60006101208301600083015161245e6000860182612365565b506020830151848203602086015261247682826123cb565b9150506040830151848203604086015261249082826123cb565b91505060608301516124a56060860182612365565b5060808301516124b86080860182612436565b5060a08301516124cb60a0860182612365565b5060c08301516124de60c0860182612365565b5060e08301516124f160e0860182612365565b5061010083015184820361010086015261250b82826123cb565b9150508091505092915050565b60006125248383612445565b905092915050565b6000602082019050919050565b60006125448261232f565b61254e818561233a565b9350836020820285016125608561234b565b8060005b8581101561259c578484038952815161257d8582612518565b94506125888361252c565b925060208a01995050600181019050612564565b50829750879550505050505092915050565b600060208201905081810360008301526125c88184612539565b905092915050565b6125d98161235b565b82525050565b60006020820190506125f460008301846125d0565b92915050565b6000604051905090565b600080fd5b600080fd5b6126178161235b565b811461262257600080fd5b50565b6000813590506126348161260e565b92915050565b6000602082840312156126505761264f612604565b5b600061265e84828501612625565b91505092915050565b61267081612424565b811461267b57600080fd5b50565b60008135905061268d81612667565b92915050565b6000602082840312156126a9576126a8612604565b5b60006126b78482850161267e565b91505092915050565b6126c981612424565b82525050565b60006020820190506126e460008301846126c0565b92915050565b6000819050919050565b600061270f61270a61270584612404565b6126ea565b612404565b9050919050565b6000612721826126f4565b9050919050565b600061273382612716565b9050919050565b61274381612728565b82525050565b600060208201905061275e600083018461273a565b92915050565b600061276f82612374565b61277981856122b2565b9350612789818560208601612390565b612792816123ba565b840191505092915050565b6000610120820190506127b3600083018c6125d0565b81810360208301526127c5818b612764565b905081810360408301526127d9818a612764565b90506127e860608301896125d0565b6127f560808301886126c0565b61280260a08301876125d0565b61280f60c08301866125d0565b61281c60e08301856125d0565b81810361010083015261282f8184612764565b90509a9950505050505050505050565b600060808201905061285460008301876125d0565b61286160208301866126c0565b61286e60408301856125d0565b61287b60608301846125d0565b95945050505050565b600060408201905061289960008301856126c0565b6128a660208301846125d0565b9392505050565b600080fd5b600080fd5b7f4e487b7100000000000000000000000000000000000000000000000000000000600052604160045260246000fd5b6128ef826123ba565b810181811067ffffffffffffffff8211171561290e5761290d6128b7565b5b80604052505050565b60006129216125fa565b905061292d82826128e6565b919050565b600067ffffffffffffffff82111561294d5761294c6128b7565b5b612956826123ba565b9050602081019050919050565b82818337600083830152505050565b600061298561298084612932565b612917565b9050828152602081018484840111156129a1576129a06128b2565b5b6129ac848285612963565b509392505050565b600082601f8301126129c9576129c86128ad565b5b81356129d9848260208601612972565b91505092915050565b600080600080600080600060e0888a031215612a0157612a00612604565b5b600088013567ffffffffffffffff811115612a1f57612a1e612609565b5b612a2b8a828b016129b4565b975050602088013567ffffffffffffffff811115612a4c57612a4b612609565b5b612a588a828b016129b4565b9650506040612a698a828b01612625565b9550506060612a7a8a828b01612625565b9450506080612a8b8a828b01612625565b93505060a0612a9c8a828b01612625565b92505060c088013567ffffffffffffffff811115612abd57612abc612609565b5b612ac98a828b016129b4565b91505092959891949750929550565b600067ffffffffffffffff821115612af357612af26128b7565b5b602082029050602081019050919050565b600080fd5b6000612b1c612b1784612ad8565b612917565b90508083825260208201905060208402830185811115612b3f57612b3e612b04565b5b835b81811015612b685780612b548882612625565b845260208401935050602081019050612b41565b5050509392505050565b600082601f830112612b8757612b866128ad565b5b8135612b97848260208601612b09565b91505092915050565b600067ffffffffffffffff821115612bbb57612bba6128b7565b5b602082029050602081019050919050565b60008115159050919050565b612be181612bcc565b8114612bec57600080fd5b50565b600081359050612bfe81612bd8565b92915050565b6000612c17612c1284612ba0565b612917565b90508083825260208201905060208402830185811115612c3a57612c39612b04565b5b835b81811015612c635780612c4f8882612bef565b845260208401935050602081019050612c3c565b5050509392505050565b600082601f830112612c8257612c816128ad565b5b8135612c92848260208601612c04565b91505092915050565b60008060008060008060c08789031215612cb857612cb7612604565b5b600087013567ffffffffffffffff811115612cd657612cd5612609565b5b612ce289828a01612b72565b965050602087013567ffffffffffffffff811115612d0357612d02612609565b5b612d0f89828a01612b72565b955050604087013567ffffffffffffffff811115612d3057612d2f612609565b5b612d3c89828a01612c6d565b9450506060612d4d89828a01612625565b9350506080612d5e89828a01612625565b92505060a0612d6f89828a01612625565b9150509295509295509295565b7f4d4154494320616d6f756e742073686f756c642062652067726561746572207460008201527f68616e2030000000000000000000000000000000000000000000000000000000602082015250565b6000612dd86025836122b2565b9150612de382612d7c565b604082019050919050565b60006020820190508181036000830152612e0781612dcb565b9050919050565b600081519050612e1d8161260e565b92915050565b600060208284031215612e3957612e38612604565b5b6000612e4784828501612e0e565b91505092915050565b7f4e6f7420656e6f756768204c525420696e20636f6e7472616374000000000000600082015250565b6000612e86601a836122b2565b9150612e9182612e50565b602082019050919050565b60006020820190508181036000830152612eb581612e79565b9050919050565b600081519050612ecb81612bd8565b92915050565b600060208284031215612ee757612ee6612604565b5b6000612ef584828501612ebc565b91505092915050565b7f4c5254207472616e73666572206661696c656400000000000000000000000000600082015250565b6000612f346013836122b2565b9150612f3f82612efe565b602082019050919050565b60006020820190508181036000830152612f6381612f27565b9050919050565b6000604082019050612f7f60008301856125d0565b612f8c60208301846125d0565b9392505050565b7f4e487b7100000000000000000000000000000000000000000000000000000000600052601160045260246000fd5b6000612fcd8261235b565b9150612fd88361235b565b9250828203905081811115612ff057612fef612f93565b5b92915050565b7f4e487b7100000000000000000000000000000000000000000000000000000000600052602260045260246000fd5b6000600282049050600182168061303d57607f821691505b6020821081036130505761304f612ff6565b5b50919050565b7f4e487b7100000000000000000000000000000000000000000000000000000000600052603260045260246000fd5b60006130908261235b565b91507fffffffffffffffffffffffffffffffffffffffffffffffffffffffffffffffff82036130c2576130c1612f93565b5b600182019050919050565b7f4f6e6c792061646d696e2063616e2063616c6c20746869732066756e6374696f60008201527f6e00000000000000000000000000000000000000000000000000000000000000602082015250565b60006131296021836122b2565b9150613134826130cd565b604082019050919050565b600060208201905081810360008301526131588161311c565b9050919050565b7f53656c6c657220616c7265616479207265676973746572656400000000000000600082015250565b60006131956019836122b2565b91506131a08261315f565b602082019050919050565b600060208201905081810360008301526131c481613188565b9050919050565b7f4f6e6c792073656c6c6572732063616e2063616c6c20746869732066756e637460008201527f696f6e0000000000000000000000000000000000000000000000000000000000602082015250565b60006132276023836122b2565b9150613232826131cb565b604082019050919050565b600060208201905081810360008301526132568161321a565b9050919050565b60008190508160005260206000209050919050565b60006020601f8301049050919050565b600082821b905092915050565b6000600883026132bf7fffffffffffffffffffffffffffffffffffffffffffffffffffffffffffffffff82613282565b6132c98683613282565b95508019841693508086168417925050509392505050565b60006132fc6132f76132f28461235b565b6126ea565b61235b565b9050919050565b6000819050919050565b613316836132e1565b61332a61332282613303565b84845461328f565b825550505050565b600090565b61333f613332565b61334a81848461330d565b505050565b5b8181101561336e57613363600082613337565b600181019050613350565b5050565b601f8211156133b3576133848161325d565b61338d84613272565b8101602085101561339c578190505b6133b06133a885613272565b83018261334f565b50505b505050565b600082821c905092915050565b60006133d6600019846008026133b8565b1980831691505092915050565b60006133ef83836133c5565b9150826002028217905092915050565b61340882612374565b67ffffffffffffffff811115613421576134206128b7565b5b61342b8254613025565b613436828285613372565b600060209050601f8311600181146134695760008415613457578287015190505b61346185826133e3565b8655506134c9565b601f1984166134778661325d565b60005b8281101561349f5784890151825560018201915060208501945060208101905061347a565b868310156134bc57848901516134b8601f8916826133c5565b8355505b6001600288020188555050505b505050505050565b600060408201905081810360008301526134eb8185612764565b90506134fa60208301846125d0565b9392505050565b7f4d69736d6174636820696e2070726f647563742049447320616e64207175616e60008201527f746974696573206c656e67746800000000000000000000000000000000000000602082015250565b600061355d602d836122b2565b915061356882613501565b604082019050919050565b6000602082019050818103600083015261358c81613550565b9050919050565b600061359e8261235b565b91506135a98361235b565b92508282026135b78161235b565b915082820484148315176135ce576135cd612f93565b5b5092915050565b7f4e487b7100000000000000000000000000000000000000000000000000000000600052601260045260246000fd5b600061360f8261235b565b915061361a8361235b565b92508261362a576136296135d5565b5b828204905092915050565b7f496e636f7272656374204d415449432073656e74000000000000000000000000600082015250565b600061366b6014836122b2565b915061367682613635565b602082019050919050565b6000602082019050818103600083015261369a8161365e565b9050919050565b60006060820190506136b660008301866126c0565b6136c360208301856126c0565b6136d060408301846125d0565b949350505050565b7f4c6f79616c747920546f6b656e207472616e73666572206661696c6564000000600082015250565b600061370e601d836122b2565b9150613719826136d8565b602082019050919050565b6000602082019050818103600083015261373d81613701565b9050919050565b7f416d6f756e742073686f756c642062652067726561746572207468616e203000600082015250565b600061377a601f836122b2565b915061378582613744565b602082019050919050565b600060208201905081810360008301526137a98161376d565b905091905056fea26469706673582212205b4430194a6e45890b620a736d861ee6d906fe0c6ccd723898a1231113daf7fb64736f6c63430008130033","opcodes":"PUSH1 0x80 PUSH1 0x40 MSTORE PUSH1 0x1 PUSH1 0x6 SSTORE PUSH1 0x1 PUSH1 0x7 SSTORE CALLVALUE DUP1 ISZERO PUSH3 0x1B JUMPI PUSH1 0x0 DUP1 REVERT JUMPDEST POP PUSH1 0x40 MLOAD PUSH3 0x395B CODESIZE SUB DUP1 PUSH3 0x395B DUP4 CODECOPY DUP2 DUP2 ADD PUSH1 0x40 MSTORE DUP2 ADD SWAP1 PUSH3 0x41 SWAP2 SWAP1 PUSH3 0x133 JUMP JUMPDEST CALLER PUSH1 0x0 DUP1 PUSH2 0x100 EXP DUP2 SLOAD DUP2 PUSH20 0xFFFFFFFFFFFFFFFFFFFFFFFFFFFFFFFFFFFFFFFF MUL NOT AND SWAP1 DUP4 PUSH20 0xFFFFFFFFFFFFFFFFFFFFFFFFFFFFFFFFFFFFFFFF AND MUL OR SWAP1 SSTORE POP DUP1 PUSH1 0x1 PUSH1 0x0 PUSH2 0x100 EXP DUP2 SLOAD DUP2 PUSH20 0xFFFFFFFFFFFFFFFFFFFFFFFFFFFFFFFFFFFFFFFF MUL NOT AND SWAP1 DUP4 PUSH20 0xFFFFFFFFFFFFFFFFFFFFFFFFFFFFFFFFFFFFFFFF AND MUL OR SWAP1 SSTORE POP POP PUSH3 0x165 JUMP JUMPDEST PUSH1 0x0 DUP1 REVERT JUMPDEST PUSH1 0x0 PUSH20 0xFFFFFFFFFFFFFFFFFFFFFFFFFFFFFFFFFFFFFFFF DUP3 AND SWAP1 POP SWAP2 SWAP1 POP JUMP JUMPDEST PUSH1 0x0 PUSH3 0xFB DUP3 PUSH3 0xCE JUMP JUMPDEST SWAP1 POP SWAP2 SWAP1 POP JUMP JUMPDEST PUSH3 0x10D DUP2 PUSH3 0xEE JUMP JUMPDEST DUP2 EQ PUSH3 0x119 JUMPI PUSH1 0x0 DUP1 REVERT JUMPDEST POP JUMP JUMPDEST PUSH1 0x0 DUP2 MLOAD SWAP1 POP PUSH3 0x12D DUP2 PUSH3 0x102 JUMP JUMPDEST SWAP3 SWAP2 POP POP JUMP JUMPDEST PUSH1 0x0 PUSH1 0x20 DUP3 DUP5 SUB SLT ISZERO PUSH3 0x14C JUMPI PUSH3 0x14B PUSH3 0xC9 JUMP JUMPDEST JUMPDEST PUSH1 0x0 PUSH3 0x15C DUP5 DUP3 DUP6 ADD PUSH3 0x11C JUMP JUMPDEST SWAP2 POP POP SWAP3 SWAP2 POP POP JUMP JUMPDEST PUSH2 0x37E6 DUP1 PUSH3 0x175 PUSH1 0x0 CODECOPY PUSH1 0x0 RETURN INVALID PUSH1 0x80 PUSH1 0x40 MSTORE PUSH1 0x4 CALLDATASIZE LT PUSH2 0x118 JUMPI PUSH1 0x0 CALLDATALOAD PUSH1 0xE0 SHR DUP1 PUSH4 0x6D47AB72 GT PUSH2 0xA0 JUMPI DUP1 PUSH4 0xA87430BA GT PUSH2 0x64 JUMPI DUP1 PUSH4 0xA87430BA EQ PUSH2 0x3C2 JUMPI DUP1 PUSH4 0xB656638B EQ PUSH2 0x400 JUMPI DUP1 PUSH4 0xF599E4F4 EQ PUSH2 0x429 JUMPI DUP1 PUSH4 0xF851A440 EQ PUSH2 0x445 JUMPI DUP1 PUSH4 0xFFA8EFC9 EQ PUSH2 0x470 JUMPI PUSH2 0x127 JUMP JUMPDEST DUP1 PUSH4 0x6D47AB72 EQ PUSH2 0x2AC JUMPI DUP1 PUSH4 0x770AA84D EQ PUSH2 0x2E9 JUMPI DUP1 PUSH4 0x7ACC0B20 EQ PUSH2 0x314 JUMPI DUP1 PUSH4 0x816837E3 EQ PUSH2 0x359 JUMPI DUP1 PUSH4 0xA85C38EF EQ PUSH2 0x382 JUMPI PUSH2 0x127 JUMP JUMPDEST DUP1 PUSH4 0x42DF2B1D GT PUSH2 0xE7 JUMPI DUP1 PUSH4 0x42DF2B1D EQ PUSH2 0x1EB JUMPI DUP1 PUSH4 0x4DE91A63 EQ PUSH2 0x214 JUMPI DUP1 PUSH4 0x52C9224C EQ PUSH2 0x23F JUMPI DUP1 PUSH4 0x562DF3D5 EQ PUSH2 0x256 JUMPI DUP1 PUSH4 0x664E9704 EQ PUSH2 0x281 JUMPI PUSH2 0x127 JUMP JUMPDEST DUP1 PUSH4 0x2EE3A52 EQ PUSH2 0x162 JUMPI DUP1 PUSH4 0x2A58B330 EQ PUSH2 0x18D JUMPI DUP1 PUSH4 0x315A095D EQ PUSH2 0x1B8 JUMPI DUP1 PUSH4 0x33FF7BBD EQ PUSH2 0x1E1 JUMPI PUSH2 0x127 JUMP JUMPDEST CALLDATASIZE PUSH2 0x127 JUMPI PUSH2 0x125 PUSH2 0x499 JUMP JUMPDEST STOP JUMPDEST PUSH1 0x40 MLOAD PUSH32 0x8C379A000000000000000000000000000000000000000000000000000000000 DUP2 MSTORE PUSH1 0x4 ADD PUSH2 0x159 SWAP1 PUSH2 0x230F JUMP JUMPDEST PUSH1 0x40 MLOAD DUP1 SWAP2 SUB SWAP1 REVERT JUMPDEST CALLVALUE DUP1 ISZERO PUSH2 0x16E JUMPI PUSH1 0x0 DUP1 REVERT JUMPDEST POP PUSH2 0x177 PUSH2 0x72D JUMP JUMPDEST PUSH1 0x40 MLOAD PUSH2 0x184 SWAP2 SWAP1 PUSH2 0x25AE JUMP JUMPDEST PUSH1 0x40 MLOAD DUP1 SWAP2 SUB SWAP1 RETURN JUMPDEST CALLVALUE DUP1 ISZERO PUSH2 0x199 JUMPI PUSH1 0x0 DUP1 REVERT JUMPDEST POP PUSH2 0x1A2 PUSH2 0xA48 JUMP JUMPDEST PUSH1 0x40 MLOAD PUSH2 0x1AF SWAP2 SWAP1 PUSH2 0x25DF JUMP JUMPDEST PUSH1 0x40 MLOAD DUP1 SWAP2 SUB SWAP1 RETURN JUMPDEST CALLVALUE DUP1 ISZERO PUSH2 0x1C4 JUMPI PUSH1 0x0 DUP1 REVERT JUMPDEST POP PUSH2 0x1DF PUSH1 0x4 DUP1 CALLDATASIZE SUB DUP2 ADD SWAP1 PUSH2 0x1DA SWAP2 SWAP1 PUSH2 0x263A JUMP JUMPDEST PUSH2 0xA4E JUMP JUMPDEST STOP JUMPDEST PUSH2 0x1E9 PUSH2 0x499 JUMP JUMPDEST STOP JUMPDEST CALLVALUE DUP1 ISZERO PUSH2 0x1F7 JUMPI PUSH1 0x0 DUP1 REVERT JUMPDEST POP PUSH2 0x212 PUSH1 0x4 DUP1 CALLDATASIZE SUB DUP2 ADD SWAP1 PUSH2 0x20D SWAP2 SWAP1 PUSH2 0x2693 JUMP JUMPDEST PUSH2 0xBEE JUMP JUMPDEST STOP JUMPDEST CALLVALUE DUP1 ISZERO PUSH2 0x220 JUMPI PUSH1 0x0 DUP1 REVERT JUMPDEST POP PUSH2 0x229 PUSH2 0xD0E JUMP JUMPDEST PUSH1 0x40 MLOAD PUSH2 0x236 SWAP2 SWAP1 PUSH2 0x25DF JUMP JUMPDEST PUSH1 0x40 MLOAD DUP1 SWAP2 SUB SWAP1 RETURN JUMPDEST CALLVALUE DUP1 ISZERO PUSH2 0x24B JUMPI PUSH1 0x0 DUP1 REVERT JUMPDEST POP PUSH2 0x254 PUSH2 0xD14 JUMP JUMPDEST STOP JUMPDEST CALLVALUE DUP1 ISZERO PUSH2 0x262 JUMPI PUSH1 0x0 DUP1 REVERT JUMPDEST POP PUSH2 0x26B PUSH2 0xF44 JUMP JUMPDEST PUSH1 0x40 MLOAD PUSH2 0x278 SWAP2 SWAP1 PUSH2 0x25DF JUMP JUMPDEST PUSH1 0x40 MLOAD DUP1 SWAP2 SUB SWAP1 RETURN JUMPDEST CALLVALUE DUP1 ISZERO PUSH2 0x28D JUMPI PUSH1 0x0 DUP1 REVERT JUMPDEST POP PUSH2 0x296 PUSH2 0xF49 JUMP JUMPDEST PUSH1 0x40 MLOAD PUSH2 0x2A3 SWAP2 SWAP1 PUSH2 0x25DF JUMP JUMPDEST PUSH1 0x40 MLOAD DUP1 SWAP2 SUB SWAP1 RETURN JUMPDEST CALLVALUE DUP1 ISZERO PUSH2 0x2B8 JUMPI PUSH1 0x0 DUP1 REVERT JUMPDEST POP PUSH2 0x2D3 PUSH1 0x4 DUP1 CALLDATASIZE SUB DUP2 ADD SWAP1 PUSH2 0x2CE SWAP2 SWAP1 PUSH2 0x2693 JUMP JUMPDEST PUSH2 0xF55 JUMP JUMPDEST PUSH1 0x40 MLOAD PUSH2 0x2E0 SWAP2 SWAP1 PUSH2 0x26CF JUMP JUMPDEST PUSH1 0x40 MLOAD DUP1 SWAP2 SUB SWAP1 RETURN JUMPDEST CALLVALUE DUP1 ISZERO PUSH2 0x2F5 JUMPI PUSH1 0x0 DUP1 REVERT JUMPDEST POP PUSH2 0x2FE PUSH2 0xF93 JUMP JUMPDEST PUSH1 0x40 MLOAD PUSH2 0x30B SWAP2 SWAP1 PUSH2 0x2749 JUMP JUMPDEST PUSH1 0x40 MLOAD DUP1 SWAP2 SUB SWAP1 RETURN JUMPDEST CALLVALUE DUP1 ISZERO PUSH2 0x320 JUMPI PUSH1 0x0 DUP1 REVERT JUMPDEST POP PUSH2 0x33B PUSH1 0x4 DUP1 CALLDATASIZE SUB DUP2 ADD SWAP1 PUSH2 0x336 SWAP2 SWAP1 PUSH2 0x263A JUMP JUMPDEST PUSH2 0xFB9 JUMP JUMPDEST PUSH1 0x40 MLOAD PUSH2 0x350 SWAP10 SWAP9 SWAP8 SWAP7 SWAP6 SWAP5 SWAP4 SWAP3 SWAP2 SWAP1 PUSH2 0x279D JUMP JUMPDEST PUSH1 0x40 MLOAD DUP1 SWAP2 SUB SWAP1 RETURN JUMPDEST CALLVALUE DUP1 ISZERO PUSH2 0x365 JUMPI PUSH1 0x0 DUP1 REVERT JUMPDEST POP PUSH2 0x380 PUSH1 0x4 DUP1 CALLDATASIZE SUB DUP2 ADD SWAP1 PUSH2 0x37B SWAP2 SWAP1 PUSH2 0x263A JUMP JUMPDEST PUSH2 0x11BF JUMP JUMPDEST STOP JUMPDEST CALLVALUE DUP1 ISZERO PUSH2 0x38E JUMPI PUSH1 0x0 DUP1 REVERT JUMPDEST POP PUSH2 0x3A9 PUSH1 0x4 DUP1 CALLDATASIZE SUB DUP2 ADD SWAP1 PUSH2 0x3A4 SWAP2 SWAP1 PUSH2 0x263A JUMP JUMPDEST PUSH2 0x1305 JUMP JUMPDEST PUSH1 0x40 MLOAD PUSH2 0x3B9 SWAP5 SWAP4 SWAP3 SWAP2 SWAP1 PUSH2 0x283F JUMP JUMPDEST PUSH1 0x40 MLOAD DUP1 SWAP2 SUB SWAP1 RETURN JUMPDEST CALLVALUE DUP1 ISZERO PUSH2 0x3CE JUMPI PUSH1 0x0 DUP1 REVERT JUMPDEST POP PUSH2 0x3E9 PUSH1 0x4 DUP1 CALLDATASIZE SUB DUP2 ADD SWAP1 PUSH2 0x3E4 SWAP2 SWAP1 PUSH2 0x2693 JUMP JUMPDEST PUSH2 0x1355 JUMP JUMPDEST PUSH1 0x40 MLOAD PUSH2 0x3F7 SWAP3 SWAP2 SWAP1 PUSH2 0x2884 JUMP JUMPDEST PUSH1 0x40 MLOAD DUP1 SWAP2 SUB SWAP1 RETURN JUMPDEST CALLVALUE DUP1 ISZERO PUSH2 0x40C JUMPI PUSH1 0x0 DUP1 REVERT JUMPDEST POP PUSH2 0x427 PUSH1 0x4 DUP1 CALLDATASIZE SUB DUP2 ADD SWAP1 PUSH2 0x422 SWAP2 SWAP1 PUSH2 0x29E2 JUMP JUMPDEST PUSH2 0x1399 JUMP JUMPDEST STOP JUMPDEST PUSH2 0x443 PUSH1 0x4 DUP1 CALLDATASIZE SUB DUP2 ADD SWAP1 PUSH2 0x43E SWAP2 SWAP1 PUSH2 0x2C9B JUMP JUMPDEST PUSH2 0x1675 JUMP JUMPDEST STOP JUMPDEST CALLVALUE DUP1 ISZERO PUSH2 0x451 JUMPI PUSH1 0x0 DUP1 REVERT JUMPDEST POP PUSH2 0x45A PUSH2 0x1F96 JUMP JUMPDEST PUSH1 0x40 MLOAD PUSH2 0x467 SWAP2 SWAP1 PUSH2 0x26CF JUMP JUMPDEST PUSH1 0x40 MLOAD DUP1 SWAP2 SUB SWAP1 RETURN JUMPDEST CALLVALUE DUP1 ISZERO PUSH2 0x47C JUMPI PUSH1 0x0 DUP1 REVERT JUMPDEST POP PUSH2 0x497 PUSH1 0x4 DUP1 CALLDATASIZE SUB DUP2 ADD SWAP1 PUSH2 0x492 SWAP2 SWAP1 PUSH2 0x263A JUMP JUMPDEST PUSH2 0x1FBA JUMP JUMPDEST STOP JUMPDEST PUSH1 0x0 CALLVALUE GT PUSH2 0x4DC JUMPI PUSH1 0x40 MLOAD PUSH32 0x8C379A000000000000000000000000000000000000000000000000000000000 DUP2 MSTORE PUSH1 0x4 ADD PUSH2 0x4D3 SWAP1 PUSH2 0x2DEE JUMP JUMPDEST PUSH1 0x40 MLOAD DUP1 SWAP2 SUB SWAP1 REVERT JUMPDEST PUSH1 0x0 PUSH2 0x4F9 PUSH8 0xDE0B6B3A7640000 CALLVALUE PUSH2 0x21BA SWAP1 SWAP2 SWAP1 PUSH4 0xFFFFFFFF AND JUMP JUMPDEST SWAP1 POP DUP1 PUSH1 0x1 PUSH1 0x0 SWAP1 SLOAD SWAP1 PUSH2 0x100 EXP SWAP1 DIV PUSH20 0xFFFFFFFFFFFFFFFFFFFFFFFFFFFFFFFFFFFFFFFF AND PUSH20 0xFFFFFFFFFFFFFFFFFFFFFFFFFFFFFFFFFFFFFFFF AND PUSH4 0x70A08231 PUSH1 0x1 PUSH1 0x0 SWAP1 SLOAD SWAP1 PUSH2 0x100 EXP SWAP1 DIV PUSH20 0xFFFFFFFFFFFFFFFFFFFFFFFFFFFFFFFFFFFFFFFF AND PUSH1 0x40 MLOAD DUP3 PUSH4 0xFFFFFFFF AND PUSH1 0xE0 SHL DUP2 MSTORE PUSH1 0x4 ADD PUSH2 0x579 SWAP2 SWAP1 PUSH2 0x26CF JUMP JUMPDEST PUSH1 0x20 PUSH1 0x40 MLOAD DUP1 DUP4 SUB DUP2 DUP7 GAS STATICCALL ISZERO DUP1 ISZERO PUSH2 0x596 JUMPI RETURNDATASIZE PUSH1 0x0 DUP1 RETURNDATACOPY RETURNDATASIZE PUSH1 0x0 REVERT JUMPDEST POP POP POP POP PUSH1 0x40 MLOAD RETURNDATASIZE PUSH1 0x1F NOT PUSH1 0x1F DUP3 ADD AND DUP3 ADD DUP1 PUSH1 0x40 MSTORE POP DUP2 ADD SWAP1 PUSH2 0x5BA SWAP2 SWAP1 PUSH2 0x2E23 JUMP JUMPDEST LT ISZERO PUSH2 0x5FB JUMPI PUSH1 0x40 MLOAD PUSH32 0x8C379A000000000000000000000000000000000000000000000000000000000 DUP2 MSTORE PUSH1 0x4 ADD PUSH2 0x5F2 SWAP1 PUSH2 0x2E9C JUMP JUMPDEST PUSH1 0x40 MLOAD DUP1 SWAP2 SUB SWAP1 REVERT JUMPDEST PUSH1 0x1 PUSH1 0x0 SWAP1 SLOAD SWAP1 PUSH2 0x100 EXP SWAP1 DIV PUSH20 0xFFFFFFFFFFFFFFFFFFFFFFFFFFFFFFFFFFFFFFFF AND PUSH20 0xFFFFFFFFFFFFFFFFFFFFFFFFFFFFFFFFFFFFFFFF AND PUSH4 0xA9059CBB CALLER DUP4 PUSH1 0x40 MLOAD DUP4 PUSH4 0xFFFFFFFF AND PUSH1 0xE0 SHL DUP2 MSTORE PUSH1 0x4 ADD PUSH2 0x658 SWAP3 SWAP2 SWAP1 PUSH2 0x2884 JUMP JUMPDEST PUSH1 0x20 PUSH1 0x40 MLOAD DUP1 DUP4 SUB DUP2 PUSH1 0x0 DUP8 GAS CALL ISZERO DUP1 ISZERO PUSH2 0x677 JUMPI RETURNDATASIZE PUSH1 0x0 DUP1 RETURNDATACOPY RETURNDATASIZE PUSH1 0x0 REVERT JUMPDEST POP POP POP POP PUSH1 0x40 MLOAD RETURNDATASIZE PUSH1 0x1F NOT PUSH1 0x1F DUP3 ADD AND DUP3 ADD DUP1 PUSH1 0x40 MSTORE POP DUP2 ADD SWAP1 PUSH2 0x69B SWAP2 SWAP1 PUSH2 0x2ED1 JUMP JUMPDEST PUSH2 0x6DA JUMPI PUSH1 0x40 MLOAD PUSH32 0x8C379A000000000000000000000000000000000000000000000000000000000 DUP2 MSTORE PUSH1 0x4 ADD PUSH2 0x6D1 SWAP1 PUSH2 0x2F4A JUMP JUMPDEST PUSH1 0x40 MLOAD DUP1 SWAP2 SUB SWAP1 REVERT JUMPDEST CALLER PUSH20 0xFFFFFFFFFFFFFFFFFFFFFFFFFFFFFFFFFFFFFFFF AND PUSH32 0x95DB8762F4600873DF8FDBC44F0E34FA831E5CC7396F3DDA3A5CD0825ACD5BDB CALLVALUE DUP4 PUSH1 0x40 MLOAD PUSH2 0x722 SWAP3 SWAP2 SWAP1 PUSH2 0x2F6A JUMP JUMPDEST PUSH1 0x40 MLOAD DUP1 SWAP2 SUB SWAP1 LOG2 POP JUMP JUMPDEST PUSH1 0x60 PUSH1 0x0 PUSH1 0x1 PUSH1 0x6 SLOAD PUSH2 0x740 SWAP2 SWAP1 PUSH2 0x2FC2 JUMP JUMPDEST PUSH8 0xFFFFFFFFFFFFFFFF DUP2 GT ISZERO PUSH2 0x759 JUMPI PUSH2 0x758 PUSH2 0x28B7 JUMP JUMPDEST JUMPDEST PUSH1 0x40 MLOAD SWAP1 DUP1 DUP3 MSTORE DUP1 PUSH1 0x20 MUL PUSH1 0x20 ADD DUP3 ADD PUSH1 0x40 MSTORE DUP1 ISZERO PUSH2 0x792 JUMPI DUP2 PUSH1 0x20 ADD JUMPDEST PUSH2 0x77F PUSH2 0x21E6 JUMP JUMPDEST DUP2 MSTORE PUSH1 0x20 ADD SWAP1 PUSH1 0x1 SWAP1 SUB SWAP1 DUP2 PUSH2 0x777 JUMPI SWAP1 POP JUMPDEST POP SWAP1 POP PUSH1 0x0 PUSH1 0x1 SWAP1 POP JUMPDEST PUSH1 0x6 SLOAD DUP2 LT ISZERO PUSH2 0xA40 JUMPI PUSH1 0x4 PUSH1 0x0 DUP3 DUP2 MSTORE PUSH1 0x20 ADD SWAP1 DUP2 MSTORE PUSH1 0x20 ADD PUSH1 0x0 KECCAK256 PUSH1 0x40 MLOAD DUP1 PUSH2 0x120 ADD PUSH1 0x40 MSTORE SWAP1 DUP2 PUSH1 0x0 DUP3 ADD SLOAD DUP2 MSTORE PUSH1 0x20 ADD PUSH1 0x1 DUP3 ADD DUP1 SLOAD PUSH2 0x7DF SWAP1 PUSH2 0x3025 JUMP JUMPDEST DUP1 PUSH1 0x1F ADD PUSH1 0x20 DUP1 SWAP2 DIV MUL PUSH1 0x20 ADD PUSH1 0x40 MLOAD SWAP1 DUP2 ADD PUSH1 0x40 MSTORE DUP1 SWAP3 SWAP2 SWAP1 DUP2 DUP2 MSTORE PUSH1 0x20 ADD DUP3 DUP1 SLOAD PUSH2 0x80B SWAP1 PUSH2 0x3025 JUMP JUMPDEST DUP1 ISZERO PUSH2 0x858 JUMPI DUP1 PUSH1 0x1F LT PUSH2 0x82D JUMPI PUSH2 0x100 DUP1 DUP4 SLOAD DIV MUL DUP4 MSTORE SWAP2 PUSH1 0x20 ADD SWAP2 PUSH2 0x858 JUMP JUMPDEST DUP3 ADD SWAP2 SWAP1 PUSH1 0x0 MSTORE PUSH1 0x20 PUSH1 0x0 KECCAK256 SWAP1 JUMPDEST DUP2 SLOAD DUP2 MSTORE SWAP1 PUSH1 0x1 ADD SWAP1 PUSH1 0x20 ADD DUP1 DUP4 GT PUSH2 0x83B JUMPI DUP3 SWAP1 SUB PUSH1 0x1F AND DUP3 ADD SWAP2 JUMPDEST POP POP POP POP POP DUP2 MSTORE PUSH1 0x20 ADD PUSH1 0x2 DUP3 ADD DUP1 SLOAD PUSH2 0x871 SWAP1 PUSH2 0x3025 JUMP JUMPDEST DUP1 PUSH1 0x1F ADD PUSH1 0x20 DUP1 SWAP2 DIV MUL PUSH1 0x20 ADD PUSH1 0x40 MLOAD SWAP1 DUP2 ADD PUSH1 0x40 MSTORE DUP1 SWAP3 SWAP2 SWAP1 DUP2 DUP2 MSTORE PUSH1 0x20 ADD DUP3 DUP1 SLOAD PUSH2 0x89D SWAP1 PUSH2 0x3025 JUMP JUMPDEST DUP1 ISZERO PUSH2 0x8EA JUMPI DUP1 PUSH1 0x1F LT PUSH2 0x8BF JUMPI PUSH2 0x100 DUP1 DUP4 SLOAD DIV MUL DUP4 MSTORE SWAP2 PUSH1 0x20 ADD SWAP2 PUSH2 0x8EA JUMP JUMPDEST DUP3 ADD SWAP2 SWAP1 PUSH1 0x0 MSTORE PUSH1 0x20 PUSH1 0x0 KECCAK256 SWAP1 JUMPDEST DUP2 SLOAD DUP2 MSTORE SWAP1 PUSH1 0x1 ADD SWAP1 PUSH1 0x20 ADD DUP1 DUP4 GT PUSH2 0x8CD JUMPI DUP3 SWAP1 SUB PUSH1 0x1F AND DUP3 ADD SWAP2 JUMPDEST POP POP POP POP POP DUP2 MSTORE PUSH1 0x20 ADD PUSH1 0x3 DUP3 ADD SLOAD DUP2 MSTORE PUSH1 0x20 ADD PUSH1 0x4 DUP3 ADD PUSH1 0x0 SWAP1 SLOAD SWAP1 PUSH2 0x100 EXP SWAP1 DIV PUSH20 0xFFFFFFFFFFFFFFFFFFFFFFFFFFFFFFFFFFFFFFFF AND PUSH20 0xFFFFFFFFFFFFFFFFFFFFFFFFFFFFFFFFFFFFFFFF AND PUSH20 0xFFFFFFFFFFFFFFFFFFFFFFFFFFFFFFFFFFFFFFFF AND DUP2 MSTORE PUSH1 0x20 ADD PUSH1 0x5 DUP3 ADD SLOAD DUP2 MSTORE PUSH1 0x20 ADD PUSH1 0x6 DUP3 ADD SLOAD DUP2 MSTORE PUSH1 0x20 ADD PUSH1 0x7 DUP3 ADD SLOAD DUP2 MSTORE PUSH1 0x20 ADD PUSH1 0x8 DUP3 ADD DUP1 SLOAD PUSH2 0x981 SWAP1 PUSH2 0x3025 JUMP JUMPDEST DUP1 PUSH1 0x1F ADD PUSH1 0x20 DUP1 SWAP2 DIV MUL PUSH1 0x20 ADD PUSH1 0x40 MLOAD SWAP1 DUP2 ADD PUSH1 0x40 MSTORE DUP1 SWAP3 SWAP2 SWAP1 DUP2 DUP2 MSTORE PUSH1 0x20 ADD DUP3 DUP1 SLOAD PUSH2 0x9AD SWAP1 PUSH2 0x3025 JUMP JUMPDEST DUP1 ISZERO PUSH2 0x9FA JUMPI DUP1 PUSH1 0x1F LT PUSH2 0x9CF JUMPI PUSH2 0x100 DUP1 DUP4 SLOAD DIV MUL DUP4 MSTORE SWAP2 PUSH1 0x20 ADD SWAP2 PUSH2 0x9FA JUMP JUMPDEST DUP3 ADD SWAP2 SWAP1 PUSH1 0x0 MSTORE PUSH1 0x20 PUSH1 0x0 KECCAK256 SWAP1 JUMPDEST DUP2 SLOAD DUP2 MSTORE SWAP1 PUSH1 0x1 ADD SWAP1 PUSH1 0x20 ADD DUP1 DUP4 GT PUSH2 0x9DD JUMPI DUP3 SWAP1 SUB PUSH1 0x1F AND DUP3 ADD SWAP2 JUMPDEST POP POP POP POP POP DUP2 MSTORE POP POP DUP3 PUSH1 0x1 DUP4 PUSH2 0xA11 SWAP2 SWAP1 PUSH2 0x2FC2 JUMP JUMPDEST DUP2 MLOAD DUP2 LT PUSH2 0xA22 JUMPI PUSH2 0xA21 PUSH2 0x3056 JUMP JUMPDEST JUMPDEST PUSH1 0x20 MUL PUSH1 0x20 ADD ADD DUP2 SWAP1 MSTORE POP DUP1 DUP1 PUSH2 0xA38 SWAP1 PUSH2 0x3085 JUMP JUMPDEST SWAP2 POP POP PUSH2 0x79C JUMP JUMPDEST POP DUP1 SWAP2 POP POP SWAP1 JUMP JUMPDEST PUSH1 0x7 SLOAD DUP2 JUMP JUMPDEST PUSH1 0x0 DUP1 SLOAD SWAP1 PUSH2 0x100 EXP SWAP1 DIV PUSH20 0xFFFFFFFFFFFFFFFFFFFFFFFFFFFFFFFFFFFFFFFF AND PUSH20 0xFFFFFFFFFFFFFFFFFFFFFFFFFFFFFFFFFFFFFFFF AND CALLER PUSH20 0xFFFFFFFFFFFFFFFFFFFFFFFFFFFFFFFFFFFFFFFF AND EQ PUSH2 0xADC JUMPI PUSH1 0x40 MLOAD PUSH32 0x8C379A000000000000000000000000000000000000000000000000000000000 DUP2 MSTORE PUSH1 0x4 ADD PUSH2 0xAD3 SWAP1 PUSH2 0x313F JUMP JUMPDEST PUSH1 0x40 MLOAD DUP1 SWAP2 SUB SWAP1 REVERT JUMPDEST PUSH1 0x1 PUSH1 0x0 SWAP1 SLOAD SWAP1 PUSH2 0x100 EXP SWAP1 DIV PUSH20 0xFFFFFFFFFFFFFFFFFFFFFFFFFFFFFFFFFFFFFFFF AND PUSH20 0xFFFFFFFFFFFFFFFFFFFFFFFFFFFFFFFFFFFFFFFF AND PUSH4 0xA9059CBB PUSH1 0x0 DUP1 SLOAD SWAP1 PUSH2 0x100 EXP SWAP1 DIV PUSH20 0xFFFFFFFFFFFFFFFFFFFFFFFFFFFFFFFFFFFFFFFF AND DUP4 PUSH1 0x40 MLOAD DUP4 PUSH4 0xFFFFFFFF AND PUSH1 0xE0 SHL DUP2 MSTORE PUSH1 0x4 ADD PUSH2 0xB59 SWAP3 SWAP2 SWAP1 PUSH2 0x2884 JUMP JUMPDEST PUSH1 0x20 PUSH1 0x40 MLOAD DUP1 DUP4 SUB DUP2 PUSH1 0x0 DUP8 GAS CALL ISZERO DUP1 ISZERO PUSH2 0xB78 JUMPI RETURNDATASIZE PUSH1 0x0 DUP1 RETURNDATACOPY RETURNDATASIZE PUSH1 0x0 REVERT JUMPDEST POP POP POP POP PUSH1 0x40 MLOAD RETURNDATASIZE PUSH1 0x1F NOT PUSH1 0x1F DUP3 ADD AND DUP3 ADD DUP1 PUSH1 0x40 MSTORE POP DUP2 ADD SWAP1 PUSH2 0xB9C SWAP2 SWAP1 PUSH2 0x2ED1 JUMP JUMPDEST POP CALLER PUSH20 0xFFFFFFFFFFFFFFFFFFFFFFFFFFFFFFFFFFFFFFFF AND PUSH32 0x6352C5382C4A4578E712449CA65E83CDB392D045DFCF1CAD9615189DB2DA244B DUP3 PUSH1 0x40 MLOAD PUSH2 0xBE3 SWAP2 SWAP1 PUSH2 0x25DF JUMP JUMPDEST PUSH1 0x40 MLOAD DUP1 SWAP2 SUB SWAP1 LOG2 POP JUMP JUMPDEST PUSH1 0x0 DUP1 SLOAD SWAP1 PUSH2 0x100 EXP SWAP1 DIV PUSH20 0xFFFFFFFFFFFFFFFFFFFFFFFFFFFFFFFFFFFFFFFF AND PUSH20 0xFFFFFFFFFFFFFFFFFFFFFFFFFFFFFFFFFFFFFFFF AND CALLER PUSH20 0xFFFFFFFFFFFFFFFFFFFFFFFFFFFFFFFFFFFFFFFF AND EQ PUSH2 0xC7C JUMPI PUSH1 0x40 MLOAD PUSH32 0x8C379A000000000000000000000000000000000000000000000000000000000 DUP2 MSTORE PUSH1 0x4 ADD PUSH2 0xC73 SWAP1 PUSH2 0x313F JUMP JUMPDEST PUSH1 0x40 MLOAD DUP1 SWAP2 SUB SWAP1 REVERT JUMPDEST DUP1 PUSH1 0x1 PUSH1 0x0 PUSH2 0x100 EXP DUP2 SLOAD DUP2 PUSH20 0xFFFFFFFFFFFFFFFFFFFFFFFFFFFFFFFFFFFFFFFF MUL NOT AND SWAP1 DUP4 PUSH20 0xFFFFFFFFFFFFFFFFFFFFFFFFFFFFFFFFFFFFFFFF AND MUL OR SWAP1 SSTORE POP CALLER PUSH20 0xFFFFFFFFFFFFFFFFFFFFFFFFFFFFFFFFFFFFFFFF AND PUSH32 0x6ECA818BB499E114C9A2EAD8C104A976418F0CA9C27FD7EAD167E9125E613D45 DUP3 PUSH1 0x40 MLOAD PUSH2 0xD03 SWAP2 SWAP1 PUSH2 0x26CF JUMP JUMPDEST PUSH1 0x40 MLOAD DUP1 SWAP2 SUB SWAP1 LOG2 POP JUMP JUMPDEST PUSH1 0x6 SLOAD DUP2 JUMP JUMPDEST PUSH1 0x0 PUSH20 0xFFFFFFFFFFFFFFFFFFFFFFFFFFFFFFFFFFFFFFFF AND PUSH1 0x3 PUSH1 0x0 CALLER PUSH20 0xFFFFFFFFFFFFFFFFFFFFFFFFFFFFFFFFFFFFFFFF AND PUSH20 0xFFFFFFFFFFFFFFFFFFFFFFFFFFFFFFFFFFFFFFFF AND DUP2 MSTORE PUSH1 0x20 ADD SWAP1 DUP2 MSTORE PUSH1 0x20 ADD PUSH1 0x0 KECCAK256 PUSH1 0x0 ADD PUSH1 0x0 SWAP1 SLOAD SWAP1 PUSH2 0x100 EXP SWAP1 DIV PUSH20 0xFFFFFFFFFFFFFFFFFFFFFFFFFFFFFFFFFFFFFFFF AND PUSH20 0xFFFFFFFFFFFFFFFFFFFFFFFFFFFFFFFFFFFFFFFF AND EQ PUSH2 0xDE5 JUMPI PUSH1 0x40 MLOAD PUSH32 0x8C379A000000000000000000000000000000000000000000000000000000000 DUP2 MSTORE PUSH1 0x4 ADD PUSH2 0xDDC SWAP1 PUSH2 0x31AB JUMP JUMPDEST PUSH1 0x40 MLOAD DUP1 SWAP2 SUB SWAP1 REVERT JUMPDEST PUSH1 0x40 MLOAD DUP1 PUSH1 0x40 ADD PUSH1 0x40 MSTORE DUP1 CALLER PUSH20 0xFFFFFFFFFFFFFFFFFFFFFFFFFFFFFFFFFFFFFFFF AND DUP2 MSTORE PUSH1 0x20 ADD PUSH1 0x0 PUSH8 0xFFFFFFFFFFFFFFFF DUP2 GT ISZERO PUSH2 0xE27 JUMPI PUSH2 0xE26 PUSH2 0x28B7 JUMP JUMPDEST JUMPDEST PUSH1 0x40 MLOAD SWAP1 DUP1 DUP3 MSTORE DUP1 PUSH1 0x20 MUL PUSH1 0x20 ADD DUP3 ADD PUSH1 0x40 MSTORE DUP1 ISZERO PUSH2 0xE55 JUMPI DUP2 PUSH1 0x20 ADD PUSH1 0x20 DUP3 MUL DUP1 CALLDATASIZE DUP4 CALLDATACOPY DUP1 DUP3 ADD SWAP2 POP POP SWAP1 POP JUMPDEST POP DUP2 MSTORE POP PUSH1 0x3 PUSH1 0x0 CALLER PUSH20 0xFFFFFFFFFFFFFFFFFFFFFFFFFFFFFFFFFFFFFFFF AND PUSH20 0xFFFFFFFFFFFFFFFFFFFFFFFFFFFFFFFFFFFFFFFF AND DUP2 MSTORE PUSH1 0x20 ADD SWAP1 DUP2 MSTORE PUSH1 0x20 ADD PUSH1 0x0 KECCAK256 PUSH1 0x0 DUP3 ADD MLOAD DUP2 PUSH1 0x0 ADD PUSH1 0x0 PUSH2 0x100 EXP DUP2 SLOAD DUP2 PUSH20 0xFFFFFFFFFFFFFFFFFFFFFFFFFFFFFFFFFFFFFFFF MUL NOT AND SWAP1 DUP4 PUSH20 0xFFFFFFFFFFFFFFFFFFFFFFFFFFFFFFFFFFFFFFFF AND MUL OR SWAP1 SSTORE POP PUSH1 0x20 DUP3 ADD MLOAD DUP2 PUSH1 0x1 ADD SWAP1 DUP1 MLOAD SWAP1 PUSH1 0x20 ADD SWAP1 PUSH2 0xEFB SWAP3 SWAP2 SWAP1 PUSH2 0x2248 JUMP JUMPDEST POP SWAP1 POP POP CALLER PUSH20 0xFFFFFFFFFFFFFFFFFFFFFFFFFFFFFFFFFFFFFFFF AND PUSH32 0x4D97D287A8F631378031B05CB24C876085261DDAA7B8F584477370EF473FBB3D PUSH1 0x40 MLOAD PUSH1 0x40 MLOAD DUP1 SWAP2 SUB SWAP1 LOG2 JUMP JUMPDEST PUSH1 0x5 DUP2 JUMP JUMPDEST PUSH8 0xDE0B6B3A7640000 DUP2 JUMP JUMPDEST PUSH1 0x3 PUSH1 0x20 MSTORE DUP1 PUSH1 0x0 MSTORE PUSH1 0x40 PUSH1 0x0 KECCAK256 PUSH1 0x0 SWAP2 POP SWAP1 POP DUP1 PUSH1 0x0 ADD PUSH1 0x0 SWAP1 SLOAD SWAP1 PUSH2 0x100 EXP SWAP1 DIV PUSH20 0xFFFFFFFFFFFFFFFFFFFFFFFFFFFFFFFFFFFFFFFF AND SWAP1 POP DUP2 JUMP JUMPDEST PUSH1 0x1 PUSH1 0x0 SWAP1 SLOAD SWAP1 PUSH2 0x100 EXP SWAP1 DIV PUSH20 0xFFFFFFFFFFFFFFFFFFFFFFFFFFFFFFFFFFFFFFFF AND DUP2 JUMP JUMPDEST PUSH1 0x4 PUSH1 0x20 MSTORE DUP1 PUSH1 0x0 MSTORE PUSH1 0x40 PUSH1 0x0 KECCAK256 PUSH1 0x0 SWAP2 POP SWAP1 POP DUP1 PUSH1 0x0 ADD SLOAD SWAP1 DUP1 PUSH1 0x1 ADD DUP1 SLOAD PUSH2 0xFE2 SWAP1 PUSH2 0x3025 JUMP JUMPDEST DUP1 PUSH1 0x1F ADD PUSH1 0x20 DUP1 SWAP2 DIV MUL PUSH1 0x20 ADD PUSH1 0x40 MLOAD SWAP1 DUP2 ADD PUSH1 0x40 MSTORE DUP1 SWAP3 SWAP2 SWAP1 DUP2 DUP2 MSTORE PUSH1 0x20 ADD DUP3 DUP1 SLOAD PUSH2 0x100E SWAP1 PUSH2 0x3025 JUMP JUMPDEST DUP1 ISZERO PUSH2 0x105B JUMPI DUP1 PUSH1 0x1F LT PUSH2 0x1030 JUMPI PUSH2 0x100 DUP1 DUP4 SLOAD DIV MUL DUP4 MSTORE SWAP2 PUSH1 0x20 ADD SWAP2 PUSH2 0x105B JUMP JUMPDEST DUP3 ADD SWAP2 SWAP1 PUSH1 0x0 MSTORE PUSH1 0x20 PUSH1 0x0 KECCAK256 SWAP1 JUMPDEST DUP2 SLOAD DUP2 MSTORE SWAP1 PUSH1 0x1 ADD SWAP1 PUSH1 0x20 ADD DUP1 DUP4 GT PUSH2 0x103E JUMPI DUP3 SWAP1 SUB PUSH1 0x1F AND DUP3 ADD SWAP2 JUMPDEST POP POP POP POP POP SWAP1 DUP1 PUSH1 0x2 ADD DUP1 SLOAD PUSH2 0x1070 SWAP1 PUSH2 0x3025 JUMP JUMPDEST DUP1 PUSH1 0x1F ADD PUSH1 0x20 DUP1 SWAP2 DIV MUL PUSH1 0x20 ADD PUSH1 0x40 MLOAD SWAP1 DUP2 ADD PUSH1 0x40 MSTORE DUP1 SWAP3 SWAP2 SWAP1 DUP2 DUP2 MSTORE PUSH1 0x20 ADD DUP3 DUP1 SLOAD PUSH2 0x109C SWAP1 PUSH2 0x3025 JUMP JUMPDEST DUP1 ISZERO PUSH2 0x10E9 JUMPI DUP1 PUSH1 0x1F LT PUSH2 0x10BE JUMPI PUSH2 0x100 DUP1 DUP4 SLOAD DIV MUL DUP4 MSTORE SWAP2 PUSH1 0x20 ADD SWAP2 PUSH2 0x10E9 JUMP JUMPDEST DUP3 ADD SWAP2 SWAP1 PUSH1 0x0 MSTORE PUSH1 0x20 PUSH1 0x0 KECCAK256 SWAP1 JUMPDEST DUP2 SLOAD DUP2 MSTORE SWAP1 PUSH1 0x1 ADD SWAP1 PUSH1 0x20 ADD DUP1 DUP4 GT PUSH2 0x10CC JUMPI DUP3 SWAP1 SUB PUSH1 0x1F AND DUP3 ADD SWAP2 JUMPDEST POP POP POP POP POP SWAP1 DUP1 PUSH1 0x3 ADD SLOAD SWAP1 DUP1 PUSH1 0x4 ADD PUSH1 0x0 SWAP1 SLOAD SWAP1 PUSH2 0x100 EXP SWAP1 DIV PUSH20 0xFFFFFFFFFFFFFFFFFFFFFFFFFFFFFFFFFFFFFFFF AND SWAP1 DUP1 PUSH1 0x5 ADD SLOAD SWAP1 DUP1 PUSH1 0x6 ADD SLOAD SWAP1 DUP1 PUSH1 0x7 ADD SLOAD SWAP1 DUP1 PUSH1 0x8 ADD DUP1 SLOAD PUSH2 0x113C SWAP1 PUSH2 0x3025 JUMP JUMPDEST DUP1 PUSH1 0x1F ADD PUSH1 0x20 DUP1 SWAP2 DIV MUL PUSH1 0x20 ADD PUSH1 0x40 MLOAD SWAP1 DUP2 ADD PUSH1 0x40 MSTORE DUP1 SWAP3 SWAP2 SWAP1 DUP2 DUP2 MSTORE PUSH1 0x20 ADD DUP3 DUP1 SLOAD PUSH2 0x1168 SWAP1 PUSH2 0x3025 JUMP JUMPDEST DUP1 ISZERO PUSH2 0x11B5 JUMPI DUP1 PUSH1 0x1F LT PUSH2 0x118A JUMPI PUSH2 0x100 DUP1 DUP4 SLOAD DIV MUL DUP4 MSTORE SWAP2 PUSH1 0x20 ADD SWAP2 PUSH2 0x11B5 JUMP JUMPDEST DUP3 ADD SWAP2 SWAP1 PUSH1 0x0 MSTORE PUSH1 0x20 PUSH1 0x0 KECCAK256 SWAP1 JUMPDEST DUP2 SLOAD DUP2 MSTORE SWAP1 PUSH1 0x1 ADD SWAP1 PUSH1 0x20 ADD DUP1 DUP4 GT PUSH2 0x1198 JUMPI DUP3 SWAP1 SUB PUSH1 0x1F AND DUP3 ADD SWAP2 JUMPDEST POP POP POP POP POP SWAP1 POP DUP10 JUMP JUMPDEST PUSH1 0x0 DUP1 SLOAD SWAP1 PUSH2 0x100 EXP SWAP1 DIV PUSH20 0xFFFFFFFFFFFFFFFFFFFFFFFFFFFFFFFFFFFFFFFF AND PUSH20 0xFFFFFFFFFFFFFFFFFFFFFFFFFFFFFFFFFFFFFFFF AND CALLER PUSH20 0xFFFFFFFFFFFFFFFFFFFFFFFFFFFFFFFFFFFFFFFF AND EQ PUSH2 0x124D JUMPI PUSH1 0x40 MLOAD PUSH32 0x8C379A000000000000000000000000000000000000000000000000000000000 DUP2 MSTORE PUSH1 0x4 ADD PUSH2 0x1244 SWAP1 PUSH2 0x313F JUMP JUMPDEST PUSH1 0x40 MLOAD DUP1 SWAP2 SUB SWAP1 REVERT JUMPDEST PUSH1 0x0 DUP1 SLOAD SWAP1 PUSH2 0x100 EXP SWAP1 DIV PUSH20 0xFFFFFFFFFFFFFFFFFFFFFFFFFFFFFFFFFFFFFFFF AND PUSH20 0xFFFFFFFFFFFFFFFFFFFFFFFFFFFFFFFFFFFFFFFF AND PUSH2 0x8FC DUP3 SWAP1 DUP2 ISZERO MUL SWAP1 PUSH1 0x40 MLOAD PUSH1 0x0 PUSH1 0x40 MLOAD DUP1 DUP4 SUB DUP2 DUP6 DUP9 DUP9 CALL SWAP4 POP POP POP POP ISZERO DUP1 ISZERO PUSH2 0x12B3 JUMPI RETURNDATASIZE PUSH1 0x0 DUP1 RETURNDATACOPY RETURNDATASIZE PUSH1 0x0 REVERT JUMPDEST POP CALLER PUSH20 0xFFFFFFFFFFFFFFFFFFFFFFFFFFFFFFFFFFFFFFFF AND PUSH32 0x6EFAC6899EE41C0FAB9566F807FEE81972320248574EF8ADEAC6599EA7EAE246 DUP3 PUSH1 0x40 MLOAD PUSH2 0x12FA SWAP2 SWAP1 PUSH2 0x25DF JUMP JUMPDEST PUSH1 0x40 MLOAD DUP1 SWAP2 SUB SWAP1 LOG2 POP JUMP JUMPDEST PUSH1 0x5 PUSH1 0x20 MSTORE DUP1 PUSH1 0x0 MSTORE PUSH1 0x40 PUSH1 0x0 KECCAK256 PUSH1 0x0 SWAP2 POP SWAP1 POP DUP1 PUSH1 0x0 ADD SLOAD SWAP1 DUP1 PUSH1 0x1 ADD PUSH1 0x0 SWAP1 SLOAD SWAP1 PUSH2 0x100 EXP SWAP1 DIV PUSH20 0xFFFFFFFFFFFFFFFFFFFFFFFFFFFFFFFFFFFFFFFF AND SWAP1 DUP1 PUSH1 0x2 ADD SLOAD SWAP1 DUP1 PUSH1 0x3 ADD SLOAD SWAP1 POP DUP5 JUMP JUMPDEST PUSH1 0x2 PUSH1 0x20 MSTORE DUP1 PUSH1 0x0 MSTORE PUSH1 0x40 PUSH1 0x0 KECCAK256 PUSH1 0x0 SWAP2 POP SWAP1 POP DUP1 PUSH1 0x0 ADD PUSH1 0x0 SWAP1 SLOAD SWAP1 PUSH2 0x100 EXP SWAP1 DIV PUSH20 0xFFFFFFFFFFFFFFFFFFFFFFFFFFFFFFFFFFFFFFFF AND SWAP1 DUP1 PUSH1 0x1 ADD SLOAD SWAP1 POP DUP3 JUMP JUMPDEST PUSH1 0x0 PUSH20 0xFFFFFFFFFFFFFFFFFFFFFFFFFFFFFFFFFFFFFFFF AND PUSH1 0x3 PUSH1 0x0 CALLER PUSH20 0xFFFFFFFFFFFFFFFFFFFFFFFFFFFFFFFFFFFFFFFF AND PUSH20 0xFFFFFFFFFFFFFFFFFFFFFFFFFFFFFFFFFFFFFFFF AND DUP2 MSTORE PUSH1 0x20 ADD SWAP1 DUP2 MSTORE PUSH1 0x20 ADD PUSH1 0x0 KECCAK256 PUSH1 0x0 ADD PUSH1 0x0 SWAP1 SLOAD SWAP1 PUSH2 0x100 EXP SWAP1 DIV PUSH20 0xFFFFFFFFFFFFFFFFFFFFFFFFFFFFFFFFFFFFFFFF AND PUSH20 0xFFFFFFFFFFFFFFFFFFFFFFFFFFFFFFFFFFFFFFFF AND SUB PUSH2 0x146A JUMPI PUSH1 0x40 MLOAD PUSH32 0x8C379A000000000000000000000000000000000000000000000000000000000 DUP2 MSTORE PUSH1 0x4 ADD PUSH2 0x1461 SWAP1 PUSH2 0x323D JUMP JUMPDEST PUSH1 0x40 MLOAD DUP1 SWAP2 SUB SWAP1 REVERT JUMPDEST PUSH1 0x40 MLOAD DUP1 PUSH2 0x120 ADD PUSH1 0x40 MSTORE DUP1 PUSH1 0x6 SLOAD DUP2 MSTORE PUSH1 0x20 ADD DUP9 DUP2 MSTORE PUSH1 0x20 ADD DUP8 DUP2 MSTORE PUSH1 0x20 ADD DUP7 DUP2 MSTORE PUSH1 0x20 ADD CALLER PUSH20 0xFFFFFFFFFFFFFFFFFFFFFFFFFFFFFFFFFFFFFFFF AND DUP2 MSTORE PUSH1 0x20 ADD DUP6 DUP2 MSTORE PUSH1 0x20 ADD DUP5 DUP2 MSTORE PUSH1 0x20 ADD DUP4 DUP2 MSTORE PUSH1 0x20 ADD DUP3 DUP2 MSTORE POP PUSH1 0x4 PUSH1 0x0 PUSH1 0x6 SLOAD DUP2 MSTORE PUSH1 0x20 ADD SWAP1 DUP2 MSTORE PUSH1 0x20 ADD PUSH1 0x0 KECCAK256 PUSH1 0x0 DUP3 ADD MLOAD DUP2 PUSH1 0x0 ADD SSTORE PUSH1 0x20 DUP3 ADD MLOAD DUP2 PUSH1 0x1 ADD SWAP1 DUP2 PUSH2 0x14F6 SWAP2 SWAP1 PUSH2 0x33FF JUMP JUMPDEST POP PUSH1 0x40 DUP3 ADD MLOAD DUP2 PUSH1 0x2 ADD SWAP1 DUP2 PUSH2 0x150C SWAP2 SWAP1 PUSH2 0x33FF JUMP JUMPDEST POP PUSH1 0x60 DUP3 ADD MLOAD DUP2 PUSH1 0x3 ADD SSTORE PUSH1 0x80 DUP3 ADD MLOAD DUP2 PUSH1 0x4 ADD PUSH1 0x0 PUSH2 0x100 EXP DUP2 SLOAD DUP2 PUSH20 0xFFFFFFFFFFFFFFFFFFFFFFFFFFFFFFFFFFFFFFFF MUL NOT AND SWAP1 DUP4 PUSH20 0xFFFFFFFFFFFFFFFFFFFFFFFFFFFFFFFFFFFFFFFF AND MUL OR SWAP1 SSTORE POP PUSH1 0xA0 DUP3 ADD MLOAD DUP2 PUSH1 0x5 ADD SSTORE PUSH1 0xC0 DUP3 ADD MLOAD DUP2 PUSH1 0x6 ADD SSTORE PUSH1 0xE0 DUP3 ADD MLOAD DUP2 PUSH1 0x7 ADD SSTORE PUSH2 0x100 DUP3 ADD MLOAD DUP2 PUSH1 0x8 ADD SWAP1 DUP2 PUSH2 0x1592 SWAP2 SWAP1 PUSH2 0x33FF JUMP JUMPDEST POP SWAP1 POP POP PUSH1 0x3 PUSH1 0x0 CALLER PUSH20 0xFFFFFFFFFFFFFFFFFFFFFFFFFFFFFFFFFFFFFFFF AND PUSH20 0xFFFFFFFFFFFFFFFFFFFFFFFFFFFFFFFFFFFFFFFF AND DUP2 MSTORE PUSH1 0x20 ADD SWAP1 DUP2 MSTORE PUSH1 0x20 ADD PUSH1 0x0 KECCAK256 PUSH1 0x1 ADD PUSH1 0x6 SLOAD SWAP1 DUP1 PUSH1 0x1 DUP2 SLOAD ADD DUP1 DUP3 SSTORE DUP1 SWAP2 POP POP PUSH1 0x1 SWAP1 SUB SWAP1 PUSH1 0x0 MSTORE PUSH1 0x20 PUSH1 0x0 KECCAK256 ADD PUSH1 0x0 SWAP1 SWAP2 SWAP1 SWAP2 SWAP1 SWAP2 POP SSTORE CALLER PUSH20 0xFFFFFFFFFFFFFFFFFFFFFFFFFFFFFFFFFFFFFFFF AND PUSH1 0x6 SLOAD PUSH32 0xEF311EEC1D40202FEE1909AB585DF5E024DF1930DC6BBA97722D1E60E91C01F7 DUP10 DUP8 PUSH1 0x40 MLOAD PUSH2 0x164C SWAP3 SWAP2 SWAP1 PUSH2 0x34D1 JUMP JUMPDEST PUSH1 0x40 MLOAD DUP1 SWAP2 SUB SWAP1 LOG3 PUSH1 0x6 PUSH1 0x0 DUP2 SLOAD DUP1 SWAP3 SWAP2 SWAP1 PUSH2 0x1667 SWAP1 PUSH2 0x3085 JUMP JUMPDEST SWAP2 SWAP1 POP SSTORE POP POP POP POP POP POP POP POP JUMP JUMPDEST DUP5 MLOAD DUP7 MLOAD EQ PUSH2 0x16B9 JUMPI PUSH1 0x40 MLOAD PUSH32 0x8C379A000000000000000000000000000000000000000000000000000000000 DUP2 MSTORE PUSH1 0x4 ADD PUSH2 0x16B0 SWAP1 PUSH2 0x3573 JUMP JUMPDEST PUSH1 0x40 MLOAD DUP1 SWAP2 SUB SWAP1 REVERT JUMPDEST PUSH1 0x0 PUSH1 0x64 PUSH1 0x5 DUP6 PUSH2 0x16CA SWAP2 SWAP1 PUSH2 0x3593 JUMP JUMPDEST PUSH2 0x16D4 SWAP2 SWAP1 PUSH2 0x3604 JUMP JUMPDEST SWAP1 POP PUSH1 0x0 DUP3 DUP6 PUSH2 0x16E4 SWAP2 SWAP1 PUSH2 0x2FC2 JUMP JUMPDEST SWAP1 POP DUP1 CALLVALUE LT ISZERO PUSH2 0x1729 JUMPI PUSH1 0x40 MLOAD PUSH32 0x8C379A000000000000000000000000000000000000000000000000000000000 DUP2 MSTORE PUSH1 0x4 ADD PUSH2 0x1720 SWAP1 PUSH2 0x3681 JUMP JUMPDEST PUSH1 0x40 MLOAD DUP1 SWAP2 SUB SWAP1 REVERT JUMPDEST PUSH1 0x1 PUSH1 0x0 SWAP1 SLOAD SWAP1 PUSH2 0x100 EXP SWAP1 DIV PUSH20 0xFFFFFFFFFFFFFFFFFFFFFFFFFFFFFFFFFFFFFFFF AND PUSH20 0xFFFFFFFFFFFFFFFFFFFFFFFFFFFFFFFFFFFFFFFF AND PUSH4 0x23B872DD CALLER PUSH1 0x1 PUSH1 0x0 SWAP1 SLOAD SWAP1 PUSH2 0x100 EXP SWAP1 DIV PUSH20 0xFFFFFFFFFFFFFFFFFFFFFFFFFFFFFFFFFFFFFFFF AND DUP7 PUSH1 0x40 MLOAD DUP5 PUSH4 0xFFFFFFFF AND PUSH1 0xE0 SHL DUP2 MSTORE PUSH1 0x4 ADD PUSH2 0x17AA SWAP4 SWAP3 SWAP2 SWAP1 PUSH2 0x36A1 JUMP JUMPDEST PUSH1 0x20 PUSH1 0x40 MLOAD DUP1 DUP4 SUB DUP2 PUSH1 0x0 DUP8 GAS CALL ISZERO DUP1 ISZERO PUSH2 0x17C9 JUMPI RETURNDATASIZE PUSH1 0x0 DUP1 RETURNDATACOPY RETURNDATASIZE PUSH1 0x0 REVERT JUMPDEST POP POP POP POP PUSH1 0x40 MLOAD RETURNDATASIZE PUSH1 0x1F NOT PUSH1 0x1F DUP3 ADD AND DUP3 ADD DUP1 PUSH1 0x40 MSTORE POP DUP2 ADD SWAP1 PUSH2 0x17ED SWAP2 SWAP1 PUSH2 0x2ED1 JUMP JUMPDEST PUSH2 0x182C JUMPI PUSH1 0x40 MLOAD PUSH32 0x8C379A000000000000000000000000000000000000000000000000000000000 DUP2 MSTORE PUSH1 0x4 ADD PUSH2 0x1823 SWAP1 PUSH2 0x3724 JUMP JUMPDEST PUSH1 0x40 MLOAD DUP1 SWAP2 SUB SWAP1 REVERT JUMPDEST ADDRESS PUSH20 0xFFFFFFFFFFFFFFFFFFFFFFFFFFFFFFFFFFFFFFFF AND PUSH2 0x8FC DUP4 SWAP1 DUP2 ISZERO MUL SWAP1 PUSH1 0x40 MLOAD PUSH1 0x0 PUSH1 0x40 MLOAD DUP1 DUP4 SUB DUP2 DUP6 DUP9 DUP9 CALL SWAP4 POP POP POP POP ISZERO DUP1 ISZERO PUSH2 0x1872 JUMPI RETURNDATASIZE PUSH1 0x0 DUP1 RETURNDATACOPY RETURNDATASIZE PUSH1 0x0 REVERT JUMPDEST POP PUSH1 0x0 JUMPDEST DUP9 MLOAD DUP2 LT ISZERO PUSH2 0x1EEA JUMPI PUSH1 0x0 PUSH1 0x4 PUSH1 0x0 DUP12 DUP5 DUP2 MLOAD DUP2 LT PUSH2 0x1898 JUMPI PUSH2 0x1897 PUSH2 0x3056 JUMP JUMPDEST JUMPDEST PUSH1 0x20 MUL PUSH1 0x20 ADD ADD MLOAD DUP2 MSTORE PUSH1 0x20 ADD SWAP1 DUP2 MSTORE PUSH1 0x20 ADD PUSH1 0x0 KECCAK256 PUSH1 0x40 MLOAD DUP1 PUSH2 0x120 ADD PUSH1 0x40 MSTORE SWAP1 DUP2 PUSH1 0x0 DUP3 ADD SLOAD DUP2 MSTORE PUSH1 0x20 ADD PUSH1 0x1 DUP3 ADD DUP1 SLOAD PUSH2 0x18D4 SWAP1 PUSH2 0x3025 JUMP JUMPDEST DUP1 PUSH1 0x1F ADD PUSH1 0x20 DUP1 SWAP2 DIV MUL PUSH1 0x20 ADD PUSH1 0x40 MLOAD SWAP1 DUP2 ADD PUSH1 0x40 MSTORE DUP1 SWAP3 SWAP2 SWAP1 DUP2 DUP2 MSTORE PUSH1 0x20 ADD DUP3 DUP1 SLOAD PUSH2 0x1900 SWAP1 PUSH2 0x3025 JUMP JUMPDEST DUP1 ISZERO PUSH2 0x194D JUMPI DUP1 PUSH1 0x1F LT PUSH2 0x1922 JUMPI PUSH2 0x100 DUP1 DUP4 SLOAD DIV MUL DUP4 MSTORE SWAP2 PUSH1 0x20 ADD SWAP2 PUSH2 0x194D JUMP JUMPDEST DUP3 ADD SWAP2 SWAP1 PUSH1 0x0 MSTORE PUSH1 0x20 PUSH1 0x0 KECCAK256 SWAP1 JUMPDEST DUP2 SLOAD DUP2 MSTORE SWAP1 PUSH1 0x1 ADD SWAP1 PUSH1 0x20 ADD DUP1 DUP4 GT PUSH2 0x1930 JUMPI DUP3 SWAP1 SUB PUSH1 0x1F AND DUP3 ADD SWAP2 JUMPDEST POP POP POP POP POP DUP2 MSTORE PUSH1 0x20 ADD PUSH1 0x2 DUP3 ADD DUP1 SLOAD PUSH2 0x1966 SWAP1 PUSH2 0x3025 JUMP JUMPDEST DUP1 PUSH1 0x1F ADD PUSH1 0x20 DUP1 SWAP2 DIV MUL PUSH1 0x20 ADD PUSH1 0x40 MLOAD SWAP1 DUP2 ADD PUSH1 0x40 MSTORE DUP1 SWAP3 SWAP2 SWAP1 DUP2 DUP2 MSTORE PUSH1 0x20 ADD DUP3 DUP1 SLOAD PUSH2 0x1992 SWAP1 PUSH2 0x3025 JUMP JUMPDEST DUP1 ISZERO PUSH2 0x19DF JUMPI DUP1 PUSH1 0x1F LT PUSH2 0x19B4 JUMPI PUSH2 0x100 DUP1 DUP4 SLOAD DIV MUL DUP4 MSTORE SWAP2 PUSH1 0x20 ADD SWAP2 PUSH2 0x19DF JUMP JUMPDEST DUP3 ADD SWAP2 SWAP1 PUSH1 0x0 MSTORE PUSH1 0x20 PUSH1 0x0 KECCAK256 SWAP1 JUMPDEST DUP2 SLOAD DUP2 MSTORE SWAP1 PUSH1 0x1 ADD SWAP1 PUSH1 0x20 ADD DUP1 DUP4 GT PUSH2 0x19C2 JUMPI DUP3 SWAP1 SUB PUSH1 0x1F AND DUP3 ADD SWAP2 JUMPDEST POP POP POP POP POP DUP2 MSTORE PUSH1 0x20 ADD PUSH1 0x3 DUP3 ADD SLOAD DUP2 MSTORE PUSH1 0x20 ADD PUSH1 0x4 DUP3 ADD PUSH1 0x0 SWAP1 SLOAD SWAP1 PUSH2 0x100 EXP SWAP1 DIV PUSH20 0xFFFFFFFFFFFFFFFFFFFFFFFFFFFFFFFFFFFFFFFF AND PUSH20 0xFFFFFFFFFFFFFFFFFFFFFFFFFFFFFFFFFFFFFFFF AND PUSH20 0xFFFFFFFFFFFFFFFFFFFFFFFFFFFFFFFFFFFFFFFF AND DUP2 MSTORE PUSH1 0x20 ADD PUSH1 0x5 DUP3 ADD SLOAD DUP2 MSTORE PUSH1 0x20 ADD PUSH1 0x6 DUP3 ADD SLOAD DUP2 MSTORE PUSH1 0x20 ADD PUSH1 0x7 DUP3 ADD SLOAD DUP2 MSTORE PUSH1 0x20 ADD PUSH1 0x8 DUP3 ADD DUP1 SLOAD PUSH2 0x1A76 SWAP1 PUSH2 0x3025 JUMP JUMPDEST DUP1 PUSH1 0x1F ADD PUSH1 0x20 DUP1 SWAP2 DIV MUL PUSH1 0x20 ADD PUSH1 0x40 MLOAD SWAP1 DUP2 ADD PUSH1 0x40 MSTORE DUP1 SWAP3 SWAP2 SWAP1 DUP2 DUP2 MSTORE PUSH1 0x20 ADD DUP3 DUP1 SLOAD PUSH2 0x1AA2 SWAP1 PUSH2 0x3025 JUMP JUMPDEST DUP1 ISZERO PUSH2 0x1AEF JUMPI DUP1 PUSH1 0x1F LT PUSH2 0x1AC4 JUMPI PUSH2 0x100 DUP1 DUP4 SLOAD DIV MUL DUP4 MSTORE SWAP2 PUSH1 0x20 ADD SWAP2 PUSH2 0x1AEF JUMP JUMPDEST DUP3 ADD SWAP2 SWAP1 PUSH1 0x0 MSTORE PUSH1 0x20 PUSH1 0x0 KECCAK256 SWAP1 JUMPDEST DUP2 SLOAD DUP2 MSTORE SWAP1 PUSH1 0x1 ADD SWAP1 PUSH1 0x20 ADD DUP1 DUP4 GT PUSH2 0x1AD2 JUMPI DUP3 SWAP1 SUB PUSH1 0x1F AND DUP3 ADD SWAP2 JUMPDEST POP POP POP POP POP DUP2 MSTORE POP POP SWAP1 POP PUSH1 0x0 DUP10 DUP4 DUP2 MLOAD DUP2 LT PUSH2 0x1B0F JUMPI PUSH2 0x1B0E PUSH2 0x3056 JUMP JUMPDEST JUMPDEST PUSH1 0x20 MUL PUSH1 0x20 ADD ADD MLOAD DUP3 PUSH1 0xA0 ADD MLOAD PUSH2 0x1B26 SWAP2 SWAP1 PUSH2 0x3593 JUMP JUMPDEST SWAP1 POP DUP9 DUP4 DUP2 MLOAD DUP2 LT PUSH2 0x1B3B JUMPI PUSH2 0x1B3A PUSH2 0x3056 JUMP JUMPDEST JUMPDEST PUSH1 0x20 MUL PUSH1 0x20 ADD ADD MLOAD ISZERO PUSH2 0x1BBB JUMPI DUP2 PUSH1 0x80 ADD MLOAD PUSH20 0xFFFFFFFFFFFFFFFFFFFFFFFFFFFFFFFFFFFFFFFF AND PUSH2 0x8FC PUSH1 0x64 PUSH1 0x5 DUP5 PUSH2 0x1B75 SWAP2 SWAP1 PUSH2 0x3593 JUMP JUMPDEST PUSH2 0x1B7F SWAP2 SWAP1 PUSH2 0x3604 JUMP JUMPDEST DUP4 PUSH2 0x1B8A SWAP2 SWAP1 PUSH2 0x2FC2 JUMP JUMPDEST SWAP1 DUP2 ISZERO MUL SWAP1 PUSH1 0x40 MLOAD PUSH1 0x0 PUSH1 0x40 MLOAD DUP1 DUP4 SUB DUP2 DUP6 DUP9 DUP9 CALL SWAP4 POP POP POP POP ISZERO DUP1 ISZERO PUSH2 0x1BB5 JUMPI RETURNDATASIZE PUSH1 0x0 DUP1 RETURNDATACOPY RETURNDATASIZE PUSH1 0x0 REVERT JUMPDEST POP PUSH2 0x1CE2 JUMP JUMPDEST DUP2 PUSH1 0x80 ADD MLOAD PUSH20 0xFFFFFFFFFFFFFFFFFFFFFFFFFFFFFFFFFFFFFFFF AND PUSH2 0x8FC PUSH1 0x64 PUSH1 0x5 DUP5 PUSH2 0x1BE8 SWAP2 SWAP1 PUSH2 0x3593 JUMP JUMPDEST PUSH2 0x1BF2 SWAP2 SWAP1 PUSH2 0x3604 JUMP JUMPDEST DUP5 PUSH1 0xE0 ADD MLOAD DUP5 PUSH2 0x1C02 SWAP2 SWAP1 PUSH2 0x2FC2 JUMP JUMPDEST PUSH2 0x1C0C SWAP2 SWAP1 PUSH2 0x2FC2 JUMP JUMPDEST SWAP1 DUP2 ISZERO MUL SWAP1 PUSH1 0x40 MLOAD PUSH1 0x0 PUSH1 0x40 MLOAD DUP1 DUP4 SUB DUP2 DUP6 DUP9 DUP9 CALL SWAP4 POP POP POP POP ISZERO DUP1 ISZERO PUSH2 0x1C37 JUMPI RETURNDATASIZE PUSH1 0x0 DUP1 RETURNDATACOPY RETURNDATASIZE PUSH1 0x0 REVERT JUMPDEST POP PUSH1 0x1 PUSH1 0x0 SWAP1 SLOAD SWAP1 PUSH2 0x100 EXP SWAP1 DIV PUSH20 0xFFFFFFFFFFFFFFFFFFFFFFFFFFFFFFFFFFFFFFFF AND PUSH20 0xFFFFFFFFFFFFFFFFFFFFFFFFFFFFFFFFFFFFFFFF AND PUSH4 0xA9059CBB DUP4 PUSH1 0x80 ADD MLOAD DUP5 PUSH1 0xE0 ADD MLOAD PUSH1 0x40 MLOAD DUP4 PUSH4 0xFFFFFFFF AND PUSH1 0xE0 SHL DUP2 MSTORE PUSH1 0x4 ADD PUSH2 0x1C9D SWAP3 SWAP2 SWAP1 PUSH2 0x2884 JUMP JUMPDEST PUSH1 0x20 PUSH1 0x40 MLOAD DUP1 DUP4 SUB DUP2 PUSH1 0x0 DUP8 GAS CALL ISZERO DUP1 ISZERO PUSH2 0x1CBC JUMPI RETURNDATASIZE PUSH1 0x0 DUP1 RETURNDATACOPY RETURNDATASIZE PUSH1 0x0 REVERT JUMPDEST POP POP POP POP PUSH1 0x40 MLOAD RETURNDATASIZE PUSH1 0x1F NOT PUSH1 0x1F DUP3 ADD AND DUP3 ADD DUP1 PUSH1 0x40 MSTORE POP DUP2 ADD SWAP1 PUSH2 0x1CE0 SWAP2 SWAP1 PUSH2 0x2ED1 JUMP JUMPDEST POP JUMPDEST PUSH1 0x40 MLOAD DUP1 PUSH1 0x80 ADD PUSH1 0x40 MSTORE DUP1 PUSH1 0x7 SLOAD DUP2 MSTORE PUSH1 0x20 ADD CALLER PUSH20 0xFFFFFFFFFFFFFFFFFFFFFFFFFFFFFFFFFFFFFFFF AND DUP2 MSTORE PUSH1 0x20 ADD DUP13 DUP6 DUP2 MLOAD DUP2 LT PUSH2 0x1D24 JUMPI PUSH2 0x1D23 PUSH2 0x3056 JUMP JUMPDEST JUMPDEST PUSH1 0x20 MUL PUSH1 0x20 ADD ADD MLOAD DUP2 MSTORE PUSH1 0x20 ADD DUP12 DUP6 DUP2 MLOAD DUP2 LT PUSH2 0x1D44 JUMPI PUSH2 0x1D43 PUSH2 0x3056 JUMP JUMPDEST JUMPDEST PUSH1 0x20 MUL PUSH1 0x20 ADD ADD MLOAD DUP2 MSTORE POP PUSH1 0x5 PUSH1 0x0 PUSH1 0x7 SLOAD DUP2 MSTORE PUSH1 0x20 ADD SWAP1 DUP2 MSTORE PUSH1 0x20 ADD PUSH1 0x0 KECCAK256 PUSH1 0x0 DUP3 ADD MLOAD DUP2 PUSH1 0x0 ADD SSTORE PUSH1 0x20 DUP3 ADD MLOAD DUP2 PUSH1 0x1 ADD PUSH1 0x0 PUSH2 0x100 EXP DUP2 SLOAD DUP2 PUSH20 0xFFFFFFFFFFFFFFFFFFFFFFFFFFFFFFFFFFFFFFFF MUL NOT AND SWAP1 DUP4 PUSH20 0xFFFFFFFFFFFFFFFFFFFFFFFFFFFFFFFFFFFFFFFF AND MUL OR SWAP1 SSTORE POP PUSH1 0x40 DUP3 ADD MLOAD DUP2 PUSH1 0x2 ADD SSTORE PUSH1 0x60 DUP3 ADD MLOAD DUP2 PUSH1 0x3 ADD SSTORE SWAP1 POP POP PUSH1 0x2 PUSH1 0x0 CALLER PUSH20 0xFFFFFFFFFFFFFFFFFFFFFFFFFFFFFFFFFFFFFFFF AND PUSH20 0xFFFFFFFFFFFFFFFFFFFFFFFFFFFFFFFFFFFFFFFF AND DUP2 MSTORE PUSH1 0x20 ADD SWAP1 DUP2 MSTORE PUSH1 0x20 ADD PUSH1 0x0 KECCAK256 PUSH1 0x2 ADD PUSH1 0x7 SLOAD SWAP1 DUP1 PUSH1 0x1 DUP2 SLOAD ADD DUP1 DUP3 SSTORE DUP1 SWAP2 POP POP PUSH1 0x1 SWAP1 SUB SWAP1 PUSH1 0x0 MSTORE PUSH1 0x20 PUSH1 0x0 KECCAK256 ADD PUSH1 0x0 SWAP1 SWAP2 SWAP1 SWAP2 SWAP1 SWAP2 POP SSTORE DUP11 DUP4 DUP2 MLOAD DUP2 LT PUSH2 0x1E4A JUMPI PUSH2 0x1E49 PUSH2 0x3056 JUMP JUMPDEST JUMPDEST PUSH1 0x20 MUL PUSH1 0x20 ADD ADD MLOAD CALLER PUSH20 0xFFFFFFFFFFFFFFFFFFFFFFFFFFFFFFFFFFFFFFFF AND PUSH1 0x7 SLOAD PUSH32 0x7D3C39A6CCE20F6949EFF0833A4D54FCA734DC7C6027773D8885E7FAEAC98A95 DUP14 DUP8 DUP2 MLOAD DUP2 LT PUSH2 0x1EA0 JUMPI PUSH2 0x1E9F PUSH2 0x3056 JUMP JUMPDEST JUMPDEST PUSH1 0x20 MUL PUSH1 0x20 ADD ADD MLOAD PUSH1 0x40 MLOAD PUSH2 0x1EB5 SWAP2 SWAP1 PUSH2 0x25DF JUMP JUMPDEST PUSH1 0x40 MLOAD DUP1 SWAP2 SUB SWAP1 LOG4 PUSH1 0x7 PUSH1 0x0 DUP2 SLOAD DUP1 SWAP3 SWAP2 SWAP1 PUSH2 0x1ED0 SWAP1 PUSH2 0x3085 JUMP JUMPDEST SWAP2 SWAP1 POP SSTORE POP POP POP DUP1 DUP1 PUSH2 0x1EE2 SWAP1 PUSH2 0x3085 JUMP JUMPDEST SWAP2 POP POP PUSH2 0x1876 JUMP JUMPDEST POP PUSH1 0x1 PUSH1 0x0 SWAP1 SLOAD SWAP1 PUSH2 0x100 EXP SWAP1 DIV PUSH20 0xFFFFFFFFFFFFFFFFFFFFFFFFFFFFFFFFFFFFFFFF AND PUSH20 0xFFFFFFFFFFFFFFFFFFFFFFFFFFFFFFFFFFFFFFFF AND PUSH4 0xA9059CBB CALLER DUP7 PUSH1 0x40 MLOAD DUP4 PUSH4 0xFFFFFFFF AND PUSH1 0xE0 SHL DUP2 MSTORE PUSH1 0x4 ADD PUSH2 0x1F48 SWAP3 SWAP2 SWAP1 PUSH2 0x2884 JUMP JUMPDEST PUSH1 0x20 PUSH1 0x40 MLOAD DUP1 DUP4 SUB DUP2 PUSH1 0x0 DUP8 GAS CALL ISZERO DUP1 ISZERO PUSH2 0x1F67 JUMPI RETURNDATASIZE PUSH1 0x0 DUP1 RETURNDATACOPY RETURNDATASIZE PUSH1 0x0 REVERT JUMPDEST POP POP POP POP PUSH1 0x40 MLOAD RETURNDATASIZE PUSH1 0x1F NOT PUSH1 0x1F DUP3 ADD AND DUP3 ADD DUP1 PUSH1 0x40 MSTORE POP DUP2 ADD SWAP1 PUSH2 0x1F8B SWAP2 SWAP1 PUSH2 0x2ED1 JUMP JUMPDEST POP POP POP POP POP POP POP POP POP JUMP JUMPDEST PUSH1 0x0 DUP1 SLOAD SWAP1 PUSH2 0x100 EXP SWAP1 DIV PUSH20 0xFFFFFFFFFFFFFFFFFFFFFFFFFFFFFFFFFFFFFFFF AND DUP2 JUMP JUMPDEST PUSH1 0x0 DUP2 GT PUSH2 0x1FFD JUMPI PUSH1 0x40 MLOAD PUSH32 0x8C379A000000000000000000000000000000000000000000000000000000000 DUP2 MSTORE PUSH1 0x4 ADD PUSH2 0x1FF4 SWAP1 PUSH2 0x3790 JUMP JUMPDEST PUSH1 0x40 MLOAD DUP1 SWAP2 SUB SWAP1 REVERT JUMPDEST PUSH1 0x0 PUSH2 0x201A PUSH8 0xDE0B6B3A7640000 DUP4 PUSH2 0x21D0 SWAP1 SWAP2 SWAP1 PUSH4 0xFFFFFFFF AND JUMP JUMPDEST SWAP1 POP PUSH1 0x1 PUSH1 0x0 SWAP1 SLOAD SWAP1 PUSH2 0x100 EXP SWAP1 DIV PUSH20 0xFFFFFFFFFFFFFFFFFFFFFFFFFFFFFFFFFFFFFFFF AND PUSH20 0xFFFFFFFFFFFFFFFFFFFFFFFFFFFFFFFFFFFFFFFF AND PUSH4 0x23B872DD CALLER PUSH1 0x1 PUSH1 0x0 SWAP1 SLOAD SWAP1 PUSH2 0x100 EXP SWAP1 DIV PUSH20 0xFFFFFFFFFFFFFFFFFFFFFFFFFFFFFFFFFFFFFFFF AND DUP6 PUSH1 0x40 MLOAD DUP5 PUSH4 0xFFFFFFFF AND PUSH1 0xE0 SHL DUP2 MSTORE PUSH1 0x4 ADD PUSH2 0x209D SWAP4 SWAP3 SWAP2 SWAP1 PUSH2 0x36A1 JUMP JUMPDEST PUSH1 0x20 PUSH1 0x40 MLOAD DUP1 DUP4 SUB DUP2 PUSH1 0x0 DUP8 GAS CALL ISZERO DUP1 ISZERO PUSH2 0x20BC JUMPI RETURNDATASIZE PUSH1 0x0 DUP1 RETURNDATACOPY RETURNDATASIZE PUSH1 0x0 REVERT JUMPDEST POP POP POP POP PUSH1 0x40 MLOAD RETURNDATASIZE PUSH1 0x1F NOT PUSH1 0x1F DUP3 ADD AND DUP3 ADD DUP1 PUSH1 0x40 MSTORE POP DUP2 ADD SWAP1 PUSH2 0x20E0 SWAP2 SWAP1 PUSH2 0x2ED1 JUMP JUMPDEST PUSH2 0x211F JUMPI PUSH1 0x40 MLOAD PUSH32 0x8C379A000000000000000000000000000000000000000000000000000000000 DUP2 MSTORE PUSH1 0x4 ADD PUSH2 0x2116 SWAP1 PUSH2 0x2F4A JUMP JUMPDEST PUSH1 0x40 MLOAD DUP1 SWAP2 SUB SWAP1 REVERT JUMPDEST CALLER PUSH20 0xFFFFFFFFFFFFFFFFFFFFFFFFFFFFFFFFFFFFFFFF AND PUSH2 0x8FC DUP3 SWAP1 DUP2 ISZERO MUL SWAP1 PUSH1 0x40 MLOAD PUSH1 0x0 PUSH1 0x40 MLOAD DUP1 DUP4 SUB DUP2 DUP6 DUP9 DUP9 CALL SWAP4 POP POP POP POP ISZERO DUP1 ISZERO PUSH2 0x2165 JUMPI RETURNDATASIZE PUSH1 0x0 DUP1 RETURNDATACOPY RETURNDATASIZE PUSH1 0x0 REVERT JUMPDEST POP CALLER PUSH20 0xFFFFFFFFFFFFFFFFFFFFFFFFFFFFFFFFFFFFFFFF AND PUSH32 0xAE8BCD366B92D4B55D90C0CCBFD8A50A60BAE24F201C5899A989E99A3D877B93 DUP4 DUP4 PUSH1 0x40 MLOAD PUSH2 0x21AE SWAP3 SWAP2 SWAP1 PUSH2 0x2F6A JUMP JUMPDEST PUSH1 0x40 MLOAD DUP1 SWAP2 SUB SWAP1 LOG2 POP POP JUMP JUMPDEST PUSH1 0x0 DUP2 DUP4 PUSH2 0x21C8 SWAP2 SWAP1 PUSH2 0x3604 JUMP JUMPDEST SWAP1 POP SWAP3 SWAP2 POP POP JUMP JUMPDEST PUSH1 0x0 DUP2 DUP4 PUSH2 0x21DE SWAP2 SWAP1 PUSH2 0x3593 JUMP JUMPDEST SWAP1 POP SWAP3 SWAP2 POP POP JUMP JUMPDEST PUSH1 0x40 MLOAD DUP1 PUSH2 0x120 ADD PUSH1 0x40 MSTORE DUP1 PUSH1 0x0 DUP2 MSTORE PUSH1 0x20 ADD PUSH1 0x60 DUP2 MSTORE PUSH1 0x20 ADD PUSH1 0x60 DUP2 MSTORE PUSH1 0x20 ADD PUSH1 0x0 DUP2 MSTORE PUSH1 0x20 ADD PUSH1 0x0 PUSH20 0xFFFFFFFFFFFFFFFFFFFFFFFFFFFFFFFFFFFFFFFF AND DUP2 MSTORE PUSH1 0x20 ADD PUSH1 0x0 DUP2 MSTORE PUSH1 0x20 ADD PUSH1 0x0 DUP2 MSTORE PUSH1 0x20 ADD PUSH1 0x0 DUP2 MSTORE PUSH1 0x20 ADD PUSH1 0x60 DUP2 MSTORE POP SWAP1 JUMP JUMPDEST DUP3 DUP1 SLOAD DUP3 DUP3 SSTORE SWAP1 PUSH1 0x0 MSTORE PUSH1 0x20 PUSH1 0x0 KECCAK256 SWAP1 DUP2 ADD SWAP3 DUP3 ISZERO PUSH2 0x2284 JUMPI SWAP2 PUSH1 0x20 MUL DUP3 ADD JUMPDEST DUP3 DUP2 GT ISZERO PUSH2 0x2283 JUMPI DUP3 MLOAD DUP3 SSTORE SWAP2 PUSH1 0x20 ADD SWAP2 SWAP1 PUSH1 0x1 ADD SWAP1 PUSH2 0x2268 JUMP JUMPDEST JUMPDEST POP SWAP1 POP PUSH2 0x2291 SWAP2 SWAP1 PUSH2 0x2295 JUMP JUMPDEST POP SWAP1 JUMP JUMPDEST JUMPDEST DUP1 DUP3 GT ISZERO PUSH2 0x22AE JUMPI PUSH1 0x0 DUP2 PUSH1 0x0 SWAP1 SSTORE POP PUSH1 0x1 ADD PUSH2 0x2296 JUMP JUMPDEST POP SWAP1 JUMP JUMPDEST PUSH1 0x0 DUP3 DUP3 MSTORE PUSH1 0x20 DUP3 ADD SWAP1 POP SWAP3 SWAP2 POP POP JUMP JUMPDEST PUSH32 0x4F7065726174696F6E206E6F7420737570706F72746564000000000000000000 PUSH1 0x0 DUP3 ADD MSTORE POP JUMP JUMPDEST PUSH1 0x0 PUSH2 0x22F9 PUSH1 0x17 DUP4 PUSH2 0x22B2 JUMP JUMPDEST SWAP2 POP PUSH2 0x2304 DUP3 PUSH2 0x22C3 JUMP JUMPDEST PUSH1 0x20 DUP3 ADD SWAP1 POP SWAP2 SWAP1 POP JUMP JUMPDEST PUSH1 0x0 PUSH1 0x20 DUP3 ADD SWAP1 POP DUP2 DUP2 SUB PUSH1 0x0 DUP4 ADD MSTORE PUSH2 0x2328 DUP2 PUSH2 0x22EC JUMP JUMPDEST SWAP1 POP SWAP2 SWAP1 POP JUMP JUMPDEST PUSH1 0x0 DUP2 MLOAD SWAP1 POP SWAP2 SWAP1 POP JUMP JUMPDEST PUSH1 0x0 DUP3 DUP3 MSTORE PUSH1 0x20 DUP3 ADD SWAP1 POP SWAP3 SWAP2 POP POP JUMP JUMPDEST PUSH1 0x0 DUP2 SWAP1 POP PUSH1 0x20 DUP3 ADD SWAP1 POP SWAP2 SWAP1 POP JUMP JUMPDEST PUSH1 0x0 DUP2 SWAP1 POP SWAP2 SWAP1 POP JUMP JUMPDEST PUSH2 0x236E DUP2 PUSH2 0x235B JUMP JUMPDEST DUP3 MSTORE POP POP JUMP JUMPDEST PUSH1 0x0 DUP2 MLOAD SWAP1 POP SWAP2 SWAP1 POP JUMP JUMPDEST PUSH1 0x0 DUP3 DUP3 MSTORE PUSH1 0x20 DUP3 ADD SWAP1 POP SWAP3 SWAP2 POP POP JUMP JUMPDEST PUSH1 0x0 JUMPDEST DUP4 DUP2 LT ISZERO PUSH2 0x23AE JUMPI DUP1 DUP3 ADD MLOAD DUP2 DUP5 ADD MSTORE PUSH1 0x20 DUP2 ADD SWAP1 POP PUSH2 0x2393 JUMP JUMPDEST PUSH1 0x0 DUP5 DUP5 ADD MSTORE POP POP POP POP JUMP JUMPDEST PUSH1 0x0 PUSH1 0x1F NOT PUSH1 0x1F DUP4 ADD AND SWAP1 POP SWAP2 SWAP1 POP JUMP JUMPDEST PUSH1 0x0 PUSH2 0x23D6 DUP3 PUSH2 0x2374 JUMP JUMPDEST PUSH2 0x23E0 DUP2 DUP6 PUSH2 0x237F JUMP JUMPDEST SWAP4 POP PUSH2 0x23F0 DUP2 DUP6 PUSH1 0x20 DUP7 ADD PUSH2 0x2390 JUMP JUMPDEST PUSH2 0x23F9 DUP2 PUSH2 0x23BA JUMP JUMPDEST DUP5 ADD SWAP2 POP POP SWAP3 SWAP2 POP POP JUMP JUMPDEST PUSH1 0x0 PUSH20 0xFFFFFFFFFFFFFFFFFFFFFFFFFFFFFFFFFFFFFFFF DUP3 AND SWAP1 POP SWAP2 SWAP1 POP JUMP JUMPDEST PUSH1 0x0 PUSH2 0x242F DUP3 PUSH2 0x2404 JUMP JUMPDEST SWAP1 POP SWAP2 SWAP1 POP JUMP JUMPDEST PUSH2 0x243F DUP2 PUSH2 0x2424 JUMP JUMPDEST DUP3 MSTORE POP POP JUMP JUMPDEST PUSH1 0x0 PUSH2 0x120 DUP4 ADD PUSH1 0x0 DUP4 ADD MLOAD PUSH2 0x245E PUSH1 0x0 DUP7 ADD DUP3 PUSH2 0x2365 JUMP JUMPDEST POP PUSH1 0x20 DUP4 ADD MLOAD DUP5 DUP3 SUB PUSH1 0x20 DUP7 ADD MSTORE PUSH2 0x2476 DUP3 DUP3 PUSH2 0x23CB JUMP JUMPDEST SWAP2 POP POP PUSH1 0x40 DUP4 ADD MLOAD DUP5 DUP3 SUB PUSH1 0x40 DUP7 ADD MSTORE PUSH2 0x2490 DUP3 DUP3 PUSH2 0x23CB JUMP JUMPDEST SWAP2 POP POP PUSH1 0x60 DUP4 ADD MLOAD PUSH2 0x24A5 PUSH1 0x60 DUP7 ADD DUP3 PUSH2 0x2365 JUMP JUMPDEST POP PUSH1 0x80 DUP4 ADD MLOAD PUSH2 0x24B8 PUSH1 0x80 DUP7 ADD DUP3 PUSH2 0x2436 JUMP JUMPDEST POP PUSH1 0xA0 DUP4 ADD MLOAD PUSH2 0x24CB PUSH1 0xA0 DUP7 ADD DUP3 PUSH2 0x2365 JUMP JUMPDEST POP PUSH1 0xC0 DUP4 ADD MLOAD PUSH2 0x24DE PUSH1 0xC0 DUP7 ADD DUP3 PUSH2 0x2365 JUMP JUMPDEST POP PUSH1 0xE0 DUP4 ADD MLOAD PUSH2 0x24F1 PUSH1 0xE0 DUP7 ADD DUP3 PUSH2 0x2365 JUMP JUMPDEST POP PUSH2 0x100 DUP4 ADD MLOAD DUP5 DUP3 SUB PUSH2 0x100 DUP7 ADD MSTORE PUSH2 0x250B DUP3 DUP3 PUSH2 0x23CB JUMP JUMPDEST SWAP2 POP POP DUP1 SWAP2 POP POP SWAP3 SWAP2 POP POP JUMP JUMPDEST PUSH1 0x0 PUSH2 0x2524 DUP4 DUP4 PUSH2 0x2445 JUMP JUMPDEST SWAP1 POP SWAP3 SWAP2 POP POP JUMP JUMPDEST PUSH1 0x0 PUSH1 0x20 DUP3 ADD SWAP1 POP SWAP2 SWAP1 POP JUMP JUMPDEST PUSH1 0x0 PUSH2 0x2544 DUP3 PUSH2 0x232F JUMP JUMPDEST PUSH2 0x254E DUP2 DUP6 PUSH2 0x233A JUMP JUMPDEST SWAP4 POP DUP4 PUSH1 0x20 DUP3 MUL DUP6 ADD PUSH2 0x2560 DUP6 PUSH2 0x234B JUMP JUMPDEST DUP1 PUSH1 0x0 JUMPDEST DUP6 DUP2 LT ISZERO PUSH2 0x259C JUMPI DUP5 DUP5 SUB DUP10 MSTORE DUP2 MLOAD PUSH2 0x257D DUP6 DUP3 PUSH2 0x2518 JUMP JUMPDEST SWAP5 POP PUSH2 0x2588 DUP4 PUSH2 0x252C JUMP JUMPDEST SWAP3 POP PUSH1 0x20 DUP11 ADD SWAP10 POP POP PUSH1 0x1 DUP2 ADD SWAP1 POP PUSH2 0x2564 JUMP JUMPDEST POP DUP3 SWAP8 POP DUP8 SWAP6 POP POP POP POP POP POP SWAP3 SWAP2 POP POP JUMP JUMPDEST PUSH1 0x0 PUSH1 0x20 DUP3 ADD SWAP1 POP DUP2 DUP2 SUB PUSH1 0x0 DUP4 ADD MSTORE PUSH2 0x25C8 DUP2 DUP5 PUSH2 0x2539 JUMP JUMPDEST SWAP1 POP SWAP3 SWAP2 POP POP JUMP JUMPDEST PUSH2 0x25D9 DUP2 PUSH2 0x235B JUMP JUMPDEST DUP3 MSTORE POP POP JUMP JUMPDEST PUSH1 0x0 PUSH1 0x20 DUP3 ADD SWAP1 POP PUSH2 0x25F4 PUSH1 0x0 DUP4 ADD DUP5 PUSH2 0x25D0 JUMP JUMPDEST SWAP3 SWAP2 POP POP JUMP JUMPDEST PUSH1 0x0 PUSH1 0x40 MLOAD SWAP1 POP SWAP1 JUMP JUMPDEST PUSH1 0x0 DUP1 REVERT JUMPDEST PUSH1 0x0 DUP1 REVERT JUMPDEST PUSH2 0x2617 DUP2 PUSH2 0x235B JUMP JUMPDEST DUP2 EQ PUSH2 0x2622 JUMPI PUSH1 0x0 DUP1 REVERT JUMPDEST POP JUMP JUMPDEST PUSH1 0x0 DUP2 CALLDATALOAD SWAP1 POP PUSH2 0x2634 DUP2 PUSH2 0x260E JUMP JUMPDEST SWAP3 SWAP2 POP POP JUMP JUMPDEST PUSH1 0x0 PUSH1 0x20 DUP3 DUP5 SUB SLT ISZERO PUSH2 0x2650 JUMPI PUSH2 0x264F PUSH2 0x2604 JUMP JUMPDEST JUMPDEST PUSH1 0x0 PUSH2 0x265E DUP5 DUP3 DUP6 ADD PUSH2 0x2625 JUMP JUMPDEST SWAP2 POP POP SWAP3 SWAP2 POP POP JUMP JUMPDEST PUSH2 0x2670 DUP2 PUSH2 0x2424 JUMP JUMPDEST DUP2 EQ PUSH2 0x267B JUMPI PUSH1 0x0 DUP1 REVERT JUMPDEST POP JUMP JUMPDEST PUSH1 0x0 DUP2 CALLDATALOAD SWAP1 POP PUSH2 0x268D DUP2 PUSH2 0x2667 JUMP JUMPDEST SWAP3 SWAP2 POP POP JUMP JUMPDEST PUSH1 0x0 PUSH1 0x20 DUP3 DUP5 SUB SLT ISZERO PUSH2 0x26A9 JUMPI PUSH2 0x26A8 PUSH2 0x2604 JUMP JUMPDEST JUMPDEST PUSH1 0x0 PUSH2 0x26B7 DUP5 DUP3 DUP6 ADD PUSH2 0x267E JUMP JUMPDEST SWAP2 POP POP SWAP3 SWAP2 POP POP JUMP JUMPDEST PUSH2 0x26C9 DUP2 PUSH2 0x2424 JUMP JUMPDEST DUP3 MSTORE POP POP JUMP JUMPDEST PUSH1 0x0 PUSH1 0x20 DUP3 ADD SWAP1 POP PUSH2 0x26E4 PUSH1 0x0 DUP4 ADD DUP5 PUSH2 0x26C0 JUMP JUMPDEST SWAP3 SWAP2 POP POP JUMP JUMPDEST PUSH1 0x0 DUP2 SWAP1 POP SWAP2 SWAP1 POP JUMP JUMPDEST PUSH1 0x0 PUSH2 0x270F PUSH2 0x270A PUSH2 0x2705 DUP5 PUSH2 0x2404 JUMP JUMPDEST PUSH2 0x26EA JUMP JUMPDEST PUSH2 0x2404 JUMP JUMPDEST SWAP1 POP SWAP2 SWAP1 POP JUMP JUMPDEST PUSH1 0x0 PUSH2 0x2721 DUP3 PUSH2 0x26F4 JUMP JUMPDEST SWAP1 POP SWAP2 SWAP1 POP JUMP JUMPDEST PUSH1 0x0 PUSH2 0x2733 DUP3 PUSH2 0x2716 JUMP JUMPDEST SWAP1 POP SWAP2 SWAP1 POP JUMP JUMPDEST PUSH2 0x2743 DUP2 PUSH2 0x2728 JUMP JUMPDEST DUP3 MSTORE POP POP JUMP JUMPDEST PUSH1 0x0 PUSH1 0x20 DUP3 ADD SWAP1 POP PUSH2 0x275E PUSH1 0x0 DUP4 ADD DUP5 PUSH2 0x273A JUMP JUMPDEST SWAP3 SWAP2 POP POP JUMP JUMPDEST PUSH1 0x0 PUSH2 0x276F DUP3 PUSH2 0x2374 JUMP JUMPDEST PUSH2 0x2779 DUP2 DUP6 PUSH2 0x22B2 JUMP JUMPDEST SWAP4 POP PUSH2 0x2789 DUP2 DUP6 PUSH1 0x20 DUP7 ADD PUSH2 0x2390 JUMP JUMPDEST PUSH2 0x2792 DUP2 PUSH2 0x23BA JUMP JUMPDEST DUP5 ADD SWAP2 POP POP SWAP3 SWAP2 POP POP JUMP JUMPDEST PUSH1 0x0 PUSH2 0x120 DUP3 ADD SWAP1 POP PUSH2 0x27B3 PUSH1 0x0 DUP4 ADD DUP13 PUSH2 0x25D0 JUMP JUMPDEST DUP2 DUP2 SUB PUSH1 0x20 DUP4 ADD MSTORE PUSH2 0x27C5 DUP2 DUP12 PUSH2 0x2764 JUMP JUMPDEST SWAP1 POP DUP2 DUP2 SUB PUSH1 0x40 DUP4 ADD MSTORE PUSH2 0x27D9 DUP2 DUP11 PUSH2 0x2764 JUMP JUMPDEST SWAP1 POP PUSH2 0x27E8 PUSH1 0x60 DUP4 ADD DUP10 PUSH2 0x25D0 JUMP JUMPDEST PUSH2 0x27F5 PUSH1 0x80 DUP4 ADD DUP9 PUSH2 0x26C0 JUMP JUMPDEST PUSH2 0x2802 PUSH1 0xA0 DUP4 ADD DUP8 PUSH2 0x25D0 JUMP JUMPDEST PUSH2 0x280F PUSH1 0xC0 DUP4 ADD DUP7 PUSH2 0x25D0 JUMP JUMPDEST PUSH2 0x281C PUSH1 0xE0 DUP4 ADD DUP6 PUSH2 0x25D0 JUMP JUMPDEST DUP2 DUP2 SUB PUSH2 0x100 DUP4 ADD MSTORE PUSH2 0x282F DUP2 DUP5 PUSH2 0x2764 JUMP JUMPDEST SWAP1 POP SWAP11 SWAP10 POP POP POP POP POP POP POP POP POP POP JUMP JUMPDEST PUSH1 0x0 PUSH1 0x80 DUP3 ADD SWAP1 POP PUSH2 0x2854 PUSH1 0x0 DUP4 ADD DUP8 PUSH2 0x25D0 JUMP JUMPDEST PUSH2 0x2861 PUSH1 0x20 DUP4 ADD DUP7 PUSH2 0x26C0 JUMP JUMPDEST PUSH2 0x286E PUSH1 0x40 DUP4 ADD DUP6 PUSH2 0x25D0 JUMP JUMPDEST PUSH2 0x287B PUSH1 0x60 DUP4 ADD DUP5 PUSH2 0x25D0 JUMP JUMPDEST SWAP6 SWAP5 POP POP POP POP POP JUMP JUMPDEST PUSH1 0x0 PUSH1 0x40 DUP3 ADD SWAP1 POP PUSH2 0x2899 PUSH1 0x0 DUP4 ADD DUP6 PUSH2 0x26C0 JUMP JUMPDEST PUSH2 0x28A6 PUSH1 0x20 DUP4 ADD DUP5 PUSH2 0x25D0 JUMP JUMPDEST SWAP4 SWAP3 POP POP POP JUMP JUMPDEST PUSH1 0x0 DUP1 REVERT JUMPDEST PUSH1 0x0 DUP1 REVERT JUMPDEST PUSH32 0x4E487B7100000000000000000000000000000000000000000000000000000000 PUSH1 0x0 MSTORE PUSH1 0x41 PUSH1 0x4 MSTORE PUSH1 0x24 PUSH1 0x0 REVERT JUMPDEST PUSH2 0x28EF DUP3 PUSH2 0x23BA JUMP JUMPDEST DUP2 ADD DUP2 DUP2 LT PUSH8 0xFFFFFFFFFFFFFFFF DUP3 GT OR ISZERO PUSH2 0x290E JUMPI PUSH2 0x290D PUSH2 0x28B7 JUMP JUMPDEST JUMPDEST DUP1 PUSH1 0x40 MSTORE POP POP POP JUMP JUMPDEST PUSH1 0x0 PUSH2 0x2921 PUSH2 0x25FA JUMP JUMPDEST SWAP1 POP PUSH2 0x292D DUP3 DUP3 PUSH2 0x28E6 JUMP JUMPDEST SWAP2 SWAP1 POP JUMP JUMPDEST PUSH1 0x0 PUSH8 0xFFFFFFFFFFFFFFFF DUP3 GT ISZERO PUSH2 0x294D JUMPI PUSH2 0x294C PUSH2 0x28B7 JUMP JUMPDEST JUMPDEST PUSH2 0x2956 DUP3 PUSH2 0x23BA JUMP JUMPDEST SWAP1 POP PUSH1 0x20 DUP2 ADD SWAP1 POP SWAP2 SWAP1 POP JUMP JUMPDEST DUP3 DUP2 DUP4 CALLDATACOPY PUSH1 0x0 DUP4 DUP4 ADD MSTORE POP POP POP JUMP JUMPDEST PUSH1 0x0 PUSH2 0x2985 PUSH2 0x2980 DUP5 PUSH2 0x2932 JUMP JUMPDEST PUSH2 0x2917 JUMP JUMPDEST SWAP1 POP DUP3 DUP2 MSTORE PUSH1 0x20 DUP2 ADD DUP5 DUP5 DUP5 ADD GT ISZERO PUSH2 0x29A1 JUMPI PUSH2 0x29A0 PUSH2 0x28B2 JUMP JUMPDEST JUMPDEST PUSH2 0x29AC DUP5 DUP3 DUP6 PUSH2 0x2963 JUMP JUMPDEST POP SWAP4 SWAP3 POP POP POP JUMP JUMPDEST PUSH1 0x0 DUP3 PUSH1 0x1F DUP4 ADD SLT PUSH2 0x29C9 JUMPI PUSH2 0x29C8 PUSH2 0x28AD JUMP JUMPDEST JUMPDEST DUP2 CALLDATALOAD PUSH2 0x29D9 DUP5 DUP3 PUSH1 0x20 DUP7 ADD PUSH2 0x2972 JUMP JUMPDEST SWAP2 POP POP SWAP3 SWAP2 POP POP JUMP JUMPDEST PUSH1 0x0 DUP1 PUSH1 0x0 DUP1 PUSH1 0x0 DUP1 PUSH1 0x0 PUSH1 0xE0 DUP9 DUP11 SUB SLT ISZERO PUSH2 0x2A01 JUMPI PUSH2 0x2A00 PUSH2 0x2604 JUMP JUMPDEST JUMPDEST PUSH1 0x0 DUP9 ADD CALLDATALOAD PUSH8 0xFFFFFFFFFFFFFFFF DUP2 GT ISZERO PUSH2 0x2A1F JUMPI PUSH2 0x2A1E PUSH2 0x2609 JUMP JUMPDEST JUMPDEST PUSH2 0x2A2B DUP11 DUP3 DUP12 ADD PUSH2 0x29B4 JUMP JUMPDEST SWAP8 POP POP PUSH1 0x20 DUP9 ADD CALLDATALOAD PUSH8 0xFFFFFFFFFFFFFFFF DUP2 GT ISZERO PUSH2 0x2A4C JUMPI PUSH2 0x2A4B PUSH2 0x2609 JUMP JUMPDEST JUMPDEST PUSH2 0x2A58 DUP11 DUP3 DUP12 ADD PUSH2 0x29B4 JUMP JUMPDEST SWAP7 POP POP PUSH1 0x40 PUSH2 0x2A69 DUP11 DUP3 DUP12 ADD PUSH2 0x2625 JUMP JUMPDEST SWAP6 POP POP PUSH1 0x60 PUSH2 0x2A7A DUP11 DUP3 DUP12 ADD PUSH2 0x2625 JUMP JUMPDEST SWAP5 POP POP PUSH1 0x80 PUSH2 0x2A8B DUP11 DUP3 DUP12 ADD PUSH2 0x2625 JUMP JUMPDEST SWAP4 POP POP PUSH1 0xA0 PUSH2 0x2A9C DUP11 DUP3 DUP12 ADD PUSH2 0x2625 JUMP JUMPDEST SWAP3 POP POP PUSH1 0xC0 DUP9 ADD CALLDATALOAD PUSH8 0xFFFFFFFFFFFFFFFF DUP2 GT ISZERO PUSH2 0x2ABD JUMPI PUSH2 0x2ABC PUSH2 0x2609 JUMP JUMPDEST JUMPDEST PUSH2 0x2AC9 DUP11 DUP3 DUP12 ADD PUSH2 0x29B4 JUMP JUMPDEST SWAP2 POP POP SWAP3 SWAP6 SWAP9 SWAP2 SWAP5 SWAP8 POP SWAP3 SWAP6 POP JUMP JUMPDEST PUSH1 0x0 PUSH8 0xFFFFFFFFFFFFFFFF DUP3 GT ISZERO PUSH2 0x2AF3 JUMPI PUSH2 0x2AF2 PUSH2 0x28B7 JUMP JUMPDEST JUMPDEST PUSH1 0x20 DUP3 MUL SWAP1 POP PUSH1 0x20 DUP2 ADD SWAP1 POP SWAP2 SWAP1 POP JUMP JUMPDEST PUSH1 0x0 DUP1 REVERT JUMPDEST PUSH1 0x0 PUSH2 0x2B1C PUSH2 0x2B17 DUP5 PUSH2 0x2AD8 JUMP JUMPDEST PUSH2 0x2917 JUMP JUMPDEST SWAP1 POP DUP1 DUP4 DUP3 MSTORE PUSH1 0x20 DUP3 ADD SWAP1 POP PUSH1 0x20 DUP5 MUL DUP4 ADD DUP6 DUP2 GT ISZERO PUSH2 0x2B3F JUMPI PUSH2 0x2B3E PUSH2 0x2B04 JUMP JUMPDEST JUMPDEST DUP4 JUMPDEST DUP2 DUP2 LT ISZERO PUSH2 0x2B68 JUMPI DUP1 PUSH2 0x2B54 DUP9 DUP3 PUSH2 0x2625 JUMP JUMPDEST DUP5 MSTORE PUSH1 0x20 DUP5 ADD SWAP4 POP POP PUSH1 0x20 DUP2 ADD SWAP1 POP PUSH2 0x2B41 JUMP JUMPDEST POP POP POP SWAP4 SWAP3 POP POP POP JUMP JUMPDEST PUSH1 0x0 DUP3 PUSH1 0x1F DUP4 ADD SLT PUSH2 0x2B87 JUMPI PUSH2 0x2B86 PUSH2 0x28AD JUMP JUMPDEST JUMPDEST DUP2 CALLDATALOAD PUSH2 0x2B97 DUP5 DUP3 PUSH1 0x20 DUP7 ADD PUSH2 0x2B09 JUMP JUMPDEST SWAP2 POP POP SWAP3 SWAP2 POP POP JUMP JUMPDEST PUSH1 0x0 PUSH8 0xFFFFFFFFFFFFFFFF DUP3 GT ISZERO PUSH2 0x2BBB JUMPI PUSH2 0x2BBA PUSH2 0x28B7 JUMP JUMPDEST JUMPDEST PUSH1 0x20 DUP3 MUL SWAP1 POP PUSH1 0x20 DUP2 ADD SWAP1 POP SWAP2 SWAP1 POP JUMP JUMPDEST PUSH1 0x0 DUP2 ISZERO ISZERO SWAP1 POP SWAP2 SWAP1 POP JUMP JUMPDEST PUSH2 0x2BE1 DUP2 PUSH2 0x2BCC JUMP JUMPDEST DUP2 EQ PUSH2 0x2BEC JUMPI PUSH1 0x0 DUP1 REVERT JUMPDEST POP JUMP JUMPDEST PUSH1 0x0 DUP2 CALLDATALOAD SWAP1 POP PUSH2 0x2BFE DUP2 PUSH2 0x2BD8 JUMP JUMPDEST SWAP3 SWAP2 POP POP JUMP JUMPDEST PUSH1 0x0 PUSH2 0x2C17 PUSH2 0x2C12 DUP5 PUSH2 0x2BA0 JUMP JUMPDEST PUSH2 0x2917 JUMP JUMPDEST SWAP1 POP DUP1 DUP4 DUP3 MSTORE PUSH1 0x20 DUP3 ADD SWAP1 POP PUSH1 0x20 DUP5 MUL DUP4 ADD DUP6 DUP2 GT ISZERO PUSH2 0x2C3A JUMPI PUSH2 0x2C39 PUSH2 0x2B04 JUMP JUMPDEST JUMPDEST DUP4 JUMPDEST DUP2 DUP2 LT ISZERO PUSH2 0x2C63 JUMPI DUP1 PUSH2 0x2C4F DUP9 DUP3 PUSH2 0x2BEF JUMP JUMPDEST DUP5 MSTORE PUSH1 0x20 DUP5 ADD SWAP4 POP POP PUSH1 0x20 DUP2 ADD SWAP1 POP PUSH2 0x2C3C JUMP JUMPDEST POP POP POP SWAP4 SWAP3 POP POP POP JUMP JUMPDEST PUSH1 0x0 DUP3 PUSH1 0x1F DUP4 ADD SLT PUSH2 0x2C82 JUMPI PUSH2 0x2C81 PUSH2 0x28AD JUMP JUMPDEST JUMPDEST DUP2 CALLDATALOAD PUSH2 0x2C92 DUP5 DUP3 PUSH1 0x20 DUP7 ADD PUSH2 0x2C04 JUMP JUMPDEST SWAP2 POP POP SWAP3 SWAP2 POP POP JUMP JUMPDEST PUSH1 0x0 DUP1 PUSH1 0x0 DUP1 PUSH1 0x0 DUP1 PUSH1 0xC0 DUP8 DUP10 SUB SLT ISZERO PUSH2 0x2CB8 JUMPI PUSH2 0x2CB7 PUSH2 0x2604 JUMP JUMPDEST JUMPDEST PUSH1 0x0 DUP8 ADD CALLDATALOAD PUSH8 0xFFFFFFFFFFFFFFFF DUP2 GT ISZERO PUSH2 0x2CD6 JUMPI PUSH2 0x2CD5 PUSH2 0x2609 JUMP JUMPDEST JUMPDEST PUSH2 0x2CE2 DUP10 DUP3 DUP11 ADD PUSH2 0x2B72 JUMP JUMPDEST SWAP7 POP POP PUSH1 0x20 DUP8 ADD CALLDATALOAD PUSH8 0xFFFFFFFFFFFFFFFF DUP2 GT ISZERO PUSH2 0x2D03 JUMPI PUSH2 0x2D02 PUSH2 0x2609 JUMP JUMPDEST JUMPDEST PUSH2 0x2D0F DUP10 DUP3 DUP11 ADD PUSH2 0x2B72 JUMP JUMPDEST SWAP6 POP POP PUSH1 0x40 DUP8 ADD CALLDATALOAD PUSH8 0xFFFFFFFFFFFFFFFF DUP2 GT ISZERO PUSH2 0x2D30 JUMPI PUSH2 0x2D2F PUSH2 0x2609 JUMP JUMPDEST JUMPDEST PUSH2 0x2D3C DUP10 DUP3 DUP11 ADD PUSH2 0x2C6D JUMP JUMPDEST SWAP5 POP POP PUSH1 0x60 PUSH2 0x2D4D DUP10 DUP3 DUP11 ADD PUSH2 0x2625 JUMP JUMPDEST SWAP4 POP POP PUSH1 0x80 PUSH2 0x2D5E DUP10 DUP3 DUP11 ADD PUSH2 0x2625 JUMP JUMPDEST SWAP3 POP POP PUSH1 0xA0 PUSH2 0x2D6F DUP10 DUP3 DUP11 ADD PUSH2 0x2625 JUMP JUMPDEST SWAP2 POP POP SWAP3 SWAP6 POP SWAP3 SWAP6 POP SWAP3 SWAP6 JUMP JUMPDEST PUSH32 0x4D4154494320616D6F756E742073686F756C6420626520677265617465722074 PUSH1 0x0 DUP3 ADD MSTORE PUSH32 0x68616E2030000000000000000000000000000000000000000000000000000000 PUSH1 0x20 DUP3 ADD MSTORE POP JUMP JUMPDEST PUSH1 0x0 PUSH2 0x2DD8 PUSH1 0x25 DUP4 PUSH2 0x22B2 JUMP JUMPDEST SWAP2 POP PUSH2 0x2DE3 DUP3 PUSH2 0x2D7C JUMP JUMPDEST PUSH1 0x40 DUP3 ADD SWAP1 POP SWAP2 SWAP1 POP JUMP JUMPDEST PUSH1 0x0 PUSH1 0x20 DUP3 ADD SWAP1 POP DUP2 DUP2 SUB PUSH1 0x0 DUP4 ADD MSTORE PUSH2 0x2E07 DUP2 PUSH2 0x2DCB JUMP JUMPDEST SWAP1 POP SWAP2 SWAP1 POP JUMP JUMPDEST PUSH1 0x0 DUP2 MLOAD SWAP1 POP PUSH2 0x2E1D DUP2 PUSH2 0x260E JUMP JUMPDEST SWAP3 SWAP2 POP POP JUMP JUMPDEST PUSH1 0x0 PUSH1 0x20 DUP3 DUP5 SUB SLT ISZERO PUSH2 0x2E39 JUMPI PUSH2 0x2E38 PUSH2 0x2604 JUMP JUMPDEST JUMPDEST PUSH1 0x0 PUSH2 0x2E47 DUP5 DUP3 DUP6 ADD PUSH2 0x2E0E JUMP JUMPDEST SWAP2 POP POP SWAP3 SWAP2 POP POP JUMP JUMPDEST PUSH32 0x4E6F7420656E6F756768204C525420696E20636F6E7472616374000000000000 PUSH1 0x0 DUP3 ADD MSTORE POP JUMP JUMPDEST PUSH1 0x0 PUSH2 0x2E86 PUSH1 0x1A DUP4 PUSH2 0x22B2 JUMP JUMPDEST SWAP2 POP PUSH2 0x2E91 DUP3 PUSH2 0x2E50 JUMP JUMPDEST PUSH1 0x20 DUP3 ADD SWAP1 POP SWAP2 SWAP1 POP JUMP JUMPDEST PUSH1 0x0 PUSH1 0x20 DUP3 ADD SWAP1 POP DUP2 DUP2 SUB PUSH1 0x0 DUP4 ADD MSTORE PUSH2 0x2EB5 DUP2 PUSH2 0x2E79 JUMP JUMPDEST SWAP1 POP SWAP2 SWAP1 POP JUMP JUMPDEST PUSH1 0x0 DUP2 MLOAD SWAP1 POP PUSH2 0x2ECB DUP2 PUSH2 0x2BD8 JUMP JUMPDEST SWAP3 SWAP2 POP POP JUMP JUMPDEST PUSH1 0x0 PUSH1 0x20 DUP3 DUP5 SUB SLT ISZERO PUSH2 0x2EE7 JUMPI PUSH2 0x2EE6 PUSH2 0x2604 JUMP JUMPDEST JUMPDEST PUSH1 0x0 PUSH2 0x2EF5 DUP5 DUP3 DUP6 ADD PUSH2 0x2EBC JUMP JUMPDEST SWAP2 POP POP SWAP3 SWAP2 POP POP JUMP JUMPDEST PUSH32 0x4C5254207472616E73666572206661696C656400000000000000000000000000 PUSH1 0x0 DUP3 ADD MSTORE POP JUMP JUMPDEST PUSH1 0x0 PUSH2 0x2F34 PUSH1 0x13 DUP4 PUSH2 0x22B2 JUMP JUMPDEST SWAP2 POP PUSH2 0x2F3F DUP3 PUSH2 0x2EFE JUMP JUMPDEST PUSH1 0x20 DUP3 ADD SWAP1 POP SWAP2 SWAP1 POP JUMP JUMPDEST PUSH1 0x0 PUSH1 0x20 DUP3 ADD SWAP1 POP DUP2 DUP2 SUB PUSH1 0x0 DUP4 ADD MSTORE PUSH2 0x2F63 DUP2 PUSH2 0x2F27 JUMP JUMPDEST SWAP1 POP SWAP2 SWAP1 POP JUMP JUMPDEST PUSH1 0x0 PUSH1 0x40 DUP3 ADD SWAP1 POP PUSH2 0x2F7F PUSH1 0x0 DUP4 ADD DUP6 PUSH2 0x25D0 JUMP JUMPDEST PUSH2 0x2F8C PUSH1 0x20 DUP4 ADD DUP5 PUSH2 0x25D0 JUMP JUMPDEST SWAP4 SWAP3 POP POP POP JUMP JUMPDEST PUSH32 0x4E487B7100000000000000000000000000000000000000000000000000000000 PUSH1 0x0 MSTORE PUSH1 0x11 PUSH1 0x4 MSTORE PUSH1 0x24 PUSH1 0x0 REVERT JUMPDEST PUSH1 0x0 PUSH2 0x2FCD DUP3 PUSH2 0x235B JUMP JUMPDEST SWAP2 POP PUSH2 0x2FD8 DUP4 PUSH2 0x235B JUMP JUMPDEST SWAP3 POP DUP3 DUP3 SUB SWAP1 POP DUP2 DUP2 GT ISZERO PUSH2 0x2FF0 JUMPI PUSH2 0x2FEF PUSH2 0x2F93 JUMP JUMPDEST JUMPDEST SWAP3 SWAP2 POP POP JUMP JUMPDEST PUSH32 0x4E487B7100000000000000000000000000000000000000000000000000000000 PUSH1 0x0 MSTORE PUSH1 0x22 PUSH1 0x4 MSTORE PUSH1 0x24 PUSH1 0x0 REVERT JUMPDEST PUSH1 0x0 PUSH1 0x2 DUP3 DIV SWAP1 POP PUSH1 0x1 DUP3 AND DUP1 PUSH2 0x303D JUMPI PUSH1 0x7F DUP3 AND SWAP2 POP JUMPDEST PUSH1 0x20 DUP3 LT DUP2 SUB PUSH2 0x3050 JUMPI PUSH2 0x304F PUSH2 0x2FF6 JUMP JUMPDEST JUMPDEST POP SWAP2 SWAP1 POP JUMP JUMPDEST PUSH32 0x4E487B7100000000000000000000000000000000000000000000000000000000 PUSH1 0x0 MSTORE PUSH1 0x32 PUSH1 0x4 MSTORE PUSH1 0x24 PUSH1 0x0 REVERT JUMPDEST PUSH1 0x0 PUSH2 0x3090 DUP3 PUSH2 0x235B JUMP JUMPDEST SWAP2 POP PUSH32 0xFFFFFFFFFFFFFFFFFFFFFFFFFFFFFFFFFFFFFFFFFFFFFFFFFFFFFFFFFFFFFFFF DUP3 SUB PUSH2 0x30C2 JUMPI PUSH2 0x30C1 PUSH2 0x2F93 JUMP JUMPDEST JUMPDEST PUSH1 0x1 DUP3 ADD SWAP1 POP SWAP2 SWAP1 POP JUMP JUMPDEST PUSH32 0x4F6E6C792061646D696E2063616E2063616C6C20746869732066756E6374696F PUSH1 0x0 DUP3 ADD MSTORE PUSH32 0x6E00000000000000000000000000000000000000000000000000000000000000 PUSH1 0x20 DUP3 ADD MSTORE POP JUMP JUMPDEST PUSH1 0x0 PUSH2 0x3129 PUSH1 0x21 DUP4 PUSH2 0x22B2 JUMP JUMPDEST SWAP2 POP PUSH2 0x3134 DUP3 PUSH2 0x30CD JUMP JUMPDEST PUSH1 0x40 DUP3 ADD SWAP1 POP SWAP2 SWAP1 POP JUMP JUMPDEST PUSH1 0x0 PUSH1 0x20 DUP3 ADD SWAP1 POP DUP2 DUP2 SUB PUSH1 0x0 DUP4 ADD MSTORE PUSH2 0x3158 DUP2 PUSH2 0x311C JUMP JUMPDEST SWAP1 POP SWAP2 SWAP1 POP JUMP JUMPDEST PUSH32 0x53656C6C657220616C7265616479207265676973746572656400000000000000 PUSH1 0x0 DUP3 ADD MSTORE POP JUMP JUMPDEST PUSH1 0x0 PUSH2 0x3195 PUSH1 0x19 DUP4 PUSH2 0x22B2 JUMP JUMPDEST SWAP2 POP PUSH2 0x31A0 DUP3 PUSH2 0x315F JUMP JUMPDEST PUSH1 0x20 DUP3 ADD SWAP1 POP SWAP2 SWAP1 POP JUMP JUMPDEST PUSH1 0x0 PUSH1 0x20 DUP3 ADD SWAP1 POP DUP2 DUP2 SUB PUSH1 0x0 DUP4 ADD MSTORE PUSH2 0x31C4 DUP2 PUSH2 0x3188 JUMP JUMPDEST SWAP1 POP SWAP2 SWAP1 POP JUMP JUMPDEST PUSH32 0x4F6E6C792073656C6C6572732063616E2063616C6C20746869732066756E6374 PUSH1 0x0 DUP3 ADD MSTORE PUSH32 0x696F6E0000000000000000000000000000000000000000000000000000000000 PUSH1 0x20 DUP3 ADD MSTORE POP JUMP JUMPDEST PUSH1 0x0 PUSH2 0x3227 PUSH1 0x23 DUP4 PUSH2 0x22B2 JUMP JUMPDEST SWAP2 POP PUSH2 0x3232 DUP3 PUSH2 0x31CB JUMP JUMPDEST PUSH1 0x40 DUP3 ADD SWAP1 POP SWAP2 SWAP1 POP JUMP JUMPDEST PUSH1 0x0 PUSH1 0x20 DUP3 ADD SWAP1 POP DUP2 DUP2 SUB PUSH1 0x0 DUP4 ADD MSTORE PUSH2 0x3256 DUP2 PUSH2 0x321A JUMP JUMPDEST SWAP1 POP SWAP2 SWAP1 POP JUMP JUMPDEST PUSH1 0x0 DUP2 SWAP1 POP DUP2 PUSH1 0x0 MSTORE PUSH1 0x20 PUSH1 0x0 KECCAK256 SWAP1 POP SWAP2 SWAP1 POP JUMP JUMPDEST PUSH1 0x0 PUSH1 0x20 PUSH1 0x1F DUP4 ADD DIV SWAP1 POP SWAP2 SWAP1 POP JUMP JUMPDEST PUSH1 0x0 DUP3 DUP3 SHL SWAP1 POP SWAP3 SWAP2 POP POP JUMP JUMPDEST PUSH1 0x0 PUSH1 0x8 DUP4 MUL PUSH2 0x32BF PUSH32 0xFFFFFFFFFFFFFFFFFFFFFFFFFFFFFFFFFFFFFFFFFFFFFFFFFFFFFFFFFFFFFFFF DUP3 PUSH2 0x3282 JUMP JUMPDEST PUSH2 0x32C9 DUP7 DUP4 PUSH2 0x3282 JUMP JUMPDEST SWAP6 POP DUP1 NOT DUP5 AND SWAP4 POP DUP1 DUP7 AND DUP5 OR SWAP3 POP POP POP SWAP4 SWAP3 POP POP POP JUMP JUMPDEST PUSH1 0x0 PUSH2 0x32FC PUSH2 0x32F7 PUSH2 0x32F2 DUP5 PUSH2 0x235B JUMP JUMPDEST PUSH2 0x26EA JUMP JUMPDEST PUSH2 0x235B JUMP JUMPDEST SWAP1 POP SWAP2 SWAP1 POP JUMP JUMPDEST PUSH1 0x0 DUP2 SWAP1 POP SWAP2 SWAP1 POP JUMP JUMPDEST PUSH2 0x3316 DUP4 PUSH2 0x32E1 JUMP JUMPDEST PUSH2 0x332A PUSH2 0x3322 DUP3 PUSH2 0x3303 JUMP JUMPDEST DUP5 DUP5 SLOAD PUSH2 0x328F JUMP JUMPDEST DUP3 SSTORE POP POP POP POP JUMP JUMPDEST PUSH1 0x0 SWAP1 JUMP JUMPDEST PUSH2 0x333F PUSH2 0x3332 JUMP JUMPDEST PUSH2 0x334A DUP2 DUP5 DUP5 PUSH2 0x330D JUMP JUMPDEST POP POP POP JUMP JUMPDEST JUMPDEST DUP2 DUP2 LT ISZERO PUSH2 0x336E JUMPI PUSH2 0x3363 PUSH1 0x0 DUP3 PUSH2 0x3337 JUMP JUMPDEST PUSH1 0x1 DUP2 ADD SWAP1 POP PUSH2 0x3350 JUMP JUMPDEST POP POP JUMP JUMPDEST PUSH1 0x1F DUP3 GT ISZERO PUSH2 0x33B3 JUMPI PUSH2 0x3384 DUP2 PUSH2 0x325D JUMP JUMPDEST PUSH2 0x338D DUP5 PUSH2 0x3272 JUMP JUMPDEST DUP2 ADD PUSH1 0x20 DUP6 LT ISZERO PUSH2 0x339C JUMPI DUP2 SWAP1 POP JUMPDEST PUSH2 0x33B0 PUSH2 0x33A8 DUP6 PUSH2 0x3272 JUMP JUMPDEST DUP4 ADD DUP3 PUSH2 0x334F JUMP JUMPDEST POP POP JUMPDEST POP POP POP JUMP JUMPDEST PUSH1 0x0 DUP3 DUP3 SHR SWAP1 POP SWAP3 SWAP2 POP POP JUMP JUMPDEST PUSH1 0x0 PUSH2 0x33D6 PUSH1 0x0 NOT DUP5 PUSH1 0x8 MUL PUSH2 0x33B8 JUMP JUMPDEST NOT DUP1 DUP4 AND SWAP2 POP POP SWAP3 SWAP2 POP POP JUMP JUMPDEST PUSH1 0x0 PUSH2 0x33EF DUP4 DUP4 PUSH2 0x33C5 JUMP JUMPDEST SWAP2 POP DUP3 PUSH1 0x2 MUL DUP3 OR SWAP1 POP SWAP3 SWAP2 POP POP JUMP JUMPDEST PUSH2 0x3408 DUP3 PUSH2 0x2374 JUMP JUMPDEST PUSH8 0xFFFFFFFFFFFFFFFF DUP2 GT ISZERO PUSH2 0x3421 JUMPI PUSH2 0x3420 PUSH2 0x28B7 JUMP JUMPDEST JUMPDEST PUSH2 0x342B DUP3 SLOAD PUSH2 0x3025 JUMP JUMPDEST PUSH2 0x3436 DUP3 DUP3 DUP6 PUSH2 0x3372 JUMP JUMPDEST PUSH1 0x0 PUSH1 0x20 SWAP1 POP PUSH1 0x1F DUP4 GT PUSH1 0x1 DUP2 EQ PUSH2 0x3469 JUMPI PUSH1 0x0 DUP5 ISZERO PUSH2 0x3457 JUMPI DUP3 DUP8 ADD MLOAD SWAP1 POP JUMPDEST PUSH2 0x3461 DUP6 DUP3 PUSH2 0x33E3 JUMP JUMPDEST DUP7 SSTORE POP PUSH2 0x34C9 JUMP JUMPDEST PUSH1 0x1F NOT DUP5 AND PUSH2 0x3477 DUP7 PUSH2 0x325D JUMP JUMPDEST PUSH1 0x0 JUMPDEST DUP3 DUP2 LT ISZERO PUSH2 0x349F JUMPI DUP5 DUP10 ADD MLOAD DUP3 SSTORE PUSH1 0x1 DUP3 ADD SWAP2 POP PUSH1 0x20 DUP6 ADD SWAP5 POP PUSH1 0x20 DUP2 ADD SWAP1 POP PUSH2 0x347A JUMP JUMPDEST DUP7 DUP4 LT ISZERO PUSH2 0x34BC JUMPI DUP5 DUP10 ADD MLOAD PUSH2 0x34B8 PUSH1 0x1F DUP10 AND DUP3 PUSH2 0x33C5 JUMP JUMPDEST DUP4 SSTORE POP JUMPDEST PUSH1 0x1 PUSH1 0x2 DUP9 MUL ADD DUP9 SSTORE POP POP POP JUMPDEST POP POP POP POP POP POP JUMP JUMPDEST PUSH1 0x0 PUSH1 0x40 DUP3 ADD SWAP1 POP DUP2 DUP2 SUB PUSH1 0x0 DUP4 ADD MSTORE PUSH2 0x34EB DUP2 DUP6 PUSH2 0x2764 JUMP JUMPDEST SWAP1 POP PUSH2 0x34FA PUSH1 0x20 DUP4 ADD DUP5 PUSH2 0x25D0 JUMP JUMPDEST SWAP4 SWAP3 POP POP POP JUMP JUMPDEST PUSH32 0x4D69736D6174636820696E2070726F647563742049447320616E64207175616E PUSH1 0x0 DUP3 ADD MSTORE PUSH32 0x746974696573206C656E67746800000000000000000000000000000000000000 PUSH1 0x20 DUP3 ADD MSTORE POP JUMP JUMPDEST PUSH1 0x0 PUSH2 0x355D PUSH1 0x2D DUP4 PUSH2 0x22B2 JUMP JUMPDEST SWAP2 POP PUSH2 0x3568 DUP3 PUSH2 0x3501 JUMP JUMPDEST PUSH1 0x40 DUP3 ADD SWAP1 POP SWAP2 SWAP1 POP JUMP JUMPDEST PUSH1 0x0 PUSH1 0x20 DUP3 ADD SWAP1 POP DUP2 DUP2 SUB PUSH1 0x0 DUP4 ADD MSTORE PUSH2 0x358C DUP2 PUSH2 0x3550 JUMP JUMPDEST SWAP1 POP SWAP2 SWAP1 POP JUMP JUMPDEST PUSH1 0x0 PUSH2 0x359E DUP3 PUSH2 0x235B JUMP JUMPDEST SWAP2 POP PUSH2 0x35A9 DUP4 PUSH2 0x235B JUMP JUMPDEST SWAP3 POP DUP3 DUP3 MUL PUSH2 0x35B7 DUP2 PUSH2 0x235B JUMP JUMPDEST SWAP2 POP DUP3 DUP3 DIV DUP5 EQ DUP4 ISZERO OR PUSH2 0x35CE JUMPI PUSH2 0x35CD PUSH2 0x2F93 JUMP JUMPDEST JUMPDEST POP SWAP3 SWAP2 POP POP JUMP JUMPDEST PUSH32 0x4E487B7100000000000000000000000000000000000000000000000000000000 PUSH1 0x0 MSTORE PUSH1 0x12 PUSH1 0x4 MSTORE PUSH1 0x24 PUSH1 0x0 REVERT JUMPDEST PUSH1 0x0 PUSH2 0x360F DUP3 PUSH2 0x235B JUMP JUMPDEST SWAP2 POP PUSH2 0x361A DUP4 PUSH2 0x235B JUMP JUMPDEST SWAP3 POP DUP3 PUSH2 0x362A JUMPI PUSH2 0x3629 PUSH2 0x35D5 JUMP JUMPDEST JUMPDEST DUP3 DUP3 DIV SWAP1 POP SWAP3 SWAP2 POP POP JUMP JUMPDEST PUSH32 0x496E636F7272656374204D415449432073656E74000000000000000000000000 PUSH1 0x0 DUP3 ADD MSTORE POP JUMP JUMPDEST PUSH1 0x0 PUSH2 0x366B PUSH1 0x14 DUP4 PUSH2 0x22B2 JUMP JUMPDEST SWAP2 POP PUSH2 0x3676 DUP3 PUSH2 0x3635 JUMP JUMPDEST PUSH1 0x20 DUP3 ADD SWAP1 POP SWAP2 SWAP1 POP JUMP JUMPDEST PUSH1 0x0 PUSH1 0x20 DUP3 ADD SWAP1 POP DUP2 DUP2 SUB PUSH1 0x0 DUP4 ADD MSTORE PUSH2 0x369A DUP2 PUSH2 0x365E JUMP JUMPDEST SWAP1 POP SWAP2 SWAP1 POP JUMP JUMPDEST PUSH1 0x0 PUSH1 0x60 DUP3 ADD SWAP1 POP PUSH2 0x36B6 PUSH1 0x0 DUP4 ADD DUP7 PUSH2 0x26C0 JUMP JUMPDEST PUSH2 0x36C3 PUSH1 0x20 DUP4 ADD DUP6 PUSH2 0x26C0 JUMP JUMPDEST PUSH2 0x36D0 PUSH1 0x40 DUP4 ADD DUP5 PUSH2 0x25D0 JUMP JUMPDEST SWAP5 SWAP4 POP POP POP POP JUMP JUMPDEST PUSH32 0x4C6F79616C747920546F6B656E207472616E73666572206661696C6564000000 PUSH1 0x0 DUP3 ADD MSTORE POP JUMP JUMPDEST PUSH1 0x0 PUSH2 0x370E PUSH1 0x1D DUP4 PUSH2 0x22B2 JUMP JUMPDEST SWAP2 POP PUSH2 0x3719 DUP3 PUSH2 0x36D8 JUMP JUMPDEST PUSH1 0x20 DUP3 ADD SWAP1 POP SWAP2 SWAP1 POP JUMP JUMPDEST PUSH1 0x0 PUSH1 0x20 DUP3 ADD SWAP1 POP DUP2 DUP2 SUB PUSH1 0x0 DUP4 ADD MSTORE PUSH2 0x373D DUP2 PUSH2 0x3701 JUMP JUMPDEST SWAP1 POP SWAP2 SWAP1 POP JUMP JUMPDEST PUSH32 0x416D6F756E742073686F756C642062652067726561746572207468616E203000 PUSH1 0x0 DUP3 ADD MSTORE POP JUMP JUMPDEST PUSH1 0x0 PUSH2 0x377A PUSH1 0x1F DUP4 PUSH2 0x22B2 JUMP JUMPDEST SWAP2 POP PUSH2 0x3785 DUP3 PUSH2 0x3744 JUMP JUMPDEST PUSH1 0x20 DUP3 ADD SWAP1 POP SWAP2 SWAP1 POP JUMP JUMPDEST PUSH1 0x0 PUSH1 0x20 DUP3 ADD SWAP1 POP DUP2 DUP2 SUB PUSH1 0x0 DUP4 ADD MSTORE PUSH2 0x37A9 DUP2 PUSH2 0x376D JUMP JUMPDEST SWAP1 POP SWAP2 SWAP1 POP JUMP INVALID LOG2 PUSH5 0x6970667358 0x22 SLT KECCAK256 JUMPDEST PREVRANDAO ADDRESS NOT 0x4A PUSH15 0x45890B620A736D861EE6D906FE0C6C 0xCD PUSH19 0x3898A1231113DAF7FB64736F6C634300081300 CALLER "},"methodIdentifiers":{"COMMISSION()":"562df3d5","RATE()":"664e9704","addProduct(string,string,uint256,uint256,uint256,uint256,string)":"b656638b","admin()":"f851a440","exchangeLRTForMATIC(uint256)":"ffa8efc9","exchangeMATICForLRT()":"33ff7bbd","getAllProducts()":"02ee3a52","loyaltyToken()":"770aa84d","nextOrderId()":"2a58b330","nextProductId()":"4de91a63","orders(uint256)":"a85c38ef","products(uint256)":"7acc0b20","purchaseProducts(uint256[],uint256[],bool[],uint256,uint256,uint256)":"f599e4f4","registerSeller()":"52c9224c","sellers(address)":"6d47ab72","setLRTToken(address)":"42df2b1d","users(address)":"a87430ba","withdrawMATIC(uint256)":"816837e3","withdrawTokens(uint256)":"315a095d"}}}}}