{"contracts/Loyalty.sol":{"ECommerceLoyalty":{"abi":[{"inputs":[{"internalType":"address","name":"_loyaltyTokenAddress","type":"address"},{"internalType":"uint256","name":"_interval","type":"uint256"}],"stateMutability":"nonpayable","type":"constructor"},{"anonymous":false,"inputs":[{"indexed":true,"internalType":"address","name":"sellerAddress","type":"address"},{"indexed":false,"internalType":"uint256","name":"lrtAmount","type":"uint256"},{"indexed":false,"internalType":"uint256","name":"maticAmount","type":"uint256"}],"name":"LRTExchangedForMATIC","type":"event"},{"anonymous":false,"inputs":[{"indexed":true,"internalType":"address","name":"admin","type":"address"},{"indexed":false,"internalType":"address","name":"newLRTTokenAddress","type":"address"}],"name":"LRTTokenAddressUpdated","type":"event"},{"anonymous":false,"inputs":[{"indexed":true,"internalType":"address","name":"sellerAddress","type":"address"},{"indexed":false,"internalType":"uint256","name":"maticAmount","type":"uint256"},{"indexed":false,"internalType":"uint256","name":"lrtAmount","type":"uint256"}],"name":"MATICExchangedForLRT","type":"event"},{"anonymous":false,"inputs":[{"indexed":true,"internalType":"address","name":"admin","type":"address"},{"indexed":false,"internalType":"uint256","name":"amount","type":"uint256"}],"name":"MATICWithdrawn","type":"event"},{"anonymous":false,"inputs":[{"indexed":true,"internalType":"address","name":"buyerAddress","type":"address"},{"indexed":false,"internalType":"uint256","name":"pointsEarned","type":"uint256"}],"name":"PointsEarned","type":"event"},{"anonymous":false,"inputs":[{"indexed":true,"internalType":"uint256","name":"productId","type":"uint256"},{"indexed":true,"internalType":"address","name":"sellerAddress","type":"address"},{"indexed":false,"internalType":"string","name":"name","type":"string"},{"indexed":false,"internalType":"uint256","name":"price","type":"uint256"}],"name":"ProductAdded","type":"event"},{"anonymous":false,"inputs":[{"indexed":true,"internalType":"uint256","name":"orderId","type":"uint256"},{"indexed":true,"internalType":"address","name":"buyerAddress","type":"address"},{"indexed":true,"internalType":"uint256","name":"productId","type":"uint256"},{"indexed":false,"internalType":"uint256","name":"quantity","type":"uint256"}],"name":"ProductPurchased","type":"event"},{"anonymous":false,"inputs":[{"indexed":true,"internalType":"address","name":"sellerAddress","type":"address"}],"name":"SellerRegistered","type":"event"},{"anonymous":false,"inputs":[{"indexed":true,"internalType":"address","name":"admin","type":"address"},{"indexed":false,"internalType":"uint256","name":"amount","type":"uint256"}],"name":"TokensWithdrawn","type":"event"},{"anonymous":false,"inputs":[{"indexed":true,"internalType":"address","name":"userAddress","type":"address"}],"name":"UserRegistered","type":"event"},{"stateMutability":"payable","type":"fallback"},{"inputs":[],"name":"COMMISSION","outputs":[{"internalType":"uint256","name":"","type":"uint256"}],"stateMutability":"view","type":"function"},{"inputs":[],"name":"RATE","outputs":[{"internalType":"uint256","name":"","type":"uint256"}],"stateMutability":"view","type":"function"},{"inputs":[{"internalType":"string","name":"name","type":"string"},{"internalType":"string","name":"_description","type":"string"},{"internalType":"uint256","name":"_quantity","type":"uint256"},{"internalType":"uint256","name":"_price","type":"uint256"},{"internalType":"uint256","name":"_rewardPoints","type":"uint256"},{"internalType":"uint256","name":"loyaltyTokensAccepted","type":"uint256"},{"internalType":"string","name":"_imageURI","type":"string"}],"name":"addProduct","outputs":[],"stateMutability":"nonpayable","type":"function"},{"inputs":[],"name":"admin","outputs":[{"internalType":"address","name":"","type":"address"}],"stateMutability":"view","type":"function"},{"inputs":[{"internalType":"bytes","name":"","type":"bytes"}],"name":"checkUpkeep","outputs":[{"internalType":"bool","name":"upkeepNeeded","type":"bool"},{"internalType":"bytes","name":"performData","type":"bytes"}],"stateMutability":"view","type":"function"},{"inputs":[{"internalType":"uint256","name":"lrtAmount","type":"uint256"}],"name":"exchangeLRTForMATIC","outputs":[],"stateMutability":"nonpayable","type":"function"},{"inputs":[],"name":"exchangeMATICForLRT","outputs":[],"stateMutability":"payable","type":"function"},{"inputs":[],"name":"getAllProducts","outputs":[{"components":[{"internalType":"uint256","name":"productId","type":"uint256"},{"internalType":"string","name":"name","type":"string"},{"internalType":"string","name":"description","type":"string"},{"internalType":"uint256","name":"quantity","type":"uint256"},{"internalType":"address","name":"sellerAddress","type":"address"},{"internalType":"uint256","name":"price","type":"uint256"},{"internalType":"uint256","name":"rewardPoints","type":"uint256"},{"internalType":"uint256","name":"loyaltyTokensAccepted","type":"uint256"},{"internalType":"string","name":"imageURI","type":"string"}],"internalType":"struct ECommerceLoyalty.Product[]","name":"","type":"tuple[]"}],"stateMutability":"view","type":"function"},{"inputs":[],"name":"interval","outputs":[{"internalType":"uint256","name":"","type":"uint256"}],"stateMutability":"view","type":"function"},{"inputs":[],"name":"lastTimestamp","outputs":[{"internalType":"uint256","name":"","type":"uint256"}],"stateMutability":"view","type":"function"},{"inputs":[{"internalType":"uint256","name":"","type":"uint256"}],"name":"leaderboard","outputs":[{"internalType":"address","name":"","type":"address"}],"stateMutability":"view","type":"function"},{"inputs":[],"name":"loyaltyToken","outputs":[{"internalType":"contract IERC20","name":"","type":"address"}],"stateMutability":"view","type":"function"},{"inputs":[],"name":"nextOrderId","outputs":[{"internalType":"uint256","name":"","type":"uint256"}],"stateMutability":"view","type":"function"},{"inputs":[],"name":"nextProductId","outputs":[{"internalType":"uint256","name":"","type":"uint256"}],"stateMutability":"view","type":"function"},{"inputs":[{"internalType":"uint256","name":"","type":"uint256"}],"name":"orders","outputs":[{"internalType":"uint256","name":"orderId","type":"uint256"},{"internalType":"address","name":"buyerAddress","type":"address"},{"internalType":"uint256","name":"productId","type":"uint256"},{"internalType":"uint256","name":"quantity","type":"uint256"}],"stateMutability":"view","type":"function"},{"inputs":[{"internalType":"bytes","name":"performData","type":"bytes"}],"name":"performUpkeep","outputs":[],"stateMutability":"nonpayable","type":"function"},{"inputs":[{"internalType":"uint256","name":"","type":"uint256"}],"name":"products","outputs":[{"internalType":"uint256","name":"productId","type":"uint256"},{"internalType":"string","name":"name","type":"string"},{"internalType":"string","name":"description","type":"string"},{"internalType":"uint256","name":"quantity","type":"uint256"},{"internalType":"address","name":"sellerAddress","type":"address"},{"internalType":"uint256","name":"price","type":"uint256"},{"internalType":"uint256","name":"rewardPoints","type":"uint256"},{"internalType":"uint256","name":"loyaltyTokensAccepted","type":"uint256"},{"internalType":"string","name":"imageURI","type":"string"}],"stateMutability":"view","type":"function"},{"inputs":[{"internalType":"uint256[]","name":"_productIds","type":"uint256[]"},{"internalType":"uint256[]","name":"_quantities","type":"uint256[]"},{"internalType":"bool[]","name":"_fullPaymentInMatic","type":"bool[]"},{"internalType":"uint256","name":"totalCost","type":"uint256"},{"internalType":"uint256","name":"totalLoyaltyTokensUsed","type":"uint256"}],"name":"purchaseProducts","outputs":[],"stateMutability":"payable","type":"function"},{"inputs":[],"name":"registerSeller","outputs":[],"stateMutability":"nonpayable","type":"function"},{"inputs":[],"name":"registerUser","outputs":[],"stateMutability":"nonpayable","type":"function"},{"inputs":[{"internalType":"address","name":"","type":"address"}],"name":"sellers","outputs":[{"internalType":"address","name":"sellerAddress","type":"address"}],"stateMutability":"view","type":"function"},{"inputs":[{"internalType":"address","name":"_lrtToken","type":"address"}],"name":"setLRTToken","outputs":[],"stateMutability":"nonpayable","type":"function"},{"inputs":[{"internalType":"address","name":"","type":"address"}],"name":"users","outputs":[{"internalType":"address","name":"userAddress","type":"address"},{"internalType":"uint256","name":"loyaltyPoints","type":"uint256"},{"internalType":"uint256","name":"points","type":"uint256"}],"stateMutability":"view","type":"function"},{"inputs":[{"internalType":"uint256","name":"amount","type":"uint256"}],"name":"withdrawMATIC","outputs":[],"stateMutability":"nonpayable","type":"function"},{"inputs":[{"internalType":"uint256","name":"amount","type":"uint256"}],"name":"withdrawTokens","outputs":[],"stateMutability":"nonpayable","type":"function"},{"stateMutability":"payable","type":"receive"}],"evm":{"bytecode":{"linkReferences":{},"object":"60a0604052600160085560016009553480156200001b57600080fd5b5060405162004a1038038062004a1083398181016040528101906200004191906200017e565b336000806101000a81548173ffffffffffffffffffffffffffffffffffffffff021916908373ffffffffffffffffffffffffffffffffffffffff16021790555081600160006101000a81548173ffffffffffffffffffffffffffffffffffffffff021916908373ffffffffffffffffffffffffffffffffffffffff1602179055508060808181525050426002819055505050620001c5565b600080fd5b600073ffffffffffffffffffffffffffffffffffffffff82169050919050565b60006200010b82620000de565b9050919050565b6200011d81620000fe565b81146200012957600080fd5b50565b6000815190506200013d8162000112565b92915050565b6000819050919050565b620001588162000143565b81146200016457600080fd5b50565b60008151905062000178816200014d565b92915050565b60008060408385031215620001985762000197620000d9565b5b6000620001a8858286016200012c565b9250506020620001bb8582860162000167565b9150509250929050565b608051614828620001e860003960008181611dd801526125e301526148286000f3fe60806040526004361061016a5760003560e01c8063664e9704116100d1578063947a36fb1161008a578063b656638b11610064578063b656638b14610543578063bf3683991461056c578063f851a440146105a9578063ffa8efc9146105d457610179565b8063947a36fb14610499578063a85c38ef146104c4578063a87430ba1461050457610179565b8063664e97041461035a5780636d47ab72146103855780636e04ff0d146103c2578063770aa84d146104005780637acc0b201461042b578063816837e31461047057610179565b80634585e33b116101235780634585e33b1461029157806345a38293146102ba5780634d3820eb146102d65780634de91a63146102ed57806352c9224c14610318578063562df3d51461032f57610179565b806302ee3a52146101b457806319d8ac61146101df5780632a58b3301461020a578063315a095d1461023557806333ff7bbd1461025e57806342df2b1d1461026857610179565b36610179576101776105fd565b005b6040517f08c379a00000000000000000000000000000000000000000000000000000000081526004016101ab90612db1565b60405180910390fd5b3480156101c057600080fd5b506101c961086f565b6040516101d69190613050565b60405180910390f35b3480156101eb57600080fd5b506101f4610b8a565b6040516102019190613081565b60405180910390f35b34801561021657600080fd5b5061021f610b90565b60405161022c9190613081565b60405180910390f35b34801561024157600080fd5b5061025c600480360381019061025791906130dc565b610b96565b005b6102666105fd565b005b34801561027457600080fd5b5061028f600480360381019061028a9190613135565b610d36565b005b34801561029d57600080fd5b506102b860048036038101906102b391906131c7565b610e56565b005b6102d460048036038101906102cf919061344d565b610eea565b005b3480156102e257600080fd5b506102eb6118f9565b005b3480156102f957600080fd5b50610302611b4b565b60405161030f9190613081565b60405180910390f35b34801561032457600080fd5b5061032d611b51565b005b34801561033b57600080fd5b50610344611d81565b6040516103519190613081565b60405180910390f35b34801561036657600080fd5b5061036f611d86565b60405161037c9190613081565b60405180910390f35b34801561039157600080fd5b506103ac60048036038101906103a79190613135565b611d92565b6040516103b9919061352b565b60405180910390f35b3480156103ce57600080fd5b506103e960048036038101906103e491906135fb565b611dd0565b6040516103f79291906136a8565b60405180910390f35b34801561040c57600080fd5b5061041561226f565b6040516104229190613737565b60405180910390f35b34801561043757600080fd5b50610452600480360381019061044d91906130dc565b612295565b6040516104679998979695949392919061378b565b60405180910390f35b34801561047c57600080fd5b50610497600480360381019061049291906130dc565b61249b565b005b3480156104a557600080fd5b506104ae6125e1565b6040516104bb9190613081565b60405180910390f35b3480156104d057600080fd5b506104eb60048036038101906104e691906130dc565b612605565b6040516104fb949392919061382d565b60405180910390f35b34801561051057600080fd5b5061052b60048036038101906105269190613135565b612655565b60405161053a93929190613872565b60405180910390f35b34801561054f57600080fd5b5061056a6004803603810190610565919061394a565b61269f565b005b34801561057857600080fd5b50610593600480360381019061058e91906130dc565b61297b565b6040516105a0919061352b565b60405180910390f35b3480156105b557600080fd5b506105be6129ba565b6040516105cb919061352b565b60405180910390f35b3480156105e057600080fd5b506105fb60048036038101906105f691906130dc565b6129de565b005b60003411610640576040517f08c379a000000000000000000000000000000000000000000000000000000000815260040161063790613ab2565b60405180910390fd5b600061065d670de0b6b3a764000034612bbc90919063ffffffff16565b905080600160009054906101000a900473ffffffffffffffffffffffffffffffffffffffff1673ffffffffffffffffffffffffffffffffffffffff166370a08231306040518263ffffffff1660e01b81526004016106bb919061352b565b602060405180830381865afa1580156106d8573d6000803e3d6000fd5b505050506040513d601f19601f820116820180604052508101906106fc9190613ae7565b101561073d576040517f08c379a000000000000000000000000000000000000000000000000000000000815260040161073490613b60565b60405180910390fd5b600160009054906101000a900473ffffffffffffffffffffffffffffffffffffffff1673ffffffffffffffffffffffffffffffffffffffff1663a9059cbb33836040518363ffffffff1660e01b815260040161079a929190613b80565b6020604051808303816000875af11580156107b9573d6000803e3d6000fd5b505050506040513d601f19601f820116820180604052508101906107dd9190613bbe565b61081c576040517f08c379a000000000000000000000000000000000000000000000000000000000815260040161081390613c37565b60405180910390fd5b3373ffffffffffffffffffffffffffffffffffffffff167f95db8762f4600873df8fdbc44f0e34fa831e5cc7396f3dda3a5cd0825acd5bdb3483604051610864929190613c57565b60405180910390a250565b6060600060016008546108829190613caf565b67ffffffffffffffff81111561089b5761089a613214565b5b6040519080825280602002602001820160405280156108d457816020015b6108c1612bfe565b8152602001906001900390816108b95790505b5090506000600190505b600854811015610b825760066000828152602001908152602001600020604051806101200160405290816000820154815260200160018201805461092190613d12565b80601f016020809104026020016040519081016040528092919081815260200182805461094d90613d12565b801561099a5780601f1061096f5761010080835404028352916020019161099a565b820191906000526020600020905b81548152906001019060200180831161097d57829003601f168201915b505050505081526020016002820180546109b390613d12565b80601f01602080910402602001604051908101604052809291908181526020018280546109df90613d12565b8015610a2c5780601f10610a0157610100808354040283529160200191610a2c565b820191906000526020600020905b815481529060010190602001808311610a0f57829003601f168201915b50505050508152602001600382015481526020016004820160009054906101000a900473ffffffffffffffffffffffffffffffffffffffff1673ffffffffffffffffffffffffffffffffffffffff1673ffffffffffffffffffffffffffffffffffffffff168152602001600582015481526020016006820154815260200160078201548152602001600882018054610ac390613d12565b80601f0160208091040260200160405190810160405280929190818152602001828054610aef90613d12565b8015610b3c5780601f10610b1157610100808354040283529160200191610b3c565b820191906000526020600020905b815481529060010190602001808311610b1f57829003601f168201915b50505050508152505082600183610b539190613caf565b81518110610b6457610b63613d43565b5b60200260200101819052508080610b7a90613d72565b9150506108de565b508091505090565b60025481565b60095481565b60008054906101000a900473ffffffffffffffffffffffffffffffffffffffff1673ffffffffffffffffffffffffffffffffffffffff163373ffffffffffffffffffffffffffffffffffffffff1614610c24576040517f08c379a0000000000000000000000000000000000000000000000000000000008152600401610c1b90613e2c565b60405180910390fd5b600160009054906101000a900473ffffffffffffffffffffffffffffffffffffffff1673ffffffffffffffffffffffffffffffffffffffff1663a9059cbb60008054906101000a900473ffffffffffffffffffffffffffffffffffffffff16836040518363ffffffff1660e01b8152600401610ca1929190613b80565b6020604051808303816000875af1158015610cc0573d6000803e3d6000fd5b505050506040513d601f19601f82011682018060405250810190610ce49190613bbe565b503373ffffffffffffffffffffffffffffffffffffffff167f6352c5382c4a4578e712449ca65e83cdb392d045dfcf1cad9615189db2da244b82604051610d2b9190613081565b60405180910390a250565b60008054906101000a900473ffffffffffffffffffffffffffffffffffffffff1673ffffffffffffffffffffffffffffffffffffffff163373ffffffffffffffffffffffffffffffffffffffff1614610dc4576040517f08c379a0000000000000000000000000000000000000000000000000000000008152600401610dbb90613e2c565b60405180910390fd5b80600160006101000a81548173ffffffffffffffffffffffffffffffffffffffff021916908373ffffffffffffffffffffffffffffffffffffffff1602179055503373ffffffffffffffffffffffffffffffffffffffff167f6eca818bb499e114c9a2ead8c104a976418f0ca9c27fd7ead167e9125e613d4582604051610e4b919061352b565b60405180910390a250565b6000610e7060405180602001604052806000815250611dd0565b50905080610eb3576040517f08c379a0000000000000000000000000000000000000000000000000000000008152600401610eaa90613e98565b60405180910390fd5b60008383810190610ec49190613f7b565b90508060039080519060200190610edc929190612c60565b504260028190555050505050565b8351855114610f2e576040517f08c379a0000000000000000000000000000000000000000000000000000000008152600401610f2590614036565b60405180910390fd5b60006064600584610f3f9190614056565b610f4991906140c7565b905060008284610f599190613caf565b905080341015610f9e576040517f08c379a0000000000000000000000000000000000000000000000000000000008152600401610f9590614144565b60405180910390fd5b3073ffffffffffffffffffffffffffffffffffffffff166108fc839081150290604051600060405180830381858888f19350505050158015610fe4573d6000803e3d6000fd5b5060005b87518110156118ef576000600660008a848151811061100a57611009613d43565b5b60200260200101518152602001908152602001600020604051806101200160405290816000820154815260200160018201805461104690613d12565b80601f016020809104026020016040519081016040528092919081815260200182805461107290613d12565b80156110bf5780601f10611094576101008083540402835291602001916110bf565b820191906000526020600020905b8154815290600101906020018083116110a257829003601f168201915b505050505081526020016002820180546110d890613d12565b80601f016020809104026020016040519081016040528092919081815260200182805461110490613d12565b80156111515780601f1061112657610100808354040283529160200191611151565b820191906000526020600020905b81548152906001019060200180831161113457829003601f168201915b50505050508152602001600382015481526020016004820160009054906101000a900473ffffffffffffffffffffffffffffffffffffffff1673ffffffffffffffffffffffffffffffffffffffff1673ffffffffffffffffffffffffffffffffffffffff1681526020016005820154815260200160068201548152602001600782015481526020016008820180546111e890613d12565b80601f016020809104026020016040519081016040528092919081815260200182805461121490613d12565b80156112615780601f1061123657610100808354040283529160200191611261565b820191906000526020600020905b81548152906001019060200180831161124457829003601f168201915b5050505050815250509050600088838151811061128157611280613d43565b5b60200260200101518260a001516112989190614056565b90506000600a826112a991906140c7565b905061130081600460003373ffffffffffffffffffffffffffffffffffffffff1673ffffffffffffffffffffffffffffffffffffffff16815260200190815260200160002060020154612bd290919063ffffffff16565b600460003373ffffffffffffffffffffffffffffffffffffffff1673ffffffffffffffffffffffffffffffffffffffff168152602001908152602001600020600201819055503373ffffffffffffffffffffffffffffffffffffffff167f2c4c0dc427a50c4a69d2fc184c47a311acf950d8d2f289fbaee64e83e9b289678260405161138c9190613081565b60405180910390a28884815181106113a7576113a6613d43565b5b60200260200101511561153557826080015173ffffffffffffffffffffffffffffffffffffffff166108fc60646005856113e19190614056565b6113eb91906140c7565b846113f69190613caf565b9081150290604051600060405180830381858888f19350505050158015611421573d6000803e3d6000fd5b50600160009054906101000a900473ffffffffffffffffffffffffffffffffffffffff1673ffffffffffffffffffffffffffffffffffffffff166323b872dd8460800151338d888151811061147957611478613d43565b5b60200260200101518760c001516114909190614056565b6040518463ffffffff1660e01b81526004016114ae93929190614164565b6020604051808303816000875af11580156114cd573d6000803e3d6000fd5b505050506040513d601f19601f820116820180604052508101906114f19190613bbe565b611530576040517f08c379a0000000000000000000000000000000000000000000000000000000008152600401611527906141e7565b60405180910390fd5b6116e6565b826080015173ffffffffffffffffffffffffffffffffffffffff166108fc60646005856115629190614056565b61156c91906140c7565b8c878151811061157f5761157e613d43565b5b60200260200101518660e001516115969190614056565b856115a19190613caf565b6115ab9190613caf565b9081150290604051600060405180830381858888f193505050501580156115d6573d6000803e3d6000fd5b50600160009054906101000a900473ffffffffffffffffffffffffffffffffffffffff1673ffffffffffffffffffffffffffffffffffffffff166323b872dd3385608001518d888151811061162e5761162d613d43565b5b60200260200101518760e001516116459190614056565b6040518463ffffffff1660e01b815260040161166393929190614164565b6020604051808303816000875af1158015611682573d6000803e3d6000fd5b505050506040513d601f19601f820116820180604052508101906116a69190613bbe565b6116e5576040517f08c379a00000000000000000000000000000000000000000000000000000000081526004016116dc90614253565b60405180910390fd5b5b604051806080016040528060095481526020013373ffffffffffffffffffffffffffffffffffffffff1681526020018c868151811061172857611727613d43565b5b602002602001015181526020018b868151811061174857611747613d43565b5b60200260200101518152506007600060095481526020019081526020016000206000820151816000015560208201518160010160006101000a81548173ffffffffffffffffffffffffffffffffffffffff021916908373ffffffffffffffffffffffffffffffffffffffff1602179055506040820151816002015560608201518160030155905050600460003373ffffffffffffffffffffffffffffffffffffffff1673ffffffffffffffffffffffffffffffffffffffff16815260200190815260200160002060030160095490806001815401808255809150506001900390600052602060002001600090919091909150558a848151811061184e5761184d613d43565b5b60200260200101513373ffffffffffffffffffffffffffffffffffffffff166009547f7d3c39a6cce20f6949eff0833a4d54fca734dc7c6027773d8885e7faeac98a958d88815181106118a4576118a3613d43565b5b60200260200101516040516118b99190613081565b60405180910390a4600960008154809291906118d490613d72565b919050555050505080806118e790613d72565b915050610fe8565b5050505050505050565b600073ffffffffffffffffffffffffffffffffffffffff16600460003373ffffffffffffffffffffffffffffffffffffffff1673ffffffffffffffffffffffffffffffffffffffff16815260200190815260200160002060000160009054906101000a900473ffffffffffffffffffffffffffffffffffffffff1673ffffffffffffffffffffffffffffffffffffffff16146119ca576040517f08c379a00000000000000000000000000000000000000000000000000000000081526004016119c1906142bf565b60405180910390fd5b60405180608001604052803373ffffffffffffffffffffffffffffffffffffffff1681526020016000815260200160008152602001600067ffffffffffffffff811115611a1a57611a19613214565b5b604051908082528060200260200182016040528015611a485781602001602082028036833780820191505090505b50815250600460003373ffffffffffffffffffffffffffffffffffffffff1673ffffffffffffffffffffffffffffffffffffffff16815260200190815260200160002060008201518160000160006101000a81548173ffffffffffffffffffffffffffffffffffffffff021916908373ffffffffffffffffffffffffffffffffffffffff16021790555060208201518160010155604082015181600201556060820151816003019080519060200190611b02929190612cea565b509050503373ffffffffffffffffffffffffffffffffffffffff167f54db7a5cb4735e1aac1f53db512d3390390bb6637bd30ad4bf9fc98667d9b9b960405160405180910390a2565b60085481565b600073ffffffffffffffffffffffffffffffffffffffff16600560003373ffffffffffffffffffffffffffffffffffffffff1673ffffffffffffffffffffffffffffffffffffffff16815260200190815260200160002060000160009054906101000a900473ffffffffffffffffffffffffffffffffffffffff1673ffffffffffffffffffffffffffffffffffffffff1614611c22576040517f08c379a0000000000000000000000000000000000000000000000000000000008152600401611c199061432b565b60405180910390fd5b60405180604001604052803373ffffffffffffffffffffffffffffffffffffffff168152602001600067ffffffffffffffff811115611c6457611c63613214565b5b604051908082528060200260200182016040528015611c925781602001602082028036833780820191505090505b50815250600560003373ffffffffffffffffffffffffffffffffffffffff1673ffffffffffffffffffffffffffffffffffffffff16815260200190815260200160002060008201518160000160006101000a81548173ffffffffffffffffffffffffffffffffffffffff021916908373ffffffffffffffffffffffffffffffffffffffff1602179055506020820151816001019080519060200190611d38929190612cea565b509050503373ffffffffffffffffffffffffffffffffffffffff167f4d97d287a8f631378031b05cb24c876085261ddaa7b8f584477370ef473fbb3d60405160405180910390a2565b600581565b670de0b6b3a764000081565b60056020528060005260406000206000915090508060000160009054906101000a900473ffffffffffffffffffffffffffffffffffffffff16905081565b6000606060007f000000000000000000000000000000000000000000000000000000000000000060025442611e059190613caf565b1190506000606467ffffffffffffffff811115611e2557611e24613214565b5b604051908082528060200260200182016040528015611e535781602001602082028036833780820191505090505b5090506000606467ffffffffffffffff811115611e7357611e72613214565b5b604051908082528060200260200182016040528015611ea15781602001602082028036833780820191505090505b5090506000806064600954611eb69190613caf565b11611ec2576000611ed2565b6064600954611ed19190613caf565b5b905060008190505b60095481101561202b576007600082815260200190815260200160002060010160009054906101000a900473ffffffffffffffffffffffffffffffffffffffff1684600183611f299190613caf565b81518110611f3a57611f39613d43565b5b602002602001019073ffffffffffffffffffffffffffffffffffffffff16908173ffffffffffffffffffffffffffffffffffffffff1681525050600460006007600084815260200190815260200160002060010160009054906101000a900473ffffffffffffffffffffffffffffffffffffffff1673ffffffffffffffffffffffffffffffffffffffff1673ffffffffffffffffffffffffffffffffffffffff1681526020019081526020016000206002015483600183611ffb9190613caf565b8151811061200c5761200b613d43565b5b602002602001018181525050808061202390613d72565b915050611eda565b5060005b82518110156122405760005b600184516120499190613caf565b81101561222c578360018261205e919061434b565b8151811061206f5761206e613d43565b5b602002602001015184828151811061208a57612089613d43565b5b602002602001015110156122195760008482815181106120ad576120ac613d43565b5b60200260200101519050846001836120c5919061434b565b815181106120d6576120d5613d43565b5b60200260200101518583815181106120f1576120f0613d43565b5b602002602001018181525050808560018461210c919061434b565b8151811061211d5761211c613d43565b5b602002602001018181525050600086838151811061213e5761213d613d43565b5b6020026020010151905086600184612156919061434b565b8151811061216757612166613d43565b5b602002602001015187848151811061218257612181613d43565b5b602002602001019073ffffffffffffffffffffffffffffffffffffffff16908173ffffffffffffffffffffffffffffffffffffffff168152505080876001856121cb919061434b565b815181106121dc576121db613d43565b5b602002602001019073ffffffffffffffffffffffffffffffffffffffff16908173ffffffffffffffffffffffffffffffffffffffff168152505050505b808061222490613d72565b91505061203b565b50808061223890613d72565b91505061202f565b5083955082604051602001612255919061442e565b604051602081830303815290604052945050505050915091565b600160009054906101000a900473ffffffffffffffffffffffffffffffffffffffff1681565b60066020528060005260406000206000915090508060000154908060010180546122be90613d12565b80601f01602080910402602001604051908101604052809291908181526020018280546122ea90613d12565b80156123375780601f1061230c57610100808354040283529160200191612337565b820191906000526020600020905b81548152906001019060200180831161231a57829003601f168201915b50505050509080600201805461234c90613d12565b80601f016020809104026020016040519081016040528092919081815260200182805461237890613d12565b80156123c55780601f1061239a576101008083540402835291602001916123c5565b820191906000526020600020905b8154815290600101906020018083116123a857829003601f168201915b5050505050908060030154908060040160009054906101000a900473ffffffffffffffffffffffffffffffffffffffff169080600501549080600601549080600701549080600801805461241890613d12565b80601f016020809104026020016040519081016040528092919081815260200182805461244490613d12565b80156124915780601f1061246657610100808354040283529160200191612491565b820191906000526020600020905b81548152906001019060200180831161247457829003601f168201915b5050505050905089565b60008054906101000a900473ffffffffffffffffffffffffffffffffffffffff1673ffffffffffffffffffffffffffffffffffffffff163373ffffffffffffffffffffffffffffffffffffffff1614612529576040517f08c379a000000000000000000000000000000000000000000000000000000000815260040161252090613e2c565b60405180910390fd5b60008054906101000a900473ffffffffffffffffffffffffffffffffffffffff1673ffffffffffffffffffffffffffffffffffffffff166108fc829081150290604051600060405180830381858888f1935050505015801561258f573d6000803e3d6000fd5b503373ffffffffffffffffffffffffffffffffffffffff167f6efac6899ee41c0fab9566f807fee81972320248574ef8adeac6599ea7eae246826040516125d69190613081565b60405180910390a250565b7f000000000000000000000000000000000000000000000000000000000000000081565b60076020528060005260406000206000915090508060000154908060010160009054906101000a900473ffffffffffffffffffffffffffffffffffffffff16908060020154908060030154905084565b60046020528060005260406000206000915090508060000160009054906101000a900473ffffffffffffffffffffffffffffffffffffffff16908060010154908060020154905083565b600073ffffffffffffffffffffffffffffffffffffffff16600560003373ffffffffffffffffffffffffffffffffffffffff1673ffffffffffffffffffffffffffffffffffffffff16815260200190815260200160002060000160009054906101000a900473ffffffffffffffffffffffffffffffffffffffff1673ffffffffffffffffffffffffffffffffffffffff1603612770576040517f08c379a0000000000000000000000000000000000000000000000000000000008152600401612767906144c2565b60405180910390fd5b60405180610120016040528060085481526020018881526020018781526020018681526020013373ffffffffffffffffffffffffffffffffffffffff168152602001858152602001848152602001838152602001828152506006600060085481526020019081526020016000206000820151816000015560208201518160010190816127fc9190614684565b5060408201518160020190816128129190614684565b506060820151816003015560808201518160040160006101000a81548173ffffffffffffffffffffffffffffffffffffffff021916908373ffffffffffffffffffffffffffffffffffffffff16021790555060a0820151816005015560c0820151816006015560e082015181600701556101008201518160080190816128989190614684565b50905050600560003373ffffffffffffffffffffffffffffffffffffffff1673ffffffffffffffffffffffffffffffffffffffff16815260200190815260200160002060010160085490806001815401808255809150506001900390600052602060002001600090919091909150553373ffffffffffffffffffffffffffffffffffffffff166008547fef311eec1d40202fee1909ab585df5e024df1930dc6bba97722d1e60e91c01f78987604051612952929190614756565b60405180910390a36008600081548092919061296d90613d72565b919050555050505050505050565b6003818154811061298b57600080fd5b906000526020600020016000915054906101000a900473ffffffffffffffffffffffffffffffffffffffff1681565b60008054906101000a900473ffffffffffffffffffffffffffffffffffffffff1681565b60008111612a21576040517f08c379a0000000000000000000000000000000000000000000000000000000008152600401612a18906147d2565b60405180910390fd5b6000612a3e670de0b6b3a764000083612be890919063ffffffff16565b9050600160009054906101000a900473ffffffffffffffffffffffffffffffffffffffff1673ffffffffffffffffffffffffffffffffffffffff166323b872dd3330856040518463ffffffff1660e01b8152600401612a9f93929190614164565b6020604051808303816000875af1158015612abe573d6000803e3d6000fd5b505050506040513d601f19601f82011682018060405250810190612ae29190613bbe565b612b21576040517f08c379a0000000000000000000000000000000000000000000000000000000008152600401612b1890613c37565b60405180910390fd5b3373ffffffffffffffffffffffffffffffffffffffff166108fc829081150290604051600060405180830381858888f19350505050158015612b67573d6000803e3d6000fd5b503373ffffffffffffffffffffffffffffffffffffffff167fae8bcd366b92d4b55d90c0ccbfd8a50a60bae24f201c5899a989e99a3d877b938383604051612bb0929190613c57565b60405180910390a25050565b60008183612bca91906140c7565b905092915050565b60008183612be0919061434b565b905092915050565b60008183612bf69190614056565b905092915050565b60405180610120016040528060008152602001606081526020016060815260200160008152602001600073ffffffffffffffffffffffffffffffffffffffff168152602001600081526020016000815260200160008152602001606081525090565b828054828255906000526020600020908101928215612cd9579160200282015b82811115612cd85782518260006101000a81548173ffffffffffffffffffffffffffffffffffffffff021916908373ffffffffffffffffffffffffffffffffffffffff16021790555091602001919060010190612c80565b5b509050612ce69190612d37565b5090565b828054828255906000526020600020908101928215612d26579160200282015b82811115612d25578251825591602001919060010190612d0a565b5b509050612d339190612d37565b5090565b5b80821115612d50576000816000905550600101612d38565b5090565b600082825260208201905092915050565b7f4f7065726174696f6e206e6f7420737570706f72746564000000000000000000600082015250565b6000612d9b601783612d54565b9150612da682612d65565b602082019050919050565b60006020820190508181036000830152612dca81612d8e565b9050919050565b600081519050919050565b600082825260208201905092915050565b6000819050602082019050919050565b6000819050919050565b612e1081612dfd565b82525050565b600081519050919050565b600082825260208201905092915050565b60005b83811015612e50578082015181840152602081019050612e35565b60008484015250505050565b6000601f19601f8301169050919050565b6000612e7882612e16565b612e828185612e21565b9350612e92818560208601612e32565b612e9b81612e5c565b840191505092915050565b600073ffffffffffffffffffffffffffffffffffffffff82169050919050565b6000612ed182612ea6565b9050919050565b612ee181612ec6565b82525050565b600061012083016000830151612f006000860182612e07565b5060208301518482036020860152612f188282612e6d565b91505060408301518482036040860152612f328282612e6d565b9150506060830151612f476060860182612e07565b506080830151612f5a6080860182612ed8565b5060a0830151612f6d60a0860182612e07565b5060c0830151612f8060c0860182612e07565b5060e0830151612f9360e0860182612e07565b50610100830151848203610100860152612fad8282612e6d565b9150508091505092915050565b6000612fc68383612ee7565b905092915050565b6000602082019050919050565b6000612fe682612dd1565b612ff08185612ddc565b93508360208202850161300285612ded565b8060005b8581101561303e578484038952815161301f8582612fba565b945061302a83612fce565b925060208a01995050600181019050613006565b50829750879550505050505092915050565b6000602082019050818103600083015261306a8184612fdb565b905092915050565b61307b81612dfd565b82525050565b60006020820190506130966000830184613072565b92915050565b6000604051905090565b600080fd5b600080fd5b6130b981612dfd565b81146130c457600080fd5b50565b6000813590506130d6816130b0565b92915050565b6000602082840312156130f2576130f16130a6565b5b6000613100848285016130c7565b91505092915050565b61311281612ec6565b811461311d57600080fd5b50565b60008135905061312f81613109565b92915050565b60006020828403121561314b5761314a6130a6565b5b600061315984828501613120565b91505092915050565b600080fd5b600080fd5b600080fd5b60008083601f84011261318757613186613162565b5b8235905067ffffffffffffffff8111156131a4576131a3613167565b5b6020830191508360018202830111156131c0576131bf61316c565b5b9250929050565b600080602083850312156131de576131dd6130a6565b5b600083013567ffffffffffffffff8111156131fc576131fb6130ab565b5b61320885828601613171565b92509250509250929050565b7f4e487b7100000000000000000000000000000000000000000000000000000000600052604160045260246000fd5b61324c82612e5c565b810181811067ffffffffffffffff8211171561326b5761326a613214565b5b80604052505050565b600061327e61309c565b905061328a8282613243565b919050565b600067ffffffffffffffff8211156132aa576132a9613214565b5b602082029050602081019050919050565b60006132ce6132c98461328f565b613274565b905080838252602082019050602084028301858111156132f1576132f061316c565b5b835b8181101561331a578061330688826130c7565b8452602084019350506020810190506132f3565b5050509392505050565b600082601f83011261333957613338613162565b5b81356133498482602086016132bb565b91505092915050565b600067ffffffffffffffff82111561336d5761336c613214565b5b602082029050602081019050919050565b60008115159050919050565b6133938161337e565b811461339e57600080fd5b50565b6000813590506133b08161338a565b92915050565b60006133c96133c484613352565b613274565b905080838252602082019050602084028301858111156133ec576133eb61316c565b5b835b81811015613415578061340188826133a1565b8452602084019350506020810190506133ee565b5050509392505050565b600082601f83011261343457613433613162565b5b81356134448482602086016133b6565b91505092915050565b600080600080600060a08688031215613469576134686130a6565b5b600086013567ffffffffffffffff811115613487576134866130ab565b5b61349388828901613324565b955050602086013567ffffffffffffffff8111156134b4576134b36130ab565b5b6134c088828901613324565b945050604086013567ffffffffffffffff8111156134e1576134e06130ab565b5b6134ed8882890161341f565b93505060606134fe888289016130c7565b925050608061350f888289016130c7565b9150509295509295909350565b61352581612ec6565b82525050565b6000602082019050613540600083018461351c565b92915050565b600080fd5b600067ffffffffffffffff82111561356657613565613214565b5b61356f82612e5c565b9050602081019050919050565b82818337600083830152505050565b600061359e6135998461354b565b613274565b9050828152602081018484840111156135ba576135b9613546565b5b6135c584828561357c565b509392505050565b600082601f8301126135e2576135e1613162565b5b81356135f284826020860161358b565b91505092915050565b600060208284031215613611576136106130a6565b5b600082013567ffffffffffffffff81111561362f5761362e6130ab565b5b61363b848285016135cd565b91505092915050565b61364d8161337e565b82525050565b600081519050919050565b600082825260208201905092915050565b600061367a82613653565b613684818561365e565b9350613694818560208601612e32565b61369d81612e5c565b840191505092915050565b60006040820190506136bd6000830185613644565b81810360208301526136cf818461366f565b90509392505050565b6000819050919050565b60006136fd6136f86136f384612ea6565b6136d8565b612ea6565b9050919050565b600061370f826136e2565b9050919050565b600061372182613704565b9050919050565b61373181613716565b82525050565b600060208201905061374c6000830184613728565b92915050565b600061375d82612e16565b6137678185612d54565b9350613777818560208601612e32565b61378081612e5c565b840191505092915050565b6000610120820190506137a1600083018c613072565b81810360208301526137b3818b613752565b905081810360408301526137c7818a613752565b90506137d66060830189613072565b6137e3608083018861351c565b6137f060a0830187613072565b6137fd60c0830186613072565b61380a60e0830185613072565b81810361010083015261381d8184613752565b90509a9950505050505050505050565b60006080820190506138426000830187613072565b61384f602083018661351c565b61385c6040830185613072565b6138696060830184613072565b95945050505050565b6000606082019050613887600083018661351c565b6138946020830185613072565b6138a16040830184613072565b949350505050565b600067ffffffffffffffff8211156138c4576138c3613214565b5b6138cd82612e5c565b9050602081019050919050565b60006138ed6138e8846138a9565b613274565b90508281526020810184848401111561390957613908613546565b5b61391484828561357c565b509392505050565b600082601f83011261393157613930613162565b5b81356139418482602086016138da565b91505092915050565b600080600080600080600060e0888a031215613969576139686130a6565b5b600088013567ffffffffffffffff811115613987576139866130ab565b5b6139938a828b0161391c565b975050602088013567ffffffffffffffff8111156139b4576139b36130ab565b5b6139c08a828b0161391c565b96505060406139d18a828b016130c7565b95505060606139e28a828b016130c7565b94505060806139f38a828b016130c7565b93505060a0613a048a828b016130c7565b92505060c088013567ffffffffffffffff811115613a2557613a246130ab565b5b613a318a828b0161391c565b91505092959891949750929550565b7f4d4154494320616d6f756e742073686f756c642062652067726561746572207460008201527f68616e2030000000000000000000000000000000000000000000000000000000602082015250565b6000613a9c602583612d54565b9150613aa782613a40565b604082019050919050565b60006020820190508181036000830152613acb81613a8f565b9050919050565b600081519050613ae1816130b0565b92915050565b600060208284031215613afd57613afc6130a6565b5b6000613b0b84828501613ad2565b91505092915050565b7f4e6f7420656e6f756768204c525420696e20636f6e7472616374000000000000600082015250565b6000613b4a601a83612d54565b9150613b5582613b14565b602082019050919050565b60006020820190508181036000830152613b7981613b3d565b9050919050565b6000604082019050613b95600083018561351c565b613ba26020830184613072565b9392505050565b600081519050613bb88161338a565b92915050565b600060208284031215613bd457613bd36130a6565b5b6000613be284828501613ba9565b91505092915050565b7f4c5254207472616e73666572206661696c656400000000000000000000000000600082015250565b6000613c21601383612d54565b9150613c2c82613beb565b602082019050919050565b60006020820190508181036000830152613c5081613c14565b9050919050565b6000604082019050613c6c6000830185613072565b613c796020830184613072565b9392505050565b7f4e487b7100000000000000000000000000000000000000000000000000000000600052601160045260246000fd5b6000613cba82612dfd565b9150613cc583612dfd565b9250828203905081811115613cdd57613cdc613c80565b5b92915050565b7f4e487b7100000000000000000000000000000000000000000000000000000000600052602260045260246000fd5b60006002820490506001821680613d2a57607f821691505b602082108103613d3d57613d3c613ce3565b5b50919050565b7f4e487b7100000000000000000000000000000000000000000000000000000000600052603260045260246000fd5b6000613d7d82612dfd565b91507fffffffffffffffffffffffffffffffffffffffffffffffffffffffffffffffff8203613daf57613dae613c80565b5b600182019050919050565b7f4f6e6c792061646d696e2063616e2063616c6c20746869732066756e6374696f60008201527f6e00000000000000000000000000000000000000000000000000000000000000602082015250565b6000613e16602183612d54565b9150613e2182613dba565b604082019050919050565b60006020820190508181036000830152613e4581613e09565b9050919050565b7f55706b656570206e6f74206e6565646564000000000000000000000000000000600082015250565b6000613e82601183612d54565b9150613e8d82613e4c565b602082019050919050565b60006020820190508181036000830152613eb181613e75565b9050919050565b600067ffffffffffffffff821115613ed357613ed2613214565b5b602082029050602081019050919050565b6000613ef7613ef284613eb8565b613274565b90508083825260208201905060208402830185811115613f1a57613f1961316c565b5b835b81811015613f435780613f2f8882613120565b845260208401935050602081019050613f1c565b5050509392505050565b600082601f830112613f6257613f61613162565b5b8135613f72848260208601613ee4565b91505092915050565b600060208284031215613f9157613f906130a6565b5b600082013567ffffffffffffffff811115613faf57613fae6130ab565b5b613fbb84828501613f4d565b91505092915050565b7f4d69736d6174636820696e2070726f647563742049447320616e64207175616e60008201527f746974696573206c656e67746800000000000000000000000000000000000000602082015250565b6000614020602d83612d54565b915061402b82613fc4565b604082019050919050565b6000602082019050818103600083015261404f81614013565b9050919050565b600061406182612dfd565b915061406c83612dfd565b925082820261407a81612dfd565b9150828204841483151761409157614090613c80565b5b5092915050565b7f4e487b7100000000000000000000000000000000000000000000000000000000600052601260045260246000fd5b60006140d282612dfd565b91506140dd83612dfd565b9250826140ed576140ec614098565b5b828204905092915050565b7f496e636f7272656374204d415449432073656e74000000000000000000000000600082015250565b600061412e601483612d54565b9150614139826140f8565b602082019050919050565b6000602082019050818103600083015261415d81614121565b9050919050565b6000606082019050614179600083018661351c565b614186602083018561351c565b6141936040830184613072565b949350505050565b7f52657761726420506f696e7473207472616e73666572206661696c6564000000600082015250565b60006141d1601d83612d54565b91506141dc8261419b565b602082019050919050565b60006020820190508181036000830152614200816141c4565b9050919050565b7f4c6f79616c747920546f6b656e207472616e73666572206661696c6564000000600082015250565b600061423d601d83612d54565b915061424882614207565b602082019050919050565b6000602082019050818103600083015261426c81614230565b9050919050565b7f5573657220616c72656164792072656769737465726564000000000000000000600082015250565b60006142a9601783612d54565b91506142b482614273565b602082019050919050565b600060208201905081810360008301526142d88161429c565b9050919050565b7f53656c6c657220616c7265616479207265676973746572656400000000000000600082015250565b6000614315601983612d54565b9150614320826142df565b602082019050919050565b6000602082019050818103600083015261434481614308565b9050919050565b600061435682612dfd565b915061436183612dfd565b925082820190508082111561437957614378613c80565b5b92915050565b600081519050919050565b600082825260208201905092915050565b6000819050602082019050919050565b60006143b78383612ed8565b60208301905092915050565b6000602082019050919050565b60006143db8261437f565b6143e5818561438a565b93506143f08361439b565b8060005b8381101561442157815161440888826143ab565b9750614413836143c3565b9250506001810190506143f4565b5085935050505092915050565b6000602082019050818103600083015261444881846143d0565b905092915050565b7f4f6e6c792073656c6c6572732063616e2063616c6c20746869732066756e637460008201527f696f6e0000000000000000000000000000000000000000000000000000000000602082015250565b60006144ac602383612d54565b91506144b782614450565b604082019050919050565b600060208201905081810360008301526144db8161449f565b9050919050565b60008190508160005260206000209050919050565b60006020601f8301049050919050565b600082821b905092915050565b6000600883026145447fffffffffffffffffffffffffffffffffffffffffffffffffffffffffffffffff82614507565b61454e8683614507565b95508019841693508086168417925050509392505050565b600061458161457c61457784612dfd565b6136d8565b612dfd565b9050919050565b6000819050919050565b61459b83614566565b6145af6145a782614588565b848454614514565b825550505050565b600090565b6145c46145b7565b6145cf818484614592565b505050565b5b818110156145f3576145e86000826145bc565b6001810190506145d5565b5050565b601f82111561463857614609816144e2565b614612846144f7565b81016020851015614621578190505b61463561462d856144f7565b8301826145d4565b50505b505050565b600082821c905092915050565b600061465b6000198460080261463d565b1980831691505092915050565b6000614674838361464a565b9150826002028217905092915050565b61468d82612e16565b67ffffffffffffffff8111156146a6576146a5613214565b5b6146b08254613d12565b6146bb8282856145f7565b600060209050601f8311600181146146ee57600084156146dc578287015190505b6146e68582614668565b86555061474e565b601f1984166146fc866144e2565b60005b82811015614724578489015182556001820191506020850194506020810190506146ff565b86831015614741578489015161473d601f89168261464a565b8355505b6001600288020188555050505b505050505050565b600060408201905081810360008301526147708185613752565b905061477f6020830184613072565b9392505050565b7f416d6f756e742073686f756c642062652067726561746572207468616e203000600082015250565b60006147bc601f83612d54565b91506147c782614786565b602082019050919050565b600060208201905081810360008301526147eb816147af565b905091905056fea2646970667358221220c3c467fd63e04c82f3fa65121a4fdba0a44799ab3101a52aac0ea502b030016864736f6c63430008130033","opcodes":"PUSH1 0xA0 PUSH1 0x40 MSTORE PUSH1 0x1 PUSH1 0x8 SSTORE PUSH1 0x1 PUSH1 0x9 SSTORE CALLVALUE DUP1 ISZERO PUSH3 0x1B JUMPI PUSH1 0x0 DUP1 REVERT JUMPDEST POP PUSH1 0x40 MLOAD PUSH3 0x4A10 CODESIZE SUB DUP1 PUSH3 0x4A10 DUP4 CODECOPY DUP2 DUP2 ADD PUSH1 0x40 MSTORE DUP2 ADD SWAP1 PUSH3 0x41 SWAP2 SWAP1 PUSH3 0x17E JUMP JUMPDEST CALLER PUSH1 0x0 DUP1 PUSH2 0x100 EXP DUP2 SLOAD DUP2 PUSH20 0xFFFFFFFFFFFFFFFFFFFFFFFFFFFFFFFFFFFFFFFF MUL NOT AND SWAP1 DUP4 PUSH20 0xFFFFFFFFFFFFFFFFFFFFFFFFFFFFFFFFFFFFFFFF AND MUL OR SWAP1 SSTORE POP DUP2 PUSH1 0x1 PUSH1 0x0 PUSH2 0x100 EXP DUP2 SLOAD DUP2 PUSH20 0xFFFFFFFFFFFFFFFFFFFFFFFFFFFFFFFFFFFFFFFF MUL NOT AND SWAP1 DUP4 PUSH20 0xFFFFFFFFFFFFFFFFFFFFFFFFFFFFFFFFFFFFFFFF AND MUL OR SWAP1 SSTORE POP DUP1 PUSH1 0x80 DUP2 DUP2 MSTORE POP POP TIMESTAMP PUSH1 0x2 DUP2 SWAP1 SSTORE POP POP POP PUSH3 0x1C5 JUMP JUMPDEST PUSH1 0x0 DUP1 REVERT JUMPDEST PUSH1 0x0 PUSH20 0xFFFFFFFFFFFFFFFFFFFFFFFFFFFFFFFFFFFFFFFF DUP3 AND SWAP1 POP SWAP2 SWAP1 POP JUMP JUMPDEST PUSH1 0x0 PUSH3 0x10B DUP3 PUSH3 0xDE JUMP JUMPDEST SWAP1 POP SWAP2 SWAP1 POP JUMP JUMPDEST PUSH3 0x11D DUP2 PUSH3 0xFE JUMP JUMPDEST DUP2 EQ PUSH3 0x129 JUMPI PUSH1 0x0 DUP1 REVERT JUMPDEST POP JUMP JUMPDEST PUSH1 0x0 DUP2 MLOAD SWAP1 POP PUSH3 0x13D DUP2 PUSH3 0x112 JUMP JUMPDEST SWAP3 SWAP2 POP POP JUMP JUMPDEST PUSH1 0x0 DUP2 SWAP1 POP SWAP2 SWAP1 POP JUMP JUMPDEST PUSH3 0x158 DUP2 PUSH3 0x143 JUMP JUMPDEST DUP2 EQ PUSH3 0x164 JUMPI PUSH1 0x0 DUP1 REVERT JUMPDEST POP JUMP JUMPDEST PUSH1 0x0 DUP2 MLOAD SWAP1 POP PUSH3 0x178 DUP2 PUSH3 0x14D JUMP JUMPDEST SWAP3 SWAP2 POP POP JUMP JUMPDEST PUSH1 0x0 DUP1 PUSH1 0x40 DUP4 DUP6 SUB SLT ISZERO PUSH3 0x198 JUMPI PUSH3 0x197 PUSH3 0xD9 JUMP JUMPDEST JUMPDEST PUSH1 0x0 PUSH3 0x1A8 DUP6 DUP3 DUP7 ADD PUSH3 0x12C JUMP JUMPDEST SWAP3 POP POP PUSH1 0x20 PUSH3 0x1BB DUP6 DUP3 DUP7 ADD PUSH3 0x167 JUMP JUMPDEST SWAP2 POP POP SWAP3 POP SWAP3 SWAP1 POP JUMP JUMPDEST PUSH1 0x80 MLOAD PUSH2 0x4828 PUSH3 0x1E8 PUSH1 0x0 CODECOPY PUSH1 0x0 DUP2 DUP2 PUSH2 0x1DD8 ADD MSTORE PUSH2 0x25E3 ADD MSTORE PUSH2 0x4828 PUSH1 0x0 RETURN INVALID PUSH1 0x80 PUSH1 0x40 MSTORE PUSH1 0x4 CALLDATASIZE LT PUSH2 0x16A JUMPI PUSH1 0x0 CALLDATALOAD PUSH1 0xE0 SHR DUP1 PUSH4 0x664E9704 GT PUSH2 0xD1 JUMPI DUP1 PUSH4 0x947A36FB GT PUSH2 0x8A JUMPI DUP1 PUSH4 0xB656638B GT PUSH2 0x64 JUMPI DUP1 PUSH4 0xB656638B EQ PUSH2 0x543 JUMPI DUP1 PUSH4 0xBF368399 EQ PUSH2 0x56C JUMPI DUP1 PUSH4 0xF851A440 EQ PUSH2 0x5A9 JUMPI DUP1 PUSH4 0xFFA8EFC9 EQ PUSH2 0x5D4 JUMPI PUSH2 0x179 JUMP JUMPDEST DUP1 PUSH4 0x947A36FB EQ PUSH2 0x499 JUMPI DUP1 PUSH4 0xA85C38EF EQ PUSH2 0x4C4 JUMPI DUP1 PUSH4 0xA87430BA EQ PUSH2 0x504 JUMPI PUSH2 0x179 JUMP JUMPDEST DUP1 PUSH4 0x664E9704 EQ PUSH2 0x35A JUMPI DUP1 PUSH4 0x6D47AB72 EQ PUSH2 0x385 JUMPI DUP1 PUSH4 0x6E04FF0D EQ PUSH2 0x3C2 JUMPI DUP1 PUSH4 0x770AA84D EQ PUSH2 0x400 JUMPI DUP1 PUSH4 0x7ACC0B20 EQ PUSH2 0x42B JUMPI DUP1 PUSH4 0x816837E3 EQ PUSH2 0x470 JUMPI PUSH2 0x179 JUMP JUMPDEST DUP1 PUSH4 0x4585E33B GT PUSH2 0x123 JUMPI DUP1 PUSH4 0x4585E33B EQ PUSH2 0x291 JUMPI DUP1 PUSH4 0x45A38293 EQ PUSH2 0x2BA JUMPI DUP1 PUSH4 0x4D3820EB EQ PUSH2 0x2D6 JUMPI DUP1 PUSH4 0x4DE91A63 EQ PUSH2 0x2ED JUMPI DUP1 PUSH4 0x52C9224C EQ PUSH2 0x318 JUMPI DUP1 PUSH4 0x562DF3D5 EQ PUSH2 0x32F JUMPI PUSH2 0x179 JUMP JUMPDEST DUP1 PUSH4 0x2EE3A52 EQ PUSH2 0x1B4 JUMPI DUP1 PUSH4 0x19D8AC61 EQ PUSH2 0x1DF JUMPI DUP1 PUSH4 0x2A58B330 EQ PUSH2 0x20A JUMPI DUP1 PUSH4 0x315A095D EQ PUSH2 0x235 JUMPI DUP1 PUSH4 0x33FF7BBD EQ PUSH2 0x25E JUMPI DUP1 PUSH4 0x42DF2B1D EQ PUSH2 0x268 JUMPI PUSH2 0x179 JUMP JUMPDEST CALLDATASIZE PUSH2 0x179 JUMPI PUSH2 0x177 PUSH2 0x5FD JUMP JUMPDEST STOP JUMPDEST PUSH1 0x40 MLOAD PUSH32 0x8C379A000000000000000000000000000000000000000000000000000000000 DUP2 MSTORE PUSH1 0x4 ADD PUSH2 0x1AB SWAP1 PUSH2 0x2DB1 JUMP JUMPDEST PUSH1 0x40 MLOAD DUP1 SWAP2 SUB SWAP1 REVERT JUMPDEST CALLVALUE DUP1 ISZERO PUSH2 0x1C0 JUMPI PUSH1 0x0 DUP1 REVERT JUMPDEST POP PUSH2 0x1C9 PUSH2 0x86F JUMP JUMPDEST PUSH1 0x40 MLOAD PUSH2 0x1D6 SWAP2 SWAP1 PUSH2 0x3050 JUMP JUMPDEST PUSH1 0x40 MLOAD DUP1 SWAP2 SUB SWAP1 RETURN JUMPDEST CALLVALUE DUP1 ISZERO PUSH2 0x1EB JUMPI PUSH1 0x0 DUP1 REVERT JUMPDEST POP PUSH2 0x1F4 PUSH2 0xB8A JUMP JUMPDEST PUSH1 0x40 MLOAD PUSH2 0x201 SWAP2 SWAP1 PUSH2 0x3081 JUMP JUMPDEST PUSH1 0x40 MLOAD DUP1 SWAP2 SUB SWAP1 RETURN JUMPDEST CALLVALUE DUP1 ISZERO PUSH2 0x216 JUMPI PUSH1 0x0 DUP1 REVERT JUMPDEST POP PUSH2 0x21F PUSH2 0xB90 JUMP JUMPDEST PUSH1 0x40 MLOAD PUSH2 0x22C SWAP2 SWAP1 PUSH2 0x3081 JUMP JUMPDEST PUSH1 0x40 MLOAD DUP1 SWAP2 SUB SWAP1 RETURN JUMPDEST CALLVALUE DUP1 ISZERO PUSH2 0x241 JUMPI PUSH1 0x0 DUP1 REVERT JUMPDEST POP PUSH2 0x25C PUSH1 0x4 DUP1 CALLDATASIZE SUB DUP2 ADD SWAP1 PUSH2 0x257 SWAP2 SWAP1 PUSH2 0x30DC JUMP JUMPDEST PUSH2 0xB96 JUMP JUMPDEST STOP JUMPDEST PUSH2 0x266 PUSH2 0x5FD JUMP JUMPDEST STOP JUMPDEST CALLVALUE DUP1 ISZERO PUSH2 0x274 JUMPI PUSH1 0x0 DUP1 REVERT JUMPDEST POP PUSH2 0x28F PUSH1 0x4 DUP1 CALLDATASIZE SUB DUP2 ADD SWAP1 PUSH2 0x28A SWAP2 SWAP1 PUSH2 0x3135 JUMP JUMPDEST PUSH2 0xD36 JUMP JUMPDEST STOP JUMPDEST CALLVALUE DUP1 ISZERO PUSH2 0x29D JUMPI PUSH1 0x0 DUP1 REVERT JUMPDEST POP PUSH2 0x2B8 PUSH1 0x4 DUP1 CALLDATASIZE SUB DUP2 ADD SWAP1 PUSH2 0x2B3 SWAP2 SWAP1 PUSH2 0x31C7 JUMP JUMPDEST PUSH2 0xE56 JUMP JUMPDEST STOP JUMPDEST PUSH2 0x2D4 PUSH1 0x4 DUP1 CALLDATASIZE SUB DUP2 ADD SWAP1 PUSH2 0x2CF SWAP2 SWAP1 PUSH2 0x344D JUMP JUMPDEST PUSH2 0xEEA JUMP JUMPDEST STOP JUMPDEST CALLVALUE DUP1 ISZERO PUSH2 0x2E2 JUMPI PUSH1 0x0 DUP1 REVERT JUMPDEST POP PUSH2 0x2EB PUSH2 0x18F9 JUMP JUMPDEST STOP JUMPDEST CALLVALUE DUP1 ISZERO PUSH2 0x2F9 JUMPI PUSH1 0x0 DUP1 REVERT JUMPDEST POP PUSH2 0x302 PUSH2 0x1B4B JUMP JUMPDEST PUSH1 0x40 MLOAD PUSH2 0x30F SWAP2 SWAP1 PUSH2 0x3081 JUMP JUMPDEST PUSH1 0x40 MLOAD DUP1 SWAP2 SUB SWAP1 RETURN JUMPDEST CALLVALUE DUP1 ISZERO PUSH2 0x324 JUMPI PUSH1 0x0 DUP1 REVERT JUMPDEST POP PUSH2 0x32D PUSH2 0x1B51 JUMP JUMPDEST STOP JUMPDEST CALLVALUE DUP1 ISZERO PUSH2 0x33B JUMPI PUSH1 0x0 DUP1 REVERT JUMPDEST POP PUSH2 0x344 PUSH2 0x1D81 JUMP JUMPDEST PUSH1 0x40 MLOAD PUSH2 0x351 SWAP2 SWAP1 PUSH2 0x3081 JUMP JUMPDEST PUSH1 0x40 MLOAD DUP1 SWAP2 SUB SWAP1 RETURN JUMPDEST CALLVALUE DUP1 ISZERO PUSH2 0x366 JUMPI PUSH1 0x0 DUP1 REVERT JUMPDEST POP PUSH2 0x36F PUSH2 0x1D86 JUMP JUMPDEST PUSH1 0x40 MLOAD PUSH2 0x37C SWAP2 SWAP1 PUSH2 0x3081 JUMP JUMPDEST PUSH1 0x40 MLOAD DUP1 SWAP2 SUB SWAP1 RETURN JUMPDEST CALLVALUE DUP1 ISZERO PUSH2 0x391 JUMPI PUSH1 0x0 DUP1 REVERT JUMPDEST POP PUSH2 0x3AC PUSH1 0x4 DUP1 CALLDATASIZE SUB DUP2 ADD SWAP1 PUSH2 0x3A7 SWAP2 SWAP1 PUSH2 0x3135 JUMP JUMPDEST PUSH2 0x1D92 JUMP JUMPDEST PUSH1 0x40 MLOAD PUSH2 0x3B9 SWAP2 SWAP1 PUSH2 0x352B JUMP JUMPDEST PUSH1 0x40 MLOAD DUP1 SWAP2 SUB SWAP1 RETURN JUMPDEST CALLVALUE DUP1 ISZERO PUSH2 0x3CE JUMPI PUSH1 0x0 DUP1 REVERT JUMPDEST POP PUSH2 0x3E9 PUSH1 0x4 DUP1 CALLDATASIZE SUB DUP2 ADD SWAP1 PUSH2 0x3E4 SWAP2 SWAP1 PUSH2 0x35FB JUMP JUMPDEST PUSH2 0x1DD0 JUMP JUMPDEST PUSH1 0x40 MLOAD PUSH2 0x3F7 SWAP3 SWAP2 SWAP1 PUSH2 0x36A8 JUMP JUMPDEST PUSH1 0x40 MLOAD DUP1 SWAP2 SUB SWAP1 RETURN JUMPDEST CALLVALUE DUP1 ISZERO PUSH2 0x40C JUMPI PUSH1 0x0 DUP1 REVERT JUMPDEST POP PUSH2 0x415 PUSH2 0x226F JUMP JUMPDEST PUSH1 0x40 MLOAD PUSH2 0x422 SWAP2 SWAP1 PUSH2 0x3737 JUMP JUMPDEST PUSH1 0x40 MLOAD DUP1 SWAP2 SUB SWAP1 RETURN JUMPDEST CALLVALUE DUP1 ISZERO PUSH2 0x437 JUMPI PUSH1 0x0 DUP1 REVERT JUMPDEST POP PUSH2 0x452 PUSH1 0x4 DUP1 CALLDATASIZE SUB DUP2 ADD SWAP1 PUSH2 0x44D SWAP2 SWAP1 PUSH2 0x30DC JUMP JUMPDEST PUSH2 0x2295 JUMP JUMPDEST PUSH1 0x40 MLOAD PUSH2 0x467 SWAP10 SWAP9 SWAP8 SWAP7 SWAP6 SWAP5 SWAP4 SWAP3 SWAP2 SWAP1 PUSH2 0x378B JUMP JUMPDEST PUSH1 0x40 MLOAD DUP1 SWAP2 SUB SWAP1 RETURN JUMPDEST CALLVALUE DUP1 ISZERO PUSH2 0x47C JUMPI PUSH1 0x0 DUP1 REVERT JUMPDEST POP PUSH2 0x497 PUSH1 0x4 DUP1 CALLDATASIZE SUB DUP2 ADD SWAP1 PUSH2 0x492 SWAP2 SWAP1 PUSH2 0x30DC JUMP JUMPDEST PUSH2 0x249B JUMP JUMPDEST STOP JUMPDEST CALLVALUE DUP1 ISZERO PUSH2 0x4A5 JUMPI PUSH1 0x0 DUP1 REVERT JUMPDEST POP PUSH2 0x4AE PUSH2 0x25E1 JUMP JUMPDEST PUSH1 0x40 MLOAD PUSH2 0x4BB SWAP2 SWAP1 PUSH2 0x3081 JUMP JUMPDEST PUSH1 0x40 MLOAD DUP1 SWAP2 SUB SWAP1 RETURN JUMPDEST CALLVALUE DUP1 ISZERO PUSH2 0x4D0 JUMPI PUSH1 0x0 DUP1 REVERT JUMPDEST POP PUSH2 0x4EB PUSH1 0x4 DUP1 CALLDATASIZE SUB DUP2 ADD SWAP1 PUSH2 0x4E6 SWAP2 SWAP1 PUSH2 0x30DC JUMP JUMPDEST PUSH2 0x2605 JUMP JUMPDEST PUSH1 0x40 MLOAD PUSH2 0x4FB SWAP5 SWAP4 SWAP3 SWAP2 SWAP1 PUSH2 0x382D JUMP JUMPDEST PUSH1 0x40 MLOAD DUP1 SWAP2 SUB SWAP1 RETURN JUMPDEST CALLVALUE DUP1 ISZERO PUSH2 0x510 JUMPI PUSH1 0x0 DUP1 REVERT JUMPDEST POP PUSH2 0x52B PUSH1 0x4 DUP1 CALLDATASIZE SUB DUP2 ADD SWAP1 PUSH2 0x526 SWAP2 SWAP1 PUSH2 0x3135 JUMP JUMPDEST PUSH2 0x2655 JUMP JUMPDEST PUSH1 0x40 MLOAD PUSH2 0x53A SWAP4 SWAP3 SWAP2 SWAP1 PUSH2 0x3872 JUMP JUMPDEST PUSH1 0x40 MLOAD DUP1 SWAP2 SUB SWAP1 RETURN JUMPDEST CALLVALUE DUP1 ISZERO PUSH2 0x54F JUMPI PUSH1 0x0 DUP1 REVERT JUMPDEST POP PUSH2 0x56A PUSH1 0x4 DUP1 CALLDATASIZE SUB DUP2 ADD SWAP1 PUSH2 0x565 SWAP2 SWAP1 PUSH2 0x394A JUMP JUMPDEST PUSH2 0x269F JUMP JUMPDEST STOP JUMPDEST CALLVALUE DUP1 ISZERO PUSH2 0x578 JUMPI PUSH1 0x0 DUP1 REVERT JUMPDEST POP PUSH2 0x593 PUSH1 0x4 DUP1 CALLDATASIZE SUB DUP2 ADD SWAP1 PUSH2 0x58E SWAP2 SWAP1 PUSH2 0x30DC JUMP JUMPDEST PUSH2 0x297B JUMP JUMPDEST PUSH1 0x40 MLOAD PUSH2 0x5A0 SWAP2 SWAP1 PUSH2 0x352B JUMP JUMPDEST PUSH1 0x40 MLOAD DUP1 SWAP2 SUB SWAP1 RETURN JUMPDEST CALLVALUE DUP1 ISZERO PUSH2 0x5B5 JUMPI PUSH1 0x0 DUP1 REVERT JUMPDEST POP PUSH2 0x5BE PUSH2 0x29BA JUMP JUMPDEST PUSH1 0x40 MLOAD PUSH2 0x5CB SWAP2 SWAP1 PUSH2 0x352B JUMP JUMPDEST PUSH1 0x40 MLOAD DUP1 SWAP2 SUB SWAP1 RETURN JUMPDEST CALLVALUE DUP1 ISZERO PUSH2 0x5E0 JUMPI PUSH1 0x0 DUP1 REVERT JUMPDEST POP PUSH2 0x5FB PUSH1 0x4 DUP1 CALLDATASIZE SUB DUP2 ADD SWAP1 PUSH2 0x5F6 SWAP2 SWAP1 PUSH2 0x30DC JUMP JUMPDEST PUSH2 0x29DE JUMP JUMPDEST STOP JUMPDEST PUSH1 0x0 CALLVALUE GT PUSH2 0x640 JUMPI PUSH1 0x40 MLOAD PUSH32 0x8C379A000000000000000000000000000000000000000000000000000000000 DUP2 MSTORE PUSH1 0x4 ADD PUSH2 0x637 SWAP1 PUSH2 0x3AB2 JUMP JUMPDEST PUSH1 0x40 MLOAD DUP1 SWAP2 SUB SWAP1 REVERT JUMPDEST PUSH1 0x0 PUSH2 0x65D PUSH8 0xDE0B6B3A7640000 CALLVALUE PUSH2 0x2BBC SWAP1 SWAP2 SWAP1 PUSH4 0xFFFFFFFF AND JUMP JUMPDEST SWAP1 POP DUP1 PUSH1 0x1 PUSH1 0x0 SWAP1 SLOAD SWAP1 PUSH2 0x100 EXP SWAP1 DIV PUSH20 0xFFFFFFFFFFFFFFFFFFFFFFFFFFFFFFFFFFFFFFFF AND PUSH20 0xFFFFFFFFFFFFFFFFFFFFFFFFFFFFFFFFFFFFFFFF AND PUSH4 0x70A08231 ADDRESS PUSH1 0x40 MLOAD DUP3 PUSH4 0xFFFFFFFF AND PUSH1 0xE0 SHL DUP2 MSTORE PUSH1 0x4 ADD PUSH2 0x6BB SWAP2 SWAP1 PUSH2 0x352B JUMP JUMPDEST PUSH1 0x20 PUSH1 0x40 MLOAD DUP1 DUP4 SUB DUP2 DUP7 GAS STATICCALL ISZERO DUP1 ISZERO PUSH2 0x6D8 JUMPI RETURNDATASIZE PUSH1 0x0 DUP1 RETURNDATACOPY RETURNDATASIZE PUSH1 0x0 REVERT JUMPDEST POP POP POP POP PUSH1 0x40 MLOAD RETURNDATASIZE PUSH1 0x1F NOT PUSH1 0x1F DUP3 ADD AND DUP3 ADD DUP1 PUSH1 0x40 MSTORE POP DUP2 ADD SWAP1 PUSH2 0x6FC SWAP2 SWAP1 PUSH2 0x3AE7 JUMP JUMPDEST LT ISZERO PUSH2 0x73D JUMPI PUSH1 0x40 MLOAD PUSH32 0x8C379A000000000000000000000000000000000000000000000000000000000 DUP2 MSTORE PUSH1 0x4 ADD PUSH2 0x734 SWAP1 PUSH2 0x3B60 JUMP JUMPDEST PUSH1 0x40 MLOAD DUP1 SWAP2 SUB SWAP1 REVERT JUMPDEST PUSH1 0x1 PUSH1 0x0 SWAP1 SLOAD SWAP1 PUSH2 0x100 EXP SWAP1 DIV PUSH20 0xFFFFFFFFFFFFFFFFFFFFFFFFFFFFFFFFFFFFFFFF AND PUSH20 0xFFFFFFFFFFFFFFFFFFFFFFFFFFFFFFFFFFFFFFFF AND PUSH4 0xA9059CBB CALLER DUP4 PUSH1 0x40 MLOAD DUP4 PUSH4 0xFFFFFFFF AND PUSH1 0xE0 SHL DUP2 MSTORE PUSH1 0x4 ADD PUSH2 0x79A SWAP3 SWAP2 SWAP1 PUSH2 0x3B80 JUMP JUMPDEST PUSH1 0x20 PUSH1 0x40 MLOAD DUP1 DUP4 SUB DUP2 PUSH1 0x0 DUP8 GAS CALL ISZERO DUP1 ISZERO PUSH2 0x7B9 JUMPI RETURNDATASIZE PUSH1 0x0 DUP1 RETURNDATACOPY RETURNDATASIZE PUSH1 0x0 REVERT JUMPDEST POP POP POP POP PUSH1 0x40 MLOAD RETURNDATASIZE PUSH1 0x1F NOT PUSH1 0x1F DUP3 ADD AND DUP3 ADD DUP1 PUSH1 0x40 MSTORE POP DUP2 ADD SWAP1 PUSH2 0x7DD SWAP2 SWAP1 PUSH2 0x3BBE JUMP JUMPDEST PUSH2 0x81C JUMPI PUSH1 0x40 MLOAD PUSH32 0x8C379A000000000000000000000000000000000000000000000000000000000 DUP2 MSTORE PUSH1 0x4 ADD PUSH2 0x813 SWAP1 PUSH2 0x3C37 JUMP JUMPDEST PUSH1 0x40 MLOAD DUP1 SWAP2 SUB SWAP1 REVERT JUMPDEST CALLER PUSH20 0xFFFFFFFFFFFFFFFFFFFFFFFFFFFFFFFFFFFFFFFF AND PUSH32 0x95DB8762F4600873DF8FDBC44F0E34FA831E5CC7396F3DDA3A5CD0825ACD5BDB CALLVALUE DUP4 PUSH1 0x40 MLOAD PUSH2 0x864 SWAP3 SWAP2 SWAP1 PUSH2 0x3C57 JUMP JUMPDEST PUSH1 0x40 MLOAD DUP1 SWAP2 SUB SWAP1 LOG2 POP JUMP JUMPDEST PUSH1 0x60 PUSH1 0x0 PUSH1 0x1 PUSH1 0x8 SLOAD PUSH2 0x882 SWAP2 SWAP1 PUSH2 0x3CAF JUMP JUMPDEST PUSH8 0xFFFFFFFFFFFFFFFF DUP2 GT ISZERO PUSH2 0x89B JUMPI PUSH2 0x89A PUSH2 0x3214 JUMP JUMPDEST JUMPDEST PUSH1 0x40 MLOAD SWAP1 DUP1 DUP3 MSTORE DUP1 PUSH1 0x20 MUL PUSH1 0x20 ADD DUP3 ADD PUSH1 0x40 MSTORE DUP1 ISZERO PUSH2 0x8D4 JUMPI DUP2 PUSH1 0x20 ADD JUMPDEST PUSH2 0x8C1 PUSH2 0x2BFE JUMP JUMPDEST DUP2 MSTORE PUSH1 0x20 ADD SWAP1 PUSH1 0x1 SWAP1 SUB SWAP1 DUP2 PUSH2 0x8B9 JUMPI SWAP1 POP JUMPDEST POP SWAP1 POP PUSH1 0x0 PUSH1 0x1 SWAP1 POP JUMPDEST PUSH1 0x8 SLOAD DUP2 LT ISZERO PUSH2 0xB82 JUMPI PUSH1 0x6 PUSH1 0x0 DUP3 DUP2 MSTORE PUSH1 0x20 ADD SWAP1 DUP2 MSTORE PUSH1 0x20 ADD PUSH1 0x0 KECCAK256 PUSH1 0x40 MLOAD DUP1 PUSH2 0x120 ADD PUSH1 0x40 MSTORE SWAP1 DUP2 PUSH1 0x0 DUP3 ADD SLOAD DUP2 MSTORE PUSH1 0x20 ADD PUSH1 0x1 DUP3 ADD DUP1 SLOAD PUSH2 0x921 SWAP1 PUSH2 0x3D12 JUMP JUMPDEST DUP1 PUSH1 0x1F ADD PUSH1 0x20 DUP1 SWAP2 DIV MUL PUSH1 0x20 ADD PUSH1 0x40 MLOAD SWAP1 DUP2 ADD PUSH1 0x40 MSTORE DUP1 SWAP3 SWAP2 SWAP1 DUP2 DUP2 MSTORE PUSH1 0x20 ADD DUP3 DUP1 SLOAD PUSH2 0x94D SWAP1 PUSH2 0x3D12 JUMP JUMPDEST DUP1 ISZERO PUSH2 0x99A JUMPI DUP1 PUSH1 0x1F LT PUSH2 0x96F JUMPI PUSH2 0x100 DUP1 DUP4 SLOAD DIV MUL DUP4 MSTORE SWAP2 PUSH1 0x20 ADD SWAP2 PUSH2 0x99A JUMP JUMPDEST DUP3 ADD SWAP2 SWAP1 PUSH1 0x0 MSTORE PUSH1 0x20 PUSH1 0x0 KECCAK256 SWAP1 JUMPDEST DUP2 SLOAD DUP2 MSTORE SWAP1 PUSH1 0x1 ADD SWAP1 PUSH1 0x20 ADD DUP1 DUP4 GT PUSH2 0x97D JUMPI DUP3 SWAP1 SUB PUSH1 0x1F AND DUP3 ADD SWAP2 JUMPDEST POP POP POP POP POP DUP2 MSTORE PUSH1 0x20 ADD PUSH1 0x2 DUP3 ADD DUP1 SLOAD PUSH2 0x9B3 SWAP1 PUSH2 0x3D12 JUMP JUMPDEST DUP1 PUSH1 0x1F ADD PUSH1 0x20 DUP1 SWAP2 DIV MUL PUSH1 0x20 ADD PUSH1 0x40 MLOAD SWAP1 DUP2 ADD PUSH1 0x40 MSTORE DUP1 SWAP3 SWAP2 SWAP1 DUP2 DUP2 MSTORE PUSH1 0x20 ADD DUP3 DUP1 SLOAD PUSH2 0x9DF SWAP1 PUSH2 0x3D12 JUMP JUMPDEST DUP1 ISZERO PUSH2 0xA2C JUMPI DUP1 PUSH1 0x1F LT PUSH2 0xA01 JUMPI PUSH2 0x100 DUP1 DUP4 SLOAD DIV MUL DUP4 MSTORE SWAP2 PUSH1 0x20 ADD SWAP2 PUSH2 0xA2C JUMP JUMPDEST DUP3 ADD SWAP2 SWAP1 PUSH1 0x0 MSTORE PUSH1 0x20 PUSH1 0x0 KECCAK256 SWAP1 JUMPDEST DUP2 SLOAD DUP2 MSTORE SWAP1 PUSH1 0x1 ADD SWAP1 PUSH1 0x20 ADD DUP1 DUP4 GT PUSH2 0xA0F JUMPI DUP3 SWAP1 SUB PUSH1 0x1F AND DUP3 ADD SWAP2 JUMPDEST POP POP POP POP POP DUP2 MSTORE PUSH1 0x20 ADD PUSH1 0x3 DUP3 ADD SLOAD DUP2 MSTORE PUSH1 0x20 ADD PUSH1 0x4 DUP3 ADD PUSH1 0x0 SWAP1 SLOAD SWAP1 PUSH2 0x100 EXP SWAP1 DIV PUSH20 0xFFFFFFFFFFFFFFFFFFFFFFFFFFFFFFFFFFFFFFFF AND PUSH20 0xFFFFFFFFFFFFFFFFFFFFFFFFFFFFFFFFFFFFFFFF AND PUSH20 0xFFFFFFFFFFFFFFFFFFFFFFFFFFFFFFFFFFFFFFFF AND DUP2 MSTORE PUSH1 0x20 ADD PUSH1 0x5 DUP3 ADD SLOAD DUP2 MSTORE PUSH1 0x20 ADD PUSH1 0x6 DUP3 ADD SLOAD DUP2 MSTORE PUSH1 0x20 ADD PUSH1 0x7 DUP3 ADD SLOAD DUP2 MSTORE PUSH1 0x20 ADD PUSH1 0x8 DUP3 ADD DUP1 SLOAD PUSH2 0xAC3 SWAP1 PUSH2 0x3D12 JUMP JUMPDEST DUP1 PUSH1 0x1F ADD PUSH1 0x20 DUP1 SWAP2 DIV MUL PUSH1 0x20 ADD PUSH1 0x40 MLOAD SWAP1 DUP2 ADD PUSH1 0x40 MSTORE DUP1 SWAP3 SWAP2 SWAP1 DUP2 DUP2 MSTORE PUSH1 0x20 ADD DUP3 DUP1 SLOAD PUSH2 0xAEF SWAP1 PUSH2 0x3D12 JUMP JUMPDEST DUP1 ISZERO PUSH2 0xB3C JUMPI DUP1 PUSH1 0x1F LT PUSH2 0xB11 JUMPI PUSH2 0x100 DUP1 DUP4 SLOAD DIV MUL DUP4 MSTORE SWAP2 PUSH1 0x20 ADD SWAP2 PUSH2 0xB3C JUMP JUMPDEST DUP3 ADD SWAP2 SWAP1 PUSH1 0x0 MSTORE PUSH1 0x20 PUSH1 0x0 KECCAK256 SWAP1 JUMPDEST DUP2 SLOAD DUP2 MSTORE SWAP1 PUSH1 0x1 ADD SWAP1 PUSH1 0x20 ADD DUP1 DUP4 GT PUSH2 0xB1F JUMPI DUP3 SWAP1 SUB PUSH1 0x1F AND DUP3 ADD SWAP2 JUMPDEST POP POP POP POP POP DUP2 MSTORE POP POP DUP3 PUSH1 0x1 DUP4 PUSH2 0xB53 SWAP2 SWAP1 PUSH2 0x3CAF JUMP JUMPDEST DUP2 MLOAD DUP2 LT PUSH2 0xB64 JUMPI PUSH2 0xB63 PUSH2 0x3D43 JUMP JUMPDEST JUMPDEST PUSH1 0x20 MUL PUSH1 0x20 ADD ADD DUP2 SWAP1 MSTORE POP DUP1 DUP1 PUSH2 0xB7A SWAP1 PUSH2 0x3D72 JUMP JUMPDEST SWAP2 POP POP PUSH2 0x8DE JUMP JUMPDEST POP DUP1 SWAP2 POP POP SWAP1 JUMP JUMPDEST PUSH1 0x2 SLOAD DUP2 JUMP JUMPDEST PUSH1 0x9 SLOAD DUP2 JUMP JUMPDEST PUSH1 0x0 DUP1 SLOAD SWAP1 PUSH2 0x100 EXP SWAP1 DIV PUSH20 0xFFFFFFFFFFFFFFFFFFFFFFFFFFFFFFFFFFFFFFFF AND PUSH20 0xFFFFFFFFFFFFFFFFFFFFFFFFFFFFFFFFFFFFFFFF AND CALLER PUSH20 0xFFFFFFFFFFFFFFFFFFFFFFFFFFFFFFFFFFFFFFFF AND EQ PUSH2 0xC24 JUMPI PUSH1 0x40 MLOAD PUSH32 0x8C379A000000000000000000000000000000000000000000000000000000000 DUP2 MSTORE PUSH1 0x4 ADD PUSH2 0xC1B SWAP1 PUSH2 0x3E2C JUMP JUMPDEST PUSH1 0x40 MLOAD DUP1 SWAP2 SUB SWAP1 REVERT JUMPDEST PUSH1 0x1 PUSH1 0x0 SWAP1 SLOAD SWAP1 PUSH2 0x100 EXP SWAP1 DIV PUSH20 0xFFFFFFFFFFFFFFFFFFFFFFFFFFFFFFFFFFFFFFFF AND PUSH20 0xFFFFFFFFFFFFFFFFFFFFFFFFFFFFFFFFFFFFFFFF AND PUSH4 0xA9059CBB PUSH1 0x0 DUP1 SLOAD SWAP1 PUSH2 0x100 EXP SWAP1 DIV PUSH20 0xFFFFFFFFFFFFFFFFFFFFFFFFFFFFFFFFFFFFFFFF AND DUP4 PUSH1 0x40 MLOAD DUP4 PUSH4 0xFFFFFFFF AND PUSH1 0xE0 SHL DUP2 MSTORE PUSH1 0x4 ADD PUSH2 0xCA1 SWAP3 SWAP2 SWAP1 PUSH2 0x3B80 JUMP JUMPDEST PUSH1 0x20 PUSH1 0x40 MLOAD DUP1 DUP4 SUB DUP2 PUSH1 0x0 DUP8 GAS CALL ISZERO DUP1 ISZERO PUSH2 0xCC0 JUMPI RETURNDATASIZE PUSH1 0x0 DUP1 RETURNDATACOPY RETURNDATASIZE PUSH1 0x0 REVERT JUMPDEST POP POP POP POP PUSH1 0x40 MLOAD RETURNDATASIZE PUSH1 0x1F NOT PUSH1 0x1F DUP3 ADD AND DUP3 ADD DUP1 PUSH1 0x40 MSTORE POP DUP2 ADD SWAP1 PUSH2 0xCE4 SWAP2 SWAP1 PUSH2 0x3BBE JUMP JUMPDEST POP CALLER PUSH20 0xFFFFFFFFFFFFFFFFFFFFFFFFFFFFFFFFFFFFFFFF AND PUSH32 0x6352C5382C4A4578E712449CA65E83CDB392D045DFCF1CAD9615189DB2DA244B DUP3 PUSH1 0x40 MLOAD PUSH2 0xD2B SWAP2 SWAP1 PUSH2 0x3081 JUMP JUMPDEST PUSH1 0x40 MLOAD DUP1 SWAP2 SUB SWAP1 LOG2 POP JUMP JUMPDEST PUSH1 0x0 DUP1 SLOAD SWAP1 PUSH2 0x100 EXP SWAP1 DIV PUSH20 0xFFFFFFFFFFFFFFFFFFFFFFFFFFFFFFFFFFFFFFFF AND PUSH20 0xFFFFFFFFFFFFFFFFFFFFFFFFFFFFFFFFFFFFFFFF AND CALLER PUSH20 0xFFFFFFFFFFFFFFFFFFFFFFFFFFFFFFFFFFFFFFFF AND EQ PUSH2 0xDC4 JUMPI PUSH1 0x40 MLOAD PUSH32 0x8C379A000000000000000000000000000000000000000000000000000000000 DUP2 MSTORE PUSH1 0x4 ADD PUSH2 0xDBB SWAP1 PUSH2 0x3E2C JUMP JUMPDEST PUSH1 0x40 MLOAD DUP1 SWAP2 SUB SWAP1 REVERT JUMPDEST DUP1 PUSH1 0x1 PUSH1 0x0 PUSH2 0x100 EXP DUP2 SLOAD DUP2 PUSH20 0xFFFFFFFFFFFFFFFFFFFFFFFFFFFFFFFFFFFFFFFF MUL NOT AND SWAP1 DUP4 PUSH20 0xFFFFFFFFFFFFFFFFFFFFFFFFFFFFFFFFFFFFFFFF AND MUL OR SWAP1 SSTORE POP CALLER PUSH20 0xFFFFFFFFFFFFFFFFFFFFFFFFFFFFFFFFFFFFFFFF AND PUSH32 0x6ECA818BB499E114C9A2EAD8C104A976418F0CA9C27FD7EAD167E9125E613D45 DUP3 PUSH1 0x40 MLOAD PUSH2 0xE4B SWAP2 SWAP1 PUSH2 0x352B JUMP JUMPDEST PUSH1 0x40 MLOAD DUP1 SWAP2 SUB SWAP1 LOG2 POP JUMP JUMPDEST PUSH1 0x0 PUSH2 0xE70 PUSH1 0x40 MLOAD DUP1 PUSH1 0x20 ADD PUSH1 0x40 MSTORE DUP1 PUSH1 0x0 DUP2 MSTORE POP PUSH2 0x1DD0 JUMP JUMPDEST POP SWAP1 POP DUP1 PUSH2 0xEB3 JUMPI PUSH1 0x40 MLOAD PUSH32 0x8C379A000000000000000000000000000000000000000000000000000000000 DUP2 MSTORE PUSH1 0x4 ADD PUSH2 0xEAA SWAP1 PUSH2 0x3E98 JUMP JUMPDEST PUSH1 0x40 MLOAD DUP1 SWAP2 SUB SWAP1 REVERT JUMPDEST PUSH1 0x0 DUP4 DUP4 DUP2 ADD SWAP1 PUSH2 0xEC4 SWAP2 SWAP1 PUSH2 0x3F7B JUMP JUMPDEST SWAP1 POP DUP1 PUSH1 0x3 SWAP1 DUP1 MLOAD SWAP1 PUSH1 0x20 ADD SWAP1 PUSH2 0xEDC SWAP3 SWAP2 SWAP1 PUSH2 0x2C60 JUMP JUMPDEST POP TIMESTAMP PUSH1 0x2 DUP2 SWAP1 SSTORE POP POP POP POP POP JUMP JUMPDEST DUP4 MLOAD DUP6 MLOAD EQ PUSH2 0xF2E JUMPI PUSH1 0x40 MLOAD PUSH32 0x8C379A000000000000000000000000000000000000000000000000000000000 DUP2 MSTORE PUSH1 0x4 ADD PUSH2 0xF25 SWAP1 PUSH2 0x4036 JUMP JUMPDEST PUSH1 0x40 MLOAD DUP1 SWAP2 SUB SWAP1 REVERT JUMPDEST PUSH1 0x0 PUSH1 0x64 PUSH1 0x5 DUP5 PUSH2 0xF3F SWAP2 SWAP1 PUSH2 0x4056 JUMP JUMPDEST PUSH2 0xF49 SWAP2 SWAP1 PUSH2 0x40C7 JUMP JUMPDEST SWAP1 POP PUSH1 0x0 DUP3 DUP5 PUSH2 0xF59 SWAP2 SWAP1 PUSH2 0x3CAF JUMP JUMPDEST SWAP1 POP DUP1 CALLVALUE LT ISZERO PUSH2 0xF9E JUMPI PUSH1 0x40 MLOAD PUSH32 0x8C379A000000000000000000000000000000000000000000000000000000000 DUP2 MSTORE PUSH1 0x4 ADD PUSH2 0xF95 SWAP1 PUSH2 0x4144 JUMP JUMPDEST PUSH1 0x40 MLOAD DUP1 SWAP2 SUB SWAP1 REVERT JUMPDEST ADDRESS PUSH20 0xFFFFFFFFFFFFFFFFFFFFFFFFFFFFFFFFFFFFFFFF AND PUSH2 0x8FC DUP4 SWAP1 DUP2 ISZERO MUL SWAP1 PUSH1 0x40 MLOAD PUSH1 0x0 PUSH1 0x40 MLOAD DUP1 DUP4 SUB DUP2 DUP6 DUP9 DUP9 CALL SWAP4 POP POP POP POP ISZERO DUP1 ISZERO PUSH2 0xFE4 JUMPI RETURNDATASIZE PUSH1 0x0 DUP1 RETURNDATACOPY RETURNDATASIZE PUSH1 0x0 REVERT JUMPDEST POP PUSH1 0x0 JUMPDEST DUP8 MLOAD DUP2 LT ISZERO PUSH2 0x18EF JUMPI PUSH1 0x0 PUSH1 0x6 PUSH1 0x0 DUP11 DUP5 DUP2 MLOAD DUP2 LT PUSH2 0x100A JUMPI PUSH2 0x1009 PUSH2 0x3D43 JUMP JUMPDEST JUMPDEST PUSH1 0x20 MUL PUSH1 0x20 ADD ADD MLOAD DUP2 MSTORE PUSH1 0x20 ADD SWAP1 DUP2 MSTORE PUSH1 0x20 ADD PUSH1 0x0 KECCAK256 PUSH1 0x40 MLOAD DUP1 PUSH2 0x120 ADD PUSH1 0x40 MSTORE SWAP1 DUP2 PUSH1 0x0 DUP3 ADD SLOAD DUP2 MSTORE PUSH1 0x20 ADD PUSH1 0x1 DUP3 ADD DUP1 SLOAD PUSH2 0x1046 SWAP1 PUSH2 0x3D12 JUMP JUMPDEST DUP1 PUSH1 0x1F ADD PUSH1 0x20 DUP1 SWAP2 DIV MUL PUSH1 0x20 ADD PUSH1 0x40 MLOAD SWAP1 DUP2 ADD PUSH1 0x40 MSTORE DUP1 SWAP3 SWAP2 SWAP1 DUP2 DUP2 MSTORE PUSH1 0x20 ADD DUP3 DUP1 SLOAD PUSH2 0x1072 SWAP1 PUSH2 0x3D12 JUMP JUMPDEST DUP1 ISZERO PUSH2 0x10BF JUMPI DUP1 PUSH1 0x1F LT PUSH2 0x1094 JUMPI PUSH2 0x100 DUP1 DUP4 SLOAD DIV MUL DUP4 MSTORE SWAP2 PUSH1 0x20 ADD SWAP2 PUSH2 0x10BF JUMP JUMPDEST DUP3 ADD SWAP2 SWAP1 PUSH1 0x0 MSTORE PUSH1 0x20 PUSH1 0x0 KECCAK256 SWAP1 JUMPDEST DUP2 SLOAD DUP2 MSTORE SWAP1 PUSH1 0x1 ADD SWAP1 PUSH1 0x20 ADD DUP1 DUP4 GT PUSH2 0x10A2 JUMPI DUP3 SWAP1 SUB PUSH1 0x1F AND DUP3 ADD SWAP2 JUMPDEST POP POP POP POP POP DUP2 MSTORE PUSH1 0x20 ADD PUSH1 0x2 DUP3 ADD DUP1 SLOAD PUSH2 0x10D8 SWAP1 PUSH2 0x3D12 JUMP JUMPDEST DUP1 PUSH1 0x1F ADD PUSH1 0x20 DUP1 SWAP2 DIV MUL PUSH1 0x20 ADD PUSH1 0x40 MLOAD SWAP1 DUP2 ADD PUSH1 0x40 MSTORE DUP1 SWAP3 SWAP2 SWAP1 DUP2 DUP2 MSTORE PUSH1 0x20 ADD DUP3 DUP1 SLOAD PUSH2 0x1104 SWAP1 PUSH2 0x3D12 JUMP JUMPDEST DUP1 ISZERO PUSH2 0x1151 JUMPI DUP1 PUSH1 0x1F LT PUSH2 0x1126 JUMPI PUSH2 0x100 DUP1 DUP4 SLOAD DIV MUL DUP4 MSTORE SWAP2 PUSH1 0x20 ADD SWAP2 PUSH2 0x1151 JUMP JUMPDEST DUP3 ADD SWAP2 SWAP1 PUSH1 0x0 MSTORE PUSH1 0x20 PUSH1 0x0 KECCAK256 SWAP1 JUMPDEST DUP2 SLOAD DUP2 MSTORE SWAP1 PUSH1 0x1 ADD SWAP1 PUSH1 0x20 ADD DUP1 DUP4 GT PUSH2 0x1134 JUMPI DUP3 SWAP1 SUB PUSH1 0x1F AND DUP3 ADD SWAP2 JUMPDEST POP POP POP POP POP DUP2 MSTORE PUSH1 0x20 ADD PUSH1 0x3 DUP3 ADD SLOAD DUP2 MSTORE PUSH1 0x20 ADD PUSH1 0x4 DUP3 ADD PUSH1 0x0 SWAP1 SLOAD SWAP1 PUSH2 0x100 EXP SWAP1 DIV PUSH20 0xFFFFFFFFFFFFFFFFFFFFFFFFFFFFFFFFFFFFFFFF AND PUSH20 0xFFFFFFFFFFFFFFFFFFFFFFFFFFFFFFFFFFFFFFFF AND PUSH20 0xFFFFFFFFFFFFFFFFFFFFFFFFFFFFFFFFFFFFFFFF AND DUP2 MSTORE PUSH1 0x20 ADD PUSH1 0x5 DUP3 ADD SLOAD DUP2 MSTORE PUSH1 0x20 ADD PUSH1 0x6 DUP3 ADD SLOAD DUP2 MSTORE PUSH1 0x20 ADD PUSH1 0x7 DUP3 ADD SLOAD DUP2 MSTORE PUSH1 0x20 ADD PUSH1 0x8 DUP3 ADD DUP1 SLOAD PUSH2 0x11E8 SWAP1 PUSH2 0x3D12 JUMP JUMPDEST DUP1 PUSH1 0x1F ADD PUSH1 0x20 DUP1 SWAP2 DIV MUL PUSH1 0x20 ADD PUSH1 0x40 MLOAD SWAP1 DUP2 ADD PUSH1 0x40 MSTORE DUP1 SWAP3 SWAP2 SWAP1 DUP2 DUP2 MSTORE PUSH1 0x20 ADD DUP3 DUP1 SLOAD PUSH2 0x1214 SWAP1 PUSH2 0x3D12 JUMP JUMPDEST DUP1 ISZERO PUSH2 0x1261 JUMPI DUP1 PUSH1 0x1F LT PUSH2 0x1236 JUMPI PUSH2 0x100 DUP1 DUP4 SLOAD DIV MUL DUP4 MSTORE SWAP2 PUSH1 0x20 ADD SWAP2 PUSH2 0x1261 JUMP JUMPDEST DUP3 ADD SWAP2 SWAP1 PUSH1 0x0 MSTORE PUSH1 0x20 PUSH1 0x0 KECCAK256 SWAP1 JUMPDEST DUP2 SLOAD DUP2 MSTORE SWAP1 PUSH1 0x1 ADD SWAP1 PUSH1 0x20 ADD DUP1 DUP4 GT PUSH2 0x1244 JUMPI DUP3 SWAP1 SUB PUSH1 0x1F AND DUP3 ADD SWAP2 JUMPDEST POP POP POP POP POP DUP2 MSTORE POP POP SWAP1 POP PUSH1 0x0 DUP9 DUP4 DUP2 MLOAD DUP2 LT PUSH2 0x1281 JUMPI PUSH2 0x1280 PUSH2 0x3D43 JUMP JUMPDEST JUMPDEST PUSH1 0x20 MUL PUSH1 0x20 ADD ADD MLOAD DUP3 PUSH1 0xA0 ADD MLOAD PUSH2 0x1298 SWAP2 SWAP1 PUSH2 0x4056 JUMP JUMPDEST SWAP1 POP PUSH1 0x0 PUSH1 0xA DUP3 PUSH2 0x12A9 SWAP2 SWAP1 PUSH2 0x40C7 JUMP JUMPDEST SWAP1 POP PUSH2 0x1300 DUP2 PUSH1 0x4 PUSH1 0x0 CALLER PUSH20 0xFFFFFFFFFFFFFFFFFFFFFFFFFFFFFFFFFFFFFFFF AND PUSH20 0xFFFFFFFFFFFFFFFFFFFFFFFFFFFFFFFFFFFFFFFF AND DUP2 MSTORE PUSH1 0x20 ADD SWAP1 DUP2 MSTORE PUSH1 0x20 ADD PUSH1 0x0 KECCAK256 PUSH1 0x2 ADD SLOAD PUSH2 0x2BD2 SWAP1 SWAP2 SWAP1 PUSH4 0xFFFFFFFF AND JUMP JUMPDEST PUSH1 0x4 PUSH1 0x0 CALLER PUSH20 0xFFFFFFFFFFFFFFFFFFFFFFFFFFFFFFFFFFFFFFFF AND PUSH20 0xFFFFFFFFFFFFFFFFFFFFFFFFFFFFFFFFFFFFFFFF AND DUP2 MSTORE PUSH1 0x20 ADD SWAP1 DUP2 MSTORE PUSH1 0x20 ADD PUSH1 0x0 KECCAK256 PUSH1 0x2 ADD DUP2 SWAP1 SSTORE POP CALLER PUSH20 0xFFFFFFFFFFFFFFFFFFFFFFFFFFFFFFFFFFFFFFFF AND PUSH32 0x2C4C0DC427A50C4A69D2FC184C47A311ACF950D8D2F289FBAEE64E83E9B28967 DUP3 PUSH1 0x40 MLOAD PUSH2 0x138C SWAP2 SWAP1 PUSH2 0x3081 JUMP JUMPDEST PUSH1 0x40 MLOAD DUP1 SWAP2 SUB SWAP1 LOG2 DUP9 DUP5 DUP2 MLOAD DUP2 LT PUSH2 0x13A7 JUMPI PUSH2 0x13A6 PUSH2 0x3D43 JUMP JUMPDEST JUMPDEST PUSH1 0x20 MUL PUSH1 0x20 ADD ADD MLOAD ISZERO PUSH2 0x1535 JUMPI DUP3 PUSH1 0x80 ADD MLOAD PUSH20 0xFFFFFFFFFFFFFFFFFFFFFFFFFFFFFFFFFFFFFFFF AND PUSH2 0x8FC PUSH1 0x64 PUSH1 0x5 DUP6 PUSH2 0x13E1 SWAP2 SWAP1 PUSH2 0x4056 JUMP JUMPDEST PUSH2 0x13EB SWAP2 SWAP1 PUSH2 0x40C7 JUMP JUMPDEST DUP5 PUSH2 0x13F6 SWAP2 SWAP1 PUSH2 0x3CAF JUMP JUMPDEST SWAP1 DUP2 ISZERO MUL SWAP1 PUSH1 0x40 MLOAD PUSH1 0x0 PUSH1 0x40 MLOAD DUP1 DUP4 SUB DUP2 DUP6 DUP9 DUP9 CALL SWAP4 POP POP POP POP ISZERO DUP1 ISZERO PUSH2 0x1421 JUMPI RETURNDATASIZE PUSH1 0x0 DUP1 RETURNDATACOPY RETURNDATASIZE PUSH1 0x0 REVERT JUMPDEST POP PUSH1 0x1 PUSH1 0x0 SWAP1 SLOAD SWAP1 PUSH2 0x100 EXP SWAP1 DIV PUSH20 0xFFFFFFFFFFFFFFFFFFFFFFFFFFFFFFFFFFFFFFFF AND PUSH20 0xFFFFFFFFFFFFFFFFFFFFFFFFFFFFFFFFFFFFFFFF AND PUSH4 0x23B872DD DUP5 PUSH1 0x80 ADD MLOAD CALLER DUP14 DUP9 DUP2 MLOAD DUP2 LT PUSH2 0x1479 JUMPI PUSH2 0x1478 PUSH2 0x3D43 JUMP JUMPDEST JUMPDEST PUSH1 0x20 MUL PUSH1 0x20 ADD ADD MLOAD DUP8 PUSH1 0xC0 ADD MLOAD PUSH2 0x1490 SWAP2 SWAP1 PUSH2 0x4056 JUMP JUMPDEST PUSH1 0x40 MLOAD DUP5 PUSH4 0xFFFFFFFF AND PUSH1 0xE0 SHL DUP2 MSTORE PUSH1 0x4 ADD PUSH2 0x14AE SWAP4 SWAP3 SWAP2 SWAP1 PUSH2 0x4164 JUMP JUMPDEST PUSH1 0x20 PUSH1 0x40 MLOAD DUP1 DUP4 SUB DUP2 PUSH1 0x0 DUP8 GAS CALL ISZERO DUP1 ISZERO PUSH2 0x14CD JUMPI RETURNDATASIZE PUSH1 0x0 DUP1 RETURNDATACOPY RETURNDATASIZE PUSH1 0x0 REVERT JUMPDEST POP POP POP POP PUSH1 0x40 MLOAD RETURNDATASIZE PUSH1 0x1F NOT PUSH1 0x1F DUP3 ADD AND DUP3 ADD DUP1 PUSH1 0x40 MSTORE POP DUP2 ADD SWAP1 PUSH2 0x14F1 SWAP2 SWAP1 PUSH2 0x3BBE JUMP JUMPDEST PUSH2 0x1530 JUMPI PUSH1 0x40 MLOAD PUSH32 0x8C379A000000000000000000000000000000000000000000000000000000000 DUP2 MSTORE PUSH1 0x4 ADD PUSH2 0x1527 SWAP1 PUSH2 0x41E7 JUMP JUMPDEST PUSH1 0x40 MLOAD DUP1 SWAP2 SUB SWAP1 REVERT JUMPDEST PUSH2 0x16E6 JUMP JUMPDEST DUP3 PUSH1 0x80 ADD MLOAD PUSH20 0xFFFFFFFFFFFFFFFFFFFFFFFFFFFFFFFFFFFFFFFF AND PUSH2 0x8FC PUSH1 0x64 PUSH1 0x5 DUP6 PUSH2 0x1562 SWAP2 SWAP1 PUSH2 0x4056 JUMP JUMPDEST PUSH2 0x156C SWAP2 SWAP1 PUSH2 0x40C7 JUMP JUMPDEST DUP13 DUP8 DUP2 MLOAD DUP2 LT PUSH2 0x157F JUMPI PUSH2 0x157E PUSH2 0x3D43 JUMP JUMPDEST JUMPDEST PUSH1 0x20 MUL PUSH1 0x20 ADD ADD MLOAD DUP7 PUSH1 0xE0 ADD MLOAD PUSH2 0x1596 SWAP2 SWAP1 PUSH2 0x4056 JUMP JUMPDEST DUP6 PUSH2 0x15A1 SWAP2 SWAP1 PUSH2 0x3CAF JUMP JUMPDEST PUSH2 0x15AB SWAP2 SWAP1 PUSH2 0x3CAF JUMP JUMPDEST SWAP1 DUP2 ISZERO MUL SWAP1 PUSH1 0x40 MLOAD PUSH1 0x0 PUSH1 0x40 MLOAD DUP1 DUP4 SUB DUP2 DUP6 DUP9 DUP9 CALL SWAP4 POP POP POP POP ISZERO DUP1 ISZERO PUSH2 0x15D6 JUMPI RETURNDATASIZE PUSH1 0x0 DUP1 RETURNDATACOPY RETURNDATASIZE PUSH1 0x0 REVERT JUMPDEST POP PUSH1 0x1 PUSH1 0x0 SWAP1 SLOAD SWAP1 PUSH2 0x100 EXP SWAP1 DIV PUSH20 0xFFFFFFFFFFFFFFFFFFFFFFFFFFFFFFFFFFFFFFFF AND PUSH20 0xFFFFFFFFFFFFFFFFFFFFFFFFFFFFFFFFFFFFFFFF AND PUSH4 0x23B872DD CALLER DUP6 PUSH1 0x80 ADD MLOAD DUP14 DUP9 DUP2 MLOAD DUP2 LT PUSH2 0x162E JUMPI PUSH2 0x162D PUSH2 0x3D43 JUMP JUMPDEST JUMPDEST PUSH1 0x20 MUL PUSH1 0x20 ADD ADD MLOAD DUP8 PUSH1 0xE0 ADD MLOAD PUSH2 0x1645 SWAP2 SWAP1 PUSH2 0x4056 JUMP JUMPDEST PUSH1 0x40 MLOAD DUP5 PUSH4 0xFFFFFFFF AND PUSH1 0xE0 SHL DUP2 MSTORE PUSH1 0x4 ADD PUSH2 0x1663 SWAP4 SWAP3 SWAP2 SWAP1 PUSH2 0x4164 JUMP JUMPDEST PUSH1 0x20 PUSH1 0x40 MLOAD DUP1 DUP4 SUB DUP2 PUSH1 0x0 DUP8 GAS CALL ISZERO DUP1 ISZERO PUSH2 0x1682 JUMPI RETURNDATASIZE PUSH1 0x0 DUP1 RETURNDATACOPY RETURNDATASIZE PUSH1 0x0 REVERT JUMPDEST POP POP POP POP PUSH1 0x40 MLOAD RETURNDATASIZE PUSH1 0x1F NOT PUSH1 0x1F DUP3 ADD AND DUP3 ADD DUP1 PUSH1 0x40 MSTORE POP DUP2 ADD SWAP1 PUSH2 0x16A6 SWAP2 SWAP1 PUSH2 0x3BBE JUMP JUMPDEST PUSH2 0x16E5 JUMPI PUSH1 0x40 MLOAD PUSH32 0x8C379A000000000000000000000000000000000000000000000000000000000 DUP2 MSTORE PUSH1 0x4 ADD PUSH2 0x16DC SWAP1 PUSH2 0x4253 JUMP JUMPDEST PUSH1 0x40 MLOAD DUP1 SWAP2 SUB SWAP1 REVERT JUMPDEST JUMPDEST PUSH1 0x40 MLOAD DUP1 PUSH1 0x80 ADD PUSH1 0x40 MSTORE DUP1 PUSH1 0x9 SLOAD DUP2 MSTORE PUSH1 0x20 ADD CALLER PUSH20 0xFFFFFFFFFFFFFFFFFFFFFFFFFFFFFFFFFFFFFFFF AND DUP2 MSTORE PUSH1 0x20 ADD DUP13 DUP7 DUP2 MLOAD DUP2 LT PUSH2 0x1728 JUMPI PUSH2 0x1727 PUSH2 0x3D43 JUMP JUMPDEST JUMPDEST PUSH1 0x20 MUL PUSH1 0x20 ADD ADD MLOAD DUP2 MSTORE PUSH1 0x20 ADD DUP12 DUP7 DUP2 MLOAD DUP2 LT PUSH2 0x1748 JUMPI PUSH2 0x1747 PUSH2 0x3D43 JUMP JUMPDEST JUMPDEST PUSH1 0x20 MUL PUSH1 0x20 ADD ADD MLOAD DUP2 MSTORE POP PUSH1 0x7 PUSH1 0x0 PUSH1 0x9 SLOAD DUP2 MSTORE PUSH1 0x20 ADD SWAP1 DUP2 MSTORE PUSH1 0x20 ADD PUSH1 0x0 KECCAK256 PUSH1 0x0 DUP3 ADD MLOAD DUP2 PUSH1 0x0 ADD SSTORE PUSH1 0x20 DUP3 ADD MLOAD DUP2 PUSH1 0x1 ADD PUSH1 0x0 PUSH2 0x100 EXP DUP2 SLOAD DUP2 PUSH20 0xFFFFFFFFFFFFFFFFFFFFFFFFFFFFFFFFFFFFFFFF MUL NOT AND SWAP1 DUP4 PUSH20 0xFFFFFFFFFFFFFFFFFFFFFFFFFFFFFFFFFFFFFFFF AND MUL OR SWAP1 SSTORE POP PUSH1 0x40 DUP3 ADD MLOAD DUP2 PUSH1 0x2 ADD SSTORE PUSH1 0x60 DUP3 ADD MLOAD DUP2 PUSH1 0x3 ADD SSTORE SWAP1 POP POP PUSH1 0x4 PUSH1 0x0 CALLER PUSH20 0xFFFFFFFFFFFFFFFFFFFFFFFFFFFFFFFFFFFFFFFF AND PUSH20 0xFFFFFFFFFFFFFFFFFFFFFFFFFFFFFFFFFFFFFFFF AND DUP2 MSTORE PUSH1 0x20 ADD SWAP1 DUP2 MSTORE PUSH1 0x20 ADD PUSH1 0x0 KECCAK256 PUSH1 0x3 ADD PUSH1 0x9 SLOAD SWAP1 DUP1 PUSH1 0x1 DUP2 SLOAD ADD DUP1 DUP3 SSTORE DUP1 SWAP2 POP POP PUSH1 0x1 SWAP1 SUB SWAP1 PUSH1 0x0 MSTORE PUSH1 0x20 PUSH1 0x0 KECCAK256 ADD PUSH1 0x0 SWAP1 SWAP2 SWAP1 SWAP2 SWAP1 SWAP2 POP SSTORE DUP11 DUP5 DUP2 MLOAD DUP2 LT PUSH2 0x184E JUMPI PUSH2 0x184D PUSH2 0x3D43 JUMP JUMPDEST JUMPDEST PUSH1 0x20 MUL PUSH1 0x20 ADD ADD MLOAD CALLER PUSH20 0xFFFFFFFFFFFFFFFFFFFFFFFFFFFFFFFFFFFFFFFF AND PUSH1 0x9 SLOAD PUSH32 0x7D3C39A6CCE20F6949EFF0833A4D54FCA734DC7C6027773D8885E7FAEAC98A95 DUP14 DUP9 DUP2 MLOAD DUP2 LT PUSH2 0x18A4 JUMPI PUSH2 0x18A3 PUSH2 0x3D43 JUMP JUMPDEST JUMPDEST PUSH1 0x20 MUL PUSH1 0x20 ADD ADD MLOAD PUSH1 0x40 MLOAD PUSH2 0x18B9 SWAP2 SWAP1 PUSH2 0x3081 JUMP JUMPDEST PUSH1 0x40 MLOAD DUP1 SWAP2 SUB SWAP1 LOG4 PUSH1 0x9 PUSH1 0x0 DUP2 SLOAD DUP1 SWAP3 SWAP2 SWAP1 PUSH2 0x18D4 SWAP1 PUSH2 0x3D72 JUMP JUMPDEST SWAP2 SWAP1 POP SSTORE POP POP POP POP DUP1 DUP1 PUSH2 0x18E7 SWAP1 PUSH2 0x3D72 JUMP JUMPDEST SWAP2 POP POP PUSH2 0xFE8 JUMP JUMPDEST POP POP POP POP POP POP POP POP JUMP JUMPDEST PUSH1 0x0 PUSH20 0xFFFFFFFFFFFFFFFFFFFFFFFFFFFFFFFFFFFFFFFF AND PUSH1 0x4 PUSH1 0x0 CALLER PUSH20 0xFFFFFFFFFFFFFFFFFFFFFFFFFFFFFFFFFFFFFFFF AND PUSH20 0xFFFFFFFFFFFFFFFFFFFFFFFFFFFFFFFFFFFFFFFF AND DUP2 MSTORE PUSH1 0x20 ADD SWAP1 DUP2 MSTORE PUSH1 0x20 ADD PUSH1 0x0 KECCAK256 PUSH1 0x0 ADD PUSH1 0x0 SWAP1 SLOAD SWAP1 PUSH2 0x100 EXP SWAP1 DIV PUSH20 0xFFFFFFFFFFFFFFFFFFFFFFFFFFFFFFFFFFFFFFFF AND PUSH20 0xFFFFFFFFFFFFFFFFFFFFFFFFFFFFFFFFFFFFFFFF AND EQ PUSH2 0x19CA JUMPI PUSH1 0x40 MLOAD PUSH32 0x8C379A000000000000000000000000000000000000000000000000000000000 DUP2 MSTORE PUSH1 0x4 ADD PUSH2 0x19C1 SWAP1 PUSH2 0x42BF JUMP JUMPDEST PUSH1 0x40 MLOAD DUP1 SWAP2 SUB SWAP1 REVERT JUMPDEST PUSH1 0x40 MLOAD DUP1 PUSH1 0x80 ADD PUSH1 0x40 MSTORE DUP1 CALLER PUSH20 0xFFFFFFFFFFFFFFFFFFFFFFFFFFFFFFFFFFFFFFFF AND DUP2 MSTORE PUSH1 0x20 ADD PUSH1 0x0 DUP2 MSTORE PUSH1 0x20 ADD PUSH1 0x0 DUP2 MSTORE PUSH1 0x20 ADD PUSH1 0x0 PUSH8 0xFFFFFFFFFFFFFFFF DUP2 GT ISZERO PUSH2 0x1A1A JUMPI PUSH2 0x1A19 PUSH2 0x3214 JUMP JUMPDEST JUMPDEST PUSH1 0x40 MLOAD SWAP1 DUP1 DUP3 MSTORE DUP1 PUSH1 0x20 MUL PUSH1 0x20 ADD DUP3 ADD PUSH1 0x40 MSTORE DUP1 ISZERO PUSH2 0x1A48 JUMPI DUP2 PUSH1 0x20 ADD PUSH1 0x20 DUP3 MUL DUP1 CALLDATASIZE DUP4 CALLDATACOPY DUP1 DUP3 ADD SWAP2 POP POP SWAP1 POP JUMPDEST POP DUP2 MSTORE POP PUSH1 0x4 PUSH1 0x0 CALLER PUSH20 0xFFFFFFFFFFFFFFFFFFFFFFFFFFFFFFFFFFFFFFFF AND PUSH20 0xFFFFFFFFFFFFFFFFFFFFFFFFFFFFFFFFFFFFFFFF AND DUP2 MSTORE PUSH1 0x20 ADD SWAP1 DUP2 MSTORE PUSH1 0x20 ADD PUSH1 0x0 KECCAK256 PUSH1 0x0 DUP3 ADD MLOAD DUP2 PUSH1 0x0 ADD PUSH1 0x0 PUSH2 0x100 EXP DUP2 SLOAD DUP2 PUSH20 0xFFFFFFFFFFFFFFFFFFFFFFFFFFFFFFFFFFFFFFFF MUL NOT AND SWAP1 DUP4 PUSH20 0xFFFFFFFFFFFFFFFFFFFFFFFFFFFFFFFFFFFFFFFF AND MUL OR SWAP1 SSTORE POP PUSH1 0x20 DUP3 ADD MLOAD DUP2 PUSH1 0x1 ADD SSTORE PUSH1 0x40 DUP3 ADD MLOAD DUP2 PUSH1 0x2 ADD SSTORE PUSH1 0x60 DUP3 ADD MLOAD DUP2 PUSH1 0x3 ADD SWAP1 DUP1 MLOAD SWAP1 PUSH1 0x20 ADD SWAP1 PUSH2 0x1B02 SWAP3 SWAP2 SWAP1 PUSH2 0x2CEA JUMP JUMPDEST POP SWAP1 POP POP CALLER PUSH20 0xFFFFFFFFFFFFFFFFFFFFFFFFFFFFFFFFFFFFFFFF AND PUSH32 0x54DB7A5CB4735E1AAC1F53DB512D3390390BB6637BD30AD4BF9FC98667D9B9B9 PUSH1 0x40 MLOAD PUSH1 0x40 MLOAD DUP1 SWAP2 SUB SWAP1 LOG2 JUMP JUMPDEST PUSH1 0x8 SLOAD DUP2 JUMP JUMPDEST PUSH1 0x0 PUSH20 0xFFFFFFFFFFFFFFFFFFFFFFFFFFFFFFFFFFFFFFFF AND PUSH1 0x5 PUSH1 0x0 CALLER PUSH20 0xFFFFFFFFFFFFFFFFFFFFFFFFFFFFFFFFFFFFFFFF AND PUSH20 0xFFFFFFFFFFFFFFFFFFFFFFFFFFFFFFFFFFFFFFFF AND DUP2 MSTORE PUSH1 0x20 ADD SWAP1 DUP2 MSTORE PUSH1 0x20 ADD PUSH1 0x0 KECCAK256 PUSH1 0x0 ADD PUSH1 0x0 SWAP1 SLOAD SWAP1 PUSH2 0x100 EXP SWAP1 DIV PUSH20 0xFFFFFFFFFFFFFFFFFFFFFFFFFFFFFFFFFFFFFFFF AND PUSH20 0xFFFFFFFFFFFFFFFFFFFFFFFFFFFFFFFFFFFFFFFF AND EQ PUSH2 0x1C22 JUMPI PUSH1 0x40 MLOAD PUSH32 0x8C379A000000000000000000000000000000000000000000000000000000000 DUP2 MSTORE PUSH1 0x4 ADD PUSH2 0x1C19 SWAP1 PUSH2 0x432B JUMP JUMPDEST PUSH1 0x40 MLOAD DUP1 SWAP2 SUB SWAP1 REVERT JUMPDEST PUSH1 0x40 MLOAD DUP1 PUSH1 0x40 ADD PUSH1 0x40 MSTORE DUP1 CALLER PUSH20 0xFFFFFFFFFFFFFFFFFFFFFFFFFFFFFFFFFFFFFFFF AND DUP2 MSTORE PUSH1 0x20 ADD PUSH1 0x0 PUSH8 0xFFFFFFFFFFFFFFFF DUP2 GT ISZERO PUSH2 0x1C64 JUMPI PUSH2 0x1C63 PUSH2 0x3214 JUMP JUMPDEST JUMPDEST PUSH1 0x40 MLOAD SWAP1 DUP1 DUP3 MSTORE DUP1 PUSH1 0x20 MUL PUSH1 0x20 ADD DUP3 ADD PUSH1 0x40 MSTORE DUP1 ISZERO PUSH2 0x1C92 JUMPI DUP2 PUSH1 0x20 ADD PUSH1 0x20 DUP3 MUL DUP1 CALLDATASIZE DUP4 CALLDATACOPY DUP1 DUP3 ADD SWAP2 POP POP SWAP1 POP JUMPDEST POP DUP2 MSTORE POP PUSH1 0x5 PUSH1 0x0 CALLER PUSH20 0xFFFFFFFFFFFFFFFFFFFFFFFFFFFFFFFFFFFFFFFF AND PUSH20 0xFFFFFFFFFFFFFFFFFFFFFFFFFFFFFFFFFFFFFFFF AND DUP2 MSTORE PUSH1 0x20 ADD SWAP1 DUP2 MSTORE PUSH1 0x20 ADD PUSH1 0x0 KECCAK256 PUSH1 0x0 DUP3 ADD MLOAD DUP2 PUSH1 0x0 ADD PUSH1 0x0 PUSH2 0x100 EXP DUP2 SLOAD DUP2 PUSH20 0xFFFFFFFFFFFFFFFFFFFFFFFFFFFFFFFFFFFFFFFF MUL NOT AND SWAP1 DUP4 PUSH20 0xFFFFFFFFFFFFFFFFFFFFFFFFFFFFFFFFFFFFFFFF AND MUL OR SWAP1 SSTORE POP PUSH1 0x20 DUP3 ADD MLOAD DUP2 PUSH1 0x1 ADD SWAP1 DUP1 MLOAD SWAP1 PUSH1 0x20 ADD SWAP1 PUSH2 0x1D38 SWAP3 SWAP2 SWAP1 PUSH2 0x2CEA JUMP JUMPDEST POP SWAP1 POP POP CALLER PUSH20 0xFFFFFFFFFFFFFFFFFFFFFFFFFFFFFFFFFFFFFFFF AND PUSH32 0x4D97D287A8F631378031B05CB24C876085261DDAA7B8F584477370EF473FBB3D PUSH1 0x40 MLOAD PUSH1 0x40 MLOAD DUP1 SWAP2 SUB SWAP1 LOG2 JUMP JUMPDEST PUSH1 0x5 DUP2 JUMP JUMPDEST PUSH8 0xDE0B6B3A7640000 DUP2 JUMP JUMPDEST PUSH1 0x5 PUSH1 0x20 MSTORE DUP1 PUSH1 0x0 MSTORE PUSH1 0x40 PUSH1 0x0 KECCAK256 PUSH1 0x0 SWAP2 POP SWAP1 POP DUP1 PUSH1 0x0 ADD PUSH1 0x0 SWAP1 SLOAD SWAP1 PUSH2 0x100 EXP SWAP1 DIV PUSH20 0xFFFFFFFFFFFFFFFFFFFFFFFFFFFFFFFFFFFFFFFF AND SWAP1 POP DUP2 JUMP JUMPDEST PUSH1 0x0 PUSH1 0x60 PUSH1 0x0 PUSH32 0x0 PUSH1 0x2 SLOAD TIMESTAMP PUSH2 0x1E05 SWAP2 SWAP1 PUSH2 0x3CAF JUMP JUMPDEST GT SWAP1 POP PUSH1 0x0 PUSH1 0x64 PUSH8 0xFFFFFFFFFFFFFFFF DUP2 GT ISZERO PUSH2 0x1E25 JUMPI PUSH2 0x1E24 PUSH2 0x3214 JUMP JUMPDEST JUMPDEST PUSH1 0x40 MLOAD SWAP1 DUP1 DUP3 MSTORE DUP1 PUSH1 0x20 MUL PUSH1 0x20 ADD DUP3 ADD PUSH1 0x40 MSTORE DUP1 ISZERO PUSH2 0x1E53 JUMPI DUP2 PUSH1 0x20 ADD PUSH1 0x20 DUP3 MUL DUP1 CALLDATASIZE DUP4 CALLDATACOPY DUP1 DUP3 ADD SWAP2 POP POP SWAP1 POP JUMPDEST POP SWAP1 POP PUSH1 0x0 PUSH1 0x64 PUSH8 0xFFFFFFFFFFFFFFFF DUP2 GT ISZERO PUSH2 0x1E73 JUMPI PUSH2 0x1E72 PUSH2 0x3214 JUMP JUMPDEST JUMPDEST PUSH1 0x40 MLOAD SWAP1 DUP1 DUP3 MSTORE DUP1 PUSH1 0x20 MUL PUSH1 0x20 ADD DUP3 ADD PUSH1 0x40 MSTORE DUP1 ISZERO PUSH2 0x1EA1 JUMPI DUP2 PUSH1 0x20 ADD PUSH1 0x20 DUP3 MUL DUP1 CALLDATASIZE DUP4 CALLDATACOPY DUP1 DUP3 ADD SWAP2 POP POP SWAP1 POP JUMPDEST POP SWAP1 POP PUSH1 0x0 DUP1 PUSH1 0x64 PUSH1 0x9 SLOAD PUSH2 0x1EB6 SWAP2 SWAP1 PUSH2 0x3CAF JUMP JUMPDEST GT PUSH2 0x1EC2 JUMPI PUSH1 0x0 PUSH2 0x1ED2 JUMP JUMPDEST PUSH1 0x64 PUSH1 0x9 SLOAD PUSH2 0x1ED1 SWAP2 SWAP1 PUSH2 0x3CAF JUMP JUMPDEST JUMPDEST SWAP1 POP PUSH1 0x0 DUP2 SWAP1 POP JUMPDEST PUSH1 0x9 SLOAD DUP2 LT ISZERO PUSH2 0x202B JUMPI PUSH1 0x7 PUSH1 0x0 DUP3 DUP2 MSTORE PUSH1 0x20 ADD SWAP1 DUP2 MSTORE PUSH1 0x20 ADD PUSH1 0x0 KECCAK256 PUSH1 0x1 ADD PUSH1 0x0 SWAP1 SLOAD SWAP1 PUSH2 0x100 EXP SWAP1 DIV PUSH20 0xFFFFFFFFFFFFFFFFFFFFFFFFFFFFFFFFFFFFFFFF AND DUP5 PUSH1 0x1 DUP4 PUSH2 0x1F29 SWAP2 SWAP1 PUSH2 0x3CAF JUMP JUMPDEST DUP2 MLOAD DUP2 LT PUSH2 0x1F3A JUMPI PUSH2 0x1F39 PUSH2 0x3D43 JUMP JUMPDEST JUMPDEST PUSH1 0x20 MUL PUSH1 0x20 ADD ADD SWAP1 PUSH20 0xFFFFFFFFFFFFFFFFFFFFFFFFFFFFFFFFFFFFFFFF AND SWAP1 DUP2 PUSH20 0xFFFFFFFFFFFFFFFFFFFFFFFFFFFFFFFFFFFFFFFF AND DUP2 MSTORE POP POP PUSH1 0x4 PUSH1 0x0 PUSH1 0x7 PUSH1 0x0 DUP5 DUP2 MSTORE PUSH1 0x20 ADD SWAP1 DUP2 MSTORE PUSH1 0x20 ADD PUSH1 0x0 KECCAK256 PUSH1 0x1 ADD PUSH1 0x0 SWAP1 SLOAD SWAP1 PUSH2 0x100 EXP SWAP1 DIV PUSH20 0xFFFFFFFFFFFFFFFFFFFFFFFFFFFFFFFFFFFFFFFF AND PUSH20 0xFFFFFFFFFFFFFFFFFFFFFFFFFFFFFFFFFFFFFFFF AND PUSH20 0xFFFFFFFFFFFFFFFFFFFFFFFFFFFFFFFFFFFFFFFF AND DUP2 MSTORE PUSH1 0x20 ADD SWAP1 DUP2 MSTORE PUSH1 0x20 ADD PUSH1 0x0 KECCAK256 PUSH1 0x2 ADD SLOAD DUP4 PUSH1 0x1 DUP4 PUSH2 0x1FFB SWAP2 SWAP1 PUSH2 0x3CAF JUMP JUMPDEST DUP2 MLOAD DUP2 LT PUSH2 0x200C JUMPI PUSH2 0x200B PUSH2 0x3D43 JUMP JUMPDEST JUMPDEST PUSH1 0x20 MUL PUSH1 0x20 ADD ADD DUP2 DUP2 MSTORE POP POP DUP1 DUP1 PUSH2 0x2023 SWAP1 PUSH2 0x3D72 JUMP JUMPDEST SWAP2 POP POP PUSH2 0x1EDA JUMP JUMPDEST POP PUSH1 0x0 JUMPDEST DUP3 MLOAD DUP2 LT ISZERO PUSH2 0x2240 JUMPI PUSH1 0x0 JUMPDEST PUSH1 0x1 DUP5 MLOAD PUSH2 0x2049 SWAP2 SWAP1 PUSH2 0x3CAF JUMP JUMPDEST DUP2 LT ISZERO PUSH2 0x222C JUMPI DUP4 PUSH1 0x1 DUP3 PUSH2 0x205E SWAP2 SWAP1 PUSH2 0x434B JUMP JUMPDEST DUP2 MLOAD DUP2 LT PUSH2 0x206F JUMPI PUSH2 0x206E PUSH2 0x3D43 JUMP JUMPDEST JUMPDEST PUSH1 0x20 MUL PUSH1 0x20 ADD ADD MLOAD DUP5 DUP3 DUP2 MLOAD DUP2 LT PUSH2 0x208A JUMPI PUSH2 0x2089 PUSH2 0x3D43 JUMP JUMPDEST JUMPDEST PUSH1 0x20 MUL PUSH1 0x20 ADD ADD MLOAD LT ISZERO PUSH2 0x2219 JUMPI PUSH1 0x0 DUP5 DUP3 DUP2 MLOAD DUP2 LT PUSH2 0x20AD JUMPI PUSH2 0x20AC PUSH2 0x3D43 JUMP JUMPDEST JUMPDEST PUSH1 0x20 MUL PUSH1 0x20 ADD ADD MLOAD SWAP1 POP DUP5 PUSH1 0x1 DUP4 PUSH2 0x20C5 SWAP2 SWAP1 PUSH2 0x434B JUMP JUMPDEST DUP2 MLOAD DUP2 LT PUSH2 0x20D6 JUMPI PUSH2 0x20D5 PUSH2 0x3D43 JUMP JUMPDEST JUMPDEST PUSH1 0x20 MUL PUSH1 0x20 ADD ADD MLOAD DUP6 DUP4 DUP2 MLOAD DUP2 LT PUSH2 0x20F1 JUMPI PUSH2 0x20F0 PUSH2 0x3D43 JUMP JUMPDEST JUMPDEST PUSH1 0x20 MUL PUSH1 0x20 ADD ADD DUP2 DUP2 MSTORE POP POP DUP1 DUP6 PUSH1 0x1 DUP5 PUSH2 0x210C SWAP2 SWAP1 PUSH2 0x434B JUMP JUMPDEST DUP2 MLOAD DUP2 LT PUSH2 0x211D JUMPI PUSH2 0x211C PUSH2 0x3D43 JUMP JUMPDEST JUMPDEST PUSH1 0x20 MUL PUSH1 0x20 ADD ADD DUP2 DUP2 MSTORE POP POP PUSH1 0x0 DUP7 DUP4 DUP2 MLOAD DUP2 LT PUSH2 0x213E JUMPI PUSH2 0x213D PUSH2 0x3D43 JUMP JUMPDEST JUMPDEST PUSH1 0x20 MUL PUSH1 0x20 ADD ADD MLOAD SWAP1 POP DUP7 PUSH1 0x1 DUP5 PUSH2 0x2156 SWAP2 SWAP1 PUSH2 0x434B JUMP JUMPDEST DUP2 MLOAD DUP2 LT PUSH2 0x2167 JUMPI PUSH2 0x2166 PUSH2 0x3D43 JUMP JUMPDEST JUMPDEST PUSH1 0x20 MUL PUSH1 0x20 ADD ADD MLOAD DUP8 DUP5 DUP2 MLOAD DUP2 LT PUSH2 0x2182 JUMPI PUSH2 0x2181 PUSH2 0x3D43 JUMP JUMPDEST JUMPDEST PUSH1 0x20 MUL PUSH1 0x20 ADD ADD SWAP1 PUSH20 0xFFFFFFFFFFFFFFFFFFFFFFFFFFFFFFFFFFFFFFFF AND SWAP1 DUP2 PUSH20 0xFFFFFFFFFFFFFFFFFFFFFFFFFFFFFFFFFFFFFFFF AND DUP2 MSTORE POP POP DUP1 DUP8 PUSH1 0x1 DUP6 PUSH2 0x21CB SWAP2 SWAP1 PUSH2 0x434B JUMP JUMPDEST DUP2 MLOAD DUP2 LT PUSH2 0x21DC JUMPI PUSH2 0x21DB PUSH2 0x3D43 JUMP JUMPDEST JUMPDEST PUSH1 0x20 MUL PUSH1 0x20 ADD ADD SWAP1 PUSH20 0xFFFFFFFFFFFFFFFFFFFFFFFFFFFFFFFFFFFFFFFF AND SWAP1 DUP2 PUSH20 0xFFFFFFFFFFFFFFFFFFFFFFFFFFFFFFFFFFFFFFFF AND DUP2 MSTORE POP POP POP POP JUMPDEST DUP1 DUP1 PUSH2 0x2224 SWAP1 PUSH2 0x3D72 JUMP JUMPDEST SWAP2 POP POP PUSH2 0x203B JUMP JUMPDEST POP DUP1 DUP1 PUSH2 0x2238 SWAP1 PUSH2 0x3D72 JUMP JUMPDEST SWAP2 POP POP PUSH2 0x202F JUMP JUMPDEST POP DUP4 SWAP6 POP DUP3 PUSH1 0x40 MLOAD PUSH1 0x20 ADD PUSH2 0x2255 SWAP2 SWAP1 PUSH2 0x442E JUMP JUMPDEST PUSH1 0x40 MLOAD PUSH1 0x20 DUP2 DUP4 SUB SUB DUP2 MSTORE SWAP1 PUSH1 0x40 MSTORE SWAP5 POP POP POP POP POP SWAP2 POP SWAP2 JUMP JUMPDEST PUSH1 0x1 PUSH1 0x0 SWAP1 SLOAD SWAP1 PUSH2 0x100 EXP SWAP1 DIV PUSH20 0xFFFFFFFFFFFFFFFFFFFFFFFFFFFFFFFFFFFFFFFF AND DUP2 JUMP JUMPDEST PUSH1 0x6 PUSH1 0x20 MSTORE DUP1 PUSH1 0x0 MSTORE PUSH1 0x40 PUSH1 0x0 KECCAK256 PUSH1 0x0 SWAP2 POP SWAP1 POP DUP1 PUSH1 0x0 ADD SLOAD SWAP1 DUP1 PUSH1 0x1 ADD DUP1 SLOAD PUSH2 0x22BE SWAP1 PUSH2 0x3D12 JUMP JUMPDEST DUP1 PUSH1 0x1F ADD PUSH1 0x20 DUP1 SWAP2 DIV MUL PUSH1 0x20 ADD PUSH1 0x40 MLOAD SWAP1 DUP2 ADD PUSH1 0x40 MSTORE DUP1 SWAP3 SWAP2 SWAP1 DUP2 DUP2 MSTORE PUSH1 0x20 ADD DUP3 DUP1 SLOAD PUSH2 0x22EA SWAP1 PUSH2 0x3D12 JUMP JUMPDEST DUP1 ISZERO PUSH2 0x2337 JUMPI DUP1 PUSH1 0x1F LT PUSH2 0x230C JUMPI PUSH2 0x100 DUP1 DUP4 SLOAD DIV MUL DUP4 MSTORE SWAP2 PUSH1 0x20 ADD SWAP2 PUSH2 0x2337 JUMP JUMPDEST DUP3 ADD SWAP2 SWAP1 PUSH1 0x0 MSTORE PUSH1 0x20 PUSH1 0x0 KECCAK256 SWAP1 JUMPDEST DUP2 SLOAD DUP2 MSTORE SWAP1 PUSH1 0x1 ADD SWAP1 PUSH1 0x20 ADD DUP1 DUP4 GT PUSH2 0x231A JUMPI DUP3 SWAP1 SUB PUSH1 0x1F AND DUP3 ADD SWAP2 JUMPDEST POP POP POP POP POP SWAP1 DUP1 PUSH1 0x2 ADD DUP1 SLOAD PUSH2 0x234C SWAP1 PUSH2 0x3D12 JUMP JUMPDEST DUP1 PUSH1 0x1F ADD PUSH1 0x20 DUP1 SWAP2 DIV MUL PUSH1 0x20 ADD PUSH1 0x40 MLOAD SWAP1 DUP2 ADD PUSH1 0x40 MSTORE DUP1 SWAP3 SWAP2 SWAP1 DUP2 DUP2 MSTORE PUSH1 0x20 ADD DUP3 DUP1 SLOAD PUSH2 0x2378 SWAP1 PUSH2 0x3D12 JUMP JUMPDEST DUP1 ISZERO PUSH2 0x23C5 JUMPI DUP1 PUSH1 0x1F LT PUSH2 0x239A JUMPI PUSH2 0x100 DUP1 DUP4 SLOAD DIV MUL DUP4 MSTORE SWAP2 PUSH1 0x20 ADD SWAP2 PUSH2 0x23C5 JUMP JUMPDEST DUP3 ADD SWAP2 SWAP1 PUSH1 0x0 MSTORE PUSH1 0x20 PUSH1 0x0 KECCAK256 SWAP1 JUMPDEST DUP2 SLOAD DUP2 MSTORE SWAP1 PUSH1 0x1 ADD SWAP1 PUSH1 0x20 ADD DUP1 DUP4 GT PUSH2 0x23A8 JUMPI DUP3 SWAP1 SUB PUSH1 0x1F AND DUP3 ADD SWAP2 JUMPDEST POP POP POP POP POP SWAP1 DUP1 PUSH1 0x3 ADD SLOAD SWAP1 DUP1 PUSH1 0x4 ADD PUSH1 0x0 SWAP1 SLOAD SWAP1 PUSH2 0x100 EXP SWAP1 DIV PUSH20 0xFFFFFFFFFFFFFFFFFFFFFFFFFFFFFFFFFFFFFFFF AND SWAP1 DUP1 PUSH1 0x5 ADD SLOAD SWAP1 DUP1 PUSH1 0x6 ADD SLOAD SWAP1 DUP1 PUSH1 0x7 ADD SLOAD SWAP1 DUP1 PUSH1 0x8 ADD DUP1 SLOAD PUSH2 0x2418 SWAP1 PUSH2 0x3D12 JUMP JUMPDEST DUP1 PUSH1 0x1F ADD PUSH1 0x20 DUP1 SWAP2 DIV MUL PUSH1 0x20 ADD PUSH1 0x40 MLOAD SWAP1 DUP2 ADD PUSH1 0x40 MSTORE DUP1 SWAP3 SWAP2 SWAP1 DUP2 DUP2 MSTORE PUSH1 0x20 ADD DUP3 DUP1 SLOAD PUSH2 0x2444 SWAP1 PUSH2 0x3D12 JUMP JUMPDEST DUP1 ISZERO PUSH2 0x2491 JUMPI DUP1 PUSH1 0x1F LT PUSH2 0x2466 JUMPI PUSH2 0x100 DUP1 DUP4 SLOAD DIV MUL DUP4 MSTORE SWAP2 PUSH1 0x20 ADD SWAP2 PUSH2 0x2491 JUMP JUMPDEST DUP3 ADD SWAP2 SWAP1 PUSH1 0x0 MSTORE PUSH1 0x20 PUSH1 0x0 KECCAK256 SWAP1 JUMPDEST DUP2 SLOAD DUP2 MSTORE SWAP1 PUSH1 0x1 ADD SWAP1 PUSH1 0x20 ADD DUP1 DUP4 GT PUSH2 0x2474 JUMPI DUP3 SWAP1 SUB PUSH1 0x1F AND DUP3 ADD SWAP2 JUMPDEST POP POP POP POP POP SWAP1 POP DUP10 JUMP JUMPDEST PUSH1 0x0 DUP1 SLOAD SWAP1 PUSH2 0x100 EXP SWAP1 DIV PUSH20 0xFFFFFFFFFFFFFFFFFFFFFFFFFFFFFFFFFFFFFFFF AND PUSH20 0xFFFFFFFFFFFFFFFFFFFFFFFFFFFFFFFFFFFFFFFF AND CALLER PUSH20 0xFFFFFFFFFFFFFFFFFFFFFFFFFFFFFFFFFFFFFFFF AND EQ PUSH2 0x2529 JUMPI PUSH1 0x40 MLOAD PUSH32 0x8C379A000000000000000000000000000000000000000000000000000000000 DUP2 MSTORE PUSH1 0x4 ADD PUSH2 0x2520 SWAP1 PUSH2 0x3E2C JUMP JUMPDEST PUSH1 0x40 MLOAD DUP1 SWAP2 SUB SWAP1 REVERT JUMPDEST PUSH1 0x0 DUP1 SLOAD SWAP1 PUSH2 0x100 EXP SWAP1 DIV PUSH20 0xFFFFFFFFFFFFFFFFFFFFFFFFFFFFFFFFFFFFFFFF AND PUSH20 0xFFFFFFFFFFFFFFFFFFFFFFFFFFFFFFFFFFFFFFFF AND PUSH2 0x8FC DUP3 SWAP1 DUP2 ISZERO MUL SWAP1 PUSH1 0x40 MLOAD PUSH1 0x0 PUSH1 0x40 MLOAD DUP1 DUP4 SUB DUP2 DUP6 DUP9 DUP9 CALL SWAP4 POP POP POP POP ISZERO DUP1 ISZERO PUSH2 0x258F JUMPI RETURNDATASIZE PUSH1 0x0 DUP1 RETURNDATACOPY RETURNDATASIZE PUSH1 0x0 REVERT JUMPDEST POP CALLER PUSH20 0xFFFFFFFFFFFFFFFFFFFFFFFFFFFFFFFFFFFFFFFF AND PUSH32 0x6EFAC6899EE41C0FAB9566F807FEE81972320248574EF8ADEAC6599EA7EAE246 DUP3 PUSH1 0x40 MLOAD PUSH2 0x25D6 SWAP2 SWAP1 PUSH2 0x3081 JUMP JUMPDEST PUSH1 0x40 MLOAD DUP1 SWAP2 SUB SWAP1 LOG2 POP JUMP JUMPDEST PUSH32 0x0 DUP2 JUMP JUMPDEST PUSH1 0x7 PUSH1 0x20 MSTORE DUP1 PUSH1 0x0 MSTORE PUSH1 0x40 PUSH1 0x0 KECCAK256 PUSH1 0x0 SWAP2 POP SWAP1 POP DUP1 PUSH1 0x0 ADD SLOAD SWAP1 DUP1 PUSH1 0x1 ADD PUSH1 0x0 SWAP1 SLOAD SWAP1 PUSH2 0x100 EXP SWAP1 DIV PUSH20 0xFFFFFFFFFFFFFFFFFFFFFFFFFFFFFFFFFFFFFFFF AND SWAP1 DUP1 PUSH1 0x2 ADD SLOAD SWAP1 DUP1 PUSH1 0x3 ADD SLOAD SWAP1 POP DUP5 JUMP JUMPDEST PUSH1 0x4 PUSH1 0x20 MSTORE DUP1 PUSH1 0x0 MSTORE PUSH1 0x40 PUSH1 0x0 KECCAK256 PUSH1 0x0 SWAP2 POP SWAP1 POP DUP1 PUSH1 0x0 ADD PUSH1 0x0 SWAP1 SLOAD SWAP1 PUSH2 0x100 EXP SWAP1 DIV PUSH20 0xFFFFFFFFFFFFFFFFFFFFFFFFFFFFFFFFFFFFFFFF AND SWAP1 DUP1 PUSH1 0x1 ADD SLOAD SWAP1 DUP1 PUSH1 0x2 ADD SLOAD SWAP1 POP DUP4 JUMP JUMPDEST PUSH1 0x0 PUSH20 0xFFFFFFFFFFFFFFFFFFFFFFFFFFFFFFFFFFFFFFFF AND PUSH1 0x5 PUSH1 0x0 CALLER PUSH20 0xFFFFFFFFFFFFFFFFFFFFFFFFFFFFFFFFFFFFFFFF AND PUSH20 0xFFFFFFFFFFFFFFFFFFFFFFFFFFFFFFFFFFFFFFFF AND DUP2 MSTORE PUSH1 0x20 ADD SWAP1 DUP2 MSTORE PUSH1 0x20 ADD PUSH1 0x0 KECCAK256 PUSH1 0x0 ADD PUSH1 0x0 SWAP1 SLOAD SWAP1 PUSH2 0x100 EXP SWAP1 DIV PUSH20 0xFFFFFFFFFFFFFFFFFFFFFFFFFFFFFFFFFFFFFFFF AND PUSH20 0xFFFFFFFFFFFFFFFFFFFFFFFFFFFFFFFFFFFFFFFF AND SUB PUSH2 0x2770 JUMPI PUSH1 0x40 MLOAD PUSH32 0x8C379A000000000000000000000000000000000000000000000000000000000 DUP2 MSTORE PUSH1 0x4 ADD PUSH2 0x2767 SWAP1 PUSH2 0x44C2 JUMP JUMPDEST PUSH1 0x40 MLOAD DUP1 SWAP2 SUB SWAP1 REVERT JUMPDEST PUSH1 0x40 MLOAD DUP1 PUSH2 0x120 ADD PUSH1 0x40 MSTORE DUP1 PUSH1 0x8 SLOAD DUP2 MSTORE PUSH1 0x20 ADD DUP9 DUP2 MSTORE PUSH1 0x20 ADD DUP8 DUP2 MSTORE PUSH1 0x20 ADD DUP7 DUP2 MSTORE PUSH1 0x20 ADD CALLER PUSH20 0xFFFFFFFFFFFFFFFFFFFFFFFFFFFFFFFFFFFFFFFF AND DUP2 MSTORE PUSH1 0x20 ADD DUP6 DUP2 MSTORE PUSH1 0x20 ADD DUP5 DUP2 MSTORE PUSH1 0x20 ADD DUP4 DUP2 MSTORE PUSH1 0x20 ADD DUP3 DUP2 MSTORE POP PUSH1 0x6 PUSH1 0x0 PUSH1 0x8 SLOAD DUP2 MSTORE PUSH1 0x20 ADD SWAP1 DUP2 MSTORE PUSH1 0x20 ADD PUSH1 0x0 KECCAK256 PUSH1 0x0 DUP3 ADD MLOAD DUP2 PUSH1 0x0 ADD SSTORE PUSH1 0x20 DUP3 ADD MLOAD DUP2 PUSH1 0x1 ADD SWAP1 DUP2 PUSH2 0x27FC SWAP2 SWAP1 PUSH2 0x4684 JUMP JUMPDEST POP PUSH1 0x40 DUP3 ADD MLOAD DUP2 PUSH1 0x2 ADD SWAP1 DUP2 PUSH2 0x2812 SWAP2 SWAP1 PUSH2 0x4684 JUMP JUMPDEST POP PUSH1 0x60 DUP3 ADD MLOAD DUP2 PUSH1 0x3 ADD SSTORE PUSH1 0x80 DUP3 ADD MLOAD DUP2 PUSH1 0x4 ADD PUSH1 0x0 PUSH2 0x100 EXP DUP2 SLOAD DUP2 PUSH20 0xFFFFFFFFFFFFFFFFFFFFFFFFFFFFFFFFFFFFFFFF MUL NOT AND SWAP1 DUP4 PUSH20 0xFFFFFFFFFFFFFFFFFFFFFFFFFFFFFFFFFFFFFFFF AND MUL OR SWAP1 SSTORE POP PUSH1 0xA0 DUP3 ADD MLOAD DUP2 PUSH1 0x5 ADD SSTORE PUSH1 0xC0 DUP3 ADD MLOAD DUP2 PUSH1 0x6 ADD SSTORE PUSH1 0xE0 DUP3 ADD MLOAD DUP2 PUSH1 0x7 ADD SSTORE PUSH2 0x100 DUP3 ADD MLOAD DUP2 PUSH1 0x8 ADD SWAP1 DUP2 PUSH2 0x2898 SWAP2 SWAP1 PUSH2 0x4684 JUMP JUMPDEST POP SWAP1 POP POP PUSH1 0x5 PUSH1 0x0 CALLER PUSH20 0xFFFFFFFFFFFFFFFFFFFFFFFFFFFFFFFFFFFFFFFF AND PUSH20 0xFFFFFFFFFFFFFFFFFFFFFFFFFFFFFFFFFFFFFFFF AND DUP2 MSTORE PUSH1 0x20 ADD SWAP1 DUP2 MSTORE PUSH1 0x20 ADD PUSH1 0x0 KECCAK256 PUSH1 0x1 ADD PUSH1 0x8 SLOAD SWAP1 DUP1 PUSH1 0x1 DUP2 SLOAD ADD DUP1 DUP3 SSTORE DUP1 SWAP2 POP POP PUSH1 0x1 SWAP1 SUB SWAP1 PUSH1 0x0 MSTORE PUSH1 0x20 PUSH1 0x0 KECCAK256 ADD PUSH1 0x0 SWAP1 SWAP2 SWAP1 SWAP2 SWAP1 SWAP2 POP SSTORE CALLER PUSH20 0xFFFFFFFFFFFFFFFFFFFFFFFFFFFFFFFFFFFFFFFF AND PUSH1 0x8 SLOAD PUSH32 0xEF311EEC1D40202FEE1909AB585DF5E024DF1930DC6BBA97722D1E60E91C01F7 DUP10 DUP8 PUSH1 0x40 MLOAD PUSH2 0x2952 SWAP3 SWAP2 SWAP1 PUSH2 0x4756 JUMP JUMPDEST PUSH1 0x40 MLOAD DUP1 SWAP2 SUB SWAP1 LOG3 PUSH1 0x8 PUSH1 0x0 DUP2 SLOAD DUP1 SWAP3 SWAP2 SWAP1 PUSH2 0x296D SWAP1 PUSH2 0x3D72 JUMP JUMPDEST SWAP2 SWAP1 POP SSTORE POP POP POP POP POP POP POP POP JUMP JUMPDEST PUSH1 0x3 DUP2 DUP2 SLOAD DUP2 LT PUSH2 0x298B JUMPI PUSH1 0x0 DUP1 REVERT JUMPDEST SWAP1 PUSH1 0x0 MSTORE PUSH1 0x20 PUSH1 0x0 KECCAK256 ADD PUSH1 0x0 SWAP2 POP SLOAD SWAP1 PUSH2 0x100 EXP SWAP1 DIV PUSH20 0xFFFFFFFFFFFFFFFFFFFFFFFFFFFFFFFFFFFFFFFF AND DUP2 JUMP JUMPDEST PUSH1 0x0 DUP1 SLOAD SWAP1 PUSH2 0x100 EXP SWAP1 DIV PUSH20 0xFFFFFFFFFFFFFFFFFFFFFFFFFFFFFFFFFFFFFFFF AND DUP2 JUMP JUMPDEST PUSH1 0x0 DUP2 GT PUSH2 0x2A21 JUMPI PUSH1 0x40 MLOAD PUSH32 0x8C379A000000000000000000000000000000000000000000000000000000000 DUP2 MSTORE PUSH1 0x4 ADD PUSH2 0x2A18 SWAP1 PUSH2 0x47D2 JUMP JUMPDEST PUSH1 0x40 MLOAD DUP1 SWAP2 SUB SWAP1 REVERT JUMPDEST PUSH1 0x0 PUSH2 0x2A3E PUSH8 0xDE0B6B3A7640000 DUP4 PUSH2 0x2BE8 SWAP1 SWAP2 SWAP1 PUSH4 0xFFFFFFFF AND JUMP JUMPDEST SWAP1 POP PUSH1 0x1 PUSH1 0x0 SWAP1 SLOAD SWAP1 PUSH2 0x100 EXP SWAP1 DIV PUSH20 0xFFFFFFFFFFFFFFFFFFFFFFFFFFFFFFFFFFFFFFFF AND PUSH20 0xFFFFFFFFFFFFFFFFFFFFFFFFFFFFFFFFFFFFFFFF AND PUSH4 0x23B872DD CALLER ADDRESS DUP6 PUSH1 0x40 MLOAD DUP5 PUSH4 0xFFFFFFFF AND PUSH1 0xE0 SHL DUP2 MSTORE PUSH1 0x4 ADD PUSH2 0x2A9F SWAP4 SWAP3 SWAP2 SWAP1 PUSH2 0x4164 JUMP JUMPDEST PUSH1 0x20 PUSH1 0x40 MLOAD DUP1 DUP4 SUB DUP2 PUSH1 0x0 DUP8 GAS CALL ISZERO DUP1 ISZERO PUSH2 0x2ABE JUMPI RETURNDATASIZE PUSH1 0x0 DUP1 RETURNDATACOPY RETURNDATASIZE PUSH1 0x0 REVERT JUMPDEST POP POP POP POP PUSH1 0x40 MLOAD RETURNDATASIZE PUSH1 0x1F NOT PUSH1 0x1F DUP3 ADD AND DUP3 ADD DUP1 PUSH1 0x40 MSTORE POP DUP2 ADD SWAP1 PUSH2 0x2AE2 SWAP2 SWAP1 PUSH2 0x3BBE JUMP JUMPDEST PUSH2 0x2B21 JUMPI PUSH1 0x40 MLOAD PUSH32 0x8C379A000000000000000000000000000000000000000000000000000000000 DUP2 MSTORE PUSH1 0x4 ADD PUSH2 0x2B18 SWAP1 PUSH2 0x3C37 JUMP JUMPDEST PUSH1 0x40 MLOAD DUP1 SWAP2 SUB SWAP1 REVERT JUMPDEST CALLER PUSH20 0xFFFFFFFFFFFFFFFFFFFFFFFFFFFFFFFFFFFFFFFF AND PUSH2 0x8FC DUP3 SWAP1 DUP2 ISZERO MUL SWAP1 PUSH1 0x40 MLOAD PUSH1 0x0 PUSH1 0x40 MLOAD DUP1 DUP4 SUB DUP2 DUP6 DUP9 DUP9 CALL SWAP4 POP POP POP POP ISZERO DUP1 ISZERO PUSH2 0x2B67 JUMPI RETURNDATASIZE PUSH1 0x0 DUP1 RETURNDATACOPY RETURNDATASIZE PUSH1 0x0 REVERT JUMPDEST POP CALLER PUSH20 0xFFFFFFFFFFFFFFFFFFFFFFFFFFFFFFFFFFFFFFFF AND PUSH32 0xAE8BCD366B92D4B55D90C0CCBFD8A50A60BAE24F201C5899A989E99A3D877B93 DUP4 DUP4 PUSH1 0x40 MLOAD PUSH2 0x2BB0 SWAP3 SWAP2 SWAP1 PUSH2 0x3C57 JUMP JUMPDEST PUSH1 0x40 MLOAD DUP1 SWAP2 SUB SWAP1 LOG2 POP POP JUMP JUMPDEST PUSH1 0x0 DUP2 DUP4 PUSH2 0x2BCA SWAP2 SWAP1 PUSH2 0x40C7 JUMP JUMPDEST SWAP1 POP SWAP3 SWAP2 POP POP JUMP JUMPDEST PUSH1 0x0 DUP2 DUP4 PUSH2 0x2BE0 SWAP2 SWAP1 PUSH2 0x434B JUMP JUMPDEST SWAP1 POP SWAP3 SWAP2 POP POP JUMP JUMPDEST PUSH1 0x0 DUP2 DUP4 PUSH2 0x2BF6 SWAP2 SWAP1 PUSH2 0x4056 JUMP JUMPDEST SWAP1 POP SWAP3 SWAP2 POP POP JUMP JUMPDEST PUSH1 0x40 MLOAD DUP1 PUSH2 0x120 ADD PUSH1 0x40 MSTORE DUP1 PUSH1 0x0 DUP2 MSTORE PUSH1 0x20 ADD PUSH1 0x60 DUP2 MSTORE PUSH1 0x20 ADD PUSH1 0x60 DUP2 MSTORE PUSH1 0x20 ADD PUSH1 0x0 DUP2 MSTORE PUSH1 0x20 ADD PUSH1 0x0 PUSH20 0xFFFFFFFFFFFFFFFFFFFFFFFFFFFFFFFFFFFFFFFF AND DUP2 MSTORE PUSH1 0x20 ADD PUSH1 0x0 DUP2 MSTORE PUSH1 0x20 ADD PUSH1 0x0 DUP2 MSTORE PUSH1 0x20 ADD PUSH1 0x0 DUP2 MSTORE PUSH1 0x20 ADD PUSH1 0x60 DUP2 MSTORE POP SWAP1 JUMP JUMPDEST DUP3 DUP1 SLOAD DUP3 DUP3 SSTORE SWAP1 PUSH1 0x0 MSTORE PUSH1 0x20 PUSH1 0x0 KECCAK256 SWAP1 DUP2 ADD SWAP3 DUP3 ISZERO PUSH2 0x2CD9 JUMPI SWAP2 PUSH1 0x20 MUL DUP3 ADD JUMPDEST DUP3 DUP2 GT ISZERO PUSH2 0x2CD8 JUMPI DUP3 MLOAD DUP3 PUSH1 0x0 PUSH2 0x100 EXP DUP2 SLOAD DUP2 PUSH20 0xFFFFFFFFFFFFFFFFFFFFFFFFFFFFFFFFFFFFFFFF MUL NOT AND SWAP1 DUP4 PUSH20 0xFFFFFFFFFFFFFFFFFFFFFFFFFFFFFFFFFFFFFFFF AND MUL OR SWAP1 SSTORE POP SWAP2 PUSH1 0x20 ADD SWAP2 SWAP1 PUSH1 0x1 ADD SWAP1 PUSH2 0x2C80 JUMP JUMPDEST JUMPDEST POP SWAP1 POP PUSH2 0x2CE6 SWAP2 SWAP1 PUSH2 0x2D37 JUMP JUMPDEST POP SWAP1 JUMP JUMPDEST DUP3 DUP1 SLOAD DUP3 DUP3 SSTORE SWAP1 PUSH1 0x0 MSTORE PUSH1 0x20 PUSH1 0x0 KECCAK256 SWAP1 DUP2 ADD SWAP3 DUP3 ISZERO PUSH2 0x2D26 JUMPI SWAP2 PUSH1 0x20 MUL DUP3 ADD JUMPDEST DUP3 DUP2 GT ISZERO PUSH2 0x2D25 JUMPI DUP3 MLOAD DUP3 SSTORE SWAP2 PUSH1 0x20 ADD SWAP2 SWAP1 PUSH1 0x1 ADD SWAP1 PUSH2 0x2D0A JUMP JUMPDEST JUMPDEST POP SWAP1 POP PUSH2 0x2D33 SWAP2 SWAP1 PUSH2 0x2D37 JUMP JUMPDEST POP SWAP1 JUMP JUMPDEST JUMPDEST DUP1 DUP3 GT ISZERO PUSH2 0x2D50 JUMPI PUSH1 0x0 DUP2 PUSH1 0x0 SWAP1 SSTORE POP PUSH1 0x1 ADD PUSH2 0x2D38 JUMP JUMPDEST POP SWAP1 JUMP JUMPDEST PUSH1 0x0 DUP3 DUP3 MSTORE PUSH1 0x20 DUP3 ADD SWAP1 POP SWAP3 SWAP2 POP POP JUMP JUMPDEST PUSH32 0x4F7065726174696F6E206E6F7420737570706F72746564000000000000000000 PUSH1 0x0 DUP3 ADD MSTORE POP JUMP JUMPDEST PUSH1 0x0 PUSH2 0x2D9B PUSH1 0x17 DUP4 PUSH2 0x2D54 JUMP JUMPDEST SWAP2 POP PUSH2 0x2DA6 DUP3 PUSH2 0x2D65 JUMP JUMPDEST PUSH1 0x20 DUP3 ADD SWAP1 POP SWAP2 SWAP1 POP JUMP JUMPDEST PUSH1 0x0 PUSH1 0x20 DUP3 ADD SWAP1 POP DUP2 DUP2 SUB PUSH1 0x0 DUP4 ADD MSTORE PUSH2 0x2DCA DUP2 PUSH2 0x2D8E JUMP JUMPDEST SWAP1 POP SWAP2 SWAP1 POP JUMP JUMPDEST PUSH1 0x0 DUP2 MLOAD SWAP1 POP SWAP2 SWAP1 POP JUMP JUMPDEST PUSH1 0x0 DUP3 DUP3 MSTORE PUSH1 0x20 DUP3 ADD SWAP1 POP SWAP3 SWAP2 POP POP JUMP JUMPDEST PUSH1 0x0 DUP2 SWAP1 POP PUSH1 0x20 DUP3 ADD SWAP1 POP SWAP2 SWAP1 POP JUMP JUMPDEST PUSH1 0x0 DUP2 SWAP1 POP SWAP2 SWAP1 POP JUMP JUMPDEST PUSH2 0x2E10 DUP2 PUSH2 0x2DFD JUMP JUMPDEST DUP3 MSTORE POP POP JUMP JUMPDEST PUSH1 0x0 DUP2 MLOAD SWAP1 POP SWAP2 SWAP1 POP JUMP JUMPDEST PUSH1 0x0 DUP3 DUP3 MSTORE PUSH1 0x20 DUP3 ADD SWAP1 POP SWAP3 SWAP2 POP POP JUMP JUMPDEST PUSH1 0x0 JUMPDEST DUP4 DUP2 LT ISZERO PUSH2 0x2E50 JUMPI DUP1 DUP3 ADD MLOAD DUP2 DUP5 ADD MSTORE PUSH1 0x20 DUP2 ADD SWAP1 POP PUSH2 0x2E35 JUMP JUMPDEST PUSH1 0x0 DUP5 DUP5 ADD MSTORE POP POP POP POP JUMP JUMPDEST PUSH1 0x0 PUSH1 0x1F NOT PUSH1 0x1F DUP4 ADD AND SWAP1 POP SWAP2 SWAP1 POP JUMP JUMPDEST PUSH1 0x0 PUSH2 0x2E78 DUP3 PUSH2 0x2E16 JUMP JUMPDEST PUSH2 0x2E82 DUP2 DUP6 PUSH2 0x2E21 JUMP JUMPDEST SWAP4 POP PUSH2 0x2E92 DUP2 DUP6 PUSH1 0x20 DUP7 ADD PUSH2 0x2E32 JUMP JUMPDEST PUSH2 0x2E9B DUP2 PUSH2 0x2E5C JUMP JUMPDEST DUP5 ADD SWAP2 POP POP SWAP3 SWAP2 POP POP JUMP JUMPDEST PUSH1 0x0 PUSH20 0xFFFFFFFFFFFFFFFFFFFFFFFFFFFFFFFFFFFFFFFF DUP3 AND SWAP1 POP SWAP2 SWAP1 POP JUMP JUMPDEST PUSH1 0x0 PUSH2 0x2ED1 DUP3 PUSH2 0x2EA6 JUMP JUMPDEST SWAP1 POP SWAP2 SWAP1 POP JUMP JUMPDEST PUSH2 0x2EE1 DUP2 PUSH2 0x2EC6 JUMP JUMPDEST DUP3 MSTORE POP POP JUMP JUMPDEST PUSH1 0x0 PUSH2 0x120 DUP4 ADD PUSH1 0x0 DUP4 ADD MLOAD PUSH2 0x2F00 PUSH1 0x0 DUP7 ADD DUP3 PUSH2 0x2E07 JUMP JUMPDEST POP PUSH1 0x20 DUP4 ADD MLOAD DUP5 DUP3 SUB PUSH1 0x20 DUP7 ADD MSTORE PUSH2 0x2F18 DUP3 DUP3 PUSH2 0x2E6D JUMP JUMPDEST SWAP2 POP POP PUSH1 0x40 DUP4 ADD MLOAD DUP5 DUP3 SUB PUSH1 0x40 DUP7 ADD MSTORE PUSH2 0x2F32 DUP3 DUP3 PUSH2 0x2E6D JUMP JUMPDEST SWAP2 POP POP PUSH1 0x60 DUP4 ADD MLOAD PUSH2 0x2F47 PUSH1 0x60 DUP7 ADD DUP3 PUSH2 0x2E07 JUMP JUMPDEST POP PUSH1 0x80 DUP4 ADD MLOAD PUSH2 0x2F5A PUSH1 0x80 DUP7 ADD DUP3 PUSH2 0x2ED8 JUMP JUMPDEST POP PUSH1 0xA0 DUP4 ADD MLOAD PUSH2 0x2F6D PUSH1 0xA0 DUP7 ADD DUP3 PUSH2 0x2E07 JUMP JUMPDEST POP PUSH1 0xC0 DUP4 ADD MLOAD PUSH2 0x2F80 PUSH1 0xC0 DUP7 ADD DUP3 PUSH2 0x2E07 JUMP JUMPDEST POP PUSH1 0xE0 DUP4 ADD MLOAD PUSH2 0x2F93 PUSH1 0xE0 DUP7 ADD DUP3 PUSH2 0x2E07 JUMP JUMPDEST POP PUSH2 0x100 DUP4 ADD MLOAD DUP5 DUP3 SUB PUSH2 0x100 DUP7 ADD MSTORE PUSH2 0x2FAD DUP3 DUP3 PUSH2 0x2E6D JUMP JUMPDEST SWAP2 POP POP DUP1 SWAP2 POP POP SWAP3 SWAP2 POP POP JUMP JUMPDEST PUSH1 0x0 PUSH2 0x2FC6 DUP4 DUP4 PUSH2 0x2EE7 JUMP JUMPDEST SWAP1 POP SWAP3 SWAP2 POP POP JUMP JUMPDEST PUSH1 0x0 PUSH1 0x20 DUP3 ADD SWAP1 POP SWAP2 SWAP1 POP JUMP JUMPDEST PUSH1 0x0 PUSH2 0x2FE6 DUP3 PUSH2 0x2DD1 JUMP JUMPDEST PUSH2 0x2FF0 DUP2 DUP6 PUSH2 0x2DDC JUMP JUMPDEST SWAP4 POP DUP4 PUSH1 0x20 DUP3 MUL DUP6 ADD PUSH2 0x3002 DUP6 PUSH2 0x2DED JUMP JUMPDEST DUP1 PUSH1 0x0 JUMPDEST DUP6 DUP2 LT ISZERO PUSH2 0x303E JUMPI DUP5 DUP5 SUB DUP10 MSTORE DUP2 MLOAD PUSH2 0x301F DUP6 DUP3 PUSH2 0x2FBA JUMP JUMPDEST SWAP5 POP PUSH2 0x302A DUP4 PUSH2 0x2FCE JUMP JUMPDEST SWAP3 POP PUSH1 0x20 DUP11 ADD SWAP10 POP POP PUSH1 0x1 DUP2 ADD SWAP1 POP PUSH2 0x3006 JUMP JUMPDEST POP DUP3 SWAP8 POP DUP8 SWAP6 POP POP POP POP POP POP SWAP3 SWAP2 POP POP JUMP JUMPDEST PUSH1 0x0 PUSH1 0x20 DUP3 ADD SWAP1 POP DUP2 DUP2 SUB PUSH1 0x0 DUP4 ADD MSTORE PUSH2 0x306A DUP2 DUP5 PUSH2 0x2FDB JUMP JUMPDEST SWAP1 POP SWAP3 SWAP2 POP POP JUMP JUMPDEST PUSH2 0x307B DUP2 PUSH2 0x2DFD JUMP JUMPDEST DUP3 MSTORE POP POP JUMP JUMPDEST PUSH1 0x0 PUSH1 0x20 DUP3 ADD SWAP1 POP PUSH2 0x3096 PUSH1 0x0 DUP4 ADD DUP5 PUSH2 0x3072 JUMP JUMPDEST SWAP3 SWAP2 POP POP JUMP JUMPDEST PUSH1 0x0 PUSH1 0x40 MLOAD SWAP1 POP SWAP1 JUMP JUMPDEST PUSH1 0x0 DUP1 REVERT JUMPDEST PUSH1 0x0 DUP1 REVERT JUMPDEST PUSH2 0x30B9 DUP2 PUSH2 0x2DFD JUMP JUMPDEST DUP2 EQ PUSH2 0x30C4 JUMPI PUSH1 0x0 DUP1 REVERT JUMPDEST POP JUMP JUMPDEST PUSH1 0x0 DUP2 CALLDATALOAD SWAP1 POP PUSH2 0x30D6 DUP2 PUSH2 0x30B0 JUMP JUMPDEST SWAP3 SWAP2 POP POP JUMP JUMPDEST PUSH1 0x0 PUSH1 0x20 DUP3 DUP5 SUB SLT ISZERO PUSH2 0x30F2 JUMPI PUSH2 0x30F1 PUSH2 0x30A6 JUMP JUMPDEST JUMPDEST PUSH1 0x0 PUSH2 0x3100 DUP5 DUP3 DUP6 ADD PUSH2 0x30C7 JUMP JUMPDEST SWAP2 POP POP SWAP3 SWAP2 POP POP JUMP JUMPDEST PUSH2 0x3112 DUP2 PUSH2 0x2EC6 JUMP JUMPDEST DUP2 EQ PUSH2 0x311D JUMPI PUSH1 0x0 DUP1 REVERT JUMPDEST POP JUMP JUMPDEST PUSH1 0x0 DUP2 CALLDATALOAD SWAP1 POP PUSH2 0x312F DUP2 PUSH2 0x3109 JUMP JUMPDEST SWAP3 SWAP2 POP POP JUMP JUMPDEST PUSH1 0x0 PUSH1 0x20 DUP3 DUP5 SUB SLT ISZERO PUSH2 0x314B JUMPI PUSH2 0x314A PUSH2 0x30A6 JUMP JUMPDEST JUMPDEST PUSH1 0x0 PUSH2 0x3159 DUP5 DUP3 DUP6 ADD PUSH2 0x3120 JUMP JUMPDEST SWAP2 POP POP SWAP3 SWAP2 POP POP JUMP JUMPDEST PUSH1 0x0 DUP1 REVERT JUMPDEST PUSH1 0x0 DUP1 REVERT JUMPDEST PUSH1 0x0 DUP1 REVERT JUMPDEST PUSH1 0x0 DUP1 DUP4 PUSH1 0x1F DUP5 ADD SLT PUSH2 0x3187 JUMPI PUSH2 0x3186 PUSH2 0x3162 JUMP JUMPDEST JUMPDEST DUP3 CALLDATALOAD SWAP1 POP PUSH8 0xFFFFFFFFFFFFFFFF DUP2 GT ISZERO PUSH2 0x31A4 JUMPI PUSH2 0x31A3 PUSH2 0x3167 JUMP JUMPDEST JUMPDEST PUSH1 0x20 DUP4 ADD SWAP2 POP DUP4 PUSH1 0x1 DUP3 MUL DUP4 ADD GT ISZERO PUSH2 0x31C0 JUMPI PUSH2 0x31BF PUSH2 0x316C JUMP JUMPDEST JUMPDEST SWAP3 POP SWAP3 SWAP1 POP JUMP JUMPDEST PUSH1 0x0 DUP1 PUSH1 0x20 DUP4 DUP6 SUB SLT ISZERO PUSH2 0x31DE JUMPI PUSH2 0x31DD PUSH2 0x30A6 JUMP JUMPDEST JUMPDEST PUSH1 0x0 DUP4 ADD CALLDATALOAD PUSH8 0xFFFFFFFFFFFFFFFF DUP2 GT ISZERO PUSH2 0x31FC JUMPI PUSH2 0x31FB PUSH2 0x30AB JUMP JUMPDEST JUMPDEST PUSH2 0x3208 DUP6 DUP3 DUP7 ADD PUSH2 0x3171 JUMP JUMPDEST SWAP3 POP SWAP3 POP POP SWAP3 POP SWAP3 SWAP1 POP JUMP JUMPDEST PUSH32 0x4E487B7100000000000000000000000000000000000000000000000000000000 PUSH1 0x0 MSTORE PUSH1 0x41 PUSH1 0x4 MSTORE PUSH1 0x24 PUSH1 0x0 REVERT JUMPDEST PUSH2 0x324C DUP3 PUSH2 0x2E5C JUMP JUMPDEST DUP2 ADD DUP2 DUP2 LT PUSH8 0xFFFFFFFFFFFFFFFF DUP3 GT OR ISZERO PUSH2 0x326B JUMPI PUSH2 0x326A PUSH2 0x3214 JUMP JUMPDEST JUMPDEST DUP1 PUSH1 0x40 MSTORE POP POP POP JUMP JUMPDEST PUSH1 0x0 PUSH2 0x327E PUSH2 0x309C JUMP JUMPDEST SWAP1 POP PUSH2 0x328A DUP3 DUP3 PUSH2 0x3243 JUMP JUMPDEST SWAP2 SWAP1 POP JUMP JUMPDEST PUSH1 0x0 PUSH8 0xFFFFFFFFFFFFFFFF DUP3 GT ISZERO PUSH2 0x32AA JUMPI PUSH2 0x32A9 PUSH2 0x3214 JUMP JUMPDEST JUMPDEST PUSH1 0x20 DUP3 MUL SWAP1 POP PUSH1 0x20 DUP2 ADD SWAP1 POP SWAP2 SWAP1 POP JUMP JUMPDEST PUSH1 0x0 PUSH2 0x32CE PUSH2 0x32C9 DUP5 PUSH2 0x328F JUMP JUMPDEST PUSH2 0x3274 JUMP JUMPDEST SWAP1 POP DUP1 DUP4 DUP3 MSTORE PUSH1 0x20 DUP3 ADD SWAP1 POP PUSH1 0x20 DUP5 MUL DUP4 ADD DUP6 DUP2 GT ISZERO PUSH2 0x32F1 JUMPI PUSH2 0x32F0 PUSH2 0x316C JUMP JUMPDEST JUMPDEST DUP4 JUMPDEST DUP2 DUP2 LT ISZERO PUSH2 0x331A JUMPI DUP1 PUSH2 0x3306 DUP9 DUP3 PUSH2 0x30C7 JUMP JUMPDEST DUP5 MSTORE PUSH1 0x20 DUP5 ADD SWAP4 POP POP PUSH1 0x20 DUP2 ADD SWAP1 POP PUSH2 0x32F3 JUMP JUMPDEST POP POP POP SWAP4 SWAP3 POP POP POP JUMP JUMPDEST PUSH1 0x0 DUP3 PUSH1 0x1F DUP4 ADD SLT PUSH2 0x3339 JUMPI PUSH2 0x3338 PUSH2 0x3162 JUMP JUMPDEST JUMPDEST DUP2 CALLDATALOAD PUSH2 0x3349 DUP5 DUP3 PUSH1 0x20 DUP7 ADD PUSH2 0x32BB JUMP JUMPDEST SWAP2 POP POP SWAP3 SWAP2 POP POP JUMP JUMPDEST PUSH1 0x0 PUSH8 0xFFFFFFFFFFFFFFFF DUP3 GT ISZERO PUSH2 0x336D JUMPI PUSH2 0x336C PUSH2 0x3214 JUMP JUMPDEST JUMPDEST PUSH1 0x20 DUP3 MUL SWAP1 POP PUSH1 0x20 DUP2 ADD SWAP1 POP SWAP2 SWAP1 POP JUMP JUMPDEST PUSH1 0x0 DUP2 ISZERO ISZERO SWAP1 POP SWAP2 SWAP1 POP JUMP JUMPDEST PUSH2 0x3393 DUP2 PUSH2 0x337E JUMP JUMPDEST DUP2 EQ PUSH2 0x339E JUMPI PUSH1 0x0 DUP1 REVERT JUMPDEST POP JUMP JUMPDEST PUSH1 0x0 DUP2 CALLDATALOAD SWAP1 POP PUSH2 0x33B0 DUP2 PUSH2 0x338A JUMP JUMPDEST SWAP3 SWAP2 POP POP JUMP JUMPDEST PUSH1 0x0 PUSH2 0x33C9 PUSH2 0x33C4 DUP5 PUSH2 0x3352 JUMP JUMPDEST PUSH2 0x3274 JUMP JUMPDEST SWAP1 POP DUP1 DUP4 DUP3 MSTORE PUSH1 0x20 DUP3 ADD SWAP1 POP PUSH1 0x20 DUP5 MUL DUP4 ADD DUP6 DUP2 GT ISZERO PUSH2 0x33EC JUMPI PUSH2 0x33EB PUSH2 0x316C JUMP JUMPDEST JUMPDEST DUP4 JUMPDEST DUP2 DUP2 LT ISZERO PUSH2 0x3415 JUMPI DUP1 PUSH2 0x3401 DUP9 DUP3 PUSH2 0x33A1 JUMP JUMPDEST DUP5 MSTORE PUSH1 0x20 DUP5 ADD SWAP4 POP POP PUSH1 0x20 DUP2 ADD SWAP1 POP PUSH2 0x33EE JUMP JUMPDEST POP POP POP SWAP4 SWAP3 POP POP POP JUMP JUMPDEST PUSH1 0x0 DUP3 PUSH1 0x1F DUP4 ADD SLT PUSH2 0x3434 JUMPI PUSH2 0x3433 PUSH2 0x3162 JUMP JUMPDEST JUMPDEST DUP2 CALLDATALOAD PUSH2 0x3444 DUP5 DUP3 PUSH1 0x20 DUP7 ADD PUSH2 0x33B6 JUMP JUMPDEST SWAP2 POP POP SWAP3 SWAP2 POP POP JUMP JUMPDEST PUSH1 0x0 DUP1 PUSH1 0x0 DUP1 PUSH1 0x0 PUSH1 0xA0 DUP7 DUP9 SUB SLT ISZERO PUSH2 0x3469 JUMPI PUSH2 0x3468 PUSH2 0x30A6 JUMP JUMPDEST JUMPDEST PUSH1 0x0 DUP7 ADD CALLDATALOAD PUSH8 0xFFFFFFFFFFFFFFFF DUP2 GT ISZERO PUSH2 0x3487 JUMPI PUSH2 0x3486 PUSH2 0x30AB JUMP JUMPDEST JUMPDEST PUSH2 0x3493 DUP9 DUP3 DUP10 ADD PUSH2 0x3324 JUMP JUMPDEST SWAP6 POP POP PUSH1 0x20 DUP7 ADD CALLDATALOAD PUSH8 0xFFFFFFFFFFFFFFFF DUP2 GT ISZERO PUSH2 0x34B4 JUMPI PUSH2 0x34B3 PUSH2 0x30AB JUMP JUMPDEST JUMPDEST PUSH2 0x34C0 DUP9 DUP3 DUP10 ADD PUSH2 0x3324 JUMP JUMPDEST SWAP5 POP POP PUSH1 0x40 DUP7 ADD CALLDATALOAD PUSH8 0xFFFFFFFFFFFFFFFF DUP2 GT ISZERO PUSH2 0x34E1 JUMPI PUSH2 0x34E0 PUSH2 0x30AB JUMP JUMPDEST JUMPDEST PUSH2 0x34ED DUP9 DUP3 DUP10 ADD PUSH2 0x341F JUMP JUMPDEST SWAP4 POP POP PUSH1 0x60 PUSH2 0x34FE DUP9 DUP3 DUP10 ADD PUSH2 0x30C7 JUMP JUMPDEST SWAP3 POP POP PUSH1 0x80 PUSH2 0x350F DUP9 DUP3 DUP10 ADD PUSH2 0x30C7 JUMP JUMPDEST SWAP2 POP POP SWAP3 SWAP6 POP SWAP3 SWAP6 SWAP1 SWAP4 POP JUMP JUMPDEST PUSH2 0x3525 DUP2 PUSH2 0x2EC6 JUMP JUMPDEST DUP3 MSTORE POP POP JUMP JUMPDEST PUSH1 0x0 PUSH1 0x20 DUP3 ADD SWAP1 POP PUSH2 0x3540 PUSH1 0x0 DUP4 ADD DUP5 PUSH2 0x351C JUMP JUMPDEST SWAP3 SWAP2 POP POP JUMP JUMPDEST PUSH1 0x0 DUP1 REVERT JUMPDEST PUSH1 0x0 PUSH8 0xFFFFFFFFFFFFFFFF DUP3 GT ISZERO PUSH2 0x3566 JUMPI PUSH2 0x3565 PUSH2 0x3214 JUMP JUMPDEST JUMPDEST PUSH2 0x356F DUP3 PUSH2 0x2E5C JUMP JUMPDEST SWAP1 POP PUSH1 0x20 DUP2 ADD SWAP1 POP SWAP2 SWAP1 POP JUMP JUMPDEST DUP3 DUP2 DUP4 CALLDATACOPY PUSH1 0x0 DUP4 DUP4 ADD MSTORE POP POP POP JUMP JUMPDEST PUSH1 0x0 PUSH2 0x359E PUSH2 0x3599 DUP5 PUSH2 0x354B JUMP JUMPDEST PUSH2 0x3274 JUMP JUMPDEST SWAP1 POP DUP3 DUP2 MSTORE PUSH1 0x20 DUP2 ADD DUP5 DUP5 DUP5 ADD GT ISZERO PUSH2 0x35BA JUMPI PUSH2 0x35B9 PUSH2 0x3546 JUMP JUMPDEST JUMPDEST PUSH2 0x35C5 DUP5 DUP3 DUP6 PUSH2 0x357C JUMP JUMPDEST POP SWAP4 SWAP3 POP POP POP JUMP JUMPDEST PUSH1 0x0 DUP3 PUSH1 0x1F DUP4 ADD SLT PUSH2 0x35E2 JUMPI PUSH2 0x35E1 PUSH2 0x3162 JUMP JUMPDEST JUMPDEST DUP2 CALLDATALOAD PUSH2 0x35F2 DUP5 DUP3 PUSH1 0x20 DUP7 ADD PUSH2 0x358B JUMP JUMPDEST SWAP2 POP POP SWAP3 SWAP2 POP POP JUMP JUMPDEST PUSH1 0x0 PUSH1 0x20 DUP3 DUP5 SUB SLT ISZERO PUSH2 0x3611 JUMPI PUSH2 0x3610 PUSH2 0x30A6 JUMP JUMPDEST JUMPDEST PUSH1 0x0 DUP3 ADD CALLDATALOAD PUSH8 0xFFFFFFFFFFFFFFFF DUP2 GT ISZERO PUSH2 0x362F JUMPI PUSH2 0x362E PUSH2 0x30AB JUMP JUMPDEST JUMPDEST PUSH2 0x363B DUP5 DUP3 DUP6 ADD PUSH2 0x35CD JUMP JUMPDEST SWAP2 POP POP SWAP3 SWAP2 POP POP JUMP JUMPDEST PUSH2 0x364D DUP2 PUSH2 0x337E JUMP JUMPDEST DUP3 MSTORE POP POP JUMP JUMPDEST PUSH1 0x0 DUP2 MLOAD SWAP1 POP SWAP2 SWAP1 POP JUMP JUMPDEST PUSH1 0x0 DUP3 DUP3 MSTORE PUSH1 0x20 DUP3 ADD SWAP1 POP SWAP3 SWAP2 POP POP JUMP JUMPDEST PUSH1 0x0 PUSH2 0x367A DUP3 PUSH2 0x3653 JUMP JUMPDEST PUSH2 0x3684 DUP2 DUP6 PUSH2 0x365E JUMP JUMPDEST SWAP4 POP PUSH2 0x3694 DUP2 DUP6 PUSH1 0x20 DUP7 ADD PUSH2 0x2E32 JUMP JUMPDEST PUSH2 0x369D DUP2 PUSH2 0x2E5C JUMP JUMPDEST DUP5 ADD SWAP2 POP POP SWAP3 SWAP2 POP POP JUMP JUMPDEST PUSH1 0x0 PUSH1 0x40 DUP3 ADD SWAP1 POP PUSH2 0x36BD PUSH1 0x0 DUP4 ADD DUP6 PUSH2 0x3644 JUMP JUMPDEST DUP2 DUP2 SUB PUSH1 0x20 DUP4 ADD MSTORE PUSH2 0x36CF DUP2 DUP5 PUSH2 0x366F JUMP JUMPDEST SWAP1 POP SWAP4 SWAP3 POP POP POP JUMP JUMPDEST PUSH1 0x0 DUP2 SWAP1 POP SWAP2 SWAP1 POP JUMP JUMPDEST PUSH1 0x0 PUSH2 0x36FD PUSH2 0x36F8 PUSH2 0x36F3 DUP5 PUSH2 0x2EA6 JUMP JUMPDEST PUSH2 0x36D8 JUMP JUMPDEST PUSH2 0x2EA6 JUMP JUMPDEST SWAP1 POP SWAP2 SWAP1 POP JUMP JUMPDEST PUSH1 0x0 PUSH2 0x370F DUP3 PUSH2 0x36E2 JUMP JUMPDEST SWAP1 POP SWAP2 SWAP1 POP JUMP JUMPDEST PUSH1 0x0 PUSH2 0x3721 DUP3 PUSH2 0x3704 JUMP JUMPDEST SWAP1 POP SWAP2 SWAP1 POP JUMP JUMPDEST PUSH2 0x3731 DUP2 PUSH2 0x3716 JUMP JUMPDEST DUP3 MSTORE POP POP JUMP JUMPDEST PUSH1 0x0 PUSH1 0x20 DUP3 ADD SWAP1 POP PUSH2 0x374C PUSH1 0x0 DUP4 ADD DUP5 PUSH2 0x3728 JUMP JUMPDEST SWAP3 SWAP2 POP POP JUMP JUMPDEST PUSH1 0x0 PUSH2 0x375D DUP3 PUSH2 0x2E16 JUMP JUMPDEST PUSH2 0x3767 DUP2 DUP6 PUSH2 0x2D54 JUMP JUMPDEST SWAP4 POP PUSH2 0x3777 DUP2 DUP6 PUSH1 0x20 DUP7 ADD PUSH2 0x2E32 JUMP JUMPDEST PUSH2 0x3780 DUP2 PUSH2 0x2E5C JUMP JUMPDEST DUP5 ADD SWAP2 POP POP SWAP3 SWAP2 POP POP JUMP JUMPDEST PUSH1 0x0 PUSH2 0x120 DUP3 ADD SWAP1 POP PUSH2 0x37A1 PUSH1 0x0 DUP4 ADD DUP13 PUSH2 0x3072 JUMP JUMPDEST DUP2 DUP2 SUB PUSH1 0x20 DUP4 ADD MSTORE PUSH2 0x37B3 DUP2 DUP12 PUSH2 0x3752 JUMP JUMPDEST SWAP1 POP DUP2 DUP2 SUB PUSH1 0x40 DUP4 ADD MSTORE PUSH2 0x37C7 DUP2 DUP11 PUSH2 0x3752 JUMP JUMPDEST SWAP1 POP PUSH2 0x37D6 PUSH1 0x60 DUP4 ADD DUP10 PUSH2 0x3072 JUMP JUMPDEST PUSH2 0x37E3 PUSH1 0x80 DUP4 ADD DUP9 PUSH2 0x351C JUMP JUMPDEST PUSH2 0x37F0 PUSH1 0xA0 DUP4 ADD DUP8 PUSH2 0x3072 JUMP JUMPDEST PUSH2 0x37FD PUSH1 0xC0 DUP4 ADD DUP7 PUSH2 0x3072 JUMP JUMPDEST PUSH2 0x380A PUSH1 0xE0 DUP4 ADD DUP6 PUSH2 0x3072 JUMP JUMPDEST DUP2 DUP2 SUB PUSH2 0x100 DUP4 ADD MSTORE PUSH2 0x381D DUP2 DUP5 PUSH2 0x3752 JUMP JUMPDEST SWAP1 POP SWAP11 SWAP10 POP POP POP POP POP POP POP POP POP POP JUMP JUMPDEST PUSH1 0x0 PUSH1 0x80 DUP3 ADD SWAP1 POP PUSH2 0x3842 PUSH1 0x0 DUP4 ADD DUP8 PUSH2 0x3072 JUMP JUMPDEST PUSH2 0x384F PUSH1 0x20 DUP4 ADD DUP7 PUSH2 0x351C JUMP JUMPDEST PUSH2 0x385C PUSH1 0x40 DUP4 ADD DUP6 PUSH2 0x3072 JUMP JUMPDEST PUSH2 0x3869 PUSH1 0x60 DUP4 ADD DUP5 PUSH2 0x3072 JUMP JUMPDEST SWAP6 SWAP5 POP POP POP POP POP JUMP JUMPDEST PUSH1 0x0 PUSH1 0x60 DUP3 ADD SWAP1 POP PUSH2 0x3887 PUSH1 0x0 DUP4 ADD DUP7 PUSH2 0x351C JUMP JUMPDEST PUSH2 0x3894 PUSH1 0x20 DUP4 ADD DUP6 PUSH2 0x3072 JUMP JUMPDEST PUSH2 0x38A1 PUSH1 0x40 DUP4 ADD DUP5 PUSH2 0x3072 JUMP JUMPDEST SWAP5 SWAP4 POP POP POP POP JUMP JUMPDEST PUSH1 0x0 PUSH8 0xFFFFFFFFFFFFFFFF DUP3 GT ISZERO PUSH2 0x38C4 JUMPI PUSH2 0x38C3 PUSH2 0x3214 JUMP JUMPDEST JUMPDEST PUSH2 0x38CD DUP3 PUSH2 0x2E5C JUMP JUMPDEST SWAP1 POP PUSH1 0x20 DUP2 ADD SWAP1 POP SWAP2 SWAP1 POP JUMP JUMPDEST PUSH1 0x0 PUSH2 0x38ED PUSH2 0x38E8 DUP5 PUSH2 0x38A9 JUMP JUMPDEST PUSH2 0x3274 JUMP JUMPDEST SWAP1 POP DUP3 DUP2 MSTORE PUSH1 0x20 DUP2 ADD DUP5 DUP5 DUP5 ADD GT ISZERO PUSH2 0x3909 JUMPI PUSH2 0x3908 PUSH2 0x3546 JUMP JUMPDEST JUMPDEST PUSH2 0x3914 DUP5 DUP3 DUP6 PUSH2 0x357C JUMP JUMPDEST POP SWAP4 SWAP3 POP POP POP JUMP JUMPDEST PUSH1 0x0 DUP3 PUSH1 0x1F DUP4 ADD SLT PUSH2 0x3931 JUMPI PUSH2 0x3930 PUSH2 0x3162 JUMP JUMPDEST JUMPDEST DUP2 CALLDATALOAD PUSH2 0x3941 DUP5 DUP3 PUSH1 0x20 DUP7 ADD PUSH2 0x38DA JUMP JUMPDEST SWAP2 POP POP SWAP3 SWAP2 POP POP JUMP JUMPDEST PUSH1 0x0 DUP1 PUSH1 0x0 DUP1 PUSH1 0x0 DUP1 PUSH1 0x0 PUSH1 0xE0 DUP9 DUP11 SUB SLT ISZERO PUSH2 0x3969 JUMPI PUSH2 0x3968 PUSH2 0x30A6 JUMP JUMPDEST JUMPDEST PUSH1 0x0 DUP9 ADD CALLDATALOAD PUSH8 0xFFFFFFFFFFFFFFFF DUP2 GT ISZERO PUSH2 0x3987 JUMPI PUSH2 0x3986 PUSH2 0x30AB JUMP JUMPDEST JUMPDEST PUSH2 0x3993 DUP11 DUP3 DUP12 ADD PUSH2 0x391C JUMP JUMPDEST SWAP8 POP POP PUSH1 0x20 DUP9 ADD CALLDATALOAD PUSH8 0xFFFFFFFFFFFFFFFF DUP2 GT ISZERO PUSH2 0x39B4 JUMPI PUSH2 0x39B3 PUSH2 0x30AB JUMP JUMPDEST JUMPDEST PUSH2 0x39C0 DUP11 DUP3 DUP12 ADD PUSH2 0x391C JUMP JUMPDEST SWAP7 POP POP PUSH1 0x40 PUSH2 0x39D1 DUP11 DUP3 DUP12 ADD PUSH2 0x30C7 JUMP JUMPDEST SWAP6 POP POP PUSH1 0x60 PUSH2 0x39E2 DUP11 DUP3 DUP12 ADD PUSH2 0x30C7 JUMP JUMPDEST SWAP5 POP POP PUSH1 0x80 PUSH2 0x39F3 DUP11 DUP3 DUP12 ADD PUSH2 0x30C7 JUMP JUMPDEST SWAP4 POP POP PUSH1 0xA0 PUSH2 0x3A04 DUP11 DUP3 DUP12 ADD PUSH2 0x30C7 JUMP JUMPDEST SWAP3 POP POP PUSH1 0xC0 DUP9 ADD CALLDATALOAD PUSH8 0xFFFFFFFFFFFFFFFF DUP2 GT ISZERO PUSH2 0x3A25 JUMPI PUSH2 0x3A24 PUSH2 0x30AB JUMP JUMPDEST JUMPDEST PUSH2 0x3A31 DUP11 DUP3 DUP12 ADD PUSH2 0x391C JUMP JUMPDEST SWAP2 POP POP SWAP3 SWAP6 SWAP9 SWAP2 SWAP5 SWAP8 POP SWAP3 SWAP6 POP JUMP JUMPDEST PUSH32 0x4D4154494320616D6F756E742073686F756C6420626520677265617465722074 PUSH1 0x0 DUP3 ADD MSTORE PUSH32 0x68616E2030000000000000000000000000000000000000000000000000000000 PUSH1 0x20 DUP3 ADD MSTORE POP JUMP JUMPDEST PUSH1 0x0 PUSH2 0x3A9C PUSH1 0x25 DUP4 PUSH2 0x2D54 JUMP JUMPDEST SWAP2 POP PUSH2 0x3AA7 DUP3 PUSH2 0x3A40 JUMP JUMPDEST PUSH1 0x40 DUP3 ADD SWAP1 POP SWAP2 SWAP1 POP JUMP JUMPDEST PUSH1 0x0 PUSH1 0x20 DUP3 ADD SWAP1 POP DUP2 DUP2 SUB PUSH1 0x0 DUP4 ADD MSTORE PUSH2 0x3ACB DUP2 PUSH2 0x3A8F JUMP JUMPDEST SWAP1 POP SWAP2 SWAP1 POP JUMP JUMPDEST PUSH1 0x0 DUP2 MLOAD SWAP1 POP PUSH2 0x3AE1 DUP2 PUSH2 0x30B0 JUMP JUMPDEST SWAP3 SWAP2 POP POP JUMP JUMPDEST PUSH1 0x0 PUSH1 0x20 DUP3 DUP5 SUB SLT ISZERO PUSH2 0x3AFD JUMPI PUSH2 0x3AFC PUSH2 0x30A6 JUMP JUMPDEST JUMPDEST PUSH1 0x0 PUSH2 0x3B0B DUP5 DUP3 DUP6 ADD PUSH2 0x3AD2 JUMP JUMPDEST SWAP2 POP POP SWAP3 SWAP2 POP POP JUMP JUMPDEST PUSH32 0x4E6F7420656E6F756768204C525420696E20636F6E7472616374000000000000 PUSH1 0x0 DUP3 ADD MSTORE POP JUMP JUMPDEST PUSH1 0x0 PUSH2 0x3B4A PUSH1 0x1A DUP4 PUSH2 0x2D54 JUMP JUMPDEST SWAP2 POP PUSH2 0x3B55 DUP3 PUSH2 0x3B14 JUMP JUMPDEST PUSH1 0x20 DUP3 ADD SWAP1 POP SWAP2 SWAP1 POP JUMP JUMPDEST PUSH1 0x0 PUSH1 0x20 DUP3 ADD SWAP1 POP DUP2 DUP2 SUB PUSH1 0x0 DUP4 ADD MSTORE PUSH2 0x3B79 DUP2 PUSH2 0x3B3D JUMP JUMPDEST SWAP1 POP SWAP2 SWAP1 POP JUMP JUMPDEST PUSH1 0x0 PUSH1 0x40 DUP3 ADD SWAP1 POP PUSH2 0x3B95 PUSH1 0x0 DUP4 ADD DUP6 PUSH2 0x351C JUMP JUMPDEST PUSH2 0x3BA2 PUSH1 0x20 DUP4 ADD DUP5 PUSH2 0x3072 JUMP JUMPDEST SWAP4 SWAP3 POP POP POP JUMP JUMPDEST PUSH1 0x0 DUP2 MLOAD SWAP1 POP PUSH2 0x3BB8 DUP2 PUSH2 0x338A JUMP JUMPDEST SWAP3 SWAP2 POP POP JUMP JUMPDEST PUSH1 0x0 PUSH1 0x20 DUP3 DUP5 SUB SLT ISZERO PUSH2 0x3BD4 JUMPI PUSH2 0x3BD3 PUSH2 0x30A6 JUMP JUMPDEST JUMPDEST PUSH1 0x0 PUSH2 0x3BE2 DUP5 DUP3 DUP6 ADD PUSH2 0x3BA9 JUMP JUMPDEST SWAP2 POP POP SWAP3 SWAP2 POP POP JUMP JUMPDEST PUSH32 0x4C5254207472616E73666572206661696C656400000000000000000000000000 PUSH1 0x0 DUP3 ADD MSTORE POP JUMP JUMPDEST PUSH1 0x0 PUSH2 0x3C21 PUSH1 0x13 DUP4 PUSH2 0x2D54 JUMP JUMPDEST SWAP2 POP PUSH2 0x3C2C DUP3 PUSH2 0x3BEB JUMP JUMPDEST PUSH1 0x20 DUP3 ADD SWAP1 POP SWAP2 SWAP1 POP JUMP JUMPDEST PUSH1 0x0 PUSH1 0x20 DUP3 ADD SWAP1 POP DUP2 DUP2 SUB PUSH1 0x0 DUP4 ADD MSTORE PUSH2 0x3C50 DUP2 PUSH2 0x3C14 JUMP JUMPDEST SWAP1 POP SWAP2 SWAP1 POP JUMP JUMPDEST PUSH1 0x0 PUSH1 0x40 DUP3 ADD SWAP1 POP PUSH2 0x3C6C PUSH1 0x0 DUP4 ADD DUP6 PUSH2 0x3072 JUMP JUMPDEST PUSH2 0x3C79 PUSH1 0x20 DUP4 ADD DUP5 PUSH2 0x3072 JUMP JUMPDEST SWAP4 SWAP3 POP POP POP JUMP JUMPDEST PUSH32 0x4E487B7100000000000000000000000000000000000000000000000000000000 PUSH1 0x0 MSTORE PUSH1 0x11 PUSH1 0x4 MSTORE PUSH1 0x24 PUSH1 0x0 REVERT JUMPDEST PUSH1 0x0 PUSH2 0x3CBA DUP3 PUSH2 0x2DFD JUMP JUMPDEST SWAP2 POP PUSH2 0x3CC5 DUP4 PUSH2 0x2DFD JUMP JUMPDEST SWAP3 POP DUP3 DUP3 SUB SWAP1 POP DUP2 DUP2 GT ISZERO PUSH2 0x3CDD JUMPI PUSH2 0x3CDC PUSH2 0x3C80 JUMP JUMPDEST JUMPDEST SWAP3 SWAP2 POP POP JUMP JUMPDEST PUSH32 0x4E487B7100000000000000000000000000000000000000000000000000000000 PUSH1 0x0 MSTORE PUSH1 0x22 PUSH1 0x4 MSTORE PUSH1 0x24 PUSH1 0x0 REVERT JUMPDEST PUSH1 0x0 PUSH1 0x2 DUP3 DIV SWAP1 POP PUSH1 0x1 DUP3 AND DUP1 PUSH2 0x3D2A JUMPI PUSH1 0x7F DUP3 AND SWAP2 POP JUMPDEST PUSH1 0x20 DUP3 LT DUP2 SUB PUSH2 0x3D3D JUMPI PUSH2 0x3D3C PUSH2 0x3CE3 JUMP JUMPDEST JUMPDEST POP SWAP2 SWAP1 POP JUMP JUMPDEST PUSH32 0x4E487B7100000000000000000000000000000000000000000000000000000000 PUSH1 0x0 MSTORE PUSH1 0x32 PUSH1 0x4 MSTORE PUSH1 0x24 PUSH1 0x0 REVERT JUMPDEST PUSH1 0x0 PUSH2 0x3D7D DUP3 PUSH2 0x2DFD JUMP JUMPDEST SWAP2 POP PUSH32 0xFFFFFFFFFFFFFFFFFFFFFFFFFFFFFFFFFFFFFFFFFFFFFFFFFFFFFFFFFFFFFFFF DUP3 SUB PUSH2 0x3DAF JUMPI PUSH2 0x3DAE PUSH2 0x3C80 JUMP JUMPDEST JUMPDEST PUSH1 0x1 DUP3 ADD SWAP1 POP SWAP2 SWAP1 POP JUMP JUMPDEST PUSH32 0x4F6E6C792061646D696E2063616E2063616C6C20746869732066756E6374696F PUSH1 0x0 DUP3 ADD MSTORE PUSH32 0x6E00000000000000000000000000000000000000000000000000000000000000 PUSH1 0x20 DUP3 ADD MSTORE POP JUMP JUMPDEST PUSH1 0x0 PUSH2 0x3E16 PUSH1 0x21 DUP4 PUSH2 0x2D54 JUMP JUMPDEST SWAP2 POP PUSH2 0x3E21 DUP3 PUSH2 0x3DBA JUMP JUMPDEST PUSH1 0x40 DUP3 ADD SWAP1 POP SWAP2 SWAP1 POP JUMP JUMPDEST PUSH1 0x0 PUSH1 0x20 DUP3 ADD SWAP1 POP DUP2 DUP2 SUB PUSH1 0x0 DUP4 ADD MSTORE PUSH2 0x3E45 DUP2 PUSH2 0x3E09 JUMP JUMPDEST SWAP1 POP SWAP2 SWAP1 POP JUMP JUMPDEST PUSH32 0x55706B656570206E6F74206E6565646564000000000000000000000000000000 PUSH1 0x0 DUP3 ADD MSTORE POP JUMP JUMPDEST PUSH1 0x0 PUSH2 0x3E82 PUSH1 0x11 DUP4 PUSH2 0x2D54 JUMP JUMPDEST SWAP2 POP PUSH2 0x3E8D DUP3 PUSH2 0x3E4C JUMP JUMPDEST PUSH1 0x20 DUP3 ADD SWAP1 POP SWAP2 SWAP1 POP JUMP JUMPDEST PUSH1 0x0 PUSH1 0x20 DUP3 ADD SWAP1 POP DUP2 DUP2 SUB PUSH1 0x0 DUP4 ADD MSTORE PUSH2 0x3EB1 DUP2 PUSH2 0x3E75 JUMP JUMPDEST SWAP1 POP SWAP2 SWAP1 POP JUMP JUMPDEST PUSH1 0x0 PUSH8 0xFFFFFFFFFFFFFFFF DUP3 GT ISZERO PUSH2 0x3ED3 JUMPI PUSH2 0x3ED2 PUSH2 0x3214 JUMP JUMPDEST JUMPDEST PUSH1 0x20 DUP3 MUL SWAP1 POP PUSH1 0x20 DUP2 ADD SWAP1 POP SWAP2 SWAP1 POP JUMP JUMPDEST PUSH1 0x0 PUSH2 0x3EF7 PUSH2 0x3EF2 DUP5 PUSH2 0x3EB8 JUMP JUMPDEST PUSH2 0x3274 JUMP JUMPDEST SWAP1 POP DUP1 DUP4 DUP3 MSTORE PUSH1 0x20 DUP3 ADD SWAP1 POP PUSH1 0x20 DUP5 MUL DUP4 ADD DUP6 DUP2 GT ISZERO PUSH2 0x3F1A JUMPI PUSH2 0x3F19 PUSH2 0x316C JUMP JUMPDEST JUMPDEST DUP4 JUMPDEST DUP2 DUP2 LT ISZERO PUSH2 0x3F43 JUMPI DUP1 PUSH2 0x3F2F DUP9 DUP3 PUSH2 0x3120 JUMP JUMPDEST DUP5 MSTORE PUSH1 0x20 DUP5 ADD SWAP4 POP POP PUSH1 0x20 DUP2 ADD SWAP1 POP PUSH2 0x3F1C JUMP JUMPDEST POP POP POP SWAP4 SWAP3 POP POP POP JUMP JUMPDEST PUSH1 0x0 DUP3 PUSH1 0x1F DUP4 ADD SLT PUSH2 0x3F62 JUMPI PUSH2 0x3F61 PUSH2 0x3162 JUMP JUMPDEST JUMPDEST DUP2 CALLDATALOAD PUSH2 0x3F72 DUP5 DUP3 PUSH1 0x20 DUP7 ADD PUSH2 0x3EE4 JUMP JUMPDEST SWAP2 POP POP SWAP3 SWAP2 POP POP JUMP JUMPDEST PUSH1 0x0 PUSH1 0x20 DUP3 DUP5 SUB SLT ISZERO PUSH2 0x3F91 JUMPI PUSH2 0x3F90 PUSH2 0x30A6 JUMP JUMPDEST JUMPDEST PUSH1 0x0 DUP3 ADD CALLDATALOAD PUSH8 0xFFFFFFFFFFFFFFFF DUP2 GT ISZERO PUSH2 0x3FAF JUMPI PUSH2 0x3FAE PUSH2 0x30AB JUMP JUMPDEST JUMPDEST PUSH2 0x3FBB DUP5 DUP3 DUP6 ADD PUSH2 0x3F4D JUMP JUMPDEST SWAP2 POP POP SWAP3 SWAP2 POP POP JUMP JUMPDEST PUSH32 0x4D69736D6174636820696E2070726F647563742049447320616E64207175616E PUSH1 0x0 DUP3 ADD MSTORE PUSH32 0x746974696573206C656E67746800000000000000000000000000000000000000 PUSH1 0x20 DUP3 ADD MSTORE POP JUMP JUMPDEST PUSH1 0x0 PUSH2 0x4020 PUSH1 0x2D DUP4 PUSH2 0x2D54 JUMP JUMPDEST SWAP2 POP PUSH2 0x402B DUP3 PUSH2 0x3FC4 JUMP JUMPDEST PUSH1 0x40 DUP3 ADD SWAP1 POP SWAP2 SWAP1 POP JUMP JUMPDEST PUSH1 0x0 PUSH1 0x20 DUP3 ADD SWAP1 POP DUP2 DUP2 SUB PUSH1 0x0 DUP4 ADD MSTORE PUSH2 0x404F DUP2 PUSH2 0x4013 JUMP JUMPDEST SWAP1 POP SWAP2 SWAP1 POP JUMP JUMPDEST PUSH1 0x0 PUSH2 0x4061 DUP3 PUSH2 0x2DFD JUMP JUMPDEST SWAP2 POP PUSH2 0x406C DUP4 PUSH2 0x2DFD JUMP JUMPDEST SWAP3 POP DUP3 DUP3 MUL PUSH2 0x407A DUP2 PUSH2 0x2DFD JUMP JUMPDEST SWAP2 POP DUP3 DUP3 DIV DUP5 EQ DUP4 ISZERO OR PUSH2 0x4091 JUMPI PUSH2 0x4090 PUSH2 0x3C80 JUMP JUMPDEST JUMPDEST POP SWAP3 SWAP2 POP POP JUMP JUMPDEST PUSH32 0x4E487B7100000000000000000000000000000000000000000000000000000000 PUSH1 0x0 MSTORE PUSH1 0x12 PUSH1 0x4 MSTORE PUSH1 0x24 PUSH1 0x0 REVERT JUMPDEST PUSH1 0x0 PUSH2 0x40D2 DUP3 PUSH2 0x2DFD JUMP JUMPDEST SWAP2 POP PUSH2 0x40DD DUP4 PUSH2 0x2DFD JUMP JUMPDEST SWAP3 POP DUP3 PUSH2 0x40ED JUMPI PUSH2 0x40EC PUSH2 0x4098 JUMP JUMPDEST JUMPDEST DUP3 DUP3 DIV SWAP1 POP SWAP3 SWAP2 POP POP JUMP JUMPDEST PUSH32 0x496E636F7272656374204D415449432073656E74000000000000000000000000 PUSH1 0x0 DUP3 ADD MSTORE POP JUMP JUMPDEST PUSH1 0x0 PUSH2 0x412E PUSH1 0x14 DUP4 PUSH2 0x2D54 JUMP JUMPDEST SWAP2 POP PUSH2 0x4139 DUP3 PUSH2 0x40F8 JUMP JUMPDEST PUSH1 0x20 DUP3 ADD SWAP1 POP SWAP2 SWAP1 POP JUMP JUMPDEST PUSH1 0x0 PUSH1 0x20 DUP3 ADD SWAP1 POP DUP2 DUP2 SUB PUSH1 0x0 DUP4 ADD MSTORE PUSH2 0x415D DUP2 PUSH2 0x4121 JUMP JUMPDEST SWAP1 POP SWAP2 SWAP1 POP JUMP JUMPDEST PUSH1 0x0 PUSH1 0x60 DUP3 ADD SWAP1 POP PUSH2 0x4179 PUSH1 0x0 DUP4 ADD DUP7 PUSH2 0x351C JUMP JUMPDEST PUSH2 0x4186 PUSH1 0x20 DUP4 ADD DUP6 PUSH2 0x351C JUMP JUMPDEST PUSH2 0x4193 PUSH1 0x40 DUP4 ADD DUP5 PUSH2 0x3072 JUMP JUMPDEST SWAP5 SWAP4 POP POP POP POP JUMP JUMPDEST PUSH32 0x52657761726420506F696E7473207472616E73666572206661696C6564000000 PUSH1 0x0 DUP3 ADD MSTORE POP JUMP JUMPDEST PUSH1 0x0 PUSH2 0x41D1 PUSH1 0x1D DUP4 PUSH2 0x2D54 JUMP JUMPDEST SWAP2 POP PUSH2 0x41DC DUP3 PUSH2 0x419B JUMP JUMPDEST PUSH1 0x20 DUP3 ADD SWAP1 POP SWAP2 SWAP1 POP JUMP JUMPDEST PUSH1 0x0 PUSH1 0x20 DUP3 ADD SWAP1 POP DUP2 DUP2 SUB PUSH1 0x0 DUP4 ADD MSTORE PUSH2 0x4200 DUP2 PUSH2 0x41C4 JUMP JUMPDEST SWAP1 POP SWAP2 SWAP1 POP JUMP JUMPDEST PUSH32 0x4C6F79616C747920546F6B656E207472616E73666572206661696C6564000000 PUSH1 0x0 DUP3 ADD MSTORE POP JUMP JUMPDEST PUSH1 0x0 PUSH2 0x423D PUSH1 0x1D DUP4 PUSH2 0x2D54 JUMP JUMPDEST SWAP2 POP PUSH2 0x4248 DUP3 PUSH2 0x4207 JUMP JUMPDEST PUSH1 0x20 DUP3 ADD SWAP1 POP SWAP2 SWAP1 POP JUMP JUMPDEST PUSH1 0x0 PUSH1 0x20 DUP3 ADD SWAP1 POP DUP2 DUP2 SUB PUSH1 0x0 DUP4 ADD MSTORE PUSH2 0x426C DUP2 PUSH2 0x4230 JUMP JUMPDEST SWAP1 POP SWAP2 SWAP1 POP JUMP JUMPDEST PUSH32 0x5573657220616C72656164792072656769737465726564000000000000000000 PUSH1 0x0 DUP3 ADD MSTORE POP JUMP JUMPDEST PUSH1 0x0 PUSH2 0x42A9 PUSH1 0x17 DUP4 PUSH2 0x2D54 JUMP JUMPDEST SWAP2 POP PUSH2 0x42B4 DUP3 PUSH2 0x4273 JUMP JUMPDEST PUSH1 0x20 DUP3 ADD SWAP1 POP SWAP2 SWAP1 POP JUMP JUMPDEST PUSH1 0x0 PUSH1 0x20 DUP3 ADD SWAP1 POP DUP2 DUP2 SUB PUSH1 0x0 DUP4 ADD MSTORE PUSH2 0x42D8 DUP2 PUSH2 0x429C JUMP JUMPDEST SWAP1 POP SWAP2 SWAP1 POP JUMP JUMPDEST PUSH32 0x53656C6C657220616C7265616479207265676973746572656400000000000000 PUSH1 0x0 DUP3 ADD MSTORE POP JUMP JUMPDEST PUSH1 0x0 PUSH2 0x4315 PUSH1 0x19 DUP4 PUSH2 0x2D54 JUMP JUMPDEST SWAP2 POP PUSH2 0x4320 DUP3 PUSH2 0x42DF JUMP JUMPDEST PUSH1 0x20 DUP3 ADD SWAP1 POP SWAP2 SWAP1 POP JUMP JUMPDEST PUSH1 0x0 PUSH1 0x20 DUP3 ADD SWAP1 POP DUP2 DUP2 SUB PUSH1 0x0 DUP4 ADD MSTORE PUSH2 0x4344 DUP2 PUSH2 0x4308 JUMP JUMPDEST SWAP1 POP SWAP2 SWAP1 POP JUMP JUMPDEST PUSH1 0x0 PUSH2 0x4356 DUP3 PUSH2 0x2DFD JUMP JUMPDEST SWAP2 POP PUSH2 0x4361 DUP4 PUSH2 0x2DFD JUMP JUMPDEST SWAP3 POP DUP3 DUP3 ADD SWAP1 POP DUP1 DUP3 GT ISZERO PUSH2 0x4379 JUMPI PUSH2 0x4378 PUSH2 0x3C80 JUMP JUMPDEST JUMPDEST SWAP3 SWAP2 POP POP JUMP JUMPDEST PUSH1 0x0 DUP2 MLOAD SWAP1 POP SWAP2 SWAP1 POP JUMP JUMPDEST PUSH1 0x0 DUP3 DUP3 MSTORE PUSH1 0x20 DUP3 ADD SWAP1 POP SWAP3 SWAP2 POP POP JUMP JUMPDEST PUSH1 0x0 DUP2 SWAP1 POP PUSH1 0x20 DUP3 ADD SWAP1 POP SWAP2 SWAP1 POP JUMP JUMPDEST PUSH1 0x0 PUSH2 0x43B7 DUP4 DUP4 PUSH2 0x2ED8 JUMP JUMPDEST PUSH1 0x20 DUP4 ADD SWAP1 POP SWAP3 SWAP2 POP POP JUMP JUMPDEST PUSH1 0x0 PUSH1 0x20 DUP3 ADD SWAP1 POP SWAP2 SWAP1 POP JUMP JUMPDEST PUSH1 0x0 PUSH2 0x43DB DUP3 PUSH2 0x437F JUMP JUMPDEST PUSH2 0x43E5 DUP2 DUP6 PUSH2 0x438A JUMP JUMPDEST SWAP4 POP PUSH2 0x43F0 DUP4 PUSH2 0x439B JUMP JUMPDEST DUP1 PUSH1 0x0 JUMPDEST DUP4 DUP2 LT ISZERO PUSH2 0x4421 JUMPI DUP2 MLOAD PUSH2 0x4408 DUP9 DUP3 PUSH2 0x43AB JUMP JUMPDEST SWAP8 POP PUSH2 0x4413 DUP4 PUSH2 0x43C3 JUMP JUMPDEST SWAP3 POP POP PUSH1 0x1 DUP2 ADD SWAP1 POP PUSH2 0x43F4 JUMP JUMPDEST POP DUP6 SWAP4 POP POP POP POP SWAP3 SWAP2 POP POP JUMP JUMPDEST PUSH1 0x0 PUSH1 0x20 DUP3 ADD SWAP1 POP DUP2 DUP2 SUB PUSH1 0x0 DUP4 ADD MSTORE PUSH2 0x4448 DUP2 DUP5 PUSH2 0x43D0 JUMP JUMPDEST SWAP1 POP SWAP3 SWAP2 POP POP JUMP JUMPDEST PUSH32 0x4F6E6C792073656C6C6572732063616E2063616C6C20746869732066756E6374 PUSH1 0x0 DUP3 ADD MSTORE PUSH32 0x696F6E0000000000000000000000000000000000000000000000000000000000 PUSH1 0x20 DUP3 ADD MSTORE POP JUMP JUMPDEST PUSH1 0x0 PUSH2 0x44AC PUSH1 0x23 DUP4 PUSH2 0x2D54 JUMP JUMPDEST SWAP2 POP PUSH2 0x44B7 DUP3 PUSH2 0x4450 JUMP JUMPDEST PUSH1 0x40 DUP3 ADD SWAP1 POP SWAP2 SWAP1 POP JUMP JUMPDEST PUSH1 0x0 PUSH1 0x20 DUP3 ADD SWAP1 POP DUP2 DUP2 SUB PUSH1 0x0 DUP4 ADD MSTORE PUSH2 0x44DB DUP2 PUSH2 0x449F JUMP JUMPDEST SWAP1 POP SWAP2 SWAP1 POP JUMP JUMPDEST PUSH1 0x0 DUP2 SWAP1 POP DUP2 PUSH1 0x0 MSTORE PUSH1 0x20 PUSH1 0x0 KECCAK256 SWAP1 POP SWAP2 SWAP1 POP JUMP JUMPDEST PUSH1 0x0 PUSH1 0x20 PUSH1 0x1F DUP4 ADD DIV SWAP1 POP SWAP2 SWAP1 POP JUMP JUMPDEST PUSH1 0x0 DUP3 DUP3 SHL SWAP1 POP SWAP3 SWAP2 POP POP JUMP JUMPDEST PUSH1 0x0 PUSH1 0x8 DUP4 MUL PUSH2 0x4544 PUSH32 0xFFFFFFFFFFFFFFFFFFFFFFFFFFFFFFFFFFFFFFFFFFFFFFFFFFFFFFFFFFFFFFFF DUP3 PUSH2 0x4507 JUMP JUMPDEST PUSH2 0x454E DUP7 DUP4 PUSH2 0x4507 JUMP JUMPDEST SWAP6 POP DUP1 NOT DUP5 AND SWAP4 POP DUP1 DUP7 AND DUP5 OR SWAP3 POP POP POP SWAP4 SWAP3 POP POP POP JUMP JUMPDEST PUSH1 0x0 PUSH2 0x4581 PUSH2 0x457C PUSH2 0x4577 DUP5 PUSH2 0x2DFD JUMP JUMPDEST PUSH2 0x36D8 JUMP JUMPDEST PUSH2 0x2DFD JUMP JUMPDEST SWAP1 POP SWAP2 SWAP1 POP JUMP JUMPDEST PUSH1 0x0 DUP2 SWAP1 POP SWAP2 SWAP1 POP JUMP JUMPDEST PUSH2 0x459B DUP4 PUSH2 0x4566 JUMP JUMPDEST PUSH2 0x45AF PUSH2 0x45A7 DUP3 PUSH2 0x4588 JUMP JUMPDEST DUP5 DUP5 SLOAD PUSH2 0x4514 JUMP JUMPDEST DUP3 SSTORE POP POP POP POP JUMP JUMPDEST PUSH1 0x0 SWAP1 JUMP JUMPDEST PUSH2 0x45C4 PUSH2 0x45B7 JUMP JUMPDEST PUSH2 0x45CF DUP2 DUP5 DUP5 PUSH2 0x4592 JUMP JUMPDEST POP POP POP JUMP JUMPDEST JUMPDEST DUP2 DUP2 LT ISZERO PUSH2 0x45F3 JUMPI PUSH2 0x45E8 PUSH1 0x0 DUP3 PUSH2 0x45BC JUMP JUMPDEST PUSH1 0x1 DUP2 ADD SWAP1 POP PUSH2 0x45D5 JUMP JUMPDEST POP POP JUMP JUMPDEST PUSH1 0x1F DUP3 GT ISZERO PUSH2 0x4638 JUMPI PUSH2 0x4609 DUP2 PUSH2 0x44E2 JUMP JUMPDEST PUSH2 0x4612 DUP5 PUSH2 0x44F7 JUMP JUMPDEST DUP2 ADD PUSH1 0x20 DUP6 LT ISZERO PUSH2 0x4621 JUMPI DUP2 SWAP1 POP JUMPDEST PUSH2 0x4635 PUSH2 0x462D DUP6 PUSH2 0x44F7 JUMP JUMPDEST DUP4 ADD DUP3 PUSH2 0x45D4 JUMP JUMPDEST POP POP JUMPDEST POP POP POP JUMP JUMPDEST PUSH1 0x0 DUP3 DUP3 SHR SWAP1 POP SWAP3 SWAP2 POP POP JUMP JUMPDEST PUSH1 0x0 PUSH2 0x465B PUSH1 0x0 NOT DUP5 PUSH1 0x8 MUL PUSH2 0x463D JUMP JUMPDEST NOT DUP1 DUP4 AND SWAP2 POP POP SWAP3 SWAP2 POP POP JUMP JUMPDEST PUSH1 0x0 PUSH2 0x4674 DUP4 DUP4 PUSH2 0x464A JUMP JUMPDEST SWAP2 POP DUP3 PUSH1 0x2 MUL DUP3 OR SWAP1 POP SWAP3 SWAP2 POP POP JUMP JUMPDEST PUSH2 0x468D DUP3 PUSH2 0x2E16 JUMP JUMPDEST PUSH8 0xFFFFFFFFFFFFFFFF DUP2 GT ISZERO PUSH2 0x46A6 JUMPI PUSH2 0x46A5 PUSH2 0x3214 JUMP JUMPDEST JUMPDEST PUSH2 0x46B0 DUP3 SLOAD PUSH2 0x3D12 JUMP JUMPDEST PUSH2 0x46BB DUP3 DUP3 DUP6 PUSH2 0x45F7 JUMP JUMPDEST PUSH1 0x0 PUSH1 0x20 SWAP1 POP PUSH1 0x1F DUP4 GT PUSH1 0x1 DUP2 EQ PUSH2 0x46EE JUMPI PUSH1 0x0 DUP5 ISZERO PUSH2 0x46DC JUMPI DUP3 DUP8 ADD MLOAD SWAP1 POP JUMPDEST PUSH2 0x46E6 DUP6 DUP3 PUSH2 0x4668 JUMP JUMPDEST DUP7 SSTORE POP PUSH2 0x474E JUMP JUMPDEST PUSH1 0x1F NOT DUP5 AND PUSH2 0x46FC DUP7 PUSH2 0x44E2 JUMP JUMPDEST PUSH1 0x0 JUMPDEST DUP3 DUP2 LT ISZERO PUSH2 0x4724 JUMPI DUP5 DUP10 ADD MLOAD DUP3 SSTORE PUSH1 0x1 DUP3 ADD SWAP2 POP PUSH1 0x20 DUP6 ADD SWAP5 POP PUSH1 0x20 DUP2 ADD SWAP1 POP PUSH2 0x46FF JUMP JUMPDEST DUP7 DUP4 LT ISZERO PUSH2 0x4741 JUMPI DUP5 DUP10 ADD MLOAD PUSH2 0x473D PUSH1 0x1F DUP10 AND DUP3 PUSH2 0x464A JUMP JUMPDEST DUP4 SSTORE POP JUMPDEST PUSH1 0x1 PUSH1 0x2 DUP9 MUL ADD DUP9 SSTORE POP POP POP JUMPDEST POP POP POP POP POP POP JUMP JUMPDEST PUSH1 0x0 PUSH1 0x40 DUP3 ADD SWAP1 POP DUP2 DUP2 SUB PUSH1 0x0 DUP4 ADD MSTORE PUSH2 0x4770 DUP2 DUP6 PUSH2 0x3752 JUMP JUMPDEST SWAP1 POP PUSH2 0x477F PUSH1 0x20 DUP4 ADD DUP5 PUSH2 0x3072 JUMP JUMPDEST SWAP4 SWAP3 POP POP POP JUMP JUMPDEST PUSH32 0x416D6F756E742073686F756C642062652067726561746572207468616E203000 PUSH1 0x0 DUP3 ADD MSTORE POP JUMP JUMPDEST PUSH1 0x0 PUSH2 0x47BC PUSH1 0x1F DUP4 PUSH2 0x2D54 JUMP JUMPDEST SWAP2 POP PUSH2 0x47C7 DUP3 PUSH2 0x4786 JUMP JUMPDEST PUSH1 0x20 DUP3 ADD SWAP1 POP SWAP2 SWAP1 POP JUMP JUMPDEST PUSH1 0x0 PUSH1 0x20 DUP3 ADD SWAP1 POP DUP2 DUP2 SUB PUSH1 0x0 DUP4 ADD MSTORE PUSH2 0x47EB DUP2 PUSH2 0x47AF JUMP JUMPDEST SWAP1 POP SWAP2 SWAP1 POP JUMP INVALID LOG2 PUSH5 0x6970667358 0x22 SLT KECCAK256 0xC3 0xC4 PUSH8 0xFD63E04C82F3FA65 SLT BYTE 0x4F 0xDB LOG0 LOG4 SELFBALANCE SWAP10 0xAB BALANCE ADD 0xA5 0x2A 0xAC 0xE 0xA5 MUL 0xB0 ADDRESS ADD PUSH9 0x64736F6C6343000813 STOP CALLER "},"methodIdentifiers":{"COMMISSION()":"562df3d5","RATE()":"664e9704","addProduct(string,string,uint256,uint256,uint256,uint256,string)":"b656638b","admin()":"f851a440","checkUpkeep(bytes)":"6e04ff0d","exchangeLRTForMATIC(uint256)":"ffa8efc9","exchangeMATICForLRT()":"33ff7bbd","getAllProducts()":"02ee3a52","interval()":"947a36fb","lastTimestamp()":"19d8ac61","leaderboard(uint256)":"bf368399","loyaltyToken()":"770aa84d","nextOrderId()":"2a58b330","nextProductId()":"4de91a63","orders(uint256)":"a85c38ef","performUpkeep(bytes)":"4585e33b","products(uint256)":"7acc0b20","purchaseProducts(uint256[],uint256[],bool[],uint256,uint256)":"45a38293","registerSeller()":"52c9224c","registerUser()":"4d3820eb","sellers(address)":"6d47ab72","setLRTToken(address)":"42df2b1d","users(address)":"a87430ba","withdrawMATIC(uint256)":"816837e3","withdrawTokens(uint256)":"315a095d"}}}}}