{"contracts/Loyalty.sol":{"ECommerceLoyalty":{"abi":[{"inputs":[{"internalType":"address","name":"_loyaltyTokenAddress","type":"address"},{"internalType":"uint256","name":"_interval","type":"uint256"}],"stateMutability":"nonpayable","type":"constructor"},{"anonymous":false,"inputs":[{"indexed":true,"internalType":"address","name":"sellerAddress","type":"address"},{"indexed":false,"internalType":"uint256","name":"lrtAmount","type":"uint256"},{"indexed":false,"internalType":"uint256","name":"maticAmount","type":"uint256"}],"name":"LRTExchangedForMATIC","type":"event"},{"anonymous":false,"inputs":[{"indexed":true,"internalType":"address","name":"admin","type":"address"},{"indexed":false,"internalType":"address","name":"newLRTTokenAddress","type":"address"}],"name":"LRTTokenAddressUpdated","type":"event"},{"anonymous":false,"inputs":[{"indexed":true,"internalType":"address","name":"sellerAddress","type":"address"},{"indexed":false,"internalType":"uint256","name":"maticAmount","type":"uint256"},{"indexed":false,"internalType":"uint256","name":"lrtAmount","type":"uint256"}],"name":"MATICExchangedForLRT","type":"event"},{"anonymous":false,"inputs":[{"indexed":true,"internalType":"address","name":"admin","type":"address"},{"indexed":false,"internalType":"uint256","name":"amount","type":"uint256"}],"name":"MATICWithdrawn","type":"event"},{"anonymous":false,"inputs":[{"indexed":true,"internalType":"address","name":"buyerAddress","type":"address"},{"indexed":false,"internalType":"uint256","name":"pointsEarned","type":"uint256"}],"name":"PointsEarned","type":"event"},{"anonymous":false,"inputs":[{"indexed":true,"internalType":"uint256","name":"productId","type":"uint256"},{"indexed":true,"internalType":"address","name":"sellerAddress","type":"address"},{"indexed":false,"internalType":"string","name":"name","type":"string"},{"indexed":false,"internalType":"uint256","name":"price","type":"uint256"}],"name":"ProductAdded","type":"event"},{"anonymous":false,"inputs":[{"indexed":true,"internalType":"uint256","name":"orderId","type":"uint256"},{"indexed":true,"internalType":"address","name":"buyerAddress","type":"address"},{"indexed":true,"internalType":"uint256","name":"productId","type":"uint256"},{"indexed":false,"internalType":"uint256","name":"quantity","type":"uint256"}],"name":"ProductPurchased","type":"event"},{"anonymous":false,"inputs":[{"indexed":true,"internalType":"address","name":"sellerAddress","type":"address"}],"name":"SellerRegistered","type":"event"},{"anonymous":false,"inputs":[{"indexed":true,"internalType":"address","name":"admin","type":"address"},{"indexed":false,"internalType":"uint256","name":"amount","type":"uint256"}],"name":"TokensWithdrawn","type":"event"},{"anonymous":false,"inputs":[{"indexed":true,"internalType":"address","name":"userAddress","type":"address"}],"name":"UserRegistered","type":"event"},{"stateMutability":"payable","type":"fallback"},{"inputs":[],"name":"COMMISSION","outputs":[{"internalType":"uint256","name":"","type":"uint256"}],"stateMutability":"view","type":"function"},{"inputs":[],"name":"RATE","outputs":[{"internalType":"uint256","name":"","type":"uint256"}],"stateMutability":"view","type":"function"},{"inputs":[],"name":"SELLER_CAP","outputs":[{"internalType":"uint256","name":"","type":"uint256"}],"stateMutability":"view","type":"function"},{"inputs":[{"internalType":"string","name":"name","type":"string"},{"internalType":"string","name":"_description","type":"string"},{"internalType":"uint256","name":"_quantity","type":"uint256"},{"internalType":"uint256","name":"_price","type":"uint256"},{"internalType":"uint256","name":"_rewardPoints","type":"uint256"},{"internalType":"uint256","name":"loyaltyTokensAccepted","type":"uint256"},{"internalType":"string","name":"_imageURI","type":"string"}],"name":"addProduct","outputs":[],"stateMutability":"nonpayable","type":"function"},{"inputs":[],"name":"admin","outputs":[{"internalType":"address","name":"","type":"address"}],"stateMutability":"view","type":"function"},{"inputs":[{"internalType":"bytes","name":"","type":"bytes"}],"name":"checkUpkeep","outputs":[{"internalType":"bool","name":"upkeepNeeded","type":"bool"},{"internalType":"bytes","name":"performData","type":"bytes"}],"stateMutability":"view","type":"function"},{"inputs":[{"internalType":"uint256","name":"lrtAmount","type":"uint256"}],"name":"exchangeLRTForMATIC","outputs":[],"stateMutability":"nonpayable","type":"function"},{"inputs":[],"name":"exchangeMATICForLRT","outputs":[],"stateMutability":"payable","type":"function"},{"inputs":[],"name":"getAllProducts","outputs":[{"components":[{"internalType":"uint256","name":"productId","type":"uint256"},{"internalType":"string","name":"name","type":"string"},{"internalType":"string","name":"description","type":"string"},{"internalType":"uint256","name":"quantity","type":"uint256"},{"internalType":"address","name":"sellerAddress","type":"address"},{"internalType":"uint256","name":"price","type":"uint256"},{"internalType":"uint256","name":"rewardPoints","type":"uint256"},{"internalType":"uint256","name":"loyaltyTokensAccepted","type":"uint256"},{"internalType":"string","name":"imageURI","type":"string"}],"internalType":"struct ECommerceLoyalty.Product[]","name":"","type":"tuple[]"}],"stateMutability":"view","type":"function"},{"inputs":[],"name":"getLeaderBoard","outputs":[{"internalType":"address[]","name":"","type":"address[]"}],"stateMutability":"view","type":"function"},{"inputs":[{"internalType":"address","name":"_add","type":"address"}],"name":"getUserOrders","outputs":[{"components":[{"internalType":"uint256","name":"productId","type":"uint256"},{"internalType":"string","name":"name","type":"string"},{"internalType":"string","name":"description","type":"string"},{"internalType":"uint256","name":"quantity","type":"uint256"},{"internalType":"address","name":"sellerAddress","type":"address"},{"internalType":"uint256","name":"price","type":"uint256"},{"internalType":"uint256","name":"rewardPoints","type":"uint256"},{"internalType":"uint256","name":"loyaltyTokensAccepted","type":"uint256"},{"internalType":"string","name":"imageURI","type":"string"}],"internalType":"struct ECommerceLoyalty.Product[]","name":"","type":"tuple[]"}],"stateMutability":"view","type":"function"},{"inputs":[],"name":"interval","outputs":[{"internalType":"uint256","name":"","type":"uint256"}],"stateMutability":"view","type":"function"},{"inputs":[{"internalType":"address","name":"to","type":"address"},{"internalType":"uint256","name":"amount","type":"uint256"}],"name":"issueTokens","outputs":[],"stateMutability":"nonpayable","type":"function"},{"inputs":[{"internalType":"address","name":"to","type":"address"},{"internalType":"uint256","name":"amount","type":"uint256"}],"name":"issueTokensBySeller","outputs":[],"stateMutability":"nonpayable","type":"function"},{"inputs":[{"internalType":"address","name":"","type":"address"}],"name":"lastIssuedMonth","outputs":[{"internalType":"uint256","name":"","type":"uint256"}],"stateMutability":"view","type":"function"},{"inputs":[],"name":"lastTimestamp","outputs":[{"internalType":"uint256","name":"","type":"uint256"}],"stateMutability":"view","type":"function"},{"inputs":[{"internalType":"uint256","name":"","type":"uint256"}],"name":"leaderboard","outputs":[{"internalType":"address","name":"","type":"address"}],"stateMutability":"view","type":"function"},{"inputs":[],"name":"loyaltyToken","outputs":[{"internalType":"contract IERC20","name":"","type":"address"}],"stateMutability":"view","type":"function"},{"inputs":[{"internalType":"address","name":"","type":"address"}],"name":"monthlyIssuedBySeller","outputs":[{"internalType":"uint256","name":"","type":"uint256"}],"stateMutability":"view","type":"function"},{"inputs":[],"name":"nextOrderId","outputs":[{"internalType":"uint256","name":"","type":"uint256"}],"stateMutability":"view","type":"function"},{"inputs":[],"name":"nextProductId","outputs":[{"internalType":"uint256","name":"","type":"uint256"}],"stateMutability":"view","type":"function"},{"inputs":[{"internalType":"uint256","name":"","type":"uint256"}],"name":"orders","outputs":[{"internalType":"uint256","name":"orderId","type":"uint256"},{"internalType":"address","name":"buyerAddress","type":"address"},{"internalType":"uint256","name":"productId","type":"uint256"},{"internalType":"uint256","name":"quantity","type":"uint256"}],"stateMutability":"view","type":"function"},{"inputs":[{"internalType":"bytes","name":"performData","type":"bytes"}],"name":"performUpkeep","outputs":[],"stateMutability":"nonpayable","type":"function"},{"inputs":[{"internalType":"uint256","name":"","type":"uint256"}],"name":"products","outputs":[{"internalType":"uint256","name":"productId","type":"uint256"},{"internalType":"string","name":"name","type":"string"},{"internalType":"string","name":"description","type":"string"},{"internalType":"uint256","name":"quantity","type":"uint256"},{"internalType":"address","name":"sellerAddress","type":"address"},{"internalType":"uint256","name":"price","type":"uint256"},{"internalType":"uint256","name":"rewardPoints","type":"uint256"},{"internalType":"uint256","name":"loyaltyTokensAccepted","type":"uint256"},{"internalType":"string","name":"imageURI","type":"string"}],"stateMutability":"view","type":"function"},{"inputs":[{"internalType":"uint256[]","name":"_productIds","type":"uint256[]"},{"internalType":"uint256[]","name":"_quantities","type":"uint256[]"},{"internalType":"bool[]","name":"_fullPaymentInMatic","type":"bool[]"},{"internalType":"uint256","name":"totalCost","type":"uint256"},{"internalType":"uint256","name":"totalLoyaltyTokensUsed","type":"uint256"}],"name":"purchaseProducts","outputs":[],"stateMutability":"payable","type":"function"},{"inputs":[],"name":"registerSeller","outputs":[],"stateMutability":"nonpayable","type":"function"},{"inputs":[],"name":"registerUser","outputs":[],"stateMutability":"nonpayable","type":"function"},{"inputs":[{"internalType":"address","name":"","type":"address"}],"name":"sellers","outputs":[{"internalType":"address","name":"sellerAddress","type":"address"}],"stateMutability":"view","type":"function"},{"inputs":[{"internalType":"address","name":"_lrtToken","type":"address"}],"name":"setLRTToken","outputs":[],"stateMutability":"nonpayable","type":"function"},{"inputs":[{"internalType":"address","name":"","type":"address"}],"name":"users","outputs":[{"internalType":"address","name":"userAddress","type":"address"},{"internalType":"uint256","name":"loyaltyPoints","type":"uint256"},{"internalType":"uint256","name":"points","type":"uint256"}],"stateMutability":"view","type":"function"},{"inputs":[{"internalType":"uint256","name":"amount","type":"uint256"}],"name":"withdrawMATIC","outputs":[],"stateMutability":"nonpayable","type":"function"},{"inputs":[{"internalType":"uint256","name":"amount","type":"uint256"}],"name":"withdrawTokens","outputs":[],"stateMutability":"nonpayable","type":"function"},{"stateMutability":"payable","type":"receive"}],"evm":{"bytecode":{"linkReferences":{},"object":"60a0604052600160085560016009553480156200001b57600080fd5b50604051620059073803806200590783398181016040528101906200004191906200017e565b336000806101000a81548173ffffffffffffffffffffffffffffffffffffffff021916908373ffffffffffffffffffffffffffffffffffffffff16021790555081600160006101000a81548173ffffffffffffffffffffffffffffffffffffffff021916908373ffffffffffffffffffffffffffffffffffffffff1602179055508060808181525050426002819055505050620001c5565b600080fd5b600073ffffffffffffffffffffffffffffffffffffffff82169050919050565b60006200010b82620000de565b9050919050565b6200011d81620000fe565b81146200012957600080fd5b50565b6000815190506200013d8162000112565b92915050565b6000819050919050565b620001588162000143565b81146200016457600080fd5b50565b60008151905062000178816200014d565b92915050565b60008060408385031215620001985762000197620000d9565b5b6000620001a8858286016200012c565b9250506020620001bb8582860162000167565b9150509250929050565b60805161571f620001e8600039600081816125cc0152612dd7015261571f6000f3fe6080604052600436106101e75760003560e01c80636e04ff0d11610102578063bf36839911610095578063f6356b3011610064578063f6356b3014610731578063f851a4401461075a578063fddbe9a814610785578063ffa8efc9146107b0576101f6565b8063bf3683991461064f578063c29d72bc1461068c578063c2bd67e2146106b7578063d365cf6b146106f4576101f6565b8063947a36fb116100d1578063947a36fb1461057c578063a85c38ef146105a7578063a87430ba146105e7578063b656638b14610626576101f6565b80636e04ff0d146104a5578063770aa84d146104e35780637acc0b201461050e578063816837e314610553576101f6565b8063475a9fa91161017a578063562df3d511610149578063562df3d5146103d557806363c69f0814610400578063664e97041461043d5780636d47ab7214610468576101f6565b8063475a9fa9146103535780634d3820eb1461037c5780634de91a631461039357806352c9224c146103be576101f6565b806333ff7bbd116101b657806333ff7bbd146102db57806342df2b1d146102e55780634585e33b1461030e57806345a3829314610337576101f6565b806302ee3a521461023157806319d8ac611461025c5780632a58b33014610287578063315a095d146102b2576101f6565b366101f6576101f46107d9565b005b6040517f08c379a000000000000000000000000000000000000000000000000000000000815260040161022890613b24565b60405180910390fd5b34801561023d57600080fd5b50610246610a4b565b6040516102539190613dc3565b60405180910390f35b34801561026857600080fd5b50610271610d66565b60405161027e9190613df4565b60405180910390f35b34801561029357600080fd5b5061029c610d6c565b6040516102a99190613df4565b60405180910390f35b3480156102be57600080fd5b506102d960048036038101906102d49190613e4f565b610d72565b005b6102e36107d9565b005b3480156102f157600080fd5b5061030c60048036038101906103079190613ea8565b610f12565b005b34801561031a57600080fd5b5061033560048036038101906103309190613f3a565b611032565b005b610351600480360381019061034c91906141c0565b6110c6565b005b34801561035f57600080fd5b5061037a6004803603810190610375919061428f565b611ad5565b005b34801561038857600080fd5b50610391611ce6565b005b34801561039f57600080fd5b506103a8611f38565b6040516103b59190613df4565b60405180910390f35b3480156103ca57600080fd5b506103d3611f3e565b005b3480156103e157600080fd5b506103ea61216e565b6040516103f79190613df4565b60405180910390f35b34801561040c57600080fd5b5061042760048036038101906104229190613ea8565b612173565b6040516104349190613dc3565b60405180910390f35b34801561044957600080fd5b5061045261257a565b60405161045f9190613df4565b60405180910390f35b34801561047457600080fd5b5061048f600480360381019061048a9190613ea8565b612586565b60405161049c91906142de565b60405180910390f35b3480156104b157600080fd5b506104cc60048036038101906104c791906143ae565b6125c4565b6040516104da92919061445b565b60405180910390f35b3480156104ef57600080fd5b506104f8612a63565b60405161050591906144ea565b60405180910390f35b34801561051a57600080fd5b5061053560048036038101906105309190613e4f565b612a89565b60405161054a9998979695949392919061453e565b60405180910390f35b34801561055f57600080fd5b5061057a60048036038101906105759190613e4f565b612c8f565b005b34801561058857600080fd5b50610591612dd5565b60405161059e9190613df4565b60405180910390f35b3480156105b357600080fd5b506105ce60048036038101906105c99190613e4f565b612df9565b6040516105de94939291906145e0565b60405180910390f35b3480156105f357600080fd5b5061060e60048036038101906106099190613ea8565b612e49565b60405161061d93929190614625565b60405180910390f35b34801561063257600080fd5b5061064d600480360381019061064891906146fd565b612e93565b005b34801561065b57600080fd5b5061067660048036038101906106719190613e4f565b61316f565b60405161068391906142de565b60405180910390f35b34801561069857600080fd5b506106a16131ae565b6040516106ae91906148a2565b60405180910390f35b3480156106c357600080fd5b506106de60048036038101906106d99190613ea8565b61323c565b6040516106eb9190613df4565b60405180910390f35b34801561070057600080fd5b5061071b60048036038101906107169190613ea8565b613254565b6040516107289190613df4565b60405180910390f35b34801561073d57600080fd5b506107586004803603810190610753919061428f565b61326c565b005b34801561076657600080fd5b5061076f61371f565b60405161077c91906142de565b60405180910390f35b34801561079157600080fd5b5061079a613743565b6040516107a79190613df4565b60405180910390f35b3480156107bc57600080fd5b506107d760048036038101906107d29190613e4f565b613751565b005b6000341161081c576040517f08c379a000000000000000000000000000000000000000000000000000000000815260040161081390614936565b60405180910390fd5b6000610839670de0b6b3a76400003461392f90919063ffffffff16565b905080600160009054906101000a900473ffffffffffffffffffffffffffffffffffffffff1673ffffffffffffffffffffffffffffffffffffffff166370a08231306040518263ffffffff1660e01b815260040161089791906142de565b602060405180830381865afa1580156108b4573d6000803e3d6000fd5b505050506040513d601f19601f820116820180604052508101906108d8919061496b565b1015610919576040517f08c379a0000000000000000000000000000000000000000000000000000000008152600401610910906149e4565b60405180910390fd5b600160009054906101000a900473ffffffffffffffffffffffffffffffffffffffff1673ffffffffffffffffffffffffffffffffffffffff1663a9059cbb33836040518363ffffffff1660e01b8152600401610976929190614a04565b6020604051808303816000875af1158015610995573d6000803e3d6000fd5b505050506040513d601f19601f820116820180604052508101906109b99190614a42565b6109f8576040517f08c379a00000000000000000000000000000000000000000000000000000000081526004016109ef90614abb565b60405180910390fd5b3373ffffffffffffffffffffffffffffffffffffffff167f95db8762f4600873df8fdbc44f0e34fa831e5cc7396f3dda3a5cd0825acd5bdb3483604051610a40929190614adb565b60405180910390a250565b606060006001600854610a5e9190614b33565b67ffffffffffffffff811115610a7757610a76613f87565b5b604051908082528060200260200182016040528015610ab057816020015b610a9d613971565b815260200190600190039081610a955790505b5090506000600190505b600854811015610d5e57600660008281526020019081526020016000206040518061012001604052908160008201548152602001600182018054610afd90614b96565b80601f0160208091040260200160405190810160405280929190818152602001828054610b2990614b96565b8015610b765780601f10610b4b57610100808354040283529160200191610b76565b820191906000526020600020905b815481529060010190602001808311610b5957829003601f168201915b50505050508152602001600282018054610b8f90614b96565b80601f0160208091040260200160405190810160405280929190818152602001828054610bbb90614b96565b8015610c085780601f10610bdd57610100808354040283529160200191610c08565b820191906000526020600020905b815481529060010190602001808311610beb57829003601f168201915b50505050508152602001600382015481526020016004820160009054906101000a900473ffffffffffffffffffffffffffffffffffffffff1673ffffffffffffffffffffffffffffffffffffffff1673ffffffffffffffffffffffffffffffffffffffff168152602001600582015481526020016006820154815260200160078201548152602001600882018054610c9f90614b96565b80601f0160208091040260200160405190810160405280929190818152602001828054610ccb90614b96565b8015610d185780601f10610ced57610100808354040283529160200191610d18565b820191906000526020600020905b815481529060010190602001808311610cfb57829003601f168201915b50505050508152505082600183610d2f9190614b33565b81518110610d4057610d3f614bc7565b5b60200260200101819052508080610d5690614bf6565b915050610aba565b508091505090565b60025481565b60095481565b60008054906101000a900473ffffffffffffffffffffffffffffffffffffffff1673ffffffffffffffffffffffffffffffffffffffff163373ffffffffffffffffffffffffffffffffffffffff1614610e00576040517f08c379a0000000000000000000000000000000000000000000000000000000008152600401610df790614cb0565b60405180910390fd5b600160009054906101000a900473ffffffffffffffffffffffffffffffffffffffff1673ffffffffffffffffffffffffffffffffffffffff1663a9059cbb60008054906101000a900473ffffffffffffffffffffffffffffffffffffffff16836040518363ffffffff1660e01b8152600401610e7d929190614a04565b6020604051808303816000875af1158015610e9c573d6000803e3d6000fd5b505050506040513d601f19601f82011682018060405250810190610ec09190614a42565b503373ffffffffffffffffffffffffffffffffffffffff167f6352c5382c4a4578e712449ca65e83cdb392d045dfcf1cad9615189db2da244b82604051610f079190613df4565b60405180910390a250565b60008054906101000a900473ffffffffffffffffffffffffffffffffffffffff1673ffffffffffffffffffffffffffffffffffffffff163373ffffffffffffffffffffffffffffffffffffffff1614610fa0576040517f08c379a0000000000000000000000000000000000000000000000000000000008152600401610f9790614cb0565b60405180910390fd5b80600160006101000a81548173ffffffffffffffffffffffffffffffffffffffff021916908373ffffffffffffffffffffffffffffffffffffffff1602179055503373ffffffffffffffffffffffffffffffffffffffff167f6eca818bb499e114c9a2ead8c104a976418f0ca9c27fd7ead167e9125e613d458260405161102791906142de565b60405180910390a250565b600061104c604051806020016040528060008152506125c4565b5090508061108f576040517f08c379a000000000000000000000000000000000000000000000000000000000815260040161108690614d1c565b60405180910390fd5b600083838101906110a09190614dff565b905080600390805190602001906110b89291906139d3565b504260028190555050505050565b835185511461110a576040517f08c379a000000000000000000000000000000000000000000000000000000000815260040161110190614eba565b60405180910390fd5b6000606460058461111b9190614eda565b6111259190614f4b565b9050600082846111359190614b33565b90508034101561117a576040517f08c379a000000000000000000000000000000000000000000000000000000000815260040161117190614fc8565b60405180910390fd5b3073ffffffffffffffffffffffffffffffffffffffff166108fc839081150290604051600060405180830381858888f193505050501580156111c0573d6000803e3d6000fd5b5060005b8751811015611acb576000600660008a84815181106111e6576111e5614bc7565b5b60200260200101518152602001908152602001600020604051806101200160405290816000820154815260200160018201805461122290614b96565b80601f016020809104026020016040519081016040528092919081815260200182805461124e90614b96565b801561129b5780601f106112705761010080835404028352916020019161129b565b820191906000526020600020905b81548152906001019060200180831161127e57829003601f168201915b505050505081526020016002820180546112b490614b96565b80601f01602080910402602001604051908101604052809291908181526020018280546112e090614b96565b801561132d5780601f106113025761010080835404028352916020019161132d565b820191906000526020600020905b81548152906001019060200180831161131057829003601f168201915b50505050508152602001600382015481526020016004820160009054906101000a900473ffffffffffffffffffffffffffffffffffffffff1673ffffffffffffffffffffffffffffffffffffffff1673ffffffffffffffffffffffffffffffffffffffff1681526020016005820154815260200160068201548152602001600782015481526020016008820180546113c490614b96565b80601f01602080910402602001604051908101604052809291908181526020018280546113f090614b96565b801561143d5780601f106114125761010080835404028352916020019161143d565b820191906000526020600020905b81548152906001019060200180831161142057829003601f168201915b5050505050815250509050600088838151811061145d5761145c614bc7565b5b60200260200101518260a001516114749190614eda565b90506000600a826114859190614f4b565b90506114dc81600460003373ffffffffffffffffffffffffffffffffffffffff1673ffffffffffffffffffffffffffffffffffffffff1681526020019081526020016000206002015461394590919063ffffffff16565b600460003373ffffffffffffffffffffffffffffffffffffffff1673ffffffffffffffffffffffffffffffffffffffff168152602001908152602001600020600201819055503373ffffffffffffffffffffffffffffffffffffffff167f2c4c0dc427a50c4a69d2fc184c47a311acf950d8d2f289fbaee64e83e9b28967826040516115689190613df4565b60405180910390a288848151811061158357611582614bc7565b5b60200260200101511561171157826080015173ffffffffffffffffffffffffffffffffffffffff166108fc60646005856115bd9190614eda565b6115c79190614f4b565b846115d29190614b33565b9081150290604051600060405180830381858888f193505050501580156115fd573d6000803e3d6000fd5b50600160009054906101000a900473ffffffffffffffffffffffffffffffffffffffff1673ffffffffffffffffffffffffffffffffffffffff166323b872dd8460800151338d888151811061165557611654614bc7565b5b60200260200101518760c0015161166c9190614eda565b6040518463ffffffff1660e01b815260040161168a93929190614fe8565b6020604051808303816000875af11580156116a9573d6000803e3d6000fd5b505050506040513d601f19601f820116820180604052508101906116cd9190614a42565b61170c576040517f08c379a00000000000000000000000000000000000000000000000000000000081526004016117039061506b565b60405180910390fd5b6118c2565b826080015173ffffffffffffffffffffffffffffffffffffffff166108fc606460058561173e9190614eda565b6117489190614f4b565b8c878151811061175b5761175a614bc7565b5b60200260200101518660e001516117729190614eda565b8561177d9190614b33565b6117879190614b33565b9081150290604051600060405180830381858888f193505050501580156117b2573d6000803e3d6000fd5b50600160009054906101000a900473ffffffffffffffffffffffffffffffffffffffff1673ffffffffffffffffffffffffffffffffffffffff166323b872dd3385608001518d888151811061180a57611809614bc7565b5b60200260200101518760e001516118219190614eda565b6040518463ffffffff1660e01b815260040161183f93929190614fe8565b6020604051808303816000875af115801561185e573d6000803e3d6000fd5b505050506040513d601f19601f820116820180604052508101906118829190614a42565b6118c1576040517f08c379a00000000000000000000000000000000000000000000000000000000081526004016118b8906150d7565b60405180910390fd5b5b604051806080016040528060095481526020013373ffffffffffffffffffffffffffffffffffffffff1681526020018c868151811061190457611903614bc7565b5b602002602001015181526020018b868151811061192457611923614bc7565b5b60200260200101518152506007600060095481526020019081526020016000206000820151816000015560208201518160010160006101000a81548173ffffffffffffffffffffffffffffffffffffffff021916908373ffffffffffffffffffffffffffffffffffffffff1602179055506040820151816002015560608201518160030155905050600460003373ffffffffffffffffffffffffffffffffffffffff1673ffffffffffffffffffffffffffffffffffffffff16815260200190815260200160002060030160095490806001815401808255809150506001900390600052602060002001600090919091909150558a8481518110611a2a57611a29614bc7565b5b60200260200101513373ffffffffffffffffffffffffffffffffffffffff166009547f7d3c39a6cce20f6949eff0833a4d54fca734dc7c6027773d8885e7faeac98a958d8881518110611a8057611a7f614bc7565b5b6020026020010151604051611a959190613df4565b60405180910390a460096000815480929190611ab090614bf6565b91905055505050508080611ac390614bf6565b9150506111c4565b5050505050505050565b60008054906101000a900473ffffffffffffffffffffffffffffffffffffffff1673ffffffffffffffffffffffffffffffffffffffff163373ffffffffffffffffffffffffffffffffffffffff1614611b63576040517f08c379a0000000000000000000000000000000000000000000000000000000008152600401611b5a90614cb0565b60405180910390fd5b600160009054906101000a900473ffffffffffffffffffffffffffffffffffffffff1673ffffffffffffffffffffffffffffffffffffffff166370a08231306040518263ffffffff1660e01b8152600401611bbe91906142de565b602060405180830381865afa158015611bdb573d6000803e3d6000fd5b505050506040513d601f19601f82011682018060405250810190611bff919061496b565b811115611c41576040517f08c379a0000000000000000000000000000000000000000000000000000000008152600401611c3890615143565b60405180910390fd5b600160009054906101000a900473ffffffffffffffffffffffffffffffffffffffff1673ffffffffffffffffffffffffffffffffffffffff1663a9059cbb83836040518363ffffffff1660e01b8152600401611c9e929190614a04565b6020604051808303816000875af1158015611cbd573d6000803e3d6000fd5b505050506040513d601f19601f82011682018060405250810190611ce19190614a42565b505050565b600073ffffffffffffffffffffffffffffffffffffffff16600460003373ffffffffffffffffffffffffffffffffffffffff1673ffffffffffffffffffffffffffffffffffffffff16815260200190815260200160002060000160009054906101000a900473ffffffffffffffffffffffffffffffffffffffff1673ffffffffffffffffffffffffffffffffffffffff1614611db7576040517f08c379a0000000000000000000000000000000000000000000000000000000008152600401611dae906151af565b60405180910390fd5b60405180608001604052803373ffffffffffffffffffffffffffffffffffffffff1681526020016000815260200160008152602001600067ffffffffffffffff811115611e0757611e06613f87565b5b604051908082528060200260200182016040528015611e355781602001602082028036833780820191505090505b50815250600460003373ffffffffffffffffffffffffffffffffffffffff1673ffffffffffffffffffffffffffffffffffffffff16815260200190815260200160002060008201518160000160006101000a81548173ffffffffffffffffffffffffffffffffffffffff021916908373ffffffffffffffffffffffffffffffffffffffff16021790555060208201518160010155604082015181600201556060820151816003019080519060200190611eef929190613a5d565b509050503373ffffffffffffffffffffffffffffffffffffffff167f54db7a5cb4735e1aac1f53db512d3390390bb6637bd30ad4bf9fc98667d9b9b960405160405180910390a2565b60085481565b600073ffffffffffffffffffffffffffffffffffffffff16600560003373ffffffffffffffffffffffffffffffffffffffff1673ffffffffffffffffffffffffffffffffffffffff16815260200190815260200160002060000160009054906101000a900473ffffffffffffffffffffffffffffffffffffffff1673ffffffffffffffffffffffffffffffffffffffff161461200f576040517f08c379a00000000000000000000000000000000000000000000000000000000081526004016120069061521b565b60405180910390fd5b60405180604001604052803373ffffffffffffffffffffffffffffffffffffffff168152602001600067ffffffffffffffff81111561205157612050613f87565b5b60405190808252806020026020018201604052801561207f5781602001602082028036833780820191505090505b50815250600560003373ffffffffffffffffffffffffffffffffffffffff1673ffffffffffffffffffffffffffffffffffffffff16815260200190815260200160002060008201518160000160006101000a81548173ffffffffffffffffffffffffffffffffffffffff021916908373ffffffffffffffffffffffffffffffffffffffff1602179055506020820151816001019080519060200190612125929190613a5d565b509050503373ffffffffffffffffffffffffffffffffffffffff167f4d97d287a8f631378031b05cb24c876085261ddaa7b8f584477370ef473fbb3d60405160405180910390a2565b600581565b60606000600460008473ffffffffffffffffffffffffffffffffffffffff1673ffffffffffffffffffffffffffffffffffffffff1681526020019081526020016000206003018054905067ffffffffffffffff8111156121d6576121d5613f87565b5b60405190808252806020026020018201604052801561220f57816020015b6121fc613971565b8152602001906001900390816121f45790505b50905060005b600460008573ffffffffffffffffffffffffffffffffffffffff1673ffffffffffffffffffffffffffffffffffffffff16815260200190815260200160002060030180549050811015612570576006600060076000600460008973ffffffffffffffffffffffffffffffffffffffff1673ffffffffffffffffffffffffffffffffffffffff16815260200190815260200160002060030185815481106122be576122bd614bc7565b5b90600052602060002001548152602001908152602001600020600201548152602001908152602001600020604051806101200160405290816000820154815260200160018201805461230f90614b96565b80601f016020809104026020016040519081016040528092919081815260200182805461233b90614b96565b80156123885780601f1061235d57610100808354040283529160200191612388565b820191906000526020600020905b81548152906001019060200180831161236b57829003601f168201915b505050505081526020016002820180546123a190614b96565b80601f01602080910402602001604051908101604052809291908181526020018280546123cd90614b96565b801561241a5780601f106123ef5761010080835404028352916020019161241a565b820191906000526020600020905b8154815290600101906020018083116123fd57829003601f168201915b50505050508152602001600382015481526020016004820160009054906101000a900473ffffffffffffffffffffffffffffffffffffffff1673ffffffffffffffffffffffffffffffffffffffff1673ffffffffffffffffffffffffffffffffffffffff1681526020016005820154815260200160068201548152602001600782015481526020016008820180546124b190614b96565b80601f01602080910402602001604051908101604052809291908181526020018280546124dd90614b96565b801561252a5780601f106124ff5761010080835404028352916020019161252a565b820191906000526020600020905b81548152906001019060200180831161250d57829003601f168201915b505050505081525050826001836125419190614b33565b8151811061255257612551614bc7565b5b6020026020010181905250808061256890614bf6565b915050612215565b5080915050919050565b670de0b6b3a764000081565b60056020528060005260406000206000915090508060000160009054906101000a900473ffffffffffffffffffffffffffffffffffffffff16905081565b6000606060007f0000000000000000000000000000000000000000000000000000000000000000600254426125f99190614b33565b1190506000606467ffffffffffffffff81111561261957612618613f87565b5b6040519080825280602002602001820160405280156126475781602001602082028036833780820191505090505b5090506000606467ffffffffffffffff81111561266757612666613f87565b5b6040519080825280602002602001820160405280156126955781602001602082028036833780820191505090505b50905060008060646009546126aa9190614b33565b116126b65760006126c6565b60646009546126c59190614b33565b5b905060008190505b60095481101561281f576007600082815260200190815260200160002060010160009054906101000a900473ffffffffffffffffffffffffffffffffffffffff168460018361271d9190614b33565b8151811061272e5761272d614bc7565b5b602002602001019073ffffffffffffffffffffffffffffffffffffffff16908173ffffffffffffffffffffffffffffffffffffffff1681525050600460006007600084815260200190815260200160002060010160009054906101000a900473ffffffffffffffffffffffffffffffffffffffff1673ffffffffffffffffffffffffffffffffffffffff1673ffffffffffffffffffffffffffffffffffffffff16815260200190815260200160002060020154836001836127ef9190614b33565b81518110612800576127ff614bc7565b5b602002602001018181525050808061281790614bf6565b9150506126ce565b5060005b8251811015612a345760005b6001845161283d9190614b33565b811015612a205783600182612852919061523b565b8151811061286357612862614bc7565b5b602002602001015184828151811061287e5761287d614bc7565b5b60200260200101511015612a0d5760008482815181106128a1576128a0614bc7565b5b60200260200101519050846001836128b9919061523b565b815181106128ca576128c9614bc7565b5b60200260200101518583815181106128e5576128e4614bc7565b5b6020026020010181815250508085600184612900919061523b565b8151811061291157612910614bc7565b5b602002602001018181525050600086838151811061293257612931614bc7565b5b602002602001015190508660018461294a919061523b565b8151811061295b5761295a614bc7565b5b602002602001015187848151811061297657612975614bc7565b5b602002602001019073ffffffffffffffffffffffffffffffffffffffff16908173ffffffffffffffffffffffffffffffffffffffff168152505080876001856129bf919061523b565b815181106129d0576129cf614bc7565b5b602002602001019073ffffffffffffffffffffffffffffffffffffffff16908173ffffffffffffffffffffffffffffffffffffffff168152505050505b8080612a1890614bf6565b91505061282f565b508080612a2c90614bf6565b915050612823565b5083955082604051602001612a4991906148a2565b604051602081830303815290604052945050505050915091565b600160009054906101000a900473ffffffffffffffffffffffffffffffffffffffff1681565b6006602052806000526040600020600091509050806000015490806001018054612ab290614b96565b80601f0160208091040260200160405190810160405280929190818152602001828054612ade90614b96565b8015612b2b5780601f10612b0057610100808354040283529160200191612b2b565b820191906000526020600020905b815481529060010190602001808311612b0e57829003601f168201915b505050505090806002018054612b4090614b96565b80601f0160208091040260200160405190810160405280929190818152602001828054612b6c90614b96565b8015612bb95780601f10612b8e57610100808354040283529160200191612bb9565b820191906000526020600020905b815481529060010190602001808311612b9c57829003601f168201915b5050505050908060030154908060040160009054906101000a900473ffffffffffffffffffffffffffffffffffffffff1690806005015490806006015490806007015490806008018054612c0c90614b96565b80601f0160208091040260200160405190810160405280929190818152602001828054612c3890614b96565b8015612c855780601f10612c5a57610100808354040283529160200191612c85565b820191906000526020600020905b815481529060010190602001808311612c6857829003601f168201915b5050505050905089565b60008054906101000a900473ffffffffffffffffffffffffffffffffffffffff1673ffffffffffffffffffffffffffffffffffffffff163373ffffffffffffffffffffffffffffffffffffffff1614612d1d576040517f08c379a0000000000000000000000000000000000000000000000000000000008152600401612d1490614cb0565b60405180910390fd5b60008054906101000a900473ffffffffffffffffffffffffffffffffffffffff1673ffffffffffffffffffffffffffffffffffffffff166108fc829081150290604051600060405180830381858888f19350505050158015612d83573d6000803e3d6000fd5b503373ffffffffffffffffffffffffffffffffffffffff167f6efac6899ee41c0fab9566f807fee81972320248574ef8adeac6599ea7eae24682604051612dca9190613df4565b60405180910390a250565b7f000000000000000000000000000000000000000000000000000000000000000081565b60076020528060005260406000206000915090508060000154908060010160009054906101000a900473ffffffffffffffffffffffffffffffffffffffff16908060020154908060030154905084565b60046020528060005260406000206000915090508060000160009054906101000a900473ffffffffffffffffffffffffffffffffffffffff16908060010154908060020154905083565b600073ffffffffffffffffffffffffffffffffffffffff16600560003373ffffffffffffffffffffffffffffffffffffffff1673ffffffffffffffffffffffffffffffffffffffff16815260200190815260200160002060000160009054906101000a900473ffffffffffffffffffffffffffffffffffffffff1673ffffffffffffffffffffffffffffffffffffffff1603612f64576040517f08c379a0000000000000000000000000000000000000000000000000000000008152600401612f5b906152e1565b60405180910390fd5b60405180610120016040528060085481526020018881526020018781526020018681526020013373ffffffffffffffffffffffffffffffffffffffff16815260200185815260200184815260200183815260200182815250600660006008548152602001908152602001600020600082015181600001556020820151816001019081612ff091906154a3565b50604082015181600201908161300691906154a3565b506060820151816003015560808201518160040160006101000a81548173ffffffffffffffffffffffffffffffffffffffff021916908373ffffffffffffffffffffffffffffffffffffffff16021790555060a0820151816005015560c0820151816006015560e0820151816007015561010082015181600801908161308c91906154a3565b50905050600560003373ffffffffffffffffffffffffffffffffffffffff1673ffffffffffffffffffffffffffffffffffffffff16815260200190815260200160002060010160085490806001815401808255809150506001900390600052602060002001600090919091909150553373ffffffffffffffffffffffffffffffffffffffff166008547fef311eec1d40202fee1909ab585df5e024df1930dc6bba97722d1e60e91c01f78987604051613146929190615575565b60405180910390a36008600081548092919061316190614bf6565b919050555050505050505050565b6003818154811061317f57600080fd5b906000526020600020016000915054906101000a900473ffffffffffffffffffffffffffffffffffffffff1681565b6060600380548060200260200160405190810160405280929190818152602001828054801561323257602002820191906000526020600020905b8160009054906101000a900473ffffffffffffffffffffffffffffffffffffffff1673ffffffffffffffffffffffffffffffffffffffff16815260200190600101908083116131e8575b5050505050905090565b600b6020528060005260406000206000915090505481565b600a6020528060005260406000206000915090505481565b600073ffffffffffffffffffffffffffffffffffffffff16600560003373ffffffffffffffffffffffffffffffffffffffff1673ffffffffffffffffffffffffffffffffffffffff16815260200190815260200160002060000160009054906101000a900473ffffffffffffffffffffffffffffffffffffffff1673ffffffffffffffffffffffffffffffffffffffff160361333d576040517f08c379a0000000000000000000000000000000000000000000000000000000008152600401613334906152e1565b60405180910390fd5b69010f0cf064dd5920000081111561338a576040517f08c379a0000000000000000000000000000000000000000000000000000000008152600401613381906155f1565b60405180910390fd5b62278d00600b60003373ffffffffffffffffffffffffffffffffffffffff1673ffffffffffffffffffffffffffffffffffffffff168152602001908152602001600020546133d8919061523b565b421115613469576000600a60003373ffffffffffffffffffffffffffffffffffffffff1673ffffffffffffffffffffffffffffffffffffffff1681526020019081526020016000208190555042600b60003373ffffffffffffffffffffffffffffffffffffffff1673ffffffffffffffffffffffffffffffffffffffff168152602001908152602001600020819055505b69010f0cf064dd592000006134c682600a60003373ffffffffffffffffffffffffffffffffffffffff1673ffffffffffffffffffffffffffffffffffffffff1681526020019081526020016000205461394590919063ffffffff16565b1115613507576040517f08c379a00000000000000000000000000000000000000000000000000000000081526004016134fe9061565d565b60405180910390fd5b600160009054906101000a900473ffffffffffffffffffffffffffffffffffffffff1673ffffffffffffffffffffffffffffffffffffffff166370a08231306040518263ffffffff1660e01b815260040161356291906142de565b602060405180830381865afa15801561357f573d6000803e3d6000fd5b505050506040513d601f19601f820116820180604052508101906135a3919061496b565b8111156135e5576040517f08c379a00000000000000000000000000000000000000000000000000000000081526004016135dc90615143565b60405180910390fd5b600160009054906101000a900473ffffffffffffffffffffffffffffffffffffffff1673ffffffffffffffffffffffffffffffffffffffff1663a9059cbb83836040518363ffffffff1660e01b8152600401613642929190614a04565b6020604051808303816000875af1158015613661573d6000803e3d6000fd5b505050506040513d601f19601f820116820180604052508101906136859190614a42565b506136d881600a60003373ffffffffffffffffffffffffffffffffffffffff1673ffffffffffffffffffffffffffffffffffffffff1681526020019081526020016000205461394590919063ffffffff16565b600a60003373ffffffffffffffffffffffffffffffffffffffff1673ffffffffffffffffffffffffffffffffffffffff168152602001908152602001600020819055505050565b60008054906101000a900473ffffffffffffffffffffffffffffffffffffffff1681565b69010f0cf064dd5920000081565b60008111613794576040517f08c379a000000000000000000000000000000000000000000000000000000000815260040161378b906156c9565b60405180910390fd5b60006137b1670de0b6b3a76400008361395b90919063ffffffff16565b9050600160009054906101000a900473ffffffffffffffffffffffffffffffffffffffff1673ffffffffffffffffffffffffffffffffffffffff166323b872dd3330856040518463ffffffff1660e01b815260040161381293929190614fe8565b6020604051808303816000875af1158015613831573d6000803e3d6000fd5b505050506040513d601f19601f820116820180604052508101906138559190614a42565b613894576040517f08c379a000000000000000000000000000000000000000000000000000000000815260040161388b90614abb565b60405180910390fd5b3373ffffffffffffffffffffffffffffffffffffffff166108fc829081150290604051600060405180830381858888f193505050501580156138da573d6000803e3d6000fd5b503373ffffffffffffffffffffffffffffffffffffffff167fae8bcd366b92d4b55d90c0ccbfd8a50a60bae24f201c5899a989e99a3d877b938383604051613923929190614adb565b60405180910390a25050565b6000818361393d9190614f4b565b905092915050565b60008183613953919061523b565b905092915050565b600081836139699190614eda565b905092915050565b60405180610120016040528060008152602001606081526020016060815260200160008152602001600073ffffffffffffffffffffffffffffffffffffffff168152602001600081526020016000815260200160008152602001606081525090565b828054828255906000526020600020908101928215613a4c579160200282015b82811115613a4b5782518260006101000a81548173ffffffffffffffffffffffffffffffffffffffff021916908373ffffffffffffffffffffffffffffffffffffffff160217905550916020019190600101906139f3565b5b509050613a599190613aaa565b5090565b828054828255906000526020600020908101928215613a99579160200282015b82811115613a98578251825591602001919060010190613a7d565b5b509050613aa69190613aaa565b5090565b5b80821115613ac3576000816000905550600101613aab565b5090565b600082825260208201905092915050565b7f4f7065726174696f6e206e6f7420737570706f72746564000000000000000000600082015250565b6000613b0e601783613ac7565b9150613b1982613ad8565b602082019050919050565b60006020820190508181036000830152613b3d81613b01565b9050919050565b600081519050919050565b600082825260208201905092915050565b6000819050602082019050919050565b6000819050919050565b613b8381613b70565b82525050565b600081519050919050565b600082825260208201905092915050565b60005b83811015613bc3578082015181840152602081019050613ba8565b60008484015250505050565b6000601f19601f8301169050919050565b6000613beb82613b89565b613bf58185613b94565b9350613c05818560208601613ba5565b613c0e81613bcf565b840191505092915050565b600073ffffffffffffffffffffffffffffffffffffffff82169050919050565b6000613c4482613c19565b9050919050565b613c5481613c39565b82525050565b600061012083016000830151613c736000860182613b7a565b5060208301518482036020860152613c8b8282613be0565b91505060408301518482036040860152613ca58282613be0565b9150506060830151613cba6060860182613b7a565b506080830151613ccd6080860182613c4b565b5060a0830151613ce060a0860182613b7a565b5060c0830151613cf360c0860182613b7a565b5060e0830151613d0660e0860182613b7a565b50610100830151848203610100860152613d208282613be0565b9150508091505092915050565b6000613d398383613c5a565b905092915050565b6000602082019050919050565b6000613d5982613b44565b613d638185613b4f565b935083602082028501613d7585613b60565b8060005b85811015613db15784840389528151613d928582613d2d565b9450613d9d83613d41565b925060208a01995050600181019050613d79565b50829750879550505050505092915050565b60006020820190508181036000830152613ddd8184613d4e565b905092915050565b613dee81613b70565b82525050565b6000602082019050613e096000830184613de5565b92915050565b6000604051905090565b600080fd5b600080fd5b613e2c81613b70565b8114613e3757600080fd5b50565b600081359050613e4981613e23565b92915050565b600060208284031215613e6557613e64613e19565b5b6000613e7384828501613e3a565b91505092915050565b613e8581613c39565b8114613e9057600080fd5b50565b600081359050613ea281613e7c565b92915050565b600060208284031215613ebe57613ebd613e19565b5b6000613ecc84828501613e93565b91505092915050565b600080fd5b600080fd5b600080fd5b60008083601f840112613efa57613ef9613ed5565b5b8235905067ffffffffffffffff811115613f1757613f16613eda565b5b602083019150836001820283011115613f3357613f32613edf565b5b9250929050565b60008060208385031215613f5157613f50613e19565b5b600083013567ffffffffffffffff811115613f6f57613f6e613e1e565b5b613f7b85828601613ee4565b92509250509250929050565b7f4e487b7100000000000000000000000000000000000000000000000000000000600052604160045260246000fd5b613fbf82613bcf565b810181811067ffffffffffffffff82111715613fde57613fdd613f87565b5b80604052505050565b6000613ff1613e0f565b9050613ffd8282613fb6565b919050565b600067ffffffffffffffff82111561401d5761401c613f87565b5b602082029050602081019050919050565b600061404161403c84614002565b613fe7565b9050808382526020820190506020840283018581111561406457614063613edf565b5b835b8181101561408d57806140798882613e3a565b845260208401935050602081019050614066565b5050509392505050565b600082601f8301126140ac576140ab613ed5565b5b81356140bc84826020860161402e565b91505092915050565b600067ffffffffffffffff8211156140e0576140df613f87565b5b602082029050602081019050919050565b60008115159050919050565b614106816140f1565b811461411157600080fd5b50565b600081359050614123816140fd565b92915050565b600061413c614137846140c5565b613fe7565b9050808382526020820190506020840283018581111561415f5761415e613edf565b5b835b8181101561418857806141748882614114565b845260208401935050602081019050614161565b5050509392505050565b600082601f8301126141a7576141a6613ed5565b5b81356141b7848260208601614129565b91505092915050565b600080600080600060a086880312156141dc576141db613e19565b5b600086013567ffffffffffffffff8111156141fa576141f9613e1e565b5b61420688828901614097565b955050602086013567ffffffffffffffff81111561422757614226613e1e565b5b61423388828901614097565b945050604086013567ffffffffffffffff81111561425457614253613e1e565b5b61426088828901614192565b935050606061427188828901613e3a565b925050608061428288828901613e3a565b9150509295509295909350565b600080604083850312156142a6576142a5613e19565b5b60006142b485828601613e93565b92505060206142c585828601613e3a565b9150509250929050565b6142d881613c39565b82525050565b60006020820190506142f360008301846142cf565b92915050565b600080fd5b600067ffffffffffffffff82111561431957614318613f87565b5b61432282613bcf565b9050602081019050919050565b82818337600083830152505050565b600061435161434c846142fe565b613fe7565b90508281526020810184848401111561436d5761436c6142f9565b5b61437884828561432f565b509392505050565b600082601f83011261439557614394613ed5565b5b81356143a584826020860161433e565b91505092915050565b6000602082840312156143c4576143c3613e19565b5b600082013567ffffffffffffffff8111156143e2576143e1613e1e565b5b6143ee84828501614380565b91505092915050565b614400816140f1565b82525050565b600081519050919050565b600082825260208201905092915050565b600061442d82614406565b6144378185614411565b9350614447818560208601613ba5565b61445081613bcf565b840191505092915050565b600060408201905061447060008301856143f7565b81810360208301526144828184614422565b90509392505050565b6000819050919050565b60006144b06144ab6144a684613c19565b61448b565b613c19565b9050919050565b60006144c282614495565b9050919050565b60006144d4826144b7565b9050919050565b6144e4816144c9565b82525050565b60006020820190506144ff60008301846144db565b92915050565b600061451082613b89565b61451a8185613ac7565b935061452a818560208601613ba5565b61453381613bcf565b840191505092915050565b600061012082019050614554600083018c613de5565b8181036020830152614566818b614505565b9050818103604083015261457a818a614505565b90506145896060830189613de5565b61459660808301886142cf565b6145a360a0830187613de5565b6145b060c0830186613de5565b6145bd60e0830185613de5565b8181036101008301526145d08184614505565b90509a9950505050505050505050565b60006080820190506145f56000830187613de5565b61460260208301866142cf565b61460f6040830185613de5565b61461c6060830184613de5565b95945050505050565b600060608201905061463a60008301866142cf565b6146476020830185613de5565b6146546040830184613de5565b949350505050565b600067ffffffffffffffff82111561467757614676613f87565b5b61468082613bcf565b9050602081019050919050565b60006146a061469b8461465c565b613fe7565b9050828152602081018484840111156146bc576146bb6142f9565b5b6146c784828561432f565b509392505050565b600082601f8301126146e4576146e3613ed5565b5b81356146f484826020860161468d565b91505092915050565b600080600080600080600060e0888a03121561471c5761471b613e19565b5b600088013567ffffffffffffffff81111561473a57614739613e1e565b5b6147468a828b016146cf565b975050602088013567ffffffffffffffff81111561476757614766613e1e565b5b6147738a828b016146cf565b96505060406147848a828b01613e3a565b95505060606147958a828b01613e3a565b94505060806147a68a828b01613e3a565b93505060a06147b78a828b01613e3a565b92505060c088013567ffffffffffffffff8111156147d8576147d7613e1e565b5b6147e48a828b016146cf565b91505092959891949750929550565b600081519050919050565b600082825260208201905092915050565b6000819050602082019050919050565b600061482b8383613c4b565b60208301905092915050565b6000602082019050919050565b600061484f826147f3565b61485981856147fe565b93506148648361480f565b8060005b8381101561489557815161487c888261481f565b975061488783614837565b925050600181019050614868565b5085935050505092915050565b600060208201905081810360008301526148bc8184614844565b905092915050565b7f4d4154494320616d6f756e742073686f756c642062652067726561746572207460008201527f68616e2030000000000000000000000000000000000000000000000000000000602082015250565b6000614920602583613ac7565b915061492b826148c4565b604082019050919050565b6000602082019050818103600083015261494f81614913565b9050919050565b60008151905061496581613e23565b92915050565b60006020828403121561498157614980613e19565b5b600061498f84828501614956565b91505092915050565b7f4e6f7420656e6f756768204c525420696e20636f6e7472616374000000000000600082015250565b60006149ce601a83613ac7565b91506149d982614998565b602082019050919050565b600060208201905081810360008301526149fd816149c1565b9050919050565b6000604082019050614a1960008301856142cf565b614a266020830184613de5565b9392505050565b600081519050614a3c816140fd565b92915050565b600060208284031215614a5857614a57613e19565b5b6000614a6684828501614a2d565b91505092915050565b7f4c5254207472616e73666572206661696c656400000000000000000000000000600082015250565b6000614aa5601383613ac7565b9150614ab082614a6f565b602082019050919050565b60006020820190508181036000830152614ad481614a98565b9050919050565b6000604082019050614af06000830185613de5565b614afd6020830184613de5565b9392505050565b7f4e487b7100000000000000000000000000000000000000000000000000000000600052601160045260246000fd5b6000614b3e82613b70565b9150614b4983613b70565b9250828203905081811115614b6157614b60614b04565b5b92915050565b7f4e487b7100000000000000000000000000000000000000000000000000000000600052602260045260246000fd5b60006002820490506001821680614bae57607f821691505b602082108103614bc157614bc0614b67565b5b50919050565b7f4e487b7100000000000000000000000000000000000000000000000000000000600052603260045260246000fd5b6000614c0182613b70565b91507fffffffffffffffffffffffffffffffffffffffffffffffffffffffffffffffff8203614c3357614c32614b04565b5b600182019050919050565b7f4f6e6c792061646d696e2063616e2063616c6c20746869732066756e6374696f60008201527f6e00000000000000000000000000000000000000000000000000000000000000602082015250565b6000614c9a602183613ac7565b9150614ca582614c3e565b604082019050919050565b60006020820190508181036000830152614cc981614c8d565b9050919050565b7f55706b656570206e6f74206e6565646564000000000000000000000000000000600082015250565b6000614d06601183613ac7565b9150614d1182614cd0565b602082019050919050565b60006020820190508181036000830152614d3581614cf9565b9050919050565b600067ffffffffffffffff821115614d5757614d56613f87565b5b602082029050602081019050919050565b6000614d7b614d7684614d3c565b613fe7565b90508083825260208201905060208402830185811115614d9e57614d9d613edf565b5b835b81811015614dc75780614db38882613e93565b845260208401935050602081019050614da0565b5050509392505050565b600082601f830112614de657614de5613ed5565b5b8135614df6848260208601614d68565b91505092915050565b600060208284031215614e1557614e14613e19565b5b600082013567ffffffffffffffff811115614e3357614e32613e1e565b5b614e3f84828501614dd1565b91505092915050565b7f4d69736d6174636820696e2070726f647563742049447320616e64207175616e60008201527f746974696573206c656e67746800000000000000000000000000000000000000602082015250565b6000614ea4602d83613ac7565b9150614eaf82614e48565b604082019050919050565b60006020820190508181036000830152614ed381614e97565b9050919050565b6000614ee582613b70565b9150614ef083613b70565b9250828202614efe81613b70565b91508282048414831517614f1557614f14614b04565b5b5092915050565b7f4e487b7100000000000000000000000000000000000000000000000000000000600052601260045260246000fd5b6000614f5682613b70565b9150614f6183613b70565b925082614f7157614f70614f1c565b5b828204905092915050565b7f496e636f7272656374204d415449432073656e74000000000000000000000000600082015250565b6000614fb2601483613ac7565b9150614fbd82614f7c565b602082019050919050565b60006020820190508181036000830152614fe181614fa5565b9050919050565b6000606082019050614ffd60008301866142cf565b61500a60208301856142cf565b6150176040830184613de5565b949350505050565b7f52657761726420506f696e7473207472616e73666572206661696c6564000000600082015250565b6000615055601d83613ac7565b91506150608261501f565b602082019050919050565b6000602082019050818103600083015261508481615048565b9050919050565b7f4c6f79616c747920546f6b656e207472616e73666572206661696c6564000000600082015250565b60006150c1601d83613ac7565b91506150cc8261508b565b602082019050919050565b600060208201905081810360008301526150f0816150b4565b9050919050565b7f4e6f7420656e6f75676820746f6b656e7320696e207472656173757279000000600082015250565b600061512d601d83613ac7565b9150615138826150f7565b602082019050919050565b6000602082019050818103600083015261515c81615120565b9050919050565b7f5573657220616c72656164792072656769737465726564000000000000000000600082015250565b6000615199601783613ac7565b91506151a482615163565b602082019050919050565b600060208201905081810360008301526151c88161518c565b9050919050565b7f53656c6c657220616c7265616479207265676973746572656400000000000000600082015250565b6000615205601983613ac7565b9150615210826151cf565b602082019050919050565b60006020820190508181036000830152615234816151f8565b9050919050565b600061524682613b70565b915061525183613b70565b925082820190508082111561526957615268614b04565b5b92915050565b7f4f6e6c792073656c6c6572732063616e2063616c6c20746869732066756e637460008201527f696f6e0000000000000000000000000000000000000000000000000000000000602082015250565b60006152cb602383613ac7565b91506152d68261526f565b604082019050919050565b600060208201905081810360008301526152fa816152be565b9050919050565b60008190508160005260206000209050919050565b60006020601f8301049050919050565b600082821b905092915050565b6000600883026153637fffffffffffffffffffffffffffffffffffffffffffffffffffffffffffffffff82615326565b61536d8683615326565b95508019841693508086168417925050509392505050565b60006153a061539b61539684613b70565b61448b565b613b70565b9050919050565b6000819050919050565b6153ba83615385565b6153ce6153c6826153a7565b848454615333565b825550505050565b600090565b6153e36153d6565b6153ee8184846153b1565b505050565b5b81811015615412576154076000826153db565b6001810190506153f4565b5050565b601f8211156154575761542881615301565b61543184615316565b81016020851015615440578190505b61545461544c85615316565b8301826153f3565b50505b505050565b600082821c905092915050565b600061547a6000198460080261545c565b1980831691505092915050565b60006154938383615469565b9150826002028217905092915050565b6154ac82613b89565b67ffffffffffffffff8111156154c5576154c4613f87565b5b6154cf8254614b96565b6154da828285615416565b600060209050601f83116001811461550d57600084156154fb578287015190505b6155058582615487565b86555061556d565b601f19841661551b86615301565b60005b828110156155435784890151825560018201915060208501945060208101905061551e565b86831015615560578489015161555c601f891682615469565b8355505b6001600288020188555050505b505050505050565b6000604082019050818103600083015261558f8185614505565b905061559e6020830184613de5565b9392505050565b7f45786365656473206d6f6e74686c792063617000000000000000000000000000600082015250565b60006155db601383613ac7565b91506155e6826155a5565b602082019050919050565b6000602082019050818103600083015261560a816155ce565b9050919050565b7f45786365656473206d6f6e74686c792063617020666f722073656c6c65720000600082015250565b6000615647601e83613ac7565b915061565282615611565b602082019050919050565b600060208201905081810360008301526156768161563a565b9050919050565b7f416d6f756e742073686f756c642062652067726561746572207468616e203000600082015250565b60006156b3601f83613ac7565b91506156be8261567d565b602082019050919050565b600060208201905081810360008301526156e2816156a6565b905091905056fea2646970667358221220259ce29f48276fd715a193efd4ce792df6311575acf38a735e760a446e0ea99764736f6c63430008130033","opcodes":"PUSH1 0xA0 PUSH1 0x40 MSTORE PUSH1 0x1 PUSH1 0x8 SSTORE PUSH1 0x1 PUSH1 0x9 SSTORE CALLVALUE DUP1 ISZERO PUSH3 0x1B JUMPI PUSH1 0x0 DUP1 REVERT JUMPDEST POP PUSH1 0x40 MLOAD PUSH3 0x5907 CODESIZE SUB DUP1 PUSH3 0x5907 DUP4 CODECOPY DUP2 DUP2 ADD PUSH1 0x40 MSTORE DUP2 ADD SWAP1 PUSH3 0x41 SWAP2 SWAP1 PUSH3 0x17E JUMP JUMPDEST CALLER PUSH1 0x0 DUP1 PUSH2 0x100 EXP DUP2 SLOAD DUP2 PUSH20 0xFFFFFFFFFFFFFFFFFFFFFFFFFFFFFFFFFFFFFFFF MUL NOT AND SWAP1 DUP4 PUSH20 0xFFFFFFFFFFFFFFFFFFFFFFFFFFFFFFFFFFFFFFFF AND MUL OR SWAP1 SSTORE POP DUP2 PUSH1 0x1 PUSH1 0x0 PUSH2 0x100 EXP DUP2 SLOAD DUP2 PUSH20 0xFFFFFFFFFFFFFFFFFFFFFFFFFFFFFFFFFFFFFFFF MUL NOT AND SWAP1 DUP4 PUSH20 0xFFFFFFFFFFFFFFFFFFFFFFFFFFFFFFFFFFFFFFFF AND MUL OR SWAP1 SSTORE POP DUP1 PUSH1 0x80 DUP2 DUP2 MSTORE POP POP TIMESTAMP PUSH1 0x2 DUP2 SWAP1 SSTORE POP POP POP PUSH3 0x1C5 JUMP JUMPDEST PUSH1 0x0 DUP1 REVERT JUMPDEST PUSH1 0x0 PUSH20 0xFFFFFFFFFFFFFFFFFFFFFFFFFFFFFFFFFFFFFFFF DUP3 AND SWAP1 POP SWAP2 SWAP1 POP JUMP JUMPDEST PUSH1 0x0 PUSH3 0x10B DUP3 PUSH3 0xDE JUMP JUMPDEST SWAP1 POP SWAP2 SWAP1 POP JUMP JUMPDEST PUSH3 0x11D DUP2 PUSH3 0xFE JUMP JUMPDEST DUP2 EQ PUSH3 0x129 JUMPI PUSH1 0x0 DUP1 REVERT JUMPDEST POP JUMP JUMPDEST PUSH1 0x0 DUP2 MLOAD SWAP1 POP PUSH3 0x13D DUP2 PUSH3 0x112 JUMP JUMPDEST SWAP3 SWAP2 POP POP JUMP JUMPDEST PUSH1 0x0 DUP2 SWAP1 POP SWAP2 SWAP1 POP JUMP JUMPDEST PUSH3 0x158 DUP2 PUSH3 0x143 JUMP JUMPDEST DUP2 EQ PUSH3 0x164 JUMPI PUSH1 0x0 DUP1 REVERT JUMPDEST POP JUMP JUMPDEST PUSH1 0x0 DUP2 MLOAD SWAP1 POP PUSH3 0x178 DUP2 PUSH3 0x14D JUMP JUMPDEST SWAP3 SWAP2 POP POP JUMP JUMPDEST PUSH1 0x0 DUP1 PUSH1 0x40 DUP4 DUP6 SUB SLT ISZERO PUSH3 0x198 JUMPI PUSH3 0x197 PUSH3 0xD9 JUMP JUMPDEST JUMPDEST PUSH1 0x0 PUSH3 0x1A8 DUP6 DUP3 DUP7 ADD PUSH3 0x12C JUMP JUMPDEST SWAP3 POP POP PUSH1 0x20 PUSH3 0x1BB DUP6 DUP3 DUP7 ADD PUSH3 0x167 JUMP JUMPDEST SWAP2 POP POP SWAP3 POP SWAP3 SWAP1 POP JUMP JUMPDEST PUSH1 0x80 MLOAD PUSH2 0x571F PUSH3 0x1E8 PUSH1 0x0 CODECOPY PUSH1 0x0 DUP2 DUP2 PUSH2 0x25CC ADD MSTORE PUSH2 0x2DD7 ADD MSTORE PUSH2 0x571F PUSH1 0x0 RETURN INVALID PUSH1 0x80 PUSH1 0x40 MSTORE PUSH1 0x4 CALLDATASIZE LT PUSH2 0x1E7 JUMPI PUSH1 0x0 CALLDATALOAD PUSH1 0xE0 SHR DUP1 PUSH4 0x6E04FF0D GT PUSH2 0x102 JUMPI DUP1 PUSH4 0xBF368399 GT PUSH2 0x95 JUMPI DUP1 PUSH4 0xF6356B30 GT PUSH2 0x64 JUMPI DUP1 PUSH4 0xF6356B30 EQ PUSH2 0x731 JUMPI DUP1 PUSH4 0xF851A440 EQ PUSH2 0x75A JUMPI DUP1 PUSH4 0xFDDBE9A8 EQ PUSH2 0x785 JUMPI DUP1 PUSH4 0xFFA8EFC9 EQ PUSH2 0x7B0 JUMPI PUSH2 0x1F6 JUMP JUMPDEST DUP1 PUSH4 0xBF368399 EQ PUSH2 0x64F JUMPI DUP1 PUSH4 0xC29D72BC EQ PUSH2 0x68C JUMPI DUP1 PUSH4 0xC2BD67E2 EQ PUSH2 0x6B7 JUMPI DUP1 PUSH4 0xD365CF6B EQ PUSH2 0x6F4 JUMPI PUSH2 0x1F6 JUMP JUMPDEST DUP1 PUSH4 0x947A36FB GT PUSH2 0xD1 JUMPI DUP1 PUSH4 0x947A36FB EQ PUSH2 0x57C JUMPI DUP1 PUSH4 0xA85C38EF EQ PUSH2 0x5A7 JUMPI DUP1 PUSH4 0xA87430BA EQ PUSH2 0x5E7 JUMPI DUP1 PUSH4 0xB656638B EQ PUSH2 0x626 JUMPI PUSH2 0x1F6 JUMP JUMPDEST DUP1 PUSH4 0x6E04FF0D EQ PUSH2 0x4A5 JUMPI DUP1 PUSH4 0x770AA84D EQ PUSH2 0x4E3 JUMPI DUP1 PUSH4 0x7ACC0B20 EQ PUSH2 0x50E JUMPI DUP1 PUSH4 0x816837E3 EQ PUSH2 0x553 JUMPI PUSH2 0x1F6 JUMP JUMPDEST DUP1 PUSH4 0x475A9FA9 GT PUSH2 0x17A JUMPI DUP1 PUSH4 0x562DF3D5 GT PUSH2 0x149 JUMPI DUP1 PUSH4 0x562DF3D5 EQ PUSH2 0x3D5 JUMPI DUP1 PUSH4 0x63C69F08 EQ PUSH2 0x400 JUMPI DUP1 PUSH4 0x664E9704 EQ PUSH2 0x43D JUMPI DUP1 PUSH4 0x6D47AB72 EQ PUSH2 0x468 JUMPI PUSH2 0x1F6 JUMP JUMPDEST DUP1 PUSH4 0x475A9FA9 EQ PUSH2 0x353 JUMPI DUP1 PUSH4 0x4D3820EB EQ PUSH2 0x37C JUMPI DUP1 PUSH4 0x4DE91A63 EQ PUSH2 0x393 JUMPI DUP1 PUSH4 0x52C9224C EQ PUSH2 0x3BE JUMPI PUSH2 0x1F6 JUMP JUMPDEST DUP1 PUSH4 0x33FF7BBD GT PUSH2 0x1B6 JUMPI DUP1 PUSH4 0x33FF7BBD EQ PUSH2 0x2DB JUMPI DUP1 PUSH4 0x42DF2B1D EQ PUSH2 0x2E5 JUMPI DUP1 PUSH4 0x4585E33B EQ PUSH2 0x30E JUMPI DUP1 PUSH4 0x45A38293 EQ PUSH2 0x337 JUMPI PUSH2 0x1F6 JUMP JUMPDEST DUP1 PUSH4 0x2EE3A52 EQ PUSH2 0x231 JUMPI DUP1 PUSH4 0x19D8AC61 EQ PUSH2 0x25C JUMPI DUP1 PUSH4 0x2A58B330 EQ PUSH2 0x287 JUMPI DUP1 PUSH4 0x315A095D EQ PUSH2 0x2B2 JUMPI PUSH2 0x1F6 JUMP JUMPDEST CALLDATASIZE PUSH2 0x1F6 JUMPI PUSH2 0x1F4 PUSH2 0x7D9 JUMP JUMPDEST STOP JUMPDEST PUSH1 0x40 MLOAD PUSH32 0x8C379A000000000000000000000000000000000000000000000000000000000 DUP2 MSTORE PUSH1 0x4 ADD PUSH2 0x228 SWAP1 PUSH2 0x3B24 JUMP JUMPDEST PUSH1 0x40 MLOAD DUP1 SWAP2 SUB SWAP1 REVERT JUMPDEST CALLVALUE DUP1 ISZERO PUSH2 0x23D JUMPI PUSH1 0x0 DUP1 REVERT JUMPDEST POP PUSH2 0x246 PUSH2 0xA4B JUMP JUMPDEST PUSH1 0x40 MLOAD PUSH2 0x253 SWAP2 SWAP1 PUSH2 0x3DC3 JUMP JUMPDEST PUSH1 0x40 MLOAD DUP1 SWAP2 SUB SWAP1 RETURN JUMPDEST CALLVALUE DUP1 ISZERO PUSH2 0x268 JUMPI PUSH1 0x0 DUP1 REVERT JUMPDEST POP PUSH2 0x271 PUSH2 0xD66 JUMP JUMPDEST PUSH1 0x40 MLOAD PUSH2 0x27E SWAP2 SWAP1 PUSH2 0x3DF4 JUMP JUMPDEST PUSH1 0x40 MLOAD DUP1 SWAP2 SUB SWAP1 RETURN JUMPDEST CALLVALUE DUP1 ISZERO PUSH2 0x293 JUMPI PUSH1 0x0 DUP1 REVERT JUMPDEST POP PUSH2 0x29C PUSH2 0xD6C JUMP JUMPDEST PUSH1 0x40 MLOAD PUSH2 0x2A9 SWAP2 SWAP1 PUSH2 0x3DF4 JUMP JUMPDEST PUSH1 0x40 MLOAD DUP1 SWAP2 SUB SWAP1 RETURN JUMPDEST CALLVALUE DUP1 ISZERO PUSH2 0x2BE JUMPI PUSH1 0x0 DUP1 REVERT JUMPDEST POP PUSH2 0x2D9 PUSH1 0x4 DUP1 CALLDATASIZE SUB DUP2 ADD SWAP1 PUSH2 0x2D4 SWAP2 SWAP1 PUSH2 0x3E4F JUMP JUMPDEST PUSH2 0xD72 JUMP JUMPDEST STOP JUMPDEST PUSH2 0x2E3 PUSH2 0x7D9 JUMP JUMPDEST STOP JUMPDEST CALLVALUE DUP1 ISZERO PUSH2 0x2F1 JUMPI PUSH1 0x0 DUP1 REVERT JUMPDEST POP PUSH2 0x30C PUSH1 0x4 DUP1 CALLDATASIZE SUB DUP2 ADD SWAP1 PUSH2 0x307 SWAP2 SWAP1 PUSH2 0x3EA8 JUMP JUMPDEST PUSH2 0xF12 JUMP JUMPDEST STOP JUMPDEST CALLVALUE DUP1 ISZERO PUSH2 0x31A JUMPI PUSH1 0x0 DUP1 REVERT JUMPDEST POP PUSH2 0x335 PUSH1 0x4 DUP1 CALLDATASIZE SUB DUP2 ADD SWAP1 PUSH2 0x330 SWAP2 SWAP1 PUSH2 0x3F3A JUMP JUMPDEST PUSH2 0x1032 JUMP JUMPDEST STOP JUMPDEST PUSH2 0x351 PUSH1 0x4 DUP1 CALLDATASIZE SUB DUP2 ADD SWAP1 PUSH2 0x34C SWAP2 SWAP1 PUSH2 0x41C0 JUMP JUMPDEST PUSH2 0x10C6 JUMP JUMPDEST STOP JUMPDEST CALLVALUE DUP1 ISZERO PUSH2 0x35F JUMPI PUSH1 0x0 DUP1 REVERT JUMPDEST POP PUSH2 0x37A PUSH1 0x4 DUP1 CALLDATASIZE SUB DUP2 ADD SWAP1 PUSH2 0x375 SWAP2 SWAP1 PUSH2 0x428F JUMP JUMPDEST PUSH2 0x1AD5 JUMP JUMPDEST STOP JUMPDEST CALLVALUE DUP1 ISZERO PUSH2 0x388 JUMPI PUSH1 0x0 DUP1 REVERT JUMPDEST POP PUSH2 0x391 PUSH2 0x1CE6 JUMP JUMPDEST STOP JUMPDEST CALLVALUE DUP1 ISZERO PUSH2 0x39F JUMPI PUSH1 0x0 DUP1 REVERT JUMPDEST POP PUSH2 0x3A8 PUSH2 0x1F38 JUMP JUMPDEST PUSH1 0x40 MLOAD PUSH2 0x3B5 SWAP2 SWAP1 PUSH2 0x3DF4 JUMP JUMPDEST PUSH1 0x40 MLOAD DUP1 SWAP2 SUB SWAP1 RETURN JUMPDEST CALLVALUE DUP1 ISZERO PUSH2 0x3CA JUMPI PUSH1 0x0 DUP1 REVERT JUMPDEST POP PUSH2 0x3D3 PUSH2 0x1F3E JUMP JUMPDEST STOP JUMPDEST CALLVALUE DUP1 ISZERO PUSH2 0x3E1 JUMPI PUSH1 0x0 DUP1 REVERT JUMPDEST POP PUSH2 0x3EA PUSH2 0x216E JUMP JUMPDEST PUSH1 0x40 MLOAD PUSH2 0x3F7 SWAP2 SWAP1 PUSH2 0x3DF4 JUMP JUMPDEST PUSH1 0x40 MLOAD DUP1 SWAP2 SUB SWAP1 RETURN JUMPDEST CALLVALUE DUP1 ISZERO PUSH2 0x40C JUMPI PUSH1 0x0 DUP1 REVERT JUMPDEST POP PUSH2 0x427 PUSH1 0x4 DUP1 CALLDATASIZE SUB DUP2 ADD SWAP1 PUSH2 0x422 SWAP2 SWAP1 PUSH2 0x3EA8 JUMP JUMPDEST PUSH2 0x2173 JUMP JUMPDEST PUSH1 0x40 MLOAD PUSH2 0x434 SWAP2 SWAP1 PUSH2 0x3DC3 JUMP JUMPDEST PUSH1 0x40 MLOAD DUP1 SWAP2 SUB SWAP1 RETURN JUMPDEST CALLVALUE DUP1 ISZERO PUSH2 0x449 JUMPI PUSH1 0x0 DUP1 REVERT JUMPDEST POP PUSH2 0x452 PUSH2 0x257A JUMP JUMPDEST PUSH1 0x40 MLOAD PUSH2 0x45F SWAP2 SWAP1 PUSH2 0x3DF4 JUMP JUMPDEST PUSH1 0x40 MLOAD DUP1 SWAP2 SUB SWAP1 RETURN JUMPDEST CALLVALUE DUP1 ISZERO PUSH2 0x474 JUMPI PUSH1 0x0 DUP1 REVERT JUMPDEST POP PUSH2 0x48F PUSH1 0x4 DUP1 CALLDATASIZE SUB DUP2 ADD SWAP1 PUSH2 0x48A SWAP2 SWAP1 PUSH2 0x3EA8 JUMP JUMPDEST PUSH2 0x2586 JUMP JUMPDEST PUSH1 0x40 MLOAD PUSH2 0x49C SWAP2 SWAP1 PUSH2 0x42DE JUMP JUMPDEST PUSH1 0x40 MLOAD DUP1 SWAP2 SUB SWAP1 RETURN JUMPDEST CALLVALUE DUP1 ISZERO PUSH2 0x4B1 JUMPI PUSH1 0x0 DUP1 REVERT JUMPDEST POP PUSH2 0x4CC PUSH1 0x4 DUP1 CALLDATASIZE SUB DUP2 ADD SWAP1 PUSH2 0x4C7 SWAP2 SWAP1 PUSH2 0x43AE JUMP JUMPDEST PUSH2 0x25C4 JUMP JUMPDEST PUSH1 0x40 MLOAD PUSH2 0x4DA SWAP3 SWAP2 SWAP1 PUSH2 0x445B JUMP JUMPDEST PUSH1 0x40 MLOAD DUP1 SWAP2 SUB SWAP1 RETURN JUMPDEST CALLVALUE DUP1 ISZERO PUSH2 0x4EF JUMPI PUSH1 0x0 DUP1 REVERT JUMPDEST POP PUSH2 0x4F8 PUSH2 0x2A63 JUMP JUMPDEST PUSH1 0x40 MLOAD PUSH2 0x505 SWAP2 SWAP1 PUSH2 0x44EA JUMP JUMPDEST PUSH1 0x40 MLOAD DUP1 SWAP2 SUB SWAP1 RETURN JUMPDEST CALLVALUE DUP1 ISZERO PUSH2 0x51A JUMPI PUSH1 0x0 DUP1 REVERT JUMPDEST POP PUSH2 0x535 PUSH1 0x4 DUP1 CALLDATASIZE SUB DUP2 ADD SWAP1 PUSH2 0x530 SWAP2 SWAP1 PUSH2 0x3E4F JUMP JUMPDEST PUSH2 0x2A89 JUMP JUMPDEST PUSH1 0x40 MLOAD PUSH2 0x54A SWAP10 SWAP9 SWAP8 SWAP7 SWAP6 SWAP5 SWAP4 SWAP3 SWAP2 SWAP1 PUSH2 0x453E JUMP JUMPDEST PUSH1 0x40 MLOAD DUP1 SWAP2 SUB SWAP1 RETURN JUMPDEST CALLVALUE DUP1 ISZERO PUSH2 0x55F JUMPI PUSH1 0x0 DUP1 REVERT JUMPDEST POP PUSH2 0x57A PUSH1 0x4 DUP1 CALLDATASIZE SUB DUP2 ADD SWAP1 PUSH2 0x575 SWAP2 SWAP1 PUSH2 0x3E4F JUMP JUMPDEST PUSH2 0x2C8F JUMP JUMPDEST STOP JUMPDEST CALLVALUE DUP1 ISZERO PUSH2 0x588 JUMPI PUSH1 0x0 DUP1 REVERT JUMPDEST POP PUSH2 0x591 PUSH2 0x2DD5 JUMP JUMPDEST PUSH1 0x40 MLOAD PUSH2 0x59E SWAP2 SWAP1 PUSH2 0x3DF4 JUMP JUMPDEST PUSH1 0x40 MLOAD DUP1 SWAP2 SUB SWAP1 RETURN JUMPDEST CALLVALUE DUP1 ISZERO PUSH2 0x5B3 JUMPI PUSH1 0x0 DUP1 REVERT JUMPDEST POP PUSH2 0x5CE PUSH1 0x4 DUP1 CALLDATASIZE SUB DUP2 ADD SWAP1 PUSH2 0x5C9 SWAP2 SWAP1 PUSH2 0x3E4F JUMP JUMPDEST PUSH2 0x2DF9 JUMP JUMPDEST PUSH1 0x40 MLOAD PUSH2 0x5DE SWAP5 SWAP4 SWAP3 SWAP2 SWAP1 PUSH2 0x45E0 JUMP JUMPDEST PUSH1 0x40 MLOAD DUP1 SWAP2 SUB SWAP1 RETURN JUMPDEST CALLVALUE DUP1 ISZERO PUSH2 0x5F3 JUMPI PUSH1 0x0 DUP1 REVERT JUMPDEST POP PUSH2 0x60E PUSH1 0x4 DUP1 CALLDATASIZE SUB DUP2 ADD SWAP1 PUSH2 0x609 SWAP2 SWAP1 PUSH2 0x3EA8 JUMP JUMPDEST PUSH2 0x2E49 JUMP JUMPDEST PUSH1 0x40 MLOAD PUSH2 0x61D SWAP4 SWAP3 SWAP2 SWAP1 PUSH2 0x4625 JUMP JUMPDEST PUSH1 0x40 MLOAD DUP1 SWAP2 SUB SWAP1 RETURN JUMPDEST CALLVALUE DUP1 ISZERO PUSH2 0x632 JUMPI PUSH1 0x0 DUP1 REVERT JUMPDEST POP PUSH2 0x64D PUSH1 0x4 DUP1 CALLDATASIZE SUB DUP2 ADD SWAP1 PUSH2 0x648 SWAP2 SWAP1 PUSH2 0x46FD JUMP JUMPDEST PUSH2 0x2E93 JUMP JUMPDEST STOP JUMPDEST CALLVALUE DUP1 ISZERO PUSH2 0x65B JUMPI PUSH1 0x0 DUP1 REVERT JUMPDEST POP PUSH2 0x676 PUSH1 0x4 DUP1 CALLDATASIZE SUB DUP2 ADD SWAP1 PUSH2 0x671 SWAP2 SWAP1 PUSH2 0x3E4F JUMP JUMPDEST PUSH2 0x316F JUMP JUMPDEST PUSH1 0x40 MLOAD PUSH2 0x683 SWAP2 SWAP1 PUSH2 0x42DE JUMP JUMPDEST PUSH1 0x40 MLOAD DUP1 SWAP2 SUB SWAP1 RETURN JUMPDEST CALLVALUE DUP1 ISZERO PUSH2 0x698 JUMPI PUSH1 0x0 DUP1 REVERT JUMPDEST POP PUSH2 0x6A1 PUSH2 0x31AE JUMP JUMPDEST PUSH1 0x40 MLOAD PUSH2 0x6AE SWAP2 SWAP1 PUSH2 0x48A2 JUMP JUMPDEST PUSH1 0x40 MLOAD DUP1 SWAP2 SUB SWAP1 RETURN JUMPDEST CALLVALUE DUP1 ISZERO PUSH2 0x6C3 JUMPI PUSH1 0x0 DUP1 REVERT JUMPDEST POP PUSH2 0x6DE PUSH1 0x4 DUP1 CALLDATASIZE SUB DUP2 ADD SWAP1 PUSH2 0x6D9 SWAP2 SWAP1 PUSH2 0x3EA8 JUMP JUMPDEST PUSH2 0x323C JUMP JUMPDEST PUSH1 0x40 MLOAD PUSH2 0x6EB SWAP2 SWAP1 PUSH2 0x3DF4 JUMP JUMPDEST PUSH1 0x40 MLOAD DUP1 SWAP2 SUB SWAP1 RETURN JUMPDEST CALLVALUE DUP1 ISZERO PUSH2 0x700 JUMPI PUSH1 0x0 DUP1 REVERT JUMPDEST POP PUSH2 0x71B PUSH1 0x4 DUP1 CALLDATASIZE SUB DUP2 ADD SWAP1 PUSH2 0x716 SWAP2 SWAP1 PUSH2 0x3EA8 JUMP JUMPDEST PUSH2 0x3254 JUMP JUMPDEST PUSH1 0x40 MLOAD PUSH2 0x728 SWAP2 SWAP1 PUSH2 0x3DF4 JUMP JUMPDEST PUSH1 0x40 MLOAD DUP1 SWAP2 SUB SWAP1 RETURN JUMPDEST CALLVALUE DUP1 ISZERO PUSH2 0x73D JUMPI PUSH1 0x0 DUP1 REVERT JUMPDEST POP PUSH2 0x758 PUSH1 0x4 DUP1 CALLDATASIZE SUB DUP2 ADD SWAP1 PUSH2 0x753 SWAP2 SWAP1 PUSH2 0x428F JUMP JUMPDEST PUSH2 0x326C JUMP JUMPDEST STOP JUMPDEST CALLVALUE DUP1 ISZERO PUSH2 0x766 JUMPI PUSH1 0x0 DUP1 REVERT JUMPDEST POP PUSH2 0x76F PUSH2 0x371F JUMP JUMPDEST PUSH1 0x40 MLOAD PUSH2 0x77C SWAP2 SWAP1 PUSH2 0x42DE JUMP JUMPDEST PUSH1 0x40 MLOAD DUP1 SWAP2 SUB SWAP1 RETURN JUMPDEST CALLVALUE DUP1 ISZERO PUSH2 0x791 JUMPI PUSH1 0x0 DUP1 REVERT JUMPDEST POP PUSH2 0x79A PUSH2 0x3743 JUMP JUMPDEST PUSH1 0x40 MLOAD PUSH2 0x7A7 SWAP2 SWAP1 PUSH2 0x3DF4 JUMP JUMPDEST PUSH1 0x40 MLOAD DUP1 SWAP2 SUB SWAP1 RETURN JUMPDEST CALLVALUE DUP1 ISZERO PUSH2 0x7BC JUMPI PUSH1 0x0 DUP1 REVERT JUMPDEST POP PUSH2 0x7D7 PUSH1 0x4 DUP1 CALLDATASIZE SUB DUP2 ADD SWAP1 PUSH2 0x7D2 SWAP2 SWAP1 PUSH2 0x3E4F JUMP JUMPDEST PUSH2 0x3751 JUMP JUMPDEST STOP JUMPDEST PUSH1 0x0 CALLVALUE GT PUSH2 0x81C JUMPI PUSH1 0x40 MLOAD PUSH32 0x8C379A000000000000000000000000000000000000000000000000000000000 DUP2 MSTORE PUSH1 0x4 ADD PUSH2 0x813 SWAP1 PUSH2 0x4936 JUMP JUMPDEST PUSH1 0x40 MLOAD DUP1 SWAP2 SUB SWAP1 REVERT JUMPDEST PUSH1 0x0 PUSH2 0x839 PUSH8 0xDE0B6B3A7640000 CALLVALUE PUSH2 0x392F SWAP1 SWAP2 SWAP1 PUSH4 0xFFFFFFFF AND JUMP JUMPDEST SWAP1 POP DUP1 PUSH1 0x1 PUSH1 0x0 SWAP1 SLOAD SWAP1 PUSH2 0x100 EXP SWAP1 DIV PUSH20 0xFFFFFFFFFFFFFFFFFFFFFFFFFFFFFFFFFFFFFFFF AND PUSH20 0xFFFFFFFFFFFFFFFFFFFFFFFFFFFFFFFFFFFFFFFF AND PUSH4 0x70A08231 ADDRESS PUSH1 0x40 MLOAD DUP3 PUSH4 0xFFFFFFFF AND PUSH1 0xE0 SHL DUP2 MSTORE PUSH1 0x4 ADD PUSH2 0x897 SWAP2 SWAP1 PUSH2 0x42DE JUMP JUMPDEST PUSH1 0x20 PUSH1 0x40 MLOAD DUP1 DUP4 SUB DUP2 DUP7 GAS STATICCALL ISZERO DUP1 ISZERO PUSH2 0x8B4 JUMPI RETURNDATASIZE PUSH1 0x0 DUP1 RETURNDATACOPY RETURNDATASIZE PUSH1 0x0 REVERT JUMPDEST POP POP POP POP PUSH1 0x40 MLOAD RETURNDATASIZE PUSH1 0x1F NOT PUSH1 0x1F DUP3 ADD AND DUP3 ADD DUP1 PUSH1 0x40 MSTORE POP DUP2 ADD SWAP1 PUSH2 0x8D8 SWAP2 SWAP1 PUSH2 0x496B JUMP JUMPDEST LT ISZERO PUSH2 0x919 JUMPI PUSH1 0x40 MLOAD PUSH32 0x8C379A000000000000000000000000000000000000000000000000000000000 DUP2 MSTORE PUSH1 0x4 ADD PUSH2 0x910 SWAP1 PUSH2 0x49E4 JUMP JUMPDEST PUSH1 0x40 MLOAD DUP1 SWAP2 SUB SWAP1 REVERT JUMPDEST PUSH1 0x1 PUSH1 0x0 SWAP1 SLOAD SWAP1 PUSH2 0x100 EXP SWAP1 DIV PUSH20 0xFFFFFFFFFFFFFFFFFFFFFFFFFFFFFFFFFFFFFFFF AND PUSH20 0xFFFFFFFFFFFFFFFFFFFFFFFFFFFFFFFFFFFFFFFF AND PUSH4 0xA9059CBB CALLER DUP4 PUSH1 0x40 MLOAD DUP4 PUSH4 0xFFFFFFFF AND PUSH1 0xE0 SHL DUP2 MSTORE PUSH1 0x4 ADD PUSH2 0x976 SWAP3 SWAP2 SWAP1 PUSH2 0x4A04 JUMP JUMPDEST PUSH1 0x20 PUSH1 0x40 MLOAD DUP1 DUP4 SUB DUP2 PUSH1 0x0 DUP8 GAS CALL ISZERO DUP1 ISZERO PUSH2 0x995 JUMPI RETURNDATASIZE PUSH1 0x0 DUP1 RETURNDATACOPY RETURNDATASIZE PUSH1 0x0 REVERT JUMPDEST POP POP POP POP PUSH1 0x40 MLOAD RETURNDATASIZE PUSH1 0x1F NOT PUSH1 0x1F DUP3 ADD AND DUP3 ADD DUP1 PUSH1 0x40 MSTORE POP DUP2 ADD SWAP1 PUSH2 0x9B9 SWAP2 SWAP1 PUSH2 0x4A42 JUMP JUMPDEST PUSH2 0x9F8 JUMPI PUSH1 0x40 MLOAD PUSH32 0x8C379A000000000000000000000000000000000000000000000000000000000 DUP2 MSTORE PUSH1 0x4 ADD PUSH2 0x9EF SWAP1 PUSH2 0x4ABB JUMP JUMPDEST PUSH1 0x40 MLOAD DUP1 SWAP2 SUB SWAP1 REVERT JUMPDEST CALLER PUSH20 0xFFFFFFFFFFFFFFFFFFFFFFFFFFFFFFFFFFFFFFFF AND PUSH32 0x95DB8762F4600873DF8FDBC44F0E34FA831E5CC7396F3DDA3A5CD0825ACD5BDB CALLVALUE DUP4 PUSH1 0x40 MLOAD PUSH2 0xA40 SWAP3 SWAP2 SWAP1 PUSH2 0x4ADB JUMP JUMPDEST PUSH1 0x40 MLOAD DUP1 SWAP2 SUB SWAP1 LOG2 POP JUMP JUMPDEST PUSH1 0x60 PUSH1 0x0 PUSH1 0x1 PUSH1 0x8 SLOAD PUSH2 0xA5E SWAP2 SWAP1 PUSH2 0x4B33 JUMP JUMPDEST PUSH8 0xFFFFFFFFFFFFFFFF DUP2 GT ISZERO PUSH2 0xA77 JUMPI PUSH2 0xA76 PUSH2 0x3F87 JUMP JUMPDEST JUMPDEST PUSH1 0x40 MLOAD SWAP1 DUP1 DUP3 MSTORE DUP1 PUSH1 0x20 MUL PUSH1 0x20 ADD DUP3 ADD PUSH1 0x40 MSTORE DUP1 ISZERO PUSH2 0xAB0 JUMPI DUP2 PUSH1 0x20 ADD JUMPDEST PUSH2 0xA9D PUSH2 0x3971 JUMP JUMPDEST DUP2 MSTORE PUSH1 0x20 ADD SWAP1 PUSH1 0x1 SWAP1 SUB SWAP1 DUP2 PUSH2 0xA95 JUMPI SWAP1 POP JUMPDEST POP SWAP1 POP PUSH1 0x0 PUSH1 0x1 SWAP1 POP JUMPDEST PUSH1 0x8 SLOAD DUP2 LT ISZERO PUSH2 0xD5E JUMPI PUSH1 0x6 PUSH1 0x0 DUP3 DUP2 MSTORE PUSH1 0x20 ADD SWAP1 DUP2 MSTORE PUSH1 0x20 ADD PUSH1 0x0 KECCAK256 PUSH1 0x40 MLOAD DUP1 PUSH2 0x120 ADD PUSH1 0x40 MSTORE SWAP1 DUP2 PUSH1 0x0 DUP3 ADD SLOAD DUP2 MSTORE PUSH1 0x20 ADD PUSH1 0x1 DUP3 ADD DUP1 SLOAD PUSH2 0xAFD SWAP1 PUSH2 0x4B96 JUMP JUMPDEST DUP1 PUSH1 0x1F ADD PUSH1 0x20 DUP1 SWAP2 DIV MUL PUSH1 0x20 ADD PUSH1 0x40 MLOAD SWAP1 DUP2 ADD PUSH1 0x40 MSTORE DUP1 SWAP3 SWAP2 SWAP1 DUP2 DUP2 MSTORE PUSH1 0x20 ADD DUP3 DUP1 SLOAD PUSH2 0xB29 SWAP1 PUSH2 0x4B96 JUMP JUMPDEST DUP1 ISZERO PUSH2 0xB76 JUMPI DUP1 PUSH1 0x1F LT PUSH2 0xB4B JUMPI PUSH2 0x100 DUP1 DUP4 SLOAD DIV MUL DUP4 MSTORE SWAP2 PUSH1 0x20 ADD SWAP2 PUSH2 0xB76 JUMP JUMPDEST DUP3 ADD SWAP2 SWAP1 PUSH1 0x0 MSTORE PUSH1 0x20 PUSH1 0x0 KECCAK256 SWAP1 JUMPDEST DUP2 SLOAD DUP2 MSTORE SWAP1 PUSH1 0x1 ADD SWAP1 PUSH1 0x20 ADD DUP1 DUP4 GT PUSH2 0xB59 JUMPI DUP3 SWAP1 SUB PUSH1 0x1F AND DUP3 ADD SWAP2 JUMPDEST POP POP POP POP POP DUP2 MSTORE PUSH1 0x20 ADD PUSH1 0x2 DUP3 ADD DUP1 SLOAD PUSH2 0xB8F SWAP1 PUSH2 0x4B96 JUMP JUMPDEST DUP1 PUSH1 0x1F ADD PUSH1 0x20 DUP1 SWAP2 DIV MUL PUSH1 0x20 ADD PUSH1 0x40 MLOAD SWAP1 DUP2 ADD PUSH1 0x40 MSTORE DUP1 SWAP3 SWAP2 SWAP1 DUP2 DUP2 MSTORE PUSH1 0x20 ADD DUP3 DUP1 SLOAD PUSH2 0xBBB SWAP1 PUSH2 0x4B96 JUMP JUMPDEST DUP1 ISZERO PUSH2 0xC08 JUMPI DUP1 PUSH1 0x1F LT PUSH2 0xBDD JUMPI PUSH2 0x100 DUP1 DUP4 SLOAD DIV MUL DUP4 MSTORE SWAP2 PUSH1 0x20 ADD SWAP2 PUSH2 0xC08 JUMP JUMPDEST DUP3 ADD SWAP2 SWAP1 PUSH1 0x0 MSTORE PUSH1 0x20 PUSH1 0x0 KECCAK256 SWAP1 JUMPDEST DUP2 SLOAD DUP2 MSTORE SWAP1 PUSH1 0x1 ADD SWAP1 PUSH1 0x20 ADD DUP1 DUP4 GT PUSH2 0xBEB JUMPI DUP3 SWAP1 SUB PUSH1 0x1F AND DUP3 ADD SWAP2 JUMPDEST POP POP POP POP POP DUP2 MSTORE PUSH1 0x20 ADD PUSH1 0x3 DUP3 ADD SLOAD DUP2 MSTORE PUSH1 0x20 ADD PUSH1 0x4 DUP3 ADD PUSH1 0x0 SWAP1 SLOAD SWAP1 PUSH2 0x100 EXP SWAP1 DIV PUSH20 0xFFFFFFFFFFFFFFFFFFFFFFFFFFFFFFFFFFFFFFFF AND PUSH20 0xFFFFFFFFFFFFFFFFFFFFFFFFFFFFFFFFFFFFFFFF AND PUSH20 0xFFFFFFFFFFFFFFFFFFFFFFFFFFFFFFFFFFFFFFFF AND DUP2 MSTORE PUSH1 0x20 ADD PUSH1 0x5 DUP3 ADD SLOAD DUP2 MSTORE PUSH1 0x20 ADD PUSH1 0x6 DUP3 ADD SLOAD DUP2 MSTORE PUSH1 0x20 ADD PUSH1 0x7 DUP3 ADD SLOAD DUP2 MSTORE PUSH1 0x20 ADD PUSH1 0x8 DUP3 ADD DUP1 SLOAD PUSH2 0xC9F SWAP1 PUSH2 0x4B96 JUMP JUMPDEST DUP1 PUSH1 0x1F ADD PUSH1 0x20 DUP1 SWAP2 DIV MUL PUSH1 0x20 ADD PUSH1 0x40 MLOAD SWAP1 DUP2 ADD PUSH1 0x40 MSTORE DUP1 SWAP3 SWAP2 SWAP1 DUP2 DUP2 MSTORE PUSH1 0x20 ADD DUP3 DUP1 SLOAD PUSH2 0xCCB SWAP1 PUSH2 0x4B96 JUMP JUMPDEST DUP1 ISZERO PUSH2 0xD18 JUMPI DUP1 PUSH1 0x1F LT PUSH2 0xCED JUMPI PUSH2 0x100 DUP1 DUP4 SLOAD DIV MUL DUP4 MSTORE SWAP2 PUSH1 0x20 ADD SWAP2 PUSH2 0xD18 JUMP JUMPDEST DUP3 ADD SWAP2 SWAP1 PUSH1 0x0 MSTORE PUSH1 0x20 PUSH1 0x0 KECCAK256 SWAP1 JUMPDEST DUP2 SLOAD DUP2 MSTORE SWAP1 PUSH1 0x1 ADD SWAP1 PUSH1 0x20 ADD DUP1 DUP4 GT PUSH2 0xCFB JUMPI DUP3 SWAP1 SUB PUSH1 0x1F AND DUP3 ADD SWAP2 JUMPDEST POP POP POP POP POP DUP2 MSTORE POP POP DUP3 PUSH1 0x1 DUP4 PUSH2 0xD2F SWAP2 SWAP1 PUSH2 0x4B33 JUMP JUMPDEST DUP2 MLOAD DUP2 LT PUSH2 0xD40 JUMPI PUSH2 0xD3F PUSH2 0x4BC7 JUMP JUMPDEST JUMPDEST PUSH1 0x20 MUL PUSH1 0x20 ADD ADD DUP2 SWAP1 MSTORE POP DUP1 DUP1 PUSH2 0xD56 SWAP1 PUSH2 0x4BF6 JUMP JUMPDEST SWAP2 POP POP PUSH2 0xABA JUMP JUMPDEST POP DUP1 SWAP2 POP POP SWAP1 JUMP JUMPDEST PUSH1 0x2 SLOAD DUP2 JUMP JUMPDEST PUSH1 0x9 SLOAD DUP2 JUMP JUMPDEST PUSH1 0x0 DUP1 SLOAD SWAP1 PUSH2 0x100 EXP SWAP1 DIV PUSH20 0xFFFFFFFFFFFFFFFFFFFFFFFFFFFFFFFFFFFFFFFF AND PUSH20 0xFFFFFFFFFFFFFFFFFFFFFFFFFFFFFFFFFFFFFFFF AND CALLER PUSH20 0xFFFFFFFFFFFFFFFFFFFFFFFFFFFFFFFFFFFFFFFF AND EQ PUSH2 0xE00 JUMPI PUSH1 0x40 MLOAD PUSH32 0x8C379A000000000000000000000000000000000000000000000000000000000 DUP2 MSTORE PUSH1 0x4 ADD PUSH2 0xDF7 SWAP1 PUSH2 0x4CB0 JUMP JUMPDEST PUSH1 0x40 MLOAD DUP1 SWAP2 SUB SWAP1 REVERT JUMPDEST PUSH1 0x1 PUSH1 0x0 SWAP1 SLOAD SWAP1 PUSH2 0x100 EXP SWAP1 DIV PUSH20 0xFFFFFFFFFFFFFFFFFFFFFFFFFFFFFFFFFFFFFFFF AND PUSH20 0xFFFFFFFFFFFFFFFFFFFFFFFFFFFFFFFFFFFFFFFF AND PUSH4 0xA9059CBB PUSH1 0x0 DUP1 SLOAD SWAP1 PUSH2 0x100 EXP SWAP1 DIV PUSH20 0xFFFFFFFFFFFFFFFFFFFFFFFFFFFFFFFFFFFFFFFF AND DUP4 PUSH1 0x40 MLOAD DUP4 PUSH4 0xFFFFFFFF AND PUSH1 0xE0 SHL DUP2 MSTORE PUSH1 0x4 ADD PUSH2 0xE7D SWAP3 SWAP2 SWAP1 PUSH2 0x4A04 JUMP JUMPDEST PUSH1 0x20 PUSH1 0x40 MLOAD DUP1 DUP4 SUB DUP2 PUSH1 0x0 DUP8 GAS CALL ISZERO DUP1 ISZERO PUSH2 0xE9C JUMPI RETURNDATASIZE PUSH1 0x0 DUP1 RETURNDATACOPY RETURNDATASIZE PUSH1 0x0 REVERT JUMPDEST POP POP POP POP PUSH1 0x40 MLOAD RETURNDATASIZE PUSH1 0x1F NOT PUSH1 0x1F DUP3 ADD AND DUP3 ADD DUP1 PUSH1 0x40 MSTORE POP DUP2 ADD SWAP1 PUSH2 0xEC0 SWAP2 SWAP1 PUSH2 0x4A42 JUMP JUMPDEST POP CALLER PUSH20 0xFFFFFFFFFFFFFFFFFFFFFFFFFFFFFFFFFFFFFFFF AND PUSH32 0x6352C5382C4A4578E712449CA65E83CDB392D045DFCF1CAD9615189DB2DA244B DUP3 PUSH1 0x40 MLOAD PUSH2 0xF07 SWAP2 SWAP1 PUSH2 0x3DF4 JUMP JUMPDEST PUSH1 0x40 MLOAD DUP1 SWAP2 SUB SWAP1 LOG2 POP JUMP JUMPDEST PUSH1 0x0 DUP1 SLOAD SWAP1 PUSH2 0x100 EXP SWAP1 DIV PUSH20 0xFFFFFFFFFFFFFFFFFFFFFFFFFFFFFFFFFFFFFFFF AND PUSH20 0xFFFFFFFFFFFFFFFFFFFFFFFFFFFFFFFFFFFFFFFF AND CALLER PUSH20 0xFFFFFFFFFFFFFFFFFFFFFFFFFFFFFFFFFFFFFFFF AND EQ PUSH2 0xFA0 JUMPI PUSH1 0x40 MLOAD PUSH32 0x8C379A000000000000000000000000000000000000000000000000000000000 DUP2 MSTORE PUSH1 0x4 ADD PUSH2 0xF97 SWAP1 PUSH2 0x4CB0 JUMP JUMPDEST PUSH1 0x40 MLOAD DUP1 SWAP2 SUB SWAP1 REVERT JUMPDEST DUP1 PUSH1 0x1 PUSH1 0x0 PUSH2 0x100 EXP DUP2 SLOAD DUP2 PUSH20 0xFFFFFFFFFFFFFFFFFFFFFFFFFFFFFFFFFFFFFFFF MUL NOT AND SWAP1 DUP4 PUSH20 0xFFFFFFFFFFFFFFFFFFFFFFFFFFFFFFFFFFFFFFFF AND MUL OR SWAP1 SSTORE POP CALLER PUSH20 0xFFFFFFFFFFFFFFFFFFFFFFFFFFFFFFFFFFFFFFFF AND PUSH32 0x6ECA818BB499E114C9A2EAD8C104A976418F0CA9C27FD7EAD167E9125E613D45 DUP3 PUSH1 0x40 MLOAD PUSH2 0x1027 SWAP2 SWAP1 PUSH2 0x42DE JUMP JUMPDEST PUSH1 0x40 MLOAD DUP1 SWAP2 SUB SWAP1 LOG2 POP JUMP JUMPDEST PUSH1 0x0 PUSH2 0x104C PUSH1 0x40 MLOAD DUP1 PUSH1 0x20 ADD PUSH1 0x40 MSTORE DUP1 PUSH1 0x0 DUP2 MSTORE POP PUSH2 0x25C4 JUMP JUMPDEST POP SWAP1 POP DUP1 PUSH2 0x108F JUMPI PUSH1 0x40 MLOAD PUSH32 0x8C379A000000000000000000000000000000000000000000000000000000000 DUP2 MSTORE PUSH1 0x4 ADD PUSH2 0x1086 SWAP1 PUSH2 0x4D1C JUMP JUMPDEST PUSH1 0x40 MLOAD DUP1 SWAP2 SUB SWAP1 REVERT JUMPDEST PUSH1 0x0 DUP4 DUP4 DUP2 ADD SWAP1 PUSH2 0x10A0 SWAP2 SWAP1 PUSH2 0x4DFF JUMP JUMPDEST SWAP1 POP DUP1 PUSH1 0x3 SWAP1 DUP1 MLOAD SWAP1 PUSH1 0x20 ADD SWAP1 PUSH2 0x10B8 SWAP3 SWAP2 SWAP1 PUSH2 0x39D3 JUMP JUMPDEST POP TIMESTAMP PUSH1 0x2 DUP2 SWAP1 SSTORE POP POP POP POP POP JUMP JUMPDEST DUP4 MLOAD DUP6 MLOAD EQ PUSH2 0x110A JUMPI PUSH1 0x40 MLOAD PUSH32 0x8C379A000000000000000000000000000000000000000000000000000000000 DUP2 MSTORE PUSH1 0x4 ADD PUSH2 0x1101 SWAP1 PUSH2 0x4EBA JUMP JUMPDEST PUSH1 0x40 MLOAD DUP1 SWAP2 SUB SWAP1 REVERT JUMPDEST PUSH1 0x0 PUSH1 0x64 PUSH1 0x5 DUP5 PUSH2 0x111B SWAP2 SWAP1 PUSH2 0x4EDA JUMP JUMPDEST PUSH2 0x1125 SWAP2 SWAP1 PUSH2 0x4F4B JUMP JUMPDEST SWAP1 POP PUSH1 0x0 DUP3 DUP5 PUSH2 0x1135 SWAP2 SWAP1 PUSH2 0x4B33 JUMP JUMPDEST SWAP1 POP DUP1 CALLVALUE LT ISZERO PUSH2 0x117A JUMPI PUSH1 0x40 MLOAD PUSH32 0x8C379A000000000000000000000000000000000000000000000000000000000 DUP2 MSTORE PUSH1 0x4 ADD PUSH2 0x1171 SWAP1 PUSH2 0x4FC8 JUMP JUMPDEST PUSH1 0x40 MLOAD DUP1 SWAP2 SUB SWAP1 REVERT JUMPDEST ADDRESS PUSH20 0xFFFFFFFFFFFFFFFFFFFFFFFFFFFFFFFFFFFFFFFF AND PUSH2 0x8FC DUP4 SWAP1 DUP2 ISZERO MUL SWAP1 PUSH1 0x40 MLOAD PUSH1 0x0 PUSH1 0x40 MLOAD DUP1 DUP4 SUB DUP2 DUP6 DUP9 DUP9 CALL SWAP4 POP POP POP POP ISZERO DUP1 ISZERO PUSH2 0x11C0 JUMPI RETURNDATASIZE PUSH1 0x0 DUP1 RETURNDATACOPY RETURNDATASIZE PUSH1 0x0 REVERT JUMPDEST POP PUSH1 0x0 JUMPDEST DUP8 MLOAD DUP2 LT ISZERO PUSH2 0x1ACB JUMPI PUSH1 0x0 PUSH1 0x6 PUSH1 0x0 DUP11 DUP5 DUP2 MLOAD DUP2 LT PUSH2 0x11E6 JUMPI PUSH2 0x11E5 PUSH2 0x4BC7 JUMP JUMPDEST JUMPDEST PUSH1 0x20 MUL PUSH1 0x20 ADD ADD MLOAD DUP2 MSTORE PUSH1 0x20 ADD SWAP1 DUP2 MSTORE PUSH1 0x20 ADD PUSH1 0x0 KECCAK256 PUSH1 0x40 MLOAD DUP1 PUSH2 0x120 ADD PUSH1 0x40 MSTORE SWAP1 DUP2 PUSH1 0x0 DUP3 ADD SLOAD DUP2 MSTORE PUSH1 0x20 ADD PUSH1 0x1 DUP3 ADD DUP1 SLOAD PUSH2 0x1222 SWAP1 PUSH2 0x4B96 JUMP JUMPDEST DUP1 PUSH1 0x1F ADD PUSH1 0x20 DUP1 SWAP2 DIV MUL PUSH1 0x20 ADD PUSH1 0x40 MLOAD SWAP1 DUP2 ADD PUSH1 0x40 MSTORE DUP1 SWAP3 SWAP2 SWAP1 DUP2 DUP2 MSTORE PUSH1 0x20 ADD DUP3 DUP1 SLOAD PUSH2 0x124E SWAP1 PUSH2 0x4B96 JUMP JUMPDEST DUP1 ISZERO PUSH2 0x129B JUMPI DUP1 PUSH1 0x1F LT PUSH2 0x1270 JUMPI PUSH2 0x100 DUP1 DUP4 SLOAD DIV MUL DUP4 MSTORE SWAP2 PUSH1 0x20 ADD SWAP2 PUSH2 0x129B JUMP JUMPDEST DUP3 ADD SWAP2 SWAP1 PUSH1 0x0 MSTORE PUSH1 0x20 PUSH1 0x0 KECCAK256 SWAP1 JUMPDEST DUP2 SLOAD DUP2 MSTORE SWAP1 PUSH1 0x1 ADD SWAP1 PUSH1 0x20 ADD DUP1 DUP4 GT PUSH2 0x127E JUMPI DUP3 SWAP1 SUB PUSH1 0x1F AND DUP3 ADD SWAP2 JUMPDEST POP POP POP POP POP DUP2 MSTORE PUSH1 0x20 ADD PUSH1 0x2 DUP3 ADD DUP1 SLOAD PUSH2 0x12B4 SWAP1 PUSH2 0x4B96 JUMP JUMPDEST DUP1 PUSH1 0x1F ADD PUSH1 0x20 DUP1 SWAP2 DIV MUL PUSH1 0x20 ADD PUSH1 0x40 MLOAD SWAP1 DUP2 ADD PUSH1 0x40 MSTORE DUP1 SWAP3 SWAP2 SWAP1 DUP2 DUP2 MSTORE PUSH1 0x20 ADD DUP3 DUP1 SLOAD PUSH2 0x12E0 SWAP1 PUSH2 0x4B96 JUMP JUMPDEST DUP1 ISZERO PUSH2 0x132D JUMPI DUP1 PUSH1 0x1F LT PUSH2 0x1302 JUMPI PUSH2 0x100 DUP1 DUP4 SLOAD DIV MUL DUP4 MSTORE SWAP2 PUSH1 0x20 ADD SWAP2 PUSH2 0x132D JUMP JUMPDEST DUP3 ADD SWAP2 SWAP1 PUSH1 0x0 MSTORE PUSH1 0x20 PUSH1 0x0 KECCAK256 SWAP1 JUMPDEST DUP2 SLOAD DUP2 MSTORE SWAP1 PUSH1 0x1 ADD SWAP1 PUSH1 0x20 ADD DUP1 DUP4 GT PUSH2 0x1310 JUMPI DUP3 SWAP1 SUB PUSH1 0x1F AND DUP3 ADD SWAP2 JUMPDEST POP POP POP POP POP DUP2 MSTORE PUSH1 0x20 ADD PUSH1 0x3 DUP3 ADD SLOAD DUP2 MSTORE PUSH1 0x20 ADD PUSH1 0x4 DUP3 ADD PUSH1 0x0 SWAP1 SLOAD SWAP1 PUSH2 0x100 EXP SWAP1 DIV PUSH20 0xFFFFFFFFFFFFFFFFFFFFFFFFFFFFFFFFFFFFFFFF AND PUSH20 0xFFFFFFFFFFFFFFFFFFFFFFFFFFFFFFFFFFFFFFFF AND PUSH20 0xFFFFFFFFFFFFFFFFFFFFFFFFFFFFFFFFFFFFFFFF AND DUP2 MSTORE PUSH1 0x20 ADD PUSH1 0x5 DUP3 ADD SLOAD DUP2 MSTORE PUSH1 0x20 ADD PUSH1 0x6 DUP3 ADD SLOAD DUP2 MSTORE PUSH1 0x20 ADD PUSH1 0x7 DUP3 ADD SLOAD DUP2 MSTORE PUSH1 0x20 ADD PUSH1 0x8 DUP3 ADD DUP1 SLOAD PUSH2 0x13C4 SWAP1 PUSH2 0x4B96 JUMP JUMPDEST DUP1 PUSH1 0x1F ADD PUSH1 0x20 DUP1 SWAP2 DIV MUL PUSH1 0x20 ADD PUSH1 0x40 MLOAD SWAP1 DUP2 ADD PUSH1 0x40 MSTORE DUP1 SWAP3 SWAP2 SWAP1 DUP2 DUP2 MSTORE PUSH1 0x20 ADD DUP3 DUP1 SLOAD PUSH2 0x13F0 SWAP1 PUSH2 0x4B96 JUMP JUMPDEST DUP1 ISZERO PUSH2 0x143D JUMPI DUP1 PUSH1 0x1F LT PUSH2 0x1412 JUMPI PUSH2 0x100 DUP1 DUP4 SLOAD DIV MUL DUP4 MSTORE SWAP2 PUSH1 0x20 ADD SWAP2 PUSH2 0x143D JUMP JUMPDEST DUP3 ADD SWAP2 SWAP1 PUSH1 0x0 MSTORE PUSH1 0x20 PUSH1 0x0 KECCAK256 SWAP1 JUMPDEST DUP2 SLOAD DUP2 MSTORE SWAP1 PUSH1 0x1 ADD SWAP1 PUSH1 0x20 ADD DUP1 DUP4 GT PUSH2 0x1420 JUMPI DUP3 SWAP1 SUB PUSH1 0x1F AND DUP3 ADD SWAP2 JUMPDEST POP POP POP POP POP DUP2 MSTORE POP POP SWAP1 POP PUSH1 0x0 DUP9 DUP4 DUP2 MLOAD DUP2 LT PUSH2 0x145D JUMPI PUSH2 0x145C PUSH2 0x4BC7 JUMP JUMPDEST JUMPDEST PUSH1 0x20 MUL PUSH1 0x20 ADD ADD MLOAD DUP3 PUSH1 0xA0 ADD MLOAD PUSH2 0x1474 SWAP2 SWAP1 PUSH2 0x4EDA JUMP JUMPDEST SWAP1 POP PUSH1 0x0 PUSH1 0xA DUP3 PUSH2 0x1485 SWAP2 SWAP1 PUSH2 0x4F4B JUMP JUMPDEST SWAP1 POP PUSH2 0x14DC DUP2 PUSH1 0x4 PUSH1 0x0 CALLER PUSH20 0xFFFFFFFFFFFFFFFFFFFFFFFFFFFFFFFFFFFFFFFF AND PUSH20 0xFFFFFFFFFFFFFFFFFFFFFFFFFFFFFFFFFFFFFFFF AND DUP2 MSTORE PUSH1 0x20 ADD SWAP1 DUP2 MSTORE PUSH1 0x20 ADD PUSH1 0x0 KECCAK256 PUSH1 0x2 ADD SLOAD PUSH2 0x3945 SWAP1 SWAP2 SWAP1 PUSH4 0xFFFFFFFF AND JUMP JUMPDEST PUSH1 0x4 PUSH1 0x0 CALLER PUSH20 0xFFFFFFFFFFFFFFFFFFFFFFFFFFFFFFFFFFFFFFFF AND PUSH20 0xFFFFFFFFFFFFFFFFFFFFFFFFFFFFFFFFFFFFFFFF AND DUP2 MSTORE PUSH1 0x20 ADD SWAP1 DUP2 MSTORE PUSH1 0x20 ADD PUSH1 0x0 KECCAK256 PUSH1 0x2 ADD DUP2 SWAP1 SSTORE POP CALLER PUSH20 0xFFFFFFFFFFFFFFFFFFFFFFFFFFFFFFFFFFFFFFFF AND PUSH32 0x2C4C0DC427A50C4A69D2FC184C47A311ACF950D8D2F289FBAEE64E83E9B28967 DUP3 PUSH1 0x40 MLOAD PUSH2 0x1568 SWAP2 SWAP1 PUSH2 0x3DF4 JUMP JUMPDEST PUSH1 0x40 MLOAD DUP1 SWAP2 SUB SWAP1 LOG2 DUP9 DUP5 DUP2 MLOAD DUP2 LT PUSH2 0x1583 JUMPI PUSH2 0x1582 PUSH2 0x4BC7 JUMP JUMPDEST JUMPDEST PUSH1 0x20 MUL PUSH1 0x20 ADD ADD MLOAD ISZERO PUSH2 0x1711 JUMPI DUP3 PUSH1 0x80 ADD MLOAD PUSH20 0xFFFFFFFFFFFFFFFFFFFFFFFFFFFFFFFFFFFFFFFF AND PUSH2 0x8FC PUSH1 0x64 PUSH1 0x5 DUP6 PUSH2 0x15BD SWAP2 SWAP1 PUSH2 0x4EDA JUMP JUMPDEST PUSH2 0x15C7 SWAP2 SWAP1 PUSH2 0x4F4B JUMP JUMPDEST DUP5 PUSH2 0x15D2 SWAP2 SWAP1 PUSH2 0x4B33 JUMP JUMPDEST SWAP1 DUP2 ISZERO MUL SWAP1 PUSH1 0x40 MLOAD PUSH1 0x0 PUSH1 0x40 MLOAD DUP1 DUP4 SUB DUP2 DUP6 DUP9 DUP9 CALL SWAP4 POP POP POP POP ISZERO DUP1 ISZERO PUSH2 0x15FD JUMPI RETURNDATASIZE PUSH1 0x0 DUP1 RETURNDATACOPY RETURNDATASIZE PUSH1 0x0 REVERT JUMPDEST POP PUSH1 0x1 PUSH1 0x0 SWAP1 SLOAD SWAP1 PUSH2 0x100 EXP SWAP1 DIV PUSH20 0xFFFFFFFFFFFFFFFFFFFFFFFFFFFFFFFFFFFFFFFF AND PUSH20 0xFFFFFFFFFFFFFFFFFFFFFFFFFFFFFFFFFFFFFFFF AND PUSH4 0x23B872DD DUP5 PUSH1 0x80 ADD MLOAD CALLER DUP14 DUP9 DUP2 MLOAD DUP2 LT PUSH2 0x1655 JUMPI PUSH2 0x1654 PUSH2 0x4BC7 JUMP JUMPDEST JUMPDEST PUSH1 0x20 MUL PUSH1 0x20 ADD ADD MLOAD DUP8 PUSH1 0xC0 ADD MLOAD PUSH2 0x166C SWAP2 SWAP1 PUSH2 0x4EDA JUMP JUMPDEST PUSH1 0x40 MLOAD DUP5 PUSH4 0xFFFFFFFF AND PUSH1 0xE0 SHL DUP2 MSTORE PUSH1 0x4 ADD PUSH2 0x168A SWAP4 SWAP3 SWAP2 SWAP1 PUSH2 0x4FE8 JUMP JUMPDEST PUSH1 0x20 PUSH1 0x40 MLOAD DUP1 DUP4 SUB DUP2 PUSH1 0x0 DUP8 GAS CALL ISZERO DUP1 ISZERO PUSH2 0x16A9 JUMPI RETURNDATASIZE PUSH1 0x0 DUP1 RETURNDATACOPY RETURNDATASIZE PUSH1 0x0 REVERT JUMPDEST POP POP POP POP PUSH1 0x40 MLOAD RETURNDATASIZE PUSH1 0x1F NOT PUSH1 0x1F DUP3 ADD AND DUP3 ADD DUP1 PUSH1 0x40 MSTORE POP DUP2 ADD SWAP1 PUSH2 0x16CD SWAP2 SWAP1 PUSH2 0x4A42 JUMP JUMPDEST PUSH2 0x170C JUMPI PUSH1 0x40 MLOAD PUSH32 0x8C379A000000000000000000000000000000000000000000000000000000000 DUP2 MSTORE PUSH1 0x4 ADD PUSH2 0x1703 SWAP1 PUSH2 0x506B JUMP JUMPDEST PUSH1 0x40 MLOAD DUP1 SWAP2 SUB SWAP1 REVERT JUMPDEST PUSH2 0x18C2 JUMP JUMPDEST DUP3 PUSH1 0x80 ADD MLOAD PUSH20 0xFFFFFFFFFFFFFFFFFFFFFFFFFFFFFFFFFFFFFFFF AND PUSH2 0x8FC PUSH1 0x64 PUSH1 0x5 DUP6 PUSH2 0x173E SWAP2 SWAP1 PUSH2 0x4EDA JUMP JUMPDEST PUSH2 0x1748 SWAP2 SWAP1 PUSH2 0x4F4B JUMP JUMPDEST DUP13 DUP8 DUP2 MLOAD DUP2 LT PUSH2 0x175B JUMPI PUSH2 0x175A PUSH2 0x4BC7 JUMP JUMPDEST JUMPDEST PUSH1 0x20 MUL PUSH1 0x20 ADD ADD MLOAD DUP7 PUSH1 0xE0 ADD MLOAD PUSH2 0x1772 SWAP2 SWAP1 PUSH2 0x4EDA JUMP JUMPDEST DUP6 PUSH2 0x177D SWAP2 SWAP1 PUSH2 0x4B33 JUMP JUMPDEST PUSH2 0x1787 SWAP2 SWAP1 PUSH2 0x4B33 JUMP JUMPDEST SWAP1 DUP2 ISZERO MUL SWAP1 PUSH1 0x40 MLOAD PUSH1 0x0 PUSH1 0x40 MLOAD DUP1 DUP4 SUB DUP2 DUP6 DUP9 DUP9 CALL SWAP4 POP POP POP POP ISZERO DUP1 ISZERO PUSH2 0x17B2 JUMPI RETURNDATASIZE PUSH1 0x0 DUP1 RETURNDATACOPY RETURNDATASIZE PUSH1 0x0 REVERT JUMPDEST POP PUSH1 0x1 PUSH1 0x0 SWAP1 SLOAD SWAP1 PUSH2 0x100 EXP SWAP1 DIV PUSH20 0xFFFFFFFFFFFFFFFFFFFFFFFFFFFFFFFFFFFFFFFF AND PUSH20 0xFFFFFFFFFFFFFFFFFFFFFFFFFFFFFFFFFFFFFFFF AND PUSH4 0x23B872DD CALLER DUP6 PUSH1 0x80 ADD MLOAD DUP14 DUP9 DUP2 MLOAD DUP2 LT PUSH2 0x180A JUMPI PUSH2 0x1809 PUSH2 0x4BC7 JUMP JUMPDEST JUMPDEST PUSH1 0x20 MUL PUSH1 0x20 ADD ADD MLOAD DUP8 PUSH1 0xE0 ADD MLOAD PUSH2 0x1821 SWAP2 SWAP1 PUSH2 0x4EDA JUMP JUMPDEST PUSH1 0x40 MLOAD DUP5 PUSH4 0xFFFFFFFF AND PUSH1 0xE0 SHL DUP2 MSTORE PUSH1 0x4 ADD PUSH2 0x183F SWAP4 SWAP3 SWAP2 SWAP1 PUSH2 0x4FE8 JUMP JUMPDEST PUSH1 0x20 PUSH1 0x40 MLOAD DUP1 DUP4 SUB DUP2 PUSH1 0x0 DUP8 GAS CALL ISZERO DUP1 ISZERO PUSH2 0x185E JUMPI RETURNDATASIZE PUSH1 0x0 DUP1 RETURNDATACOPY RETURNDATASIZE PUSH1 0x0 REVERT JUMPDEST POP POP POP POP PUSH1 0x40 MLOAD RETURNDATASIZE PUSH1 0x1F NOT PUSH1 0x1F DUP3 ADD AND DUP3 ADD DUP1 PUSH1 0x40 MSTORE POP DUP2 ADD SWAP1 PUSH2 0x1882 SWAP2 SWAP1 PUSH2 0x4A42 JUMP JUMPDEST PUSH2 0x18C1 JUMPI PUSH1 0x40 MLOAD PUSH32 0x8C379A000000000000000000000000000000000000000000000000000000000 DUP2 MSTORE PUSH1 0x4 ADD PUSH2 0x18B8 SWAP1 PUSH2 0x50D7 JUMP JUMPDEST PUSH1 0x40 MLOAD DUP1 SWAP2 SUB SWAP1 REVERT JUMPDEST JUMPDEST PUSH1 0x40 MLOAD DUP1 PUSH1 0x80 ADD PUSH1 0x40 MSTORE DUP1 PUSH1 0x9 SLOAD DUP2 MSTORE PUSH1 0x20 ADD CALLER PUSH20 0xFFFFFFFFFFFFFFFFFFFFFFFFFFFFFFFFFFFFFFFF AND DUP2 MSTORE PUSH1 0x20 ADD DUP13 DUP7 DUP2 MLOAD DUP2 LT PUSH2 0x1904 JUMPI PUSH2 0x1903 PUSH2 0x4BC7 JUMP JUMPDEST JUMPDEST PUSH1 0x20 MUL PUSH1 0x20 ADD ADD MLOAD DUP2 MSTORE PUSH1 0x20 ADD DUP12 DUP7 DUP2 MLOAD DUP2 LT PUSH2 0x1924 JUMPI PUSH2 0x1923 PUSH2 0x4BC7 JUMP JUMPDEST JUMPDEST PUSH1 0x20 MUL PUSH1 0x20 ADD ADD MLOAD DUP2 MSTORE POP PUSH1 0x7 PUSH1 0x0 PUSH1 0x9 SLOAD DUP2 MSTORE PUSH1 0x20 ADD SWAP1 DUP2 MSTORE PUSH1 0x20 ADD PUSH1 0x0 KECCAK256 PUSH1 0x0 DUP3 ADD MLOAD DUP2 PUSH1 0x0 ADD SSTORE PUSH1 0x20 DUP3 ADD MLOAD DUP2 PUSH1 0x1 ADD PUSH1 0x0 PUSH2 0x100 EXP DUP2 SLOAD DUP2 PUSH20 0xFFFFFFFFFFFFFFFFFFFFFFFFFFFFFFFFFFFFFFFF MUL NOT AND SWAP1 DUP4 PUSH20 0xFFFFFFFFFFFFFFFFFFFFFFFFFFFFFFFFFFFFFFFF AND MUL OR SWAP1 SSTORE POP PUSH1 0x40 DUP3 ADD MLOAD DUP2 PUSH1 0x2 ADD SSTORE PUSH1 0x60 DUP3 ADD MLOAD DUP2 PUSH1 0x3 ADD SSTORE SWAP1 POP POP PUSH1 0x4 PUSH1 0x0 CALLER PUSH20 0xFFFFFFFFFFFFFFFFFFFFFFFFFFFFFFFFFFFFFFFF AND PUSH20 0xFFFFFFFFFFFFFFFFFFFFFFFFFFFFFFFFFFFFFFFF AND DUP2 MSTORE PUSH1 0x20 ADD SWAP1 DUP2 MSTORE PUSH1 0x20 ADD PUSH1 0x0 KECCAK256 PUSH1 0x3 ADD PUSH1 0x9 SLOAD SWAP1 DUP1 PUSH1 0x1 DUP2 SLOAD ADD DUP1 DUP3 SSTORE DUP1 SWAP2 POP POP PUSH1 0x1 SWAP1 SUB SWAP1 PUSH1 0x0 MSTORE PUSH1 0x20 PUSH1 0x0 KECCAK256 ADD PUSH1 0x0 SWAP1 SWAP2 SWAP1 SWAP2 SWAP1 SWAP2 POP SSTORE DUP11 DUP5 DUP2 MLOAD DUP2 LT PUSH2 0x1A2A JUMPI PUSH2 0x1A29 PUSH2 0x4BC7 JUMP JUMPDEST JUMPDEST PUSH1 0x20 MUL PUSH1 0x20 ADD ADD MLOAD CALLER PUSH20 0xFFFFFFFFFFFFFFFFFFFFFFFFFFFFFFFFFFFFFFFF AND PUSH1 0x9 SLOAD PUSH32 0x7D3C39A6CCE20F6949EFF0833A4D54FCA734DC7C6027773D8885E7FAEAC98A95 DUP14 DUP9 DUP2 MLOAD DUP2 LT PUSH2 0x1A80 JUMPI PUSH2 0x1A7F PUSH2 0x4BC7 JUMP JUMPDEST JUMPDEST PUSH1 0x20 MUL PUSH1 0x20 ADD ADD MLOAD PUSH1 0x40 MLOAD PUSH2 0x1A95 SWAP2 SWAP1 PUSH2 0x3DF4 JUMP JUMPDEST PUSH1 0x40 MLOAD DUP1 SWAP2 SUB SWAP1 LOG4 PUSH1 0x9 PUSH1 0x0 DUP2 SLOAD DUP1 SWAP3 SWAP2 SWAP1 PUSH2 0x1AB0 SWAP1 PUSH2 0x4BF6 JUMP JUMPDEST SWAP2 SWAP1 POP SSTORE POP POP POP POP DUP1 DUP1 PUSH2 0x1AC3 SWAP1 PUSH2 0x4BF6 JUMP JUMPDEST SWAP2 POP POP PUSH2 0x11C4 JUMP JUMPDEST POP POP POP POP POP POP POP POP JUMP JUMPDEST PUSH1 0x0 DUP1 SLOAD SWAP1 PUSH2 0x100 EXP SWAP1 DIV PUSH20 0xFFFFFFFFFFFFFFFFFFFFFFFFFFFFFFFFFFFFFFFF AND PUSH20 0xFFFFFFFFFFFFFFFFFFFFFFFFFFFFFFFFFFFFFFFF AND CALLER PUSH20 0xFFFFFFFFFFFFFFFFFFFFFFFFFFFFFFFFFFFFFFFF AND EQ PUSH2 0x1B63 JUMPI PUSH1 0x40 MLOAD PUSH32 0x8C379A000000000000000000000000000000000000000000000000000000000 DUP2 MSTORE PUSH1 0x4 ADD PUSH2 0x1B5A SWAP1 PUSH2 0x4CB0 JUMP JUMPDEST PUSH1 0x40 MLOAD DUP1 SWAP2 SUB SWAP1 REVERT JUMPDEST PUSH1 0x1 PUSH1 0x0 SWAP1 SLOAD SWAP1 PUSH2 0x100 EXP SWAP1 DIV PUSH20 0xFFFFFFFFFFFFFFFFFFFFFFFFFFFFFFFFFFFFFFFF AND PUSH20 0xFFFFFFFFFFFFFFFFFFFFFFFFFFFFFFFFFFFFFFFF AND PUSH4 0x70A08231 ADDRESS PUSH1 0x40 MLOAD DUP3 PUSH4 0xFFFFFFFF AND PUSH1 0xE0 SHL DUP2 MSTORE PUSH1 0x4 ADD PUSH2 0x1BBE SWAP2 SWAP1 PUSH2 0x42DE JUMP JUMPDEST PUSH1 0x20 PUSH1 0x40 MLOAD DUP1 DUP4 SUB DUP2 DUP7 GAS STATICCALL ISZERO DUP1 ISZERO PUSH2 0x1BDB JUMPI RETURNDATASIZE PUSH1 0x0 DUP1 RETURNDATACOPY RETURNDATASIZE PUSH1 0x0 REVERT JUMPDEST POP POP POP POP PUSH1 0x40 MLOAD RETURNDATASIZE PUSH1 0x1F NOT PUSH1 0x1F DUP3 ADD AND DUP3 ADD DUP1 PUSH1 0x40 MSTORE POP DUP2 ADD SWAP1 PUSH2 0x1BFF SWAP2 SWAP1 PUSH2 0x496B JUMP JUMPDEST DUP2 GT ISZERO PUSH2 0x1C41 JUMPI PUSH1 0x40 MLOAD PUSH32 0x8C379A000000000000000000000000000000000000000000000000000000000 DUP2 MSTORE PUSH1 0x4 ADD PUSH2 0x1C38 SWAP1 PUSH2 0x5143 JUMP JUMPDEST PUSH1 0x40 MLOAD DUP1 SWAP2 SUB SWAP1 REVERT JUMPDEST PUSH1 0x1 PUSH1 0x0 SWAP1 SLOAD SWAP1 PUSH2 0x100 EXP SWAP1 DIV PUSH20 0xFFFFFFFFFFFFFFFFFFFFFFFFFFFFFFFFFFFFFFFF AND PUSH20 0xFFFFFFFFFFFFFFFFFFFFFFFFFFFFFFFFFFFFFFFF AND PUSH4 0xA9059CBB DUP4 DUP4 PUSH1 0x40 MLOAD DUP4 PUSH4 0xFFFFFFFF AND PUSH1 0xE0 SHL DUP2 MSTORE PUSH1 0x4 ADD PUSH2 0x1C9E SWAP3 SWAP2 SWAP1 PUSH2 0x4A04 JUMP JUMPDEST PUSH1 0x20 PUSH1 0x40 MLOAD DUP1 DUP4 SUB DUP2 PUSH1 0x0 DUP8 GAS CALL ISZERO DUP1 ISZERO PUSH2 0x1CBD JUMPI RETURNDATASIZE PUSH1 0x0 DUP1 RETURNDATACOPY RETURNDATASIZE PUSH1 0x0 REVERT JUMPDEST POP POP POP POP PUSH1 0x40 MLOAD RETURNDATASIZE PUSH1 0x1F NOT PUSH1 0x1F DUP3 ADD AND DUP3 ADD DUP1 PUSH1 0x40 MSTORE POP DUP2 ADD SWAP1 PUSH2 0x1CE1 SWAP2 SWAP1 PUSH2 0x4A42 JUMP JUMPDEST POP POP POP JUMP JUMPDEST PUSH1 0x0 PUSH20 0xFFFFFFFFFFFFFFFFFFFFFFFFFFFFFFFFFFFFFFFF AND PUSH1 0x4 PUSH1 0x0 CALLER PUSH20 0xFFFFFFFFFFFFFFFFFFFFFFFFFFFFFFFFFFFFFFFF AND PUSH20 0xFFFFFFFFFFFFFFFFFFFFFFFFFFFFFFFFFFFFFFFF AND DUP2 MSTORE PUSH1 0x20 ADD SWAP1 DUP2 MSTORE PUSH1 0x20 ADD PUSH1 0x0 KECCAK256 PUSH1 0x0 ADD PUSH1 0x0 SWAP1 SLOAD SWAP1 PUSH2 0x100 EXP SWAP1 DIV PUSH20 0xFFFFFFFFFFFFFFFFFFFFFFFFFFFFFFFFFFFFFFFF AND PUSH20 0xFFFFFFFFFFFFFFFFFFFFFFFFFFFFFFFFFFFFFFFF AND EQ PUSH2 0x1DB7 JUMPI PUSH1 0x40 MLOAD PUSH32 0x8C379A000000000000000000000000000000000000000000000000000000000 DUP2 MSTORE PUSH1 0x4 ADD PUSH2 0x1DAE SWAP1 PUSH2 0x51AF JUMP JUMPDEST PUSH1 0x40 MLOAD DUP1 SWAP2 SUB SWAP1 REVERT JUMPDEST PUSH1 0x40 MLOAD DUP1 PUSH1 0x80 ADD PUSH1 0x40 MSTORE DUP1 CALLER PUSH20 0xFFFFFFFFFFFFFFFFFFFFFFFFFFFFFFFFFFFFFFFF AND DUP2 MSTORE PUSH1 0x20 ADD PUSH1 0x0 DUP2 MSTORE PUSH1 0x20 ADD PUSH1 0x0 DUP2 MSTORE PUSH1 0x20 ADD PUSH1 0x0 PUSH8 0xFFFFFFFFFFFFFFFF DUP2 GT ISZERO PUSH2 0x1E07 JUMPI PUSH2 0x1E06 PUSH2 0x3F87 JUMP JUMPDEST JUMPDEST PUSH1 0x40 MLOAD SWAP1 DUP1 DUP3 MSTORE DUP1 PUSH1 0x20 MUL PUSH1 0x20 ADD DUP3 ADD PUSH1 0x40 MSTORE DUP1 ISZERO PUSH2 0x1E35 JUMPI DUP2 PUSH1 0x20 ADD PUSH1 0x20 DUP3 MUL DUP1 CALLDATASIZE DUP4 CALLDATACOPY DUP1 DUP3 ADD SWAP2 POP POP SWAP1 POP JUMPDEST POP DUP2 MSTORE POP PUSH1 0x4 PUSH1 0x0 CALLER PUSH20 0xFFFFFFFFFFFFFFFFFFFFFFFFFFFFFFFFFFFFFFFF AND PUSH20 0xFFFFFFFFFFFFFFFFFFFFFFFFFFFFFFFFFFFFFFFF AND DUP2 MSTORE PUSH1 0x20 ADD SWAP1 DUP2 MSTORE PUSH1 0x20 ADD PUSH1 0x0 KECCAK256 PUSH1 0x0 DUP3 ADD MLOAD DUP2 PUSH1 0x0 ADD PUSH1 0x0 PUSH2 0x100 EXP DUP2 SLOAD DUP2 PUSH20 0xFFFFFFFFFFFFFFFFFFFFFFFFFFFFFFFFFFFFFFFF MUL NOT AND SWAP1 DUP4 PUSH20 0xFFFFFFFFFFFFFFFFFFFFFFFFFFFFFFFFFFFFFFFF AND MUL OR SWAP1 SSTORE POP PUSH1 0x20 DUP3 ADD MLOAD DUP2 PUSH1 0x1 ADD SSTORE PUSH1 0x40 DUP3 ADD MLOAD DUP2 PUSH1 0x2 ADD SSTORE PUSH1 0x60 DUP3 ADD MLOAD DUP2 PUSH1 0x3 ADD SWAP1 DUP1 MLOAD SWAP1 PUSH1 0x20 ADD SWAP1 PUSH2 0x1EEF SWAP3 SWAP2 SWAP1 PUSH2 0x3A5D JUMP JUMPDEST POP SWAP1 POP POP CALLER PUSH20 0xFFFFFFFFFFFFFFFFFFFFFFFFFFFFFFFFFFFFFFFF AND PUSH32 0x54DB7A5CB4735E1AAC1F53DB512D3390390BB6637BD30AD4BF9FC98667D9B9B9 PUSH1 0x40 MLOAD PUSH1 0x40 MLOAD DUP1 SWAP2 SUB SWAP1 LOG2 JUMP JUMPDEST PUSH1 0x8 SLOAD DUP2 JUMP JUMPDEST PUSH1 0x0 PUSH20 0xFFFFFFFFFFFFFFFFFFFFFFFFFFFFFFFFFFFFFFFF AND PUSH1 0x5 PUSH1 0x0 CALLER PUSH20 0xFFFFFFFFFFFFFFFFFFFFFFFFFFFFFFFFFFFFFFFF AND PUSH20 0xFFFFFFFFFFFFFFFFFFFFFFFFFFFFFFFFFFFFFFFF AND DUP2 MSTORE PUSH1 0x20 ADD SWAP1 DUP2 MSTORE PUSH1 0x20 ADD PUSH1 0x0 KECCAK256 PUSH1 0x0 ADD PUSH1 0x0 SWAP1 SLOAD SWAP1 PUSH2 0x100 EXP SWAP1 DIV PUSH20 0xFFFFFFFFFFFFFFFFFFFFFFFFFFFFFFFFFFFFFFFF AND PUSH20 0xFFFFFFFFFFFFFFFFFFFFFFFFFFFFFFFFFFFFFFFF AND EQ PUSH2 0x200F JUMPI PUSH1 0x40 MLOAD PUSH32 0x8C379A000000000000000000000000000000000000000000000000000000000 DUP2 MSTORE PUSH1 0x4 ADD PUSH2 0x2006 SWAP1 PUSH2 0x521B JUMP JUMPDEST PUSH1 0x40 MLOAD DUP1 SWAP2 SUB SWAP1 REVERT JUMPDEST PUSH1 0x40 MLOAD DUP1 PUSH1 0x40 ADD PUSH1 0x40 MSTORE DUP1 CALLER PUSH20 0xFFFFFFFFFFFFFFFFFFFFFFFFFFFFFFFFFFFFFFFF AND DUP2 MSTORE PUSH1 0x20 ADD PUSH1 0x0 PUSH8 0xFFFFFFFFFFFFFFFF DUP2 GT ISZERO PUSH2 0x2051 JUMPI PUSH2 0x2050 PUSH2 0x3F87 JUMP JUMPDEST JUMPDEST PUSH1 0x40 MLOAD SWAP1 DUP1 DUP3 MSTORE DUP1 PUSH1 0x20 MUL PUSH1 0x20 ADD DUP3 ADD PUSH1 0x40 MSTORE DUP1 ISZERO PUSH2 0x207F JUMPI DUP2 PUSH1 0x20 ADD PUSH1 0x20 DUP3 MUL DUP1 CALLDATASIZE DUP4 CALLDATACOPY DUP1 DUP3 ADD SWAP2 POP POP SWAP1 POP JUMPDEST POP DUP2 MSTORE POP PUSH1 0x5 PUSH1 0x0 CALLER PUSH20 0xFFFFFFFFFFFFFFFFFFFFFFFFFFFFFFFFFFFFFFFF AND PUSH20 0xFFFFFFFFFFFFFFFFFFFFFFFFFFFFFFFFFFFFFFFF AND DUP2 MSTORE PUSH1 0x20 ADD SWAP1 DUP2 MSTORE PUSH1 0x20 ADD PUSH1 0x0 KECCAK256 PUSH1 0x0 DUP3 ADD MLOAD DUP2 PUSH1 0x0 ADD PUSH1 0x0 PUSH2 0x100 EXP DUP2 SLOAD DUP2 PUSH20 0xFFFFFFFFFFFFFFFFFFFFFFFFFFFFFFFFFFFFFFFF MUL NOT AND SWAP1 DUP4 PUSH20 0xFFFFFFFFFFFFFFFFFFFFFFFFFFFFFFFFFFFFFFFF AND MUL OR SWAP1 SSTORE POP PUSH1 0x20 DUP3 ADD MLOAD DUP2 PUSH1 0x1 ADD SWAP1 DUP1 MLOAD SWAP1 PUSH1 0x20 ADD SWAP1 PUSH2 0x2125 SWAP3 SWAP2 SWAP1 PUSH2 0x3A5D JUMP JUMPDEST POP SWAP1 POP POP CALLER PUSH20 0xFFFFFFFFFFFFFFFFFFFFFFFFFFFFFFFFFFFFFFFF AND PUSH32 0x4D97D287A8F631378031B05CB24C876085261DDAA7B8F584477370EF473FBB3D PUSH1 0x40 MLOAD PUSH1 0x40 MLOAD DUP1 SWAP2 SUB SWAP1 LOG2 JUMP JUMPDEST PUSH1 0x5 DUP2 JUMP JUMPDEST PUSH1 0x60 PUSH1 0x0 PUSH1 0x4 PUSH1 0x0 DUP5 PUSH20 0xFFFFFFFFFFFFFFFFFFFFFFFFFFFFFFFFFFFFFFFF AND PUSH20 0xFFFFFFFFFFFFFFFFFFFFFFFFFFFFFFFFFFFFFFFF AND DUP2 MSTORE PUSH1 0x20 ADD SWAP1 DUP2 MSTORE PUSH1 0x20 ADD PUSH1 0x0 KECCAK256 PUSH1 0x3 ADD DUP1 SLOAD SWAP1 POP PUSH8 0xFFFFFFFFFFFFFFFF DUP2 GT ISZERO PUSH2 0x21D6 JUMPI PUSH2 0x21D5 PUSH2 0x3F87 JUMP JUMPDEST JUMPDEST PUSH1 0x40 MLOAD SWAP1 DUP1 DUP3 MSTORE DUP1 PUSH1 0x20 MUL PUSH1 0x20 ADD DUP3 ADD PUSH1 0x40 MSTORE DUP1 ISZERO PUSH2 0x220F JUMPI DUP2 PUSH1 0x20 ADD JUMPDEST PUSH2 0x21FC PUSH2 0x3971 JUMP JUMPDEST DUP2 MSTORE PUSH1 0x20 ADD SWAP1 PUSH1 0x1 SWAP1 SUB SWAP1 DUP2 PUSH2 0x21F4 JUMPI SWAP1 POP JUMPDEST POP SWAP1 POP PUSH1 0x0 JUMPDEST PUSH1 0x4 PUSH1 0x0 DUP6 PUSH20 0xFFFFFFFFFFFFFFFFFFFFFFFFFFFFFFFFFFFFFFFF AND PUSH20 0xFFFFFFFFFFFFFFFFFFFFFFFFFFFFFFFFFFFFFFFF AND DUP2 MSTORE PUSH1 0x20 ADD SWAP1 DUP2 MSTORE PUSH1 0x20 ADD PUSH1 0x0 KECCAK256 PUSH1 0x3 ADD DUP1 SLOAD SWAP1 POP DUP2 LT ISZERO PUSH2 0x2570 JUMPI PUSH1 0x6 PUSH1 0x0 PUSH1 0x7 PUSH1 0x0 PUSH1 0x4 PUSH1 0x0 DUP10 PUSH20 0xFFFFFFFFFFFFFFFFFFFFFFFFFFFFFFFFFFFFFFFF AND PUSH20 0xFFFFFFFFFFFFFFFFFFFFFFFFFFFFFFFFFFFFFFFF AND DUP2 MSTORE PUSH1 0x20 ADD SWAP1 DUP2 MSTORE PUSH1 0x20 ADD PUSH1 0x0 KECCAK256 PUSH1 0x3 ADD DUP6 DUP2 SLOAD DUP2 LT PUSH2 0x22BE JUMPI PUSH2 0x22BD PUSH2 0x4BC7 JUMP JUMPDEST JUMPDEST SWAP1 PUSH1 0x0 MSTORE PUSH1 0x20 PUSH1 0x0 KECCAK256 ADD SLOAD DUP2 MSTORE PUSH1 0x20 ADD SWAP1 DUP2 MSTORE PUSH1 0x20 ADD PUSH1 0x0 KECCAK256 PUSH1 0x2 ADD SLOAD DUP2 MSTORE PUSH1 0x20 ADD SWAP1 DUP2 MSTORE PUSH1 0x20 ADD PUSH1 0x0 KECCAK256 PUSH1 0x40 MLOAD DUP1 PUSH2 0x120 ADD PUSH1 0x40 MSTORE SWAP1 DUP2 PUSH1 0x0 DUP3 ADD SLOAD DUP2 MSTORE PUSH1 0x20 ADD PUSH1 0x1 DUP3 ADD DUP1 SLOAD PUSH2 0x230F SWAP1 PUSH2 0x4B96 JUMP JUMPDEST DUP1 PUSH1 0x1F ADD PUSH1 0x20 DUP1 SWAP2 DIV MUL PUSH1 0x20 ADD PUSH1 0x40 MLOAD SWAP1 DUP2 ADD PUSH1 0x40 MSTORE DUP1 SWAP3 SWAP2 SWAP1 DUP2 DUP2 MSTORE PUSH1 0x20 ADD DUP3 DUP1 SLOAD PUSH2 0x233B SWAP1 PUSH2 0x4B96 JUMP JUMPDEST DUP1 ISZERO PUSH2 0x2388 JUMPI DUP1 PUSH1 0x1F LT PUSH2 0x235D JUMPI PUSH2 0x100 DUP1 DUP4 SLOAD DIV MUL DUP4 MSTORE SWAP2 PUSH1 0x20 ADD SWAP2 PUSH2 0x2388 JUMP JUMPDEST DUP3 ADD SWAP2 SWAP1 PUSH1 0x0 MSTORE PUSH1 0x20 PUSH1 0x0 KECCAK256 SWAP1 JUMPDEST DUP2 SLOAD DUP2 MSTORE SWAP1 PUSH1 0x1 ADD SWAP1 PUSH1 0x20 ADD DUP1 DUP4 GT PUSH2 0x236B JUMPI DUP3 SWAP1 SUB PUSH1 0x1F AND DUP3 ADD SWAP2 JUMPDEST POP POP POP POP POP DUP2 MSTORE PUSH1 0x20 ADD PUSH1 0x2 DUP3 ADD DUP1 SLOAD PUSH2 0x23A1 SWAP1 PUSH2 0x4B96 JUMP JUMPDEST DUP1 PUSH1 0x1F ADD PUSH1 0x20 DUP1 SWAP2 DIV MUL PUSH1 0x20 ADD PUSH1 0x40 MLOAD SWAP1 DUP2 ADD PUSH1 0x40 MSTORE DUP1 SWAP3 SWAP2 SWAP1 DUP2 DUP2 MSTORE PUSH1 0x20 ADD DUP3 DUP1 SLOAD PUSH2 0x23CD SWAP1 PUSH2 0x4B96 JUMP JUMPDEST DUP1 ISZERO PUSH2 0x241A JUMPI DUP1 PUSH1 0x1F LT PUSH2 0x23EF JUMPI PUSH2 0x100 DUP1 DUP4 SLOAD DIV MUL DUP4 MSTORE SWAP2 PUSH1 0x20 ADD SWAP2 PUSH2 0x241A JUMP JUMPDEST DUP3 ADD SWAP2 SWAP1 PUSH1 0x0 MSTORE PUSH1 0x20 PUSH1 0x0 KECCAK256 SWAP1 JUMPDEST DUP2 SLOAD DUP2 MSTORE SWAP1 PUSH1 0x1 ADD SWAP1 PUSH1 0x20 ADD DUP1 DUP4 GT PUSH2 0x23FD JUMPI DUP3 SWAP1 SUB PUSH1 0x1F AND DUP3 ADD SWAP2 JUMPDEST POP POP POP POP POP DUP2 MSTORE PUSH1 0x20 ADD PUSH1 0x3 DUP3 ADD SLOAD DUP2 MSTORE PUSH1 0x20 ADD PUSH1 0x4 DUP3 ADD PUSH1 0x0 SWAP1 SLOAD SWAP1 PUSH2 0x100 EXP SWAP1 DIV PUSH20 0xFFFFFFFFFFFFFFFFFFFFFFFFFFFFFFFFFFFFFFFF AND PUSH20 0xFFFFFFFFFFFFFFFFFFFFFFFFFFFFFFFFFFFFFFFF AND PUSH20 0xFFFFFFFFFFFFFFFFFFFFFFFFFFFFFFFFFFFFFFFF AND DUP2 MSTORE PUSH1 0x20 ADD PUSH1 0x5 DUP3 ADD SLOAD DUP2 MSTORE PUSH1 0x20 ADD PUSH1 0x6 DUP3 ADD SLOAD DUP2 MSTORE PUSH1 0x20 ADD PUSH1 0x7 DUP3 ADD SLOAD DUP2 MSTORE PUSH1 0x20 ADD PUSH1 0x8 DUP3 ADD DUP1 SLOAD PUSH2 0x24B1 SWAP1 PUSH2 0x4B96 JUMP JUMPDEST DUP1 PUSH1 0x1F ADD PUSH1 0x20 DUP1 SWAP2 DIV MUL PUSH1 0x20 ADD PUSH1 0x40 MLOAD SWAP1 DUP2 ADD PUSH1 0x40 MSTORE DUP1 SWAP3 SWAP2 SWAP1 DUP2 DUP2 MSTORE PUSH1 0x20 ADD DUP3 DUP1 SLOAD PUSH2 0x24DD SWAP1 PUSH2 0x4B96 JUMP JUMPDEST DUP1 ISZERO PUSH2 0x252A JUMPI DUP1 PUSH1 0x1F LT PUSH2 0x24FF JUMPI PUSH2 0x100 DUP1 DUP4 SLOAD DIV MUL DUP4 MSTORE SWAP2 PUSH1 0x20 ADD SWAP2 PUSH2 0x252A JUMP JUMPDEST DUP3 ADD SWAP2 SWAP1 PUSH1 0x0 MSTORE PUSH1 0x20 PUSH1 0x0 KECCAK256 SWAP1 JUMPDEST DUP2 SLOAD DUP2 MSTORE SWAP1 PUSH1 0x1 ADD SWAP1 PUSH1 0x20 ADD DUP1 DUP4 GT PUSH2 0x250D JUMPI DUP3 SWAP1 SUB PUSH1 0x1F AND DUP3 ADD SWAP2 JUMPDEST POP POP POP POP POP DUP2 MSTORE POP POP DUP3 PUSH1 0x1 DUP4 PUSH2 0x2541 SWAP2 SWAP1 PUSH2 0x4B33 JUMP JUMPDEST DUP2 MLOAD DUP2 LT PUSH2 0x2552 JUMPI PUSH2 0x2551 PUSH2 0x4BC7 JUMP JUMPDEST JUMPDEST PUSH1 0x20 MUL PUSH1 0x20 ADD ADD DUP2 SWAP1 MSTORE POP DUP1 DUP1 PUSH2 0x2568 SWAP1 PUSH2 0x4BF6 JUMP JUMPDEST SWAP2 POP POP PUSH2 0x2215 JUMP JUMPDEST POP DUP1 SWAP2 POP POP SWAP2 SWAP1 POP JUMP JUMPDEST PUSH8 0xDE0B6B3A7640000 DUP2 JUMP JUMPDEST PUSH1 0x5 PUSH1 0x20 MSTORE DUP1 PUSH1 0x0 MSTORE PUSH1 0x40 PUSH1 0x0 KECCAK256 PUSH1 0x0 SWAP2 POP SWAP1 POP DUP1 PUSH1 0x0 ADD PUSH1 0x0 SWAP1 SLOAD SWAP1 PUSH2 0x100 EXP SWAP1 DIV PUSH20 0xFFFFFFFFFFFFFFFFFFFFFFFFFFFFFFFFFFFFFFFF AND SWAP1 POP DUP2 JUMP JUMPDEST PUSH1 0x0 PUSH1 0x60 PUSH1 0x0 PUSH32 0x0 PUSH1 0x2 SLOAD TIMESTAMP PUSH2 0x25F9 SWAP2 SWAP1 PUSH2 0x4B33 JUMP JUMPDEST GT SWAP1 POP PUSH1 0x0 PUSH1 0x64 PUSH8 0xFFFFFFFFFFFFFFFF DUP2 GT ISZERO PUSH2 0x2619 JUMPI PUSH2 0x2618 PUSH2 0x3F87 JUMP JUMPDEST JUMPDEST PUSH1 0x40 MLOAD SWAP1 DUP1 DUP3 MSTORE DUP1 PUSH1 0x20 MUL PUSH1 0x20 ADD DUP3 ADD PUSH1 0x40 MSTORE DUP1 ISZERO PUSH2 0x2647 JUMPI DUP2 PUSH1 0x20 ADD PUSH1 0x20 DUP3 MUL DUP1 CALLDATASIZE DUP4 CALLDATACOPY DUP1 DUP3 ADD SWAP2 POP POP SWAP1 POP JUMPDEST POP SWAP1 POP PUSH1 0x0 PUSH1 0x64 PUSH8 0xFFFFFFFFFFFFFFFF DUP2 GT ISZERO PUSH2 0x2667 JUMPI PUSH2 0x2666 PUSH2 0x3F87 JUMP JUMPDEST JUMPDEST PUSH1 0x40 MLOAD SWAP1 DUP1 DUP3 MSTORE DUP1 PUSH1 0x20 MUL PUSH1 0x20 ADD DUP3 ADD PUSH1 0x40 MSTORE DUP1 ISZERO PUSH2 0x2695 JUMPI DUP2 PUSH1 0x20 ADD PUSH1 0x20 DUP3 MUL DUP1 CALLDATASIZE DUP4 CALLDATACOPY DUP1 DUP3 ADD SWAP2 POP POP SWAP1 POP JUMPDEST POP SWAP1 POP PUSH1 0x0 DUP1 PUSH1 0x64 PUSH1 0x9 SLOAD PUSH2 0x26AA SWAP2 SWAP1 PUSH2 0x4B33 JUMP JUMPDEST GT PUSH2 0x26B6 JUMPI PUSH1 0x0 PUSH2 0x26C6 JUMP JUMPDEST PUSH1 0x64 PUSH1 0x9 SLOAD PUSH2 0x26C5 SWAP2 SWAP1 PUSH2 0x4B33 JUMP JUMPDEST JUMPDEST SWAP1 POP PUSH1 0x0 DUP2 SWAP1 POP JUMPDEST PUSH1 0x9 SLOAD DUP2 LT ISZERO PUSH2 0x281F JUMPI PUSH1 0x7 PUSH1 0x0 DUP3 DUP2 MSTORE PUSH1 0x20 ADD SWAP1 DUP2 MSTORE PUSH1 0x20 ADD PUSH1 0x0 KECCAK256 PUSH1 0x1 ADD PUSH1 0x0 SWAP1 SLOAD SWAP1 PUSH2 0x100 EXP SWAP1 DIV PUSH20 0xFFFFFFFFFFFFFFFFFFFFFFFFFFFFFFFFFFFFFFFF AND DUP5 PUSH1 0x1 DUP4 PUSH2 0x271D SWAP2 SWAP1 PUSH2 0x4B33 JUMP JUMPDEST DUP2 MLOAD DUP2 LT PUSH2 0x272E JUMPI PUSH2 0x272D PUSH2 0x4BC7 JUMP JUMPDEST JUMPDEST PUSH1 0x20 MUL PUSH1 0x20 ADD ADD SWAP1 PUSH20 0xFFFFFFFFFFFFFFFFFFFFFFFFFFFFFFFFFFFFFFFF AND SWAP1 DUP2 PUSH20 0xFFFFFFFFFFFFFFFFFFFFFFFFFFFFFFFFFFFFFFFF AND DUP2 MSTORE POP POP PUSH1 0x4 PUSH1 0x0 PUSH1 0x7 PUSH1 0x0 DUP5 DUP2 MSTORE PUSH1 0x20 ADD SWAP1 DUP2 MSTORE PUSH1 0x20 ADD PUSH1 0x0 KECCAK256 PUSH1 0x1 ADD PUSH1 0x0 SWAP1 SLOAD SWAP1 PUSH2 0x100 EXP SWAP1 DIV PUSH20 0xFFFFFFFFFFFFFFFFFFFFFFFFFFFFFFFFFFFFFFFF AND PUSH20 0xFFFFFFFFFFFFFFFFFFFFFFFFFFFFFFFFFFFFFFFF AND PUSH20 0xFFFFFFFFFFFFFFFFFFFFFFFFFFFFFFFFFFFFFFFF AND DUP2 MSTORE PUSH1 0x20 ADD SWAP1 DUP2 MSTORE PUSH1 0x20 ADD PUSH1 0x0 KECCAK256 PUSH1 0x2 ADD SLOAD DUP4 PUSH1 0x1 DUP4 PUSH2 0x27EF SWAP2 SWAP1 PUSH2 0x4B33 JUMP JUMPDEST DUP2 MLOAD DUP2 LT PUSH2 0x2800 JUMPI PUSH2 0x27FF PUSH2 0x4BC7 JUMP JUMPDEST JUMPDEST PUSH1 0x20 MUL PUSH1 0x20 ADD ADD DUP2 DUP2 MSTORE POP POP DUP1 DUP1 PUSH2 0x2817 SWAP1 PUSH2 0x4BF6 JUMP JUMPDEST SWAP2 POP POP PUSH2 0x26CE JUMP JUMPDEST POP PUSH1 0x0 JUMPDEST DUP3 MLOAD DUP2 LT ISZERO PUSH2 0x2A34 JUMPI PUSH1 0x0 JUMPDEST PUSH1 0x1 DUP5 MLOAD PUSH2 0x283D SWAP2 SWAP1 PUSH2 0x4B33 JUMP JUMPDEST DUP2 LT ISZERO PUSH2 0x2A20 JUMPI DUP4 PUSH1 0x1 DUP3 PUSH2 0x2852 SWAP2 SWAP1 PUSH2 0x523B JUMP JUMPDEST DUP2 MLOAD DUP2 LT PUSH2 0x2863 JUMPI PUSH2 0x2862 PUSH2 0x4BC7 JUMP JUMPDEST JUMPDEST PUSH1 0x20 MUL PUSH1 0x20 ADD ADD MLOAD DUP5 DUP3 DUP2 MLOAD DUP2 LT PUSH2 0x287E JUMPI PUSH2 0x287D PUSH2 0x4BC7 JUMP JUMPDEST JUMPDEST PUSH1 0x20 MUL PUSH1 0x20 ADD ADD MLOAD LT ISZERO PUSH2 0x2A0D JUMPI PUSH1 0x0 DUP5 DUP3 DUP2 MLOAD DUP2 LT PUSH2 0x28A1 JUMPI PUSH2 0x28A0 PUSH2 0x4BC7 JUMP JUMPDEST JUMPDEST PUSH1 0x20 MUL PUSH1 0x20 ADD ADD MLOAD SWAP1 POP DUP5 PUSH1 0x1 DUP4 PUSH2 0x28B9 SWAP2 SWAP1 PUSH2 0x523B JUMP JUMPDEST DUP2 MLOAD DUP2 LT PUSH2 0x28CA JUMPI PUSH2 0x28C9 PUSH2 0x4BC7 JUMP JUMPDEST JUMPDEST PUSH1 0x20 MUL PUSH1 0x20 ADD ADD MLOAD DUP6 DUP4 DUP2 MLOAD DUP2 LT PUSH2 0x28E5 JUMPI PUSH2 0x28E4 PUSH2 0x4BC7 JUMP JUMPDEST JUMPDEST PUSH1 0x20 MUL PUSH1 0x20 ADD ADD DUP2 DUP2 MSTORE POP POP DUP1 DUP6 PUSH1 0x1 DUP5 PUSH2 0x2900 SWAP2 SWAP1 PUSH2 0x523B JUMP JUMPDEST DUP2 MLOAD DUP2 LT PUSH2 0x2911 JUMPI PUSH2 0x2910 PUSH2 0x4BC7 JUMP JUMPDEST JUMPDEST PUSH1 0x20 MUL PUSH1 0x20 ADD ADD DUP2 DUP2 MSTORE POP POP PUSH1 0x0 DUP7 DUP4 DUP2 MLOAD DUP2 LT PUSH2 0x2932 JUMPI PUSH2 0x2931 PUSH2 0x4BC7 JUMP JUMPDEST JUMPDEST PUSH1 0x20 MUL PUSH1 0x20 ADD ADD MLOAD SWAP1 POP DUP7 PUSH1 0x1 DUP5 PUSH2 0x294A SWAP2 SWAP1 PUSH2 0x523B JUMP JUMPDEST DUP2 MLOAD DUP2 LT PUSH2 0x295B JUMPI PUSH2 0x295A PUSH2 0x4BC7 JUMP JUMPDEST JUMPDEST PUSH1 0x20 MUL PUSH1 0x20 ADD ADD MLOAD DUP8 DUP5 DUP2 MLOAD DUP2 LT PUSH2 0x2976 JUMPI PUSH2 0x2975 PUSH2 0x4BC7 JUMP JUMPDEST JUMPDEST PUSH1 0x20 MUL PUSH1 0x20 ADD ADD SWAP1 PUSH20 0xFFFFFFFFFFFFFFFFFFFFFFFFFFFFFFFFFFFFFFFF AND SWAP1 DUP2 PUSH20 0xFFFFFFFFFFFFFFFFFFFFFFFFFFFFFFFFFFFFFFFF AND DUP2 MSTORE POP POP DUP1 DUP8 PUSH1 0x1 DUP6 PUSH2 0x29BF SWAP2 SWAP1 PUSH2 0x523B JUMP JUMPDEST DUP2 MLOAD DUP2 LT PUSH2 0x29D0 JUMPI PUSH2 0x29CF PUSH2 0x4BC7 JUMP JUMPDEST JUMPDEST PUSH1 0x20 MUL PUSH1 0x20 ADD ADD SWAP1 PUSH20 0xFFFFFFFFFFFFFFFFFFFFFFFFFFFFFFFFFFFFFFFF AND SWAP1 DUP2 PUSH20 0xFFFFFFFFFFFFFFFFFFFFFFFFFFFFFFFFFFFFFFFF AND DUP2 MSTORE POP POP POP POP JUMPDEST DUP1 DUP1 PUSH2 0x2A18 SWAP1 PUSH2 0x4BF6 JUMP JUMPDEST SWAP2 POP POP PUSH2 0x282F JUMP JUMPDEST POP DUP1 DUP1 PUSH2 0x2A2C SWAP1 PUSH2 0x4BF6 JUMP JUMPDEST SWAP2 POP POP PUSH2 0x2823 JUMP JUMPDEST POP DUP4 SWAP6 POP DUP3 PUSH1 0x40 MLOAD PUSH1 0x20 ADD PUSH2 0x2A49 SWAP2 SWAP1 PUSH2 0x48A2 JUMP JUMPDEST PUSH1 0x40 MLOAD PUSH1 0x20 DUP2 DUP4 SUB SUB DUP2 MSTORE SWAP1 PUSH1 0x40 MSTORE SWAP5 POP POP POP POP POP SWAP2 POP SWAP2 JUMP JUMPDEST PUSH1 0x1 PUSH1 0x0 SWAP1 SLOAD SWAP1 PUSH2 0x100 EXP SWAP1 DIV PUSH20 0xFFFFFFFFFFFFFFFFFFFFFFFFFFFFFFFFFFFFFFFF AND DUP2 JUMP JUMPDEST PUSH1 0x6 PUSH1 0x20 MSTORE DUP1 PUSH1 0x0 MSTORE PUSH1 0x40 PUSH1 0x0 KECCAK256 PUSH1 0x0 SWAP2 POP SWAP1 POP DUP1 PUSH1 0x0 ADD SLOAD SWAP1 DUP1 PUSH1 0x1 ADD DUP1 SLOAD PUSH2 0x2AB2 SWAP1 PUSH2 0x4B96 JUMP JUMPDEST DUP1 PUSH1 0x1F ADD PUSH1 0x20 DUP1 SWAP2 DIV MUL PUSH1 0x20 ADD PUSH1 0x40 MLOAD SWAP1 DUP2 ADD PUSH1 0x40 MSTORE DUP1 SWAP3 SWAP2 SWAP1 DUP2 DUP2 MSTORE PUSH1 0x20 ADD DUP3 DUP1 SLOAD PUSH2 0x2ADE SWAP1 PUSH2 0x4B96 JUMP JUMPDEST DUP1 ISZERO PUSH2 0x2B2B JUMPI DUP1 PUSH1 0x1F LT PUSH2 0x2B00 JUMPI PUSH2 0x100 DUP1 DUP4 SLOAD DIV MUL DUP4 MSTORE SWAP2 PUSH1 0x20 ADD SWAP2 PUSH2 0x2B2B JUMP JUMPDEST DUP3 ADD SWAP2 SWAP1 PUSH1 0x0 MSTORE PUSH1 0x20 PUSH1 0x0 KECCAK256 SWAP1 JUMPDEST DUP2 SLOAD DUP2 MSTORE SWAP1 PUSH1 0x1 ADD SWAP1 PUSH1 0x20 ADD DUP1 DUP4 GT PUSH2 0x2B0E JUMPI DUP3 SWAP1 SUB PUSH1 0x1F AND DUP3 ADD SWAP2 JUMPDEST POP POP POP POP POP SWAP1 DUP1 PUSH1 0x2 ADD DUP1 SLOAD PUSH2 0x2B40 SWAP1 PUSH2 0x4B96 JUMP JUMPDEST DUP1 PUSH1 0x1F ADD PUSH1 0x20 DUP1 SWAP2 DIV MUL PUSH1 0x20 ADD PUSH1 0x40 MLOAD SWAP1 DUP2 ADD PUSH1 0x40 MSTORE DUP1 SWAP3 SWAP2 SWAP1 DUP2 DUP2 MSTORE PUSH1 0x20 ADD DUP3 DUP1 SLOAD PUSH2 0x2B6C SWAP1 PUSH2 0x4B96 JUMP JUMPDEST DUP1 ISZERO PUSH2 0x2BB9 JUMPI DUP1 PUSH1 0x1F LT PUSH2 0x2B8E JUMPI PUSH2 0x100 DUP1 DUP4 SLOAD DIV MUL DUP4 MSTORE SWAP2 PUSH1 0x20 ADD SWAP2 PUSH2 0x2BB9 JUMP JUMPDEST DUP3 ADD SWAP2 SWAP1 PUSH1 0x0 MSTORE PUSH1 0x20 PUSH1 0x0 KECCAK256 SWAP1 JUMPDEST DUP2 SLOAD DUP2 MSTORE SWAP1 PUSH1 0x1 ADD SWAP1 PUSH1 0x20 ADD DUP1 DUP4 GT PUSH2 0x2B9C JUMPI DUP3 SWAP1 SUB PUSH1 0x1F AND DUP3 ADD SWAP2 JUMPDEST POP POP POP POP POP SWAP1 DUP1 PUSH1 0x3 ADD SLOAD SWAP1 DUP1 PUSH1 0x4 ADD PUSH1 0x0 SWAP1 SLOAD SWAP1 PUSH2 0x100 EXP SWAP1 DIV PUSH20 0xFFFFFFFFFFFFFFFFFFFFFFFFFFFFFFFFFFFFFFFF AND SWAP1 DUP1 PUSH1 0x5 ADD SLOAD SWAP1 DUP1 PUSH1 0x6 ADD SLOAD SWAP1 DUP1 PUSH1 0x7 ADD SLOAD SWAP1 DUP1 PUSH1 0x8 ADD DUP1 SLOAD PUSH2 0x2C0C SWAP1 PUSH2 0x4B96 JUMP JUMPDEST DUP1 PUSH1 0x1F ADD PUSH1 0x20 DUP1 SWAP2 DIV MUL PUSH1 0x20 ADD PUSH1 0x40 MLOAD SWAP1 DUP2 ADD PUSH1 0x40 MSTORE DUP1 SWAP3 SWAP2 SWAP1 DUP2 DUP2 MSTORE PUSH1 0x20 ADD DUP3 DUP1 SLOAD PUSH2 0x2C38 SWAP1 PUSH2 0x4B96 JUMP JUMPDEST DUP1 ISZERO PUSH2 0x2C85 JUMPI DUP1 PUSH1 0x1F LT PUSH2 0x2C5A JUMPI PUSH2 0x100 DUP1 DUP4 SLOAD DIV MUL DUP4 MSTORE SWAP2 PUSH1 0x20 ADD SWAP2 PUSH2 0x2C85 JUMP JUMPDEST DUP3 ADD SWAP2 SWAP1 PUSH1 0x0 MSTORE PUSH1 0x20 PUSH1 0x0 KECCAK256 SWAP1 JUMPDEST DUP2 SLOAD DUP2 MSTORE SWAP1 PUSH1 0x1 ADD SWAP1 PUSH1 0x20 ADD DUP1 DUP4 GT PUSH2 0x2C68 JUMPI DUP3 SWAP1 SUB PUSH1 0x1F AND DUP3 ADD SWAP2 JUMPDEST POP POP POP POP POP SWAP1 POP DUP10 JUMP JUMPDEST PUSH1 0x0 DUP1 SLOAD SWAP1 PUSH2 0x100 EXP SWAP1 DIV PUSH20 0xFFFFFFFFFFFFFFFFFFFFFFFFFFFFFFFFFFFFFFFF AND PUSH20 0xFFFFFFFFFFFFFFFFFFFFFFFFFFFFFFFFFFFFFFFF AND CALLER PUSH20 0xFFFFFFFFFFFFFFFFFFFFFFFFFFFFFFFFFFFFFFFF AND EQ PUSH2 0x2D1D JUMPI PUSH1 0x40 MLOAD PUSH32 0x8C379A000000000000000000000000000000000000000000000000000000000 DUP2 MSTORE PUSH1 0x4 ADD PUSH2 0x2D14 SWAP1 PUSH2 0x4CB0 JUMP JUMPDEST PUSH1 0x40 MLOAD DUP1 SWAP2 SUB SWAP1 REVERT JUMPDEST PUSH1 0x0 DUP1 SLOAD SWAP1 PUSH2 0x100 EXP SWAP1 DIV PUSH20 0xFFFFFFFFFFFFFFFFFFFFFFFFFFFFFFFFFFFFFFFF AND PUSH20 0xFFFFFFFFFFFFFFFFFFFFFFFFFFFFFFFFFFFFFFFF AND PUSH2 0x8FC DUP3 SWAP1 DUP2 ISZERO MUL SWAP1 PUSH1 0x40 MLOAD PUSH1 0x0 PUSH1 0x40 MLOAD DUP1 DUP4 SUB DUP2 DUP6 DUP9 DUP9 CALL SWAP4 POP POP POP POP ISZERO DUP1 ISZERO PUSH2 0x2D83 JUMPI RETURNDATASIZE PUSH1 0x0 DUP1 RETURNDATACOPY RETURNDATASIZE PUSH1 0x0 REVERT JUMPDEST POP CALLER PUSH20 0xFFFFFFFFFFFFFFFFFFFFFFFFFFFFFFFFFFFFFFFF AND PUSH32 0x6EFAC6899EE41C0FAB9566F807FEE81972320248574EF8ADEAC6599EA7EAE246 DUP3 PUSH1 0x40 MLOAD PUSH2 0x2DCA SWAP2 SWAP1 PUSH2 0x3DF4 JUMP JUMPDEST PUSH1 0x40 MLOAD DUP1 SWAP2 SUB SWAP1 LOG2 POP JUMP JUMPDEST PUSH32 0x0 DUP2 JUMP JUMPDEST PUSH1 0x7 PUSH1 0x20 MSTORE DUP1 PUSH1 0x0 MSTORE PUSH1 0x40 PUSH1 0x0 KECCAK256 PUSH1 0x0 SWAP2 POP SWAP1 POP DUP1 PUSH1 0x0 ADD SLOAD SWAP1 DUP1 PUSH1 0x1 ADD PUSH1 0x0 SWAP1 SLOAD SWAP1 PUSH2 0x100 EXP SWAP1 DIV PUSH20 0xFFFFFFFFFFFFFFFFFFFFFFFFFFFFFFFFFFFFFFFF AND SWAP1 DUP1 PUSH1 0x2 ADD SLOAD SWAP1 DUP1 PUSH1 0x3 ADD SLOAD SWAP1 POP DUP5 JUMP JUMPDEST PUSH1 0x4 PUSH1 0x20 MSTORE DUP1 PUSH1 0x0 MSTORE PUSH1 0x40 PUSH1 0x0 KECCAK256 PUSH1 0x0 SWAP2 POP SWAP1 POP DUP1 PUSH1 0x0 ADD PUSH1 0x0 SWAP1 SLOAD SWAP1 PUSH2 0x100 EXP SWAP1 DIV PUSH20 0xFFFFFFFFFFFFFFFFFFFFFFFFFFFFFFFFFFFFFFFF AND SWAP1 DUP1 PUSH1 0x1 ADD SLOAD SWAP1 DUP1 PUSH1 0x2 ADD SLOAD SWAP1 POP DUP4 JUMP JUMPDEST PUSH1 0x0 PUSH20 0xFFFFFFFFFFFFFFFFFFFFFFFFFFFFFFFFFFFFFFFF AND PUSH1 0x5 PUSH1 0x0 CALLER PUSH20 0xFFFFFFFFFFFFFFFFFFFFFFFFFFFFFFFFFFFFFFFF AND PUSH20 0xFFFFFFFFFFFFFFFFFFFFFFFFFFFFFFFFFFFFFFFF AND DUP2 MSTORE PUSH1 0x20 ADD SWAP1 DUP2 MSTORE PUSH1 0x20 ADD PUSH1 0x0 KECCAK256 PUSH1 0x0 ADD PUSH1 0x0 SWAP1 SLOAD SWAP1 PUSH2 0x100 EXP SWAP1 DIV PUSH20 0xFFFFFFFFFFFFFFFFFFFFFFFFFFFFFFFFFFFFFFFF AND PUSH20 0xFFFFFFFFFFFFFFFFFFFFFFFFFFFFFFFFFFFFFFFF AND SUB PUSH2 0x2F64 JUMPI PUSH1 0x40 MLOAD PUSH32 0x8C379A000000000000000000000000000000000000000000000000000000000 DUP2 MSTORE PUSH1 0x4 ADD PUSH2 0x2F5B SWAP1 PUSH2 0x52E1 JUMP JUMPDEST PUSH1 0x40 MLOAD DUP1 SWAP2 SUB SWAP1 REVERT JUMPDEST PUSH1 0x40 MLOAD DUP1 PUSH2 0x120 ADD PUSH1 0x40 MSTORE DUP1 PUSH1 0x8 SLOAD DUP2 MSTORE PUSH1 0x20 ADD DUP9 DUP2 MSTORE PUSH1 0x20 ADD DUP8 DUP2 MSTORE PUSH1 0x20 ADD DUP7 DUP2 MSTORE PUSH1 0x20 ADD CALLER PUSH20 0xFFFFFFFFFFFFFFFFFFFFFFFFFFFFFFFFFFFFFFFF AND DUP2 MSTORE PUSH1 0x20 ADD DUP6 DUP2 MSTORE PUSH1 0x20 ADD DUP5 DUP2 MSTORE PUSH1 0x20 ADD DUP4 DUP2 MSTORE PUSH1 0x20 ADD DUP3 DUP2 MSTORE POP PUSH1 0x6 PUSH1 0x0 PUSH1 0x8 SLOAD DUP2 MSTORE PUSH1 0x20 ADD SWAP1 DUP2 MSTORE PUSH1 0x20 ADD PUSH1 0x0 KECCAK256 PUSH1 0x0 DUP3 ADD MLOAD DUP2 PUSH1 0x0 ADD SSTORE PUSH1 0x20 DUP3 ADD MLOAD DUP2 PUSH1 0x1 ADD SWAP1 DUP2 PUSH2 0x2FF0 SWAP2 SWAP1 PUSH2 0x54A3 JUMP JUMPDEST POP PUSH1 0x40 DUP3 ADD MLOAD DUP2 PUSH1 0x2 ADD SWAP1 DUP2 PUSH2 0x3006 SWAP2 SWAP1 PUSH2 0x54A3 JUMP JUMPDEST POP PUSH1 0x60 DUP3 ADD MLOAD DUP2 PUSH1 0x3 ADD SSTORE PUSH1 0x80 DUP3 ADD MLOAD DUP2 PUSH1 0x4 ADD PUSH1 0x0 PUSH2 0x100 EXP DUP2 SLOAD DUP2 PUSH20 0xFFFFFFFFFFFFFFFFFFFFFFFFFFFFFFFFFFFFFFFF MUL NOT AND SWAP1 DUP4 PUSH20 0xFFFFFFFFFFFFFFFFFFFFFFFFFFFFFFFFFFFFFFFF AND MUL OR SWAP1 SSTORE POP PUSH1 0xA0 DUP3 ADD MLOAD DUP2 PUSH1 0x5 ADD SSTORE PUSH1 0xC0 DUP3 ADD MLOAD DUP2 PUSH1 0x6 ADD SSTORE PUSH1 0xE0 DUP3 ADD MLOAD DUP2 PUSH1 0x7 ADD SSTORE PUSH2 0x100 DUP3 ADD MLOAD DUP2 PUSH1 0x8 ADD SWAP1 DUP2 PUSH2 0x308C SWAP2 SWAP1 PUSH2 0x54A3 JUMP JUMPDEST POP SWAP1 POP POP PUSH1 0x5 PUSH1 0x0 CALLER PUSH20 0xFFFFFFFFFFFFFFFFFFFFFFFFFFFFFFFFFFFFFFFF AND PUSH20 0xFFFFFFFFFFFFFFFFFFFFFFFFFFFFFFFFFFFFFFFF AND DUP2 MSTORE PUSH1 0x20 ADD SWAP1 DUP2 MSTORE PUSH1 0x20 ADD PUSH1 0x0 KECCAK256 PUSH1 0x1 ADD PUSH1 0x8 SLOAD SWAP1 DUP1 PUSH1 0x1 DUP2 SLOAD ADD DUP1 DUP3 SSTORE DUP1 SWAP2 POP POP PUSH1 0x1 SWAP1 SUB SWAP1 PUSH1 0x0 MSTORE PUSH1 0x20 PUSH1 0x0 KECCAK256 ADD PUSH1 0x0 SWAP1 SWAP2 SWAP1 SWAP2 SWAP1 SWAP2 POP SSTORE CALLER PUSH20 0xFFFFFFFFFFFFFFFFFFFFFFFFFFFFFFFFFFFFFFFF AND PUSH1 0x8 SLOAD PUSH32 0xEF311EEC1D40202FEE1909AB585DF5E024DF1930DC6BBA97722D1E60E91C01F7 DUP10 DUP8 PUSH1 0x40 MLOAD PUSH2 0x3146 SWAP3 SWAP2 SWAP1 PUSH2 0x5575 JUMP JUMPDEST PUSH1 0x40 MLOAD DUP1 SWAP2 SUB SWAP1 LOG3 PUSH1 0x8 PUSH1 0x0 DUP2 SLOAD DUP1 SWAP3 SWAP2 SWAP1 PUSH2 0x3161 SWAP1 PUSH2 0x4BF6 JUMP JUMPDEST SWAP2 SWAP1 POP SSTORE POP POP POP POP POP POP POP POP JUMP JUMPDEST PUSH1 0x3 DUP2 DUP2 SLOAD DUP2 LT PUSH2 0x317F JUMPI PUSH1 0x0 DUP1 REVERT JUMPDEST SWAP1 PUSH1 0x0 MSTORE PUSH1 0x20 PUSH1 0x0 KECCAK256 ADD PUSH1 0x0 SWAP2 POP SLOAD SWAP1 PUSH2 0x100 EXP SWAP1 DIV PUSH20 0xFFFFFFFFFFFFFFFFFFFFFFFFFFFFFFFFFFFFFFFF AND DUP2 JUMP JUMPDEST PUSH1 0x60 PUSH1 0x3 DUP1 SLOAD DUP1 PUSH1 0x20 MUL PUSH1 0x20 ADD PUSH1 0x40 MLOAD SWAP1 DUP2 ADD PUSH1 0x40 MSTORE DUP1 SWAP3 SWAP2 SWAP1 DUP2 DUP2 MSTORE PUSH1 0x20 ADD DUP3 DUP1 SLOAD DUP1 ISZERO PUSH2 0x3232 JUMPI PUSH1 0x20 MUL DUP3 ADD SWAP2 SWAP1 PUSH1 0x0 MSTORE PUSH1 0x20 PUSH1 0x0 KECCAK256 SWAP1 JUMPDEST DUP2 PUSH1 0x0 SWAP1 SLOAD SWAP1 PUSH2 0x100 EXP SWAP1 DIV PUSH20 0xFFFFFFFFFFFFFFFFFFFFFFFFFFFFFFFFFFFFFFFF AND PUSH20 0xFFFFFFFFFFFFFFFFFFFFFFFFFFFFFFFFFFFFFFFF AND DUP2 MSTORE PUSH1 0x20 ADD SWAP1 PUSH1 0x1 ADD SWAP1 DUP1 DUP4 GT PUSH2 0x31E8 JUMPI JUMPDEST POP POP POP POP POP SWAP1 POP SWAP1 JUMP JUMPDEST PUSH1 0xB PUSH1 0x20 MSTORE DUP1 PUSH1 0x0 MSTORE PUSH1 0x40 PUSH1 0x0 KECCAK256 PUSH1 0x0 SWAP2 POP SWAP1 POP SLOAD DUP2 JUMP JUMPDEST PUSH1 0xA PUSH1 0x20 MSTORE DUP1 PUSH1 0x0 MSTORE PUSH1 0x40 PUSH1 0x0 KECCAK256 PUSH1 0x0 SWAP2 POP SWAP1 POP SLOAD DUP2 JUMP JUMPDEST PUSH1 0x0 PUSH20 0xFFFFFFFFFFFFFFFFFFFFFFFFFFFFFFFFFFFFFFFF AND PUSH1 0x5 PUSH1 0x0 CALLER PUSH20 0xFFFFFFFFFFFFFFFFFFFFFFFFFFFFFFFFFFFFFFFF AND PUSH20 0xFFFFFFFFFFFFFFFFFFFFFFFFFFFFFFFFFFFFFFFF AND DUP2 MSTORE PUSH1 0x20 ADD SWAP1 DUP2 MSTORE PUSH1 0x20 ADD PUSH1 0x0 KECCAK256 PUSH1 0x0 ADD PUSH1 0x0 SWAP1 SLOAD SWAP1 PUSH2 0x100 EXP SWAP1 DIV PUSH20 0xFFFFFFFFFFFFFFFFFFFFFFFFFFFFFFFFFFFFFFFF AND PUSH20 0xFFFFFFFFFFFFFFFFFFFFFFFFFFFFFFFFFFFFFFFF AND SUB PUSH2 0x333D JUMPI PUSH1 0x40 MLOAD PUSH32 0x8C379A000000000000000000000000000000000000000000000000000000000 DUP2 MSTORE PUSH1 0x4 ADD PUSH2 0x3334 SWAP1 PUSH2 0x52E1 JUMP JUMPDEST PUSH1 0x40 MLOAD DUP1 SWAP2 SUB SWAP1 REVERT JUMPDEST PUSH10 0x10F0CF064DD59200000 DUP2 GT ISZERO PUSH2 0x338A JUMPI PUSH1 0x40 MLOAD PUSH32 0x8C379A000000000000000000000000000000000000000000000000000000000 DUP2 MSTORE PUSH1 0x4 ADD PUSH2 0x3381 SWAP1 PUSH2 0x55F1 JUMP JUMPDEST PUSH1 0x40 MLOAD DUP1 SWAP2 SUB SWAP1 REVERT JUMPDEST PUSH3 0x278D00 PUSH1 0xB PUSH1 0x0 CALLER PUSH20 0xFFFFFFFFFFFFFFFFFFFFFFFFFFFFFFFFFFFFFFFF AND PUSH20 0xFFFFFFFFFFFFFFFFFFFFFFFFFFFFFFFFFFFFFFFF AND DUP2 MSTORE PUSH1 0x20 ADD SWAP1 DUP2 MSTORE PUSH1 0x20 ADD PUSH1 0x0 KECCAK256 SLOAD PUSH2 0x33D8 SWAP2 SWAP1 PUSH2 0x523B JUMP JUMPDEST TIMESTAMP GT ISZERO PUSH2 0x3469 JUMPI PUSH1 0x0 PUSH1 0xA PUSH1 0x0 CALLER PUSH20 0xFFFFFFFFFFFFFFFFFFFFFFFFFFFFFFFFFFFFFFFF AND PUSH20 0xFFFFFFFFFFFFFFFFFFFFFFFFFFFFFFFFFFFFFFFF AND DUP2 MSTORE PUSH1 0x20 ADD SWAP1 DUP2 MSTORE PUSH1 0x20 ADD PUSH1 0x0 KECCAK256 DUP2 SWAP1 SSTORE POP TIMESTAMP PUSH1 0xB PUSH1 0x0 CALLER PUSH20 0xFFFFFFFFFFFFFFFFFFFFFFFFFFFFFFFFFFFFFFFF AND PUSH20 0xFFFFFFFFFFFFFFFFFFFFFFFFFFFFFFFFFFFFFFFF AND DUP2 MSTORE PUSH1 0x20 ADD SWAP1 DUP2 MSTORE PUSH1 0x20 ADD PUSH1 0x0 KECCAK256 DUP2 SWAP1 SSTORE POP JUMPDEST PUSH10 0x10F0CF064DD59200000 PUSH2 0x34C6 DUP3 PUSH1 0xA PUSH1 0x0 CALLER PUSH20 0xFFFFFFFFFFFFFFFFFFFFFFFFFFFFFFFFFFFFFFFF AND PUSH20 0xFFFFFFFFFFFFFFFFFFFFFFFFFFFFFFFFFFFFFFFF AND DUP2 MSTORE PUSH1 0x20 ADD SWAP1 DUP2 MSTORE PUSH1 0x20 ADD PUSH1 0x0 KECCAK256 SLOAD PUSH2 0x3945 SWAP1 SWAP2 SWAP1 PUSH4 0xFFFFFFFF AND JUMP JUMPDEST GT ISZERO PUSH2 0x3507 JUMPI PUSH1 0x40 MLOAD PUSH32 0x8C379A000000000000000000000000000000000000000000000000000000000 DUP2 MSTORE PUSH1 0x4 ADD PUSH2 0x34FE SWAP1 PUSH2 0x565D JUMP JUMPDEST PUSH1 0x40 MLOAD DUP1 SWAP2 SUB SWAP1 REVERT JUMPDEST PUSH1 0x1 PUSH1 0x0 SWAP1 SLOAD SWAP1 PUSH2 0x100 EXP SWAP1 DIV PUSH20 0xFFFFFFFFFFFFFFFFFFFFFFFFFFFFFFFFFFFFFFFF AND PUSH20 0xFFFFFFFFFFFFFFFFFFFFFFFFFFFFFFFFFFFFFFFF AND PUSH4 0x70A08231 ADDRESS PUSH1 0x40 MLOAD DUP3 PUSH4 0xFFFFFFFF AND PUSH1 0xE0 SHL DUP2 MSTORE PUSH1 0x4 ADD PUSH2 0x3562 SWAP2 SWAP1 PUSH2 0x42DE JUMP JUMPDEST PUSH1 0x20 PUSH1 0x40 MLOAD DUP1 DUP4 SUB DUP2 DUP7 GAS STATICCALL ISZERO DUP1 ISZERO PUSH2 0x357F JUMPI RETURNDATASIZE PUSH1 0x0 DUP1 RETURNDATACOPY RETURNDATASIZE PUSH1 0x0 REVERT JUMPDEST POP POP POP POP PUSH1 0x40 MLOAD RETURNDATASIZE PUSH1 0x1F NOT PUSH1 0x1F DUP3 ADD AND DUP3 ADD DUP1 PUSH1 0x40 MSTORE POP DUP2 ADD SWAP1 PUSH2 0x35A3 SWAP2 SWAP1 PUSH2 0x496B JUMP JUMPDEST DUP2 GT ISZERO PUSH2 0x35E5 JUMPI PUSH1 0x40 MLOAD PUSH32 0x8C379A000000000000000000000000000000000000000000000000000000000 DUP2 MSTORE PUSH1 0x4 ADD PUSH2 0x35DC SWAP1 PUSH2 0x5143 JUMP JUMPDEST PUSH1 0x40 MLOAD DUP1 SWAP2 SUB SWAP1 REVERT JUMPDEST PUSH1 0x1 PUSH1 0x0 SWAP1 SLOAD SWAP1 PUSH2 0x100 EXP SWAP1 DIV PUSH20 0xFFFFFFFFFFFFFFFFFFFFFFFFFFFFFFFFFFFFFFFF AND PUSH20 0xFFFFFFFFFFFFFFFFFFFFFFFFFFFFFFFFFFFFFFFF AND PUSH4 0xA9059CBB DUP4 DUP4 PUSH1 0x40 MLOAD DUP4 PUSH4 0xFFFFFFFF AND PUSH1 0xE0 SHL DUP2 MSTORE PUSH1 0x4 ADD PUSH2 0x3642 SWAP3 SWAP2 SWAP1 PUSH2 0x4A04 JUMP JUMPDEST PUSH1 0x20 PUSH1 0x40 MLOAD DUP1 DUP4 SUB DUP2 PUSH1 0x0 DUP8 GAS CALL ISZERO DUP1 ISZERO PUSH2 0x3661 JUMPI RETURNDATASIZE PUSH1 0x0 DUP1 RETURNDATACOPY RETURNDATASIZE PUSH1 0x0 REVERT JUMPDEST POP POP POP POP PUSH1 0x40 MLOAD RETURNDATASIZE PUSH1 0x1F NOT PUSH1 0x1F DUP3 ADD AND DUP3 ADD DUP1 PUSH1 0x40 MSTORE POP DUP2 ADD SWAP1 PUSH2 0x3685 SWAP2 SWAP1 PUSH2 0x4A42 JUMP JUMPDEST POP PUSH2 0x36D8 DUP2 PUSH1 0xA PUSH1 0x0 CALLER PUSH20 0xFFFFFFFFFFFFFFFFFFFFFFFFFFFFFFFFFFFFFFFF AND PUSH20 0xFFFFFFFFFFFFFFFFFFFFFFFFFFFFFFFFFFFFFFFF AND DUP2 MSTORE PUSH1 0x20 ADD SWAP1 DUP2 MSTORE PUSH1 0x20 ADD PUSH1 0x0 KECCAK256 SLOAD PUSH2 0x3945 SWAP1 SWAP2 SWAP1 PUSH4 0xFFFFFFFF AND JUMP JUMPDEST PUSH1 0xA PUSH1 0x0 CALLER PUSH20 0xFFFFFFFFFFFFFFFFFFFFFFFFFFFFFFFFFFFFFFFF AND PUSH20 0xFFFFFFFFFFFFFFFFFFFFFFFFFFFFFFFFFFFFFFFF AND DUP2 MSTORE PUSH1 0x20 ADD SWAP1 DUP2 MSTORE PUSH1 0x20 ADD PUSH1 0x0 KECCAK256 DUP2 SWAP1 SSTORE POP POP POP JUMP JUMPDEST PUSH1 0x0 DUP1 SLOAD SWAP1 PUSH2 0x100 EXP SWAP1 DIV PUSH20 0xFFFFFFFFFFFFFFFFFFFFFFFFFFFFFFFFFFFFFFFF AND DUP2 JUMP JUMPDEST PUSH10 0x10F0CF064DD59200000 DUP2 JUMP JUMPDEST PUSH1 0x0 DUP2 GT PUSH2 0x3794 JUMPI PUSH1 0x40 MLOAD PUSH32 0x8C379A000000000000000000000000000000000000000000000000000000000 DUP2 MSTORE PUSH1 0x4 ADD PUSH2 0x378B SWAP1 PUSH2 0x56C9 JUMP JUMPDEST PUSH1 0x40 MLOAD DUP1 SWAP2 SUB SWAP1 REVERT JUMPDEST PUSH1 0x0 PUSH2 0x37B1 PUSH8 0xDE0B6B3A7640000 DUP4 PUSH2 0x395B SWAP1 SWAP2 SWAP1 PUSH4 0xFFFFFFFF AND JUMP JUMPDEST SWAP1 POP PUSH1 0x1 PUSH1 0x0 SWAP1 SLOAD SWAP1 PUSH2 0x100 EXP SWAP1 DIV PUSH20 0xFFFFFFFFFFFFFFFFFFFFFFFFFFFFFFFFFFFFFFFF AND PUSH20 0xFFFFFFFFFFFFFFFFFFFFFFFFFFFFFFFFFFFFFFFF AND PUSH4 0x23B872DD CALLER ADDRESS DUP6 PUSH1 0x40 MLOAD DUP5 PUSH4 0xFFFFFFFF AND PUSH1 0xE0 SHL DUP2 MSTORE PUSH1 0x4 ADD PUSH2 0x3812 SWAP4 SWAP3 SWAP2 SWAP1 PUSH2 0x4FE8 JUMP JUMPDEST PUSH1 0x20 PUSH1 0x40 MLOAD DUP1 DUP4 SUB DUP2 PUSH1 0x0 DUP8 GAS CALL ISZERO DUP1 ISZERO PUSH2 0x3831 JUMPI RETURNDATASIZE PUSH1 0x0 DUP1 RETURNDATACOPY RETURNDATASIZE PUSH1 0x0 REVERT JUMPDEST POP POP POP POP PUSH1 0x40 MLOAD RETURNDATASIZE PUSH1 0x1F NOT PUSH1 0x1F DUP3 ADD AND DUP3 ADD DUP1 PUSH1 0x40 MSTORE POP DUP2 ADD SWAP1 PUSH2 0x3855 SWAP2 SWAP1 PUSH2 0x4A42 JUMP JUMPDEST PUSH2 0x3894 JUMPI PUSH1 0x40 MLOAD PUSH32 0x8C379A000000000000000000000000000000000000000000000000000000000 DUP2 MSTORE PUSH1 0x4 ADD PUSH2 0x388B SWAP1 PUSH2 0x4ABB JUMP JUMPDEST PUSH1 0x40 MLOAD DUP1 SWAP2 SUB SWAP1 REVERT JUMPDEST CALLER PUSH20 0xFFFFFFFFFFFFFFFFFFFFFFFFFFFFFFFFFFFFFFFF AND PUSH2 0x8FC DUP3 SWAP1 DUP2 ISZERO MUL SWAP1 PUSH1 0x40 MLOAD PUSH1 0x0 PUSH1 0x40 MLOAD DUP1 DUP4 SUB DUP2 DUP6 DUP9 DUP9 CALL SWAP4 POP POP POP POP ISZERO DUP1 ISZERO PUSH2 0x38DA JUMPI RETURNDATASIZE PUSH1 0x0 DUP1 RETURNDATACOPY RETURNDATASIZE PUSH1 0x0 REVERT JUMPDEST POP CALLER PUSH20 0xFFFFFFFFFFFFFFFFFFFFFFFFFFFFFFFFFFFFFFFF AND PUSH32 0xAE8BCD366B92D4B55D90C0CCBFD8A50A60BAE24F201C5899A989E99A3D877B93 DUP4 DUP4 PUSH1 0x40 MLOAD PUSH2 0x3923 SWAP3 SWAP2 SWAP1 PUSH2 0x4ADB JUMP JUMPDEST PUSH1 0x40 MLOAD DUP1 SWAP2 SUB SWAP1 LOG2 POP POP JUMP JUMPDEST PUSH1 0x0 DUP2 DUP4 PUSH2 0x393D SWAP2 SWAP1 PUSH2 0x4F4B JUMP JUMPDEST SWAP1 POP SWAP3 SWAP2 POP POP JUMP JUMPDEST PUSH1 0x0 DUP2 DUP4 PUSH2 0x3953 SWAP2 SWAP1 PUSH2 0x523B JUMP JUMPDEST SWAP1 POP SWAP3 SWAP2 POP POP JUMP JUMPDEST PUSH1 0x0 DUP2 DUP4 PUSH2 0x3969 SWAP2 SWAP1 PUSH2 0x4EDA JUMP JUMPDEST SWAP1 POP SWAP3 SWAP2 POP POP JUMP JUMPDEST PUSH1 0x40 MLOAD DUP1 PUSH2 0x120 ADD PUSH1 0x40 MSTORE DUP1 PUSH1 0x0 DUP2 MSTORE PUSH1 0x20 ADD PUSH1 0x60 DUP2 MSTORE PUSH1 0x20 ADD PUSH1 0x60 DUP2 MSTORE PUSH1 0x20 ADD PUSH1 0x0 DUP2 MSTORE PUSH1 0x20 ADD PUSH1 0x0 PUSH20 0xFFFFFFFFFFFFFFFFFFFFFFFFFFFFFFFFFFFFFFFF AND DUP2 MSTORE PUSH1 0x20 ADD PUSH1 0x0 DUP2 MSTORE PUSH1 0x20 ADD PUSH1 0x0 DUP2 MSTORE PUSH1 0x20 ADD PUSH1 0x0 DUP2 MSTORE PUSH1 0x20 ADD PUSH1 0x60 DUP2 MSTORE POP SWAP1 JUMP JUMPDEST DUP3 DUP1 SLOAD DUP3 DUP3 SSTORE SWAP1 PUSH1 0x0 MSTORE PUSH1 0x20 PUSH1 0x0 KECCAK256 SWAP1 DUP2 ADD SWAP3 DUP3 ISZERO PUSH2 0x3A4C JUMPI SWAP2 PUSH1 0x20 MUL DUP3 ADD JUMPDEST DUP3 DUP2 GT ISZERO PUSH2 0x3A4B JUMPI DUP3 MLOAD DUP3 PUSH1 0x0 PUSH2 0x100 EXP DUP2 SLOAD DUP2 PUSH20 0xFFFFFFFFFFFFFFFFFFFFFFFFFFFFFFFFFFFFFFFF MUL NOT AND SWAP1 DUP4 PUSH20 0xFFFFFFFFFFFFFFFFFFFFFFFFFFFFFFFFFFFFFFFF AND MUL OR SWAP1 SSTORE POP SWAP2 PUSH1 0x20 ADD SWAP2 SWAP1 PUSH1 0x1 ADD SWAP1 PUSH2 0x39F3 JUMP JUMPDEST JUMPDEST POP SWAP1 POP PUSH2 0x3A59 SWAP2 SWAP1 PUSH2 0x3AAA JUMP JUMPDEST POP SWAP1 JUMP JUMPDEST DUP3 DUP1 SLOAD DUP3 DUP3 SSTORE SWAP1 PUSH1 0x0 MSTORE PUSH1 0x20 PUSH1 0x0 KECCAK256 SWAP1 DUP2 ADD SWAP3 DUP3 ISZERO PUSH2 0x3A99 JUMPI SWAP2 PUSH1 0x20 MUL DUP3 ADD JUMPDEST DUP3 DUP2 GT ISZERO PUSH2 0x3A98 JUMPI DUP3 MLOAD DUP3 SSTORE SWAP2 PUSH1 0x20 ADD SWAP2 SWAP1 PUSH1 0x1 ADD SWAP1 PUSH2 0x3A7D JUMP JUMPDEST JUMPDEST POP SWAP1 POP PUSH2 0x3AA6 SWAP2 SWAP1 PUSH2 0x3AAA JUMP JUMPDEST POP SWAP1 JUMP JUMPDEST JUMPDEST DUP1 DUP3 GT ISZERO PUSH2 0x3AC3 JUMPI PUSH1 0x0 DUP2 PUSH1 0x0 SWAP1 SSTORE POP PUSH1 0x1 ADD PUSH2 0x3AAB JUMP JUMPDEST POP SWAP1 JUMP JUMPDEST PUSH1 0x0 DUP3 DUP3 MSTORE PUSH1 0x20 DUP3 ADD SWAP1 POP SWAP3 SWAP2 POP POP JUMP JUMPDEST PUSH32 0x4F7065726174696F6E206E6F7420737570706F72746564000000000000000000 PUSH1 0x0 DUP3 ADD MSTORE POP JUMP JUMPDEST PUSH1 0x0 PUSH2 0x3B0E PUSH1 0x17 DUP4 PUSH2 0x3AC7 JUMP JUMPDEST SWAP2 POP PUSH2 0x3B19 DUP3 PUSH2 0x3AD8 JUMP JUMPDEST PUSH1 0x20 DUP3 ADD SWAP1 POP SWAP2 SWAP1 POP JUMP JUMPDEST PUSH1 0x0 PUSH1 0x20 DUP3 ADD SWAP1 POP DUP2 DUP2 SUB PUSH1 0x0 DUP4 ADD MSTORE PUSH2 0x3B3D DUP2 PUSH2 0x3B01 JUMP JUMPDEST SWAP1 POP SWAP2 SWAP1 POP JUMP JUMPDEST PUSH1 0x0 DUP2 MLOAD SWAP1 POP SWAP2 SWAP1 POP JUMP JUMPDEST PUSH1 0x0 DUP3 DUP3 MSTORE PUSH1 0x20 DUP3 ADD SWAP1 POP SWAP3 SWAP2 POP POP JUMP JUMPDEST PUSH1 0x0 DUP2 SWAP1 POP PUSH1 0x20 DUP3 ADD SWAP1 POP SWAP2 SWAP1 POP JUMP JUMPDEST PUSH1 0x0 DUP2 SWAP1 POP SWAP2 SWAP1 POP JUMP JUMPDEST PUSH2 0x3B83 DUP2 PUSH2 0x3B70 JUMP JUMPDEST DUP3 MSTORE POP POP JUMP JUMPDEST PUSH1 0x0 DUP2 MLOAD SWAP1 POP SWAP2 SWAP1 POP JUMP JUMPDEST PUSH1 0x0 DUP3 DUP3 MSTORE PUSH1 0x20 DUP3 ADD SWAP1 POP SWAP3 SWAP2 POP POP JUMP JUMPDEST PUSH1 0x0 JUMPDEST DUP4 DUP2 LT ISZERO PUSH2 0x3BC3 JUMPI DUP1 DUP3 ADD MLOAD DUP2 DUP5 ADD MSTORE PUSH1 0x20 DUP2 ADD SWAP1 POP PUSH2 0x3BA8 JUMP JUMPDEST PUSH1 0x0 DUP5 DUP5 ADD MSTORE POP POP POP POP JUMP JUMPDEST PUSH1 0x0 PUSH1 0x1F NOT PUSH1 0x1F DUP4 ADD AND SWAP1 POP SWAP2 SWAP1 POP JUMP JUMPDEST PUSH1 0x0 PUSH2 0x3BEB DUP3 PUSH2 0x3B89 JUMP JUMPDEST PUSH2 0x3BF5 DUP2 DUP6 PUSH2 0x3B94 JUMP JUMPDEST SWAP4 POP PUSH2 0x3C05 DUP2 DUP6 PUSH1 0x20 DUP7 ADD PUSH2 0x3BA5 JUMP JUMPDEST PUSH2 0x3C0E DUP2 PUSH2 0x3BCF JUMP JUMPDEST DUP5 ADD SWAP2 POP POP SWAP3 SWAP2 POP POP JUMP JUMPDEST PUSH1 0x0 PUSH20 0xFFFFFFFFFFFFFFFFFFFFFFFFFFFFFFFFFFFFFFFF DUP3 AND SWAP1 POP SWAP2 SWAP1 POP JUMP JUMPDEST PUSH1 0x0 PUSH2 0x3C44 DUP3 PUSH2 0x3C19 JUMP JUMPDEST SWAP1 POP SWAP2 SWAP1 POP JUMP JUMPDEST PUSH2 0x3C54 DUP2 PUSH2 0x3C39 JUMP JUMPDEST DUP3 MSTORE POP POP JUMP JUMPDEST PUSH1 0x0 PUSH2 0x120 DUP4 ADD PUSH1 0x0 DUP4 ADD MLOAD PUSH2 0x3C73 PUSH1 0x0 DUP7 ADD DUP3 PUSH2 0x3B7A JUMP JUMPDEST POP PUSH1 0x20 DUP4 ADD MLOAD DUP5 DUP3 SUB PUSH1 0x20 DUP7 ADD MSTORE PUSH2 0x3C8B DUP3 DUP3 PUSH2 0x3BE0 JUMP JUMPDEST SWAP2 POP POP PUSH1 0x40 DUP4 ADD MLOAD DUP5 DUP3 SUB PUSH1 0x40 DUP7 ADD MSTORE PUSH2 0x3CA5 DUP3 DUP3 PUSH2 0x3BE0 JUMP JUMPDEST SWAP2 POP POP PUSH1 0x60 DUP4 ADD MLOAD PUSH2 0x3CBA PUSH1 0x60 DUP7 ADD DUP3 PUSH2 0x3B7A JUMP JUMPDEST POP PUSH1 0x80 DUP4 ADD MLOAD PUSH2 0x3CCD PUSH1 0x80 DUP7 ADD DUP3 PUSH2 0x3C4B JUMP JUMPDEST POP PUSH1 0xA0 DUP4 ADD MLOAD PUSH2 0x3CE0 PUSH1 0xA0 DUP7 ADD DUP3 PUSH2 0x3B7A JUMP JUMPDEST POP PUSH1 0xC0 DUP4 ADD MLOAD PUSH2 0x3CF3 PUSH1 0xC0 DUP7 ADD DUP3 PUSH2 0x3B7A JUMP JUMPDEST POP PUSH1 0xE0 DUP4 ADD MLOAD PUSH2 0x3D06 PUSH1 0xE0 DUP7 ADD DUP3 PUSH2 0x3B7A JUMP JUMPDEST POP PUSH2 0x100 DUP4 ADD MLOAD DUP5 DUP3 SUB PUSH2 0x100 DUP7 ADD MSTORE PUSH2 0x3D20 DUP3 DUP3 PUSH2 0x3BE0 JUMP JUMPDEST SWAP2 POP POP DUP1 SWAP2 POP POP SWAP3 SWAP2 POP POP JUMP JUMPDEST PUSH1 0x0 PUSH2 0x3D39 DUP4 DUP4 PUSH2 0x3C5A JUMP JUMPDEST SWAP1 POP SWAP3 SWAP2 POP POP JUMP JUMPDEST PUSH1 0x0 PUSH1 0x20 DUP3 ADD SWAP1 POP SWAP2 SWAP1 POP JUMP JUMPDEST PUSH1 0x0 PUSH2 0x3D59 DUP3 PUSH2 0x3B44 JUMP JUMPDEST PUSH2 0x3D63 DUP2 DUP6 PUSH2 0x3B4F JUMP JUMPDEST SWAP4 POP DUP4 PUSH1 0x20 DUP3 MUL DUP6 ADD PUSH2 0x3D75 DUP6 PUSH2 0x3B60 JUMP JUMPDEST DUP1 PUSH1 0x0 JUMPDEST DUP6 DUP2 LT ISZERO PUSH2 0x3DB1 JUMPI DUP5 DUP5 SUB DUP10 MSTORE DUP2 MLOAD PUSH2 0x3D92 DUP6 DUP3 PUSH2 0x3D2D JUMP JUMPDEST SWAP5 POP PUSH2 0x3D9D DUP4 PUSH2 0x3D41 JUMP JUMPDEST SWAP3 POP PUSH1 0x20 DUP11 ADD SWAP10 POP POP PUSH1 0x1 DUP2 ADD SWAP1 POP PUSH2 0x3D79 JUMP JUMPDEST POP DUP3 SWAP8 POP DUP8 SWAP6 POP POP POP POP POP POP SWAP3 SWAP2 POP POP JUMP JUMPDEST PUSH1 0x0 PUSH1 0x20 DUP3 ADD SWAP1 POP DUP2 DUP2 SUB PUSH1 0x0 DUP4 ADD MSTORE PUSH2 0x3DDD DUP2 DUP5 PUSH2 0x3D4E JUMP JUMPDEST SWAP1 POP SWAP3 SWAP2 POP POP JUMP JUMPDEST PUSH2 0x3DEE DUP2 PUSH2 0x3B70 JUMP JUMPDEST DUP3 MSTORE POP POP JUMP JUMPDEST PUSH1 0x0 PUSH1 0x20 DUP3 ADD SWAP1 POP PUSH2 0x3E09 PUSH1 0x0 DUP4 ADD DUP5 PUSH2 0x3DE5 JUMP JUMPDEST SWAP3 SWAP2 POP POP JUMP JUMPDEST PUSH1 0x0 PUSH1 0x40 MLOAD SWAP1 POP SWAP1 JUMP JUMPDEST PUSH1 0x0 DUP1 REVERT JUMPDEST PUSH1 0x0 DUP1 REVERT JUMPDEST PUSH2 0x3E2C DUP2 PUSH2 0x3B70 JUMP JUMPDEST DUP2 EQ PUSH2 0x3E37 JUMPI PUSH1 0x0 DUP1 REVERT JUMPDEST POP JUMP JUMPDEST PUSH1 0x0 DUP2 CALLDATALOAD SWAP1 POP PUSH2 0x3E49 DUP2 PUSH2 0x3E23 JUMP JUMPDEST SWAP3 SWAP2 POP POP JUMP JUMPDEST PUSH1 0x0 PUSH1 0x20 DUP3 DUP5 SUB SLT ISZERO PUSH2 0x3E65 JUMPI PUSH2 0x3E64 PUSH2 0x3E19 JUMP JUMPDEST JUMPDEST PUSH1 0x0 PUSH2 0x3E73 DUP5 DUP3 DUP6 ADD PUSH2 0x3E3A JUMP JUMPDEST SWAP2 POP POP SWAP3 SWAP2 POP POP JUMP JUMPDEST PUSH2 0x3E85 DUP2 PUSH2 0x3C39 JUMP JUMPDEST DUP2 EQ PUSH2 0x3E90 JUMPI PUSH1 0x0 DUP1 REVERT JUMPDEST POP JUMP JUMPDEST PUSH1 0x0 DUP2 CALLDATALOAD SWAP1 POP PUSH2 0x3EA2 DUP2 PUSH2 0x3E7C JUMP JUMPDEST SWAP3 SWAP2 POP POP JUMP JUMPDEST PUSH1 0x0 PUSH1 0x20 DUP3 DUP5 SUB SLT ISZERO PUSH2 0x3EBE JUMPI PUSH2 0x3EBD PUSH2 0x3E19 JUMP JUMPDEST JUMPDEST PUSH1 0x0 PUSH2 0x3ECC DUP5 DUP3 DUP6 ADD PUSH2 0x3E93 JUMP JUMPDEST SWAP2 POP POP SWAP3 SWAP2 POP POP JUMP JUMPDEST PUSH1 0x0 DUP1 REVERT JUMPDEST PUSH1 0x0 DUP1 REVERT JUMPDEST PUSH1 0x0 DUP1 REVERT JUMPDEST PUSH1 0x0 DUP1 DUP4 PUSH1 0x1F DUP5 ADD SLT PUSH2 0x3EFA JUMPI PUSH2 0x3EF9 PUSH2 0x3ED5 JUMP JUMPDEST JUMPDEST DUP3 CALLDATALOAD SWAP1 POP PUSH8 0xFFFFFFFFFFFFFFFF DUP2 GT ISZERO PUSH2 0x3F17 JUMPI PUSH2 0x3F16 PUSH2 0x3EDA JUMP JUMPDEST JUMPDEST PUSH1 0x20 DUP4 ADD SWAP2 POP DUP4 PUSH1 0x1 DUP3 MUL DUP4 ADD GT ISZERO PUSH2 0x3F33 JUMPI PUSH2 0x3F32 PUSH2 0x3EDF JUMP JUMPDEST JUMPDEST SWAP3 POP SWAP3 SWAP1 POP JUMP JUMPDEST PUSH1 0x0 DUP1 PUSH1 0x20 DUP4 DUP6 SUB SLT ISZERO PUSH2 0x3F51 JUMPI PUSH2 0x3F50 PUSH2 0x3E19 JUMP JUMPDEST JUMPDEST PUSH1 0x0 DUP4 ADD CALLDATALOAD PUSH8 0xFFFFFFFFFFFFFFFF DUP2 GT ISZERO PUSH2 0x3F6F JUMPI PUSH2 0x3F6E PUSH2 0x3E1E JUMP JUMPDEST JUMPDEST PUSH2 0x3F7B DUP6 DUP3 DUP7 ADD PUSH2 0x3EE4 JUMP JUMPDEST SWAP3 POP SWAP3 POP POP SWAP3 POP SWAP3 SWAP1 POP JUMP JUMPDEST PUSH32 0x4E487B7100000000000000000000000000000000000000000000000000000000 PUSH1 0x0 MSTORE PUSH1 0x41 PUSH1 0x4 MSTORE PUSH1 0x24 PUSH1 0x0 REVERT JUMPDEST PUSH2 0x3FBF DUP3 PUSH2 0x3BCF JUMP JUMPDEST DUP2 ADD DUP2 DUP2 LT PUSH8 0xFFFFFFFFFFFFFFFF DUP3 GT OR ISZERO PUSH2 0x3FDE JUMPI PUSH2 0x3FDD PUSH2 0x3F87 JUMP JUMPDEST JUMPDEST DUP1 PUSH1 0x40 MSTORE POP POP POP JUMP JUMPDEST PUSH1 0x0 PUSH2 0x3FF1 PUSH2 0x3E0F JUMP JUMPDEST SWAP1 POP PUSH2 0x3FFD DUP3 DUP3 PUSH2 0x3FB6 JUMP JUMPDEST SWAP2 SWAP1 POP JUMP JUMPDEST PUSH1 0x0 PUSH8 0xFFFFFFFFFFFFFFFF DUP3 GT ISZERO PUSH2 0x401D JUMPI PUSH2 0x401C PUSH2 0x3F87 JUMP JUMPDEST JUMPDEST PUSH1 0x20 DUP3 MUL SWAP1 POP PUSH1 0x20 DUP2 ADD SWAP1 POP SWAP2 SWAP1 POP JUMP JUMPDEST PUSH1 0x0 PUSH2 0x4041 PUSH2 0x403C DUP5 PUSH2 0x4002 JUMP JUMPDEST PUSH2 0x3FE7 JUMP JUMPDEST SWAP1 POP DUP1 DUP4 DUP3 MSTORE PUSH1 0x20 DUP3 ADD SWAP1 POP PUSH1 0x20 DUP5 MUL DUP4 ADD DUP6 DUP2 GT ISZERO PUSH2 0x4064 JUMPI PUSH2 0x4063 PUSH2 0x3EDF JUMP JUMPDEST JUMPDEST DUP4 JUMPDEST DUP2 DUP2 LT ISZERO PUSH2 0x408D JUMPI DUP1 PUSH2 0x4079 DUP9 DUP3 PUSH2 0x3E3A JUMP JUMPDEST DUP5 MSTORE PUSH1 0x20 DUP5 ADD SWAP4 POP POP PUSH1 0x20 DUP2 ADD SWAP1 POP PUSH2 0x4066 JUMP JUMPDEST POP POP POP SWAP4 SWAP3 POP POP POP JUMP JUMPDEST PUSH1 0x0 DUP3 PUSH1 0x1F DUP4 ADD SLT PUSH2 0x40AC JUMPI PUSH2 0x40AB PUSH2 0x3ED5 JUMP JUMPDEST JUMPDEST DUP2 CALLDATALOAD PUSH2 0x40BC DUP5 DUP3 PUSH1 0x20 DUP7 ADD PUSH2 0x402E JUMP JUMPDEST SWAP2 POP POP SWAP3 SWAP2 POP POP JUMP JUMPDEST PUSH1 0x0 PUSH8 0xFFFFFFFFFFFFFFFF DUP3 GT ISZERO PUSH2 0x40E0 JUMPI PUSH2 0x40DF PUSH2 0x3F87 JUMP JUMPDEST JUMPDEST PUSH1 0x20 DUP3 MUL SWAP1 POP PUSH1 0x20 DUP2 ADD SWAP1 POP SWAP2 SWAP1 POP JUMP JUMPDEST PUSH1 0x0 DUP2 ISZERO ISZERO SWAP1 POP SWAP2 SWAP1 POP JUMP JUMPDEST PUSH2 0x4106 DUP2 PUSH2 0x40F1 JUMP JUMPDEST DUP2 EQ PUSH2 0x4111 JUMPI PUSH1 0x0 DUP1 REVERT JUMPDEST POP JUMP JUMPDEST PUSH1 0x0 DUP2 CALLDATALOAD SWAP1 POP PUSH2 0x4123 DUP2 PUSH2 0x40FD JUMP JUMPDEST SWAP3 SWAP2 POP POP JUMP JUMPDEST PUSH1 0x0 PUSH2 0x413C PUSH2 0x4137 DUP5 PUSH2 0x40C5 JUMP JUMPDEST PUSH2 0x3FE7 JUMP JUMPDEST SWAP1 POP DUP1 DUP4 DUP3 MSTORE PUSH1 0x20 DUP3 ADD SWAP1 POP PUSH1 0x20 DUP5 MUL DUP4 ADD DUP6 DUP2 GT ISZERO PUSH2 0x415F JUMPI PUSH2 0x415E PUSH2 0x3EDF JUMP JUMPDEST JUMPDEST DUP4 JUMPDEST DUP2 DUP2 LT ISZERO PUSH2 0x4188 JUMPI DUP1 PUSH2 0x4174 DUP9 DUP3 PUSH2 0x4114 JUMP JUMPDEST DUP5 MSTORE PUSH1 0x20 DUP5 ADD SWAP4 POP POP PUSH1 0x20 DUP2 ADD SWAP1 POP PUSH2 0x4161 JUMP JUMPDEST POP POP POP SWAP4 SWAP3 POP POP POP JUMP JUMPDEST PUSH1 0x0 DUP3 PUSH1 0x1F DUP4 ADD SLT PUSH2 0x41A7 JUMPI PUSH2 0x41A6 PUSH2 0x3ED5 JUMP JUMPDEST JUMPDEST DUP2 CALLDATALOAD PUSH2 0x41B7 DUP5 DUP3 PUSH1 0x20 DUP7 ADD PUSH2 0x4129 JUMP JUMPDEST SWAP2 POP POP SWAP3 SWAP2 POP POP JUMP JUMPDEST PUSH1 0x0 DUP1 PUSH1 0x0 DUP1 PUSH1 0x0 PUSH1 0xA0 DUP7 DUP9 SUB SLT ISZERO PUSH2 0x41DC JUMPI PUSH2 0x41DB PUSH2 0x3E19 JUMP JUMPDEST JUMPDEST PUSH1 0x0 DUP7 ADD CALLDATALOAD PUSH8 0xFFFFFFFFFFFFFFFF DUP2 GT ISZERO PUSH2 0x41FA JUMPI PUSH2 0x41F9 PUSH2 0x3E1E JUMP JUMPDEST JUMPDEST PUSH2 0x4206 DUP9 DUP3 DUP10 ADD PUSH2 0x4097 JUMP JUMPDEST SWAP6 POP POP PUSH1 0x20 DUP7 ADD CALLDATALOAD PUSH8 0xFFFFFFFFFFFFFFFF DUP2 GT ISZERO PUSH2 0x4227 JUMPI PUSH2 0x4226 PUSH2 0x3E1E JUMP JUMPDEST JUMPDEST PUSH2 0x4233 DUP9 DUP3 DUP10 ADD PUSH2 0x4097 JUMP JUMPDEST SWAP5 POP POP PUSH1 0x40 DUP7 ADD CALLDATALOAD PUSH8 0xFFFFFFFFFFFFFFFF DUP2 GT ISZERO PUSH2 0x4254 JUMPI PUSH2 0x4253 PUSH2 0x3E1E JUMP JUMPDEST JUMPDEST PUSH2 0x4260 DUP9 DUP3 DUP10 ADD PUSH2 0x4192 JUMP JUMPDEST SWAP4 POP POP PUSH1 0x60 PUSH2 0x4271 DUP9 DUP3 DUP10 ADD PUSH2 0x3E3A JUMP JUMPDEST SWAP3 POP POP PUSH1 0x80 PUSH2 0x4282 DUP9 DUP3 DUP10 ADD PUSH2 0x3E3A JUMP JUMPDEST SWAP2 POP POP SWAP3 SWAP6 POP SWAP3 SWAP6 SWAP1 SWAP4 POP JUMP JUMPDEST PUSH1 0x0 DUP1 PUSH1 0x40 DUP4 DUP6 SUB SLT ISZERO PUSH2 0x42A6 JUMPI PUSH2 0x42A5 PUSH2 0x3E19 JUMP JUMPDEST JUMPDEST PUSH1 0x0 PUSH2 0x42B4 DUP6 DUP3 DUP7 ADD PUSH2 0x3E93 JUMP JUMPDEST SWAP3 POP POP PUSH1 0x20 PUSH2 0x42C5 DUP6 DUP3 DUP7 ADD PUSH2 0x3E3A JUMP JUMPDEST SWAP2 POP POP SWAP3 POP SWAP3 SWAP1 POP JUMP JUMPDEST PUSH2 0x42D8 DUP2 PUSH2 0x3C39 JUMP JUMPDEST DUP3 MSTORE POP POP JUMP JUMPDEST PUSH1 0x0 PUSH1 0x20 DUP3 ADD SWAP1 POP PUSH2 0x42F3 PUSH1 0x0 DUP4 ADD DUP5 PUSH2 0x42CF JUMP JUMPDEST SWAP3 SWAP2 POP POP JUMP JUMPDEST PUSH1 0x0 DUP1 REVERT JUMPDEST PUSH1 0x0 PUSH8 0xFFFFFFFFFFFFFFFF DUP3 GT ISZERO PUSH2 0x4319 JUMPI PUSH2 0x4318 PUSH2 0x3F87 JUMP JUMPDEST JUMPDEST PUSH2 0x4322 DUP3 PUSH2 0x3BCF JUMP JUMPDEST SWAP1 POP PUSH1 0x20 DUP2 ADD SWAP1 POP SWAP2 SWAP1 POP JUMP JUMPDEST DUP3 DUP2 DUP4 CALLDATACOPY PUSH1 0x0 DUP4 DUP4 ADD MSTORE POP POP POP JUMP JUMPDEST PUSH1 0x0 PUSH2 0x4351 PUSH2 0x434C DUP5 PUSH2 0x42FE JUMP JUMPDEST PUSH2 0x3FE7 JUMP JUMPDEST SWAP1 POP DUP3 DUP2 MSTORE PUSH1 0x20 DUP2 ADD DUP5 DUP5 DUP5 ADD GT ISZERO PUSH2 0x436D JUMPI PUSH2 0x436C PUSH2 0x42F9 JUMP JUMPDEST JUMPDEST PUSH2 0x4378 DUP5 DUP3 DUP6 PUSH2 0x432F JUMP JUMPDEST POP SWAP4 SWAP3 POP POP POP JUMP JUMPDEST PUSH1 0x0 DUP3 PUSH1 0x1F DUP4 ADD SLT PUSH2 0x4395 JUMPI PUSH2 0x4394 PUSH2 0x3ED5 JUMP JUMPDEST JUMPDEST DUP2 CALLDATALOAD PUSH2 0x43A5 DUP5 DUP3 PUSH1 0x20 DUP7 ADD PUSH2 0x433E JUMP JUMPDEST SWAP2 POP POP SWAP3 SWAP2 POP POP JUMP JUMPDEST PUSH1 0x0 PUSH1 0x20 DUP3 DUP5 SUB SLT ISZERO PUSH2 0x43C4 JUMPI PUSH2 0x43C3 PUSH2 0x3E19 JUMP JUMPDEST JUMPDEST PUSH1 0x0 DUP3 ADD CALLDATALOAD PUSH8 0xFFFFFFFFFFFFFFFF DUP2 GT ISZERO PUSH2 0x43E2 JUMPI PUSH2 0x43E1 PUSH2 0x3E1E JUMP JUMPDEST JUMPDEST PUSH2 0x43EE DUP5 DUP3 DUP6 ADD PUSH2 0x4380 JUMP JUMPDEST SWAP2 POP POP SWAP3 SWAP2 POP POP JUMP JUMPDEST PUSH2 0x4400 DUP2 PUSH2 0x40F1 JUMP JUMPDEST DUP3 MSTORE POP POP JUMP JUMPDEST PUSH1 0x0 DUP2 MLOAD SWAP1 POP SWAP2 SWAP1 POP JUMP JUMPDEST PUSH1 0x0 DUP3 DUP3 MSTORE PUSH1 0x20 DUP3 ADD SWAP1 POP SWAP3 SWAP2 POP POP JUMP JUMPDEST PUSH1 0x0 PUSH2 0x442D DUP3 PUSH2 0x4406 JUMP JUMPDEST PUSH2 0x4437 DUP2 DUP6 PUSH2 0x4411 JUMP JUMPDEST SWAP4 POP PUSH2 0x4447 DUP2 DUP6 PUSH1 0x20 DUP7 ADD PUSH2 0x3BA5 JUMP JUMPDEST PUSH2 0x4450 DUP2 PUSH2 0x3BCF JUMP JUMPDEST DUP5 ADD SWAP2 POP POP SWAP3 SWAP2 POP POP JUMP JUMPDEST PUSH1 0x0 PUSH1 0x40 DUP3 ADD SWAP1 POP PUSH2 0x4470 PUSH1 0x0 DUP4 ADD DUP6 PUSH2 0x43F7 JUMP JUMPDEST DUP2 DUP2 SUB PUSH1 0x20 DUP4 ADD MSTORE PUSH2 0x4482 DUP2 DUP5 PUSH2 0x4422 JUMP JUMPDEST SWAP1 POP SWAP4 SWAP3 POP POP POP JUMP JUMPDEST PUSH1 0x0 DUP2 SWAP1 POP SWAP2 SWAP1 POP JUMP JUMPDEST PUSH1 0x0 PUSH2 0x44B0 PUSH2 0x44AB PUSH2 0x44A6 DUP5 PUSH2 0x3C19 JUMP JUMPDEST PUSH2 0x448B JUMP JUMPDEST PUSH2 0x3C19 JUMP JUMPDEST SWAP1 POP SWAP2 SWAP1 POP JUMP JUMPDEST PUSH1 0x0 PUSH2 0x44C2 DUP3 PUSH2 0x4495 JUMP JUMPDEST SWAP1 POP SWAP2 SWAP1 POP JUMP JUMPDEST PUSH1 0x0 PUSH2 0x44D4 DUP3 PUSH2 0x44B7 JUMP JUMPDEST SWAP1 POP SWAP2 SWAP1 POP JUMP JUMPDEST PUSH2 0x44E4 DUP2 PUSH2 0x44C9 JUMP JUMPDEST DUP3 MSTORE POP POP JUMP JUMPDEST PUSH1 0x0 PUSH1 0x20 DUP3 ADD SWAP1 POP PUSH2 0x44FF PUSH1 0x0 DUP4 ADD DUP5 PUSH2 0x44DB JUMP JUMPDEST SWAP3 SWAP2 POP POP JUMP JUMPDEST PUSH1 0x0 PUSH2 0x4510 DUP3 PUSH2 0x3B89 JUMP JUMPDEST PUSH2 0x451A DUP2 DUP6 PUSH2 0x3AC7 JUMP JUMPDEST SWAP4 POP PUSH2 0x452A DUP2 DUP6 PUSH1 0x20 DUP7 ADD PUSH2 0x3BA5 JUMP JUMPDEST PUSH2 0x4533 DUP2 PUSH2 0x3BCF JUMP JUMPDEST DUP5 ADD SWAP2 POP POP SWAP3 SWAP2 POP POP JUMP JUMPDEST PUSH1 0x0 PUSH2 0x120 DUP3 ADD SWAP1 POP PUSH2 0x4554 PUSH1 0x0 DUP4 ADD DUP13 PUSH2 0x3DE5 JUMP JUMPDEST DUP2 DUP2 SUB PUSH1 0x20 DUP4 ADD MSTORE PUSH2 0x4566 DUP2 DUP12 PUSH2 0x4505 JUMP JUMPDEST SWAP1 POP DUP2 DUP2 SUB PUSH1 0x40 DUP4 ADD MSTORE PUSH2 0x457A DUP2 DUP11 PUSH2 0x4505 JUMP JUMPDEST SWAP1 POP PUSH2 0x4589 PUSH1 0x60 DUP4 ADD DUP10 PUSH2 0x3DE5 JUMP JUMPDEST PUSH2 0x4596 PUSH1 0x80 DUP4 ADD DUP9 PUSH2 0x42CF JUMP JUMPDEST PUSH2 0x45A3 PUSH1 0xA0 DUP4 ADD DUP8 PUSH2 0x3DE5 JUMP JUMPDEST PUSH2 0x45B0 PUSH1 0xC0 DUP4 ADD DUP7 PUSH2 0x3DE5 JUMP JUMPDEST PUSH2 0x45BD PUSH1 0xE0 DUP4 ADD DUP6 PUSH2 0x3DE5 JUMP JUMPDEST DUP2 DUP2 SUB PUSH2 0x100 DUP4 ADD MSTORE PUSH2 0x45D0 DUP2 DUP5 PUSH2 0x4505 JUMP JUMPDEST SWAP1 POP SWAP11 SWAP10 POP POP POP POP POP POP POP POP POP POP JUMP JUMPDEST PUSH1 0x0 PUSH1 0x80 DUP3 ADD SWAP1 POP PUSH2 0x45F5 PUSH1 0x0 DUP4 ADD DUP8 PUSH2 0x3DE5 JUMP JUMPDEST PUSH2 0x4602 PUSH1 0x20 DUP4 ADD DUP7 PUSH2 0x42CF JUMP JUMPDEST PUSH2 0x460F PUSH1 0x40 DUP4 ADD DUP6 PUSH2 0x3DE5 JUMP JUMPDEST PUSH2 0x461C PUSH1 0x60 DUP4 ADD DUP5 PUSH2 0x3DE5 JUMP JUMPDEST SWAP6 SWAP5 POP POP POP POP POP JUMP JUMPDEST PUSH1 0x0 PUSH1 0x60 DUP3 ADD SWAP1 POP PUSH2 0x463A PUSH1 0x0 DUP4 ADD DUP7 PUSH2 0x42CF JUMP JUMPDEST PUSH2 0x4647 PUSH1 0x20 DUP4 ADD DUP6 PUSH2 0x3DE5 JUMP JUMPDEST PUSH2 0x4654 PUSH1 0x40 DUP4 ADD DUP5 PUSH2 0x3DE5 JUMP JUMPDEST SWAP5 SWAP4 POP POP POP POP JUMP JUMPDEST PUSH1 0x0 PUSH8 0xFFFFFFFFFFFFFFFF DUP3 GT ISZERO PUSH2 0x4677 JUMPI PUSH2 0x4676 PUSH2 0x3F87 JUMP JUMPDEST JUMPDEST PUSH2 0x4680 DUP3 PUSH2 0x3BCF JUMP JUMPDEST SWAP1 POP PUSH1 0x20 DUP2 ADD SWAP1 POP SWAP2 SWAP1 POP JUMP JUMPDEST PUSH1 0x0 PUSH2 0x46A0 PUSH2 0x469B DUP5 PUSH2 0x465C JUMP JUMPDEST PUSH2 0x3FE7 JUMP JUMPDEST SWAP1 POP DUP3 DUP2 MSTORE PUSH1 0x20 DUP2 ADD DUP5 DUP5 DUP5 ADD GT ISZERO PUSH2 0x46BC JUMPI PUSH2 0x46BB PUSH2 0x42F9 JUMP JUMPDEST JUMPDEST PUSH2 0x46C7 DUP5 DUP3 DUP6 PUSH2 0x432F JUMP JUMPDEST POP SWAP4 SWAP3 POP POP POP JUMP JUMPDEST PUSH1 0x0 DUP3 PUSH1 0x1F DUP4 ADD SLT PUSH2 0x46E4 JUMPI PUSH2 0x46E3 PUSH2 0x3ED5 JUMP JUMPDEST JUMPDEST DUP2 CALLDATALOAD PUSH2 0x46F4 DUP5 DUP3 PUSH1 0x20 DUP7 ADD PUSH2 0x468D JUMP JUMPDEST SWAP2 POP POP SWAP3 SWAP2 POP POP JUMP JUMPDEST PUSH1 0x0 DUP1 PUSH1 0x0 DUP1 PUSH1 0x0 DUP1 PUSH1 0x0 PUSH1 0xE0 DUP9 DUP11 SUB SLT ISZERO PUSH2 0x471C JUMPI PUSH2 0x471B PUSH2 0x3E19 JUMP JUMPDEST JUMPDEST PUSH1 0x0 DUP9 ADD CALLDATALOAD PUSH8 0xFFFFFFFFFFFFFFFF DUP2 GT ISZERO PUSH2 0x473A JUMPI PUSH2 0x4739 PUSH2 0x3E1E JUMP JUMPDEST JUMPDEST PUSH2 0x4746 DUP11 DUP3 DUP12 ADD PUSH2 0x46CF JUMP JUMPDEST SWAP8 POP POP PUSH1 0x20 DUP9 ADD CALLDATALOAD PUSH8 0xFFFFFFFFFFFFFFFF DUP2 GT ISZERO PUSH2 0x4767 JUMPI PUSH2 0x4766 PUSH2 0x3E1E JUMP JUMPDEST JUMPDEST PUSH2 0x4773 DUP11 DUP3 DUP12 ADD PUSH2 0x46CF JUMP JUMPDEST SWAP7 POP POP PUSH1 0x40 PUSH2 0x4784 DUP11 DUP3 DUP12 ADD PUSH2 0x3E3A JUMP JUMPDEST SWAP6 POP POP PUSH1 0x60 PUSH2 0x4795 DUP11 DUP3 DUP12 ADD PUSH2 0x3E3A JUMP JUMPDEST SWAP5 POP POP PUSH1 0x80 PUSH2 0x47A6 DUP11 DUP3 DUP12 ADD PUSH2 0x3E3A JUMP JUMPDEST SWAP4 POP POP PUSH1 0xA0 PUSH2 0x47B7 DUP11 DUP3 DUP12 ADD PUSH2 0x3E3A JUMP JUMPDEST SWAP3 POP POP PUSH1 0xC0 DUP9 ADD CALLDATALOAD PUSH8 0xFFFFFFFFFFFFFFFF DUP2 GT ISZERO PUSH2 0x47D8 JUMPI PUSH2 0x47D7 PUSH2 0x3E1E JUMP JUMPDEST JUMPDEST PUSH2 0x47E4 DUP11 DUP3 DUP12 ADD PUSH2 0x46CF JUMP JUMPDEST SWAP2 POP POP SWAP3 SWAP6 SWAP9 SWAP2 SWAP5 SWAP8 POP SWAP3 SWAP6 POP JUMP JUMPDEST PUSH1 0x0 DUP2 MLOAD SWAP1 POP SWAP2 SWAP1 POP JUMP JUMPDEST PUSH1 0x0 DUP3 DUP3 MSTORE PUSH1 0x20 DUP3 ADD SWAP1 POP SWAP3 SWAP2 POP POP JUMP JUMPDEST PUSH1 0x0 DUP2 SWAP1 POP PUSH1 0x20 DUP3 ADD SWAP1 POP SWAP2 SWAP1 POP JUMP JUMPDEST PUSH1 0x0 PUSH2 0x482B DUP4 DUP4 PUSH2 0x3C4B JUMP JUMPDEST PUSH1 0x20 DUP4 ADD SWAP1 POP SWAP3 SWAP2 POP POP JUMP JUMPDEST PUSH1 0x0 PUSH1 0x20 DUP3 ADD SWAP1 POP SWAP2 SWAP1 POP JUMP JUMPDEST PUSH1 0x0 PUSH2 0x484F DUP3 PUSH2 0x47F3 JUMP JUMPDEST PUSH2 0x4859 DUP2 DUP6 PUSH2 0x47FE JUMP JUMPDEST SWAP4 POP PUSH2 0x4864 DUP4 PUSH2 0x480F JUMP JUMPDEST DUP1 PUSH1 0x0 JUMPDEST DUP4 DUP2 LT ISZERO PUSH2 0x4895 JUMPI DUP2 MLOAD PUSH2 0x487C DUP9 DUP3 PUSH2 0x481F JUMP JUMPDEST SWAP8 POP PUSH2 0x4887 DUP4 PUSH2 0x4837 JUMP JUMPDEST SWAP3 POP POP PUSH1 0x1 DUP2 ADD SWAP1 POP PUSH2 0x4868 JUMP JUMPDEST POP DUP6 SWAP4 POP POP POP POP SWAP3 SWAP2 POP POP JUMP JUMPDEST PUSH1 0x0 PUSH1 0x20 DUP3 ADD SWAP1 POP DUP2 DUP2 SUB PUSH1 0x0 DUP4 ADD MSTORE PUSH2 0x48BC DUP2 DUP5 PUSH2 0x4844 JUMP JUMPDEST SWAP1 POP SWAP3 SWAP2 POP POP JUMP JUMPDEST PUSH32 0x4D4154494320616D6F756E742073686F756C6420626520677265617465722074 PUSH1 0x0 DUP3 ADD MSTORE PUSH32 0x68616E2030000000000000000000000000000000000000000000000000000000 PUSH1 0x20 DUP3 ADD MSTORE POP JUMP JUMPDEST PUSH1 0x0 PUSH2 0x4920 PUSH1 0x25 DUP4 PUSH2 0x3AC7 JUMP JUMPDEST SWAP2 POP PUSH2 0x492B DUP3 PUSH2 0x48C4 JUMP JUMPDEST PUSH1 0x40 DUP3 ADD SWAP1 POP SWAP2 SWAP1 POP JUMP JUMPDEST PUSH1 0x0 PUSH1 0x20 DUP3 ADD SWAP1 POP DUP2 DUP2 SUB PUSH1 0x0 DUP4 ADD MSTORE PUSH2 0x494F DUP2 PUSH2 0x4913 JUMP JUMPDEST SWAP1 POP SWAP2 SWAP1 POP JUMP JUMPDEST PUSH1 0x0 DUP2 MLOAD SWAP1 POP PUSH2 0x4965 DUP2 PUSH2 0x3E23 JUMP JUMPDEST SWAP3 SWAP2 POP POP JUMP JUMPDEST PUSH1 0x0 PUSH1 0x20 DUP3 DUP5 SUB SLT ISZERO PUSH2 0x4981 JUMPI PUSH2 0x4980 PUSH2 0x3E19 JUMP JUMPDEST JUMPDEST PUSH1 0x0 PUSH2 0x498F DUP5 DUP3 DUP6 ADD PUSH2 0x4956 JUMP JUMPDEST SWAP2 POP POP SWAP3 SWAP2 POP POP JUMP JUMPDEST PUSH32 0x4E6F7420656E6F756768204C525420696E20636F6E7472616374000000000000 PUSH1 0x0 DUP3 ADD MSTORE POP JUMP JUMPDEST PUSH1 0x0 PUSH2 0x49CE PUSH1 0x1A DUP4 PUSH2 0x3AC7 JUMP JUMPDEST SWAP2 POP PUSH2 0x49D9 DUP3 PUSH2 0x4998 JUMP JUMPDEST PUSH1 0x20 DUP3 ADD SWAP1 POP SWAP2 SWAP1 POP JUMP JUMPDEST PUSH1 0x0 PUSH1 0x20 DUP3 ADD SWAP1 POP DUP2 DUP2 SUB PUSH1 0x0 DUP4 ADD MSTORE PUSH2 0x49FD DUP2 PUSH2 0x49C1 JUMP JUMPDEST SWAP1 POP SWAP2 SWAP1 POP JUMP JUMPDEST PUSH1 0x0 PUSH1 0x40 DUP3 ADD SWAP1 POP PUSH2 0x4A19 PUSH1 0x0 DUP4 ADD DUP6 PUSH2 0x42CF JUMP JUMPDEST PUSH2 0x4A26 PUSH1 0x20 DUP4 ADD DUP5 PUSH2 0x3DE5 JUMP JUMPDEST SWAP4 SWAP3 POP POP POP JUMP JUMPDEST PUSH1 0x0 DUP2 MLOAD SWAP1 POP PUSH2 0x4A3C DUP2 PUSH2 0x40FD JUMP JUMPDEST SWAP3 SWAP2 POP POP JUMP JUMPDEST PUSH1 0x0 PUSH1 0x20 DUP3 DUP5 SUB SLT ISZERO PUSH2 0x4A58 JUMPI PUSH2 0x4A57 PUSH2 0x3E19 JUMP JUMPDEST JUMPDEST PUSH1 0x0 PUSH2 0x4A66 DUP5 DUP3 DUP6 ADD PUSH2 0x4A2D JUMP JUMPDEST SWAP2 POP POP SWAP3 SWAP2 POP POP JUMP JUMPDEST PUSH32 0x4C5254207472616E73666572206661696C656400000000000000000000000000 PUSH1 0x0 DUP3 ADD MSTORE POP JUMP JUMPDEST PUSH1 0x0 PUSH2 0x4AA5 PUSH1 0x13 DUP4 PUSH2 0x3AC7 JUMP JUMPDEST SWAP2 POP PUSH2 0x4AB0 DUP3 PUSH2 0x4A6F JUMP JUMPDEST PUSH1 0x20 DUP3 ADD SWAP1 POP SWAP2 SWAP1 POP JUMP JUMPDEST PUSH1 0x0 PUSH1 0x20 DUP3 ADD SWAP1 POP DUP2 DUP2 SUB PUSH1 0x0 DUP4 ADD MSTORE PUSH2 0x4AD4 DUP2 PUSH2 0x4A98 JUMP JUMPDEST SWAP1 POP SWAP2 SWAP1 POP JUMP JUMPDEST PUSH1 0x0 PUSH1 0x40 DUP3 ADD SWAP1 POP PUSH2 0x4AF0 PUSH1 0x0 DUP4 ADD DUP6 PUSH2 0x3DE5 JUMP JUMPDEST PUSH2 0x4AFD PUSH1 0x20 DUP4 ADD DUP5 PUSH2 0x3DE5 JUMP JUMPDEST SWAP4 SWAP3 POP POP POP JUMP JUMPDEST PUSH32 0x4E487B7100000000000000000000000000000000000000000000000000000000 PUSH1 0x0 MSTORE PUSH1 0x11 PUSH1 0x4 MSTORE PUSH1 0x24 PUSH1 0x0 REVERT JUMPDEST PUSH1 0x0 PUSH2 0x4B3E DUP3 PUSH2 0x3B70 JUMP JUMPDEST SWAP2 POP PUSH2 0x4B49 DUP4 PUSH2 0x3B70 JUMP JUMPDEST SWAP3 POP DUP3 DUP3 SUB SWAP1 POP DUP2 DUP2 GT ISZERO PUSH2 0x4B61 JUMPI PUSH2 0x4B60 PUSH2 0x4B04 JUMP JUMPDEST JUMPDEST SWAP3 SWAP2 POP POP JUMP JUMPDEST PUSH32 0x4E487B7100000000000000000000000000000000000000000000000000000000 PUSH1 0x0 MSTORE PUSH1 0x22 PUSH1 0x4 MSTORE PUSH1 0x24 PUSH1 0x0 REVERT JUMPDEST PUSH1 0x0 PUSH1 0x2 DUP3 DIV SWAP1 POP PUSH1 0x1 DUP3 AND DUP1 PUSH2 0x4BAE JUMPI PUSH1 0x7F DUP3 AND SWAP2 POP JUMPDEST PUSH1 0x20 DUP3 LT DUP2 SUB PUSH2 0x4BC1 JUMPI PUSH2 0x4BC0 PUSH2 0x4B67 JUMP JUMPDEST JUMPDEST POP SWAP2 SWAP1 POP JUMP JUMPDEST PUSH32 0x4E487B7100000000000000000000000000000000000000000000000000000000 PUSH1 0x0 MSTORE PUSH1 0x32 PUSH1 0x4 MSTORE PUSH1 0x24 PUSH1 0x0 REVERT JUMPDEST PUSH1 0x0 PUSH2 0x4C01 DUP3 PUSH2 0x3B70 JUMP JUMPDEST SWAP2 POP PUSH32 0xFFFFFFFFFFFFFFFFFFFFFFFFFFFFFFFFFFFFFFFFFFFFFFFFFFFFFFFFFFFFFFFF DUP3 SUB PUSH2 0x4C33 JUMPI PUSH2 0x4C32 PUSH2 0x4B04 JUMP JUMPDEST JUMPDEST PUSH1 0x1 DUP3 ADD SWAP1 POP SWAP2 SWAP1 POP JUMP JUMPDEST PUSH32 0x4F6E6C792061646D696E2063616E2063616C6C20746869732066756E6374696F PUSH1 0x0 DUP3 ADD MSTORE PUSH32 0x6E00000000000000000000000000000000000000000000000000000000000000 PUSH1 0x20 DUP3 ADD MSTORE POP JUMP JUMPDEST PUSH1 0x0 PUSH2 0x4C9A PUSH1 0x21 DUP4 PUSH2 0x3AC7 JUMP JUMPDEST SWAP2 POP PUSH2 0x4CA5 DUP3 PUSH2 0x4C3E JUMP JUMPDEST PUSH1 0x40 DUP3 ADD SWAP1 POP SWAP2 SWAP1 POP JUMP JUMPDEST PUSH1 0x0 PUSH1 0x20 DUP3 ADD SWAP1 POP DUP2 DUP2 SUB PUSH1 0x0 DUP4 ADD MSTORE PUSH2 0x4CC9 DUP2 PUSH2 0x4C8D JUMP JUMPDEST SWAP1 POP SWAP2 SWAP1 POP JUMP JUMPDEST PUSH32 0x55706B656570206E6F74206E6565646564000000000000000000000000000000 PUSH1 0x0 DUP3 ADD MSTORE POP JUMP JUMPDEST PUSH1 0x0 PUSH2 0x4D06 PUSH1 0x11 DUP4 PUSH2 0x3AC7 JUMP JUMPDEST SWAP2 POP PUSH2 0x4D11 DUP3 PUSH2 0x4CD0 JUMP JUMPDEST PUSH1 0x20 DUP3 ADD SWAP1 POP SWAP2 SWAP1 POP JUMP JUMPDEST PUSH1 0x0 PUSH1 0x20 DUP3 ADD SWAP1 POP DUP2 DUP2 SUB PUSH1 0x0 DUP4 ADD MSTORE PUSH2 0x4D35 DUP2 PUSH2 0x4CF9 JUMP JUMPDEST SWAP1 POP SWAP2 SWAP1 POP JUMP JUMPDEST PUSH1 0x0 PUSH8 0xFFFFFFFFFFFFFFFF DUP3 GT ISZERO PUSH2 0x4D57 JUMPI PUSH2 0x4D56 PUSH2 0x3F87 JUMP JUMPDEST JUMPDEST PUSH1 0x20 DUP3 MUL SWAP1 POP PUSH1 0x20 DUP2 ADD SWAP1 POP SWAP2 SWAP1 POP JUMP JUMPDEST PUSH1 0x0 PUSH2 0x4D7B PUSH2 0x4D76 DUP5 PUSH2 0x4D3C JUMP JUMPDEST PUSH2 0x3FE7 JUMP JUMPDEST SWAP1 POP DUP1 DUP4 DUP3 MSTORE PUSH1 0x20 DUP3 ADD SWAP1 POP PUSH1 0x20 DUP5 MUL DUP4 ADD DUP6 DUP2 GT ISZERO PUSH2 0x4D9E JUMPI PUSH2 0x4D9D PUSH2 0x3EDF JUMP JUMPDEST JUMPDEST DUP4 JUMPDEST DUP2 DUP2 LT ISZERO PUSH2 0x4DC7 JUMPI DUP1 PUSH2 0x4DB3 DUP9 DUP3 PUSH2 0x3E93 JUMP JUMPDEST DUP5 MSTORE PUSH1 0x20 DUP5 ADD SWAP4 POP POP PUSH1 0x20 DUP2 ADD SWAP1 POP PUSH2 0x4DA0 JUMP JUMPDEST POP POP POP SWAP4 SWAP3 POP POP POP JUMP JUMPDEST PUSH1 0x0 DUP3 PUSH1 0x1F DUP4 ADD SLT PUSH2 0x4DE6 JUMPI PUSH2 0x4DE5 PUSH2 0x3ED5 JUMP JUMPDEST JUMPDEST DUP2 CALLDATALOAD PUSH2 0x4DF6 DUP5 DUP3 PUSH1 0x20 DUP7 ADD PUSH2 0x4D68 JUMP JUMPDEST SWAP2 POP POP SWAP3 SWAP2 POP POP JUMP JUMPDEST PUSH1 0x0 PUSH1 0x20 DUP3 DUP5 SUB SLT ISZERO PUSH2 0x4E15 JUMPI PUSH2 0x4E14 PUSH2 0x3E19 JUMP JUMPDEST JUMPDEST PUSH1 0x0 DUP3 ADD CALLDATALOAD PUSH8 0xFFFFFFFFFFFFFFFF DUP2 GT ISZERO PUSH2 0x4E33 JUMPI PUSH2 0x4E32 PUSH2 0x3E1E JUMP JUMPDEST JUMPDEST PUSH2 0x4E3F DUP5 DUP3 DUP6 ADD PUSH2 0x4DD1 JUMP JUMPDEST SWAP2 POP POP SWAP3 SWAP2 POP POP JUMP JUMPDEST PUSH32 0x4D69736D6174636820696E2070726F647563742049447320616E64207175616E PUSH1 0x0 DUP3 ADD MSTORE PUSH32 0x746974696573206C656E67746800000000000000000000000000000000000000 PUSH1 0x20 DUP3 ADD MSTORE POP JUMP JUMPDEST PUSH1 0x0 PUSH2 0x4EA4 PUSH1 0x2D DUP4 PUSH2 0x3AC7 JUMP JUMPDEST SWAP2 POP PUSH2 0x4EAF DUP3 PUSH2 0x4E48 JUMP JUMPDEST PUSH1 0x40 DUP3 ADD SWAP1 POP SWAP2 SWAP1 POP JUMP JUMPDEST PUSH1 0x0 PUSH1 0x20 DUP3 ADD SWAP1 POP DUP2 DUP2 SUB PUSH1 0x0 DUP4 ADD MSTORE PUSH2 0x4ED3 DUP2 PUSH2 0x4E97 JUMP JUMPDEST SWAP1 POP SWAP2 SWAP1 POP JUMP JUMPDEST PUSH1 0x0 PUSH2 0x4EE5 DUP3 PUSH2 0x3B70 JUMP JUMPDEST SWAP2 POP PUSH2 0x4EF0 DUP4 PUSH2 0x3B70 JUMP JUMPDEST SWAP3 POP DUP3 DUP3 MUL PUSH2 0x4EFE DUP2 PUSH2 0x3B70 JUMP JUMPDEST SWAP2 POP DUP3 DUP3 DIV DUP5 EQ DUP4 ISZERO OR PUSH2 0x4F15 JUMPI PUSH2 0x4F14 PUSH2 0x4B04 JUMP JUMPDEST JUMPDEST POP SWAP3 SWAP2 POP POP JUMP JUMPDEST PUSH32 0x4E487B7100000000000000000000000000000000000000000000000000000000 PUSH1 0x0 MSTORE PUSH1 0x12 PUSH1 0x4 MSTORE PUSH1 0x24 PUSH1 0x0 REVERT JUMPDEST PUSH1 0x0 PUSH2 0x4F56 DUP3 PUSH2 0x3B70 JUMP JUMPDEST SWAP2 POP PUSH2 0x4F61 DUP4 PUSH2 0x3B70 JUMP JUMPDEST SWAP3 POP DUP3 PUSH2 0x4F71 JUMPI PUSH2 0x4F70 PUSH2 0x4F1C JUMP JUMPDEST JUMPDEST DUP3 DUP3 DIV SWAP1 POP SWAP3 SWAP2 POP POP JUMP JUMPDEST PUSH32 0x496E636F7272656374204D415449432073656E74000000000000000000000000 PUSH1 0x0 DUP3 ADD MSTORE POP JUMP JUMPDEST PUSH1 0x0 PUSH2 0x4FB2 PUSH1 0x14 DUP4 PUSH2 0x3AC7 JUMP JUMPDEST SWAP2 POP PUSH2 0x4FBD DUP3 PUSH2 0x4F7C JUMP JUMPDEST PUSH1 0x20 DUP3 ADD SWAP1 POP SWAP2 SWAP1 POP JUMP JUMPDEST PUSH1 0x0 PUSH1 0x20 DUP3 ADD SWAP1 POP DUP2 DUP2 SUB PUSH1 0x0 DUP4 ADD MSTORE PUSH2 0x4FE1 DUP2 PUSH2 0x4FA5 JUMP JUMPDEST SWAP1 POP SWAP2 SWAP1 POP JUMP JUMPDEST PUSH1 0x0 PUSH1 0x60 DUP3 ADD SWAP1 POP PUSH2 0x4FFD PUSH1 0x0 DUP4 ADD DUP7 PUSH2 0x42CF JUMP JUMPDEST PUSH2 0x500A PUSH1 0x20 DUP4 ADD DUP6 PUSH2 0x42CF JUMP JUMPDEST PUSH2 0x5017 PUSH1 0x40 DUP4 ADD DUP5 PUSH2 0x3DE5 JUMP JUMPDEST SWAP5 SWAP4 POP POP POP POP JUMP JUMPDEST PUSH32 0x52657761726420506F696E7473207472616E73666572206661696C6564000000 PUSH1 0x0 DUP3 ADD MSTORE POP JUMP JUMPDEST PUSH1 0x0 PUSH2 0x5055 PUSH1 0x1D DUP4 PUSH2 0x3AC7 JUMP JUMPDEST SWAP2 POP PUSH2 0x5060 DUP3 PUSH2 0x501F JUMP JUMPDEST PUSH1 0x20 DUP3 ADD SWAP1 POP SWAP2 SWAP1 POP JUMP JUMPDEST PUSH1 0x0 PUSH1 0x20 DUP3 ADD SWAP1 POP DUP2 DUP2 SUB PUSH1 0x0 DUP4 ADD MSTORE PUSH2 0x5084 DUP2 PUSH2 0x5048 JUMP JUMPDEST SWAP1 POP SWAP2 SWAP1 POP JUMP JUMPDEST PUSH32 0x4C6F79616C747920546F6B656E207472616E73666572206661696C6564000000 PUSH1 0x0 DUP3 ADD MSTORE POP JUMP JUMPDEST PUSH1 0x0 PUSH2 0x50C1 PUSH1 0x1D DUP4 PUSH2 0x3AC7 JUMP JUMPDEST SWAP2 POP PUSH2 0x50CC DUP3 PUSH2 0x508B JUMP JUMPDEST PUSH1 0x20 DUP3 ADD SWAP1 POP SWAP2 SWAP1 POP JUMP JUMPDEST PUSH1 0x0 PUSH1 0x20 DUP3 ADD SWAP1 POP DUP2 DUP2 SUB PUSH1 0x0 DUP4 ADD MSTORE PUSH2 0x50F0 DUP2 PUSH2 0x50B4 JUMP JUMPDEST SWAP1 POP SWAP2 SWAP1 POP JUMP JUMPDEST PUSH32 0x4E6F7420656E6F75676820746F6B656E7320696E207472656173757279000000 PUSH1 0x0 DUP3 ADD MSTORE POP JUMP JUMPDEST PUSH1 0x0 PUSH2 0x512D PUSH1 0x1D DUP4 PUSH2 0x3AC7 JUMP JUMPDEST SWAP2 POP PUSH2 0x5138 DUP3 PUSH2 0x50F7 JUMP JUMPDEST PUSH1 0x20 DUP3 ADD SWAP1 POP SWAP2 SWAP1 POP JUMP JUMPDEST PUSH1 0x0 PUSH1 0x20 DUP3 ADD SWAP1 POP DUP2 DUP2 SUB PUSH1 0x0 DUP4 ADD MSTORE PUSH2 0x515C DUP2 PUSH2 0x5120 JUMP JUMPDEST SWAP1 POP SWAP2 SWAP1 POP JUMP JUMPDEST PUSH32 0x5573657220616C72656164792072656769737465726564000000000000000000 PUSH1 0x0 DUP3 ADD MSTORE POP JUMP JUMPDEST PUSH1 0x0 PUSH2 0x5199 PUSH1 0x17 DUP4 PUSH2 0x3AC7 JUMP JUMPDEST SWAP2 POP PUSH2 0x51A4 DUP3 PUSH2 0x5163 JUMP JUMPDEST PUSH1 0x20 DUP3 ADD SWAP1 POP SWAP2 SWAP1 POP JUMP JUMPDEST PUSH1 0x0 PUSH1 0x20 DUP3 ADD SWAP1 POP DUP2 DUP2 SUB PUSH1 0x0 DUP4 ADD MSTORE PUSH2 0x51C8 DUP2 PUSH2 0x518C JUMP JUMPDEST SWAP1 POP SWAP2 SWAP1 POP JUMP JUMPDEST PUSH32 0x53656C6C657220616C7265616479207265676973746572656400000000000000 PUSH1 0x0 DUP3 ADD MSTORE POP JUMP JUMPDEST PUSH1 0x0 PUSH2 0x5205 PUSH1 0x19 DUP4 PUSH2 0x3AC7 JUMP JUMPDEST SWAP2 POP PUSH2 0x5210 DUP3 PUSH2 0x51CF JUMP JUMPDEST PUSH1 0x20 DUP3 ADD SWAP1 POP SWAP2 SWAP1 POP JUMP JUMPDEST PUSH1 0x0 PUSH1 0x20 DUP3 ADD SWAP1 POP DUP2 DUP2 SUB PUSH1 0x0 DUP4 ADD MSTORE PUSH2 0x5234 DUP2 PUSH2 0x51F8 JUMP JUMPDEST SWAP1 POP SWAP2 SWAP1 POP JUMP JUMPDEST PUSH1 0x0 PUSH2 0x5246 DUP3 PUSH2 0x3B70 JUMP JUMPDEST SWAP2 POP PUSH2 0x5251 DUP4 PUSH2 0x3B70 JUMP JUMPDEST SWAP3 POP DUP3 DUP3 ADD SWAP1 POP DUP1 DUP3 GT ISZERO PUSH2 0x5269 JUMPI PUSH2 0x5268 PUSH2 0x4B04 JUMP JUMPDEST JUMPDEST SWAP3 SWAP2 POP POP JUMP JUMPDEST PUSH32 0x4F6E6C792073656C6C6572732063616E2063616C6C20746869732066756E6374 PUSH1 0x0 DUP3 ADD MSTORE PUSH32 0x696F6E0000000000000000000000000000000000000000000000000000000000 PUSH1 0x20 DUP3 ADD MSTORE POP JUMP JUMPDEST PUSH1 0x0 PUSH2 0x52CB PUSH1 0x23 DUP4 PUSH2 0x3AC7 JUMP JUMPDEST SWAP2 POP PUSH2 0x52D6 DUP3 PUSH2 0x526F JUMP JUMPDEST PUSH1 0x40 DUP3 ADD SWAP1 POP SWAP2 SWAP1 POP JUMP JUMPDEST PUSH1 0x0 PUSH1 0x20 DUP3 ADD SWAP1 POP DUP2 DUP2 SUB PUSH1 0x0 DUP4 ADD MSTORE PUSH2 0x52FA DUP2 PUSH2 0x52BE JUMP JUMPDEST SWAP1 POP SWAP2 SWAP1 POP JUMP JUMPDEST PUSH1 0x0 DUP2 SWAP1 POP DUP2 PUSH1 0x0 MSTORE PUSH1 0x20 PUSH1 0x0 KECCAK256 SWAP1 POP SWAP2 SWAP1 POP JUMP JUMPDEST PUSH1 0x0 PUSH1 0x20 PUSH1 0x1F DUP4 ADD DIV SWAP1 POP SWAP2 SWAP1 POP JUMP JUMPDEST PUSH1 0x0 DUP3 DUP3 SHL SWAP1 POP SWAP3 SWAP2 POP POP JUMP JUMPDEST PUSH1 0x0 PUSH1 0x8 DUP4 MUL PUSH2 0x5363 PUSH32 0xFFFFFFFFFFFFFFFFFFFFFFFFFFFFFFFFFFFFFFFFFFFFFFFFFFFFFFFFFFFFFFFF DUP3 PUSH2 0x5326 JUMP JUMPDEST PUSH2 0x536D DUP7 DUP4 PUSH2 0x5326 JUMP JUMPDEST SWAP6 POP DUP1 NOT DUP5 AND SWAP4 POP DUP1 DUP7 AND DUP5 OR SWAP3 POP POP POP SWAP4 SWAP3 POP POP POP JUMP JUMPDEST PUSH1 0x0 PUSH2 0x53A0 PUSH2 0x539B PUSH2 0x5396 DUP5 PUSH2 0x3B70 JUMP JUMPDEST PUSH2 0x448B JUMP JUMPDEST PUSH2 0x3B70 JUMP JUMPDEST SWAP1 POP SWAP2 SWAP1 POP JUMP JUMPDEST PUSH1 0x0 DUP2 SWAP1 POP SWAP2 SWAP1 POP JUMP JUMPDEST PUSH2 0x53BA DUP4 PUSH2 0x5385 JUMP JUMPDEST PUSH2 0x53CE PUSH2 0x53C6 DUP3 PUSH2 0x53A7 JUMP JUMPDEST DUP5 DUP5 SLOAD PUSH2 0x5333 JUMP JUMPDEST DUP3 SSTORE POP POP POP POP JUMP JUMPDEST PUSH1 0x0 SWAP1 JUMP JUMPDEST PUSH2 0x53E3 PUSH2 0x53D6 JUMP JUMPDEST PUSH2 0x53EE DUP2 DUP5 DUP5 PUSH2 0x53B1 JUMP JUMPDEST POP POP POP JUMP JUMPDEST JUMPDEST DUP2 DUP2 LT ISZERO PUSH2 0x5412 JUMPI PUSH2 0x5407 PUSH1 0x0 DUP3 PUSH2 0x53DB JUMP JUMPDEST PUSH1 0x1 DUP2 ADD SWAP1 POP PUSH2 0x53F4 JUMP JUMPDEST POP POP JUMP JUMPDEST PUSH1 0x1F DUP3 GT ISZERO PUSH2 0x5457 JUMPI PUSH2 0x5428 DUP2 PUSH2 0x5301 JUMP JUMPDEST PUSH2 0x5431 DUP5 PUSH2 0x5316 JUMP JUMPDEST DUP2 ADD PUSH1 0x20 DUP6 LT ISZERO PUSH2 0x5440 JUMPI DUP2 SWAP1 POP JUMPDEST PUSH2 0x5454 PUSH2 0x544C DUP6 PUSH2 0x5316 JUMP JUMPDEST DUP4 ADD DUP3 PUSH2 0x53F3 JUMP JUMPDEST POP POP JUMPDEST POP POP POP JUMP JUMPDEST PUSH1 0x0 DUP3 DUP3 SHR SWAP1 POP SWAP3 SWAP2 POP POP JUMP JUMPDEST PUSH1 0x0 PUSH2 0x547A PUSH1 0x0 NOT DUP5 PUSH1 0x8 MUL PUSH2 0x545C JUMP JUMPDEST NOT DUP1 DUP4 AND SWAP2 POP POP SWAP3 SWAP2 POP POP JUMP JUMPDEST PUSH1 0x0 PUSH2 0x5493 DUP4 DUP4 PUSH2 0x5469 JUMP JUMPDEST SWAP2 POP DUP3 PUSH1 0x2 MUL DUP3 OR SWAP1 POP SWAP3 SWAP2 POP POP JUMP JUMPDEST PUSH2 0x54AC DUP3 PUSH2 0x3B89 JUMP JUMPDEST PUSH8 0xFFFFFFFFFFFFFFFF DUP2 GT ISZERO PUSH2 0x54C5 JUMPI PUSH2 0x54C4 PUSH2 0x3F87 JUMP JUMPDEST JUMPDEST PUSH2 0x54CF DUP3 SLOAD PUSH2 0x4B96 JUMP JUMPDEST PUSH2 0x54DA DUP3 DUP3 DUP6 PUSH2 0x5416 JUMP JUMPDEST PUSH1 0x0 PUSH1 0x20 SWAP1 POP PUSH1 0x1F DUP4 GT PUSH1 0x1 DUP2 EQ PUSH2 0x550D JUMPI PUSH1 0x0 DUP5 ISZERO PUSH2 0x54FB JUMPI DUP3 DUP8 ADD MLOAD SWAP1 POP JUMPDEST PUSH2 0x5505 DUP6 DUP3 PUSH2 0x5487 JUMP JUMPDEST DUP7 SSTORE POP PUSH2 0x556D JUMP JUMPDEST PUSH1 0x1F NOT DUP5 AND PUSH2 0x551B DUP7 PUSH2 0x5301 JUMP JUMPDEST PUSH1 0x0 JUMPDEST DUP3 DUP2 LT ISZERO PUSH2 0x5543 JUMPI DUP5 DUP10 ADD MLOAD DUP3 SSTORE PUSH1 0x1 DUP3 ADD SWAP2 POP PUSH1 0x20 DUP6 ADD SWAP5 POP PUSH1 0x20 DUP2 ADD SWAP1 POP PUSH2 0x551E JUMP JUMPDEST DUP7 DUP4 LT ISZERO PUSH2 0x5560 JUMPI DUP5 DUP10 ADD MLOAD PUSH2 0x555C PUSH1 0x1F DUP10 AND DUP3 PUSH2 0x5469 JUMP JUMPDEST DUP4 SSTORE POP JUMPDEST PUSH1 0x1 PUSH1 0x2 DUP9 MUL ADD DUP9 SSTORE POP POP POP JUMPDEST POP POP POP POP POP POP JUMP JUMPDEST PUSH1 0x0 PUSH1 0x40 DUP3 ADD SWAP1 POP DUP2 DUP2 SUB PUSH1 0x0 DUP4 ADD MSTORE PUSH2 0x558F DUP2 DUP6 PUSH2 0x4505 JUMP JUMPDEST SWAP1 POP PUSH2 0x559E PUSH1 0x20 DUP4 ADD DUP5 PUSH2 0x3DE5 JUMP JUMPDEST SWAP4 SWAP3 POP POP POP JUMP JUMPDEST PUSH32 0x45786365656473206D6F6E74686C792063617000000000000000000000000000 PUSH1 0x0 DUP3 ADD MSTORE POP JUMP JUMPDEST PUSH1 0x0 PUSH2 0x55DB PUSH1 0x13 DUP4 PUSH2 0x3AC7 JUMP JUMPDEST SWAP2 POP PUSH2 0x55E6 DUP3 PUSH2 0x55A5 JUMP JUMPDEST PUSH1 0x20 DUP3 ADD SWAP1 POP SWAP2 SWAP1 POP JUMP JUMPDEST PUSH1 0x0 PUSH1 0x20 DUP3 ADD SWAP1 POP DUP2 DUP2 SUB PUSH1 0x0 DUP4 ADD MSTORE PUSH2 0x560A DUP2 PUSH2 0x55CE JUMP JUMPDEST SWAP1 POP SWAP2 SWAP1 POP JUMP JUMPDEST PUSH32 0x45786365656473206D6F6E74686C792063617020666F722073656C6C65720000 PUSH1 0x0 DUP3 ADD MSTORE POP JUMP JUMPDEST PUSH1 0x0 PUSH2 0x5647 PUSH1 0x1E DUP4 PUSH2 0x3AC7 JUMP JUMPDEST SWAP2 POP PUSH2 0x5652 DUP3 PUSH2 0x5611 JUMP JUMPDEST PUSH1 0x20 DUP3 ADD SWAP1 POP SWAP2 SWAP1 POP JUMP JUMPDEST PUSH1 0x0 PUSH1 0x20 DUP3 ADD SWAP1 POP DUP2 DUP2 SUB PUSH1 0x0 DUP4 ADD MSTORE PUSH2 0x5676 DUP2 PUSH2 0x563A JUMP JUMPDEST SWAP1 POP SWAP2 SWAP1 POP JUMP JUMPDEST PUSH32 0x416D6F756E742073686F756C642062652067726561746572207468616E203000 PUSH1 0x0 DUP3 ADD MSTORE POP JUMP JUMPDEST PUSH1 0x0 PUSH2 0x56B3 PUSH1 0x1F DUP4 PUSH2 0x3AC7 JUMP JUMPDEST SWAP2 POP PUSH2 0x56BE DUP3 PUSH2 0x567D JUMP JUMPDEST PUSH1 0x20 DUP3 ADD SWAP1 POP SWAP2 SWAP1 POP JUMP JUMPDEST PUSH1 0x0 PUSH1 0x20 DUP3 ADD SWAP1 POP DUP2 DUP2 SUB PUSH1 0x0 DUP4 ADD MSTORE PUSH2 0x56E2 DUP2 PUSH2 0x56A6 JUMP JUMPDEST SWAP1 POP SWAP2 SWAP1 POP JUMP INVALID LOG2 PUSH5 0x6970667358 0x22 SLT KECCAK256 0x25 SWAP13 0xE2 SWAP16 BASEFEE 0x27 PUSH16 0xD715A193EFD4CE792DF6311575ACF38A PUSH20 0x5E760A446E0EA99764736F6C6343000813003300 "},"methodIdentifiers":{"COMMISSION()":"562df3d5","RATE()":"664e9704","SELLER_CAP()":"fddbe9a8","addProduct(string,string,uint256,uint256,uint256,uint256,string)":"b656638b","admin()":"f851a440","checkUpkeep(bytes)":"6e04ff0d","exchangeLRTForMATIC(uint256)":"ffa8efc9","exchangeMATICForLRT()":"33ff7bbd","getAllProducts()":"02ee3a52","getLeaderBoard()":"c29d72bc","getUserOrders(address)":"63c69f08","interval()":"947a36fb","issueTokens(address,uint256)":"475a9fa9","issueTokensBySeller(address,uint256)":"f6356b30","lastIssuedMonth(address)":"c2bd67e2","lastTimestamp()":"19d8ac61","leaderboard(uint256)":"bf368399","loyaltyToken()":"770aa84d","monthlyIssuedBySeller(address)":"d365cf6b","nextOrderId()":"2a58b330","nextProductId()":"4de91a63","orders(uint256)":"a85c38ef","performUpkeep(bytes)":"4585e33b","products(uint256)":"7acc0b20","purchaseProducts(uint256[],uint256[],bool[],uint256,uint256)":"45a38293","registerSeller()":"52c9224c","registerUser()":"4d3820eb","sellers(address)":"6d47ab72","setLRTToken(address)":"42df2b1d","users(address)":"a87430ba","withdrawMATIC(uint256)":"816837e3","withdrawTokens(uint256)":"315a095d"}}}}}