{"contracts/Loyalty.sol":{"ECommerceLoyalty":{"abi":[{"inputs":[{"internalType":"address","name":"_loyaltyTokenAddress","type":"address"},{"internalType":"uint256","name":"_interval","type":"uint256"}],"stateMutability":"nonpayable","type":"constructor"},{"anonymous":false,"inputs":[{"indexed":true,"internalType":"address","name":"sellerAddress","type":"address"},{"indexed":false,"internalType":"uint256","name":"lrtAmount","type":"uint256"},{"indexed":false,"internalType":"uint256","name":"maticAmount","type":"uint256"}],"name":"LRTExchangedForMATIC","type":"event"},{"anonymous":false,"inputs":[{"indexed":true,"internalType":"address","name":"admin","type":"address"},{"indexed":false,"internalType":"address","name":"newLRTTokenAddress","type":"address"}],"name":"LRTTokenAddressUpdated","type":"event"},{"anonymous":false,"inputs":[{"indexed":true,"internalType":"address","name":"sellerAddress","type":"address"},{"indexed":false,"internalType":"uint256","name":"maticAmount","type":"uint256"},{"indexed":false,"internalType":"uint256","name":"lrtAmount","type":"uint256"}],"name":"MATICExchangedForLRT","type":"event"},{"anonymous":false,"inputs":[{"indexed":true,"internalType":"address","name":"admin","type":"address"},{"indexed":false,"internalType":"uint256","name":"amount","type":"uint256"}],"name":"MATICWithdrawn","type":"event"},{"anonymous":false,"inputs":[{"indexed":true,"internalType":"address","name":"buyerAddress","type":"address"},{"indexed":false,"internalType":"uint256","name":"pointsEarned","type":"uint256"}],"name":"PointsEarned","type":"event"},{"anonymous":false,"inputs":[{"indexed":true,"internalType":"uint256","name":"productId","type":"uint256"},{"indexed":true,"internalType":"address","name":"sellerAddress","type":"address"},{"indexed":false,"internalType":"string","name":"name","type":"string"},{"indexed":false,"internalType":"uint256","name":"price","type":"uint256"}],"name":"ProductAdded","type":"event"},{"anonymous":false,"inputs":[{"indexed":true,"internalType":"uint256","name":"orderId","type":"uint256"},{"indexed":true,"internalType":"address","name":"buyerAddress","type":"address"},{"indexed":true,"internalType":"uint256","name":"productId","type":"uint256"},{"indexed":false,"internalType":"uint256","name":"quantity","type":"uint256"}],"name":"ProductPurchased","type":"event"},{"anonymous":false,"inputs":[{"indexed":true,"internalType":"address","name":"sellerAddress","type":"address"}],"name":"SellerRegistered","type":"event"},{"anonymous":false,"inputs":[{"indexed":true,"internalType":"address","name":"admin","type":"address"},{"indexed":false,"internalType":"uint256","name":"amount","type":"uint256"}],"name":"TokensWithdrawn","type":"event"},{"anonymous":false,"inputs":[{"indexed":true,"internalType":"address","name":"userAddress","type":"address"}],"name":"UserRegistered","type":"event"},{"stateMutability":"payable","type":"fallback"},{"inputs":[],"name":"COMMISSION","outputs":[{"internalType":"uint256","name":"","type":"uint256"}],"stateMutability":"view","type":"function"},{"inputs":[],"name":"RATE","outputs":[{"internalType":"uint256","name":"","type":"uint256"}],"stateMutability":"view","type":"function"},{"inputs":[{"internalType":"string","name":"name","type":"string"},{"internalType":"string","name":"_description","type":"string"},{"internalType":"uint256","name":"_quantity","type":"uint256"},{"internalType":"uint256","name":"_price","type":"uint256"},{"internalType":"uint256","name":"_rewardPoints","type":"uint256"},{"internalType":"uint256","name":"loyaltyTokensAccepted","type":"uint256"},{"internalType":"string","name":"_imageURI","type":"string"}],"name":"addProduct","outputs":[],"stateMutability":"nonpayable","type":"function"},{"inputs":[],"name":"admin","outputs":[{"internalType":"address","name":"","type":"address"}],"stateMutability":"view","type":"function"},{"inputs":[{"internalType":"bytes","name":"","type":"bytes"}],"name":"checkUpkeep","outputs":[{"internalType":"bool","name":"upkeepNeeded","type":"bool"},{"internalType":"bytes","name":"performData","type":"bytes"}],"stateMutability":"view","type":"function"},{"inputs":[{"internalType":"uint256","name":"lrtAmount","type":"uint256"}],"name":"exchangeLRTForMATIC","outputs":[],"stateMutability":"nonpayable","type":"function"},{"inputs":[],"name":"exchangeMATICForLRT","outputs":[],"stateMutability":"payable","type":"function"},{"inputs":[],"name":"getAllProducts","outputs":[{"components":[{"internalType":"uint256","name":"productId","type":"uint256"},{"internalType":"string","name":"name","type":"string"},{"internalType":"string","name":"description","type":"string"},{"internalType":"uint256","name":"quantity","type":"uint256"},{"internalType":"address","name":"sellerAddress","type":"address"},{"internalType":"uint256","name":"price","type":"uint256"},{"internalType":"uint256","name":"rewardPoints","type":"uint256"},{"internalType":"uint256","name":"loyaltyTokensAccepted","type":"uint256"},{"internalType":"string","name":"imageURI","type":"string"}],"internalType":"struct ECommerceLoyalty.Product[]","name":"","type":"tuple[]"}],"stateMutability":"view","type":"function"},{"inputs":[],"name":"getLeaderBoard","outputs":[{"internalType":"address[]","name":"","type":"address[]"}],"stateMutability":"view","type":"function"},{"inputs":[],"name":"interval","outputs":[{"internalType":"uint256","name":"","type":"uint256"}],"stateMutability":"view","type":"function"},{"inputs":[],"name":"lastTimestamp","outputs":[{"internalType":"uint256","name":"","type":"uint256"}],"stateMutability":"view","type":"function"},{"inputs":[{"internalType":"uint256","name":"","type":"uint256"}],"name":"leaderboard","outputs":[{"internalType":"address","name":"","type":"address"}],"stateMutability":"view","type":"function"},{"inputs":[],"name":"loyaltyToken","outputs":[{"internalType":"contract IERC20","name":"","type":"address"}],"stateMutability":"view","type":"function"},{"inputs":[],"name":"nextOrderId","outputs":[{"internalType":"uint256","name":"","type":"uint256"}],"stateMutability":"view","type":"function"},{"inputs":[],"name":"nextProductId","outputs":[{"internalType":"uint256","name":"","type":"uint256"}],"stateMutability":"view","type":"function"},{"inputs":[{"internalType":"uint256","name":"","type":"uint256"}],"name":"orders","outputs":[{"internalType":"uint256","name":"orderId","type":"uint256"},{"internalType":"address","name":"buyerAddress","type":"address"},{"internalType":"uint256","name":"productId","type":"uint256"},{"internalType":"uint256","name":"quantity","type":"uint256"}],"stateMutability":"view","type":"function"},{"inputs":[{"internalType":"bytes","name":"performData","type":"bytes"}],"name":"performUpkeep","outputs":[],"stateMutability":"nonpayable","type":"function"},{"inputs":[{"internalType":"uint256","name":"","type":"uint256"}],"name":"products","outputs":[{"internalType":"uint256","name":"productId","type":"uint256"},{"internalType":"string","name":"name","type":"string"},{"internalType":"string","name":"description","type":"string"},{"internalType":"uint256","name":"quantity","type":"uint256"},{"internalType":"address","name":"sellerAddress","type":"address"},{"internalType":"uint256","name":"price","type":"uint256"},{"internalType":"uint256","name":"rewardPoints","type":"uint256"},{"internalType":"uint256","name":"loyaltyTokensAccepted","type":"uint256"},{"internalType":"string","name":"imageURI","type":"string"}],"stateMutability":"view","type":"function"},{"inputs":[{"internalType":"uint256[]","name":"_productIds","type":"uint256[]"},{"internalType":"uint256[]","name":"_quantities","type":"uint256[]"},{"internalType":"bool[]","name":"_fullPaymentInMatic","type":"bool[]"},{"internalType":"uint256","name":"totalCost","type":"uint256"},{"internalType":"uint256","name":"totalLoyaltyTokensUsed","type":"uint256"}],"name":"purchaseProducts","outputs":[],"stateMutability":"payable","type":"function"},{"inputs":[],"name":"registerSeller","outputs":[],"stateMutability":"nonpayable","type":"function"},{"inputs":[],"name":"registerUser","outputs":[],"stateMutability":"nonpayable","type":"function"},{"inputs":[{"internalType":"address","name":"","type":"address"}],"name":"sellers","outputs":[{"internalType":"address","name":"sellerAddress","type":"address"}],"stateMutability":"view","type":"function"},{"inputs":[{"internalType":"address","name":"_lrtToken","type":"address"}],"name":"setLRTToken","outputs":[],"stateMutability":"nonpayable","type":"function"},{"inputs":[{"internalType":"address","name":"","type":"address"}],"name":"users","outputs":[{"internalType":"address","name":"userAddress","type":"address"},{"internalType":"uint256","name":"loyaltyPoints","type":"uint256"},{"internalType":"uint256","name":"points","type":"uint256"}],"stateMutability":"view","type":"function"},{"inputs":[{"internalType":"uint256","name":"amount","type":"uint256"}],"name":"withdrawMATIC","outputs":[],"stateMutability":"nonpayable","type":"function"},{"inputs":[{"internalType":"uint256","name":"amount","type":"uint256"}],"name":"withdrawTokens","outputs":[],"stateMutability":"nonpayable","type":"function"},{"stateMutability":"payable","type":"receive"}],"evm":{"bytecode":{"linkReferences":{},"object":"60a0604052600160085560016009553480156200001b57600080fd5b5060405162004ae438038062004ae483398181016040528101906200004191906200017e565b336000806101000a81548173ffffffffffffffffffffffffffffffffffffffff021916908373ffffffffffffffffffffffffffffffffffffffff16021790555081600160006101000a81548173ffffffffffffffffffffffffffffffffffffffff021916908373ffffffffffffffffffffffffffffffffffffffff1602179055508060808181525050426002819055505050620001c5565b600080fd5b600073ffffffffffffffffffffffffffffffffffffffff82169050919050565b60006200010b82620000de565b9050919050565b6200011d81620000fe565b81146200012957600080fd5b50565b6000815190506200013d8162000112565b92915050565b6000819050919050565b620001588162000143565b81146200016457600080fd5b50565b60008151905062000178816200014d565b92915050565b60008060408385031215620001985762000197620000d9565b5b6000620001a8858286016200012c565b9250506020620001bb8582860162000167565b9150509250929050565b6080516148fc620001e860003960008181611e1e015261262901526148fc6000f3fe6080604052600436106101855760003560e01c80636d47ab72116100d1578063a85c38ef1161008a578063bf36839911610064578063bf36839914610587578063c29d72bc146105c4578063f851a440146105ef578063ffa8efc91461061a57610194565b8063a85c38ef146104df578063a87430ba1461051f578063b656638b1461055e57610194565b80636d47ab72146103a05780636e04ff0d146103dd578063770aa84d1461041b5780637acc0b2014610446578063816837e31461048b578063947a36fb146104b457610194565b80634585e33b1161013e5780634de91a63116101185780634de91a631461030857806352c9224c14610333578063562df3d51461034a578063664e97041461037557610194565b80634585e33b146102ac57806345a38293146102d55780634d3820eb146102f157610194565b806302ee3a52146101cf57806319d8ac61146101fa5780632a58b33014610225578063315a095d1461025057806333ff7bbd1461027957806342df2b1d1461028357610194565b3661019457610192610643565b005b6040517f08c379a00000000000000000000000000000000000000000000000000000000081526004016101c690612e85565b60405180910390fd5b3480156101db57600080fd5b506101e46108b5565b6040516101f19190613124565b60405180910390f35b34801561020657600080fd5b5061020f610bd0565b60405161021c9190613155565b60405180910390f35b34801561023157600080fd5b5061023a610bd6565b6040516102479190613155565b60405180910390f35b34801561025c57600080fd5b50610277600480360381019061027291906131b0565b610bdc565b005b610281610643565b005b34801561028f57600080fd5b506102aa60048036038101906102a59190613209565b610d7c565b005b3480156102b857600080fd5b506102d360048036038101906102ce919061329b565b610e9c565b005b6102ef60048036038101906102ea9190613521565b610f30565b005b3480156102fd57600080fd5b5061030661193f565b005b34801561031457600080fd5b5061031d611b91565b60405161032a9190613155565b60405180910390f35b34801561033f57600080fd5b50610348611b97565b005b34801561035657600080fd5b5061035f611dc7565b60405161036c9190613155565b60405180910390f35b34801561038157600080fd5b5061038a611dcc565b6040516103979190613155565b60405180910390f35b3480156103ac57600080fd5b506103c760048036038101906103c29190613209565b611dd8565b6040516103d491906135ff565b60405180910390f35b3480156103e957600080fd5b5061040460048036038101906103ff91906136cf565b611e16565b60405161041292919061377c565b60405180910390f35b34801561042757600080fd5b506104306122b5565b60405161043d919061380b565b60405180910390f35b34801561045257600080fd5b5061046d600480360381019061046891906131b0565b6122db565b6040516104829998979695949392919061385f565b60405180910390f35b34801561049757600080fd5b506104b260048036038101906104ad91906131b0565b6124e1565b005b3480156104c057600080fd5b506104c9612627565b6040516104d69190613155565b60405180910390f35b3480156104eb57600080fd5b50610506600480360381019061050191906131b0565b61264b565b6040516105169493929190613901565b60405180910390f35b34801561052b57600080fd5b5061054660048036038101906105419190613209565b61269b565b60405161055593929190613946565b60405180910390f35b34801561056a57600080fd5b5061058560048036038101906105809190613a1e565b6126e5565b005b34801561059357600080fd5b506105ae60048036038101906105a991906131b0565b6129c1565b6040516105bb91906135ff565b60405180910390f35b3480156105d057600080fd5b506105d9612a00565b6040516105e69190613bc3565b60405180910390f35b3480156105fb57600080fd5b50610604612a8e565b60405161061191906135ff565b60405180910390f35b34801561062657600080fd5b50610641600480360381019061063c91906131b0565b612ab2565b005b60003411610686576040517f08c379a000000000000000000000000000000000000000000000000000000000815260040161067d90613c57565b60405180910390fd5b60006106a3670de0b6b3a764000034612c9090919063ffffffff16565b905080600160009054906101000a900473ffffffffffffffffffffffffffffffffffffffff1673ffffffffffffffffffffffffffffffffffffffff166370a08231306040518263ffffffff1660e01b815260040161070191906135ff565b602060405180830381865afa15801561071e573d6000803e3d6000fd5b505050506040513d601f19601f820116820180604052508101906107429190613c8c565b1015610783576040517f08c379a000000000000000000000000000000000000000000000000000000000815260040161077a90613d05565b60405180910390fd5b600160009054906101000a900473ffffffffffffffffffffffffffffffffffffffff1673ffffffffffffffffffffffffffffffffffffffff1663a9059cbb33836040518363ffffffff1660e01b81526004016107e0929190613d25565b6020604051808303816000875af11580156107ff573d6000803e3d6000fd5b505050506040513d601f19601f820116820180604052508101906108239190613d63565b610862576040517f08c379a000000000000000000000000000000000000000000000000000000000815260040161085990613ddc565b60405180910390fd5b3373ffffffffffffffffffffffffffffffffffffffff167f95db8762f4600873df8fdbc44f0e34fa831e5cc7396f3dda3a5cd0825acd5bdb34836040516108aa929190613dfc565b60405180910390a250565b6060600060016008546108c89190613e54565b67ffffffffffffffff8111156108e1576108e06132e8565b5b60405190808252806020026020018201604052801561091a57816020015b610907612cd2565b8152602001906001900390816108ff5790505b5090506000600190505b600854811015610bc85760066000828152602001908152602001600020604051806101200160405290816000820154815260200160018201805461096790613eb7565b80601f016020809104026020016040519081016040528092919081815260200182805461099390613eb7565b80156109e05780601f106109b5576101008083540402835291602001916109e0565b820191906000526020600020905b8154815290600101906020018083116109c357829003601f168201915b505050505081526020016002820180546109f990613eb7565b80601f0160208091040260200160405190810160405280929190818152602001828054610a2590613eb7565b8015610a725780601f10610a4757610100808354040283529160200191610a72565b820191906000526020600020905b815481529060010190602001808311610a5557829003601f168201915b50505050508152602001600382015481526020016004820160009054906101000a900473ffffffffffffffffffffffffffffffffffffffff1673ffffffffffffffffffffffffffffffffffffffff1673ffffffffffffffffffffffffffffffffffffffff168152602001600582015481526020016006820154815260200160078201548152602001600882018054610b0990613eb7565b80601f0160208091040260200160405190810160405280929190818152602001828054610b3590613eb7565b8015610b825780601f10610b5757610100808354040283529160200191610b82565b820191906000526020600020905b815481529060010190602001808311610b6557829003601f168201915b50505050508152505082600183610b999190613e54565b81518110610baa57610ba9613ee8565b5b60200260200101819052508080610bc090613f17565b915050610924565b508091505090565b60025481565b60095481565b60008054906101000a900473ffffffffffffffffffffffffffffffffffffffff1673ffffffffffffffffffffffffffffffffffffffff163373ffffffffffffffffffffffffffffffffffffffff1614610c6a576040517f08c379a0000000000000000000000000000000000000000000000000000000008152600401610c6190613fd1565b60405180910390fd5b600160009054906101000a900473ffffffffffffffffffffffffffffffffffffffff1673ffffffffffffffffffffffffffffffffffffffff1663a9059cbb60008054906101000a900473ffffffffffffffffffffffffffffffffffffffff16836040518363ffffffff1660e01b8152600401610ce7929190613d25565b6020604051808303816000875af1158015610d06573d6000803e3d6000fd5b505050506040513d601f19601f82011682018060405250810190610d2a9190613d63565b503373ffffffffffffffffffffffffffffffffffffffff167f6352c5382c4a4578e712449ca65e83cdb392d045dfcf1cad9615189db2da244b82604051610d719190613155565b60405180910390a250565b60008054906101000a900473ffffffffffffffffffffffffffffffffffffffff1673ffffffffffffffffffffffffffffffffffffffff163373ffffffffffffffffffffffffffffffffffffffff1614610e0a576040517f08c379a0000000000000000000000000000000000000000000000000000000008152600401610e0190613fd1565b60405180910390fd5b80600160006101000a81548173ffffffffffffffffffffffffffffffffffffffff021916908373ffffffffffffffffffffffffffffffffffffffff1602179055503373ffffffffffffffffffffffffffffffffffffffff167f6eca818bb499e114c9a2ead8c104a976418f0ca9c27fd7ead167e9125e613d4582604051610e9191906135ff565b60405180910390a250565b6000610eb660405180602001604052806000815250611e16565b50905080610ef9576040517f08c379a0000000000000000000000000000000000000000000000000000000008152600401610ef09061403d565b60405180910390fd5b60008383810190610f0a9190614120565b90508060039080519060200190610f22929190612d34565b504260028190555050505050565b8351855114610f74576040517f08c379a0000000000000000000000000000000000000000000000000000000008152600401610f6b906141db565b60405180910390fd5b60006064600584610f8591906141fb565b610f8f919061426c565b905060008284610f9f9190613e54565b905080341015610fe4576040517f08c379a0000000000000000000000000000000000000000000000000000000008152600401610fdb906142e9565b60405180910390fd5b3073ffffffffffffffffffffffffffffffffffffffff166108fc839081150290604051600060405180830381858888f1935050505015801561102a573d6000803e3d6000fd5b5060005b8751811015611935576000600660008a84815181106110505761104f613ee8565b5b60200260200101518152602001908152602001600020604051806101200160405290816000820154815260200160018201805461108c90613eb7565b80601f01602080910402602001604051908101604052809291908181526020018280546110b890613eb7565b80156111055780601f106110da57610100808354040283529160200191611105565b820191906000526020600020905b8154815290600101906020018083116110e857829003601f168201915b5050505050815260200160028201805461111e90613eb7565b80601f016020809104026020016040519081016040528092919081815260200182805461114a90613eb7565b80156111975780601f1061116c57610100808354040283529160200191611197565b820191906000526020600020905b81548152906001019060200180831161117a57829003601f168201915b50505050508152602001600382015481526020016004820160009054906101000a900473ffffffffffffffffffffffffffffffffffffffff1673ffffffffffffffffffffffffffffffffffffffff1673ffffffffffffffffffffffffffffffffffffffff16815260200160058201548152602001600682015481526020016007820154815260200160088201805461122e90613eb7565b80601f016020809104026020016040519081016040528092919081815260200182805461125a90613eb7565b80156112a75780601f1061127c576101008083540402835291602001916112a7565b820191906000526020600020905b81548152906001019060200180831161128a57829003601f168201915b505050505081525050905060008883815181106112c7576112c6613ee8565b5b60200260200101518260a001516112de91906141fb565b90506000600a826112ef919061426c565b905061134681600460003373ffffffffffffffffffffffffffffffffffffffff1673ffffffffffffffffffffffffffffffffffffffff16815260200190815260200160002060020154612ca690919063ffffffff16565b600460003373ffffffffffffffffffffffffffffffffffffffff1673ffffffffffffffffffffffffffffffffffffffff168152602001908152602001600020600201819055503373ffffffffffffffffffffffffffffffffffffffff167f2c4c0dc427a50c4a69d2fc184c47a311acf950d8d2f289fbaee64e83e9b28967826040516113d29190613155565b60405180910390a28884815181106113ed576113ec613ee8565b5b60200260200101511561157b57826080015173ffffffffffffffffffffffffffffffffffffffff166108fc606460058561142791906141fb565b611431919061426c565b8461143c9190613e54565b9081150290604051600060405180830381858888f19350505050158015611467573d6000803e3d6000fd5b50600160009054906101000a900473ffffffffffffffffffffffffffffffffffffffff1673ffffffffffffffffffffffffffffffffffffffff166323b872dd8460800151338d88815181106114bf576114be613ee8565b5b60200260200101518760c001516114d691906141fb565b6040518463ffffffff1660e01b81526004016114f493929190614309565b6020604051808303816000875af1158015611513573d6000803e3d6000fd5b505050506040513d601f19601f820116820180604052508101906115379190613d63565b611576576040517f08c379a000000000000000000000000000000000000000000000000000000000815260040161156d9061438c565b60405180910390fd5b61172c565b826080015173ffffffffffffffffffffffffffffffffffffffff166108fc60646005856115a891906141fb565b6115b2919061426c565b8c87815181106115c5576115c4613ee8565b5b60200260200101518660e001516115dc91906141fb565b856115e79190613e54565b6115f19190613e54565b9081150290604051600060405180830381858888f1935050505015801561161c573d6000803e3d6000fd5b50600160009054906101000a900473ffffffffffffffffffffffffffffffffffffffff1673ffffffffffffffffffffffffffffffffffffffff166323b872dd3385608001518d888151811061167457611673613ee8565b5b60200260200101518760e0015161168b91906141fb565b6040518463ffffffff1660e01b81526004016116a993929190614309565b6020604051808303816000875af11580156116c8573d6000803e3d6000fd5b505050506040513d601f19601f820116820180604052508101906116ec9190613d63565b61172b576040517f08c379a0000000000000000000000000000000000000000000000000000000008152600401611722906143f8565b60405180910390fd5b5b604051806080016040528060095481526020013373ffffffffffffffffffffffffffffffffffffffff1681526020018c868151811061176e5761176d613ee8565b5b602002602001015181526020018b868151811061178e5761178d613ee8565b5b60200260200101518152506007600060095481526020019081526020016000206000820151816000015560208201518160010160006101000a81548173ffffffffffffffffffffffffffffffffffffffff021916908373ffffffffffffffffffffffffffffffffffffffff1602179055506040820151816002015560608201518160030155905050600460003373ffffffffffffffffffffffffffffffffffffffff1673ffffffffffffffffffffffffffffffffffffffff16815260200190815260200160002060030160095490806001815401808255809150506001900390600052602060002001600090919091909150558a848151811061189457611893613ee8565b5b60200260200101513373ffffffffffffffffffffffffffffffffffffffff166009547f7d3c39a6cce20f6949eff0833a4d54fca734dc7c6027773d8885e7faeac98a958d88815181106118ea576118e9613ee8565b5b60200260200101516040516118ff9190613155565b60405180910390a46009600081548092919061191a90613f17565b9190505550505050808061192d90613f17565b91505061102e565b5050505050505050565b600073ffffffffffffffffffffffffffffffffffffffff16600460003373ffffffffffffffffffffffffffffffffffffffff1673ffffffffffffffffffffffffffffffffffffffff16815260200190815260200160002060000160009054906101000a900473ffffffffffffffffffffffffffffffffffffffff1673ffffffffffffffffffffffffffffffffffffffff1614611a10576040517f08c379a0000000000000000000000000000000000000000000000000000000008152600401611a0790614464565b60405180910390fd5b60405180608001604052803373ffffffffffffffffffffffffffffffffffffffff1681526020016000815260200160008152602001600067ffffffffffffffff811115611a6057611a5f6132e8565b5b604051908082528060200260200182016040528015611a8e5781602001602082028036833780820191505090505b50815250600460003373ffffffffffffffffffffffffffffffffffffffff1673ffffffffffffffffffffffffffffffffffffffff16815260200190815260200160002060008201518160000160006101000a81548173ffffffffffffffffffffffffffffffffffffffff021916908373ffffffffffffffffffffffffffffffffffffffff16021790555060208201518160010155604082015181600201556060820151816003019080519060200190611b48929190612dbe565b509050503373ffffffffffffffffffffffffffffffffffffffff167f54db7a5cb4735e1aac1f53db512d3390390bb6637bd30ad4bf9fc98667d9b9b960405160405180910390a2565b60085481565b600073ffffffffffffffffffffffffffffffffffffffff16600560003373ffffffffffffffffffffffffffffffffffffffff1673ffffffffffffffffffffffffffffffffffffffff16815260200190815260200160002060000160009054906101000a900473ffffffffffffffffffffffffffffffffffffffff1673ffffffffffffffffffffffffffffffffffffffff1614611c68576040517f08c379a0000000000000000000000000000000000000000000000000000000008152600401611c5f906144d0565b60405180910390fd5b60405180604001604052803373ffffffffffffffffffffffffffffffffffffffff168152602001600067ffffffffffffffff811115611caa57611ca96132e8565b5b604051908082528060200260200182016040528015611cd85781602001602082028036833780820191505090505b50815250600560003373ffffffffffffffffffffffffffffffffffffffff1673ffffffffffffffffffffffffffffffffffffffff16815260200190815260200160002060008201518160000160006101000a81548173ffffffffffffffffffffffffffffffffffffffff021916908373ffffffffffffffffffffffffffffffffffffffff1602179055506020820151816001019080519060200190611d7e929190612dbe565b509050503373ffffffffffffffffffffffffffffffffffffffff167f4d97d287a8f631378031b05cb24c876085261ddaa7b8f584477370ef473fbb3d60405160405180910390a2565b600581565b670de0b6b3a764000081565b60056020528060005260406000206000915090508060000160009054906101000a900473ffffffffffffffffffffffffffffffffffffffff16905081565b6000606060007f000000000000000000000000000000000000000000000000000000000000000060025442611e4b9190613e54565b1190506000606467ffffffffffffffff811115611e6b57611e6a6132e8565b5b604051908082528060200260200182016040528015611e995781602001602082028036833780820191505090505b5090506000606467ffffffffffffffff811115611eb957611eb86132e8565b5b604051908082528060200260200182016040528015611ee75781602001602082028036833780820191505090505b5090506000806064600954611efc9190613e54565b11611f08576000611f18565b6064600954611f179190613e54565b5b905060008190505b600954811015612071576007600082815260200190815260200160002060010160009054906101000a900473ffffffffffffffffffffffffffffffffffffffff1684600183611f6f9190613e54565b81518110611f8057611f7f613ee8565b5b602002602001019073ffffffffffffffffffffffffffffffffffffffff16908173ffffffffffffffffffffffffffffffffffffffff1681525050600460006007600084815260200190815260200160002060010160009054906101000a900473ffffffffffffffffffffffffffffffffffffffff1673ffffffffffffffffffffffffffffffffffffffff1673ffffffffffffffffffffffffffffffffffffffff16815260200190815260200160002060020154836001836120419190613e54565b8151811061205257612051613ee8565b5b602002602001018181525050808061206990613f17565b915050611f20565b5060005b82518110156122865760005b6001845161208f9190613e54565b81101561227257836001826120a491906144f0565b815181106120b5576120b4613ee8565b5b60200260200101518482815181106120d0576120cf613ee8565b5b6020026020010151101561225f5760008482815181106120f3576120f2613ee8565b5b602002602001015190508460018361210b91906144f0565b8151811061211c5761211b613ee8565b5b602002602001015185838151811061213757612136613ee8565b5b602002602001018181525050808560018461215291906144f0565b8151811061216357612162613ee8565b5b602002602001018181525050600086838151811061218457612183613ee8565b5b602002602001015190508660018461219c91906144f0565b815181106121ad576121ac613ee8565b5b60200260200101518784815181106121c8576121c7613ee8565b5b602002602001019073ffffffffffffffffffffffffffffffffffffffff16908173ffffffffffffffffffffffffffffffffffffffff1681525050808760018561221191906144f0565b8151811061222257612221613ee8565b5b602002602001019073ffffffffffffffffffffffffffffffffffffffff16908173ffffffffffffffffffffffffffffffffffffffff168152505050505b808061226a90613f17565b915050612081565b50808061227e90613f17565b915050612075565b508395508260405160200161229b9190613bc3565b604051602081830303815290604052945050505050915091565b600160009054906101000a900473ffffffffffffffffffffffffffffffffffffffff1681565b600660205280600052604060002060009150905080600001549080600101805461230490613eb7565b80601f016020809104026020016040519081016040528092919081815260200182805461233090613eb7565b801561237d5780601f106123525761010080835404028352916020019161237d565b820191906000526020600020905b81548152906001019060200180831161236057829003601f168201915b50505050509080600201805461239290613eb7565b80601f01602080910402602001604051908101604052809291908181526020018280546123be90613eb7565b801561240b5780601f106123e05761010080835404028352916020019161240b565b820191906000526020600020905b8154815290600101906020018083116123ee57829003601f168201915b5050505050908060030154908060040160009054906101000a900473ffffffffffffffffffffffffffffffffffffffff169080600501549080600601549080600701549080600801805461245e90613eb7565b80601f016020809104026020016040519081016040528092919081815260200182805461248a90613eb7565b80156124d75780601f106124ac576101008083540402835291602001916124d7565b820191906000526020600020905b8154815290600101906020018083116124ba57829003601f168201915b5050505050905089565b60008054906101000a900473ffffffffffffffffffffffffffffffffffffffff1673ffffffffffffffffffffffffffffffffffffffff163373ffffffffffffffffffffffffffffffffffffffff161461256f576040517f08c379a000000000000000000000000000000000000000000000000000000000815260040161256690613fd1565b60405180910390fd5b60008054906101000a900473ffffffffffffffffffffffffffffffffffffffff1673ffffffffffffffffffffffffffffffffffffffff166108fc829081150290604051600060405180830381858888f193505050501580156125d5573d6000803e3d6000fd5b503373ffffffffffffffffffffffffffffffffffffffff167f6efac6899ee41c0fab9566f807fee81972320248574ef8adeac6599ea7eae2468260405161261c9190613155565b60405180910390a250565b7f000000000000000000000000000000000000000000000000000000000000000081565b60076020528060005260406000206000915090508060000154908060010160009054906101000a900473ffffffffffffffffffffffffffffffffffffffff16908060020154908060030154905084565b60046020528060005260406000206000915090508060000160009054906101000a900473ffffffffffffffffffffffffffffffffffffffff16908060010154908060020154905083565b600073ffffffffffffffffffffffffffffffffffffffff16600560003373ffffffffffffffffffffffffffffffffffffffff1673ffffffffffffffffffffffffffffffffffffffff16815260200190815260200160002060000160009054906101000a900473ffffffffffffffffffffffffffffffffffffffff1673ffffffffffffffffffffffffffffffffffffffff16036127b6576040517f08c379a00000000000000000000000000000000000000000000000000000000081526004016127ad90614596565b60405180910390fd5b60405180610120016040528060085481526020018881526020018781526020018681526020013373ffffffffffffffffffffffffffffffffffffffff168152602001858152602001848152602001838152602001828152506006600060085481526020019081526020016000206000820151816000015560208201518160010190816128429190614758565b5060408201518160020190816128589190614758565b506060820151816003015560808201518160040160006101000a81548173ffffffffffffffffffffffffffffffffffffffff021916908373ffffffffffffffffffffffffffffffffffffffff16021790555060a0820151816005015560c0820151816006015560e082015181600701556101008201518160080190816128de9190614758565b50905050600560003373ffffffffffffffffffffffffffffffffffffffff1673ffffffffffffffffffffffffffffffffffffffff16815260200190815260200160002060010160085490806001815401808255809150506001900390600052602060002001600090919091909150553373ffffffffffffffffffffffffffffffffffffffff166008547fef311eec1d40202fee1909ab585df5e024df1930dc6bba97722d1e60e91c01f7898760405161299892919061482a565b60405180910390a3600860008154809291906129b390613f17565b919050555050505050505050565b600381815481106129d157600080fd5b906000526020600020016000915054906101000a900473ffffffffffffffffffffffffffffffffffffffff1681565b60606003805480602002602001604051908101604052809291908181526020018280548015612a8457602002820191906000526020600020905b8160009054906101000a900473ffffffffffffffffffffffffffffffffffffffff1673ffffffffffffffffffffffffffffffffffffffff1681526020019060010190808311612a3a575b5050505050905090565b60008054906101000a900473ffffffffffffffffffffffffffffffffffffffff1681565b60008111612af5576040517f08c379a0000000000000000000000000000000000000000000000000000000008152600401612aec906148a6565b60405180910390fd5b6000612b12670de0b6b3a764000083612cbc90919063ffffffff16565b9050600160009054906101000a900473ffffffffffffffffffffffffffffffffffffffff1673ffffffffffffffffffffffffffffffffffffffff166323b872dd3330856040518463ffffffff1660e01b8152600401612b7393929190614309565b6020604051808303816000875af1158015612b92573d6000803e3d6000fd5b505050506040513d601f19601f82011682018060405250810190612bb69190613d63565b612bf5576040517f08c379a0000000000000000000000000000000000000000000000000000000008152600401612bec90613ddc565b60405180910390fd5b3373ffffffffffffffffffffffffffffffffffffffff166108fc829081150290604051600060405180830381858888f19350505050158015612c3b573d6000803e3d6000fd5b503373ffffffffffffffffffffffffffffffffffffffff167fae8bcd366b92d4b55d90c0ccbfd8a50a60bae24f201c5899a989e99a3d877b938383604051612c84929190613dfc565b60405180910390a25050565b60008183612c9e919061426c565b905092915050565b60008183612cb491906144f0565b905092915050565b60008183612cca91906141fb565b905092915050565b60405180610120016040528060008152602001606081526020016060815260200160008152602001600073ffffffffffffffffffffffffffffffffffffffff168152602001600081526020016000815260200160008152602001606081525090565b828054828255906000526020600020908101928215612dad579160200282015b82811115612dac5782518260006101000a81548173ffffffffffffffffffffffffffffffffffffffff021916908373ffffffffffffffffffffffffffffffffffffffff16021790555091602001919060010190612d54565b5b509050612dba9190612e0b565b5090565b828054828255906000526020600020908101928215612dfa579160200282015b82811115612df9578251825591602001919060010190612dde565b5b509050612e079190612e0b565b5090565b5b80821115612e24576000816000905550600101612e0c565b5090565b600082825260208201905092915050565b7f4f7065726174696f6e206e6f7420737570706f72746564000000000000000000600082015250565b6000612e6f601783612e28565b9150612e7a82612e39565b602082019050919050565b60006020820190508181036000830152612e9e81612e62565b9050919050565b600081519050919050565b600082825260208201905092915050565b6000819050602082019050919050565b6000819050919050565b612ee481612ed1565b82525050565b600081519050919050565b600082825260208201905092915050565b60005b83811015612f24578082015181840152602081019050612f09565b60008484015250505050565b6000601f19601f8301169050919050565b6000612f4c82612eea565b612f568185612ef5565b9350612f66818560208601612f06565b612f6f81612f30565b840191505092915050565b600073ffffffffffffffffffffffffffffffffffffffff82169050919050565b6000612fa582612f7a565b9050919050565b612fb581612f9a565b82525050565b600061012083016000830151612fd46000860182612edb565b5060208301518482036020860152612fec8282612f41565b915050604083015184820360408601526130068282612f41565b915050606083015161301b6060860182612edb565b50608083015161302e6080860182612fac565b5060a083015161304160a0860182612edb565b5060c083015161305460c0860182612edb565b5060e083015161306760e0860182612edb565b506101008301518482036101008601526130818282612f41565b9150508091505092915050565b600061309a8383612fbb565b905092915050565b6000602082019050919050565b60006130ba82612ea5565b6130c48185612eb0565b9350836020820285016130d685612ec1565b8060005b8581101561311257848403895281516130f3858261308e565b94506130fe836130a2565b925060208a019950506001810190506130da565b50829750879550505050505092915050565b6000602082019050818103600083015261313e81846130af565b905092915050565b61314f81612ed1565b82525050565b600060208201905061316a6000830184613146565b92915050565b6000604051905090565b600080fd5b600080fd5b61318d81612ed1565b811461319857600080fd5b50565b6000813590506131aa81613184565b92915050565b6000602082840312156131c6576131c561317a565b5b60006131d48482850161319b565b91505092915050565b6131e681612f9a565b81146131f157600080fd5b50565b600081359050613203816131dd565b92915050565b60006020828403121561321f5761321e61317a565b5b600061322d848285016131f4565b91505092915050565b600080fd5b600080fd5b600080fd5b60008083601f84011261325b5761325a613236565b5b8235905067ffffffffffffffff8111156132785761327761323b565b5b60208301915083600182028301111561329457613293613240565b5b9250929050565b600080602083850312156132b2576132b161317a565b5b600083013567ffffffffffffffff8111156132d0576132cf61317f565b5b6132dc85828601613245565b92509250509250929050565b7f4e487b7100000000000000000000000000000000000000000000000000000000600052604160045260246000fd5b61332082612f30565b810181811067ffffffffffffffff8211171561333f5761333e6132e8565b5b80604052505050565b6000613352613170565b905061335e8282613317565b919050565b600067ffffffffffffffff82111561337e5761337d6132e8565b5b602082029050602081019050919050565b60006133a261339d84613363565b613348565b905080838252602082019050602084028301858111156133c5576133c4613240565b5b835b818110156133ee57806133da888261319b565b8452602084019350506020810190506133c7565b5050509392505050565b600082601f83011261340d5761340c613236565b5b813561341d84826020860161338f565b91505092915050565b600067ffffffffffffffff821115613441576134406132e8565b5b602082029050602081019050919050565b60008115159050919050565b61346781613452565b811461347257600080fd5b50565b6000813590506134848161345e565b92915050565b600061349d61349884613426565b613348565b905080838252602082019050602084028301858111156134c0576134bf613240565b5b835b818110156134e957806134d58882613475565b8452602084019350506020810190506134c2565b5050509392505050565b600082601f83011261350857613507613236565b5b813561351884826020860161348a565b91505092915050565b600080600080600060a0868803121561353d5761353c61317a565b5b600086013567ffffffffffffffff81111561355b5761355a61317f565b5b613567888289016133f8565b955050602086013567ffffffffffffffff8111156135885761358761317f565b5b613594888289016133f8565b945050604086013567ffffffffffffffff8111156135b5576135b461317f565b5b6135c1888289016134f3565b93505060606135d28882890161319b565b92505060806135e38882890161319b565b9150509295509295909350565b6135f981612f9a565b82525050565b600060208201905061361460008301846135f0565b92915050565b600080fd5b600067ffffffffffffffff82111561363a576136396132e8565b5b61364382612f30565b9050602081019050919050565b82818337600083830152505050565b600061367261366d8461361f565b613348565b90508281526020810184848401111561368e5761368d61361a565b5b613699848285613650565b509392505050565b600082601f8301126136b6576136b5613236565b5b81356136c684826020860161365f565b91505092915050565b6000602082840312156136e5576136e461317a565b5b600082013567ffffffffffffffff8111156137035761370261317f565b5b61370f848285016136a1565b91505092915050565b61372181613452565b82525050565b600081519050919050565b600082825260208201905092915050565b600061374e82613727565b6137588185613732565b9350613768818560208601612f06565b61377181612f30565b840191505092915050565b60006040820190506137916000830185613718565b81810360208301526137a38184613743565b90509392505050565b6000819050919050565b60006137d16137cc6137c784612f7a565b6137ac565b612f7a565b9050919050565b60006137e3826137b6565b9050919050565b60006137f5826137d8565b9050919050565b613805816137ea565b82525050565b600060208201905061382060008301846137fc565b92915050565b600061383182612eea565b61383b8185612e28565b935061384b818560208601612f06565b61385481612f30565b840191505092915050565b600061012082019050613875600083018c613146565b8181036020830152613887818b613826565b9050818103604083015261389b818a613826565b90506138aa6060830189613146565b6138b760808301886135f0565b6138c460a0830187613146565b6138d160c0830186613146565b6138de60e0830185613146565b8181036101008301526138f18184613826565b90509a9950505050505050505050565b60006080820190506139166000830187613146565b61392360208301866135f0565b6139306040830185613146565b61393d6060830184613146565b95945050505050565b600060608201905061395b60008301866135f0565b6139686020830185613146565b6139756040830184613146565b949350505050565b600067ffffffffffffffff821115613998576139976132e8565b5b6139a182612f30565b9050602081019050919050565b60006139c16139bc8461397d565b613348565b9050828152602081018484840111156139dd576139dc61361a565b5b6139e8848285613650565b509392505050565b600082601f830112613a0557613a04613236565b5b8135613a158482602086016139ae565b91505092915050565b600080600080600080600060e0888a031215613a3d57613a3c61317a565b5b600088013567ffffffffffffffff811115613a5b57613a5a61317f565b5b613a678a828b016139f0565b975050602088013567ffffffffffffffff811115613a8857613a8761317f565b5b613a948a828b016139f0565b9650506040613aa58a828b0161319b565b9550506060613ab68a828b0161319b565b9450506080613ac78a828b0161319b565b93505060a0613ad88a828b0161319b565b92505060c088013567ffffffffffffffff811115613af957613af861317f565b5b613b058a828b016139f0565b91505092959891949750929550565b600081519050919050565b600082825260208201905092915050565b6000819050602082019050919050565b6000613b4c8383612fac565b60208301905092915050565b6000602082019050919050565b6000613b7082613b14565b613b7a8185613b1f565b9350613b8583613b30565b8060005b83811015613bb6578151613b9d8882613b40565b9750613ba883613b58565b925050600181019050613b89565b5085935050505092915050565b60006020820190508181036000830152613bdd8184613b65565b905092915050565b7f4d4154494320616d6f756e742073686f756c642062652067726561746572207460008201527f68616e2030000000000000000000000000000000000000000000000000000000602082015250565b6000613c41602583612e28565b9150613c4c82613be5565b604082019050919050565b60006020820190508181036000830152613c7081613c34565b9050919050565b600081519050613c8681613184565b92915050565b600060208284031215613ca257613ca161317a565b5b6000613cb084828501613c77565b91505092915050565b7f4e6f7420656e6f756768204c525420696e20636f6e7472616374000000000000600082015250565b6000613cef601a83612e28565b9150613cfa82613cb9565b602082019050919050565b60006020820190508181036000830152613d1e81613ce2565b9050919050565b6000604082019050613d3a60008301856135f0565b613d476020830184613146565b9392505050565b600081519050613d5d8161345e565b92915050565b600060208284031215613d7957613d7861317a565b5b6000613d8784828501613d4e565b91505092915050565b7f4c5254207472616e73666572206661696c656400000000000000000000000000600082015250565b6000613dc6601383612e28565b9150613dd182613d90565b602082019050919050565b60006020820190508181036000830152613df581613db9565b9050919050565b6000604082019050613e116000830185613146565b613e1e6020830184613146565b9392505050565b7f4e487b7100000000000000000000000000000000000000000000000000000000600052601160045260246000fd5b6000613e5f82612ed1565b9150613e6a83612ed1565b9250828203905081811115613e8257613e81613e25565b5b92915050565b7f4e487b7100000000000000000000000000000000000000000000000000000000600052602260045260246000fd5b60006002820490506001821680613ecf57607f821691505b602082108103613ee257613ee1613e88565b5b50919050565b7f4e487b7100000000000000000000000000000000000000000000000000000000600052603260045260246000fd5b6000613f2282612ed1565b91507fffffffffffffffffffffffffffffffffffffffffffffffffffffffffffffffff8203613f5457613f53613e25565b5b600182019050919050565b7f4f6e6c792061646d696e2063616e2063616c6c20746869732066756e6374696f60008201527f6e00000000000000000000000000000000000000000000000000000000000000602082015250565b6000613fbb602183612e28565b9150613fc682613f5f565b604082019050919050565b60006020820190508181036000830152613fea81613fae565b9050919050565b7f55706b656570206e6f74206e6565646564000000000000000000000000000000600082015250565b6000614027601183612e28565b915061403282613ff1565b602082019050919050565b600060208201905081810360008301526140568161401a565b9050919050565b600067ffffffffffffffff821115614078576140776132e8565b5b602082029050602081019050919050565b600061409c6140978461405d565b613348565b905080838252602082019050602084028301858111156140bf576140be613240565b5b835b818110156140e857806140d488826131f4565b8452602084019350506020810190506140c1565b5050509392505050565b600082601f83011261410757614106613236565b5b8135614117848260208601614089565b91505092915050565b6000602082840312156141365761413561317a565b5b600082013567ffffffffffffffff8111156141545761415361317f565b5b614160848285016140f2565b91505092915050565b7f4d69736d6174636820696e2070726f647563742049447320616e64207175616e60008201527f746974696573206c656e67746800000000000000000000000000000000000000602082015250565b60006141c5602d83612e28565b91506141d082614169565b604082019050919050565b600060208201905081810360008301526141f4816141b8565b9050919050565b600061420682612ed1565b915061421183612ed1565b925082820261421f81612ed1565b9150828204841483151761423657614235613e25565b5b5092915050565b7f4e487b7100000000000000000000000000000000000000000000000000000000600052601260045260246000fd5b600061427782612ed1565b915061428283612ed1565b9250826142925761429161423d565b5b828204905092915050565b7f496e636f7272656374204d415449432073656e74000000000000000000000000600082015250565b60006142d3601483612e28565b91506142de8261429d565b602082019050919050565b60006020820190508181036000830152614302816142c6565b9050919050565b600060608201905061431e60008301866135f0565b61432b60208301856135f0565b6143386040830184613146565b949350505050565b7f52657761726420506f696e7473207472616e73666572206661696c6564000000600082015250565b6000614376601d83612e28565b915061438182614340565b602082019050919050565b600060208201905081810360008301526143a581614369565b9050919050565b7f4c6f79616c747920546f6b656e207472616e73666572206661696c6564000000600082015250565b60006143e2601d83612e28565b91506143ed826143ac565b602082019050919050565b60006020820190508181036000830152614411816143d5565b9050919050565b7f5573657220616c72656164792072656769737465726564000000000000000000600082015250565b600061444e601783612e28565b915061445982614418565b602082019050919050565b6000602082019050818103600083015261447d81614441565b9050919050565b7f53656c6c657220616c7265616479207265676973746572656400000000000000600082015250565b60006144ba601983612e28565b91506144c582614484565b602082019050919050565b600060208201905081810360008301526144e9816144ad565b9050919050565b60006144fb82612ed1565b915061450683612ed1565b925082820190508082111561451e5761451d613e25565b5b92915050565b7f4f6e6c792073656c6c6572732063616e2063616c6c20746869732066756e637460008201527f696f6e0000000000000000000000000000000000000000000000000000000000602082015250565b6000614580602383612e28565b915061458b82614524565b604082019050919050565b600060208201905081810360008301526145af81614573565b9050919050565b60008190508160005260206000209050919050565b60006020601f8301049050919050565b600082821b905092915050565b6000600883026146187fffffffffffffffffffffffffffffffffffffffffffffffffffffffffffffffff826145db565b61462286836145db565b95508019841693508086168417925050509392505050565b600061465561465061464b84612ed1565b6137ac565b612ed1565b9050919050565b6000819050919050565b61466f8361463a565b61468361467b8261465c565b8484546145e8565b825550505050565b600090565b61469861468b565b6146a3818484614666565b505050565b5b818110156146c7576146bc600082614690565b6001810190506146a9565b5050565b601f82111561470c576146dd816145b6565b6146e6846145cb565b810160208510156146f5578190505b614709614701856145cb565b8301826146a8565b50505b505050565b600082821c905092915050565b600061472f60001984600802614711565b1980831691505092915050565b6000614748838361471e565b9150826002028217905092915050565b61476182612eea565b67ffffffffffffffff81111561477a576147796132e8565b5b6147848254613eb7565b61478f8282856146cb565b600060209050601f8311600181146147c257600084156147b0578287015190505b6147ba858261473c565b865550614822565b601f1984166147d0866145b6565b60005b828110156147f8578489015182556001820191506020850194506020810190506147d3565b868310156148155784890151614811601f89168261471e565b8355505b6001600288020188555050505b505050505050565b600060408201905081810360008301526148448185613826565b90506148536020830184613146565b9392505050565b7f416d6f756e742073686f756c642062652067726561746572207468616e203000600082015250565b6000614890601f83612e28565b915061489b8261485a565b602082019050919050565b600060208201905081810360008301526148bf81614883565b905091905056fea2646970667358221220f28a4adbecf5557a49839a8b37fcdad8ab8686b04d2932b4a7de2b8dc30d51b464736f6c63430008130033","opcodes":"PUSH1 0xA0 PUSH1 0x40 MSTORE PUSH1 0x1 PUSH1 0x8 SSTORE PUSH1 0x1 PUSH1 0x9 SSTORE CALLVALUE DUP1 ISZERO PUSH3 0x1B JUMPI PUSH1 0x0 DUP1 REVERT JUMPDEST POP PUSH1 0x40 MLOAD PUSH3 0x4AE4 CODESIZE SUB DUP1 PUSH3 0x4AE4 DUP4 CODECOPY DUP2 DUP2 ADD PUSH1 0x40 MSTORE DUP2 ADD SWAP1 PUSH3 0x41 SWAP2 SWAP1 PUSH3 0x17E JUMP JUMPDEST CALLER PUSH1 0x0 DUP1 PUSH2 0x100 EXP DUP2 SLOAD DUP2 PUSH20 0xFFFFFFFFFFFFFFFFFFFFFFFFFFFFFFFFFFFFFFFF MUL NOT AND SWAP1 DUP4 PUSH20 0xFFFFFFFFFFFFFFFFFFFFFFFFFFFFFFFFFFFFFFFF AND MUL OR SWAP1 SSTORE POP DUP2 PUSH1 0x1 PUSH1 0x0 PUSH2 0x100 EXP DUP2 SLOAD DUP2 PUSH20 0xFFFFFFFFFFFFFFFFFFFFFFFFFFFFFFFFFFFFFFFF MUL NOT AND SWAP1 DUP4 PUSH20 0xFFFFFFFFFFFFFFFFFFFFFFFFFFFFFFFFFFFFFFFF AND MUL OR SWAP1 SSTORE POP DUP1 PUSH1 0x80 DUP2 DUP2 MSTORE POP POP TIMESTAMP PUSH1 0x2 DUP2 SWAP1 SSTORE POP POP POP PUSH3 0x1C5 JUMP JUMPDEST PUSH1 0x0 DUP1 REVERT JUMPDEST PUSH1 0x0 PUSH20 0xFFFFFFFFFFFFFFFFFFFFFFFFFFFFFFFFFFFFFFFF DUP3 AND SWAP1 POP SWAP2 SWAP1 POP JUMP JUMPDEST PUSH1 0x0 PUSH3 0x10B DUP3 PUSH3 0xDE JUMP JUMPDEST SWAP1 POP SWAP2 SWAP1 POP JUMP JUMPDEST PUSH3 0x11D DUP2 PUSH3 0xFE JUMP JUMPDEST DUP2 EQ PUSH3 0x129 JUMPI PUSH1 0x0 DUP1 REVERT JUMPDEST POP JUMP JUMPDEST PUSH1 0x0 DUP2 MLOAD SWAP1 POP PUSH3 0x13D DUP2 PUSH3 0x112 JUMP JUMPDEST SWAP3 SWAP2 POP POP JUMP JUMPDEST PUSH1 0x0 DUP2 SWAP1 POP SWAP2 SWAP1 POP JUMP JUMPDEST PUSH3 0x158 DUP2 PUSH3 0x143 JUMP JUMPDEST DUP2 EQ PUSH3 0x164 JUMPI PUSH1 0x0 DUP1 REVERT JUMPDEST POP JUMP JUMPDEST PUSH1 0x0 DUP2 MLOAD SWAP1 POP PUSH3 0x178 DUP2 PUSH3 0x14D JUMP JUMPDEST SWAP3 SWAP2 POP POP JUMP JUMPDEST PUSH1 0x0 DUP1 PUSH1 0x40 DUP4 DUP6 SUB SLT ISZERO PUSH3 0x198 JUMPI PUSH3 0x197 PUSH3 0xD9 JUMP JUMPDEST JUMPDEST PUSH1 0x0 PUSH3 0x1A8 DUP6 DUP3 DUP7 ADD PUSH3 0x12C JUMP JUMPDEST SWAP3 POP POP PUSH1 0x20 PUSH3 0x1BB DUP6 DUP3 DUP7 ADD PUSH3 0x167 JUMP JUMPDEST SWAP2 POP POP SWAP3 POP SWAP3 SWAP1 POP JUMP JUMPDEST PUSH1 0x80 MLOAD PUSH2 0x48FC PUSH3 0x1E8 PUSH1 0x0 CODECOPY PUSH1 0x0 DUP2 DUP2 PUSH2 0x1E1E ADD MSTORE PUSH2 0x2629 ADD MSTORE PUSH2 0x48FC PUSH1 0x0 RETURN INVALID PUSH1 0x80 PUSH1 0x40 MSTORE PUSH1 0x4 CALLDATASIZE LT PUSH2 0x185 JUMPI PUSH1 0x0 CALLDATALOAD PUSH1 0xE0 SHR DUP1 PUSH4 0x6D47AB72 GT PUSH2 0xD1 JUMPI DUP1 PUSH4 0xA85C38EF GT PUSH2 0x8A JUMPI DUP1 PUSH4 0xBF368399 GT PUSH2 0x64 JUMPI DUP1 PUSH4 0xBF368399 EQ PUSH2 0x587 JUMPI DUP1 PUSH4 0xC29D72BC EQ PUSH2 0x5C4 JUMPI DUP1 PUSH4 0xF851A440 EQ PUSH2 0x5EF JUMPI DUP1 PUSH4 0xFFA8EFC9 EQ PUSH2 0x61A JUMPI PUSH2 0x194 JUMP JUMPDEST DUP1 PUSH4 0xA85C38EF EQ PUSH2 0x4DF JUMPI DUP1 PUSH4 0xA87430BA EQ PUSH2 0x51F JUMPI DUP1 PUSH4 0xB656638B EQ PUSH2 0x55E JUMPI PUSH2 0x194 JUMP JUMPDEST DUP1 PUSH4 0x6D47AB72 EQ PUSH2 0x3A0 JUMPI DUP1 PUSH4 0x6E04FF0D EQ PUSH2 0x3DD JUMPI DUP1 PUSH4 0x770AA84D EQ PUSH2 0x41B JUMPI DUP1 PUSH4 0x7ACC0B20 EQ PUSH2 0x446 JUMPI DUP1 PUSH4 0x816837E3 EQ PUSH2 0x48B JUMPI DUP1 PUSH4 0x947A36FB EQ PUSH2 0x4B4 JUMPI PUSH2 0x194 JUMP JUMPDEST DUP1 PUSH4 0x4585E33B GT PUSH2 0x13E JUMPI DUP1 PUSH4 0x4DE91A63 GT PUSH2 0x118 JUMPI DUP1 PUSH4 0x4DE91A63 EQ PUSH2 0x308 JUMPI DUP1 PUSH4 0x52C9224C EQ PUSH2 0x333 JUMPI DUP1 PUSH4 0x562DF3D5 EQ PUSH2 0x34A JUMPI DUP1 PUSH4 0x664E9704 EQ PUSH2 0x375 JUMPI PUSH2 0x194 JUMP JUMPDEST DUP1 PUSH4 0x4585E33B EQ PUSH2 0x2AC JUMPI DUP1 PUSH4 0x45A38293 EQ PUSH2 0x2D5 JUMPI DUP1 PUSH4 0x4D3820EB EQ PUSH2 0x2F1 JUMPI PUSH2 0x194 JUMP JUMPDEST DUP1 PUSH4 0x2EE3A52 EQ PUSH2 0x1CF JUMPI DUP1 PUSH4 0x19D8AC61 EQ PUSH2 0x1FA JUMPI DUP1 PUSH4 0x2A58B330 EQ PUSH2 0x225 JUMPI DUP1 PUSH4 0x315A095D EQ PUSH2 0x250 JUMPI DUP1 PUSH4 0x33FF7BBD EQ PUSH2 0x279 JUMPI DUP1 PUSH4 0x42DF2B1D EQ PUSH2 0x283 JUMPI PUSH2 0x194 JUMP JUMPDEST CALLDATASIZE PUSH2 0x194 JUMPI PUSH2 0x192 PUSH2 0x643 JUMP JUMPDEST STOP JUMPDEST PUSH1 0x40 MLOAD PUSH32 0x8C379A000000000000000000000000000000000000000000000000000000000 DUP2 MSTORE PUSH1 0x4 ADD PUSH2 0x1C6 SWAP1 PUSH2 0x2E85 JUMP JUMPDEST PUSH1 0x40 MLOAD DUP1 SWAP2 SUB SWAP1 REVERT JUMPDEST CALLVALUE DUP1 ISZERO PUSH2 0x1DB JUMPI PUSH1 0x0 DUP1 REVERT JUMPDEST POP PUSH2 0x1E4 PUSH2 0x8B5 JUMP JUMPDEST PUSH1 0x40 MLOAD PUSH2 0x1F1 SWAP2 SWAP1 PUSH2 0x3124 JUMP JUMPDEST PUSH1 0x40 MLOAD DUP1 SWAP2 SUB SWAP1 RETURN JUMPDEST CALLVALUE DUP1 ISZERO PUSH2 0x206 JUMPI PUSH1 0x0 DUP1 REVERT JUMPDEST POP PUSH2 0x20F PUSH2 0xBD0 JUMP JUMPDEST PUSH1 0x40 MLOAD PUSH2 0x21C SWAP2 SWAP1 PUSH2 0x3155 JUMP JUMPDEST PUSH1 0x40 MLOAD DUP1 SWAP2 SUB SWAP1 RETURN JUMPDEST CALLVALUE DUP1 ISZERO PUSH2 0x231 JUMPI PUSH1 0x0 DUP1 REVERT JUMPDEST POP PUSH2 0x23A PUSH2 0xBD6 JUMP JUMPDEST PUSH1 0x40 MLOAD PUSH2 0x247 SWAP2 SWAP1 PUSH2 0x3155 JUMP JUMPDEST PUSH1 0x40 MLOAD DUP1 SWAP2 SUB SWAP1 RETURN JUMPDEST CALLVALUE DUP1 ISZERO PUSH2 0x25C JUMPI PUSH1 0x0 DUP1 REVERT JUMPDEST POP PUSH2 0x277 PUSH1 0x4 DUP1 CALLDATASIZE SUB DUP2 ADD SWAP1 PUSH2 0x272 SWAP2 SWAP1 PUSH2 0x31B0 JUMP JUMPDEST PUSH2 0xBDC JUMP JUMPDEST STOP JUMPDEST PUSH2 0x281 PUSH2 0x643 JUMP JUMPDEST STOP JUMPDEST CALLVALUE DUP1 ISZERO PUSH2 0x28F JUMPI PUSH1 0x0 DUP1 REVERT JUMPDEST POP PUSH2 0x2AA PUSH1 0x4 DUP1 CALLDATASIZE SUB DUP2 ADD SWAP1 PUSH2 0x2A5 SWAP2 SWAP1 PUSH2 0x3209 JUMP JUMPDEST PUSH2 0xD7C JUMP JUMPDEST STOP JUMPDEST CALLVALUE DUP1 ISZERO PUSH2 0x2B8 JUMPI PUSH1 0x0 DUP1 REVERT JUMPDEST POP PUSH2 0x2D3 PUSH1 0x4 DUP1 CALLDATASIZE SUB DUP2 ADD SWAP1 PUSH2 0x2CE SWAP2 SWAP1 PUSH2 0x329B JUMP JUMPDEST PUSH2 0xE9C JUMP JUMPDEST STOP JUMPDEST PUSH2 0x2EF PUSH1 0x4 DUP1 CALLDATASIZE SUB DUP2 ADD SWAP1 PUSH2 0x2EA SWAP2 SWAP1 PUSH2 0x3521 JUMP JUMPDEST PUSH2 0xF30 JUMP JUMPDEST STOP JUMPDEST CALLVALUE DUP1 ISZERO PUSH2 0x2FD JUMPI PUSH1 0x0 DUP1 REVERT JUMPDEST POP PUSH2 0x306 PUSH2 0x193F JUMP JUMPDEST STOP JUMPDEST CALLVALUE DUP1 ISZERO PUSH2 0x314 JUMPI PUSH1 0x0 DUP1 REVERT JUMPDEST POP PUSH2 0x31D PUSH2 0x1B91 JUMP JUMPDEST PUSH1 0x40 MLOAD PUSH2 0x32A SWAP2 SWAP1 PUSH2 0x3155 JUMP JUMPDEST PUSH1 0x40 MLOAD DUP1 SWAP2 SUB SWAP1 RETURN JUMPDEST CALLVALUE DUP1 ISZERO PUSH2 0x33F JUMPI PUSH1 0x0 DUP1 REVERT JUMPDEST POP PUSH2 0x348 PUSH2 0x1B97 JUMP JUMPDEST STOP JUMPDEST CALLVALUE DUP1 ISZERO PUSH2 0x356 JUMPI PUSH1 0x0 DUP1 REVERT JUMPDEST POP PUSH2 0x35F PUSH2 0x1DC7 JUMP JUMPDEST PUSH1 0x40 MLOAD PUSH2 0x36C SWAP2 SWAP1 PUSH2 0x3155 JUMP JUMPDEST PUSH1 0x40 MLOAD DUP1 SWAP2 SUB SWAP1 RETURN JUMPDEST CALLVALUE DUP1 ISZERO PUSH2 0x381 JUMPI PUSH1 0x0 DUP1 REVERT JUMPDEST POP PUSH2 0x38A PUSH2 0x1DCC JUMP JUMPDEST PUSH1 0x40 MLOAD PUSH2 0x397 SWAP2 SWAP1 PUSH2 0x3155 JUMP JUMPDEST PUSH1 0x40 MLOAD DUP1 SWAP2 SUB SWAP1 RETURN JUMPDEST CALLVALUE DUP1 ISZERO PUSH2 0x3AC JUMPI PUSH1 0x0 DUP1 REVERT JUMPDEST POP PUSH2 0x3C7 PUSH1 0x4 DUP1 CALLDATASIZE SUB DUP2 ADD SWAP1 PUSH2 0x3C2 SWAP2 SWAP1 PUSH2 0x3209 JUMP JUMPDEST PUSH2 0x1DD8 JUMP JUMPDEST PUSH1 0x40 MLOAD PUSH2 0x3D4 SWAP2 SWAP1 PUSH2 0x35FF JUMP JUMPDEST PUSH1 0x40 MLOAD DUP1 SWAP2 SUB SWAP1 RETURN JUMPDEST CALLVALUE DUP1 ISZERO PUSH2 0x3E9 JUMPI PUSH1 0x0 DUP1 REVERT JUMPDEST POP PUSH2 0x404 PUSH1 0x4 DUP1 CALLDATASIZE SUB DUP2 ADD SWAP1 PUSH2 0x3FF SWAP2 SWAP1 PUSH2 0x36CF JUMP JUMPDEST PUSH2 0x1E16 JUMP JUMPDEST PUSH1 0x40 MLOAD PUSH2 0x412 SWAP3 SWAP2 SWAP1 PUSH2 0x377C JUMP JUMPDEST PUSH1 0x40 MLOAD DUP1 SWAP2 SUB SWAP1 RETURN JUMPDEST CALLVALUE DUP1 ISZERO PUSH2 0x427 JUMPI PUSH1 0x0 DUP1 REVERT JUMPDEST POP PUSH2 0x430 PUSH2 0x22B5 JUMP JUMPDEST PUSH1 0x40 MLOAD PUSH2 0x43D SWAP2 SWAP1 PUSH2 0x380B JUMP JUMPDEST PUSH1 0x40 MLOAD DUP1 SWAP2 SUB SWAP1 RETURN JUMPDEST CALLVALUE DUP1 ISZERO PUSH2 0x452 JUMPI PUSH1 0x0 DUP1 REVERT JUMPDEST POP PUSH2 0x46D PUSH1 0x4 DUP1 CALLDATASIZE SUB DUP2 ADD SWAP1 PUSH2 0x468 SWAP2 SWAP1 PUSH2 0x31B0 JUMP JUMPDEST PUSH2 0x22DB JUMP JUMPDEST PUSH1 0x40 MLOAD PUSH2 0x482 SWAP10 SWAP9 SWAP8 SWAP7 SWAP6 SWAP5 SWAP4 SWAP3 SWAP2 SWAP1 PUSH2 0x385F JUMP JUMPDEST PUSH1 0x40 MLOAD DUP1 SWAP2 SUB SWAP1 RETURN JUMPDEST CALLVALUE DUP1 ISZERO PUSH2 0x497 JUMPI PUSH1 0x0 DUP1 REVERT JUMPDEST POP PUSH2 0x4B2 PUSH1 0x4 DUP1 CALLDATASIZE SUB DUP2 ADD SWAP1 PUSH2 0x4AD SWAP2 SWAP1 PUSH2 0x31B0 JUMP JUMPDEST PUSH2 0x24E1 JUMP JUMPDEST STOP JUMPDEST CALLVALUE DUP1 ISZERO PUSH2 0x4C0 JUMPI PUSH1 0x0 DUP1 REVERT JUMPDEST POP PUSH2 0x4C9 PUSH2 0x2627 JUMP JUMPDEST PUSH1 0x40 MLOAD PUSH2 0x4D6 SWAP2 SWAP1 PUSH2 0x3155 JUMP JUMPDEST PUSH1 0x40 MLOAD DUP1 SWAP2 SUB SWAP1 RETURN JUMPDEST CALLVALUE DUP1 ISZERO PUSH2 0x4EB JUMPI PUSH1 0x0 DUP1 REVERT JUMPDEST POP PUSH2 0x506 PUSH1 0x4 DUP1 CALLDATASIZE SUB DUP2 ADD SWAP1 PUSH2 0x501 SWAP2 SWAP1 PUSH2 0x31B0 JUMP JUMPDEST PUSH2 0x264B JUMP JUMPDEST PUSH1 0x40 MLOAD PUSH2 0x516 SWAP5 SWAP4 SWAP3 SWAP2 SWAP1 PUSH2 0x3901 JUMP JUMPDEST PUSH1 0x40 MLOAD DUP1 SWAP2 SUB SWAP1 RETURN JUMPDEST CALLVALUE DUP1 ISZERO PUSH2 0x52B JUMPI PUSH1 0x0 DUP1 REVERT JUMPDEST POP PUSH2 0x546 PUSH1 0x4 DUP1 CALLDATASIZE SUB DUP2 ADD SWAP1 PUSH2 0x541 SWAP2 SWAP1 PUSH2 0x3209 JUMP JUMPDEST PUSH2 0x269B JUMP JUMPDEST PUSH1 0x40 MLOAD PUSH2 0x555 SWAP4 SWAP3 SWAP2 SWAP1 PUSH2 0x3946 JUMP JUMPDEST PUSH1 0x40 MLOAD DUP1 SWAP2 SUB SWAP1 RETURN JUMPDEST CALLVALUE DUP1 ISZERO PUSH2 0x56A JUMPI PUSH1 0x0 DUP1 REVERT JUMPDEST POP PUSH2 0x585 PUSH1 0x4 DUP1 CALLDATASIZE SUB DUP2 ADD SWAP1 PUSH2 0x580 SWAP2 SWAP1 PUSH2 0x3A1E JUMP JUMPDEST PUSH2 0x26E5 JUMP JUMPDEST STOP JUMPDEST CALLVALUE DUP1 ISZERO PUSH2 0x593 JUMPI PUSH1 0x0 DUP1 REVERT JUMPDEST POP PUSH2 0x5AE PUSH1 0x4 DUP1 CALLDATASIZE SUB DUP2 ADD SWAP1 PUSH2 0x5A9 SWAP2 SWAP1 PUSH2 0x31B0 JUMP JUMPDEST PUSH2 0x29C1 JUMP JUMPDEST PUSH1 0x40 MLOAD PUSH2 0x5BB SWAP2 SWAP1 PUSH2 0x35FF JUMP JUMPDEST PUSH1 0x40 MLOAD DUP1 SWAP2 SUB SWAP1 RETURN JUMPDEST CALLVALUE DUP1 ISZERO PUSH2 0x5D0 JUMPI PUSH1 0x0 DUP1 REVERT JUMPDEST POP PUSH2 0x5D9 PUSH2 0x2A00 JUMP JUMPDEST PUSH1 0x40 MLOAD PUSH2 0x5E6 SWAP2 SWAP1 PUSH2 0x3BC3 JUMP JUMPDEST PUSH1 0x40 MLOAD DUP1 SWAP2 SUB SWAP1 RETURN JUMPDEST CALLVALUE DUP1 ISZERO PUSH2 0x5FB JUMPI PUSH1 0x0 DUP1 REVERT JUMPDEST POP PUSH2 0x604 PUSH2 0x2A8E JUMP JUMPDEST PUSH1 0x40 MLOAD PUSH2 0x611 SWAP2 SWAP1 PUSH2 0x35FF JUMP JUMPDEST PUSH1 0x40 MLOAD DUP1 SWAP2 SUB SWAP1 RETURN JUMPDEST CALLVALUE DUP1 ISZERO PUSH2 0x626 JUMPI PUSH1 0x0 DUP1 REVERT JUMPDEST POP PUSH2 0x641 PUSH1 0x4 DUP1 CALLDATASIZE SUB DUP2 ADD SWAP1 PUSH2 0x63C SWAP2 SWAP1 PUSH2 0x31B0 JUMP JUMPDEST PUSH2 0x2AB2 JUMP JUMPDEST STOP JUMPDEST PUSH1 0x0 CALLVALUE GT PUSH2 0x686 JUMPI PUSH1 0x40 MLOAD PUSH32 0x8C379A000000000000000000000000000000000000000000000000000000000 DUP2 MSTORE PUSH1 0x4 ADD PUSH2 0x67D SWAP1 PUSH2 0x3C57 JUMP JUMPDEST PUSH1 0x40 MLOAD DUP1 SWAP2 SUB SWAP1 REVERT JUMPDEST PUSH1 0x0 PUSH2 0x6A3 PUSH8 0xDE0B6B3A7640000 CALLVALUE PUSH2 0x2C90 SWAP1 SWAP2 SWAP1 PUSH4 0xFFFFFFFF AND JUMP JUMPDEST SWAP1 POP DUP1 PUSH1 0x1 PUSH1 0x0 SWAP1 SLOAD SWAP1 PUSH2 0x100 EXP SWAP1 DIV PUSH20 0xFFFFFFFFFFFFFFFFFFFFFFFFFFFFFFFFFFFFFFFF AND PUSH20 0xFFFFFFFFFFFFFFFFFFFFFFFFFFFFFFFFFFFFFFFF AND PUSH4 0x70A08231 ADDRESS PUSH1 0x40 MLOAD DUP3 PUSH4 0xFFFFFFFF AND PUSH1 0xE0 SHL DUP2 MSTORE PUSH1 0x4 ADD PUSH2 0x701 SWAP2 SWAP1 PUSH2 0x35FF JUMP JUMPDEST PUSH1 0x20 PUSH1 0x40 MLOAD DUP1 DUP4 SUB DUP2 DUP7 GAS STATICCALL ISZERO DUP1 ISZERO PUSH2 0x71E JUMPI RETURNDATASIZE PUSH1 0x0 DUP1 RETURNDATACOPY RETURNDATASIZE PUSH1 0x0 REVERT JUMPDEST POP POP POP POP PUSH1 0x40 MLOAD RETURNDATASIZE PUSH1 0x1F NOT PUSH1 0x1F DUP3 ADD AND DUP3 ADD DUP1 PUSH1 0x40 MSTORE POP DUP2 ADD SWAP1 PUSH2 0x742 SWAP2 SWAP1 PUSH2 0x3C8C JUMP JUMPDEST LT ISZERO PUSH2 0x783 JUMPI PUSH1 0x40 MLOAD PUSH32 0x8C379A000000000000000000000000000000000000000000000000000000000 DUP2 MSTORE PUSH1 0x4 ADD PUSH2 0x77A SWAP1 PUSH2 0x3D05 JUMP JUMPDEST PUSH1 0x40 MLOAD DUP1 SWAP2 SUB SWAP1 REVERT JUMPDEST PUSH1 0x1 PUSH1 0x0 SWAP1 SLOAD SWAP1 PUSH2 0x100 EXP SWAP1 DIV PUSH20 0xFFFFFFFFFFFFFFFFFFFFFFFFFFFFFFFFFFFFFFFF AND PUSH20 0xFFFFFFFFFFFFFFFFFFFFFFFFFFFFFFFFFFFFFFFF AND PUSH4 0xA9059CBB CALLER DUP4 PUSH1 0x40 MLOAD DUP4 PUSH4 0xFFFFFFFF AND PUSH1 0xE0 SHL DUP2 MSTORE PUSH1 0x4 ADD PUSH2 0x7E0 SWAP3 SWAP2 SWAP1 PUSH2 0x3D25 JUMP JUMPDEST PUSH1 0x20 PUSH1 0x40 MLOAD DUP1 DUP4 SUB DUP2 PUSH1 0x0 DUP8 GAS CALL ISZERO DUP1 ISZERO PUSH2 0x7FF JUMPI RETURNDATASIZE PUSH1 0x0 DUP1 RETURNDATACOPY RETURNDATASIZE PUSH1 0x0 REVERT JUMPDEST POP POP POP POP PUSH1 0x40 MLOAD RETURNDATASIZE PUSH1 0x1F NOT PUSH1 0x1F DUP3 ADD AND DUP3 ADD DUP1 PUSH1 0x40 MSTORE POP DUP2 ADD SWAP1 PUSH2 0x823 SWAP2 SWAP1 PUSH2 0x3D63 JUMP JUMPDEST PUSH2 0x862 JUMPI PUSH1 0x40 MLOAD PUSH32 0x8C379A000000000000000000000000000000000000000000000000000000000 DUP2 MSTORE PUSH1 0x4 ADD PUSH2 0x859 SWAP1 PUSH2 0x3DDC JUMP JUMPDEST PUSH1 0x40 MLOAD DUP1 SWAP2 SUB SWAP1 REVERT JUMPDEST CALLER PUSH20 0xFFFFFFFFFFFFFFFFFFFFFFFFFFFFFFFFFFFFFFFF AND PUSH32 0x95DB8762F4600873DF8FDBC44F0E34FA831E5CC7396F3DDA3A5CD0825ACD5BDB CALLVALUE DUP4 PUSH1 0x40 MLOAD PUSH2 0x8AA SWAP3 SWAP2 SWAP1 PUSH2 0x3DFC JUMP JUMPDEST PUSH1 0x40 MLOAD DUP1 SWAP2 SUB SWAP1 LOG2 POP JUMP JUMPDEST PUSH1 0x60 PUSH1 0x0 PUSH1 0x1 PUSH1 0x8 SLOAD PUSH2 0x8C8 SWAP2 SWAP1 PUSH2 0x3E54 JUMP JUMPDEST PUSH8 0xFFFFFFFFFFFFFFFF DUP2 GT ISZERO PUSH2 0x8E1 JUMPI PUSH2 0x8E0 PUSH2 0x32E8 JUMP JUMPDEST JUMPDEST PUSH1 0x40 MLOAD SWAP1 DUP1 DUP3 MSTORE DUP1 PUSH1 0x20 MUL PUSH1 0x20 ADD DUP3 ADD PUSH1 0x40 MSTORE DUP1 ISZERO PUSH2 0x91A JUMPI DUP2 PUSH1 0x20 ADD JUMPDEST PUSH2 0x907 PUSH2 0x2CD2 JUMP JUMPDEST DUP2 MSTORE PUSH1 0x20 ADD SWAP1 PUSH1 0x1 SWAP1 SUB SWAP1 DUP2 PUSH2 0x8FF JUMPI SWAP1 POP JUMPDEST POP SWAP1 POP PUSH1 0x0 PUSH1 0x1 SWAP1 POP JUMPDEST PUSH1 0x8 SLOAD DUP2 LT ISZERO PUSH2 0xBC8 JUMPI PUSH1 0x6 PUSH1 0x0 DUP3 DUP2 MSTORE PUSH1 0x20 ADD SWAP1 DUP2 MSTORE PUSH1 0x20 ADD PUSH1 0x0 KECCAK256 PUSH1 0x40 MLOAD DUP1 PUSH2 0x120 ADD PUSH1 0x40 MSTORE SWAP1 DUP2 PUSH1 0x0 DUP3 ADD SLOAD DUP2 MSTORE PUSH1 0x20 ADD PUSH1 0x1 DUP3 ADD DUP1 SLOAD PUSH2 0x967 SWAP1 PUSH2 0x3EB7 JUMP JUMPDEST DUP1 PUSH1 0x1F ADD PUSH1 0x20 DUP1 SWAP2 DIV MUL PUSH1 0x20 ADD PUSH1 0x40 MLOAD SWAP1 DUP2 ADD PUSH1 0x40 MSTORE DUP1 SWAP3 SWAP2 SWAP1 DUP2 DUP2 MSTORE PUSH1 0x20 ADD DUP3 DUP1 SLOAD PUSH2 0x993 SWAP1 PUSH2 0x3EB7 JUMP JUMPDEST DUP1 ISZERO PUSH2 0x9E0 JUMPI DUP1 PUSH1 0x1F LT PUSH2 0x9B5 JUMPI PUSH2 0x100 DUP1 DUP4 SLOAD DIV MUL DUP4 MSTORE SWAP2 PUSH1 0x20 ADD SWAP2 PUSH2 0x9E0 JUMP JUMPDEST DUP3 ADD SWAP2 SWAP1 PUSH1 0x0 MSTORE PUSH1 0x20 PUSH1 0x0 KECCAK256 SWAP1 JUMPDEST DUP2 SLOAD DUP2 MSTORE SWAP1 PUSH1 0x1 ADD SWAP1 PUSH1 0x20 ADD DUP1 DUP4 GT PUSH2 0x9C3 JUMPI DUP3 SWAP1 SUB PUSH1 0x1F AND DUP3 ADD SWAP2 JUMPDEST POP POP POP POP POP DUP2 MSTORE PUSH1 0x20 ADD PUSH1 0x2 DUP3 ADD DUP1 SLOAD PUSH2 0x9F9 SWAP1 PUSH2 0x3EB7 JUMP JUMPDEST DUP1 PUSH1 0x1F ADD PUSH1 0x20 DUP1 SWAP2 DIV MUL PUSH1 0x20 ADD PUSH1 0x40 MLOAD SWAP1 DUP2 ADD PUSH1 0x40 MSTORE DUP1 SWAP3 SWAP2 SWAP1 DUP2 DUP2 MSTORE PUSH1 0x20 ADD DUP3 DUP1 SLOAD PUSH2 0xA25 SWAP1 PUSH2 0x3EB7 JUMP JUMPDEST DUP1 ISZERO PUSH2 0xA72 JUMPI DUP1 PUSH1 0x1F LT PUSH2 0xA47 JUMPI PUSH2 0x100 DUP1 DUP4 SLOAD DIV MUL DUP4 MSTORE SWAP2 PUSH1 0x20 ADD SWAP2 PUSH2 0xA72 JUMP JUMPDEST DUP3 ADD SWAP2 SWAP1 PUSH1 0x0 MSTORE PUSH1 0x20 PUSH1 0x0 KECCAK256 SWAP1 JUMPDEST DUP2 SLOAD DUP2 MSTORE SWAP1 PUSH1 0x1 ADD SWAP1 PUSH1 0x20 ADD DUP1 DUP4 GT PUSH2 0xA55 JUMPI DUP3 SWAP1 SUB PUSH1 0x1F AND DUP3 ADD SWAP2 JUMPDEST POP POP POP POP POP DUP2 MSTORE PUSH1 0x20 ADD PUSH1 0x3 DUP3 ADD SLOAD DUP2 MSTORE PUSH1 0x20 ADD PUSH1 0x4 DUP3 ADD PUSH1 0x0 SWAP1 SLOAD SWAP1 PUSH2 0x100 EXP SWAP1 DIV PUSH20 0xFFFFFFFFFFFFFFFFFFFFFFFFFFFFFFFFFFFFFFFF AND PUSH20 0xFFFFFFFFFFFFFFFFFFFFFFFFFFFFFFFFFFFFFFFF AND PUSH20 0xFFFFFFFFFFFFFFFFFFFFFFFFFFFFFFFFFFFFFFFF AND DUP2 MSTORE PUSH1 0x20 ADD PUSH1 0x5 DUP3 ADD SLOAD DUP2 MSTORE PUSH1 0x20 ADD PUSH1 0x6 DUP3 ADD SLOAD DUP2 MSTORE PUSH1 0x20 ADD PUSH1 0x7 DUP3 ADD SLOAD DUP2 MSTORE PUSH1 0x20 ADD PUSH1 0x8 DUP3 ADD DUP1 SLOAD PUSH2 0xB09 SWAP1 PUSH2 0x3EB7 JUMP JUMPDEST DUP1 PUSH1 0x1F ADD PUSH1 0x20 DUP1 SWAP2 DIV MUL PUSH1 0x20 ADD PUSH1 0x40 MLOAD SWAP1 DUP2 ADD PUSH1 0x40 MSTORE DUP1 SWAP3 SWAP2 SWAP1 DUP2 DUP2 MSTORE PUSH1 0x20 ADD DUP3 DUP1 SLOAD PUSH2 0xB35 SWAP1 PUSH2 0x3EB7 JUMP JUMPDEST DUP1 ISZERO PUSH2 0xB82 JUMPI DUP1 PUSH1 0x1F LT PUSH2 0xB57 JUMPI PUSH2 0x100 DUP1 DUP4 SLOAD DIV MUL DUP4 MSTORE SWAP2 PUSH1 0x20 ADD SWAP2 PUSH2 0xB82 JUMP JUMPDEST DUP3 ADD SWAP2 SWAP1 PUSH1 0x0 MSTORE PUSH1 0x20 PUSH1 0x0 KECCAK256 SWAP1 JUMPDEST DUP2 SLOAD DUP2 MSTORE SWAP1 PUSH1 0x1 ADD SWAP1 PUSH1 0x20 ADD DUP1 DUP4 GT PUSH2 0xB65 JUMPI DUP3 SWAP1 SUB PUSH1 0x1F AND DUP3 ADD SWAP2 JUMPDEST POP POP POP POP POP DUP2 MSTORE POP POP DUP3 PUSH1 0x1 DUP4 PUSH2 0xB99 SWAP2 SWAP1 PUSH2 0x3E54 JUMP JUMPDEST DUP2 MLOAD DUP2 LT PUSH2 0xBAA JUMPI PUSH2 0xBA9 PUSH2 0x3EE8 JUMP JUMPDEST JUMPDEST PUSH1 0x20 MUL PUSH1 0x20 ADD ADD DUP2 SWAP1 MSTORE POP DUP1 DUP1 PUSH2 0xBC0 SWAP1 PUSH2 0x3F17 JUMP JUMPDEST SWAP2 POP POP PUSH2 0x924 JUMP JUMPDEST POP DUP1 SWAP2 POP POP SWAP1 JUMP JUMPDEST PUSH1 0x2 SLOAD DUP2 JUMP JUMPDEST PUSH1 0x9 SLOAD DUP2 JUMP JUMPDEST PUSH1 0x0 DUP1 SLOAD SWAP1 PUSH2 0x100 EXP SWAP1 DIV PUSH20 0xFFFFFFFFFFFFFFFFFFFFFFFFFFFFFFFFFFFFFFFF AND PUSH20 0xFFFFFFFFFFFFFFFFFFFFFFFFFFFFFFFFFFFFFFFF AND CALLER PUSH20 0xFFFFFFFFFFFFFFFFFFFFFFFFFFFFFFFFFFFFFFFF AND EQ PUSH2 0xC6A JUMPI PUSH1 0x40 MLOAD PUSH32 0x8C379A000000000000000000000000000000000000000000000000000000000 DUP2 MSTORE PUSH1 0x4 ADD PUSH2 0xC61 SWAP1 PUSH2 0x3FD1 JUMP JUMPDEST PUSH1 0x40 MLOAD DUP1 SWAP2 SUB SWAP1 REVERT JUMPDEST PUSH1 0x1 PUSH1 0x0 SWAP1 SLOAD SWAP1 PUSH2 0x100 EXP SWAP1 DIV PUSH20 0xFFFFFFFFFFFFFFFFFFFFFFFFFFFFFFFFFFFFFFFF AND PUSH20 0xFFFFFFFFFFFFFFFFFFFFFFFFFFFFFFFFFFFFFFFF AND PUSH4 0xA9059CBB PUSH1 0x0 DUP1 SLOAD SWAP1 PUSH2 0x100 EXP SWAP1 DIV PUSH20 0xFFFFFFFFFFFFFFFFFFFFFFFFFFFFFFFFFFFFFFFF AND DUP4 PUSH1 0x40 MLOAD DUP4 PUSH4 0xFFFFFFFF AND PUSH1 0xE0 SHL DUP2 MSTORE PUSH1 0x4 ADD PUSH2 0xCE7 SWAP3 SWAP2 SWAP1 PUSH2 0x3D25 JUMP JUMPDEST PUSH1 0x20 PUSH1 0x40 MLOAD DUP1 DUP4 SUB DUP2 PUSH1 0x0 DUP8 GAS CALL ISZERO DUP1 ISZERO PUSH2 0xD06 JUMPI RETURNDATASIZE PUSH1 0x0 DUP1 RETURNDATACOPY RETURNDATASIZE PUSH1 0x0 REVERT JUMPDEST POP POP POP POP PUSH1 0x40 MLOAD RETURNDATASIZE PUSH1 0x1F NOT PUSH1 0x1F DUP3 ADD AND DUP3 ADD DUP1 PUSH1 0x40 MSTORE POP DUP2 ADD SWAP1 PUSH2 0xD2A SWAP2 SWAP1 PUSH2 0x3D63 JUMP JUMPDEST POP CALLER PUSH20 0xFFFFFFFFFFFFFFFFFFFFFFFFFFFFFFFFFFFFFFFF AND PUSH32 0x6352C5382C4A4578E712449CA65E83CDB392D045DFCF1CAD9615189DB2DA244B DUP3 PUSH1 0x40 MLOAD PUSH2 0xD71 SWAP2 SWAP1 PUSH2 0x3155 JUMP JUMPDEST PUSH1 0x40 MLOAD DUP1 SWAP2 SUB SWAP1 LOG2 POP JUMP JUMPDEST PUSH1 0x0 DUP1 SLOAD SWAP1 PUSH2 0x100 EXP SWAP1 DIV PUSH20 0xFFFFFFFFFFFFFFFFFFFFFFFFFFFFFFFFFFFFFFFF AND PUSH20 0xFFFFFFFFFFFFFFFFFFFFFFFFFFFFFFFFFFFFFFFF AND CALLER PUSH20 0xFFFFFFFFFFFFFFFFFFFFFFFFFFFFFFFFFFFFFFFF AND EQ PUSH2 0xE0A JUMPI PUSH1 0x40 MLOAD PUSH32 0x8C379A000000000000000000000000000000000000000000000000000000000 DUP2 MSTORE PUSH1 0x4 ADD PUSH2 0xE01 SWAP1 PUSH2 0x3FD1 JUMP JUMPDEST PUSH1 0x40 MLOAD DUP1 SWAP2 SUB SWAP1 REVERT JUMPDEST DUP1 PUSH1 0x1 PUSH1 0x0 PUSH2 0x100 EXP DUP2 SLOAD DUP2 PUSH20 0xFFFFFFFFFFFFFFFFFFFFFFFFFFFFFFFFFFFFFFFF MUL NOT AND SWAP1 DUP4 PUSH20 0xFFFFFFFFFFFFFFFFFFFFFFFFFFFFFFFFFFFFFFFF AND MUL OR SWAP1 SSTORE POP CALLER PUSH20 0xFFFFFFFFFFFFFFFFFFFFFFFFFFFFFFFFFFFFFFFF AND PUSH32 0x6ECA818BB499E114C9A2EAD8C104A976418F0CA9C27FD7EAD167E9125E613D45 DUP3 PUSH1 0x40 MLOAD PUSH2 0xE91 SWAP2 SWAP1 PUSH2 0x35FF JUMP JUMPDEST PUSH1 0x40 MLOAD DUP1 SWAP2 SUB SWAP1 LOG2 POP JUMP JUMPDEST PUSH1 0x0 PUSH2 0xEB6 PUSH1 0x40 MLOAD DUP1 PUSH1 0x20 ADD PUSH1 0x40 MSTORE DUP1 PUSH1 0x0 DUP2 MSTORE POP PUSH2 0x1E16 JUMP JUMPDEST POP SWAP1 POP DUP1 PUSH2 0xEF9 JUMPI PUSH1 0x40 MLOAD PUSH32 0x8C379A000000000000000000000000000000000000000000000000000000000 DUP2 MSTORE PUSH1 0x4 ADD PUSH2 0xEF0 SWAP1 PUSH2 0x403D JUMP JUMPDEST PUSH1 0x40 MLOAD DUP1 SWAP2 SUB SWAP1 REVERT JUMPDEST PUSH1 0x0 DUP4 DUP4 DUP2 ADD SWAP1 PUSH2 0xF0A SWAP2 SWAP1 PUSH2 0x4120 JUMP JUMPDEST SWAP1 POP DUP1 PUSH1 0x3 SWAP1 DUP1 MLOAD SWAP1 PUSH1 0x20 ADD SWAP1 PUSH2 0xF22 SWAP3 SWAP2 SWAP1 PUSH2 0x2D34 JUMP JUMPDEST POP TIMESTAMP PUSH1 0x2 DUP2 SWAP1 SSTORE POP POP POP POP POP JUMP JUMPDEST DUP4 MLOAD DUP6 MLOAD EQ PUSH2 0xF74 JUMPI PUSH1 0x40 MLOAD PUSH32 0x8C379A000000000000000000000000000000000000000000000000000000000 DUP2 MSTORE PUSH1 0x4 ADD PUSH2 0xF6B SWAP1 PUSH2 0x41DB JUMP JUMPDEST PUSH1 0x40 MLOAD DUP1 SWAP2 SUB SWAP1 REVERT JUMPDEST PUSH1 0x0 PUSH1 0x64 PUSH1 0x5 DUP5 PUSH2 0xF85 SWAP2 SWAP1 PUSH2 0x41FB JUMP JUMPDEST PUSH2 0xF8F SWAP2 SWAP1 PUSH2 0x426C JUMP JUMPDEST SWAP1 POP PUSH1 0x0 DUP3 DUP5 PUSH2 0xF9F SWAP2 SWAP1 PUSH2 0x3E54 JUMP JUMPDEST SWAP1 POP DUP1 CALLVALUE LT ISZERO PUSH2 0xFE4 JUMPI PUSH1 0x40 MLOAD PUSH32 0x8C379A000000000000000000000000000000000000000000000000000000000 DUP2 MSTORE PUSH1 0x4 ADD PUSH2 0xFDB SWAP1 PUSH2 0x42E9 JUMP JUMPDEST PUSH1 0x40 MLOAD DUP1 SWAP2 SUB SWAP1 REVERT JUMPDEST ADDRESS PUSH20 0xFFFFFFFFFFFFFFFFFFFFFFFFFFFFFFFFFFFFFFFF AND PUSH2 0x8FC DUP4 SWAP1 DUP2 ISZERO MUL SWAP1 PUSH1 0x40 MLOAD PUSH1 0x0 PUSH1 0x40 MLOAD DUP1 DUP4 SUB DUP2 DUP6 DUP9 DUP9 CALL SWAP4 POP POP POP POP ISZERO DUP1 ISZERO PUSH2 0x102A JUMPI RETURNDATASIZE PUSH1 0x0 DUP1 RETURNDATACOPY RETURNDATASIZE PUSH1 0x0 REVERT JUMPDEST POP PUSH1 0x0 JUMPDEST DUP8 MLOAD DUP2 LT ISZERO PUSH2 0x1935 JUMPI PUSH1 0x0 PUSH1 0x6 PUSH1 0x0 DUP11 DUP5 DUP2 MLOAD DUP2 LT PUSH2 0x1050 JUMPI PUSH2 0x104F PUSH2 0x3EE8 JUMP JUMPDEST JUMPDEST PUSH1 0x20 MUL PUSH1 0x20 ADD ADD MLOAD DUP2 MSTORE PUSH1 0x20 ADD SWAP1 DUP2 MSTORE PUSH1 0x20 ADD PUSH1 0x0 KECCAK256 PUSH1 0x40 MLOAD DUP1 PUSH2 0x120 ADD PUSH1 0x40 MSTORE SWAP1 DUP2 PUSH1 0x0 DUP3 ADD SLOAD DUP2 MSTORE PUSH1 0x20 ADD PUSH1 0x1 DUP3 ADD DUP1 SLOAD PUSH2 0x108C SWAP1 PUSH2 0x3EB7 JUMP JUMPDEST DUP1 PUSH1 0x1F ADD PUSH1 0x20 DUP1 SWAP2 DIV MUL PUSH1 0x20 ADD PUSH1 0x40 MLOAD SWAP1 DUP2 ADD PUSH1 0x40 MSTORE DUP1 SWAP3 SWAP2 SWAP1 DUP2 DUP2 MSTORE PUSH1 0x20 ADD DUP3 DUP1 SLOAD PUSH2 0x10B8 SWAP1 PUSH2 0x3EB7 JUMP JUMPDEST DUP1 ISZERO PUSH2 0x1105 JUMPI DUP1 PUSH1 0x1F LT PUSH2 0x10DA JUMPI PUSH2 0x100 DUP1 DUP4 SLOAD DIV MUL DUP4 MSTORE SWAP2 PUSH1 0x20 ADD SWAP2 PUSH2 0x1105 JUMP JUMPDEST DUP3 ADD SWAP2 SWAP1 PUSH1 0x0 MSTORE PUSH1 0x20 PUSH1 0x0 KECCAK256 SWAP1 JUMPDEST DUP2 SLOAD DUP2 MSTORE SWAP1 PUSH1 0x1 ADD SWAP1 PUSH1 0x20 ADD DUP1 DUP4 GT PUSH2 0x10E8 JUMPI DUP3 SWAP1 SUB PUSH1 0x1F AND DUP3 ADD SWAP2 JUMPDEST POP POP POP POP POP DUP2 MSTORE PUSH1 0x20 ADD PUSH1 0x2 DUP3 ADD DUP1 SLOAD PUSH2 0x111E SWAP1 PUSH2 0x3EB7 JUMP JUMPDEST DUP1 PUSH1 0x1F ADD PUSH1 0x20 DUP1 SWAP2 DIV MUL PUSH1 0x20 ADD PUSH1 0x40 MLOAD SWAP1 DUP2 ADD PUSH1 0x40 MSTORE DUP1 SWAP3 SWAP2 SWAP1 DUP2 DUP2 MSTORE PUSH1 0x20 ADD DUP3 DUP1 SLOAD PUSH2 0x114A SWAP1 PUSH2 0x3EB7 JUMP JUMPDEST DUP1 ISZERO PUSH2 0x1197 JUMPI DUP1 PUSH1 0x1F LT PUSH2 0x116C JUMPI PUSH2 0x100 DUP1 DUP4 SLOAD DIV MUL DUP4 MSTORE SWAP2 PUSH1 0x20 ADD SWAP2 PUSH2 0x1197 JUMP JUMPDEST DUP3 ADD SWAP2 SWAP1 PUSH1 0x0 MSTORE PUSH1 0x20 PUSH1 0x0 KECCAK256 SWAP1 JUMPDEST DUP2 SLOAD DUP2 MSTORE SWAP1 PUSH1 0x1 ADD SWAP1 PUSH1 0x20 ADD DUP1 DUP4 GT PUSH2 0x117A JUMPI DUP3 SWAP1 SUB PUSH1 0x1F AND DUP3 ADD SWAP2 JUMPDEST POP POP POP POP POP DUP2 MSTORE PUSH1 0x20 ADD PUSH1 0x3 DUP3 ADD SLOAD DUP2 MSTORE PUSH1 0x20 ADD PUSH1 0x4 DUP3 ADD PUSH1 0x0 SWAP1 SLOAD SWAP1 PUSH2 0x100 EXP SWAP1 DIV PUSH20 0xFFFFFFFFFFFFFFFFFFFFFFFFFFFFFFFFFFFFFFFF AND PUSH20 0xFFFFFFFFFFFFFFFFFFFFFFFFFFFFFFFFFFFFFFFF AND PUSH20 0xFFFFFFFFFFFFFFFFFFFFFFFFFFFFFFFFFFFFFFFF AND DUP2 MSTORE PUSH1 0x20 ADD PUSH1 0x5 DUP3 ADD SLOAD DUP2 MSTORE PUSH1 0x20 ADD PUSH1 0x6 DUP3 ADD SLOAD DUP2 MSTORE PUSH1 0x20 ADD PUSH1 0x7 DUP3 ADD SLOAD DUP2 MSTORE PUSH1 0x20 ADD PUSH1 0x8 DUP3 ADD DUP1 SLOAD PUSH2 0x122E SWAP1 PUSH2 0x3EB7 JUMP JUMPDEST DUP1 PUSH1 0x1F ADD PUSH1 0x20 DUP1 SWAP2 DIV MUL PUSH1 0x20 ADD PUSH1 0x40 MLOAD SWAP1 DUP2 ADD PUSH1 0x40 MSTORE DUP1 SWAP3 SWAP2 SWAP1 DUP2 DUP2 MSTORE PUSH1 0x20 ADD DUP3 DUP1 SLOAD PUSH2 0x125A SWAP1 PUSH2 0x3EB7 JUMP JUMPDEST DUP1 ISZERO PUSH2 0x12A7 JUMPI DUP1 PUSH1 0x1F LT PUSH2 0x127C JUMPI PUSH2 0x100 DUP1 DUP4 SLOAD DIV MUL DUP4 MSTORE SWAP2 PUSH1 0x20 ADD SWAP2 PUSH2 0x12A7 JUMP JUMPDEST DUP3 ADD SWAP2 SWAP1 PUSH1 0x0 MSTORE PUSH1 0x20 PUSH1 0x0 KECCAK256 SWAP1 JUMPDEST DUP2 SLOAD DUP2 MSTORE SWAP1 PUSH1 0x1 ADD SWAP1 PUSH1 0x20 ADD DUP1 DUP4 GT PUSH2 0x128A JUMPI DUP3 SWAP1 SUB PUSH1 0x1F AND DUP3 ADD SWAP2 JUMPDEST POP POP POP POP POP DUP2 MSTORE POP POP SWAP1 POP PUSH1 0x0 DUP9 DUP4 DUP2 MLOAD DUP2 LT PUSH2 0x12C7 JUMPI PUSH2 0x12C6 PUSH2 0x3EE8 JUMP JUMPDEST JUMPDEST PUSH1 0x20 MUL PUSH1 0x20 ADD ADD MLOAD DUP3 PUSH1 0xA0 ADD MLOAD PUSH2 0x12DE SWAP2 SWAP1 PUSH2 0x41FB JUMP JUMPDEST SWAP1 POP PUSH1 0x0 PUSH1 0xA DUP3 PUSH2 0x12EF SWAP2 SWAP1 PUSH2 0x426C JUMP JUMPDEST SWAP1 POP PUSH2 0x1346 DUP2 PUSH1 0x4 PUSH1 0x0 CALLER PUSH20 0xFFFFFFFFFFFFFFFFFFFFFFFFFFFFFFFFFFFFFFFF AND PUSH20 0xFFFFFFFFFFFFFFFFFFFFFFFFFFFFFFFFFFFFFFFF AND DUP2 MSTORE PUSH1 0x20 ADD SWAP1 DUP2 MSTORE PUSH1 0x20 ADD PUSH1 0x0 KECCAK256 PUSH1 0x2 ADD SLOAD PUSH2 0x2CA6 SWAP1 SWAP2 SWAP1 PUSH4 0xFFFFFFFF AND JUMP JUMPDEST PUSH1 0x4 PUSH1 0x0 CALLER PUSH20 0xFFFFFFFFFFFFFFFFFFFFFFFFFFFFFFFFFFFFFFFF AND PUSH20 0xFFFFFFFFFFFFFFFFFFFFFFFFFFFFFFFFFFFFFFFF AND DUP2 MSTORE PUSH1 0x20 ADD SWAP1 DUP2 MSTORE PUSH1 0x20 ADD PUSH1 0x0 KECCAK256 PUSH1 0x2 ADD DUP2 SWAP1 SSTORE POP CALLER PUSH20 0xFFFFFFFFFFFFFFFFFFFFFFFFFFFFFFFFFFFFFFFF AND PUSH32 0x2C4C0DC427A50C4A69D2FC184C47A311ACF950D8D2F289FBAEE64E83E9B28967 DUP3 PUSH1 0x40 MLOAD PUSH2 0x13D2 SWAP2 SWAP1 PUSH2 0x3155 JUMP JUMPDEST PUSH1 0x40 MLOAD DUP1 SWAP2 SUB SWAP1 LOG2 DUP9 DUP5 DUP2 MLOAD DUP2 LT PUSH2 0x13ED JUMPI PUSH2 0x13EC PUSH2 0x3EE8 JUMP JUMPDEST JUMPDEST PUSH1 0x20 MUL PUSH1 0x20 ADD ADD MLOAD ISZERO PUSH2 0x157B JUMPI DUP3 PUSH1 0x80 ADD MLOAD PUSH20 0xFFFFFFFFFFFFFFFFFFFFFFFFFFFFFFFFFFFFFFFF AND PUSH2 0x8FC PUSH1 0x64 PUSH1 0x5 DUP6 PUSH2 0x1427 SWAP2 SWAP1 PUSH2 0x41FB JUMP JUMPDEST PUSH2 0x1431 SWAP2 SWAP1 PUSH2 0x426C JUMP JUMPDEST DUP5 PUSH2 0x143C SWAP2 SWAP1 PUSH2 0x3E54 JUMP JUMPDEST SWAP1 DUP2 ISZERO MUL SWAP1 PUSH1 0x40 MLOAD PUSH1 0x0 PUSH1 0x40 MLOAD DUP1 DUP4 SUB DUP2 DUP6 DUP9 DUP9 CALL SWAP4 POP POP POP POP ISZERO DUP1 ISZERO PUSH2 0x1467 JUMPI RETURNDATASIZE PUSH1 0x0 DUP1 RETURNDATACOPY RETURNDATASIZE PUSH1 0x0 REVERT JUMPDEST POP PUSH1 0x1 PUSH1 0x0 SWAP1 SLOAD SWAP1 PUSH2 0x100 EXP SWAP1 DIV PUSH20 0xFFFFFFFFFFFFFFFFFFFFFFFFFFFFFFFFFFFFFFFF AND PUSH20 0xFFFFFFFFFFFFFFFFFFFFFFFFFFFFFFFFFFFFFFFF AND PUSH4 0x23B872DD DUP5 PUSH1 0x80 ADD MLOAD CALLER DUP14 DUP9 DUP2 MLOAD DUP2 LT PUSH2 0x14BF JUMPI PUSH2 0x14BE PUSH2 0x3EE8 JUMP JUMPDEST JUMPDEST PUSH1 0x20 MUL PUSH1 0x20 ADD ADD MLOAD DUP8 PUSH1 0xC0 ADD MLOAD PUSH2 0x14D6 SWAP2 SWAP1 PUSH2 0x41FB JUMP JUMPDEST PUSH1 0x40 MLOAD DUP5 PUSH4 0xFFFFFFFF AND PUSH1 0xE0 SHL DUP2 MSTORE PUSH1 0x4 ADD PUSH2 0x14F4 SWAP4 SWAP3 SWAP2 SWAP1 PUSH2 0x4309 JUMP JUMPDEST PUSH1 0x20 PUSH1 0x40 MLOAD DUP1 DUP4 SUB DUP2 PUSH1 0x0 DUP8 GAS CALL ISZERO DUP1 ISZERO PUSH2 0x1513 JUMPI RETURNDATASIZE PUSH1 0x0 DUP1 RETURNDATACOPY RETURNDATASIZE PUSH1 0x0 REVERT JUMPDEST POP POP POP POP PUSH1 0x40 MLOAD RETURNDATASIZE PUSH1 0x1F NOT PUSH1 0x1F DUP3 ADD AND DUP3 ADD DUP1 PUSH1 0x40 MSTORE POP DUP2 ADD SWAP1 PUSH2 0x1537 SWAP2 SWAP1 PUSH2 0x3D63 JUMP JUMPDEST PUSH2 0x1576 JUMPI PUSH1 0x40 MLOAD PUSH32 0x8C379A000000000000000000000000000000000000000000000000000000000 DUP2 MSTORE PUSH1 0x4 ADD PUSH2 0x156D SWAP1 PUSH2 0x438C JUMP JUMPDEST PUSH1 0x40 MLOAD DUP1 SWAP2 SUB SWAP1 REVERT JUMPDEST PUSH2 0x172C JUMP JUMPDEST DUP3 PUSH1 0x80 ADD MLOAD PUSH20 0xFFFFFFFFFFFFFFFFFFFFFFFFFFFFFFFFFFFFFFFF AND PUSH2 0x8FC PUSH1 0x64 PUSH1 0x5 DUP6 PUSH2 0x15A8 SWAP2 SWAP1 PUSH2 0x41FB JUMP JUMPDEST PUSH2 0x15B2 SWAP2 SWAP1 PUSH2 0x426C JUMP JUMPDEST DUP13 DUP8 DUP2 MLOAD DUP2 LT PUSH2 0x15C5 JUMPI PUSH2 0x15C4 PUSH2 0x3EE8 JUMP JUMPDEST JUMPDEST PUSH1 0x20 MUL PUSH1 0x20 ADD ADD MLOAD DUP7 PUSH1 0xE0 ADD MLOAD PUSH2 0x15DC SWAP2 SWAP1 PUSH2 0x41FB JUMP JUMPDEST DUP6 PUSH2 0x15E7 SWAP2 SWAP1 PUSH2 0x3E54 JUMP JUMPDEST PUSH2 0x15F1 SWAP2 SWAP1 PUSH2 0x3E54 JUMP JUMPDEST SWAP1 DUP2 ISZERO MUL SWAP1 PUSH1 0x40 MLOAD PUSH1 0x0 PUSH1 0x40 MLOAD DUP1 DUP4 SUB DUP2 DUP6 DUP9 DUP9 CALL SWAP4 POP POP POP POP ISZERO DUP1 ISZERO PUSH2 0x161C JUMPI RETURNDATASIZE PUSH1 0x0 DUP1 RETURNDATACOPY RETURNDATASIZE PUSH1 0x0 REVERT JUMPDEST POP PUSH1 0x1 PUSH1 0x0 SWAP1 SLOAD SWAP1 PUSH2 0x100 EXP SWAP1 DIV PUSH20 0xFFFFFFFFFFFFFFFFFFFFFFFFFFFFFFFFFFFFFFFF AND PUSH20 0xFFFFFFFFFFFFFFFFFFFFFFFFFFFFFFFFFFFFFFFF AND PUSH4 0x23B872DD CALLER DUP6 PUSH1 0x80 ADD MLOAD DUP14 DUP9 DUP2 MLOAD DUP2 LT PUSH2 0x1674 JUMPI PUSH2 0x1673 PUSH2 0x3EE8 JUMP JUMPDEST JUMPDEST PUSH1 0x20 MUL PUSH1 0x20 ADD ADD MLOAD DUP8 PUSH1 0xE0 ADD MLOAD PUSH2 0x168B SWAP2 SWAP1 PUSH2 0x41FB JUMP JUMPDEST PUSH1 0x40 MLOAD DUP5 PUSH4 0xFFFFFFFF AND PUSH1 0xE0 SHL DUP2 MSTORE PUSH1 0x4 ADD PUSH2 0x16A9 SWAP4 SWAP3 SWAP2 SWAP1 PUSH2 0x4309 JUMP JUMPDEST PUSH1 0x20 PUSH1 0x40 MLOAD DUP1 DUP4 SUB DUP2 PUSH1 0x0 DUP8 GAS CALL ISZERO DUP1 ISZERO PUSH2 0x16C8 JUMPI RETURNDATASIZE PUSH1 0x0 DUP1 RETURNDATACOPY RETURNDATASIZE PUSH1 0x0 REVERT JUMPDEST POP POP POP POP PUSH1 0x40 MLOAD RETURNDATASIZE PUSH1 0x1F NOT PUSH1 0x1F DUP3 ADD AND DUP3 ADD DUP1 PUSH1 0x40 MSTORE POP DUP2 ADD SWAP1 PUSH2 0x16EC SWAP2 SWAP1 PUSH2 0x3D63 JUMP JUMPDEST PUSH2 0x172B JUMPI PUSH1 0x40 MLOAD PUSH32 0x8C379A000000000000000000000000000000000000000000000000000000000 DUP2 MSTORE PUSH1 0x4 ADD PUSH2 0x1722 SWAP1 PUSH2 0x43F8 JUMP JUMPDEST PUSH1 0x40 MLOAD DUP1 SWAP2 SUB SWAP1 REVERT JUMPDEST JUMPDEST PUSH1 0x40 MLOAD DUP1 PUSH1 0x80 ADD PUSH1 0x40 MSTORE DUP1 PUSH1 0x9 SLOAD DUP2 MSTORE PUSH1 0x20 ADD CALLER PUSH20 0xFFFFFFFFFFFFFFFFFFFFFFFFFFFFFFFFFFFFFFFF AND DUP2 MSTORE PUSH1 0x20 ADD DUP13 DUP7 DUP2 MLOAD DUP2 LT PUSH2 0x176E JUMPI PUSH2 0x176D PUSH2 0x3EE8 JUMP JUMPDEST JUMPDEST PUSH1 0x20 MUL PUSH1 0x20 ADD ADD MLOAD DUP2 MSTORE PUSH1 0x20 ADD DUP12 DUP7 DUP2 MLOAD DUP2 LT PUSH2 0x178E JUMPI PUSH2 0x178D PUSH2 0x3EE8 JUMP JUMPDEST JUMPDEST PUSH1 0x20 MUL PUSH1 0x20 ADD ADD MLOAD DUP2 MSTORE POP PUSH1 0x7 PUSH1 0x0 PUSH1 0x9 SLOAD DUP2 MSTORE PUSH1 0x20 ADD SWAP1 DUP2 MSTORE PUSH1 0x20 ADD PUSH1 0x0 KECCAK256 PUSH1 0x0 DUP3 ADD MLOAD DUP2 PUSH1 0x0 ADD SSTORE PUSH1 0x20 DUP3 ADD MLOAD DUP2 PUSH1 0x1 ADD PUSH1 0x0 PUSH2 0x100 EXP DUP2 SLOAD DUP2 PUSH20 0xFFFFFFFFFFFFFFFFFFFFFFFFFFFFFFFFFFFFFFFF MUL NOT AND SWAP1 DUP4 PUSH20 0xFFFFFFFFFFFFFFFFFFFFFFFFFFFFFFFFFFFFFFFF AND MUL OR SWAP1 SSTORE POP PUSH1 0x40 DUP3 ADD MLOAD DUP2 PUSH1 0x2 ADD SSTORE PUSH1 0x60 DUP3 ADD MLOAD DUP2 PUSH1 0x3 ADD SSTORE SWAP1 POP POP PUSH1 0x4 PUSH1 0x0 CALLER PUSH20 0xFFFFFFFFFFFFFFFFFFFFFFFFFFFFFFFFFFFFFFFF AND PUSH20 0xFFFFFFFFFFFFFFFFFFFFFFFFFFFFFFFFFFFFFFFF AND DUP2 MSTORE PUSH1 0x20 ADD SWAP1 DUP2 MSTORE PUSH1 0x20 ADD PUSH1 0x0 KECCAK256 PUSH1 0x3 ADD PUSH1 0x9 SLOAD SWAP1 DUP1 PUSH1 0x1 DUP2 SLOAD ADD DUP1 DUP3 SSTORE DUP1 SWAP2 POP POP PUSH1 0x1 SWAP1 SUB SWAP1 PUSH1 0x0 MSTORE PUSH1 0x20 PUSH1 0x0 KECCAK256 ADD PUSH1 0x0 SWAP1 SWAP2 SWAP1 SWAP2 SWAP1 SWAP2 POP SSTORE DUP11 DUP5 DUP2 MLOAD DUP2 LT PUSH2 0x1894 JUMPI PUSH2 0x1893 PUSH2 0x3EE8 JUMP JUMPDEST JUMPDEST PUSH1 0x20 MUL PUSH1 0x20 ADD ADD MLOAD CALLER PUSH20 0xFFFFFFFFFFFFFFFFFFFFFFFFFFFFFFFFFFFFFFFF AND PUSH1 0x9 SLOAD PUSH32 0x7D3C39A6CCE20F6949EFF0833A4D54FCA734DC7C6027773D8885E7FAEAC98A95 DUP14 DUP9 DUP2 MLOAD DUP2 LT PUSH2 0x18EA JUMPI PUSH2 0x18E9 PUSH2 0x3EE8 JUMP JUMPDEST JUMPDEST PUSH1 0x20 MUL PUSH1 0x20 ADD ADD MLOAD PUSH1 0x40 MLOAD PUSH2 0x18FF SWAP2 SWAP1 PUSH2 0x3155 JUMP JUMPDEST PUSH1 0x40 MLOAD DUP1 SWAP2 SUB SWAP1 LOG4 PUSH1 0x9 PUSH1 0x0 DUP2 SLOAD DUP1 SWAP3 SWAP2 SWAP1 PUSH2 0x191A SWAP1 PUSH2 0x3F17 JUMP JUMPDEST SWAP2 SWAP1 POP SSTORE POP POP POP POP DUP1 DUP1 PUSH2 0x192D SWAP1 PUSH2 0x3F17 JUMP JUMPDEST SWAP2 POP POP PUSH2 0x102E JUMP JUMPDEST POP POP POP POP POP POP POP POP JUMP JUMPDEST PUSH1 0x0 PUSH20 0xFFFFFFFFFFFFFFFFFFFFFFFFFFFFFFFFFFFFFFFF AND PUSH1 0x4 PUSH1 0x0 CALLER PUSH20 0xFFFFFFFFFFFFFFFFFFFFFFFFFFFFFFFFFFFFFFFF AND PUSH20 0xFFFFFFFFFFFFFFFFFFFFFFFFFFFFFFFFFFFFFFFF AND DUP2 MSTORE PUSH1 0x20 ADD SWAP1 DUP2 MSTORE PUSH1 0x20 ADD PUSH1 0x0 KECCAK256 PUSH1 0x0 ADD PUSH1 0x0 SWAP1 SLOAD SWAP1 PUSH2 0x100 EXP SWAP1 DIV PUSH20 0xFFFFFFFFFFFFFFFFFFFFFFFFFFFFFFFFFFFFFFFF AND PUSH20 0xFFFFFFFFFFFFFFFFFFFFFFFFFFFFFFFFFFFFFFFF AND EQ PUSH2 0x1A10 JUMPI PUSH1 0x40 MLOAD PUSH32 0x8C379A000000000000000000000000000000000000000000000000000000000 DUP2 MSTORE PUSH1 0x4 ADD PUSH2 0x1A07 SWAP1 PUSH2 0x4464 JUMP JUMPDEST PUSH1 0x40 MLOAD DUP1 SWAP2 SUB SWAP1 REVERT JUMPDEST PUSH1 0x40 MLOAD DUP1 PUSH1 0x80 ADD PUSH1 0x40 MSTORE DUP1 CALLER PUSH20 0xFFFFFFFFFFFFFFFFFFFFFFFFFFFFFFFFFFFFFFFF AND DUP2 MSTORE PUSH1 0x20 ADD PUSH1 0x0 DUP2 MSTORE PUSH1 0x20 ADD PUSH1 0x0 DUP2 MSTORE PUSH1 0x20 ADD PUSH1 0x0 PUSH8 0xFFFFFFFFFFFFFFFF DUP2 GT ISZERO PUSH2 0x1A60 JUMPI PUSH2 0x1A5F PUSH2 0x32E8 JUMP JUMPDEST JUMPDEST PUSH1 0x40 MLOAD SWAP1 DUP1 DUP3 MSTORE DUP1 PUSH1 0x20 MUL PUSH1 0x20 ADD DUP3 ADD PUSH1 0x40 MSTORE DUP1 ISZERO PUSH2 0x1A8E JUMPI DUP2 PUSH1 0x20 ADD PUSH1 0x20 DUP3 MUL DUP1 CALLDATASIZE DUP4 CALLDATACOPY DUP1 DUP3 ADD SWAP2 POP POP SWAP1 POP JUMPDEST POP DUP2 MSTORE POP PUSH1 0x4 PUSH1 0x0 CALLER PUSH20 0xFFFFFFFFFFFFFFFFFFFFFFFFFFFFFFFFFFFFFFFF AND PUSH20 0xFFFFFFFFFFFFFFFFFFFFFFFFFFFFFFFFFFFFFFFF AND DUP2 MSTORE PUSH1 0x20 ADD SWAP1 DUP2 MSTORE PUSH1 0x20 ADD PUSH1 0x0 KECCAK256 PUSH1 0x0 DUP3 ADD MLOAD DUP2 PUSH1 0x0 ADD PUSH1 0x0 PUSH2 0x100 EXP DUP2 SLOAD DUP2 PUSH20 0xFFFFFFFFFFFFFFFFFFFFFFFFFFFFFFFFFFFFFFFF MUL NOT AND SWAP1 DUP4 PUSH20 0xFFFFFFFFFFFFFFFFFFFFFFFFFFFFFFFFFFFFFFFF AND MUL OR SWAP1 SSTORE POP PUSH1 0x20 DUP3 ADD MLOAD DUP2 PUSH1 0x1 ADD SSTORE PUSH1 0x40 DUP3 ADD MLOAD DUP2 PUSH1 0x2 ADD SSTORE PUSH1 0x60 DUP3 ADD MLOAD DUP2 PUSH1 0x3 ADD SWAP1 DUP1 MLOAD SWAP1 PUSH1 0x20 ADD SWAP1 PUSH2 0x1B48 SWAP3 SWAP2 SWAP1 PUSH2 0x2DBE JUMP JUMPDEST POP SWAP1 POP POP CALLER PUSH20 0xFFFFFFFFFFFFFFFFFFFFFFFFFFFFFFFFFFFFFFFF AND PUSH32 0x54DB7A5CB4735E1AAC1F53DB512D3390390BB6637BD30AD4BF9FC98667D9B9B9 PUSH1 0x40 MLOAD PUSH1 0x40 MLOAD DUP1 SWAP2 SUB SWAP1 LOG2 JUMP JUMPDEST PUSH1 0x8 SLOAD DUP2 JUMP JUMPDEST PUSH1 0x0 PUSH20 0xFFFFFFFFFFFFFFFFFFFFFFFFFFFFFFFFFFFFFFFF AND PUSH1 0x5 PUSH1 0x0 CALLER PUSH20 0xFFFFFFFFFFFFFFFFFFFFFFFFFFFFFFFFFFFFFFFF AND PUSH20 0xFFFFFFFFFFFFFFFFFFFFFFFFFFFFFFFFFFFFFFFF AND DUP2 MSTORE PUSH1 0x20 ADD SWAP1 DUP2 MSTORE PUSH1 0x20 ADD PUSH1 0x0 KECCAK256 PUSH1 0x0 ADD PUSH1 0x0 SWAP1 SLOAD SWAP1 PUSH2 0x100 EXP SWAP1 DIV PUSH20 0xFFFFFFFFFFFFFFFFFFFFFFFFFFFFFFFFFFFFFFFF AND PUSH20 0xFFFFFFFFFFFFFFFFFFFFFFFFFFFFFFFFFFFFFFFF AND EQ PUSH2 0x1C68 JUMPI PUSH1 0x40 MLOAD PUSH32 0x8C379A000000000000000000000000000000000000000000000000000000000 DUP2 MSTORE PUSH1 0x4 ADD PUSH2 0x1C5F SWAP1 PUSH2 0x44D0 JUMP JUMPDEST PUSH1 0x40 MLOAD DUP1 SWAP2 SUB SWAP1 REVERT JUMPDEST PUSH1 0x40 MLOAD DUP1 PUSH1 0x40 ADD PUSH1 0x40 MSTORE DUP1 CALLER PUSH20 0xFFFFFFFFFFFFFFFFFFFFFFFFFFFFFFFFFFFFFFFF AND DUP2 MSTORE PUSH1 0x20 ADD PUSH1 0x0 PUSH8 0xFFFFFFFFFFFFFFFF DUP2 GT ISZERO PUSH2 0x1CAA JUMPI PUSH2 0x1CA9 PUSH2 0x32E8 JUMP JUMPDEST JUMPDEST PUSH1 0x40 MLOAD SWAP1 DUP1 DUP3 MSTORE DUP1 PUSH1 0x20 MUL PUSH1 0x20 ADD DUP3 ADD PUSH1 0x40 MSTORE DUP1 ISZERO PUSH2 0x1CD8 JUMPI DUP2 PUSH1 0x20 ADD PUSH1 0x20 DUP3 MUL DUP1 CALLDATASIZE DUP4 CALLDATACOPY DUP1 DUP3 ADD SWAP2 POP POP SWAP1 POP JUMPDEST POP DUP2 MSTORE POP PUSH1 0x5 PUSH1 0x0 CALLER PUSH20 0xFFFFFFFFFFFFFFFFFFFFFFFFFFFFFFFFFFFFFFFF AND PUSH20 0xFFFFFFFFFFFFFFFFFFFFFFFFFFFFFFFFFFFFFFFF AND DUP2 MSTORE PUSH1 0x20 ADD SWAP1 DUP2 MSTORE PUSH1 0x20 ADD PUSH1 0x0 KECCAK256 PUSH1 0x0 DUP3 ADD MLOAD DUP2 PUSH1 0x0 ADD PUSH1 0x0 PUSH2 0x100 EXP DUP2 SLOAD DUP2 PUSH20 0xFFFFFFFFFFFFFFFFFFFFFFFFFFFFFFFFFFFFFFFF MUL NOT AND SWAP1 DUP4 PUSH20 0xFFFFFFFFFFFFFFFFFFFFFFFFFFFFFFFFFFFFFFFF AND MUL OR SWAP1 SSTORE POP PUSH1 0x20 DUP3 ADD MLOAD DUP2 PUSH1 0x1 ADD SWAP1 DUP1 MLOAD SWAP1 PUSH1 0x20 ADD SWAP1 PUSH2 0x1D7E SWAP3 SWAP2 SWAP1 PUSH2 0x2DBE JUMP JUMPDEST POP SWAP1 POP POP CALLER PUSH20 0xFFFFFFFFFFFFFFFFFFFFFFFFFFFFFFFFFFFFFFFF AND PUSH32 0x4D97D287A8F631378031B05CB24C876085261DDAA7B8F584477370EF473FBB3D PUSH1 0x40 MLOAD PUSH1 0x40 MLOAD DUP1 SWAP2 SUB SWAP1 LOG2 JUMP JUMPDEST PUSH1 0x5 DUP2 JUMP JUMPDEST PUSH8 0xDE0B6B3A7640000 DUP2 JUMP JUMPDEST PUSH1 0x5 PUSH1 0x20 MSTORE DUP1 PUSH1 0x0 MSTORE PUSH1 0x40 PUSH1 0x0 KECCAK256 PUSH1 0x0 SWAP2 POP SWAP1 POP DUP1 PUSH1 0x0 ADD PUSH1 0x0 SWAP1 SLOAD SWAP1 PUSH2 0x100 EXP SWAP1 DIV PUSH20 0xFFFFFFFFFFFFFFFFFFFFFFFFFFFFFFFFFFFFFFFF AND SWAP1 POP DUP2 JUMP JUMPDEST PUSH1 0x0 PUSH1 0x60 PUSH1 0x0 PUSH32 0x0 PUSH1 0x2 SLOAD TIMESTAMP PUSH2 0x1E4B SWAP2 SWAP1 PUSH2 0x3E54 JUMP JUMPDEST GT SWAP1 POP PUSH1 0x0 PUSH1 0x64 PUSH8 0xFFFFFFFFFFFFFFFF DUP2 GT ISZERO PUSH2 0x1E6B JUMPI PUSH2 0x1E6A PUSH2 0x32E8 JUMP JUMPDEST JUMPDEST PUSH1 0x40 MLOAD SWAP1 DUP1 DUP3 MSTORE DUP1 PUSH1 0x20 MUL PUSH1 0x20 ADD DUP3 ADD PUSH1 0x40 MSTORE DUP1 ISZERO PUSH2 0x1E99 JUMPI DUP2 PUSH1 0x20 ADD PUSH1 0x20 DUP3 MUL DUP1 CALLDATASIZE DUP4 CALLDATACOPY DUP1 DUP3 ADD SWAP2 POP POP SWAP1 POP JUMPDEST POP SWAP1 POP PUSH1 0x0 PUSH1 0x64 PUSH8 0xFFFFFFFFFFFFFFFF DUP2 GT ISZERO PUSH2 0x1EB9 JUMPI PUSH2 0x1EB8 PUSH2 0x32E8 JUMP JUMPDEST JUMPDEST PUSH1 0x40 MLOAD SWAP1 DUP1 DUP3 MSTORE DUP1 PUSH1 0x20 MUL PUSH1 0x20 ADD DUP3 ADD PUSH1 0x40 MSTORE DUP1 ISZERO PUSH2 0x1EE7 JUMPI DUP2 PUSH1 0x20 ADD PUSH1 0x20 DUP3 MUL DUP1 CALLDATASIZE DUP4 CALLDATACOPY DUP1 DUP3 ADD SWAP2 POP POP SWAP1 POP JUMPDEST POP SWAP1 POP PUSH1 0x0 DUP1 PUSH1 0x64 PUSH1 0x9 SLOAD PUSH2 0x1EFC SWAP2 SWAP1 PUSH2 0x3E54 JUMP JUMPDEST GT PUSH2 0x1F08 JUMPI PUSH1 0x0 PUSH2 0x1F18 JUMP JUMPDEST PUSH1 0x64 PUSH1 0x9 SLOAD PUSH2 0x1F17 SWAP2 SWAP1 PUSH2 0x3E54 JUMP JUMPDEST JUMPDEST SWAP1 POP PUSH1 0x0 DUP2 SWAP1 POP JUMPDEST PUSH1 0x9 SLOAD DUP2 LT ISZERO PUSH2 0x2071 JUMPI PUSH1 0x7 PUSH1 0x0 DUP3 DUP2 MSTORE PUSH1 0x20 ADD SWAP1 DUP2 MSTORE PUSH1 0x20 ADD PUSH1 0x0 KECCAK256 PUSH1 0x1 ADD PUSH1 0x0 SWAP1 SLOAD SWAP1 PUSH2 0x100 EXP SWAP1 DIV PUSH20 0xFFFFFFFFFFFFFFFFFFFFFFFFFFFFFFFFFFFFFFFF AND DUP5 PUSH1 0x1 DUP4 PUSH2 0x1F6F SWAP2 SWAP1 PUSH2 0x3E54 JUMP JUMPDEST DUP2 MLOAD DUP2 LT PUSH2 0x1F80 JUMPI PUSH2 0x1F7F PUSH2 0x3EE8 JUMP JUMPDEST JUMPDEST PUSH1 0x20 MUL PUSH1 0x20 ADD ADD SWAP1 PUSH20 0xFFFFFFFFFFFFFFFFFFFFFFFFFFFFFFFFFFFFFFFF AND SWAP1 DUP2 PUSH20 0xFFFFFFFFFFFFFFFFFFFFFFFFFFFFFFFFFFFFFFFF AND DUP2 MSTORE POP POP PUSH1 0x4 PUSH1 0x0 PUSH1 0x7 PUSH1 0x0 DUP5 DUP2 MSTORE PUSH1 0x20 ADD SWAP1 DUP2 MSTORE PUSH1 0x20 ADD PUSH1 0x0 KECCAK256 PUSH1 0x1 ADD PUSH1 0x0 SWAP1 SLOAD SWAP1 PUSH2 0x100 EXP SWAP1 DIV PUSH20 0xFFFFFFFFFFFFFFFFFFFFFFFFFFFFFFFFFFFFFFFF AND PUSH20 0xFFFFFFFFFFFFFFFFFFFFFFFFFFFFFFFFFFFFFFFF AND PUSH20 0xFFFFFFFFFFFFFFFFFFFFFFFFFFFFFFFFFFFFFFFF AND DUP2 MSTORE PUSH1 0x20 ADD SWAP1 DUP2 MSTORE PUSH1 0x20 ADD PUSH1 0x0 KECCAK256 PUSH1 0x2 ADD SLOAD DUP4 PUSH1 0x1 DUP4 PUSH2 0x2041 SWAP2 SWAP1 PUSH2 0x3E54 JUMP JUMPDEST DUP2 MLOAD DUP2 LT PUSH2 0x2052 JUMPI PUSH2 0x2051 PUSH2 0x3EE8 JUMP JUMPDEST JUMPDEST PUSH1 0x20 MUL PUSH1 0x20 ADD ADD DUP2 DUP2 MSTORE POP POP DUP1 DUP1 PUSH2 0x2069 SWAP1 PUSH2 0x3F17 JUMP JUMPDEST SWAP2 POP POP PUSH2 0x1F20 JUMP JUMPDEST POP PUSH1 0x0 JUMPDEST DUP3 MLOAD DUP2 LT ISZERO PUSH2 0x2286 JUMPI PUSH1 0x0 JUMPDEST PUSH1 0x1 DUP5 MLOAD PUSH2 0x208F SWAP2 SWAP1 PUSH2 0x3E54 JUMP JUMPDEST DUP2 LT ISZERO PUSH2 0x2272 JUMPI DUP4 PUSH1 0x1 DUP3 PUSH2 0x20A4 SWAP2 SWAP1 PUSH2 0x44F0 JUMP JUMPDEST DUP2 MLOAD DUP2 LT PUSH2 0x20B5 JUMPI PUSH2 0x20B4 PUSH2 0x3EE8 JUMP JUMPDEST JUMPDEST PUSH1 0x20 MUL PUSH1 0x20 ADD ADD MLOAD DUP5 DUP3 DUP2 MLOAD DUP2 LT PUSH2 0x20D0 JUMPI PUSH2 0x20CF PUSH2 0x3EE8 JUMP JUMPDEST JUMPDEST PUSH1 0x20 MUL PUSH1 0x20 ADD ADD MLOAD LT ISZERO PUSH2 0x225F JUMPI PUSH1 0x0 DUP5 DUP3 DUP2 MLOAD DUP2 LT PUSH2 0x20F3 JUMPI PUSH2 0x20F2 PUSH2 0x3EE8 JUMP JUMPDEST JUMPDEST PUSH1 0x20 MUL PUSH1 0x20 ADD ADD MLOAD SWAP1 POP DUP5 PUSH1 0x1 DUP4 PUSH2 0x210B SWAP2 SWAP1 PUSH2 0x44F0 JUMP JUMPDEST DUP2 MLOAD DUP2 LT PUSH2 0x211C JUMPI PUSH2 0x211B PUSH2 0x3EE8 JUMP JUMPDEST JUMPDEST PUSH1 0x20 MUL PUSH1 0x20 ADD ADD MLOAD DUP6 DUP4 DUP2 MLOAD DUP2 LT PUSH2 0x2137 JUMPI PUSH2 0x2136 PUSH2 0x3EE8 JUMP JUMPDEST JUMPDEST PUSH1 0x20 MUL PUSH1 0x20 ADD ADD DUP2 DUP2 MSTORE POP POP DUP1 DUP6 PUSH1 0x1 DUP5 PUSH2 0x2152 SWAP2 SWAP1 PUSH2 0x44F0 JUMP JUMPDEST DUP2 MLOAD DUP2 LT PUSH2 0x2163 JUMPI PUSH2 0x2162 PUSH2 0x3EE8 JUMP JUMPDEST JUMPDEST PUSH1 0x20 MUL PUSH1 0x20 ADD ADD DUP2 DUP2 MSTORE POP POP PUSH1 0x0 DUP7 DUP4 DUP2 MLOAD DUP2 LT PUSH2 0x2184 JUMPI PUSH2 0x2183 PUSH2 0x3EE8 JUMP JUMPDEST JUMPDEST PUSH1 0x20 MUL PUSH1 0x20 ADD ADD MLOAD SWAP1 POP DUP7 PUSH1 0x1 DUP5 PUSH2 0x219C SWAP2 SWAP1 PUSH2 0x44F0 JUMP JUMPDEST DUP2 MLOAD DUP2 LT PUSH2 0x21AD JUMPI PUSH2 0x21AC PUSH2 0x3EE8 JUMP JUMPDEST JUMPDEST PUSH1 0x20 MUL PUSH1 0x20 ADD ADD MLOAD DUP8 DUP5 DUP2 MLOAD DUP2 LT PUSH2 0x21C8 JUMPI PUSH2 0x21C7 PUSH2 0x3EE8 JUMP JUMPDEST JUMPDEST PUSH1 0x20 MUL PUSH1 0x20 ADD ADD SWAP1 PUSH20 0xFFFFFFFFFFFFFFFFFFFFFFFFFFFFFFFFFFFFFFFF AND SWAP1 DUP2 PUSH20 0xFFFFFFFFFFFFFFFFFFFFFFFFFFFFFFFFFFFFFFFF AND DUP2 MSTORE POP POP DUP1 DUP8 PUSH1 0x1 DUP6 PUSH2 0x2211 SWAP2 SWAP1 PUSH2 0x44F0 JUMP JUMPDEST DUP2 MLOAD DUP2 LT PUSH2 0x2222 JUMPI PUSH2 0x2221 PUSH2 0x3EE8 JUMP JUMPDEST JUMPDEST PUSH1 0x20 MUL PUSH1 0x20 ADD ADD SWAP1 PUSH20 0xFFFFFFFFFFFFFFFFFFFFFFFFFFFFFFFFFFFFFFFF AND SWAP1 DUP2 PUSH20 0xFFFFFFFFFFFFFFFFFFFFFFFFFFFFFFFFFFFFFFFF AND DUP2 MSTORE POP POP POP POP JUMPDEST DUP1 DUP1 PUSH2 0x226A SWAP1 PUSH2 0x3F17 JUMP JUMPDEST SWAP2 POP POP PUSH2 0x2081 JUMP JUMPDEST POP DUP1 DUP1 PUSH2 0x227E SWAP1 PUSH2 0x3F17 JUMP JUMPDEST SWAP2 POP POP PUSH2 0x2075 JUMP JUMPDEST POP DUP4 SWAP6 POP DUP3 PUSH1 0x40 MLOAD PUSH1 0x20 ADD PUSH2 0x229B SWAP2 SWAP1 PUSH2 0x3BC3 JUMP JUMPDEST PUSH1 0x40 MLOAD PUSH1 0x20 DUP2 DUP4 SUB SUB DUP2 MSTORE SWAP1 PUSH1 0x40 MSTORE SWAP5 POP POP POP POP POP SWAP2 POP SWAP2 JUMP JUMPDEST PUSH1 0x1 PUSH1 0x0 SWAP1 SLOAD SWAP1 PUSH2 0x100 EXP SWAP1 DIV PUSH20 0xFFFFFFFFFFFFFFFFFFFFFFFFFFFFFFFFFFFFFFFF AND DUP2 JUMP JUMPDEST PUSH1 0x6 PUSH1 0x20 MSTORE DUP1 PUSH1 0x0 MSTORE PUSH1 0x40 PUSH1 0x0 KECCAK256 PUSH1 0x0 SWAP2 POP SWAP1 POP DUP1 PUSH1 0x0 ADD SLOAD SWAP1 DUP1 PUSH1 0x1 ADD DUP1 SLOAD PUSH2 0x2304 SWAP1 PUSH2 0x3EB7 JUMP JUMPDEST DUP1 PUSH1 0x1F ADD PUSH1 0x20 DUP1 SWAP2 DIV MUL PUSH1 0x20 ADD PUSH1 0x40 MLOAD SWAP1 DUP2 ADD PUSH1 0x40 MSTORE DUP1 SWAP3 SWAP2 SWAP1 DUP2 DUP2 MSTORE PUSH1 0x20 ADD DUP3 DUP1 SLOAD PUSH2 0x2330 SWAP1 PUSH2 0x3EB7 JUMP JUMPDEST DUP1 ISZERO PUSH2 0x237D JUMPI DUP1 PUSH1 0x1F LT PUSH2 0x2352 JUMPI PUSH2 0x100 DUP1 DUP4 SLOAD DIV MUL DUP4 MSTORE SWAP2 PUSH1 0x20 ADD SWAP2 PUSH2 0x237D JUMP JUMPDEST DUP3 ADD SWAP2 SWAP1 PUSH1 0x0 MSTORE PUSH1 0x20 PUSH1 0x0 KECCAK256 SWAP1 JUMPDEST DUP2 SLOAD DUP2 MSTORE SWAP1 PUSH1 0x1 ADD SWAP1 PUSH1 0x20 ADD DUP1 DUP4 GT PUSH2 0x2360 JUMPI DUP3 SWAP1 SUB PUSH1 0x1F AND DUP3 ADD SWAP2 JUMPDEST POP POP POP POP POP SWAP1 DUP1 PUSH1 0x2 ADD DUP1 SLOAD PUSH2 0x2392 SWAP1 PUSH2 0x3EB7 JUMP JUMPDEST DUP1 PUSH1 0x1F ADD PUSH1 0x20 DUP1 SWAP2 DIV MUL PUSH1 0x20 ADD PUSH1 0x40 MLOAD SWAP1 DUP2 ADD PUSH1 0x40 MSTORE DUP1 SWAP3 SWAP2 SWAP1 DUP2 DUP2 MSTORE PUSH1 0x20 ADD DUP3 DUP1 SLOAD PUSH2 0x23BE SWAP1 PUSH2 0x3EB7 JUMP JUMPDEST DUP1 ISZERO PUSH2 0x240B JUMPI DUP1 PUSH1 0x1F LT PUSH2 0x23E0 JUMPI PUSH2 0x100 DUP1 DUP4 SLOAD DIV MUL DUP4 MSTORE SWAP2 PUSH1 0x20 ADD SWAP2 PUSH2 0x240B JUMP JUMPDEST DUP3 ADD SWAP2 SWAP1 PUSH1 0x0 MSTORE PUSH1 0x20 PUSH1 0x0 KECCAK256 SWAP1 JUMPDEST DUP2 SLOAD DUP2 MSTORE SWAP1 PUSH1 0x1 ADD SWAP1 PUSH1 0x20 ADD DUP1 DUP4 GT PUSH2 0x23EE JUMPI DUP3 SWAP1 SUB PUSH1 0x1F AND DUP3 ADD SWAP2 JUMPDEST POP POP POP POP POP SWAP1 DUP1 PUSH1 0x3 ADD SLOAD SWAP1 DUP1 PUSH1 0x4 ADD PUSH1 0x0 SWAP1 SLOAD SWAP1 PUSH2 0x100 EXP SWAP1 DIV PUSH20 0xFFFFFFFFFFFFFFFFFFFFFFFFFFFFFFFFFFFFFFFF AND SWAP1 DUP1 PUSH1 0x5 ADD SLOAD SWAP1 DUP1 PUSH1 0x6 ADD SLOAD SWAP1 DUP1 PUSH1 0x7 ADD SLOAD SWAP1 DUP1 PUSH1 0x8 ADD DUP1 SLOAD PUSH2 0x245E SWAP1 PUSH2 0x3EB7 JUMP JUMPDEST DUP1 PUSH1 0x1F ADD PUSH1 0x20 DUP1 SWAP2 DIV MUL PUSH1 0x20 ADD PUSH1 0x40 MLOAD SWAP1 DUP2 ADD PUSH1 0x40 MSTORE DUP1 SWAP3 SWAP2 SWAP1 DUP2 DUP2 MSTORE PUSH1 0x20 ADD DUP3 DUP1 SLOAD PUSH2 0x248A SWAP1 PUSH2 0x3EB7 JUMP JUMPDEST DUP1 ISZERO PUSH2 0x24D7 JUMPI DUP1 PUSH1 0x1F LT PUSH2 0x24AC JUMPI PUSH2 0x100 DUP1 DUP4 SLOAD DIV MUL DUP4 MSTORE SWAP2 PUSH1 0x20 ADD SWAP2 PUSH2 0x24D7 JUMP JUMPDEST DUP3 ADD SWAP2 SWAP1 PUSH1 0x0 MSTORE PUSH1 0x20 PUSH1 0x0 KECCAK256 SWAP1 JUMPDEST DUP2 SLOAD DUP2 MSTORE SWAP1 PUSH1 0x1 ADD SWAP1 PUSH1 0x20 ADD DUP1 DUP4 GT PUSH2 0x24BA JUMPI DUP3 SWAP1 SUB PUSH1 0x1F AND DUP3 ADD SWAP2 JUMPDEST POP POP POP POP POP SWAP1 POP DUP10 JUMP JUMPDEST PUSH1 0x0 DUP1 SLOAD SWAP1 PUSH2 0x100 EXP SWAP1 DIV PUSH20 0xFFFFFFFFFFFFFFFFFFFFFFFFFFFFFFFFFFFFFFFF AND PUSH20 0xFFFFFFFFFFFFFFFFFFFFFFFFFFFFFFFFFFFFFFFF AND CALLER PUSH20 0xFFFFFFFFFFFFFFFFFFFFFFFFFFFFFFFFFFFFFFFF AND EQ PUSH2 0x256F JUMPI PUSH1 0x40 MLOAD PUSH32 0x8C379A000000000000000000000000000000000000000000000000000000000 DUP2 MSTORE PUSH1 0x4 ADD PUSH2 0x2566 SWAP1 PUSH2 0x3FD1 JUMP JUMPDEST PUSH1 0x40 MLOAD DUP1 SWAP2 SUB SWAP1 REVERT JUMPDEST PUSH1 0x0 DUP1 SLOAD SWAP1 PUSH2 0x100 EXP SWAP1 DIV PUSH20 0xFFFFFFFFFFFFFFFFFFFFFFFFFFFFFFFFFFFFFFFF AND PUSH20 0xFFFFFFFFFFFFFFFFFFFFFFFFFFFFFFFFFFFFFFFF AND PUSH2 0x8FC DUP3 SWAP1 DUP2 ISZERO MUL SWAP1 PUSH1 0x40 MLOAD PUSH1 0x0 PUSH1 0x40 MLOAD DUP1 DUP4 SUB DUP2 DUP6 DUP9 DUP9 CALL SWAP4 POP POP POP POP ISZERO DUP1 ISZERO PUSH2 0x25D5 JUMPI RETURNDATASIZE PUSH1 0x0 DUP1 RETURNDATACOPY RETURNDATASIZE PUSH1 0x0 REVERT JUMPDEST POP CALLER PUSH20 0xFFFFFFFFFFFFFFFFFFFFFFFFFFFFFFFFFFFFFFFF AND PUSH32 0x6EFAC6899EE41C0FAB9566F807FEE81972320248574EF8ADEAC6599EA7EAE246 DUP3 PUSH1 0x40 MLOAD PUSH2 0x261C SWAP2 SWAP1 PUSH2 0x3155 JUMP JUMPDEST PUSH1 0x40 MLOAD DUP1 SWAP2 SUB SWAP1 LOG2 POP JUMP JUMPDEST PUSH32 0x0 DUP2 JUMP JUMPDEST PUSH1 0x7 PUSH1 0x20 MSTORE DUP1 PUSH1 0x0 MSTORE PUSH1 0x40 PUSH1 0x0 KECCAK256 PUSH1 0x0 SWAP2 POP SWAP1 POP DUP1 PUSH1 0x0 ADD SLOAD SWAP1 DUP1 PUSH1 0x1 ADD PUSH1 0x0 SWAP1 SLOAD SWAP1 PUSH2 0x100 EXP SWAP1 DIV PUSH20 0xFFFFFFFFFFFFFFFFFFFFFFFFFFFFFFFFFFFFFFFF AND SWAP1 DUP1 PUSH1 0x2 ADD SLOAD SWAP1 DUP1 PUSH1 0x3 ADD SLOAD SWAP1 POP DUP5 JUMP JUMPDEST PUSH1 0x4 PUSH1 0x20 MSTORE DUP1 PUSH1 0x0 MSTORE PUSH1 0x40 PUSH1 0x0 KECCAK256 PUSH1 0x0 SWAP2 POP SWAP1 POP DUP1 PUSH1 0x0 ADD PUSH1 0x0 SWAP1 SLOAD SWAP1 PUSH2 0x100 EXP SWAP1 DIV PUSH20 0xFFFFFFFFFFFFFFFFFFFFFFFFFFFFFFFFFFFFFFFF AND SWAP1 DUP1 PUSH1 0x1 ADD SLOAD SWAP1 DUP1 PUSH1 0x2 ADD SLOAD SWAP1 POP DUP4 JUMP JUMPDEST PUSH1 0x0 PUSH20 0xFFFFFFFFFFFFFFFFFFFFFFFFFFFFFFFFFFFFFFFF AND PUSH1 0x5 PUSH1 0x0 CALLER PUSH20 0xFFFFFFFFFFFFFFFFFFFFFFFFFFFFFFFFFFFFFFFF AND PUSH20 0xFFFFFFFFFFFFFFFFFFFFFFFFFFFFFFFFFFFFFFFF AND DUP2 MSTORE PUSH1 0x20 ADD SWAP1 DUP2 MSTORE PUSH1 0x20 ADD PUSH1 0x0 KECCAK256 PUSH1 0x0 ADD PUSH1 0x0 SWAP1 SLOAD SWAP1 PUSH2 0x100 EXP SWAP1 DIV PUSH20 0xFFFFFFFFFFFFFFFFFFFFFFFFFFFFFFFFFFFFFFFF AND PUSH20 0xFFFFFFFFFFFFFFFFFFFFFFFFFFFFFFFFFFFFFFFF AND SUB PUSH2 0x27B6 JUMPI PUSH1 0x40 MLOAD PUSH32 0x8C379A000000000000000000000000000000000000000000000000000000000 DUP2 MSTORE PUSH1 0x4 ADD PUSH2 0x27AD SWAP1 PUSH2 0x4596 JUMP JUMPDEST PUSH1 0x40 MLOAD DUP1 SWAP2 SUB SWAP1 REVERT JUMPDEST PUSH1 0x40 MLOAD DUP1 PUSH2 0x120 ADD PUSH1 0x40 MSTORE DUP1 PUSH1 0x8 SLOAD DUP2 MSTORE PUSH1 0x20 ADD DUP9 DUP2 MSTORE PUSH1 0x20 ADD DUP8 DUP2 MSTORE PUSH1 0x20 ADD DUP7 DUP2 MSTORE PUSH1 0x20 ADD CALLER PUSH20 0xFFFFFFFFFFFFFFFFFFFFFFFFFFFFFFFFFFFFFFFF AND DUP2 MSTORE PUSH1 0x20 ADD DUP6 DUP2 MSTORE PUSH1 0x20 ADD DUP5 DUP2 MSTORE PUSH1 0x20 ADD DUP4 DUP2 MSTORE PUSH1 0x20 ADD DUP3 DUP2 MSTORE POP PUSH1 0x6 PUSH1 0x0 PUSH1 0x8 SLOAD DUP2 MSTORE PUSH1 0x20 ADD SWAP1 DUP2 MSTORE PUSH1 0x20 ADD PUSH1 0x0 KECCAK256 PUSH1 0x0 DUP3 ADD MLOAD DUP2 PUSH1 0x0 ADD SSTORE PUSH1 0x20 DUP3 ADD MLOAD DUP2 PUSH1 0x1 ADD SWAP1 DUP2 PUSH2 0x2842 SWAP2 SWAP1 PUSH2 0x4758 JUMP JUMPDEST POP PUSH1 0x40 DUP3 ADD MLOAD DUP2 PUSH1 0x2 ADD SWAP1 DUP2 PUSH2 0x2858 SWAP2 SWAP1 PUSH2 0x4758 JUMP JUMPDEST POP PUSH1 0x60 DUP3 ADD MLOAD DUP2 PUSH1 0x3 ADD SSTORE PUSH1 0x80 DUP3 ADD MLOAD DUP2 PUSH1 0x4 ADD PUSH1 0x0 PUSH2 0x100 EXP DUP2 SLOAD DUP2 PUSH20 0xFFFFFFFFFFFFFFFFFFFFFFFFFFFFFFFFFFFFFFFF MUL NOT AND SWAP1 DUP4 PUSH20 0xFFFFFFFFFFFFFFFFFFFFFFFFFFFFFFFFFFFFFFFF AND MUL OR SWAP1 SSTORE POP PUSH1 0xA0 DUP3 ADD MLOAD DUP2 PUSH1 0x5 ADD SSTORE PUSH1 0xC0 DUP3 ADD MLOAD DUP2 PUSH1 0x6 ADD SSTORE PUSH1 0xE0 DUP3 ADD MLOAD DUP2 PUSH1 0x7 ADD SSTORE PUSH2 0x100 DUP3 ADD MLOAD DUP2 PUSH1 0x8 ADD SWAP1 DUP2 PUSH2 0x28DE SWAP2 SWAP1 PUSH2 0x4758 JUMP JUMPDEST POP SWAP1 POP POP PUSH1 0x5 PUSH1 0x0 CALLER PUSH20 0xFFFFFFFFFFFFFFFFFFFFFFFFFFFFFFFFFFFFFFFF AND PUSH20 0xFFFFFFFFFFFFFFFFFFFFFFFFFFFFFFFFFFFFFFFF AND DUP2 MSTORE PUSH1 0x20 ADD SWAP1 DUP2 MSTORE PUSH1 0x20 ADD PUSH1 0x0 KECCAK256 PUSH1 0x1 ADD PUSH1 0x8 SLOAD SWAP1 DUP1 PUSH1 0x1 DUP2 SLOAD ADD DUP1 DUP3 SSTORE DUP1 SWAP2 POP POP PUSH1 0x1 SWAP1 SUB SWAP1 PUSH1 0x0 MSTORE PUSH1 0x20 PUSH1 0x0 KECCAK256 ADD PUSH1 0x0 SWAP1 SWAP2 SWAP1 SWAP2 SWAP1 SWAP2 POP SSTORE CALLER PUSH20 0xFFFFFFFFFFFFFFFFFFFFFFFFFFFFFFFFFFFFFFFF AND PUSH1 0x8 SLOAD PUSH32 0xEF311EEC1D40202FEE1909AB585DF5E024DF1930DC6BBA97722D1E60E91C01F7 DUP10 DUP8 PUSH1 0x40 MLOAD PUSH2 0x2998 SWAP3 SWAP2 SWAP1 PUSH2 0x482A JUMP JUMPDEST PUSH1 0x40 MLOAD DUP1 SWAP2 SUB SWAP1 LOG3 PUSH1 0x8 PUSH1 0x0 DUP2 SLOAD DUP1 SWAP3 SWAP2 SWAP1 PUSH2 0x29B3 SWAP1 PUSH2 0x3F17 JUMP JUMPDEST SWAP2 SWAP1 POP SSTORE POP POP POP POP POP POP POP POP JUMP JUMPDEST PUSH1 0x3 DUP2 DUP2 SLOAD DUP2 LT PUSH2 0x29D1 JUMPI PUSH1 0x0 DUP1 REVERT JUMPDEST SWAP1 PUSH1 0x0 MSTORE PUSH1 0x20 PUSH1 0x0 KECCAK256 ADD PUSH1 0x0 SWAP2 POP SLOAD SWAP1 PUSH2 0x100 EXP SWAP1 DIV PUSH20 0xFFFFFFFFFFFFFFFFFFFFFFFFFFFFFFFFFFFFFFFF AND DUP2 JUMP JUMPDEST PUSH1 0x60 PUSH1 0x3 DUP1 SLOAD DUP1 PUSH1 0x20 MUL PUSH1 0x20 ADD PUSH1 0x40 MLOAD SWAP1 DUP2 ADD PUSH1 0x40 MSTORE DUP1 SWAP3 SWAP2 SWAP1 DUP2 DUP2 MSTORE PUSH1 0x20 ADD DUP3 DUP1 SLOAD DUP1 ISZERO PUSH2 0x2A84 JUMPI PUSH1 0x20 MUL DUP3 ADD SWAP2 SWAP1 PUSH1 0x0 MSTORE PUSH1 0x20 PUSH1 0x0 KECCAK256 SWAP1 JUMPDEST DUP2 PUSH1 0x0 SWAP1 SLOAD SWAP1 PUSH2 0x100 EXP SWAP1 DIV PUSH20 0xFFFFFFFFFFFFFFFFFFFFFFFFFFFFFFFFFFFFFFFF AND PUSH20 0xFFFFFFFFFFFFFFFFFFFFFFFFFFFFFFFFFFFFFFFF AND DUP2 MSTORE PUSH1 0x20 ADD SWAP1 PUSH1 0x1 ADD SWAP1 DUP1 DUP4 GT PUSH2 0x2A3A JUMPI JUMPDEST POP POP POP POP POP SWAP1 POP SWAP1 JUMP JUMPDEST PUSH1 0x0 DUP1 SLOAD SWAP1 PUSH2 0x100 EXP SWAP1 DIV PUSH20 0xFFFFFFFFFFFFFFFFFFFFFFFFFFFFFFFFFFFFFFFF AND DUP2 JUMP JUMPDEST PUSH1 0x0 DUP2 GT PUSH2 0x2AF5 JUMPI PUSH1 0x40 MLOAD PUSH32 0x8C379A000000000000000000000000000000000000000000000000000000000 DUP2 MSTORE PUSH1 0x4 ADD PUSH2 0x2AEC SWAP1 PUSH2 0x48A6 JUMP JUMPDEST PUSH1 0x40 MLOAD DUP1 SWAP2 SUB SWAP1 REVERT JUMPDEST PUSH1 0x0 PUSH2 0x2B12 PUSH8 0xDE0B6B3A7640000 DUP4 PUSH2 0x2CBC SWAP1 SWAP2 SWAP1 PUSH4 0xFFFFFFFF AND JUMP JUMPDEST SWAP1 POP PUSH1 0x1 PUSH1 0x0 SWAP1 SLOAD SWAP1 PUSH2 0x100 EXP SWAP1 DIV PUSH20 0xFFFFFFFFFFFFFFFFFFFFFFFFFFFFFFFFFFFFFFFF AND PUSH20 0xFFFFFFFFFFFFFFFFFFFFFFFFFFFFFFFFFFFFFFFF AND PUSH4 0x23B872DD CALLER ADDRESS DUP6 PUSH1 0x40 MLOAD DUP5 PUSH4 0xFFFFFFFF AND PUSH1 0xE0 SHL DUP2 MSTORE PUSH1 0x4 ADD PUSH2 0x2B73 SWAP4 SWAP3 SWAP2 SWAP1 PUSH2 0x4309 JUMP JUMPDEST PUSH1 0x20 PUSH1 0x40 MLOAD DUP1 DUP4 SUB DUP2 PUSH1 0x0 DUP8 GAS CALL ISZERO DUP1 ISZERO PUSH2 0x2B92 JUMPI RETURNDATASIZE PUSH1 0x0 DUP1 RETURNDATACOPY RETURNDATASIZE PUSH1 0x0 REVERT JUMPDEST POP POP POP POP PUSH1 0x40 MLOAD RETURNDATASIZE PUSH1 0x1F NOT PUSH1 0x1F DUP3 ADD AND DUP3 ADD DUP1 PUSH1 0x40 MSTORE POP DUP2 ADD SWAP1 PUSH2 0x2BB6 SWAP2 SWAP1 PUSH2 0x3D63 JUMP JUMPDEST PUSH2 0x2BF5 JUMPI PUSH1 0x40 MLOAD PUSH32 0x8C379A000000000000000000000000000000000000000000000000000000000 DUP2 MSTORE PUSH1 0x4 ADD PUSH2 0x2BEC SWAP1 PUSH2 0x3DDC JUMP JUMPDEST PUSH1 0x40 MLOAD DUP1 SWAP2 SUB SWAP1 REVERT JUMPDEST CALLER PUSH20 0xFFFFFFFFFFFFFFFFFFFFFFFFFFFFFFFFFFFFFFFF AND PUSH2 0x8FC DUP3 SWAP1 DUP2 ISZERO MUL SWAP1 PUSH1 0x40 MLOAD PUSH1 0x0 PUSH1 0x40 MLOAD DUP1 DUP4 SUB DUP2 DUP6 DUP9 DUP9 CALL SWAP4 POP POP POP POP ISZERO DUP1 ISZERO PUSH2 0x2C3B JUMPI RETURNDATASIZE PUSH1 0x0 DUP1 RETURNDATACOPY RETURNDATASIZE PUSH1 0x0 REVERT JUMPDEST POP CALLER PUSH20 0xFFFFFFFFFFFFFFFFFFFFFFFFFFFFFFFFFFFFFFFF AND PUSH32 0xAE8BCD366B92D4B55D90C0CCBFD8A50A60BAE24F201C5899A989E99A3D877B93 DUP4 DUP4 PUSH1 0x40 MLOAD PUSH2 0x2C84 SWAP3 SWAP2 SWAP1 PUSH2 0x3DFC JUMP JUMPDEST PUSH1 0x40 MLOAD DUP1 SWAP2 SUB SWAP1 LOG2 POP POP JUMP JUMPDEST PUSH1 0x0 DUP2 DUP4 PUSH2 0x2C9E SWAP2 SWAP1 PUSH2 0x426C JUMP JUMPDEST SWAP1 POP SWAP3 SWAP2 POP POP JUMP JUMPDEST PUSH1 0x0 DUP2 DUP4 PUSH2 0x2CB4 SWAP2 SWAP1 PUSH2 0x44F0 JUMP JUMPDEST SWAP1 POP SWAP3 SWAP2 POP POP JUMP JUMPDEST PUSH1 0x0 DUP2 DUP4 PUSH2 0x2CCA SWAP2 SWAP1 PUSH2 0x41FB JUMP JUMPDEST SWAP1 POP SWAP3 SWAP2 POP POP JUMP JUMPDEST PUSH1 0x40 MLOAD DUP1 PUSH2 0x120 ADD PUSH1 0x40 MSTORE DUP1 PUSH1 0x0 DUP2 MSTORE PUSH1 0x20 ADD PUSH1 0x60 DUP2 MSTORE PUSH1 0x20 ADD PUSH1 0x60 DUP2 MSTORE PUSH1 0x20 ADD PUSH1 0x0 DUP2 MSTORE PUSH1 0x20 ADD PUSH1 0x0 PUSH20 0xFFFFFFFFFFFFFFFFFFFFFFFFFFFFFFFFFFFFFFFF AND DUP2 MSTORE PUSH1 0x20 ADD PUSH1 0x0 DUP2 MSTORE PUSH1 0x20 ADD PUSH1 0x0 DUP2 MSTORE PUSH1 0x20 ADD PUSH1 0x0 DUP2 MSTORE PUSH1 0x20 ADD PUSH1 0x60 DUP2 MSTORE POP SWAP1 JUMP JUMPDEST DUP3 DUP1 SLOAD DUP3 DUP3 SSTORE SWAP1 PUSH1 0x0 MSTORE PUSH1 0x20 PUSH1 0x0 KECCAK256 SWAP1 DUP2 ADD SWAP3 DUP3 ISZERO PUSH2 0x2DAD JUMPI SWAP2 PUSH1 0x20 MUL DUP3 ADD JUMPDEST DUP3 DUP2 GT ISZERO PUSH2 0x2DAC JUMPI DUP3 MLOAD DUP3 PUSH1 0x0 PUSH2 0x100 EXP DUP2 SLOAD DUP2 PUSH20 0xFFFFFFFFFFFFFFFFFFFFFFFFFFFFFFFFFFFFFFFF MUL NOT AND SWAP1 DUP4 PUSH20 0xFFFFFFFFFFFFFFFFFFFFFFFFFFFFFFFFFFFFFFFF AND MUL OR SWAP1 SSTORE POP SWAP2 PUSH1 0x20 ADD SWAP2 SWAP1 PUSH1 0x1 ADD SWAP1 PUSH2 0x2D54 JUMP JUMPDEST JUMPDEST POP SWAP1 POP PUSH2 0x2DBA SWAP2 SWAP1 PUSH2 0x2E0B JUMP JUMPDEST POP SWAP1 JUMP JUMPDEST DUP3 DUP1 SLOAD DUP3 DUP3 SSTORE SWAP1 PUSH1 0x0 MSTORE PUSH1 0x20 PUSH1 0x0 KECCAK256 SWAP1 DUP2 ADD SWAP3 DUP3 ISZERO PUSH2 0x2DFA JUMPI SWAP2 PUSH1 0x20 MUL DUP3 ADD JUMPDEST DUP3 DUP2 GT ISZERO PUSH2 0x2DF9 JUMPI DUP3 MLOAD DUP3 SSTORE SWAP2 PUSH1 0x20 ADD SWAP2 SWAP1 PUSH1 0x1 ADD SWAP1 PUSH2 0x2DDE JUMP JUMPDEST JUMPDEST POP SWAP1 POP PUSH2 0x2E07 SWAP2 SWAP1 PUSH2 0x2E0B JUMP JUMPDEST POP SWAP1 JUMP JUMPDEST JUMPDEST DUP1 DUP3 GT ISZERO PUSH2 0x2E24 JUMPI PUSH1 0x0 DUP2 PUSH1 0x0 SWAP1 SSTORE POP PUSH1 0x1 ADD PUSH2 0x2E0C JUMP JUMPDEST POP SWAP1 JUMP JUMPDEST PUSH1 0x0 DUP3 DUP3 MSTORE PUSH1 0x20 DUP3 ADD SWAP1 POP SWAP3 SWAP2 POP POP JUMP JUMPDEST PUSH32 0x4F7065726174696F6E206E6F7420737570706F72746564000000000000000000 PUSH1 0x0 DUP3 ADD MSTORE POP JUMP JUMPDEST PUSH1 0x0 PUSH2 0x2E6F PUSH1 0x17 DUP4 PUSH2 0x2E28 JUMP JUMPDEST SWAP2 POP PUSH2 0x2E7A DUP3 PUSH2 0x2E39 JUMP JUMPDEST PUSH1 0x20 DUP3 ADD SWAP1 POP SWAP2 SWAP1 POP JUMP JUMPDEST PUSH1 0x0 PUSH1 0x20 DUP3 ADD SWAP1 POP DUP2 DUP2 SUB PUSH1 0x0 DUP4 ADD MSTORE PUSH2 0x2E9E DUP2 PUSH2 0x2E62 JUMP JUMPDEST SWAP1 POP SWAP2 SWAP1 POP JUMP JUMPDEST PUSH1 0x0 DUP2 MLOAD SWAP1 POP SWAP2 SWAP1 POP JUMP JUMPDEST PUSH1 0x0 DUP3 DUP3 MSTORE PUSH1 0x20 DUP3 ADD SWAP1 POP SWAP3 SWAP2 POP POP JUMP JUMPDEST PUSH1 0x0 DUP2 SWAP1 POP PUSH1 0x20 DUP3 ADD SWAP1 POP SWAP2 SWAP1 POP JUMP JUMPDEST PUSH1 0x0 DUP2 SWAP1 POP SWAP2 SWAP1 POP JUMP JUMPDEST PUSH2 0x2EE4 DUP2 PUSH2 0x2ED1 JUMP JUMPDEST DUP3 MSTORE POP POP JUMP JUMPDEST PUSH1 0x0 DUP2 MLOAD SWAP1 POP SWAP2 SWAP1 POP JUMP JUMPDEST PUSH1 0x0 DUP3 DUP3 MSTORE PUSH1 0x20 DUP3 ADD SWAP1 POP SWAP3 SWAP2 POP POP JUMP JUMPDEST PUSH1 0x0 JUMPDEST DUP4 DUP2 LT ISZERO PUSH2 0x2F24 JUMPI DUP1 DUP3 ADD MLOAD DUP2 DUP5 ADD MSTORE PUSH1 0x20 DUP2 ADD SWAP1 POP PUSH2 0x2F09 JUMP JUMPDEST PUSH1 0x0 DUP5 DUP5 ADD MSTORE POP POP POP POP JUMP JUMPDEST PUSH1 0x0 PUSH1 0x1F NOT PUSH1 0x1F DUP4 ADD AND SWAP1 POP SWAP2 SWAP1 POP JUMP JUMPDEST PUSH1 0x0 PUSH2 0x2F4C DUP3 PUSH2 0x2EEA JUMP JUMPDEST PUSH2 0x2F56 DUP2 DUP6 PUSH2 0x2EF5 JUMP JUMPDEST SWAP4 POP PUSH2 0x2F66 DUP2 DUP6 PUSH1 0x20 DUP7 ADD PUSH2 0x2F06 JUMP JUMPDEST PUSH2 0x2F6F DUP2 PUSH2 0x2F30 JUMP JUMPDEST DUP5 ADD SWAP2 POP POP SWAP3 SWAP2 POP POP JUMP JUMPDEST PUSH1 0x0 PUSH20 0xFFFFFFFFFFFFFFFFFFFFFFFFFFFFFFFFFFFFFFFF DUP3 AND SWAP1 POP SWAP2 SWAP1 POP JUMP JUMPDEST PUSH1 0x0 PUSH2 0x2FA5 DUP3 PUSH2 0x2F7A JUMP JUMPDEST SWAP1 POP SWAP2 SWAP1 POP JUMP JUMPDEST PUSH2 0x2FB5 DUP2 PUSH2 0x2F9A JUMP JUMPDEST DUP3 MSTORE POP POP JUMP JUMPDEST PUSH1 0x0 PUSH2 0x120 DUP4 ADD PUSH1 0x0 DUP4 ADD MLOAD PUSH2 0x2FD4 PUSH1 0x0 DUP7 ADD DUP3 PUSH2 0x2EDB JUMP JUMPDEST POP PUSH1 0x20 DUP4 ADD MLOAD DUP5 DUP3 SUB PUSH1 0x20 DUP7 ADD MSTORE PUSH2 0x2FEC DUP3 DUP3 PUSH2 0x2F41 JUMP JUMPDEST SWAP2 POP POP PUSH1 0x40 DUP4 ADD MLOAD DUP5 DUP3 SUB PUSH1 0x40 DUP7 ADD MSTORE PUSH2 0x3006 DUP3 DUP3 PUSH2 0x2F41 JUMP JUMPDEST SWAP2 POP POP PUSH1 0x60 DUP4 ADD MLOAD PUSH2 0x301B PUSH1 0x60 DUP7 ADD DUP3 PUSH2 0x2EDB JUMP JUMPDEST POP PUSH1 0x80 DUP4 ADD MLOAD PUSH2 0x302E PUSH1 0x80 DUP7 ADD DUP3 PUSH2 0x2FAC JUMP JUMPDEST POP PUSH1 0xA0 DUP4 ADD MLOAD PUSH2 0x3041 PUSH1 0xA0 DUP7 ADD DUP3 PUSH2 0x2EDB JUMP JUMPDEST POP PUSH1 0xC0 DUP4 ADD MLOAD PUSH2 0x3054 PUSH1 0xC0 DUP7 ADD DUP3 PUSH2 0x2EDB JUMP JUMPDEST POP PUSH1 0xE0 DUP4 ADD MLOAD PUSH2 0x3067 PUSH1 0xE0 DUP7 ADD DUP3 PUSH2 0x2EDB JUMP JUMPDEST POP PUSH2 0x100 DUP4 ADD MLOAD DUP5 DUP3 SUB PUSH2 0x100 DUP7 ADD MSTORE PUSH2 0x3081 DUP3 DUP3 PUSH2 0x2F41 JUMP JUMPDEST SWAP2 POP POP DUP1 SWAP2 POP POP SWAP3 SWAP2 POP POP JUMP JUMPDEST PUSH1 0x0 PUSH2 0x309A DUP4 DUP4 PUSH2 0x2FBB JUMP JUMPDEST SWAP1 POP SWAP3 SWAP2 POP POP JUMP JUMPDEST PUSH1 0x0 PUSH1 0x20 DUP3 ADD SWAP1 POP SWAP2 SWAP1 POP JUMP JUMPDEST PUSH1 0x0 PUSH2 0x30BA DUP3 PUSH2 0x2EA5 JUMP JUMPDEST PUSH2 0x30C4 DUP2 DUP6 PUSH2 0x2EB0 JUMP JUMPDEST SWAP4 POP DUP4 PUSH1 0x20 DUP3 MUL DUP6 ADD PUSH2 0x30D6 DUP6 PUSH2 0x2EC1 JUMP JUMPDEST DUP1 PUSH1 0x0 JUMPDEST DUP6 DUP2 LT ISZERO PUSH2 0x3112 JUMPI DUP5 DUP5 SUB DUP10 MSTORE DUP2 MLOAD PUSH2 0x30F3 DUP6 DUP3 PUSH2 0x308E JUMP JUMPDEST SWAP5 POP PUSH2 0x30FE DUP4 PUSH2 0x30A2 JUMP JUMPDEST SWAP3 POP PUSH1 0x20 DUP11 ADD SWAP10 POP POP PUSH1 0x1 DUP2 ADD SWAP1 POP PUSH2 0x30DA JUMP JUMPDEST POP DUP3 SWAP8 POP DUP8 SWAP6 POP POP POP POP POP POP SWAP3 SWAP2 POP POP JUMP JUMPDEST PUSH1 0x0 PUSH1 0x20 DUP3 ADD SWAP1 POP DUP2 DUP2 SUB PUSH1 0x0 DUP4 ADD MSTORE PUSH2 0x313E DUP2 DUP5 PUSH2 0x30AF JUMP JUMPDEST SWAP1 POP SWAP3 SWAP2 POP POP JUMP JUMPDEST PUSH2 0x314F DUP2 PUSH2 0x2ED1 JUMP JUMPDEST DUP3 MSTORE POP POP JUMP JUMPDEST PUSH1 0x0 PUSH1 0x20 DUP3 ADD SWAP1 POP PUSH2 0x316A PUSH1 0x0 DUP4 ADD DUP5 PUSH2 0x3146 JUMP JUMPDEST SWAP3 SWAP2 POP POP JUMP JUMPDEST PUSH1 0x0 PUSH1 0x40 MLOAD SWAP1 POP SWAP1 JUMP JUMPDEST PUSH1 0x0 DUP1 REVERT JUMPDEST PUSH1 0x0 DUP1 REVERT JUMPDEST PUSH2 0x318D DUP2 PUSH2 0x2ED1 JUMP JUMPDEST DUP2 EQ PUSH2 0x3198 JUMPI PUSH1 0x0 DUP1 REVERT JUMPDEST POP JUMP JUMPDEST PUSH1 0x0 DUP2 CALLDATALOAD SWAP1 POP PUSH2 0x31AA DUP2 PUSH2 0x3184 JUMP JUMPDEST SWAP3 SWAP2 POP POP JUMP JUMPDEST PUSH1 0x0 PUSH1 0x20 DUP3 DUP5 SUB SLT ISZERO PUSH2 0x31C6 JUMPI PUSH2 0x31C5 PUSH2 0x317A JUMP JUMPDEST JUMPDEST PUSH1 0x0 PUSH2 0x31D4 DUP5 DUP3 DUP6 ADD PUSH2 0x319B JUMP JUMPDEST SWAP2 POP POP SWAP3 SWAP2 POP POP JUMP JUMPDEST PUSH2 0x31E6 DUP2 PUSH2 0x2F9A JUMP JUMPDEST DUP2 EQ PUSH2 0x31F1 JUMPI PUSH1 0x0 DUP1 REVERT JUMPDEST POP JUMP JUMPDEST PUSH1 0x0 DUP2 CALLDATALOAD SWAP1 POP PUSH2 0x3203 DUP2 PUSH2 0x31DD JUMP JUMPDEST SWAP3 SWAP2 POP POP JUMP JUMPDEST PUSH1 0x0 PUSH1 0x20 DUP3 DUP5 SUB SLT ISZERO PUSH2 0x321F JUMPI PUSH2 0x321E PUSH2 0x317A JUMP JUMPDEST JUMPDEST PUSH1 0x0 PUSH2 0x322D DUP5 DUP3 DUP6 ADD PUSH2 0x31F4 JUMP JUMPDEST SWAP2 POP POP SWAP3 SWAP2 POP POP JUMP JUMPDEST PUSH1 0x0 DUP1 REVERT JUMPDEST PUSH1 0x0 DUP1 REVERT JUMPDEST PUSH1 0x0 DUP1 REVERT JUMPDEST PUSH1 0x0 DUP1 DUP4 PUSH1 0x1F DUP5 ADD SLT PUSH2 0x325B JUMPI PUSH2 0x325A PUSH2 0x3236 JUMP JUMPDEST JUMPDEST DUP3 CALLDATALOAD SWAP1 POP PUSH8 0xFFFFFFFFFFFFFFFF DUP2 GT ISZERO PUSH2 0x3278 JUMPI PUSH2 0x3277 PUSH2 0x323B JUMP JUMPDEST JUMPDEST PUSH1 0x20 DUP4 ADD SWAP2 POP DUP4 PUSH1 0x1 DUP3 MUL DUP4 ADD GT ISZERO PUSH2 0x3294 JUMPI PUSH2 0x3293 PUSH2 0x3240 JUMP JUMPDEST JUMPDEST SWAP3 POP SWAP3 SWAP1 POP JUMP JUMPDEST PUSH1 0x0 DUP1 PUSH1 0x20 DUP4 DUP6 SUB SLT ISZERO PUSH2 0x32B2 JUMPI PUSH2 0x32B1 PUSH2 0x317A JUMP JUMPDEST JUMPDEST PUSH1 0x0 DUP4 ADD CALLDATALOAD PUSH8 0xFFFFFFFFFFFFFFFF DUP2 GT ISZERO PUSH2 0x32D0 JUMPI PUSH2 0x32CF PUSH2 0x317F JUMP JUMPDEST JUMPDEST PUSH2 0x32DC DUP6 DUP3 DUP7 ADD PUSH2 0x3245 JUMP JUMPDEST SWAP3 POP SWAP3 POP POP SWAP3 POP SWAP3 SWAP1 POP JUMP JUMPDEST PUSH32 0x4E487B7100000000000000000000000000000000000000000000000000000000 PUSH1 0x0 MSTORE PUSH1 0x41 PUSH1 0x4 MSTORE PUSH1 0x24 PUSH1 0x0 REVERT JUMPDEST PUSH2 0x3320 DUP3 PUSH2 0x2F30 JUMP JUMPDEST DUP2 ADD DUP2 DUP2 LT PUSH8 0xFFFFFFFFFFFFFFFF DUP3 GT OR ISZERO PUSH2 0x333F JUMPI PUSH2 0x333E PUSH2 0x32E8 JUMP JUMPDEST JUMPDEST DUP1 PUSH1 0x40 MSTORE POP POP POP JUMP JUMPDEST PUSH1 0x0 PUSH2 0x3352 PUSH2 0x3170 JUMP JUMPDEST SWAP1 POP PUSH2 0x335E DUP3 DUP3 PUSH2 0x3317 JUMP JUMPDEST SWAP2 SWAP1 POP JUMP JUMPDEST PUSH1 0x0 PUSH8 0xFFFFFFFFFFFFFFFF DUP3 GT ISZERO PUSH2 0x337E JUMPI PUSH2 0x337D PUSH2 0x32E8 JUMP JUMPDEST JUMPDEST PUSH1 0x20 DUP3 MUL SWAP1 POP PUSH1 0x20 DUP2 ADD SWAP1 POP SWAP2 SWAP1 POP JUMP JUMPDEST PUSH1 0x0 PUSH2 0x33A2 PUSH2 0x339D DUP5 PUSH2 0x3363 JUMP JUMPDEST PUSH2 0x3348 JUMP JUMPDEST SWAP1 POP DUP1 DUP4 DUP3 MSTORE PUSH1 0x20 DUP3 ADD SWAP1 POP PUSH1 0x20 DUP5 MUL DUP4 ADD DUP6 DUP2 GT ISZERO PUSH2 0x33C5 JUMPI PUSH2 0x33C4 PUSH2 0x3240 JUMP JUMPDEST JUMPDEST DUP4 JUMPDEST DUP2 DUP2 LT ISZERO PUSH2 0x33EE JUMPI DUP1 PUSH2 0x33DA DUP9 DUP3 PUSH2 0x319B JUMP JUMPDEST DUP5 MSTORE PUSH1 0x20 DUP5 ADD SWAP4 POP POP PUSH1 0x20 DUP2 ADD SWAP1 POP PUSH2 0x33C7 JUMP JUMPDEST POP POP POP SWAP4 SWAP3 POP POP POP JUMP JUMPDEST PUSH1 0x0 DUP3 PUSH1 0x1F DUP4 ADD SLT PUSH2 0x340D JUMPI PUSH2 0x340C PUSH2 0x3236 JUMP JUMPDEST JUMPDEST DUP2 CALLDATALOAD PUSH2 0x341D DUP5 DUP3 PUSH1 0x20 DUP7 ADD PUSH2 0x338F JUMP JUMPDEST SWAP2 POP POP SWAP3 SWAP2 POP POP JUMP JUMPDEST PUSH1 0x0 PUSH8 0xFFFFFFFFFFFFFFFF DUP3 GT ISZERO PUSH2 0x3441 JUMPI PUSH2 0x3440 PUSH2 0x32E8 JUMP JUMPDEST JUMPDEST PUSH1 0x20 DUP3 MUL SWAP1 POP PUSH1 0x20 DUP2 ADD SWAP1 POP SWAP2 SWAP1 POP JUMP JUMPDEST PUSH1 0x0 DUP2 ISZERO ISZERO SWAP1 POP SWAP2 SWAP1 POP JUMP JUMPDEST PUSH2 0x3467 DUP2 PUSH2 0x3452 JUMP JUMPDEST DUP2 EQ PUSH2 0x3472 JUMPI PUSH1 0x0 DUP1 REVERT JUMPDEST POP JUMP JUMPDEST PUSH1 0x0 DUP2 CALLDATALOAD SWAP1 POP PUSH2 0x3484 DUP2 PUSH2 0x345E JUMP JUMPDEST SWAP3 SWAP2 POP POP JUMP JUMPDEST PUSH1 0x0 PUSH2 0x349D PUSH2 0x3498 DUP5 PUSH2 0x3426 JUMP JUMPDEST PUSH2 0x3348 JUMP JUMPDEST SWAP1 POP DUP1 DUP4 DUP3 MSTORE PUSH1 0x20 DUP3 ADD SWAP1 POP PUSH1 0x20 DUP5 MUL DUP4 ADD DUP6 DUP2 GT ISZERO PUSH2 0x34C0 JUMPI PUSH2 0x34BF PUSH2 0x3240 JUMP JUMPDEST JUMPDEST DUP4 JUMPDEST DUP2 DUP2 LT ISZERO PUSH2 0x34E9 JUMPI DUP1 PUSH2 0x34D5 DUP9 DUP3 PUSH2 0x3475 JUMP JUMPDEST DUP5 MSTORE PUSH1 0x20 DUP5 ADD SWAP4 POP POP PUSH1 0x20 DUP2 ADD SWAP1 POP PUSH2 0x34C2 JUMP JUMPDEST POP POP POP SWAP4 SWAP3 POP POP POP JUMP JUMPDEST PUSH1 0x0 DUP3 PUSH1 0x1F DUP4 ADD SLT PUSH2 0x3508 JUMPI PUSH2 0x3507 PUSH2 0x3236 JUMP JUMPDEST JUMPDEST DUP2 CALLDATALOAD PUSH2 0x3518 DUP5 DUP3 PUSH1 0x20 DUP7 ADD PUSH2 0x348A JUMP JUMPDEST SWAP2 POP POP SWAP3 SWAP2 POP POP JUMP JUMPDEST PUSH1 0x0 DUP1 PUSH1 0x0 DUP1 PUSH1 0x0 PUSH1 0xA0 DUP7 DUP9 SUB SLT ISZERO PUSH2 0x353D JUMPI PUSH2 0x353C PUSH2 0x317A JUMP JUMPDEST JUMPDEST PUSH1 0x0 DUP7 ADD CALLDATALOAD PUSH8 0xFFFFFFFFFFFFFFFF DUP2 GT ISZERO PUSH2 0x355B JUMPI PUSH2 0x355A PUSH2 0x317F JUMP JUMPDEST JUMPDEST PUSH2 0x3567 DUP9 DUP3 DUP10 ADD PUSH2 0x33F8 JUMP JUMPDEST SWAP6 POP POP PUSH1 0x20 DUP7 ADD CALLDATALOAD PUSH8 0xFFFFFFFFFFFFFFFF DUP2 GT ISZERO PUSH2 0x3588 JUMPI PUSH2 0x3587 PUSH2 0x317F JUMP JUMPDEST JUMPDEST PUSH2 0x3594 DUP9 DUP3 DUP10 ADD PUSH2 0x33F8 JUMP JUMPDEST SWAP5 POP POP PUSH1 0x40 DUP7 ADD CALLDATALOAD PUSH8 0xFFFFFFFFFFFFFFFF DUP2 GT ISZERO PUSH2 0x35B5 JUMPI PUSH2 0x35B4 PUSH2 0x317F JUMP JUMPDEST JUMPDEST PUSH2 0x35C1 DUP9 DUP3 DUP10 ADD PUSH2 0x34F3 JUMP JUMPDEST SWAP4 POP POP PUSH1 0x60 PUSH2 0x35D2 DUP9 DUP3 DUP10 ADD PUSH2 0x319B JUMP JUMPDEST SWAP3 POP POP PUSH1 0x80 PUSH2 0x35E3 DUP9 DUP3 DUP10 ADD PUSH2 0x319B JUMP JUMPDEST SWAP2 POP POP SWAP3 SWAP6 POP SWAP3 SWAP6 SWAP1 SWAP4 POP JUMP JUMPDEST PUSH2 0x35F9 DUP2 PUSH2 0x2F9A JUMP JUMPDEST DUP3 MSTORE POP POP JUMP JUMPDEST PUSH1 0x0 PUSH1 0x20 DUP3 ADD SWAP1 POP PUSH2 0x3614 PUSH1 0x0 DUP4 ADD DUP5 PUSH2 0x35F0 JUMP JUMPDEST SWAP3 SWAP2 POP POP JUMP JUMPDEST PUSH1 0x0 DUP1 REVERT JUMPDEST PUSH1 0x0 PUSH8 0xFFFFFFFFFFFFFFFF DUP3 GT ISZERO PUSH2 0x363A JUMPI PUSH2 0x3639 PUSH2 0x32E8 JUMP JUMPDEST JUMPDEST PUSH2 0x3643 DUP3 PUSH2 0x2F30 JUMP JUMPDEST SWAP1 POP PUSH1 0x20 DUP2 ADD SWAP1 POP SWAP2 SWAP1 POP JUMP JUMPDEST DUP3 DUP2 DUP4 CALLDATACOPY PUSH1 0x0 DUP4 DUP4 ADD MSTORE POP POP POP JUMP JUMPDEST PUSH1 0x0 PUSH2 0x3672 PUSH2 0x366D DUP5 PUSH2 0x361F JUMP JUMPDEST PUSH2 0x3348 JUMP JUMPDEST SWAP1 POP DUP3 DUP2 MSTORE PUSH1 0x20 DUP2 ADD DUP5 DUP5 DUP5 ADD GT ISZERO PUSH2 0x368E JUMPI PUSH2 0x368D PUSH2 0x361A JUMP JUMPDEST JUMPDEST PUSH2 0x3699 DUP5 DUP3 DUP6 PUSH2 0x3650 JUMP JUMPDEST POP SWAP4 SWAP3 POP POP POP JUMP JUMPDEST PUSH1 0x0 DUP3 PUSH1 0x1F DUP4 ADD SLT PUSH2 0x36B6 JUMPI PUSH2 0x36B5 PUSH2 0x3236 JUMP JUMPDEST JUMPDEST DUP2 CALLDATALOAD PUSH2 0x36C6 DUP5 DUP3 PUSH1 0x20 DUP7 ADD PUSH2 0x365F JUMP JUMPDEST SWAP2 POP POP SWAP3 SWAP2 POP POP JUMP JUMPDEST PUSH1 0x0 PUSH1 0x20 DUP3 DUP5 SUB SLT ISZERO PUSH2 0x36E5 JUMPI PUSH2 0x36E4 PUSH2 0x317A JUMP JUMPDEST JUMPDEST PUSH1 0x0 DUP3 ADD CALLDATALOAD PUSH8 0xFFFFFFFFFFFFFFFF DUP2 GT ISZERO PUSH2 0x3703 JUMPI PUSH2 0x3702 PUSH2 0x317F JUMP JUMPDEST JUMPDEST PUSH2 0x370F DUP5 DUP3 DUP6 ADD PUSH2 0x36A1 JUMP JUMPDEST SWAP2 POP POP SWAP3 SWAP2 POP POP JUMP JUMPDEST PUSH2 0x3721 DUP2 PUSH2 0x3452 JUMP JUMPDEST DUP3 MSTORE POP POP JUMP JUMPDEST PUSH1 0x0 DUP2 MLOAD SWAP1 POP SWAP2 SWAP1 POP JUMP JUMPDEST PUSH1 0x0 DUP3 DUP3 MSTORE PUSH1 0x20 DUP3 ADD SWAP1 POP SWAP3 SWAP2 POP POP JUMP JUMPDEST PUSH1 0x0 PUSH2 0x374E DUP3 PUSH2 0x3727 JUMP JUMPDEST PUSH2 0x3758 DUP2 DUP6 PUSH2 0x3732 JUMP JUMPDEST SWAP4 POP PUSH2 0x3768 DUP2 DUP6 PUSH1 0x20 DUP7 ADD PUSH2 0x2F06 JUMP JUMPDEST PUSH2 0x3771 DUP2 PUSH2 0x2F30 JUMP JUMPDEST DUP5 ADD SWAP2 POP POP SWAP3 SWAP2 POP POP JUMP JUMPDEST PUSH1 0x0 PUSH1 0x40 DUP3 ADD SWAP1 POP PUSH2 0x3791 PUSH1 0x0 DUP4 ADD DUP6 PUSH2 0x3718 JUMP JUMPDEST DUP2 DUP2 SUB PUSH1 0x20 DUP4 ADD MSTORE PUSH2 0x37A3 DUP2 DUP5 PUSH2 0x3743 JUMP JUMPDEST SWAP1 POP SWAP4 SWAP3 POP POP POP JUMP JUMPDEST PUSH1 0x0 DUP2 SWAP1 POP SWAP2 SWAP1 POP JUMP JUMPDEST PUSH1 0x0 PUSH2 0x37D1 PUSH2 0x37CC PUSH2 0x37C7 DUP5 PUSH2 0x2F7A JUMP JUMPDEST PUSH2 0x37AC JUMP JUMPDEST PUSH2 0x2F7A JUMP JUMPDEST SWAP1 POP SWAP2 SWAP1 POP JUMP JUMPDEST PUSH1 0x0 PUSH2 0x37E3 DUP3 PUSH2 0x37B6 JUMP JUMPDEST SWAP1 POP SWAP2 SWAP1 POP JUMP JUMPDEST PUSH1 0x0 PUSH2 0x37F5 DUP3 PUSH2 0x37D8 JUMP JUMPDEST SWAP1 POP SWAP2 SWAP1 POP JUMP JUMPDEST PUSH2 0x3805 DUP2 PUSH2 0x37EA JUMP JUMPDEST DUP3 MSTORE POP POP JUMP JUMPDEST PUSH1 0x0 PUSH1 0x20 DUP3 ADD SWAP1 POP PUSH2 0x3820 PUSH1 0x0 DUP4 ADD DUP5 PUSH2 0x37FC JUMP JUMPDEST SWAP3 SWAP2 POP POP JUMP JUMPDEST PUSH1 0x0 PUSH2 0x3831 DUP3 PUSH2 0x2EEA JUMP JUMPDEST PUSH2 0x383B DUP2 DUP6 PUSH2 0x2E28 JUMP JUMPDEST SWAP4 POP PUSH2 0x384B DUP2 DUP6 PUSH1 0x20 DUP7 ADD PUSH2 0x2F06 JUMP JUMPDEST PUSH2 0x3854 DUP2 PUSH2 0x2F30 JUMP JUMPDEST DUP5 ADD SWAP2 POP POP SWAP3 SWAP2 POP POP JUMP JUMPDEST PUSH1 0x0 PUSH2 0x120 DUP3 ADD SWAP1 POP PUSH2 0x3875 PUSH1 0x0 DUP4 ADD DUP13 PUSH2 0x3146 JUMP JUMPDEST DUP2 DUP2 SUB PUSH1 0x20 DUP4 ADD MSTORE PUSH2 0x3887 DUP2 DUP12 PUSH2 0x3826 JUMP JUMPDEST SWAP1 POP DUP2 DUP2 SUB PUSH1 0x40 DUP4 ADD MSTORE PUSH2 0x389B DUP2 DUP11 PUSH2 0x3826 JUMP JUMPDEST SWAP1 POP PUSH2 0x38AA PUSH1 0x60 DUP4 ADD DUP10 PUSH2 0x3146 JUMP JUMPDEST PUSH2 0x38B7 PUSH1 0x80 DUP4 ADD DUP9 PUSH2 0x35F0 JUMP JUMPDEST PUSH2 0x38C4 PUSH1 0xA0 DUP4 ADD DUP8 PUSH2 0x3146 JUMP JUMPDEST PUSH2 0x38D1 PUSH1 0xC0 DUP4 ADD DUP7 PUSH2 0x3146 JUMP JUMPDEST PUSH2 0x38DE PUSH1 0xE0 DUP4 ADD DUP6 PUSH2 0x3146 JUMP JUMPDEST DUP2 DUP2 SUB PUSH2 0x100 DUP4 ADD MSTORE PUSH2 0x38F1 DUP2 DUP5 PUSH2 0x3826 JUMP JUMPDEST SWAP1 POP SWAP11 SWAP10 POP POP POP POP POP POP POP POP POP POP JUMP JUMPDEST PUSH1 0x0 PUSH1 0x80 DUP3 ADD SWAP1 POP PUSH2 0x3916 PUSH1 0x0 DUP4 ADD DUP8 PUSH2 0x3146 JUMP JUMPDEST PUSH2 0x3923 PUSH1 0x20 DUP4 ADD DUP7 PUSH2 0x35F0 JUMP JUMPDEST PUSH2 0x3930 PUSH1 0x40 DUP4 ADD DUP6 PUSH2 0x3146 JUMP JUMPDEST PUSH2 0x393D PUSH1 0x60 DUP4 ADD DUP5 PUSH2 0x3146 JUMP JUMPDEST SWAP6 SWAP5 POP POP POP POP POP JUMP JUMPDEST PUSH1 0x0 PUSH1 0x60 DUP3 ADD SWAP1 POP PUSH2 0x395B PUSH1 0x0 DUP4 ADD DUP7 PUSH2 0x35F0 JUMP JUMPDEST PUSH2 0x3968 PUSH1 0x20 DUP4 ADD DUP6 PUSH2 0x3146 JUMP JUMPDEST PUSH2 0x3975 PUSH1 0x40 DUP4 ADD DUP5 PUSH2 0x3146 JUMP JUMPDEST SWAP5 SWAP4 POP POP POP POP JUMP JUMPDEST PUSH1 0x0 PUSH8 0xFFFFFFFFFFFFFFFF DUP3 GT ISZERO PUSH2 0x3998 JUMPI PUSH2 0x3997 PUSH2 0x32E8 JUMP JUMPDEST JUMPDEST PUSH2 0x39A1 DUP3 PUSH2 0x2F30 JUMP JUMPDEST SWAP1 POP PUSH1 0x20 DUP2 ADD SWAP1 POP SWAP2 SWAP1 POP JUMP JUMPDEST PUSH1 0x0 PUSH2 0x39C1 PUSH2 0x39BC DUP5 PUSH2 0x397D JUMP JUMPDEST PUSH2 0x3348 JUMP JUMPDEST SWAP1 POP DUP3 DUP2 MSTORE PUSH1 0x20 DUP2 ADD DUP5 DUP5 DUP5 ADD GT ISZERO PUSH2 0x39DD JUMPI PUSH2 0x39DC PUSH2 0x361A JUMP JUMPDEST JUMPDEST PUSH2 0x39E8 DUP5 DUP3 DUP6 PUSH2 0x3650 JUMP JUMPDEST POP SWAP4 SWAP3 POP POP POP JUMP JUMPDEST PUSH1 0x0 DUP3 PUSH1 0x1F DUP4 ADD SLT PUSH2 0x3A05 JUMPI PUSH2 0x3A04 PUSH2 0x3236 JUMP JUMPDEST JUMPDEST DUP2 CALLDATALOAD PUSH2 0x3A15 DUP5 DUP3 PUSH1 0x20 DUP7 ADD PUSH2 0x39AE JUMP JUMPDEST SWAP2 POP POP SWAP3 SWAP2 POP POP JUMP JUMPDEST PUSH1 0x0 DUP1 PUSH1 0x0 DUP1 PUSH1 0x0 DUP1 PUSH1 0x0 PUSH1 0xE0 DUP9 DUP11 SUB SLT ISZERO PUSH2 0x3A3D JUMPI PUSH2 0x3A3C PUSH2 0x317A JUMP JUMPDEST JUMPDEST PUSH1 0x0 DUP9 ADD CALLDATALOAD PUSH8 0xFFFFFFFFFFFFFFFF DUP2 GT ISZERO PUSH2 0x3A5B JUMPI PUSH2 0x3A5A PUSH2 0x317F JUMP JUMPDEST JUMPDEST PUSH2 0x3A67 DUP11 DUP3 DUP12 ADD PUSH2 0x39F0 JUMP JUMPDEST SWAP8 POP POP PUSH1 0x20 DUP9 ADD CALLDATALOAD PUSH8 0xFFFFFFFFFFFFFFFF DUP2 GT ISZERO PUSH2 0x3A88 JUMPI PUSH2 0x3A87 PUSH2 0x317F JUMP JUMPDEST JUMPDEST PUSH2 0x3A94 DUP11 DUP3 DUP12 ADD PUSH2 0x39F0 JUMP JUMPDEST SWAP7 POP POP PUSH1 0x40 PUSH2 0x3AA5 DUP11 DUP3 DUP12 ADD PUSH2 0x319B JUMP JUMPDEST SWAP6 POP POP PUSH1 0x60 PUSH2 0x3AB6 DUP11 DUP3 DUP12 ADD PUSH2 0x319B JUMP JUMPDEST SWAP5 POP POP PUSH1 0x80 PUSH2 0x3AC7 DUP11 DUP3 DUP12 ADD PUSH2 0x319B JUMP JUMPDEST SWAP4 POP POP PUSH1 0xA0 PUSH2 0x3AD8 DUP11 DUP3 DUP12 ADD PUSH2 0x319B JUMP JUMPDEST SWAP3 POP POP PUSH1 0xC0 DUP9 ADD CALLDATALOAD PUSH8 0xFFFFFFFFFFFFFFFF DUP2 GT ISZERO PUSH2 0x3AF9 JUMPI PUSH2 0x3AF8 PUSH2 0x317F JUMP JUMPDEST JUMPDEST PUSH2 0x3B05 DUP11 DUP3 DUP12 ADD PUSH2 0x39F0 JUMP JUMPDEST SWAP2 POP POP SWAP3 SWAP6 SWAP9 SWAP2 SWAP5 SWAP8 POP SWAP3 SWAP6 POP JUMP JUMPDEST PUSH1 0x0 DUP2 MLOAD SWAP1 POP SWAP2 SWAP1 POP JUMP JUMPDEST PUSH1 0x0 DUP3 DUP3 MSTORE PUSH1 0x20 DUP3 ADD SWAP1 POP SWAP3 SWAP2 POP POP JUMP JUMPDEST PUSH1 0x0 DUP2 SWAP1 POP PUSH1 0x20 DUP3 ADD SWAP1 POP SWAP2 SWAP1 POP JUMP JUMPDEST PUSH1 0x0 PUSH2 0x3B4C DUP4 DUP4 PUSH2 0x2FAC JUMP JUMPDEST PUSH1 0x20 DUP4 ADD SWAP1 POP SWAP3 SWAP2 POP POP JUMP JUMPDEST PUSH1 0x0 PUSH1 0x20 DUP3 ADD SWAP1 POP SWAP2 SWAP1 POP JUMP JUMPDEST PUSH1 0x0 PUSH2 0x3B70 DUP3 PUSH2 0x3B14 JUMP JUMPDEST PUSH2 0x3B7A DUP2 DUP6 PUSH2 0x3B1F JUMP JUMPDEST SWAP4 POP PUSH2 0x3B85 DUP4 PUSH2 0x3B30 JUMP JUMPDEST DUP1 PUSH1 0x0 JUMPDEST DUP4 DUP2 LT ISZERO PUSH2 0x3BB6 JUMPI DUP2 MLOAD PUSH2 0x3B9D DUP9 DUP3 PUSH2 0x3B40 JUMP JUMPDEST SWAP8 POP PUSH2 0x3BA8 DUP4 PUSH2 0x3B58 JUMP JUMPDEST SWAP3 POP POP PUSH1 0x1 DUP2 ADD SWAP1 POP PUSH2 0x3B89 JUMP JUMPDEST POP DUP6 SWAP4 POP POP POP POP SWAP3 SWAP2 POP POP JUMP JUMPDEST PUSH1 0x0 PUSH1 0x20 DUP3 ADD SWAP1 POP DUP2 DUP2 SUB PUSH1 0x0 DUP4 ADD MSTORE PUSH2 0x3BDD DUP2 DUP5 PUSH2 0x3B65 JUMP JUMPDEST SWAP1 POP SWAP3 SWAP2 POP POP JUMP JUMPDEST PUSH32 0x4D4154494320616D6F756E742073686F756C6420626520677265617465722074 PUSH1 0x0 DUP3 ADD MSTORE PUSH32 0x68616E2030000000000000000000000000000000000000000000000000000000 PUSH1 0x20 DUP3 ADD MSTORE POP JUMP JUMPDEST PUSH1 0x0 PUSH2 0x3C41 PUSH1 0x25 DUP4 PUSH2 0x2E28 JUMP JUMPDEST SWAP2 POP PUSH2 0x3C4C DUP3 PUSH2 0x3BE5 JUMP JUMPDEST PUSH1 0x40 DUP3 ADD SWAP1 POP SWAP2 SWAP1 POP JUMP JUMPDEST PUSH1 0x0 PUSH1 0x20 DUP3 ADD SWAP1 POP DUP2 DUP2 SUB PUSH1 0x0 DUP4 ADD MSTORE PUSH2 0x3C70 DUP2 PUSH2 0x3C34 JUMP JUMPDEST SWAP1 POP SWAP2 SWAP1 POP JUMP JUMPDEST PUSH1 0x0 DUP2 MLOAD SWAP1 POP PUSH2 0x3C86 DUP2 PUSH2 0x3184 JUMP JUMPDEST SWAP3 SWAP2 POP POP JUMP JUMPDEST PUSH1 0x0 PUSH1 0x20 DUP3 DUP5 SUB SLT ISZERO PUSH2 0x3CA2 JUMPI PUSH2 0x3CA1 PUSH2 0x317A JUMP JUMPDEST JUMPDEST PUSH1 0x0 PUSH2 0x3CB0 DUP5 DUP3 DUP6 ADD PUSH2 0x3C77 JUMP JUMPDEST SWAP2 POP POP SWAP3 SWAP2 POP POP JUMP JUMPDEST PUSH32 0x4E6F7420656E6F756768204C525420696E20636F6E7472616374000000000000 PUSH1 0x0 DUP3 ADD MSTORE POP JUMP JUMPDEST PUSH1 0x0 PUSH2 0x3CEF PUSH1 0x1A DUP4 PUSH2 0x2E28 JUMP JUMPDEST SWAP2 POP PUSH2 0x3CFA DUP3 PUSH2 0x3CB9 JUMP JUMPDEST PUSH1 0x20 DUP3 ADD SWAP1 POP SWAP2 SWAP1 POP JUMP JUMPDEST PUSH1 0x0 PUSH1 0x20 DUP3 ADD SWAP1 POP DUP2 DUP2 SUB PUSH1 0x0 DUP4 ADD MSTORE PUSH2 0x3D1E DUP2 PUSH2 0x3CE2 JUMP JUMPDEST SWAP1 POP SWAP2 SWAP1 POP JUMP JUMPDEST PUSH1 0x0 PUSH1 0x40 DUP3 ADD SWAP1 POP PUSH2 0x3D3A PUSH1 0x0 DUP4 ADD DUP6 PUSH2 0x35F0 JUMP JUMPDEST PUSH2 0x3D47 PUSH1 0x20 DUP4 ADD DUP5 PUSH2 0x3146 JUMP JUMPDEST SWAP4 SWAP3 POP POP POP JUMP JUMPDEST PUSH1 0x0 DUP2 MLOAD SWAP1 POP PUSH2 0x3D5D DUP2 PUSH2 0x345E JUMP JUMPDEST SWAP3 SWAP2 POP POP JUMP JUMPDEST PUSH1 0x0 PUSH1 0x20 DUP3 DUP5 SUB SLT ISZERO PUSH2 0x3D79 JUMPI PUSH2 0x3D78 PUSH2 0x317A JUMP JUMPDEST JUMPDEST PUSH1 0x0 PUSH2 0x3D87 DUP5 DUP3 DUP6 ADD PUSH2 0x3D4E JUMP JUMPDEST SWAP2 POP POP SWAP3 SWAP2 POP POP JUMP JUMPDEST PUSH32 0x4C5254207472616E73666572206661696C656400000000000000000000000000 PUSH1 0x0 DUP3 ADD MSTORE POP JUMP JUMPDEST PUSH1 0x0 PUSH2 0x3DC6 PUSH1 0x13 DUP4 PUSH2 0x2E28 JUMP JUMPDEST SWAP2 POP PUSH2 0x3DD1 DUP3 PUSH2 0x3D90 JUMP JUMPDEST PUSH1 0x20 DUP3 ADD SWAP1 POP SWAP2 SWAP1 POP JUMP JUMPDEST PUSH1 0x0 PUSH1 0x20 DUP3 ADD SWAP1 POP DUP2 DUP2 SUB PUSH1 0x0 DUP4 ADD MSTORE PUSH2 0x3DF5 DUP2 PUSH2 0x3DB9 JUMP JUMPDEST SWAP1 POP SWAP2 SWAP1 POP JUMP JUMPDEST PUSH1 0x0 PUSH1 0x40 DUP3 ADD SWAP1 POP PUSH2 0x3E11 PUSH1 0x0 DUP4 ADD DUP6 PUSH2 0x3146 JUMP JUMPDEST PUSH2 0x3E1E PUSH1 0x20 DUP4 ADD DUP5 PUSH2 0x3146 JUMP JUMPDEST SWAP4 SWAP3 POP POP POP JUMP JUMPDEST PUSH32 0x4E487B7100000000000000000000000000000000000000000000000000000000 PUSH1 0x0 MSTORE PUSH1 0x11 PUSH1 0x4 MSTORE PUSH1 0x24 PUSH1 0x0 REVERT JUMPDEST PUSH1 0x0 PUSH2 0x3E5F DUP3 PUSH2 0x2ED1 JUMP JUMPDEST SWAP2 POP PUSH2 0x3E6A DUP4 PUSH2 0x2ED1 JUMP JUMPDEST SWAP3 POP DUP3 DUP3 SUB SWAP1 POP DUP2 DUP2 GT ISZERO PUSH2 0x3E82 JUMPI PUSH2 0x3E81 PUSH2 0x3E25 JUMP JUMPDEST JUMPDEST SWAP3 SWAP2 POP POP JUMP JUMPDEST PUSH32 0x4E487B7100000000000000000000000000000000000000000000000000000000 PUSH1 0x0 MSTORE PUSH1 0x22 PUSH1 0x4 MSTORE PUSH1 0x24 PUSH1 0x0 REVERT JUMPDEST PUSH1 0x0 PUSH1 0x2 DUP3 DIV SWAP1 POP PUSH1 0x1 DUP3 AND DUP1 PUSH2 0x3ECF JUMPI PUSH1 0x7F DUP3 AND SWAP2 POP JUMPDEST PUSH1 0x20 DUP3 LT DUP2 SUB PUSH2 0x3EE2 JUMPI PUSH2 0x3EE1 PUSH2 0x3E88 JUMP JUMPDEST JUMPDEST POP SWAP2 SWAP1 POP JUMP JUMPDEST PUSH32 0x4E487B7100000000000000000000000000000000000000000000000000000000 PUSH1 0x0 MSTORE PUSH1 0x32 PUSH1 0x4 MSTORE PUSH1 0x24 PUSH1 0x0 REVERT JUMPDEST PUSH1 0x0 PUSH2 0x3F22 DUP3 PUSH2 0x2ED1 JUMP JUMPDEST SWAP2 POP PUSH32 0xFFFFFFFFFFFFFFFFFFFFFFFFFFFFFFFFFFFFFFFFFFFFFFFFFFFFFFFFFFFFFFFF DUP3 SUB PUSH2 0x3F54 JUMPI PUSH2 0x3F53 PUSH2 0x3E25 JUMP JUMPDEST JUMPDEST PUSH1 0x1 DUP3 ADD SWAP1 POP SWAP2 SWAP1 POP JUMP JUMPDEST PUSH32 0x4F6E6C792061646D696E2063616E2063616C6C20746869732066756E6374696F PUSH1 0x0 DUP3 ADD MSTORE PUSH32 0x6E00000000000000000000000000000000000000000000000000000000000000 PUSH1 0x20 DUP3 ADD MSTORE POP JUMP JUMPDEST PUSH1 0x0 PUSH2 0x3FBB PUSH1 0x21 DUP4 PUSH2 0x2E28 JUMP JUMPDEST SWAP2 POP PUSH2 0x3FC6 DUP3 PUSH2 0x3F5F JUMP JUMPDEST PUSH1 0x40 DUP3 ADD SWAP1 POP SWAP2 SWAP1 POP JUMP JUMPDEST PUSH1 0x0 PUSH1 0x20 DUP3 ADD SWAP1 POP DUP2 DUP2 SUB PUSH1 0x0 DUP4 ADD MSTORE PUSH2 0x3FEA DUP2 PUSH2 0x3FAE JUMP JUMPDEST SWAP1 POP SWAP2 SWAP1 POP JUMP JUMPDEST PUSH32 0x55706B656570206E6F74206E6565646564000000000000000000000000000000 PUSH1 0x0 DUP3 ADD MSTORE POP JUMP JUMPDEST PUSH1 0x0 PUSH2 0x4027 PUSH1 0x11 DUP4 PUSH2 0x2E28 JUMP JUMPDEST SWAP2 POP PUSH2 0x4032 DUP3 PUSH2 0x3FF1 JUMP JUMPDEST PUSH1 0x20 DUP3 ADD SWAP1 POP SWAP2 SWAP1 POP JUMP JUMPDEST PUSH1 0x0 PUSH1 0x20 DUP3 ADD SWAP1 POP DUP2 DUP2 SUB PUSH1 0x0 DUP4 ADD MSTORE PUSH2 0x4056 DUP2 PUSH2 0x401A JUMP JUMPDEST SWAP1 POP SWAP2 SWAP1 POP JUMP JUMPDEST PUSH1 0x0 PUSH8 0xFFFFFFFFFFFFFFFF DUP3 GT ISZERO PUSH2 0x4078 JUMPI PUSH2 0x4077 PUSH2 0x32E8 JUMP JUMPDEST JUMPDEST PUSH1 0x20 DUP3 MUL SWAP1 POP PUSH1 0x20 DUP2 ADD SWAP1 POP SWAP2 SWAP1 POP JUMP JUMPDEST PUSH1 0x0 PUSH2 0x409C PUSH2 0x4097 DUP5 PUSH2 0x405D JUMP JUMPDEST PUSH2 0x3348 JUMP JUMPDEST SWAP1 POP DUP1 DUP4 DUP3 MSTORE PUSH1 0x20 DUP3 ADD SWAP1 POP PUSH1 0x20 DUP5 MUL DUP4 ADD DUP6 DUP2 GT ISZERO PUSH2 0x40BF JUMPI PUSH2 0x40BE PUSH2 0x3240 JUMP JUMPDEST JUMPDEST DUP4 JUMPDEST DUP2 DUP2 LT ISZERO PUSH2 0x40E8 JUMPI DUP1 PUSH2 0x40D4 DUP9 DUP3 PUSH2 0x31F4 JUMP JUMPDEST DUP5 MSTORE PUSH1 0x20 DUP5 ADD SWAP4 POP POP PUSH1 0x20 DUP2 ADD SWAP1 POP PUSH2 0x40C1 JUMP JUMPDEST POP POP POP SWAP4 SWAP3 POP POP POP JUMP JUMPDEST PUSH1 0x0 DUP3 PUSH1 0x1F DUP4 ADD SLT PUSH2 0x4107 JUMPI PUSH2 0x4106 PUSH2 0x3236 JUMP JUMPDEST JUMPDEST DUP2 CALLDATALOAD PUSH2 0x4117 DUP5 DUP3 PUSH1 0x20 DUP7 ADD PUSH2 0x4089 JUMP JUMPDEST SWAP2 POP POP SWAP3 SWAP2 POP POP JUMP JUMPDEST PUSH1 0x0 PUSH1 0x20 DUP3 DUP5 SUB SLT ISZERO PUSH2 0x4136 JUMPI PUSH2 0x4135 PUSH2 0x317A JUMP JUMPDEST JUMPDEST PUSH1 0x0 DUP3 ADD CALLDATALOAD PUSH8 0xFFFFFFFFFFFFFFFF DUP2 GT ISZERO PUSH2 0x4154 JUMPI PUSH2 0x4153 PUSH2 0x317F JUMP JUMPDEST JUMPDEST PUSH2 0x4160 DUP5 DUP3 DUP6 ADD PUSH2 0x40F2 JUMP JUMPDEST SWAP2 POP POP SWAP3 SWAP2 POP POP JUMP JUMPDEST PUSH32 0x4D69736D6174636820696E2070726F647563742049447320616E64207175616E PUSH1 0x0 DUP3 ADD MSTORE PUSH32 0x746974696573206C656E67746800000000000000000000000000000000000000 PUSH1 0x20 DUP3 ADD MSTORE POP JUMP JUMPDEST PUSH1 0x0 PUSH2 0x41C5 PUSH1 0x2D DUP4 PUSH2 0x2E28 JUMP JUMPDEST SWAP2 POP PUSH2 0x41D0 DUP3 PUSH2 0x4169 JUMP JUMPDEST PUSH1 0x40 DUP3 ADD SWAP1 POP SWAP2 SWAP1 POP JUMP JUMPDEST PUSH1 0x0 PUSH1 0x20 DUP3 ADD SWAP1 POP DUP2 DUP2 SUB PUSH1 0x0 DUP4 ADD MSTORE PUSH2 0x41F4 DUP2 PUSH2 0x41B8 JUMP JUMPDEST SWAP1 POP SWAP2 SWAP1 POP JUMP JUMPDEST PUSH1 0x0 PUSH2 0x4206 DUP3 PUSH2 0x2ED1 JUMP JUMPDEST SWAP2 POP PUSH2 0x4211 DUP4 PUSH2 0x2ED1 JUMP JUMPDEST SWAP3 POP DUP3 DUP3 MUL PUSH2 0x421F DUP2 PUSH2 0x2ED1 JUMP JUMPDEST SWAP2 POP DUP3 DUP3 DIV DUP5 EQ DUP4 ISZERO OR PUSH2 0x4236 JUMPI PUSH2 0x4235 PUSH2 0x3E25 JUMP JUMPDEST JUMPDEST POP SWAP3 SWAP2 POP POP JUMP JUMPDEST PUSH32 0x4E487B7100000000000000000000000000000000000000000000000000000000 PUSH1 0x0 MSTORE PUSH1 0x12 PUSH1 0x4 MSTORE PUSH1 0x24 PUSH1 0x0 REVERT JUMPDEST PUSH1 0x0 PUSH2 0x4277 DUP3 PUSH2 0x2ED1 JUMP JUMPDEST SWAP2 POP PUSH2 0x4282 DUP4 PUSH2 0x2ED1 JUMP JUMPDEST SWAP3 POP DUP3 PUSH2 0x4292 JUMPI PUSH2 0x4291 PUSH2 0x423D JUMP JUMPDEST JUMPDEST DUP3 DUP3 DIV SWAP1 POP SWAP3 SWAP2 POP POP JUMP JUMPDEST PUSH32 0x496E636F7272656374204D415449432073656E74000000000000000000000000 PUSH1 0x0 DUP3 ADD MSTORE POP JUMP JUMPDEST PUSH1 0x0 PUSH2 0x42D3 PUSH1 0x14 DUP4 PUSH2 0x2E28 JUMP JUMPDEST SWAP2 POP PUSH2 0x42DE DUP3 PUSH2 0x429D JUMP JUMPDEST PUSH1 0x20 DUP3 ADD SWAP1 POP SWAP2 SWAP1 POP JUMP JUMPDEST PUSH1 0x0 PUSH1 0x20 DUP3 ADD SWAP1 POP DUP2 DUP2 SUB PUSH1 0x0 DUP4 ADD MSTORE PUSH2 0x4302 DUP2 PUSH2 0x42C6 JUMP JUMPDEST SWAP1 POP SWAP2 SWAP1 POP JUMP JUMPDEST PUSH1 0x0 PUSH1 0x60 DUP3 ADD SWAP1 POP PUSH2 0x431E PUSH1 0x0 DUP4 ADD DUP7 PUSH2 0x35F0 JUMP JUMPDEST PUSH2 0x432B PUSH1 0x20 DUP4 ADD DUP6 PUSH2 0x35F0 JUMP JUMPDEST PUSH2 0x4338 PUSH1 0x40 DUP4 ADD DUP5 PUSH2 0x3146 JUMP JUMPDEST SWAP5 SWAP4 POP POP POP POP JUMP JUMPDEST PUSH32 0x52657761726420506F696E7473207472616E73666572206661696C6564000000 PUSH1 0x0 DUP3 ADD MSTORE POP JUMP JUMPDEST PUSH1 0x0 PUSH2 0x4376 PUSH1 0x1D DUP4 PUSH2 0x2E28 JUMP JUMPDEST SWAP2 POP PUSH2 0x4381 DUP3 PUSH2 0x4340 JUMP JUMPDEST PUSH1 0x20 DUP3 ADD SWAP1 POP SWAP2 SWAP1 POP JUMP JUMPDEST PUSH1 0x0 PUSH1 0x20 DUP3 ADD SWAP1 POP DUP2 DUP2 SUB PUSH1 0x0 DUP4 ADD MSTORE PUSH2 0x43A5 DUP2 PUSH2 0x4369 JUMP JUMPDEST SWAP1 POP SWAP2 SWAP1 POP JUMP JUMPDEST PUSH32 0x4C6F79616C747920546F6B656E207472616E73666572206661696C6564000000 PUSH1 0x0 DUP3 ADD MSTORE POP JUMP JUMPDEST PUSH1 0x0 PUSH2 0x43E2 PUSH1 0x1D DUP4 PUSH2 0x2E28 JUMP JUMPDEST SWAP2 POP PUSH2 0x43ED DUP3 PUSH2 0x43AC JUMP JUMPDEST PUSH1 0x20 DUP3 ADD SWAP1 POP SWAP2 SWAP1 POP JUMP JUMPDEST PUSH1 0x0 PUSH1 0x20 DUP3 ADD SWAP1 POP DUP2 DUP2 SUB PUSH1 0x0 DUP4 ADD MSTORE PUSH2 0x4411 DUP2 PUSH2 0x43D5 JUMP JUMPDEST SWAP1 POP SWAP2 SWAP1 POP JUMP JUMPDEST PUSH32 0x5573657220616C72656164792072656769737465726564000000000000000000 PUSH1 0x0 DUP3 ADD MSTORE POP JUMP JUMPDEST PUSH1 0x0 PUSH2 0x444E PUSH1 0x17 DUP4 PUSH2 0x2E28 JUMP JUMPDEST SWAP2 POP PUSH2 0x4459 DUP3 PUSH2 0x4418 JUMP JUMPDEST PUSH1 0x20 DUP3 ADD SWAP1 POP SWAP2 SWAP1 POP JUMP JUMPDEST PUSH1 0x0 PUSH1 0x20 DUP3 ADD SWAP1 POP DUP2 DUP2 SUB PUSH1 0x0 DUP4 ADD MSTORE PUSH2 0x447D DUP2 PUSH2 0x4441 JUMP JUMPDEST SWAP1 POP SWAP2 SWAP1 POP JUMP JUMPDEST PUSH32 0x53656C6C657220616C7265616479207265676973746572656400000000000000 PUSH1 0x0 DUP3 ADD MSTORE POP JUMP JUMPDEST PUSH1 0x0 PUSH2 0x44BA PUSH1 0x19 DUP4 PUSH2 0x2E28 JUMP JUMPDEST SWAP2 POP PUSH2 0x44C5 DUP3 PUSH2 0x4484 JUMP JUMPDEST PUSH1 0x20 DUP3 ADD SWAP1 POP SWAP2 SWAP1 POP JUMP JUMPDEST PUSH1 0x0 PUSH1 0x20 DUP3 ADD SWAP1 POP DUP2 DUP2 SUB PUSH1 0x0 DUP4 ADD MSTORE PUSH2 0x44E9 DUP2 PUSH2 0x44AD JUMP JUMPDEST SWAP1 POP SWAP2 SWAP1 POP JUMP JUMPDEST PUSH1 0x0 PUSH2 0x44FB DUP3 PUSH2 0x2ED1 JUMP JUMPDEST SWAP2 POP PUSH2 0x4506 DUP4 PUSH2 0x2ED1 JUMP JUMPDEST SWAP3 POP DUP3 DUP3 ADD SWAP1 POP DUP1 DUP3 GT ISZERO PUSH2 0x451E JUMPI PUSH2 0x451D PUSH2 0x3E25 JUMP JUMPDEST JUMPDEST SWAP3 SWAP2 POP POP JUMP JUMPDEST PUSH32 0x4F6E6C792073656C6C6572732063616E2063616C6C20746869732066756E6374 PUSH1 0x0 DUP3 ADD MSTORE PUSH32 0x696F6E0000000000000000000000000000000000000000000000000000000000 PUSH1 0x20 DUP3 ADD MSTORE POP JUMP JUMPDEST PUSH1 0x0 PUSH2 0x4580 PUSH1 0x23 DUP4 PUSH2 0x2E28 JUMP JUMPDEST SWAP2 POP PUSH2 0x458B DUP3 PUSH2 0x4524 JUMP JUMPDEST PUSH1 0x40 DUP3 ADD SWAP1 POP SWAP2 SWAP1 POP JUMP JUMPDEST PUSH1 0x0 PUSH1 0x20 DUP3 ADD SWAP1 POP DUP2 DUP2 SUB PUSH1 0x0 DUP4 ADD MSTORE PUSH2 0x45AF DUP2 PUSH2 0x4573 JUMP JUMPDEST SWAP1 POP SWAP2 SWAP1 POP JUMP JUMPDEST PUSH1 0x0 DUP2 SWAP1 POP DUP2 PUSH1 0x0 MSTORE PUSH1 0x20 PUSH1 0x0 KECCAK256 SWAP1 POP SWAP2 SWAP1 POP JUMP JUMPDEST PUSH1 0x0 PUSH1 0x20 PUSH1 0x1F DUP4 ADD DIV SWAP1 POP SWAP2 SWAP1 POP JUMP JUMPDEST PUSH1 0x0 DUP3 DUP3 SHL SWAP1 POP SWAP3 SWAP2 POP POP JUMP JUMPDEST PUSH1 0x0 PUSH1 0x8 DUP4 MUL PUSH2 0x4618 PUSH32 0xFFFFFFFFFFFFFFFFFFFFFFFFFFFFFFFFFFFFFFFFFFFFFFFFFFFFFFFFFFFFFFFF DUP3 PUSH2 0x45DB JUMP JUMPDEST PUSH2 0x4622 DUP7 DUP4 PUSH2 0x45DB JUMP JUMPDEST SWAP6 POP DUP1 NOT DUP5 AND SWAP4 POP DUP1 DUP7 AND DUP5 OR SWAP3 POP POP POP SWAP4 SWAP3 POP POP POP JUMP JUMPDEST PUSH1 0x0 PUSH2 0x4655 PUSH2 0x4650 PUSH2 0x464B DUP5 PUSH2 0x2ED1 JUMP JUMPDEST PUSH2 0x37AC JUMP JUMPDEST PUSH2 0x2ED1 JUMP JUMPDEST SWAP1 POP SWAP2 SWAP1 POP JUMP JUMPDEST PUSH1 0x0 DUP2 SWAP1 POP SWAP2 SWAP1 POP JUMP JUMPDEST PUSH2 0x466F DUP4 PUSH2 0x463A JUMP JUMPDEST PUSH2 0x4683 PUSH2 0x467B DUP3 PUSH2 0x465C JUMP JUMPDEST DUP5 DUP5 SLOAD PUSH2 0x45E8 JUMP JUMPDEST DUP3 SSTORE POP POP POP POP JUMP JUMPDEST PUSH1 0x0 SWAP1 JUMP JUMPDEST PUSH2 0x4698 PUSH2 0x468B JUMP JUMPDEST PUSH2 0x46A3 DUP2 DUP5 DUP5 PUSH2 0x4666 JUMP JUMPDEST POP POP POP JUMP JUMPDEST JUMPDEST DUP2 DUP2 LT ISZERO PUSH2 0x46C7 JUMPI PUSH2 0x46BC PUSH1 0x0 DUP3 PUSH2 0x4690 JUMP JUMPDEST PUSH1 0x1 DUP2 ADD SWAP1 POP PUSH2 0x46A9 JUMP JUMPDEST POP POP JUMP JUMPDEST PUSH1 0x1F DUP3 GT ISZERO PUSH2 0x470C JUMPI PUSH2 0x46DD DUP2 PUSH2 0x45B6 JUMP JUMPDEST PUSH2 0x46E6 DUP5 PUSH2 0x45CB JUMP JUMPDEST DUP2 ADD PUSH1 0x20 DUP6 LT ISZERO PUSH2 0x46F5 JUMPI DUP2 SWAP1 POP JUMPDEST PUSH2 0x4709 PUSH2 0x4701 DUP6 PUSH2 0x45CB JUMP JUMPDEST DUP4 ADD DUP3 PUSH2 0x46A8 JUMP JUMPDEST POP POP JUMPDEST POP POP POP JUMP JUMPDEST PUSH1 0x0 DUP3 DUP3 SHR SWAP1 POP SWAP3 SWAP2 POP POP JUMP JUMPDEST PUSH1 0x0 PUSH2 0x472F PUSH1 0x0 NOT DUP5 PUSH1 0x8 MUL PUSH2 0x4711 JUMP JUMPDEST NOT DUP1 DUP4 AND SWAP2 POP POP SWAP3 SWAP2 POP POP JUMP JUMPDEST PUSH1 0x0 PUSH2 0x4748 DUP4 DUP4 PUSH2 0x471E JUMP JUMPDEST SWAP2 POP DUP3 PUSH1 0x2 MUL DUP3 OR SWAP1 POP SWAP3 SWAP2 POP POP JUMP JUMPDEST PUSH2 0x4761 DUP3 PUSH2 0x2EEA JUMP JUMPDEST PUSH8 0xFFFFFFFFFFFFFFFF DUP2 GT ISZERO PUSH2 0x477A JUMPI PUSH2 0x4779 PUSH2 0x32E8 JUMP JUMPDEST JUMPDEST PUSH2 0x4784 DUP3 SLOAD PUSH2 0x3EB7 JUMP JUMPDEST PUSH2 0x478F DUP3 DUP3 DUP6 PUSH2 0x46CB JUMP JUMPDEST PUSH1 0x0 PUSH1 0x20 SWAP1 POP PUSH1 0x1F DUP4 GT PUSH1 0x1 DUP2 EQ PUSH2 0x47C2 JUMPI PUSH1 0x0 DUP5 ISZERO PUSH2 0x47B0 JUMPI DUP3 DUP8 ADD MLOAD SWAP1 POP JUMPDEST PUSH2 0x47BA DUP6 DUP3 PUSH2 0x473C JUMP JUMPDEST DUP7 SSTORE POP PUSH2 0x4822 JUMP JUMPDEST PUSH1 0x1F NOT DUP5 AND PUSH2 0x47D0 DUP7 PUSH2 0x45B6 JUMP JUMPDEST PUSH1 0x0 JUMPDEST DUP3 DUP2 LT ISZERO PUSH2 0x47F8 JUMPI DUP5 DUP10 ADD MLOAD DUP3 SSTORE PUSH1 0x1 DUP3 ADD SWAP2 POP PUSH1 0x20 DUP6 ADD SWAP5 POP PUSH1 0x20 DUP2 ADD SWAP1 POP PUSH2 0x47D3 JUMP JUMPDEST DUP7 DUP4 LT ISZERO PUSH2 0x4815 JUMPI DUP5 DUP10 ADD MLOAD PUSH2 0x4811 PUSH1 0x1F DUP10 AND DUP3 PUSH2 0x471E JUMP JUMPDEST DUP4 SSTORE POP JUMPDEST PUSH1 0x1 PUSH1 0x2 DUP9 MUL ADD DUP9 SSTORE POP POP POP JUMPDEST POP POP POP POP POP POP JUMP JUMPDEST PUSH1 0x0 PUSH1 0x40 DUP3 ADD SWAP1 POP DUP2 DUP2 SUB PUSH1 0x0 DUP4 ADD MSTORE PUSH2 0x4844 DUP2 DUP6 PUSH2 0x3826 JUMP JUMPDEST SWAP1 POP PUSH2 0x4853 PUSH1 0x20 DUP4 ADD DUP5 PUSH2 0x3146 JUMP JUMPDEST SWAP4 SWAP3 POP POP POP JUMP JUMPDEST PUSH32 0x416D6F756E742073686F756C642062652067726561746572207468616E203000 PUSH1 0x0 DUP3 ADD MSTORE POP JUMP JUMPDEST PUSH1 0x0 PUSH2 0x4890 PUSH1 0x1F DUP4 PUSH2 0x2E28 JUMP JUMPDEST SWAP2 POP PUSH2 0x489B DUP3 PUSH2 0x485A JUMP JUMPDEST PUSH1 0x20 DUP3 ADD SWAP1 POP SWAP2 SWAP1 POP JUMP JUMPDEST PUSH1 0x0 PUSH1 0x20 DUP3 ADD SWAP1 POP DUP2 DUP2 SUB PUSH1 0x0 DUP4 ADD MSTORE PUSH2 0x48BF DUP2 PUSH2 0x4883 JUMP JUMPDEST SWAP1 POP SWAP2 SWAP1 POP JUMP INVALID LOG2 PUSH5 0x6970667358 0x22 SLT KECCAK256 CALLCODE DUP11 0x4A 0xDB 0xEC CREATE2 SSTORE PUSH27 0x49839A8B37FCDAD8AB8686B04D2932B4A7DE2B8DC30D51B464736F PUSH13 0x63430008130033000000000000 "},"methodIdentifiers":{"COMMISSION()":"562df3d5","RATE()":"664e9704","addProduct(string,string,uint256,uint256,uint256,uint256,string)":"b656638b","admin()":"f851a440","checkUpkeep(bytes)":"6e04ff0d","exchangeLRTForMATIC(uint256)":"ffa8efc9","exchangeMATICForLRT()":"33ff7bbd","getAllProducts()":"02ee3a52","getLeaderBoard()":"c29d72bc","interval()":"947a36fb","lastTimestamp()":"19d8ac61","leaderboard(uint256)":"bf368399","loyaltyToken()":"770aa84d","nextOrderId()":"2a58b330","nextProductId()":"4de91a63","orders(uint256)":"a85c38ef","performUpkeep(bytes)":"4585e33b","products(uint256)":"7acc0b20","purchaseProducts(uint256[],uint256[],bool[],uint256,uint256)":"45a38293","registerSeller()":"52c9224c","registerUser()":"4d3820eb","sellers(address)":"6d47ab72","setLRTToken(address)":"42df2b1d","users(address)":"a87430ba","withdrawMATIC(uint256)":"816837e3","withdrawTokens(uint256)":"315a095d"}}}}}