{"contracts/Loyalty.sol":{"ECommerceLoyalty":{"abi":[{"inputs":[{"internalType":"address","name":"_loyaltyTokenAddress","type":"address"},{"internalType":"uint256","name":"_interval","type":"uint256"}],"stateMutability":"nonpayable","type":"constructor"},{"anonymous":false,"inputs":[{"indexed":true,"internalType":"address","name":"sellerAddress","type":"address"},{"indexed":false,"internalType":"uint256","name":"lrtAmount","type":"uint256"},{"indexed":false,"internalType":"uint256","name":"maticAmount","type":"uint256"}],"name":"LRTExchangedForMATIC","type":"event"},{"anonymous":false,"inputs":[{"indexed":true,"internalType":"address","name":"admin","type":"address"},{"indexed":false,"internalType":"address","name":"newLRTTokenAddress","type":"address"}],"name":"LRTTokenAddressUpdated","type":"event"},{"anonymous":false,"inputs":[{"indexed":true,"internalType":"address","name":"sellerAddress","type":"address"},{"indexed":false,"internalType":"uint256","name":"maticAmount","type":"uint256"},{"indexed":false,"internalType":"uint256","name":"lrtAmount","type":"uint256"}],"name":"MATICExchangedForLRT","type":"event"},{"anonymous":false,"inputs":[{"indexed":true,"internalType":"address","name":"admin","type":"address"},{"indexed":false,"internalType":"uint256","name":"amount","type":"uint256"}],"name":"MATICWithdrawn","type":"event"},{"anonymous":false,"inputs":[{"indexed":true,"internalType":"address","name":"buyerAddress","type":"address"},{"indexed":false,"internalType":"uint256","name":"pointsEarned","type":"uint256"}],"name":"PointsEarned","type":"event"},{"anonymous":false,"inputs":[{"indexed":true,"internalType":"uint256","name":"productId","type":"uint256"},{"indexed":true,"internalType":"address","name":"sellerAddress","type":"address"},{"indexed":false,"internalType":"string","name":"name","type":"string"},{"indexed":false,"internalType":"uint256","name":"price","type":"uint256"}],"name":"ProductAdded","type":"event"},{"anonymous":false,"inputs":[{"indexed":true,"internalType":"uint256","name":"orderId","type":"uint256"},{"indexed":true,"internalType":"address","name":"buyerAddress","type":"address"},{"indexed":true,"internalType":"uint256","name":"productId","type":"uint256"},{"indexed":false,"internalType":"uint256","name":"quantity","type":"uint256"}],"name":"ProductPurchased","type":"event"},{"anonymous":false,"inputs":[{"indexed":true,"internalType":"address","name":"sellerAddress","type":"address"}],"name":"SellerRegistered","type":"event"},{"anonymous":false,"inputs":[{"indexed":true,"internalType":"address","name":"admin","type":"address"},{"indexed":false,"internalType":"uint256","name":"amount","type":"uint256"}],"name":"TokensWithdrawn","type":"event"},{"anonymous":false,"inputs":[{"indexed":true,"internalType":"address","name":"userAddress","type":"address"}],"name":"UserRegistered","type":"event"},{"stateMutability":"payable","type":"fallback"},{"inputs":[],"name":"COMMISSION","outputs":[{"internalType":"uint256","name":"","type":"uint256"}],"stateMutability":"view","type":"function"},{"inputs":[],"name":"RATE","outputs":[{"internalType":"uint256","name":"","type":"uint256"}],"stateMutability":"view","type":"function"},{"inputs":[],"name":"SELLER_CAP","outputs":[{"internalType":"uint256","name":"","type":"uint256"}],"stateMutability":"view","type":"function"},{"inputs":[{"internalType":"string","name":"name","type":"string"},{"internalType":"string","name":"_description","type":"string"},{"internalType":"uint256","name":"_quantity","type":"uint256"},{"internalType":"uint256","name":"_price","type":"uint256"},{"internalType":"uint256","name":"_rewardPoints","type":"uint256"},{"internalType":"uint256","name":"loyaltyTokensAccepted","type":"uint256"},{"internalType":"string","name":"_imageURI","type":"string"}],"name":"addProduct","outputs":[],"stateMutability":"nonpayable","type":"function"},{"inputs":[],"name":"admin","outputs":[{"internalType":"address","name":"","type":"address"}],"stateMutability":"view","type":"function"},{"inputs":[{"internalType":"bytes","name":"","type":"bytes"}],"name":"checkUpkeep","outputs":[{"internalType":"bool","name":"upkeepNeeded","type":"bool"},{"internalType":"bytes","name":"performData","type":"bytes"}],"stateMutability":"view","type":"function"},{"inputs":[{"internalType":"uint256","name":"lrtAmount","type":"uint256"}],"name":"exchangeLRTForMATIC","outputs":[],"stateMutability":"nonpayable","type":"function"},{"inputs":[],"name":"exchangeMATICForLRT","outputs":[],"stateMutability":"payable","type":"function"},{"inputs":[],"name":"getAllProducts","outputs":[{"components":[{"internalType":"uint256","name":"productId","type":"uint256"},{"internalType":"string","name":"name","type":"string"},{"internalType":"string","name":"description","type":"string"},{"internalType":"uint256","name":"quantity","type":"uint256"},{"internalType":"address","name":"sellerAddress","type":"address"},{"internalType":"uint256","name":"price","type":"uint256"},{"internalType":"uint256","name":"rewardPoints","type":"uint256"},{"internalType":"uint256","name":"loyaltyTokensAccepted","type":"uint256"},{"internalType":"string","name":"imageURI","type":"string"}],"internalType":"struct ECommerceLoyalty.Product[]","name":"","type":"tuple[]"}],"stateMutability":"view","type":"function"},{"inputs":[],"name":"getLeaderBoard","outputs":[{"internalType":"address[]","name":"","type":"address[]"}],"stateMutability":"view","type":"function"},{"inputs":[],"name":"interval","outputs":[{"internalType":"uint256","name":"","type":"uint256"}],"stateMutability":"view","type":"function"},{"inputs":[{"internalType":"address","name":"to","type":"address"},{"internalType":"uint256","name":"amount","type":"uint256"}],"name":"issueTokens","outputs":[],"stateMutability":"nonpayable","type":"function"},{"inputs":[{"internalType":"address","name":"to","type":"address"},{"internalType":"uint256","name":"amount","type":"uint256"}],"name":"issueTokensBySeller","outputs":[],"stateMutability":"nonpayable","type":"function"},{"inputs":[{"internalType":"address","name":"","type":"address"}],"name":"lastIssuedMonth","outputs":[{"internalType":"uint256","name":"","type":"uint256"}],"stateMutability":"view","type":"function"},{"inputs":[],"name":"lastTimestamp","outputs":[{"internalType":"uint256","name":"","type":"uint256"}],"stateMutability":"view","type":"function"},{"inputs":[{"internalType":"uint256","name":"","type":"uint256"}],"name":"leaderboard","outputs":[{"internalType":"address","name":"","type":"address"}],"stateMutability":"view","type":"function"},{"inputs":[],"name":"loyaltyToken","outputs":[{"internalType":"contract IERC20","name":"","type":"address"}],"stateMutability":"view","type":"function"},{"inputs":[{"internalType":"address","name":"","type":"address"}],"name":"monthlyIssuedBySeller","outputs":[{"internalType":"uint256","name":"","type":"uint256"}],"stateMutability":"view","type":"function"},{"inputs":[],"name":"nextOrderId","outputs":[{"internalType":"uint256","name":"","type":"uint256"}],"stateMutability":"view","type":"function"},{"inputs":[],"name":"nextProductId","outputs":[{"internalType":"uint256","name":"","type":"uint256"}],"stateMutability":"view","type":"function"},{"inputs":[{"internalType":"uint256","name":"","type":"uint256"}],"name":"orders","outputs":[{"internalType":"uint256","name":"orderId","type":"uint256"},{"internalType":"address","name":"buyerAddress","type":"address"},{"internalType":"uint256","name":"productId","type":"uint256"},{"internalType":"uint256","name":"quantity","type":"uint256"}],"stateMutability":"view","type":"function"},{"inputs":[{"internalType":"bytes","name":"performData","type":"bytes"}],"name":"performUpkeep","outputs":[],"stateMutability":"nonpayable","type":"function"},{"inputs":[{"internalType":"uint256","name":"","type":"uint256"}],"name":"products","outputs":[{"internalType":"uint256","name":"productId","type":"uint256"},{"internalType":"string","name":"name","type":"string"},{"internalType":"string","name":"description","type":"string"},{"internalType":"uint256","name":"quantity","type":"uint256"},{"internalType":"address","name":"sellerAddress","type":"address"},{"internalType":"uint256","name":"price","type":"uint256"},{"internalType":"uint256","name":"rewardPoints","type":"uint256"},{"internalType":"uint256","name":"loyaltyTokensAccepted","type":"uint256"},{"internalType":"string","name":"imageURI","type":"string"}],"stateMutability":"view","type":"function"},{"inputs":[{"internalType":"uint256[]","name":"_productIds","type":"uint256[]"},{"internalType":"uint256[]","name":"_quantities","type":"uint256[]"},{"internalType":"bool[]","name":"_fullPaymentInMatic","type":"bool[]"},{"internalType":"uint256","name":"totalCost","type":"uint256"},{"internalType":"uint256","name":"totalLoyaltyTokensUsed","type":"uint256"}],"name":"purchaseProducts","outputs":[],"stateMutability":"payable","type":"function"},{"inputs":[],"name":"registerSeller","outputs":[],"stateMutability":"nonpayable","type":"function"},{"inputs":[],"name":"registerUser","outputs":[],"stateMutability":"nonpayable","type":"function"},{"inputs":[{"internalType":"address","name":"","type":"address"}],"name":"sellers","outputs":[{"internalType":"address","name":"sellerAddress","type":"address"}],"stateMutability":"view","type":"function"},{"inputs":[{"internalType":"address","name":"_lrtToken","type":"address"}],"name":"setLRTToken","outputs":[],"stateMutability":"nonpayable","type":"function"},{"inputs":[{"internalType":"address","name":"","type":"address"}],"name":"users","outputs":[{"internalType":"address","name":"userAddress","type":"address"},{"internalType":"uint256","name":"loyaltyPoints","type":"uint256"},{"internalType":"uint256","name":"points","type":"uint256"}],"stateMutability":"view","type":"function"},{"inputs":[{"internalType":"uint256","name":"amount","type":"uint256"}],"name":"withdrawMATIC","outputs":[],"stateMutability":"nonpayable","type":"function"},{"inputs":[{"internalType":"uint256","name":"amount","type":"uint256"}],"name":"withdrawTokens","outputs":[],"stateMutability":"nonpayable","type":"function"},{"stateMutability":"payable","type":"receive"}],"evm":{"bytecode":{"linkReferences":{},"object":"60a0604052600160085560016009553480156200001b57600080fd5b50604051620054b8380380620054b883398181016040528101906200004191906200017e565b336000806101000a81548173ffffffffffffffffffffffffffffffffffffffff021916908373ffffffffffffffffffffffffffffffffffffffff16021790555081600160006101000a81548173ffffffffffffffffffffffffffffffffffffffff021916908373ffffffffffffffffffffffffffffffffffffffff1602179055508060808181525050426002819055505050620001c5565b600080fd5b600073ffffffffffffffffffffffffffffffffffffffff82169050919050565b60006200010b82620000de565b9050919050565b6200011d81620000fe565b81146200012957600080fd5b50565b6000815190506200013d8162000112565b92915050565b6000819050919050565b620001588162000143565b81146200016457600080fd5b50565b60008151905062000178816200014d565b92915050565b60008060408385031215620001985762000197620000d9565b5b6000620001a8858286016200012c565b9250506020620001bb8582860162000167565b9150509250929050565b6080516152d0620001e86000396000818161217d015261298801526152d06000f3fe6080604052600436106101dc5760003560e01c80636e04ff0d11610102578063bf36839911610095578063f6356b3011610064578063f6356b30146106e9578063f851a44014610712578063fddbe9a81461073d578063ffa8efc914610768576101eb565b8063bf36839914610607578063c29d72bc14610644578063c2bd67e21461066f578063d365cf6b146106ac576101eb565b8063947a36fb116100d1578063947a36fb14610534578063a85c38ef1461055f578063a87430ba1461059f578063b656638b146105de576101eb565b80636e04ff0d1461045d578063770aa84d1461049b5780637acc0b20146104c6578063816837e31461050b576101eb565b806345a382931161017a57806352c9224c1161014957806352c9224c146103b3578063562df3d5146103ca578063664e9704146103f55780636d47ab7214610420576101eb565b806345a382931461032c578063475a9fa9146103485780634d3820eb146103715780634de91a6314610388576101eb565b8063315a095d116101b6578063315a095d146102a757806333ff7bbd146102d057806342df2b1d146102da5780634585e33b14610303576101eb565b806302ee3a521461022657806319d8ac61146102515780632a58b3301461027c576101eb565b366101eb576101e9610791565b005b6040517f08c379a000000000000000000000000000000000000000000000000000000000815260040161021d906136d5565b60405180910390fd5b34801561023257600080fd5b5061023b610a03565b6040516102489190613974565b60405180910390f35b34801561025d57600080fd5b50610266610d1e565b60405161027391906139a5565b60405180910390f35b34801561028857600080fd5b50610291610d24565b60405161029e91906139a5565b60405180910390f35b3480156102b357600080fd5b506102ce60048036038101906102c99190613a00565b610d2a565b005b6102d8610791565b005b3480156102e657600080fd5b5061030160048036038101906102fc9190613a59565b610eca565b005b34801561030f57600080fd5b5061032a60048036038101906103259190613aeb565b610fea565b005b61034660048036038101906103419190613d71565b61107e565b005b34801561035457600080fd5b5061036f600480360381019061036a9190613e40565b611a8d565b005b34801561037d57600080fd5b50610386611c9e565b005b34801561039457600080fd5b5061039d611ef0565b6040516103aa91906139a5565b60405180910390f35b3480156103bf57600080fd5b506103c8611ef6565b005b3480156103d657600080fd5b506103df612126565b6040516103ec91906139a5565b60405180910390f35b34801561040157600080fd5b5061040a61212b565b60405161041791906139a5565b60405180910390f35b34801561042c57600080fd5b5061044760048036038101906104429190613a59565b612137565b6040516104549190613e8f565b60405180910390f35b34801561046957600080fd5b50610484600480360381019061047f9190613f5f565b612175565b60405161049292919061400c565b60405180910390f35b3480156104a757600080fd5b506104b0612614565b6040516104bd919061409b565b60405180910390f35b3480156104d257600080fd5b506104ed60048036038101906104e89190613a00565b61263a565b604051610502999897969594939291906140ef565b60405180910390f35b34801561051757600080fd5b50610532600480360381019061052d9190613a00565b612840565b005b34801561054057600080fd5b50610549612986565b60405161055691906139a5565b60405180910390f35b34801561056b57600080fd5b5061058660048036038101906105819190613a00565b6129aa565b6040516105969493929190614191565b60405180910390f35b3480156105ab57600080fd5b506105c660048036038101906105c19190613a59565b6129fa565b6040516105d5939291906141d6565b60405180910390f35b3480156105ea57600080fd5b50610605600480360381019061060091906142ae565b612a44565b005b34801561061357600080fd5b5061062e60048036038101906106299190613a00565b612d20565b60405161063b9190613e8f565b60405180910390f35b34801561065057600080fd5b50610659612d5f565b6040516106669190614453565b60405180910390f35b34801561067b57600080fd5b5061069660048036038101906106919190613a59565b612ded565b6040516106a391906139a5565b60405180910390f35b3480156106b857600080fd5b506106d360048036038101906106ce9190613a59565b612e05565b6040516106e091906139a5565b60405180910390f35b3480156106f557600080fd5b50610710600480360381019061070b9190613e40565b612e1d565b005b34801561071e57600080fd5b506107276132d0565b6040516107349190613e8f565b60405180910390f35b34801561074957600080fd5b506107526132f4565b60405161075f91906139a5565b60405180910390f35b34801561077457600080fd5b5061078f600480360381019061078a9190613a00565b613302565b005b600034116107d4576040517f08c379a00000000000000000000000000000000000000000000000000000000081526004016107cb906144e7565b60405180910390fd5b60006107f1670de0b6b3a7640000346134e090919063ffffffff16565b905080600160009054906101000a900473ffffffffffffffffffffffffffffffffffffffff1673ffffffffffffffffffffffffffffffffffffffff166370a08231306040518263ffffffff1660e01b815260040161084f9190613e8f565b602060405180830381865afa15801561086c573d6000803e3d6000fd5b505050506040513d601f19601f82011682018060405250810190610890919061451c565b10156108d1576040517f08c379a00000000000000000000000000000000000000000000000000000000081526004016108c890614595565b60405180910390fd5b600160009054906101000a900473ffffffffffffffffffffffffffffffffffffffff1673ffffffffffffffffffffffffffffffffffffffff1663a9059cbb33836040518363ffffffff1660e01b815260040161092e9291906145b5565b6020604051808303816000875af115801561094d573d6000803e3d6000fd5b505050506040513d601f19601f8201168201806040525081019061097191906145f3565b6109b0576040517f08c379a00000000000000000000000000000000000000000000000000000000081526004016109a79061466c565b60405180910390fd5b3373ffffffffffffffffffffffffffffffffffffffff167f95db8762f4600873df8fdbc44f0e34fa831e5cc7396f3dda3a5cd0825acd5bdb34836040516109f892919061468c565b60405180910390a250565b606060006001600854610a1691906146e4565b67ffffffffffffffff811115610a2f57610a2e613b38565b5b604051908082528060200260200182016040528015610a6857816020015b610a55613522565b815260200190600190039081610a4d5790505b5090506000600190505b600854811015610d1657600660008281526020019081526020016000206040518061012001604052908160008201548152602001600182018054610ab590614747565b80601f0160208091040260200160405190810160405280929190818152602001828054610ae190614747565b8015610b2e5780601f10610b0357610100808354040283529160200191610b2e565b820191906000526020600020905b815481529060010190602001808311610b1157829003601f168201915b50505050508152602001600282018054610b4790614747565b80601f0160208091040260200160405190810160405280929190818152602001828054610b7390614747565b8015610bc05780601f10610b9557610100808354040283529160200191610bc0565b820191906000526020600020905b815481529060010190602001808311610ba357829003601f168201915b50505050508152602001600382015481526020016004820160009054906101000a900473ffffffffffffffffffffffffffffffffffffffff1673ffffffffffffffffffffffffffffffffffffffff1673ffffffffffffffffffffffffffffffffffffffff168152602001600582015481526020016006820154815260200160078201548152602001600882018054610c5790614747565b80601f0160208091040260200160405190810160405280929190818152602001828054610c8390614747565b8015610cd05780601f10610ca557610100808354040283529160200191610cd0565b820191906000526020600020905b815481529060010190602001808311610cb357829003601f168201915b50505050508152505082600183610ce791906146e4565b81518110610cf857610cf7614778565b5b60200260200101819052508080610d0e906147a7565b915050610a72565b508091505090565b60025481565b60095481565b60008054906101000a900473ffffffffffffffffffffffffffffffffffffffff1673ffffffffffffffffffffffffffffffffffffffff163373ffffffffffffffffffffffffffffffffffffffff1614610db8576040517f08c379a0000000000000000000000000000000000000000000000000000000008152600401610daf90614861565b60405180910390fd5b600160009054906101000a900473ffffffffffffffffffffffffffffffffffffffff1673ffffffffffffffffffffffffffffffffffffffff1663a9059cbb60008054906101000a900473ffffffffffffffffffffffffffffffffffffffff16836040518363ffffffff1660e01b8152600401610e359291906145b5565b6020604051808303816000875af1158015610e54573d6000803e3d6000fd5b505050506040513d601f19601f82011682018060405250810190610e7891906145f3565b503373ffffffffffffffffffffffffffffffffffffffff167f6352c5382c4a4578e712449ca65e83cdb392d045dfcf1cad9615189db2da244b82604051610ebf91906139a5565b60405180910390a250565b60008054906101000a900473ffffffffffffffffffffffffffffffffffffffff1673ffffffffffffffffffffffffffffffffffffffff163373ffffffffffffffffffffffffffffffffffffffff1614610f58576040517f08c379a0000000000000000000000000000000000000000000000000000000008152600401610f4f90614861565b60405180910390fd5b80600160006101000a81548173ffffffffffffffffffffffffffffffffffffffff021916908373ffffffffffffffffffffffffffffffffffffffff1602179055503373ffffffffffffffffffffffffffffffffffffffff167f6eca818bb499e114c9a2ead8c104a976418f0ca9c27fd7ead167e9125e613d4582604051610fdf9190613e8f565b60405180910390a250565b600061100460405180602001604052806000815250612175565b50905080611047576040517f08c379a000000000000000000000000000000000000000000000000000000000815260040161103e906148cd565b60405180910390fd5b6000838381019061105891906149b0565b90508060039080519060200190611070929190613584565b504260028190555050505050565b83518551146110c2576040517f08c379a00000000000000000000000000000000000000000000000000000000081526004016110b990614a6b565b60405180910390fd5b600060646005846110d39190614a8b565b6110dd9190614afc565b9050600082846110ed91906146e4565b905080341015611132576040517f08c379a000000000000000000000000000000000000000000000000000000000815260040161112990614b79565b60405180910390fd5b3073ffffffffffffffffffffffffffffffffffffffff166108fc839081150290604051600060405180830381858888f19350505050158015611178573d6000803e3d6000fd5b5060005b8751811015611a83576000600660008a848151811061119e5761119d614778565b5b6020026020010151815260200190815260200160002060405180610120016040529081600082015481526020016001820180546111da90614747565b80601f016020809104026020016040519081016040528092919081815260200182805461120690614747565b80156112535780601f1061122857610100808354040283529160200191611253565b820191906000526020600020905b81548152906001019060200180831161123657829003601f168201915b5050505050815260200160028201805461126c90614747565b80601f016020809104026020016040519081016040528092919081815260200182805461129890614747565b80156112e55780601f106112ba576101008083540402835291602001916112e5565b820191906000526020600020905b8154815290600101906020018083116112c857829003601f168201915b50505050508152602001600382015481526020016004820160009054906101000a900473ffffffffffffffffffffffffffffffffffffffff1673ffffffffffffffffffffffffffffffffffffffff1673ffffffffffffffffffffffffffffffffffffffff16815260200160058201548152602001600682015481526020016007820154815260200160088201805461137c90614747565b80601f01602080910402602001604051908101604052809291908181526020018280546113a890614747565b80156113f55780601f106113ca576101008083540402835291602001916113f5565b820191906000526020600020905b8154815290600101906020018083116113d857829003601f168201915b5050505050815250509050600088838151811061141557611414614778565b5b60200260200101518260a0015161142c9190614a8b565b90506000600a8261143d9190614afc565b905061149481600460003373ffffffffffffffffffffffffffffffffffffffff1673ffffffffffffffffffffffffffffffffffffffff168152602001908152602001600020600201546134f690919063ffffffff16565b600460003373ffffffffffffffffffffffffffffffffffffffff1673ffffffffffffffffffffffffffffffffffffffff168152602001908152602001600020600201819055503373ffffffffffffffffffffffffffffffffffffffff167f2c4c0dc427a50c4a69d2fc184c47a311acf950d8d2f289fbaee64e83e9b289678260405161152091906139a5565b60405180910390a288848151811061153b5761153a614778565b5b6020026020010151156116c957826080015173ffffffffffffffffffffffffffffffffffffffff166108fc60646005856115759190614a8b565b61157f9190614afc565b8461158a91906146e4565b9081150290604051600060405180830381858888f193505050501580156115b5573d6000803e3d6000fd5b50600160009054906101000a900473ffffffffffffffffffffffffffffffffffffffff1673ffffffffffffffffffffffffffffffffffffffff166323b872dd8460800151338d888151811061160d5761160c614778565b5b60200260200101518760c001516116249190614a8b565b6040518463ffffffff1660e01b815260040161164293929190614b99565b6020604051808303816000875af1158015611661573d6000803e3d6000fd5b505050506040513d601f19601f8201168201806040525081019061168591906145f3565b6116c4576040517f08c379a00000000000000000000000000000000000000000000000000000000081526004016116bb90614c1c565b60405180910390fd5b61187a565b826080015173ffffffffffffffffffffffffffffffffffffffff166108fc60646005856116f69190614a8b565b6117009190614afc565b8c878151811061171357611712614778565b5b60200260200101518660e0015161172a9190614a8b565b8561173591906146e4565b61173f91906146e4565b9081150290604051600060405180830381858888f1935050505015801561176a573d6000803e3d6000fd5b50600160009054906101000a900473ffffffffffffffffffffffffffffffffffffffff1673ffffffffffffffffffffffffffffffffffffffff166323b872dd3385608001518d88815181106117c2576117c1614778565b5b60200260200101518760e001516117d99190614a8b565b6040518463ffffffff1660e01b81526004016117f793929190614b99565b6020604051808303816000875af1158015611816573d6000803e3d6000fd5b505050506040513d601f19601f8201168201806040525081019061183a91906145f3565b611879576040517f08c379a000000000000000000000000000000000000000000000000000000000815260040161187090614c88565b60405180910390fd5b5b604051806080016040528060095481526020013373ffffffffffffffffffffffffffffffffffffffff1681526020018c86815181106118bc576118bb614778565b5b602002602001015181526020018b86815181106118dc576118db614778565b5b60200260200101518152506007600060095481526020019081526020016000206000820151816000015560208201518160010160006101000a81548173ffffffffffffffffffffffffffffffffffffffff021916908373ffffffffffffffffffffffffffffffffffffffff1602179055506040820151816002015560608201518160030155905050600460003373ffffffffffffffffffffffffffffffffffffffff1673ffffffffffffffffffffffffffffffffffffffff16815260200190815260200160002060030160095490806001815401808255809150506001900390600052602060002001600090919091909150558a84815181106119e2576119e1614778565b5b60200260200101513373ffffffffffffffffffffffffffffffffffffffff166009547f7d3c39a6cce20f6949eff0833a4d54fca734dc7c6027773d8885e7faeac98a958d8881518110611a3857611a37614778565b5b6020026020010151604051611a4d91906139a5565b60405180910390a460096000815480929190611a68906147a7565b91905055505050508080611a7b906147a7565b91505061117c565b5050505050505050565b60008054906101000a900473ffffffffffffffffffffffffffffffffffffffff1673ffffffffffffffffffffffffffffffffffffffff163373ffffffffffffffffffffffffffffffffffffffff1614611b1b576040517f08c379a0000000000000000000000000000000000000000000000000000000008152600401611b1290614861565b60405180910390fd5b600160009054906101000a900473ffffffffffffffffffffffffffffffffffffffff1673ffffffffffffffffffffffffffffffffffffffff166370a08231306040518263ffffffff1660e01b8152600401611b769190613e8f565b602060405180830381865afa158015611b93573d6000803e3d6000fd5b505050506040513d601f19601f82011682018060405250810190611bb7919061451c565b811115611bf9576040517f08c379a0000000000000000000000000000000000000000000000000000000008152600401611bf090614cf4565b60405180910390fd5b600160009054906101000a900473ffffffffffffffffffffffffffffffffffffffff1673ffffffffffffffffffffffffffffffffffffffff1663a9059cbb83836040518363ffffffff1660e01b8152600401611c569291906145b5565b6020604051808303816000875af1158015611c75573d6000803e3d6000fd5b505050506040513d601f19601f82011682018060405250810190611c9991906145f3565b505050565b600073ffffffffffffffffffffffffffffffffffffffff16600460003373ffffffffffffffffffffffffffffffffffffffff1673ffffffffffffffffffffffffffffffffffffffff16815260200190815260200160002060000160009054906101000a900473ffffffffffffffffffffffffffffffffffffffff1673ffffffffffffffffffffffffffffffffffffffff1614611d6f576040517f08c379a0000000000000000000000000000000000000000000000000000000008152600401611d6690614d60565b60405180910390fd5b60405180608001604052803373ffffffffffffffffffffffffffffffffffffffff1681526020016000815260200160008152602001600067ffffffffffffffff811115611dbf57611dbe613b38565b5b604051908082528060200260200182016040528015611ded5781602001602082028036833780820191505090505b50815250600460003373ffffffffffffffffffffffffffffffffffffffff1673ffffffffffffffffffffffffffffffffffffffff16815260200190815260200160002060008201518160000160006101000a81548173ffffffffffffffffffffffffffffffffffffffff021916908373ffffffffffffffffffffffffffffffffffffffff16021790555060208201518160010155604082015181600201556060820151816003019080519060200190611ea792919061360e565b509050503373ffffffffffffffffffffffffffffffffffffffff167f54db7a5cb4735e1aac1f53db512d3390390bb6637bd30ad4bf9fc98667d9b9b960405160405180910390a2565b60085481565b600073ffffffffffffffffffffffffffffffffffffffff16600560003373ffffffffffffffffffffffffffffffffffffffff1673ffffffffffffffffffffffffffffffffffffffff16815260200190815260200160002060000160009054906101000a900473ffffffffffffffffffffffffffffffffffffffff1673ffffffffffffffffffffffffffffffffffffffff1614611fc7576040517f08c379a0000000000000000000000000000000000000000000000000000000008152600401611fbe90614dcc565b60405180910390fd5b60405180604001604052803373ffffffffffffffffffffffffffffffffffffffff168152602001600067ffffffffffffffff81111561200957612008613b38565b5b6040519080825280602002602001820160405280156120375781602001602082028036833780820191505090505b50815250600560003373ffffffffffffffffffffffffffffffffffffffff1673ffffffffffffffffffffffffffffffffffffffff16815260200190815260200160002060008201518160000160006101000a81548173ffffffffffffffffffffffffffffffffffffffff021916908373ffffffffffffffffffffffffffffffffffffffff16021790555060208201518160010190805190602001906120dd92919061360e565b509050503373ffffffffffffffffffffffffffffffffffffffff167f4d97d287a8f631378031b05cb24c876085261ddaa7b8f584477370ef473fbb3d60405160405180910390a2565b600581565b670de0b6b3a764000081565b60056020528060005260406000206000915090508060000160009054906101000a900473ffffffffffffffffffffffffffffffffffffffff16905081565b6000606060007f0000000000000000000000000000000000000000000000000000000000000000600254426121aa91906146e4565b1190506000606467ffffffffffffffff8111156121ca576121c9613b38565b5b6040519080825280602002602001820160405280156121f85781602001602082028036833780820191505090505b5090506000606467ffffffffffffffff81111561221857612217613b38565b5b6040519080825280602002602001820160405280156122465781602001602082028036833780820191505090505b509050600080606460095461225b91906146e4565b11612267576000612277565b606460095461227691906146e4565b5b905060008190505b6009548110156123d0576007600082815260200190815260200160002060010160009054906101000a900473ffffffffffffffffffffffffffffffffffffffff16846001836122ce91906146e4565b815181106122df576122de614778565b5b602002602001019073ffffffffffffffffffffffffffffffffffffffff16908173ffffffffffffffffffffffffffffffffffffffff1681525050600460006007600084815260200190815260200160002060010160009054906101000a900473ffffffffffffffffffffffffffffffffffffffff1673ffffffffffffffffffffffffffffffffffffffff1673ffffffffffffffffffffffffffffffffffffffff16815260200190815260200160002060020154836001836123a091906146e4565b815181106123b1576123b0614778565b5b60200260200101818152505080806123c8906147a7565b91505061227f565b5060005b82518110156125e55760005b600184516123ee91906146e4565b8110156125d157836001826124039190614dec565b8151811061241457612413614778565b5b602002602001015184828151811061242f5761242e614778565b5b602002602001015110156125be57600084828151811061245257612451614778565b5b602002602001015190508460018361246a9190614dec565b8151811061247b5761247a614778565b5b602002602001015185838151811061249657612495614778565b5b60200260200101818152505080856001846124b19190614dec565b815181106124c2576124c1614778565b5b60200260200101818152505060008683815181106124e3576124e2614778565b5b60200260200101519050866001846124fb9190614dec565b8151811061250c5761250b614778565b5b602002602001015187848151811061252757612526614778565b5b602002602001019073ffffffffffffffffffffffffffffffffffffffff16908173ffffffffffffffffffffffffffffffffffffffff168152505080876001856125709190614dec565b8151811061258157612580614778565b5b602002602001019073ffffffffffffffffffffffffffffffffffffffff16908173ffffffffffffffffffffffffffffffffffffffff168152505050505b80806125c9906147a7565b9150506123e0565b5080806125dd906147a7565b9150506123d4565b50839550826040516020016125fa9190614453565b604051602081830303815290604052945050505050915091565b600160009054906101000a900473ffffffffffffffffffffffffffffffffffffffff1681565b600660205280600052604060002060009150905080600001549080600101805461266390614747565b80601f016020809104026020016040519081016040528092919081815260200182805461268f90614747565b80156126dc5780601f106126b1576101008083540402835291602001916126dc565b820191906000526020600020905b8154815290600101906020018083116126bf57829003601f168201915b5050505050908060020180546126f190614747565b80601f016020809104026020016040519081016040528092919081815260200182805461271d90614747565b801561276a5780601f1061273f5761010080835404028352916020019161276a565b820191906000526020600020905b81548152906001019060200180831161274d57829003601f168201915b5050505050908060030154908060040160009054906101000a900473ffffffffffffffffffffffffffffffffffffffff16908060050154908060060154908060070154908060080180546127bd90614747565b80601f01602080910402602001604051908101604052809291908181526020018280546127e990614747565b80156128365780601f1061280b57610100808354040283529160200191612836565b820191906000526020600020905b81548152906001019060200180831161281957829003601f168201915b5050505050905089565b60008054906101000a900473ffffffffffffffffffffffffffffffffffffffff1673ffffffffffffffffffffffffffffffffffffffff163373ffffffffffffffffffffffffffffffffffffffff16146128ce576040517f08c379a00000000000000000000000000000000000000000000000000000000081526004016128c590614861565b60405180910390fd5b60008054906101000a900473ffffffffffffffffffffffffffffffffffffffff1673ffffffffffffffffffffffffffffffffffffffff166108fc829081150290604051600060405180830381858888f19350505050158015612934573d6000803e3d6000fd5b503373ffffffffffffffffffffffffffffffffffffffff167f6efac6899ee41c0fab9566f807fee81972320248574ef8adeac6599ea7eae2468260405161297b91906139a5565b60405180910390a250565b7f000000000000000000000000000000000000000000000000000000000000000081565b60076020528060005260406000206000915090508060000154908060010160009054906101000a900473ffffffffffffffffffffffffffffffffffffffff16908060020154908060030154905084565b60046020528060005260406000206000915090508060000160009054906101000a900473ffffffffffffffffffffffffffffffffffffffff16908060010154908060020154905083565b600073ffffffffffffffffffffffffffffffffffffffff16600560003373ffffffffffffffffffffffffffffffffffffffff1673ffffffffffffffffffffffffffffffffffffffff16815260200190815260200160002060000160009054906101000a900473ffffffffffffffffffffffffffffffffffffffff1673ffffffffffffffffffffffffffffffffffffffff1603612b15576040517f08c379a0000000000000000000000000000000000000000000000000000000008152600401612b0c90614e92565b60405180910390fd5b60405180610120016040528060085481526020018881526020018781526020018681526020013373ffffffffffffffffffffffffffffffffffffffff16815260200185815260200184815260200183815260200182815250600660006008548152602001908152602001600020600082015181600001556020820151816001019081612ba19190615054565b506040820151816002019081612bb79190615054565b506060820151816003015560808201518160040160006101000a81548173ffffffffffffffffffffffffffffffffffffffff021916908373ffffffffffffffffffffffffffffffffffffffff16021790555060a0820151816005015560c0820151816006015560e08201518160070155610100820151816008019081612c3d9190615054565b50905050600560003373ffffffffffffffffffffffffffffffffffffffff1673ffffffffffffffffffffffffffffffffffffffff16815260200190815260200160002060010160085490806001815401808255809150506001900390600052602060002001600090919091909150553373ffffffffffffffffffffffffffffffffffffffff166008547fef311eec1d40202fee1909ab585df5e024df1930dc6bba97722d1e60e91c01f78987604051612cf7929190615126565b60405180910390a360086000815480929190612d12906147a7565b919050555050505050505050565b60038181548110612d3057600080fd5b906000526020600020016000915054906101000a900473ffffffffffffffffffffffffffffffffffffffff1681565b60606003805480602002602001604051908101604052809291908181526020018280548015612de357602002820191906000526020600020905b8160009054906101000a900473ffffffffffffffffffffffffffffffffffffffff1673ffffffffffffffffffffffffffffffffffffffff1681526020019060010190808311612d99575b5050505050905090565b600b6020528060005260406000206000915090505481565b600a6020528060005260406000206000915090505481565b600073ffffffffffffffffffffffffffffffffffffffff16600560003373ffffffffffffffffffffffffffffffffffffffff1673ffffffffffffffffffffffffffffffffffffffff16815260200190815260200160002060000160009054906101000a900473ffffffffffffffffffffffffffffffffffffffff1673ffffffffffffffffffffffffffffffffffffffff1603612eee576040517f08c379a0000000000000000000000000000000000000000000000000000000008152600401612ee590614e92565b60405180910390fd5b69010f0cf064dd59200000811115612f3b576040517f08c379a0000000000000000000000000000000000000000000000000000000008152600401612f32906151a2565b60405180910390fd5b62278d00600b60003373ffffffffffffffffffffffffffffffffffffffff1673ffffffffffffffffffffffffffffffffffffffff16815260200190815260200160002054612f899190614dec565b42111561301a576000600a60003373ffffffffffffffffffffffffffffffffffffffff1673ffffffffffffffffffffffffffffffffffffffff1681526020019081526020016000208190555042600b60003373ffffffffffffffffffffffffffffffffffffffff1673ffffffffffffffffffffffffffffffffffffffff168152602001908152602001600020819055505b69010f0cf064dd5920000061307782600a60003373ffffffffffffffffffffffffffffffffffffffff1673ffffffffffffffffffffffffffffffffffffffff168152602001908152602001600020546134f690919063ffffffff16565b11156130b8576040517f08c379a00000000000000000000000000000000000000000000000000000000081526004016130af9061520e565b60405180910390fd5b600160009054906101000a900473ffffffffffffffffffffffffffffffffffffffff1673ffffffffffffffffffffffffffffffffffffffff166370a08231306040518263ffffffff1660e01b81526004016131139190613e8f565b602060405180830381865afa158015613130573d6000803e3d6000fd5b505050506040513d601f19601f82011682018060405250810190613154919061451c565b811115613196576040517f08c379a000000000000000000000000000000000000000000000000000000000815260040161318d90614cf4565b60405180910390fd5b600160009054906101000a900473ffffffffffffffffffffffffffffffffffffffff1673ffffffffffffffffffffffffffffffffffffffff1663a9059cbb83836040518363ffffffff1660e01b81526004016131f39291906145b5565b6020604051808303816000875af1158015613212573d6000803e3d6000fd5b505050506040513d601f19601f8201168201806040525081019061323691906145f3565b5061328981600a60003373ffffffffffffffffffffffffffffffffffffffff1673ffffffffffffffffffffffffffffffffffffffff168152602001908152602001600020546134f690919063ffffffff16565b600a60003373ffffffffffffffffffffffffffffffffffffffff1673ffffffffffffffffffffffffffffffffffffffff168152602001908152602001600020819055505050565b60008054906101000a900473ffffffffffffffffffffffffffffffffffffffff1681565b69010f0cf064dd5920000081565b60008111613345576040517f08c379a000000000000000000000000000000000000000000000000000000000815260040161333c9061527a565b60405180910390fd5b6000613362670de0b6b3a76400008361350c90919063ffffffff16565b9050600160009054906101000a900473ffffffffffffffffffffffffffffffffffffffff1673ffffffffffffffffffffffffffffffffffffffff166323b872dd3330856040518463ffffffff1660e01b81526004016133c393929190614b99565b6020604051808303816000875af11580156133e2573d6000803e3d6000fd5b505050506040513d601f19601f8201168201806040525081019061340691906145f3565b613445576040517f08c379a000000000000000000000000000000000000000000000000000000000815260040161343c9061466c565b60405180910390fd5b3373ffffffffffffffffffffffffffffffffffffffff166108fc829081150290604051600060405180830381858888f1935050505015801561348b573d6000803e3d6000fd5b503373ffffffffffffffffffffffffffffffffffffffff167fae8bcd366b92d4b55d90c0ccbfd8a50a60bae24f201c5899a989e99a3d877b9383836040516134d492919061468c565b60405180910390a25050565b600081836134ee9190614afc565b905092915050565b600081836135049190614dec565b905092915050565b6000818361351a9190614a8b565b905092915050565b60405180610120016040528060008152602001606081526020016060815260200160008152602001600073ffffffffffffffffffffffffffffffffffffffff168152602001600081526020016000815260200160008152602001606081525090565b8280548282559060005260206000209081019282156135fd579160200282015b828111156135fc5782518260006101000a81548173ffffffffffffffffffffffffffffffffffffffff021916908373ffffffffffffffffffffffffffffffffffffffff160217905550916020019190600101906135a4565b5b50905061360a919061365b565b5090565b82805482825590600052602060002090810192821561364a579160200282015b8281111561364957825182559160200191906001019061362e565b5b509050613657919061365b565b5090565b5b8082111561367457600081600090555060010161365c565b5090565b600082825260208201905092915050565b7f4f7065726174696f6e206e6f7420737570706f72746564000000000000000000600082015250565b60006136bf601783613678565b91506136ca82613689565b602082019050919050565b600060208201905081810360008301526136ee816136b2565b9050919050565b600081519050919050565b600082825260208201905092915050565b6000819050602082019050919050565b6000819050919050565b61373481613721565b82525050565b600081519050919050565b600082825260208201905092915050565b60005b83811015613774578082015181840152602081019050613759565b60008484015250505050565b6000601f19601f8301169050919050565b600061379c8261373a565b6137a68185613745565b93506137b6818560208601613756565b6137bf81613780565b840191505092915050565b600073ffffffffffffffffffffffffffffffffffffffff82169050919050565b60006137f5826137ca565b9050919050565b613805816137ea565b82525050565b600061012083016000830151613824600086018261372b565b506020830151848203602086015261383c8282613791565b915050604083015184820360408601526138568282613791565b915050606083015161386b606086018261372b565b50608083015161387e60808601826137fc565b5060a083015161389160a086018261372b565b5060c08301516138a460c086018261372b565b5060e08301516138b760e086018261372b565b506101008301518482036101008601526138d18282613791565b9150508091505092915050565b60006138ea838361380b565b905092915050565b6000602082019050919050565b600061390a826136f5565b6139148185613700565b93508360208202850161392685613711565b8060005b85811015613962578484038952815161394385826138de565b945061394e836138f2565b925060208a0199505060018101905061392a565b50829750879550505050505092915050565b6000602082019050818103600083015261398e81846138ff565b905092915050565b61399f81613721565b82525050565b60006020820190506139ba6000830184613996565b92915050565b6000604051905090565b600080fd5b600080fd5b6139dd81613721565b81146139e857600080fd5b50565b6000813590506139fa816139d4565b92915050565b600060208284031215613a1657613a156139ca565b5b6000613a24848285016139eb565b91505092915050565b613a36816137ea565b8114613a4157600080fd5b50565b600081359050613a5381613a2d565b92915050565b600060208284031215613a6f57613a6e6139ca565b5b6000613a7d84828501613a44565b91505092915050565b600080fd5b600080fd5b600080fd5b60008083601f840112613aab57613aaa613a86565b5b8235905067ffffffffffffffff811115613ac857613ac7613a8b565b5b602083019150836001820283011115613ae457613ae3613a90565b5b9250929050565b60008060208385031215613b0257613b016139ca565b5b600083013567ffffffffffffffff811115613b2057613b1f6139cf565b5b613b2c85828601613a95565b92509250509250929050565b7f4e487b7100000000000000000000000000000000000000000000000000000000600052604160045260246000fd5b613b7082613780565b810181811067ffffffffffffffff82111715613b8f57613b8e613b38565b5b80604052505050565b6000613ba26139c0565b9050613bae8282613b67565b919050565b600067ffffffffffffffff821115613bce57613bcd613b38565b5b602082029050602081019050919050565b6000613bf2613bed84613bb3565b613b98565b90508083825260208201905060208402830185811115613c1557613c14613a90565b5b835b81811015613c3e5780613c2a88826139eb565b845260208401935050602081019050613c17565b5050509392505050565b600082601f830112613c5d57613c5c613a86565b5b8135613c6d848260208601613bdf565b91505092915050565b600067ffffffffffffffff821115613c9157613c90613b38565b5b602082029050602081019050919050565b60008115159050919050565b613cb781613ca2565b8114613cc257600080fd5b50565b600081359050613cd481613cae565b92915050565b6000613ced613ce884613c76565b613b98565b90508083825260208201905060208402830185811115613d1057613d0f613a90565b5b835b81811015613d395780613d258882613cc5565b845260208401935050602081019050613d12565b5050509392505050565b600082601f830112613d5857613d57613a86565b5b8135613d68848260208601613cda565b91505092915050565b600080600080600060a08688031215613d8d57613d8c6139ca565b5b600086013567ffffffffffffffff811115613dab57613daa6139cf565b5b613db788828901613c48565b955050602086013567ffffffffffffffff811115613dd857613dd76139cf565b5b613de488828901613c48565b945050604086013567ffffffffffffffff811115613e0557613e046139cf565b5b613e1188828901613d43565b9350506060613e22888289016139eb565b9250506080613e33888289016139eb565b9150509295509295909350565b60008060408385031215613e5757613e566139ca565b5b6000613e6585828601613a44565b9250506020613e76858286016139eb565b9150509250929050565b613e89816137ea565b82525050565b6000602082019050613ea46000830184613e80565b92915050565b600080fd5b600067ffffffffffffffff821115613eca57613ec9613b38565b5b613ed382613780565b9050602081019050919050565b82818337600083830152505050565b6000613f02613efd84613eaf565b613b98565b905082815260208101848484011115613f1e57613f1d613eaa565b5b613f29848285613ee0565b509392505050565b600082601f830112613f4657613f45613a86565b5b8135613f56848260208601613eef565b91505092915050565b600060208284031215613f7557613f746139ca565b5b600082013567ffffffffffffffff811115613f9357613f926139cf565b5b613f9f84828501613f31565b91505092915050565b613fb181613ca2565b82525050565b600081519050919050565b600082825260208201905092915050565b6000613fde82613fb7565b613fe88185613fc2565b9350613ff8818560208601613756565b61400181613780565b840191505092915050565b60006040820190506140216000830185613fa8565b81810360208301526140338184613fd3565b90509392505050565b6000819050919050565b600061406161405c614057846137ca565b61403c565b6137ca565b9050919050565b600061407382614046565b9050919050565b600061408582614068565b9050919050565b6140958161407a565b82525050565b60006020820190506140b0600083018461408c565b92915050565b60006140c18261373a565b6140cb8185613678565b93506140db818560208601613756565b6140e481613780565b840191505092915050565b600061012082019050614105600083018c613996565b8181036020830152614117818b6140b6565b9050818103604083015261412b818a6140b6565b905061413a6060830189613996565b6141476080830188613e80565b61415460a0830187613996565b61416160c0830186613996565b61416e60e0830185613996565b81810361010083015261418181846140b6565b90509a9950505050505050505050565b60006080820190506141a66000830187613996565b6141b36020830186613e80565b6141c06040830185613996565b6141cd6060830184613996565b95945050505050565b60006060820190506141eb6000830186613e80565b6141f86020830185613996565b6142056040830184613996565b949350505050565b600067ffffffffffffffff82111561422857614227613b38565b5b61423182613780565b9050602081019050919050565b600061425161424c8461420d565b613b98565b90508281526020810184848401111561426d5761426c613eaa565b5b614278848285613ee0565b509392505050565b600082601f83011261429557614294613a86565b5b81356142a584826020860161423e565b91505092915050565b600080600080600080600060e0888a0312156142cd576142cc6139ca565b5b600088013567ffffffffffffffff8111156142eb576142ea6139cf565b5b6142f78a828b01614280565b975050602088013567ffffffffffffffff811115614318576143176139cf565b5b6143248a828b01614280565b96505060406143358a828b016139eb565b95505060606143468a828b016139eb565b94505060806143578a828b016139eb565b93505060a06143688a828b016139eb565b92505060c088013567ffffffffffffffff811115614389576143886139cf565b5b6143958a828b01614280565b91505092959891949750929550565b600081519050919050565b600082825260208201905092915050565b6000819050602082019050919050565b60006143dc83836137fc565b60208301905092915050565b6000602082019050919050565b6000614400826143a4565b61440a81856143af565b9350614415836143c0565b8060005b8381101561444657815161442d88826143d0565b9750614438836143e8565b925050600181019050614419565b5085935050505092915050565b6000602082019050818103600083015261446d81846143f5565b905092915050565b7f4d4154494320616d6f756e742073686f756c642062652067726561746572207460008201527f68616e2030000000000000000000000000000000000000000000000000000000602082015250565b60006144d1602583613678565b91506144dc82614475565b604082019050919050565b60006020820190508181036000830152614500816144c4565b9050919050565b600081519050614516816139d4565b92915050565b600060208284031215614532576145316139ca565b5b600061454084828501614507565b91505092915050565b7f4e6f7420656e6f756768204c525420696e20636f6e7472616374000000000000600082015250565b600061457f601a83613678565b915061458a82614549565b602082019050919050565b600060208201905081810360008301526145ae81614572565b9050919050565b60006040820190506145ca6000830185613e80565b6145d76020830184613996565b9392505050565b6000815190506145ed81613cae565b92915050565b600060208284031215614609576146086139ca565b5b6000614617848285016145de565b91505092915050565b7f4c5254207472616e73666572206661696c656400000000000000000000000000600082015250565b6000614656601383613678565b915061466182614620565b602082019050919050565b6000602082019050818103600083015261468581614649565b9050919050565b60006040820190506146a16000830185613996565b6146ae6020830184613996565b9392505050565b7f4e487b7100000000000000000000000000000000000000000000000000000000600052601160045260246000fd5b60006146ef82613721565b91506146fa83613721565b9250828203905081811115614712576147116146b5565b5b92915050565b7f4e487b7100000000000000000000000000000000000000000000000000000000600052602260045260246000fd5b6000600282049050600182168061475f57607f821691505b60208210810361477257614771614718565b5b50919050565b7f4e487b7100000000000000000000000000000000000000000000000000000000600052603260045260246000fd5b60006147b282613721565b91507fffffffffffffffffffffffffffffffffffffffffffffffffffffffffffffffff82036147e4576147e36146b5565b5b600182019050919050565b7f4f6e6c792061646d696e2063616e2063616c6c20746869732066756e6374696f60008201527f6e00000000000000000000000000000000000000000000000000000000000000602082015250565b600061484b602183613678565b9150614856826147ef565b604082019050919050565b6000602082019050818103600083015261487a8161483e565b9050919050565b7f55706b656570206e6f74206e6565646564000000000000000000000000000000600082015250565b60006148b7601183613678565b91506148c282614881565b602082019050919050565b600060208201905081810360008301526148e6816148aa565b9050919050565b600067ffffffffffffffff82111561490857614907613b38565b5b602082029050602081019050919050565b600061492c614927846148ed565b613b98565b9050808382526020820190506020840283018581111561494f5761494e613a90565b5b835b8181101561497857806149648882613a44565b845260208401935050602081019050614951565b5050509392505050565b600082601f83011261499757614996613a86565b5b81356149a7848260208601614919565b91505092915050565b6000602082840312156149c6576149c56139ca565b5b600082013567ffffffffffffffff8111156149e4576149e36139cf565b5b6149f084828501614982565b91505092915050565b7f4d69736d6174636820696e2070726f647563742049447320616e64207175616e60008201527f746974696573206c656e67746800000000000000000000000000000000000000602082015250565b6000614a55602d83613678565b9150614a60826149f9565b604082019050919050565b60006020820190508181036000830152614a8481614a48565b9050919050565b6000614a9682613721565b9150614aa183613721565b9250828202614aaf81613721565b91508282048414831517614ac657614ac56146b5565b5b5092915050565b7f4e487b7100000000000000000000000000000000000000000000000000000000600052601260045260246000fd5b6000614b0782613721565b9150614b1283613721565b925082614b2257614b21614acd565b5b828204905092915050565b7f496e636f7272656374204d415449432073656e74000000000000000000000000600082015250565b6000614b63601483613678565b9150614b6e82614b2d565b602082019050919050565b60006020820190508181036000830152614b9281614b56565b9050919050565b6000606082019050614bae6000830186613e80565b614bbb6020830185613e80565b614bc86040830184613996565b949350505050565b7f52657761726420506f696e7473207472616e73666572206661696c6564000000600082015250565b6000614c06601d83613678565b9150614c1182614bd0565b602082019050919050565b60006020820190508181036000830152614c3581614bf9565b9050919050565b7f4c6f79616c747920546f6b656e207472616e73666572206661696c6564000000600082015250565b6000614c72601d83613678565b9150614c7d82614c3c565b602082019050919050565b60006020820190508181036000830152614ca181614c65565b9050919050565b7f4e6f7420656e6f75676820746f6b656e7320696e207472656173757279000000600082015250565b6000614cde601d83613678565b9150614ce982614ca8565b602082019050919050565b60006020820190508181036000830152614d0d81614cd1565b9050919050565b7f5573657220616c72656164792072656769737465726564000000000000000000600082015250565b6000614d4a601783613678565b9150614d5582614d14565b602082019050919050565b60006020820190508181036000830152614d7981614d3d565b9050919050565b7f53656c6c657220616c7265616479207265676973746572656400000000000000600082015250565b6000614db6601983613678565b9150614dc182614d80565b602082019050919050565b60006020820190508181036000830152614de581614da9565b9050919050565b6000614df782613721565b9150614e0283613721565b9250828201905080821115614e1a57614e196146b5565b5b92915050565b7f4f6e6c792073656c6c6572732063616e2063616c6c20746869732066756e637460008201527f696f6e0000000000000000000000000000000000000000000000000000000000602082015250565b6000614e7c602383613678565b9150614e8782614e20565b604082019050919050565b60006020820190508181036000830152614eab81614e6f565b9050919050565b60008190508160005260206000209050919050565b60006020601f8301049050919050565b600082821b905092915050565b600060088302614f147fffffffffffffffffffffffffffffffffffffffffffffffffffffffffffffffff82614ed7565b614f1e8683614ed7565b95508019841693508086168417925050509392505050565b6000614f51614f4c614f4784613721565b61403c565b613721565b9050919050565b6000819050919050565b614f6b83614f36565b614f7f614f7782614f58565b848454614ee4565b825550505050565b600090565b614f94614f87565b614f9f818484614f62565b505050565b5b81811015614fc357614fb8600082614f8c565b600181019050614fa5565b5050565b601f82111561500857614fd981614eb2565b614fe284614ec7565b81016020851015614ff1578190505b615005614ffd85614ec7565b830182614fa4565b50505b505050565b600082821c905092915050565b600061502b6000198460080261500d565b1980831691505092915050565b6000615044838361501a565b9150826002028217905092915050565b61505d8261373a565b67ffffffffffffffff81111561507657615075613b38565b5b6150808254614747565b61508b828285614fc7565b600060209050601f8311600181146150be57600084156150ac578287015190505b6150b68582615038565b86555061511e565b601f1984166150cc86614eb2565b60005b828110156150f4578489015182556001820191506020850194506020810190506150cf565b86831015615111578489015161510d601f89168261501a565b8355505b6001600288020188555050505b505050505050565b6000604082019050818103600083015261514081856140b6565b905061514f6020830184613996565b9392505050565b7f45786365656473206d6f6e74686c792063617000000000000000000000000000600082015250565b600061518c601383613678565b915061519782615156565b602082019050919050565b600060208201905081810360008301526151bb8161517f565b9050919050565b7f45786365656473206d6f6e74686c792063617020666f722073656c6c65720000600082015250565b60006151f8601e83613678565b9150615203826151c2565b602082019050919050565b60006020820190508181036000830152615227816151eb565b9050919050565b7f416d6f756e742073686f756c642062652067726561746572207468616e203000600082015250565b6000615264601f83613678565b915061526f8261522e565b602082019050919050565b6000602082019050818103600083015261529381615257565b905091905056fea26469706673582212207154f3dd1dfabbfcdcb7de2cc445d8a08eb674bc66d66d271ad139577db57f3564736f6c63430008130033","opcodes":"PUSH1 0xA0 PUSH1 0x40 MSTORE PUSH1 0x1 PUSH1 0x8 SSTORE PUSH1 0x1 PUSH1 0x9 SSTORE CALLVALUE DUP1 ISZERO PUSH3 0x1B JUMPI PUSH1 0x0 DUP1 REVERT JUMPDEST POP PUSH1 0x40 MLOAD PUSH3 0x54B8 CODESIZE SUB DUP1 PUSH3 0x54B8 DUP4 CODECOPY DUP2 DUP2 ADD PUSH1 0x40 MSTORE DUP2 ADD SWAP1 PUSH3 0x41 SWAP2 SWAP1 PUSH3 0x17E JUMP JUMPDEST CALLER PUSH1 0x0 DUP1 PUSH2 0x100 EXP DUP2 SLOAD DUP2 PUSH20 0xFFFFFFFFFFFFFFFFFFFFFFFFFFFFFFFFFFFFFFFF MUL NOT AND SWAP1 DUP4 PUSH20 0xFFFFFFFFFFFFFFFFFFFFFFFFFFFFFFFFFFFFFFFF AND MUL OR SWAP1 SSTORE POP DUP2 PUSH1 0x1 PUSH1 0x0 PUSH2 0x100 EXP DUP2 SLOAD DUP2 PUSH20 0xFFFFFFFFFFFFFFFFFFFFFFFFFFFFFFFFFFFFFFFF MUL NOT AND SWAP1 DUP4 PUSH20 0xFFFFFFFFFFFFFFFFFFFFFFFFFFFFFFFFFFFFFFFF AND MUL OR SWAP1 SSTORE POP DUP1 PUSH1 0x80 DUP2 DUP2 MSTORE POP POP TIMESTAMP PUSH1 0x2 DUP2 SWAP1 SSTORE POP POP POP PUSH3 0x1C5 JUMP JUMPDEST PUSH1 0x0 DUP1 REVERT JUMPDEST PUSH1 0x0 PUSH20 0xFFFFFFFFFFFFFFFFFFFFFFFFFFFFFFFFFFFFFFFF DUP3 AND SWAP1 POP SWAP2 SWAP1 POP JUMP JUMPDEST PUSH1 0x0 PUSH3 0x10B DUP3 PUSH3 0xDE JUMP JUMPDEST SWAP1 POP SWAP2 SWAP1 POP JUMP JUMPDEST PUSH3 0x11D DUP2 PUSH3 0xFE JUMP JUMPDEST DUP2 EQ PUSH3 0x129 JUMPI PUSH1 0x0 DUP1 REVERT JUMPDEST POP JUMP JUMPDEST PUSH1 0x0 DUP2 MLOAD SWAP1 POP PUSH3 0x13D DUP2 PUSH3 0x112 JUMP JUMPDEST SWAP3 SWAP2 POP POP JUMP JUMPDEST PUSH1 0x0 DUP2 SWAP1 POP SWAP2 SWAP1 POP JUMP JUMPDEST PUSH3 0x158 DUP2 PUSH3 0x143 JUMP JUMPDEST DUP2 EQ PUSH3 0x164 JUMPI PUSH1 0x0 DUP1 REVERT JUMPDEST POP JUMP JUMPDEST PUSH1 0x0 DUP2 MLOAD SWAP1 POP PUSH3 0x178 DUP2 PUSH3 0x14D JUMP JUMPDEST SWAP3 SWAP2 POP POP JUMP JUMPDEST PUSH1 0x0 DUP1 PUSH1 0x40 DUP4 DUP6 SUB SLT ISZERO PUSH3 0x198 JUMPI PUSH3 0x197 PUSH3 0xD9 JUMP JUMPDEST JUMPDEST PUSH1 0x0 PUSH3 0x1A8 DUP6 DUP3 DUP7 ADD PUSH3 0x12C JUMP JUMPDEST SWAP3 POP POP PUSH1 0x20 PUSH3 0x1BB DUP6 DUP3 DUP7 ADD PUSH3 0x167 JUMP JUMPDEST SWAP2 POP POP SWAP3 POP SWAP3 SWAP1 POP JUMP JUMPDEST PUSH1 0x80 MLOAD PUSH2 0x52D0 PUSH3 0x1E8 PUSH1 0x0 CODECOPY PUSH1 0x0 DUP2 DUP2 PUSH2 0x217D ADD MSTORE PUSH2 0x2988 ADD MSTORE PUSH2 0x52D0 PUSH1 0x0 RETURN INVALID PUSH1 0x80 PUSH1 0x40 MSTORE PUSH1 0x4 CALLDATASIZE LT PUSH2 0x1DC JUMPI PUSH1 0x0 CALLDATALOAD PUSH1 0xE0 SHR DUP1 PUSH4 0x6E04FF0D GT PUSH2 0x102 JUMPI DUP1 PUSH4 0xBF368399 GT PUSH2 0x95 JUMPI DUP1 PUSH4 0xF6356B30 GT PUSH2 0x64 JUMPI DUP1 PUSH4 0xF6356B30 EQ PUSH2 0x6E9 JUMPI DUP1 PUSH4 0xF851A440 EQ PUSH2 0x712 JUMPI DUP1 PUSH4 0xFDDBE9A8 EQ PUSH2 0x73D JUMPI DUP1 PUSH4 0xFFA8EFC9 EQ PUSH2 0x768 JUMPI PUSH2 0x1EB JUMP JUMPDEST DUP1 PUSH4 0xBF368399 EQ PUSH2 0x607 JUMPI DUP1 PUSH4 0xC29D72BC EQ PUSH2 0x644 JUMPI DUP1 PUSH4 0xC2BD67E2 EQ PUSH2 0x66F JUMPI DUP1 PUSH4 0xD365CF6B EQ PUSH2 0x6AC JUMPI PUSH2 0x1EB JUMP JUMPDEST DUP1 PUSH4 0x947A36FB GT PUSH2 0xD1 JUMPI DUP1 PUSH4 0x947A36FB EQ PUSH2 0x534 JUMPI DUP1 PUSH4 0xA85C38EF EQ PUSH2 0x55F JUMPI DUP1 PUSH4 0xA87430BA EQ PUSH2 0x59F JUMPI DUP1 PUSH4 0xB656638B EQ PUSH2 0x5DE JUMPI PUSH2 0x1EB JUMP JUMPDEST DUP1 PUSH4 0x6E04FF0D EQ PUSH2 0x45D JUMPI DUP1 PUSH4 0x770AA84D EQ PUSH2 0x49B JUMPI DUP1 PUSH4 0x7ACC0B20 EQ PUSH2 0x4C6 JUMPI DUP1 PUSH4 0x816837E3 EQ PUSH2 0x50B JUMPI PUSH2 0x1EB JUMP JUMPDEST DUP1 PUSH4 0x45A38293 GT PUSH2 0x17A JUMPI DUP1 PUSH4 0x52C9224C GT PUSH2 0x149 JUMPI DUP1 PUSH4 0x52C9224C EQ PUSH2 0x3B3 JUMPI DUP1 PUSH4 0x562DF3D5 EQ PUSH2 0x3CA JUMPI DUP1 PUSH4 0x664E9704 EQ PUSH2 0x3F5 JUMPI DUP1 PUSH4 0x6D47AB72 EQ PUSH2 0x420 JUMPI PUSH2 0x1EB JUMP JUMPDEST DUP1 PUSH4 0x45A38293 EQ PUSH2 0x32C JUMPI DUP1 PUSH4 0x475A9FA9 EQ PUSH2 0x348 JUMPI DUP1 PUSH4 0x4D3820EB EQ PUSH2 0x371 JUMPI DUP1 PUSH4 0x4DE91A63 EQ PUSH2 0x388 JUMPI PUSH2 0x1EB JUMP JUMPDEST DUP1 PUSH4 0x315A095D GT PUSH2 0x1B6 JUMPI DUP1 PUSH4 0x315A095D EQ PUSH2 0x2A7 JUMPI DUP1 PUSH4 0x33FF7BBD EQ PUSH2 0x2D0 JUMPI DUP1 PUSH4 0x42DF2B1D EQ PUSH2 0x2DA JUMPI DUP1 PUSH4 0x4585E33B EQ PUSH2 0x303 JUMPI PUSH2 0x1EB JUMP JUMPDEST DUP1 PUSH4 0x2EE3A52 EQ PUSH2 0x226 JUMPI DUP1 PUSH4 0x19D8AC61 EQ PUSH2 0x251 JUMPI DUP1 PUSH4 0x2A58B330 EQ PUSH2 0x27C JUMPI PUSH2 0x1EB JUMP JUMPDEST CALLDATASIZE PUSH2 0x1EB JUMPI PUSH2 0x1E9 PUSH2 0x791 JUMP JUMPDEST STOP JUMPDEST PUSH1 0x40 MLOAD PUSH32 0x8C379A000000000000000000000000000000000000000000000000000000000 DUP2 MSTORE PUSH1 0x4 ADD PUSH2 0x21D SWAP1 PUSH2 0x36D5 JUMP JUMPDEST PUSH1 0x40 MLOAD DUP1 SWAP2 SUB SWAP1 REVERT JUMPDEST CALLVALUE DUP1 ISZERO PUSH2 0x232 JUMPI PUSH1 0x0 DUP1 REVERT JUMPDEST POP PUSH2 0x23B PUSH2 0xA03 JUMP JUMPDEST PUSH1 0x40 MLOAD PUSH2 0x248 SWAP2 SWAP1 PUSH2 0x3974 JUMP JUMPDEST PUSH1 0x40 MLOAD DUP1 SWAP2 SUB SWAP1 RETURN JUMPDEST CALLVALUE DUP1 ISZERO PUSH2 0x25D JUMPI PUSH1 0x0 DUP1 REVERT JUMPDEST POP PUSH2 0x266 PUSH2 0xD1E JUMP JUMPDEST PUSH1 0x40 MLOAD PUSH2 0x273 SWAP2 SWAP1 PUSH2 0x39A5 JUMP JUMPDEST PUSH1 0x40 MLOAD DUP1 SWAP2 SUB SWAP1 RETURN JUMPDEST CALLVALUE DUP1 ISZERO PUSH2 0x288 JUMPI PUSH1 0x0 DUP1 REVERT JUMPDEST POP PUSH2 0x291 PUSH2 0xD24 JUMP JUMPDEST PUSH1 0x40 MLOAD PUSH2 0x29E SWAP2 SWAP1 PUSH2 0x39A5 JUMP JUMPDEST PUSH1 0x40 MLOAD DUP1 SWAP2 SUB SWAP1 RETURN JUMPDEST CALLVALUE DUP1 ISZERO PUSH2 0x2B3 JUMPI PUSH1 0x0 DUP1 REVERT JUMPDEST POP PUSH2 0x2CE PUSH1 0x4 DUP1 CALLDATASIZE SUB DUP2 ADD SWAP1 PUSH2 0x2C9 SWAP2 SWAP1 PUSH2 0x3A00 JUMP JUMPDEST PUSH2 0xD2A JUMP JUMPDEST STOP JUMPDEST PUSH2 0x2D8 PUSH2 0x791 JUMP JUMPDEST STOP JUMPDEST CALLVALUE DUP1 ISZERO PUSH2 0x2E6 JUMPI PUSH1 0x0 DUP1 REVERT JUMPDEST POP PUSH2 0x301 PUSH1 0x4 DUP1 CALLDATASIZE SUB DUP2 ADD SWAP1 PUSH2 0x2FC SWAP2 SWAP1 PUSH2 0x3A59 JUMP JUMPDEST PUSH2 0xECA JUMP JUMPDEST STOP JUMPDEST CALLVALUE DUP1 ISZERO PUSH2 0x30F JUMPI PUSH1 0x0 DUP1 REVERT JUMPDEST POP PUSH2 0x32A PUSH1 0x4 DUP1 CALLDATASIZE SUB DUP2 ADD SWAP1 PUSH2 0x325 SWAP2 SWAP1 PUSH2 0x3AEB JUMP JUMPDEST PUSH2 0xFEA JUMP JUMPDEST STOP JUMPDEST PUSH2 0x346 PUSH1 0x4 DUP1 CALLDATASIZE SUB DUP2 ADD SWAP1 PUSH2 0x341 SWAP2 SWAP1 PUSH2 0x3D71 JUMP JUMPDEST PUSH2 0x107E JUMP JUMPDEST STOP JUMPDEST CALLVALUE DUP1 ISZERO PUSH2 0x354 JUMPI PUSH1 0x0 DUP1 REVERT JUMPDEST POP PUSH2 0x36F PUSH1 0x4 DUP1 CALLDATASIZE SUB DUP2 ADD SWAP1 PUSH2 0x36A SWAP2 SWAP1 PUSH2 0x3E40 JUMP JUMPDEST PUSH2 0x1A8D JUMP JUMPDEST STOP JUMPDEST CALLVALUE DUP1 ISZERO PUSH2 0x37D JUMPI PUSH1 0x0 DUP1 REVERT JUMPDEST POP PUSH2 0x386 PUSH2 0x1C9E JUMP JUMPDEST STOP JUMPDEST CALLVALUE DUP1 ISZERO PUSH2 0x394 JUMPI PUSH1 0x0 DUP1 REVERT JUMPDEST POP PUSH2 0x39D PUSH2 0x1EF0 JUMP JUMPDEST PUSH1 0x40 MLOAD PUSH2 0x3AA SWAP2 SWAP1 PUSH2 0x39A5 JUMP JUMPDEST PUSH1 0x40 MLOAD DUP1 SWAP2 SUB SWAP1 RETURN JUMPDEST CALLVALUE DUP1 ISZERO PUSH2 0x3BF JUMPI PUSH1 0x0 DUP1 REVERT JUMPDEST POP PUSH2 0x3C8 PUSH2 0x1EF6 JUMP JUMPDEST STOP JUMPDEST CALLVALUE DUP1 ISZERO PUSH2 0x3D6 JUMPI PUSH1 0x0 DUP1 REVERT JUMPDEST POP PUSH2 0x3DF PUSH2 0x2126 JUMP JUMPDEST PUSH1 0x40 MLOAD PUSH2 0x3EC SWAP2 SWAP1 PUSH2 0x39A5 JUMP JUMPDEST PUSH1 0x40 MLOAD DUP1 SWAP2 SUB SWAP1 RETURN JUMPDEST CALLVALUE DUP1 ISZERO PUSH2 0x401 JUMPI PUSH1 0x0 DUP1 REVERT JUMPDEST POP PUSH2 0x40A PUSH2 0x212B JUMP JUMPDEST PUSH1 0x40 MLOAD PUSH2 0x417 SWAP2 SWAP1 PUSH2 0x39A5 JUMP JUMPDEST PUSH1 0x40 MLOAD DUP1 SWAP2 SUB SWAP1 RETURN JUMPDEST CALLVALUE DUP1 ISZERO PUSH2 0x42C JUMPI PUSH1 0x0 DUP1 REVERT JUMPDEST POP PUSH2 0x447 PUSH1 0x4 DUP1 CALLDATASIZE SUB DUP2 ADD SWAP1 PUSH2 0x442 SWAP2 SWAP1 PUSH2 0x3A59 JUMP JUMPDEST PUSH2 0x2137 JUMP JUMPDEST PUSH1 0x40 MLOAD PUSH2 0x454 SWAP2 SWAP1 PUSH2 0x3E8F JUMP JUMPDEST PUSH1 0x40 MLOAD DUP1 SWAP2 SUB SWAP1 RETURN JUMPDEST CALLVALUE DUP1 ISZERO PUSH2 0x469 JUMPI PUSH1 0x0 DUP1 REVERT JUMPDEST POP PUSH2 0x484 PUSH1 0x4 DUP1 CALLDATASIZE SUB DUP2 ADD SWAP1 PUSH2 0x47F SWAP2 SWAP1 PUSH2 0x3F5F JUMP JUMPDEST PUSH2 0x2175 JUMP JUMPDEST PUSH1 0x40 MLOAD PUSH2 0x492 SWAP3 SWAP2 SWAP1 PUSH2 0x400C JUMP JUMPDEST PUSH1 0x40 MLOAD DUP1 SWAP2 SUB SWAP1 RETURN JUMPDEST CALLVALUE DUP1 ISZERO PUSH2 0x4A7 JUMPI PUSH1 0x0 DUP1 REVERT JUMPDEST POP PUSH2 0x4B0 PUSH2 0x2614 JUMP JUMPDEST PUSH1 0x40 MLOAD PUSH2 0x4BD SWAP2 SWAP1 PUSH2 0x409B JUMP JUMPDEST PUSH1 0x40 MLOAD DUP1 SWAP2 SUB SWAP1 RETURN JUMPDEST CALLVALUE DUP1 ISZERO PUSH2 0x4D2 JUMPI PUSH1 0x0 DUP1 REVERT JUMPDEST POP PUSH2 0x4ED PUSH1 0x4 DUP1 CALLDATASIZE SUB DUP2 ADD SWAP1 PUSH2 0x4E8 SWAP2 SWAP1 PUSH2 0x3A00 JUMP JUMPDEST PUSH2 0x263A JUMP JUMPDEST PUSH1 0x40 MLOAD PUSH2 0x502 SWAP10 SWAP9 SWAP8 SWAP7 SWAP6 SWAP5 SWAP4 SWAP3 SWAP2 SWAP1 PUSH2 0x40EF JUMP JUMPDEST PUSH1 0x40 MLOAD DUP1 SWAP2 SUB SWAP1 RETURN JUMPDEST CALLVALUE DUP1 ISZERO PUSH2 0x517 JUMPI PUSH1 0x0 DUP1 REVERT JUMPDEST POP PUSH2 0x532 PUSH1 0x4 DUP1 CALLDATASIZE SUB DUP2 ADD SWAP1 PUSH2 0x52D SWAP2 SWAP1 PUSH2 0x3A00 JUMP JUMPDEST PUSH2 0x2840 JUMP JUMPDEST STOP JUMPDEST CALLVALUE DUP1 ISZERO PUSH2 0x540 JUMPI PUSH1 0x0 DUP1 REVERT JUMPDEST POP PUSH2 0x549 PUSH2 0x2986 JUMP JUMPDEST PUSH1 0x40 MLOAD PUSH2 0x556 SWAP2 SWAP1 PUSH2 0x39A5 JUMP JUMPDEST PUSH1 0x40 MLOAD DUP1 SWAP2 SUB SWAP1 RETURN JUMPDEST CALLVALUE DUP1 ISZERO PUSH2 0x56B JUMPI PUSH1 0x0 DUP1 REVERT JUMPDEST POP PUSH2 0x586 PUSH1 0x4 DUP1 CALLDATASIZE SUB DUP2 ADD SWAP1 PUSH2 0x581 SWAP2 SWAP1 PUSH2 0x3A00 JUMP JUMPDEST PUSH2 0x29AA JUMP JUMPDEST PUSH1 0x40 MLOAD PUSH2 0x596 SWAP5 SWAP4 SWAP3 SWAP2 SWAP1 PUSH2 0x4191 JUMP JUMPDEST PUSH1 0x40 MLOAD DUP1 SWAP2 SUB SWAP1 RETURN JUMPDEST CALLVALUE DUP1 ISZERO PUSH2 0x5AB JUMPI PUSH1 0x0 DUP1 REVERT JUMPDEST POP PUSH2 0x5C6 PUSH1 0x4 DUP1 CALLDATASIZE SUB DUP2 ADD SWAP1 PUSH2 0x5C1 SWAP2 SWAP1 PUSH2 0x3A59 JUMP JUMPDEST PUSH2 0x29FA JUMP JUMPDEST PUSH1 0x40 MLOAD PUSH2 0x5D5 SWAP4 SWAP3 SWAP2 SWAP1 PUSH2 0x41D6 JUMP JUMPDEST PUSH1 0x40 MLOAD DUP1 SWAP2 SUB SWAP1 RETURN JUMPDEST CALLVALUE DUP1 ISZERO PUSH2 0x5EA JUMPI PUSH1 0x0 DUP1 REVERT JUMPDEST POP PUSH2 0x605 PUSH1 0x4 DUP1 CALLDATASIZE SUB DUP2 ADD SWAP1 PUSH2 0x600 SWAP2 SWAP1 PUSH2 0x42AE JUMP JUMPDEST PUSH2 0x2A44 JUMP JUMPDEST STOP JUMPDEST CALLVALUE DUP1 ISZERO PUSH2 0x613 JUMPI PUSH1 0x0 DUP1 REVERT JUMPDEST POP PUSH2 0x62E PUSH1 0x4 DUP1 CALLDATASIZE SUB DUP2 ADD SWAP1 PUSH2 0x629 SWAP2 SWAP1 PUSH2 0x3A00 JUMP JUMPDEST PUSH2 0x2D20 JUMP JUMPDEST PUSH1 0x40 MLOAD PUSH2 0x63B SWAP2 SWAP1 PUSH2 0x3E8F JUMP JUMPDEST PUSH1 0x40 MLOAD DUP1 SWAP2 SUB SWAP1 RETURN JUMPDEST CALLVALUE DUP1 ISZERO PUSH2 0x650 JUMPI PUSH1 0x0 DUP1 REVERT JUMPDEST POP PUSH2 0x659 PUSH2 0x2D5F JUMP JUMPDEST PUSH1 0x40 MLOAD PUSH2 0x666 SWAP2 SWAP1 PUSH2 0x4453 JUMP JUMPDEST PUSH1 0x40 MLOAD DUP1 SWAP2 SUB SWAP1 RETURN JUMPDEST CALLVALUE DUP1 ISZERO PUSH2 0x67B JUMPI PUSH1 0x0 DUP1 REVERT JUMPDEST POP PUSH2 0x696 PUSH1 0x4 DUP1 CALLDATASIZE SUB DUP2 ADD SWAP1 PUSH2 0x691 SWAP2 SWAP1 PUSH2 0x3A59 JUMP JUMPDEST PUSH2 0x2DED JUMP JUMPDEST PUSH1 0x40 MLOAD PUSH2 0x6A3 SWAP2 SWAP1 PUSH2 0x39A5 JUMP JUMPDEST PUSH1 0x40 MLOAD DUP1 SWAP2 SUB SWAP1 RETURN JUMPDEST CALLVALUE DUP1 ISZERO PUSH2 0x6B8 JUMPI PUSH1 0x0 DUP1 REVERT JUMPDEST POP PUSH2 0x6D3 PUSH1 0x4 DUP1 CALLDATASIZE SUB DUP2 ADD SWAP1 PUSH2 0x6CE SWAP2 SWAP1 PUSH2 0x3A59 JUMP JUMPDEST PUSH2 0x2E05 JUMP JUMPDEST PUSH1 0x40 MLOAD PUSH2 0x6E0 SWAP2 SWAP1 PUSH2 0x39A5 JUMP JUMPDEST PUSH1 0x40 MLOAD DUP1 SWAP2 SUB SWAP1 RETURN JUMPDEST CALLVALUE DUP1 ISZERO PUSH2 0x6F5 JUMPI PUSH1 0x0 DUP1 REVERT JUMPDEST POP PUSH2 0x710 PUSH1 0x4 DUP1 CALLDATASIZE SUB DUP2 ADD SWAP1 PUSH2 0x70B SWAP2 SWAP1 PUSH2 0x3E40 JUMP JUMPDEST PUSH2 0x2E1D JUMP JUMPDEST STOP JUMPDEST CALLVALUE DUP1 ISZERO PUSH2 0x71E JUMPI PUSH1 0x0 DUP1 REVERT JUMPDEST POP PUSH2 0x727 PUSH2 0x32D0 JUMP JUMPDEST PUSH1 0x40 MLOAD PUSH2 0x734 SWAP2 SWAP1 PUSH2 0x3E8F JUMP JUMPDEST PUSH1 0x40 MLOAD DUP1 SWAP2 SUB SWAP1 RETURN JUMPDEST CALLVALUE DUP1 ISZERO PUSH2 0x749 JUMPI PUSH1 0x0 DUP1 REVERT JUMPDEST POP PUSH2 0x752 PUSH2 0x32F4 JUMP JUMPDEST PUSH1 0x40 MLOAD PUSH2 0x75F SWAP2 SWAP1 PUSH2 0x39A5 JUMP JUMPDEST PUSH1 0x40 MLOAD DUP1 SWAP2 SUB SWAP1 RETURN JUMPDEST CALLVALUE DUP1 ISZERO PUSH2 0x774 JUMPI PUSH1 0x0 DUP1 REVERT JUMPDEST POP PUSH2 0x78F PUSH1 0x4 DUP1 CALLDATASIZE SUB DUP2 ADD SWAP1 PUSH2 0x78A SWAP2 SWAP1 PUSH2 0x3A00 JUMP JUMPDEST PUSH2 0x3302 JUMP JUMPDEST STOP JUMPDEST PUSH1 0x0 CALLVALUE GT PUSH2 0x7D4 JUMPI PUSH1 0x40 MLOAD PUSH32 0x8C379A000000000000000000000000000000000000000000000000000000000 DUP2 MSTORE PUSH1 0x4 ADD PUSH2 0x7CB SWAP1 PUSH2 0x44E7 JUMP JUMPDEST PUSH1 0x40 MLOAD DUP1 SWAP2 SUB SWAP1 REVERT JUMPDEST PUSH1 0x0 PUSH2 0x7F1 PUSH8 0xDE0B6B3A7640000 CALLVALUE PUSH2 0x34E0 SWAP1 SWAP2 SWAP1 PUSH4 0xFFFFFFFF AND JUMP JUMPDEST SWAP1 POP DUP1 PUSH1 0x1 PUSH1 0x0 SWAP1 SLOAD SWAP1 PUSH2 0x100 EXP SWAP1 DIV PUSH20 0xFFFFFFFFFFFFFFFFFFFFFFFFFFFFFFFFFFFFFFFF AND PUSH20 0xFFFFFFFFFFFFFFFFFFFFFFFFFFFFFFFFFFFFFFFF AND PUSH4 0x70A08231 ADDRESS PUSH1 0x40 MLOAD DUP3 PUSH4 0xFFFFFFFF AND PUSH1 0xE0 SHL DUP2 MSTORE PUSH1 0x4 ADD PUSH2 0x84F SWAP2 SWAP1 PUSH2 0x3E8F JUMP JUMPDEST PUSH1 0x20 PUSH1 0x40 MLOAD DUP1 DUP4 SUB DUP2 DUP7 GAS STATICCALL ISZERO DUP1 ISZERO PUSH2 0x86C JUMPI RETURNDATASIZE PUSH1 0x0 DUP1 RETURNDATACOPY RETURNDATASIZE PUSH1 0x0 REVERT JUMPDEST POP POP POP POP PUSH1 0x40 MLOAD RETURNDATASIZE PUSH1 0x1F NOT PUSH1 0x1F DUP3 ADD AND DUP3 ADD DUP1 PUSH1 0x40 MSTORE POP DUP2 ADD SWAP1 PUSH2 0x890 SWAP2 SWAP1 PUSH2 0x451C JUMP JUMPDEST LT ISZERO PUSH2 0x8D1 JUMPI PUSH1 0x40 MLOAD PUSH32 0x8C379A000000000000000000000000000000000000000000000000000000000 DUP2 MSTORE PUSH1 0x4 ADD PUSH2 0x8C8 SWAP1 PUSH2 0x4595 JUMP JUMPDEST PUSH1 0x40 MLOAD DUP1 SWAP2 SUB SWAP1 REVERT JUMPDEST PUSH1 0x1 PUSH1 0x0 SWAP1 SLOAD SWAP1 PUSH2 0x100 EXP SWAP1 DIV PUSH20 0xFFFFFFFFFFFFFFFFFFFFFFFFFFFFFFFFFFFFFFFF AND PUSH20 0xFFFFFFFFFFFFFFFFFFFFFFFFFFFFFFFFFFFFFFFF AND PUSH4 0xA9059CBB CALLER DUP4 PUSH1 0x40 MLOAD DUP4 PUSH4 0xFFFFFFFF AND PUSH1 0xE0 SHL DUP2 MSTORE PUSH1 0x4 ADD PUSH2 0x92E SWAP3 SWAP2 SWAP1 PUSH2 0x45B5 JUMP JUMPDEST PUSH1 0x20 PUSH1 0x40 MLOAD DUP1 DUP4 SUB DUP2 PUSH1 0x0 DUP8 GAS CALL ISZERO DUP1 ISZERO PUSH2 0x94D JUMPI RETURNDATASIZE PUSH1 0x0 DUP1 RETURNDATACOPY RETURNDATASIZE PUSH1 0x0 REVERT JUMPDEST POP POP POP POP PUSH1 0x40 MLOAD RETURNDATASIZE PUSH1 0x1F NOT PUSH1 0x1F DUP3 ADD AND DUP3 ADD DUP1 PUSH1 0x40 MSTORE POP DUP2 ADD SWAP1 PUSH2 0x971 SWAP2 SWAP1 PUSH2 0x45F3 JUMP JUMPDEST PUSH2 0x9B0 JUMPI PUSH1 0x40 MLOAD PUSH32 0x8C379A000000000000000000000000000000000000000000000000000000000 DUP2 MSTORE PUSH1 0x4 ADD PUSH2 0x9A7 SWAP1 PUSH2 0x466C JUMP JUMPDEST PUSH1 0x40 MLOAD DUP1 SWAP2 SUB SWAP1 REVERT JUMPDEST CALLER PUSH20 0xFFFFFFFFFFFFFFFFFFFFFFFFFFFFFFFFFFFFFFFF AND PUSH32 0x95DB8762F4600873DF8FDBC44F0E34FA831E5CC7396F3DDA3A5CD0825ACD5BDB CALLVALUE DUP4 PUSH1 0x40 MLOAD PUSH2 0x9F8 SWAP3 SWAP2 SWAP1 PUSH2 0x468C JUMP JUMPDEST PUSH1 0x40 MLOAD DUP1 SWAP2 SUB SWAP1 LOG2 POP JUMP JUMPDEST PUSH1 0x60 PUSH1 0x0 PUSH1 0x1 PUSH1 0x8 SLOAD PUSH2 0xA16 SWAP2 SWAP1 PUSH2 0x46E4 JUMP JUMPDEST PUSH8 0xFFFFFFFFFFFFFFFF DUP2 GT ISZERO PUSH2 0xA2F JUMPI PUSH2 0xA2E PUSH2 0x3B38 JUMP JUMPDEST JUMPDEST PUSH1 0x40 MLOAD SWAP1 DUP1 DUP3 MSTORE DUP1 PUSH1 0x20 MUL PUSH1 0x20 ADD DUP3 ADD PUSH1 0x40 MSTORE DUP1 ISZERO PUSH2 0xA68 JUMPI DUP2 PUSH1 0x20 ADD JUMPDEST PUSH2 0xA55 PUSH2 0x3522 JUMP JUMPDEST DUP2 MSTORE PUSH1 0x20 ADD SWAP1 PUSH1 0x1 SWAP1 SUB SWAP1 DUP2 PUSH2 0xA4D JUMPI SWAP1 POP JUMPDEST POP SWAP1 POP PUSH1 0x0 PUSH1 0x1 SWAP1 POP JUMPDEST PUSH1 0x8 SLOAD DUP2 LT ISZERO PUSH2 0xD16 JUMPI PUSH1 0x6 PUSH1 0x0 DUP3 DUP2 MSTORE PUSH1 0x20 ADD SWAP1 DUP2 MSTORE PUSH1 0x20 ADD PUSH1 0x0 KECCAK256 PUSH1 0x40 MLOAD DUP1 PUSH2 0x120 ADD PUSH1 0x40 MSTORE SWAP1 DUP2 PUSH1 0x0 DUP3 ADD SLOAD DUP2 MSTORE PUSH1 0x20 ADD PUSH1 0x1 DUP3 ADD DUP1 SLOAD PUSH2 0xAB5 SWAP1 PUSH2 0x4747 JUMP JUMPDEST DUP1 PUSH1 0x1F ADD PUSH1 0x20 DUP1 SWAP2 DIV MUL PUSH1 0x20 ADD PUSH1 0x40 MLOAD SWAP1 DUP2 ADD PUSH1 0x40 MSTORE DUP1 SWAP3 SWAP2 SWAP1 DUP2 DUP2 MSTORE PUSH1 0x20 ADD DUP3 DUP1 SLOAD PUSH2 0xAE1 SWAP1 PUSH2 0x4747 JUMP JUMPDEST DUP1 ISZERO PUSH2 0xB2E JUMPI DUP1 PUSH1 0x1F LT PUSH2 0xB03 JUMPI PUSH2 0x100 DUP1 DUP4 SLOAD DIV MUL DUP4 MSTORE SWAP2 PUSH1 0x20 ADD SWAP2 PUSH2 0xB2E JUMP JUMPDEST DUP3 ADD SWAP2 SWAP1 PUSH1 0x0 MSTORE PUSH1 0x20 PUSH1 0x0 KECCAK256 SWAP1 JUMPDEST DUP2 SLOAD DUP2 MSTORE SWAP1 PUSH1 0x1 ADD SWAP1 PUSH1 0x20 ADD DUP1 DUP4 GT PUSH2 0xB11 JUMPI DUP3 SWAP1 SUB PUSH1 0x1F AND DUP3 ADD SWAP2 JUMPDEST POP POP POP POP POP DUP2 MSTORE PUSH1 0x20 ADD PUSH1 0x2 DUP3 ADD DUP1 SLOAD PUSH2 0xB47 SWAP1 PUSH2 0x4747 JUMP JUMPDEST DUP1 PUSH1 0x1F ADD PUSH1 0x20 DUP1 SWAP2 DIV MUL PUSH1 0x20 ADD PUSH1 0x40 MLOAD SWAP1 DUP2 ADD PUSH1 0x40 MSTORE DUP1 SWAP3 SWAP2 SWAP1 DUP2 DUP2 MSTORE PUSH1 0x20 ADD DUP3 DUP1 SLOAD PUSH2 0xB73 SWAP1 PUSH2 0x4747 JUMP JUMPDEST DUP1 ISZERO PUSH2 0xBC0 JUMPI DUP1 PUSH1 0x1F LT PUSH2 0xB95 JUMPI PUSH2 0x100 DUP1 DUP4 SLOAD DIV MUL DUP4 MSTORE SWAP2 PUSH1 0x20 ADD SWAP2 PUSH2 0xBC0 JUMP JUMPDEST DUP3 ADD SWAP2 SWAP1 PUSH1 0x0 MSTORE PUSH1 0x20 PUSH1 0x0 KECCAK256 SWAP1 JUMPDEST DUP2 SLOAD DUP2 MSTORE SWAP1 PUSH1 0x1 ADD SWAP1 PUSH1 0x20 ADD DUP1 DUP4 GT PUSH2 0xBA3 JUMPI DUP3 SWAP1 SUB PUSH1 0x1F AND DUP3 ADD SWAP2 JUMPDEST POP POP POP POP POP DUP2 MSTORE PUSH1 0x20 ADD PUSH1 0x3 DUP3 ADD SLOAD DUP2 MSTORE PUSH1 0x20 ADD PUSH1 0x4 DUP3 ADD PUSH1 0x0 SWAP1 SLOAD SWAP1 PUSH2 0x100 EXP SWAP1 DIV PUSH20 0xFFFFFFFFFFFFFFFFFFFFFFFFFFFFFFFFFFFFFFFF AND PUSH20 0xFFFFFFFFFFFFFFFFFFFFFFFFFFFFFFFFFFFFFFFF AND PUSH20 0xFFFFFFFFFFFFFFFFFFFFFFFFFFFFFFFFFFFFFFFF AND DUP2 MSTORE PUSH1 0x20 ADD PUSH1 0x5 DUP3 ADD SLOAD DUP2 MSTORE PUSH1 0x20 ADD PUSH1 0x6 DUP3 ADD SLOAD DUP2 MSTORE PUSH1 0x20 ADD PUSH1 0x7 DUP3 ADD SLOAD DUP2 MSTORE PUSH1 0x20 ADD PUSH1 0x8 DUP3 ADD DUP1 SLOAD PUSH2 0xC57 SWAP1 PUSH2 0x4747 JUMP JUMPDEST DUP1 PUSH1 0x1F ADD PUSH1 0x20 DUP1 SWAP2 DIV MUL PUSH1 0x20 ADD PUSH1 0x40 MLOAD SWAP1 DUP2 ADD PUSH1 0x40 MSTORE DUP1 SWAP3 SWAP2 SWAP1 DUP2 DUP2 MSTORE PUSH1 0x20 ADD DUP3 DUP1 SLOAD PUSH2 0xC83 SWAP1 PUSH2 0x4747 JUMP JUMPDEST DUP1 ISZERO PUSH2 0xCD0 JUMPI DUP1 PUSH1 0x1F LT PUSH2 0xCA5 JUMPI PUSH2 0x100 DUP1 DUP4 SLOAD DIV MUL DUP4 MSTORE SWAP2 PUSH1 0x20 ADD SWAP2 PUSH2 0xCD0 JUMP JUMPDEST DUP3 ADD SWAP2 SWAP1 PUSH1 0x0 MSTORE PUSH1 0x20 PUSH1 0x0 KECCAK256 SWAP1 JUMPDEST DUP2 SLOAD DUP2 MSTORE SWAP1 PUSH1 0x1 ADD SWAP1 PUSH1 0x20 ADD DUP1 DUP4 GT PUSH2 0xCB3 JUMPI DUP3 SWAP1 SUB PUSH1 0x1F AND DUP3 ADD SWAP2 JUMPDEST POP POP POP POP POP DUP2 MSTORE POP POP DUP3 PUSH1 0x1 DUP4 PUSH2 0xCE7 SWAP2 SWAP1 PUSH2 0x46E4 JUMP JUMPDEST DUP2 MLOAD DUP2 LT PUSH2 0xCF8 JUMPI PUSH2 0xCF7 PUSH2 0x4778 JUMP JUMPDEST JUMPDEST PUSH1 0x20 MUL PUSH1 0x20 ADD ADD DUP2 SWAP1 MSTORE POP DUP1 DUP1 PUSH2 0xD0E SWAP1 PUSH2 0x47A7 JUMP JUMPDEST SWAP2 POP POP PUSH2 0xA72 JUMP JUMPDEST POP DUP1 SWAP2 POP POP SWAP1 JUMP JUMPDEST PUSH1 0x2 SLOAD DUP2 JUMP JUMPDEST PUSH1 0x9 SLOAD DUP2 JUMP JUMPDEST PUSH1 0x0 DUP1 SLOAD SWAP1 PUSH2 0x100 EXP SWAP1 DIV PUSH20 0xFFFFFFFFFFFFFFFFFFFFFFFFFFFFFFFFFFFFFFFF AND PUSH20 0xFFFFFFFFFFFFFFFFFFFFFFFFFFFFFFFFFFFFFFFF AND CALLER PUSH20 0xFFFFFFFFFFFFFFFFFFFFFFFFFFFFFFFFFFFFFFFF AND EQ PUSH2 0xDB8 JUMPI PUSH1 0x40 MLOAD PUSH32 0x8C379A000000000000000000000000000000000000000000000000000000000 DUP2 MSTORE PUSH1 0x4 ADD PUSH2 0xDAF SWAP1 PUSH2 0x4861 JUMP JUMPDEST PUSH1 0x40 MLOAD DUP1 SWAP2 SUB SWAP1 REVERT JUMPDEST PUSH1 0x1 PUSH1 0x0 SWAP1 SLOAD SWAP1 PUSH2 0x100 EXP SWAP1 DIV PUSH20 0xFFFFFFFFFFFFFFFFFFFFFFFFFFFFFFFFFFFFFFFF AND PUSH20 0xFFFFFFFFFFFFFFFFFFFFFFFFFFFFFFFFFFFFFFFF AND PUSH4 0xA9059CBB PUSH1 0x0 DUP1 SLOAD SWAP1 PUSH2 0x100 EXP SWAP1 DIV PUSH20 0xFFFFFFFFFFFFFFFFFFFFFFFFFFFFFFFFFFFFFFFF AND DUP4 PUSH1 0x40 MLOAD DUP4 PUSH4 0xFFFFFFFF AND PUSH1 0xE0 SHL DUP2 MSTORE PUSH1 0x4 ADD PUSH2 0xE35 SWAP3 SWAP2 SWAP1 PUSH2 0x45B5 JUMP JUMPDEST PUSH1 0x20 PUSH1 0x40 MLOAD DUP1 DUP4 SUB DUP2 PUSH1 0x0 DUP8 GAS CALL ISZERO DUP1 ISZERO PUSH2 0xE54 JUMPI RETURNDATASIZE PUSH1 0x0 DUP1 RETURNDATACOPY RETURNDATASIZE PUSH1 0x0 REVERT JUMPDEST POP POP POP POP PUSH1 0x40 MLOAD RETURNDATASIZE PUSH1 0x1F NOT PUSH1 0x1F DUP3 ADD AND DUP3 ADD DUP1 PUSH1 0x40 MSTORE POP DUP2 ADD SWAP1 PUSH2 0xE78 SWAP2 SWAP1 PUSH2 0x45F3 JUMP JUMPDEST POP CALLER PUSH20 0xFFFFFFFFFFFFFFFFFFFFFFFFFFFFFFFFFFFFFFFF AND PUSH32 0x6352C5382C4A4578E712449CA65E83CDB392D045DFCF1CAD9615189DB2DA244B DUP3 PUSH1 0x40 MLOAD PUSH2 0xEBF SWAP2 SWAP1 PUSH2 0x39A5 JUMP JUMPDEST PUSH1 0x40 MLOAD DUP1 SWAP2 SUB SWAP1 LOG2 POP JUMP JUMPDEST PUSH1 0x0 DUP1 SLOAD SWAP1 PUSH2 0x100 EXP SWAP1 DIV PUSH20 0xFFFFFFFFFFFFFFFFFFFFFFFFFFFFFFFFFFFFFFFF AND PUSH20 0xFFFFFFFFFFFFFFFFFFFFFFFFFFFFFFFFFFFFFFFF AND CALLER PUSH20 0xFFFFFFFFFFFFFFFFFFFFFFFFFFFFFFFFFFFFFFFF AND EQ PUSH2 0xF58 JUMPI PUSH1 0x40 MLOAD PUSH32 0x8C379A000000000000000000000000000000000000000000000000000000000 DUP2 MSTORE PUSH1 0x4 ADD PUSH2 0xF4F SWAP1 PUSH2 0x4861 JUMP JUMPDEST PUSH1 0x40 MLOAD DUP1 SWAP2 SUB SWAP1 REVERT JUMPDEST DUP1 PUSH1 0x1 PUSH1 0x0 PUSH2 0x100 EXP DUP2 SLOAD DUP2 PUSH20 0xFFFFFFFFFFFFFFFFFFFFFFFFFFFFFFFFFFFFFFFF MUL NOT AND SWAP1 DUP4 PUSH20 0xFFFFFFFFFFFFFFFFFFFFFFFFFFFFFFFFFFFFFFFF AND MUL OR SWAP1 SSTORE POP CALLER PUSH20 0xFFFFFFFFFFFFFFFFFFFFFFFFFFFFFFFFFFFFFFFF AND PUSH32 0x6ECA818BB499E114C9A2EAD8C104A976418F0CA9C27FD7EAD167E9125E613D45 DUP3 PUSH1 0x40 MLOAD PUSH2 0xFDF SWAP2 SWAP1 PUSH2 0x3E8F JUMP JUMPDEST PUSH1 0x40 MLOAD DUP1 SWAP2 SUB SWAP1 LOG2 POP JUMP JUMPDEST PUSH1 0x0 PUSH2 0x1004 PUSH1 0x40 MLOAD DUP1 PUSH1 0x20 ADD PUSH1 0x40 MSTORE DUP1 PUSH1 0x0 DUP2 MSTORE POP PUSH2 0x2175 JUMP JUMPDEST POP SWAP1 POP DUP1 PUSH2 0x1047 JUMPI PUSH1 0x40 MLOAD PUSH32 0x8C379A000000000000000000000000000000000000000000000000000000000 DUP2 MSTORE PUSH1 0x4 ADD PUSH2 0x103E SWAP1 PUSH2 0x48CD JUMP JUMPDEST PUSH1 0x40 MLOAD DUP1 SWAP2 SUB SWAP1 REVERT JUMPDEST PUSH1 0x0 DUP4 DUP4 DUP2 ADD SWAP1 PUSH2 0x1058 SWAP2 SWAP1 PUSH2 0x49B0 JUMP JUMPDEST SWAP1 POP DUP1 PUSH1 0x3 SWAP1 DUP1 MLOAD SWAP1 PUSH1 0x20 ADD SWAP1 PUSH2 0x1070 SWAP3 SWAP2 SWAP1 PUSH2 0x3584 JUMP JUMPDEST POP TIMESTAMP PUSH1 0x2 DUP2 SWAP1 SSTORE POP POP POP POP POP JUMP JUMPDEST DUP4 MLOAD DUP6 MLOAD EQ PUSH2 0x10C2 JUMPI PUSH1 0x40 MLOAD PUSH32 0x8C379A000000000000000000000000000000000000000000000000000000000 DUP2 MSTORE PUSH1 0x4 ADD PUSH2 0x10B9 SWAP1 PUSH2 0x4A6B JUMP JUMPDEST PUSH1 0x40 MLOAD DUP1 SWAP2 SUB SWAP1 REVERT JUMPDEST PUSH1 0x0 PUSH1 0x64 PUSH1 0x5 DUP5 PUSH2 0x10D3 SWAP2 SWAP1 PUSH2 0x4A8B JUMP JUMPDEST PUSH2 0x10DD SWAP2 SWAP1 PUSH2 0x4AFC JUMP JUMPDEST SWAP1 POP PUSH1 0x0 DUP3 DUP5 PUSH2 0x10ED SWAP2 SWAP1 PUSH2 0x46E4 JUMP JUMPDEST SWAP1 POP DUP1 CALLVALUE LT ISZERO PUSH2 0x1132 JUMPI PUSH1 0x40 MLOAD PUSH32 0x8C379A000000000000000000000000000000000000000000000000000000000 DUP2 MSTORE PUSH1 0x4 ADD PUSH2 0x1129 SWAP1 PUSH2 0x4B79 JUMP JUMPDEST PUSH1 0x40 MLOAD DUP1 SWAP2 SUB SWAP1 REVERT JUMPDEST ADDRESS PUSH20 0xFFFFFFFFFFFFFFFFFFFFFFFFFFFFFFFFFFFFFFFF AND PUSH2 0x8FC DUP4 SWAP1 DUP2 ISZERO MUL SWAP1 PUSH1 0x40 MLOAD PUSH1 0x0 PUSH1 0x40 MLOAD DUP1 DUP4 SUB DUP2 DUP6 DUP9 DUP9 CALL SWAP4 POP POP POP POP ISZERO DUP1 ISZERO PUSH2 0x1178 JUMPI RETURNDATASIZE PUSH1 0x0 DUP1 RETURNDATACOPY RETURNDATASIZE PUSH1 0x0 REVERT JUMPDEST POP PUSH1 0x0 JUMPDEST DUP8 MLOAD DUP2 LT ISZERO PUSH2 0x1A83 JUMPI PUSH1 0x0 PUSH1 0x6 PUSH1 0x0 DUP11 DUP5 DUP2 MLOAD DUP2 LT PUSH2 0x119E JUMPI PUSH2 0x119D PUSH2 0x4778 JUMP JUMPDEST JUMPDEST PUSH1 0x20 MUL PUSH1 0x20 ADD ADD MLOAD DUP2 MSTORE PUSH1 0x20 ADD SWAP1 DUP2 MSTORE PUSH1 0x20 ADD PUSH1 0x0 KECCAK256 PUSH1 0x40 MLOAD DUP1 PUSH2 0x120 ADD PUSH1 0x40 MSTORE SWAP1 DUP2 PUSH1 0x0 DUP3 ADD SLOAD DUP2 MSTORE PUSH1 0x20 ADD PUSH1 0x1 DUP3 ADD DUP1 SLOAD PUSH2 0x11DA SWAP1 PUSH2 0x4747 JUMP JUMPDEST DUP1 PUSH1 0x1F ADD PUSH1 0x20 DUP1 SWAP2 DIV MUL PUSH1 0x20 ADD PUSH1 0x40 MLOAD SWAP1 DUP2 ADD PUSH1 0x40 MSTORE DUP1 SWAP3 SWAP2 SWAP1 DUP2 DUP2 MSTORE PUSH1 0x20 ADD DUP3 DUP1 SLOAD PUSH2 0x1206 SWAP1 PUSH2 0x4747 JUMP JUMPDEST DUP1 ISZERO PUSH2 0x1253 JUMPI DUP1 PUSH1 0x1F LT PUSH2 0x1228 JUMPI PUSH2 0x100 DUP1 DUP4 SLOAD DIV MUL DUP4 MSTORE SWAP2 PUSH1 0x20 ADD SWAP2 PUSH2 0x1253 JUMP JUMPDEST DUP3 ADD SWAP2 SWAP1 PUSH1 0x0 MSTORE PUSH1 0x20 PUSH1 0x0 KECCAK256 SWAP1 JUMPDEST DUP2 SLOAD DUP2 MSTORE SWAP1 PUSH1 0x1 ADD SWAP1 PUSH1 0x20 ADD DUP1 DUP4 GT PUSH2 0x1236 JUMPI DUP3 SWAP1 SUB PUSH1 0x1F AND DUP3 ADD SWAP2 JUMPDEST POP POP POP POP POP DUP2 MSTORE PUSH1 0x20 ADD PUSH1 0x2 DUP3 ADD DUP1 SLOAD PUSH2 0x126C SWAP1 PUSH2 0x4747 JUMP JUMPDEST DUP1 PUSH1 0x1F ADD PUSH1 0x20 DUP1 SWAP2 DIV MUL PUSH1 0x20 ADD PUSH1 0x40 MLOAD SWAP1 DUP2 ADD PUSH1 0x40 MSTORE DUP1 SWAP3 SWAP2 SWAP1 DUP2 DUP2 MSTORE PUSH1 0x20 ADD DUP3 DUP1 SLOAD PUSH2 0x1298 SWAP1 PUSH2 0x4747 JUMP JUMPDEST DUP1 ISZERO PUSH2 0x12E5 JUMPI DUP1 PUSH1 0x1F LT PUSH2 0x12BA JUMPI PUSH2 0x100 DUP1 DUP4 SLOAD DIV MUL DUP4 MSTORE SWAP2 PUSH1 0x20 ADD SWAP2 PUSH2 0x12E5 JUMP JUMPDEST DUP3 ADD SWAP2 SWAP1 PUSH1 0x0 MSTORE PUSH1 0x20 PUSH1 0x0 KECCAK256 SWAP1 JUMPDEST DUP2 SLOAD DUP2 MSTORE SWAP1 PUSH1 0x1 ADD SWAP1 PUSH1 0x20 ADD DUP1 DUP4 GT PUSH2 0x12C8 JUMPI DUP3 SWAP1 SUB PUSH1 0x1F AND DUP3 ADD SWAP2 JUMPDEST POP POP POP POP POP DUP2 MSTORE PUSH1 0x20 ADD PUSH1 0x3 DUP3 ADD SLOAD DUP2 MSTORE PUSH1 0x20 ADD PUSH1 0x4 DUP3 ADD PUSH1 0x0 SWAP1 SLOAD SWAP1 PUSH2 0x100 EXP SWAP1 DIV PUSH20 0xFFFFFFFFFFFFFFFFFFFFFFFFFFFFFFFFFFFFFFFF AND PUSH20 0xFFFFFFFFFFFFFFFFFFFFFFFFFFFFFFFFFFFFFFFF AND PUSH20 0xFFFFFFFFFFFFFFFFFFFFFFFFFFFFFFFFFFFFFFFF AND DUP2 MSTORE PUSH1 0x20 ADD PUSH1 0x5 DUP3 ADD SLOAD DUP2 MSTORE PUSH1 0x20 ADD PUSH1 0x6 DUP3 ADD SLOAD DUP2 MSTORE PUSH1 0x20 ADD PUSH1 0x7 DUP3 ADD SLOAD DUP2 MSTORE PUSH1 0x20 ADD PUSH1 0x8 DUP3 ADD DUP1 SLOAD PUSH2 0x137C SWAP1 PUSH2 0x4747 JUMP JUMPDEST DUP1 PUSH1 0x1F ADD PUSH1 0x20 DUP1 SWAP2 DIV MUL PUSH1 0x20 ADD PUSH1 0x40 MLOAD SWAP1 DUP2 ADD PUSH1 0x40 MSTORE DUP1 SWAP3 SWAP2 SWAP1 DUP2 DUP2 MSTORE PUSH1 0x20 ADD DUP3 DUP1 SLOAD PUSH2 0x13A8 SWAP1 PUSH2 0x4747 JUMP JUMPDEST DUP1 ISZERO PUSH2 0x13F5 JUMPI DUP1 PUSH1 0x1F LT PUSH2 0x13CA JUMPI PUSH2 0x100 DUP1 DUP4 SLOAD DIV MUL DUP4 MSTORE SWAP2 PUSH1 0x20 ADD SWAP2 PUSH2 0x13F5 JUMP JUMPDEST DUP3 ADD SWAP2 SWAP1 PUSH1 0x0 MSTORE PUSH1 0x20 PUSH1 0x0 KECCAK256 SWAP1 JUMPDEST DUP2 SLOAD DUP2 MSTORE SWAP1 PUSH1 0x1 ADD SWAP1 PUSH1 0x20 ADD DUP1 DUP4 GT PUSH2 0x13D8 JUMPI DUP3 SWAP1 SUB PUSH1 0x1F AND DUP3 ADD SWAP2 JUMPDEST POP POP POP POP POP DUP2 MSTORE POP POP SWAP1 POP PUSH1 0x0 DUP9 DUP4 DUP2 MLOAD DUP2 LT PUSH2 0x1415 JUMPI PUSH2 0x1414 PUSH2 0x4778 JUMP JUMPDEST JUMPDEST PUSH1 0x20 MUL PUSH1 0x20 ADD ADD MLOAD DUP3 PUSH1 0xA0 ADD MLOAD PUSH2 0x142C SWAP2 SWAP1 PUSH2 0x4A8B JUMP JUMPDEST SWAP1 POP PUSH1 0x0 PUSH1 0xA DUP3 PUSH2 0x143D SWAP2 SWAP1 PUSH2 0x4AFC JUMP JUMPDEST SWAP1 POP PUSH2 0x1494 DUP2 PUSH1 0x4 PUSH1 0x0 CALLER PUSH20 0xFFFFFFFFFFFFFFFFFFFFFFFFFFFFFFFFFFFFFFFF AND PUSH20 0xFFFFFFFFFFFFFFFFFFFFFFFFFFFFFFFFFFFFFFFF AND DUP2 MSTORE PUSH1 0x20 ADD SWAP1 DUP2 MSTORE PUSH1 0x20 ADD PUSH1 0x0 KECCAK256 PUSH1 0x2 ADD SLOAD PUSH2 0x34F6 SWAP1 SWAP2 SWAP1 PUSH4 0xFFFFFFFF AND JUMP JUMPDEST PUSH1 0x4 PUSH1 0x0 CALLER PUSH20 0xFFFFFFFFFFFFFFFFFFFFFFFFFFFFFFFFFFFFFFFF AND PUSH20 0xFFFFFFFFFFFFFFFFFFFFFFFFFFFFFFFFFFFFFFFF AND DUP2 MSTORE PUSH1 0x20 ADD SWAP1 DUP2 MSTORE PUSH1 0x20 ADD PUSH1 0x0 KECCAK256 PUSH1 0x2 ADD DUP2 SWAP1 SSTORE POP CALLER PUSH20 0xFFFFFFFFFFFFFFFFFFFFFFFFFFFFFFFFFFFFFFFF AND PUSH32 0x2C4C0DC427A50C4A69D2FC184C47A311ACF950D8D2F289FBAEE64E83E9B28967 DUP3 PUSH1 0x40 MLOAD PUSH2 0x1520 SWAP2 SWAP1 PUSH2 0x39A5 JUMP JUMPDEST PUSH1 0x40 MLOAD DUP1 SWAP2 SUB SWAP1 LOG2 DUP9 DUP5 DUP2 MLOAD DUP2 LT PUSH2 0x153B JUMPI PUSH2 0x153A PUSH2 0x4778 JUMP JUMPDEST JUMPDEST PUSH1 0x20 MUL PUSH1 0x20 ADD ADD MLOAD ISZERO PUSH2 0x16C9 JUMPI DUP3 PUSH1 0x80 ADD MLOAD PUSH20 0xFFFFFFFFFFFFFFFFFFFFFFFFFFFFFFFFFFFFFFFF AND PUSH2 0x8FC PUSH1 0x64 PUSH1 0x5 DUP6 PUSH2 0x1575 SWAP2 SWAP1 PUSH2 0x4A8B JUMP JUMPDEST PUSH2 0x157F SWAP2 SWAP1 PUSH2 0x4AFC JUMP JUMPDEST DUP5 PUSH2 0x158A SWAP2 SWAP1 PUSH2 0x46E4 JUMP JUMPDEST SWAP1 DUP2 ISZERO MUL SWAP1 PUSH1 0x40 MLOAD PUSH1 0x0 PUSH1 0x40 MLOAD DUP1 DUP4 SUB DUP2 DUP6 DUP9 DUP9 CALL SWAP4 POP POP POP POP ISZERO DUP1 ISZERO PUSH2 0x15B5 JUMPI RETURNDATASIZE PUSH1 0x0 DUP1 RETURNDATACOPY RETURNDATASIZE PUSH1 0x0 REVERT JUMPDEST POP PUSH1 0x1 PUSH1 0x0 SWAP1 SLOAD SWAP1 PUSH2 0x100 EXP SWAP1 DIV PUSH20 0xFFFFFFFFFFFFFFFFFFFFFFFFFFFFFFFFFFFFFFFF AND PUSH20 0xFFFFFFFFFFFFFFFFFFFFFFFFFFFFFFFFFFFFFFFF AND PUSH4 0x23B872DD DUP5 PUSH1 0x80 ADD MLOAD CALLER DUP14 DUP9 DUP2 MLOAD DUP2 LT PUSH2 0x160D JUMPI PUSH2 0x160C PUSH2 0x4778 JUMP JUMPDEST JUMPDEST PUSH1 0x20 MUL PUSH1 0x20 ADD ADD MLOAD DUP8 PUSH1 0xC0 ADD MLOAD PUSH2 0x1624 SWAP2 SWAP1 PUSH2 0x4A8B JUMP JUMPDEST PUSH1 0x40 MLOAD DUP5 PUSH4 0xFFFFFFFF AND PUSH1 0xE0 SHL DUP2 MSTORE PUSH1 0x4 ADD PUSH2 0x1642 SWAP4 SWAP3 SWAP2 SWAP1 PUSH2 0x4B99 JUMP JUMPDEST PUSH1 0x20 PUSH1 0x40 MLOAD DUP1 DUP4 SUB DUP2 PUSH1 0x0 DUP8 GAS CALL ISZERO DUP1 ISZERO PUSH2 0x1661 JUMPI RETURNDATASIZE PUSH1 0x0 DUP1 RETURNDATACOPY RETURNDATASIZE PUSH1 0x0 REVERT JUMPDEST POP POP POP POP PUSH1 0x40 MLOAD RETURNDATASIZE PUSH1 0x1F NOT PUSH1 0x1F DUP3 ADD AND DUP3 ADD DUP1 PUSH1 0x40 MSTORE POP DUP2 ADD SWAP1 PUSH2 0x1685 SWAP2 SWAP1 PUSH2 0x45F3 JUMP JUMPDEST PUSH2 0x16C4 JUMPI PUSH1 0x40 MLOAD PUSH32 0x8C379A000000000000000000000000000000000000000000000000000000000 DUP2 MSTORE PUSH1 0x4 ADD PUSH2 0x16BB SWAP1 PUSH2 0x4C1C JUMP JUMPDEST PUSH1 0x40 MLOAD DUP1 SWAP2 SUB SWAP1 REVERT JUMPDEST PUSH2 0x187A JUMP JUMPDEST DUP3 PUSH1 0x80 ADD MLOAD PUSH20 0xFFFFFFFFFFFFFFFFFFFFFFFFFFFFFFFFFFFFFFFF AND PUSH2 0x8FC PUSH1 0x64 PUSH1 0x5 DUP6 PUSH2 0x16F6 SWAP2 SWAP1 PUSH2 0x4A8B JUMP JUMPDEST PUSH2 0x1700 SWAP2 SWAP1 PUSH2 0x4AFC JUMP JUMPDEST DUP13 DUP8 DUP2 MLOAD DUP2 LT PUSH2 0x1713 JUMPI PUSH2 0x1712 PUSH2 0x4778 JUMP JUMPDEST JUMPDEST PUSH1 0x20 MUL PUSH1 0x20 ADD ADD MLOAD DUP7 PUSH1 0xE0 ADD MLOAD PUSH2 0x172A SWAP2 SWAP1 PUSH2 0x4A8B JUMP JUMPDEST DUP6 PUSH2 0x1735 SWAP2 SWAP1 PUSH2 0x46E4 JUMP JUMPDEST PUSH2 0x173F SWAP2 SWAP1 PUSH2 0x46E4 JUMP JUMPDEST SWAP1 DUP2 ISZERO MUL SWAP1 PUSH1 0x40 MLOAD PUSH1 0x0 PUSH1 0x40 MLOAD DUP1 DUP4 SUB DUP2 DUP6 DUP9 DUP9 CALL SWAP4 POP POP POP POP ISZERO DUP1 ISZERO PUSH2 0x176A JUMPI RETURNDATASIZE PUSH1 0x0 DUP1 RETURNDATACOPY RETURNDATASIZE PUSH1 0x0 REVERT JUMPDEST POP PUSH1 0x1 PUSH1 0x0 SWAP1 SLOAD SWAP1 PUSH2 0x100 EXP SWAP1 DIV PUSH20 0xFFFFFFFFFFFFFFFFFFFFFFFFFFFFFFFFFFFFFFFF AND PUSH20 0xFFFFFFFFFFFFFFFFFFFFFFFFFFFFFFFFFFFFFFFF AND PUSH4 0x23B872DD CALLER DUP6 PUSH1 0x80 ADD MLOAD DUP14 DUP9 DUP2 MLOAD DUP2 LT PUSH2 0x17C2 JUMPI PUSH2 0x17C1 PUSH2 0x4778 JUMP JUMPDEST JUMPDEST PUSH1 0x20 MUL PUSH1 0x20 ADD ADD MLOAD DUP8 PUSH1 0xE0 ADD MLOAD PUSH2 0x17D9 SWAP2 SWAP1 PUSH2 0x4A8B JUMP JUMPDEST PUSH1 0x40 MLOAD DUP5 PUSH4 0xFFFFFFFF AND PUSH1 0xE0 SHL DUP2 MSTORE PUSH1 0x4 ADD PUSH2 0x17F7 SWAP4 SWAP3 SWAP2 SWAP1 PUSH2 0x4B99 JUMP JUMPDEST PUSH1 0x20 PUSH1 0x40 MLOAD DUP1 DUP4 SUB DUP2 PUSH1 0x0 DUP8 GAS CALL ISZERO DUP1 ISZERO PUSH2 0x1816 JUMPI RETURNDATASIZE PUSH1 0x0 DUP1 RETURNDATACOPY RETURNDATASIZE PUSH1 0x0 REVERT JUMPDEST POP POP POP POP PUSH1 0x40 MLOAD RETURNDATASIZE PUSH1 0x1F NOT PUSH1 0x1F DUP3 ADD AND DUP3 ADD DUP1 PUSH1 0x40 MSTORE POP DUP2 ADD SWAP1 PUSH2 0x183A SWAP2 SWAP1 PUSH2 0x45F3 JUMP JUMPDEST PUSH2 0x1879 JUMPI PUSH1 0x40 MLOAD PUSH32 0x8C379A000000000000000000000000000000000000000000000000000000000 DUP2 MSTORE PUSH1 0x4 ADD PUSH2 0x1870 SWAP1 PUSH2 0x4C88 JUMP JUMPDEST PUSH1 0x40 MLOAD DUP1 SWAP2 SUB SWAP1 REVERT JUMPDEST JUMPDEST PUSH1 0x40 MLOAD DUP1 PUSH1 0x80 ADD PUSH1 0x40 MSTORE DUP1 PUSH1 0x9 SLOAD DUP2 MSTORE PUSH1 0x20 ADD CALLER PUSH20 0xFFFFFFFFFFFFFFFFFFFFFFFFFFFFFFFFFFFFFFFF AND DUP2 MSTORE PUSH1 0x20 ADD DUP13 DUP7 DUP2 MLOAD DUP2 LT PUSH2 0x18BC JUMPI PUSH2 0x18BB PUSH2 0x4778 JUMP JUMPDEST JUMPDEST PUSH1 0x20 MUL PUSH1 0x20 ADD ADD MLOAD DUP2 MSTORE PUSH1 0x20 ADD DUP12 DUP7 DUP2 MLOAD DUP2 LT PUSH2 0x18DC JUMPI PUSH2 0x18DB PUSH2 0x4778 JUMP JUMPDEST JUMPDEST PUSH1 0x20 MUL PUSH1 0x20 ADD ADD MLOAD DUP2 MSTORE POP PUSH1 0x7 PUSH1 0x0 PUSH1 0x9 SLOAD DUP2 MSTORE PUSH1 0x20 ADD SWAP1 DUP2 MSTORE PUSH1 0x20 ADD PUSH1 0x0 KECCAK256 PUSH1 0x0 DUP3 ADD MLOAD DUP2 PUSH1 0x0 ADD SSTORE PUSH1 0x20 DUP3 ADD MLOAD DUP2 PUSH1 0x1 ADD PUSH1 0x0 PUSH2 0x100 EXP DUP2 SLOAD DUP2 PUSH20 0xFFFFFFFFFFFFFFFFFFFFFFFFFFFFFFFFFFFFFFFF MUL NOT AND SWAP1 DUP4 PUSH20 0xFFFFFFFFFFFFFFFFFFFFFFFFFFFFFFFFFFFFFFFF AND MUL OR SWAP1 SSTORE POP PUSH1 0x40 DUP3 ADD MLOAD DUP2 PUSH1 0x2 ADD SSTORE PUSH1 0x60 DUP3 ADD MLOAD DUP2 PUSH1 0x3 ADD SSTORE SWAP1 POP POP PUSH1 0x4 PUSH1 0x0 CALLER PUSH20 0xFFFFFFFFFFFFFFFFFFFFFFFFFFFFFFFFFFFFFFFF AND PUSH20 0xFFFFFFFFFFFFFFFFFFFFFFFFFFFFFFFFFFFFFFFF AND DUP2 MSTORE PUSH1 0x20 ADD SWAP1 DUP2 MSTORE PUSH1 0x20 ADD PUSH1 0x0 KECCAK256 PUSH1 0x3 ADD PUSH1 0x9 SLOAD SWAP1 DUP1 PUSH1 0x1 DUP2 SLOAD ADD DUP1 DUP3 SSTORE DUP1 SWAP2 POP POP PUSH1 0x1 SWAP1 SUB SWAP1 PUSH1 0x0 MSTORE PUSH1 0x20 PUSH1 0x0 KECCAK256 ADD PUSH1 0x0 SWAP1 SWAP2 SWAP1 SWAP2 SWAP1 SWAP2 POP SSTORE DUP11 DUP5 DUP2 MLOAD DUP2 LT PUSH2 0x19E2 JUMPI PUSH2 0x19E1 PUSH2 0x4778 JUMP JUMPDEST JUMPDEST PUSH1 0x20 MUL PUSH1 0x20 ADD ADD MLOAD CALLER PUSH20 0xFFFFFFFFFFFFFFFFFFFFFFFFFFFFFFFFFFFFFFFF AND PUSH1 0x9 SLOAD PUSH32 0x7D3C39A6CCE20F6949EFF0833A4D54FCA734DC7C6027773D8885E7FAEAC98A95 DUP14 DUP9 DUP2 MLOAD DUP2 LT PUSH2 0x1A38 JUMPI PUSH2 0x1A37 PUSH2 0x4778 JUMP JUMPDEST JUMPDEST PUSH1 0x20 MUL PUSH1 0x20 ADD ADD MLOAD PUSH1 0x40 MLOAD PUSH2 0x1A4D SWAP2 SWAP1 PUSH2 0x39A5 JUMP JUMPDEST PUSH1 0x40 MLOAD DUP1 SWAP2 SUB SWAP1 LOG4 PUSH1 0x9 PUSH1 0x0 DUP2 SLOAD DUP1 SWAP3 SWAP2 SWAP1 PUSH2 0x1A68 SWAP1 PUSH2 0x47A7 JUMP JUMPDEST SWAP2 SWAP1 POP SSTORE POP POP POP POP DUP1 DUP1 PUSH2 0x1A7B SWAP1 PUSH2 0x47A7 JUMP JUMPDEST SWAP2 POP POP PUSH2 0x117C JUMP JUMPDEST POP POP POP POP POP POP POP POP JUMP JUMPDEST PUSH1 0x0 DUP1 SLOAD SWAP1 PUSH2 0x100 EXP SWAP1 DIV PUSH20 0xFFFFFFFFFFFFFFFFFFFFFFFFFFFFFFFFFFFFFFFF AND PUSH20 0xFFFFFFFFFFFFFFFFFFFFFFFFFFFFFFFFFFFFFFFF AND CALLER PUSH20 0xFFFFFFFFFFFFFFFFFFFFFFFFFFFFFFFFFFFFFFFF AND EQ PUSH2 0x1B1B JUMPI PUSH1 0x40 MLOAD PUSH32 0x8C379A000000000000000000000000000000000000000000000000000000000 DUP2 MSTORE PUSH1 0x4 ADD PUSH2 0x1B12 SWAP1 PUSH2 0x4861 JUMP JUMPDEST PUSH1 0x40 MLOAD DUP1 SWAP2 SUB SWAP1 REVERT JUMPDEST PUSH1 0x1 PUSH1 0x0 SWAP1 SLOAD SWAP1 PUSH2 0x100 EXP SWAP1 DIV PUSH20 0xFFFFFFFFFFFFFFFFFFFFFFFFFFFFFFFFFFFFFFFF AND PUSH20 0xFFFFFFFFFFFFFFFFFFFFFFFFFFFFFFFFFFFFFFFF AND PUSH4 0x70A08231 ADDRESS PUSH1 0x40 MLOAD DUP3 PUSH4 0xFFFFFFFF AND PUSH1 0xE0 SHL DUP2 MSTORE PUSH1 0x4 ADD PUSH2 0x1B76 SWAP2 SWAP1 PUSH2 0x3E8F JUMP JUMPDEST PUSH1 0x20 PUSH1 0x40 MLOAD DUP1 DUP4 SUB DUP2 DUP7 GAS STATICCALL ISZERO DUP1 ISZERO PUSH2 0x1B93 JUMPI RETURNDATASIZE PUSH1 0x0 DUP1 RETURNDATACOPY RETURNDATASIZE PUSH1 0x0 REVERT JUMPDEST POP POP POP POP PUSH1 0x40 MLOAD RETURNDATASIZE PUSH1 0x1F NOT PUSH1 0x1F DUP3 ADD AND DUP3 ADD DUP1 PUSH1 0x40 MSTORE POP DUP2 ADD SWAP1 PUSH2 0x1BB7 SWAP2 SWAP1 PUSH2 0x451C JUMP JUMPDEST DUP2 GT ISZERO PUSH2 0x1BF9 JUMPI PUSH1 0x40 MLOAD PUSH32 0x8C379A000000000000000000000000000000000000000000000000000000000 DUP2 MSTORE PUSH1 0x4 ADD PUSH2 0x1BF0 SWAP1 PUSH2 0x4CF4 JUMP JUMPDEST PUSH1 0x40 MLOAD DUP1 SWAP2 SUB SWAP1 REVERT JUMPDEST PUSH1 0x1 PUSH1 0x0 SWAP1 SLOAD SWAP1 PUSH2 0x100 EXP SWAP1 DIV PUSH20 0xFFFFFFFFFFFFFFFFFFFFFFFFFFFFFFFFFFFFFFFF AND PUSH20 0xFFFFFFFFFFFFFFFFFFFFFFFFFFFFFFFFFFFFFFFF AND PUSH4 0xA9059CBB DUP4 DUP4 PUSH1 0x40 MLOAD DUP4 PUSH4 0xFFFFFFFF AND PUSH1 0xE0 SHL DUP2 MSTORE PUSH1 0x4 ADD PUSH2 0x1C56 SWAP3 SWAP2 SWAP1 PUSH2 0x45B5 JUMP JUMPDEST PUSH1 0x20 PUSH1 0x40 MLOAD DUP1 DUP4 SUB DUP2 PUSH1 0x0 DUP8 GAS CALL ISZERO DUP1 ISZERO PUSH2 0x1C75 JUMPI RETURNDATASIZE PUSH1 0x0 DUP1 RETURNDATACOPY RETURNDATASIZE PUSH1 0x0 REVERT JUMPDEST POP POP POP POP PUSH1 0x40 MLOAD RETURNDATASIZE PUSH1 0x1F NOT PUSH1 0x1F DUP3 ADD AND DUP3 ADD DUP1 PUSH1 0x40 MSTORE POP DUP2 ADD SWAP1 PUSH2 0x1C99 SWAP2 SWAP1 PUSH2 0x45F3 JUMP JUMPDEST POP POP POP JUMP JUMPDEST PUSH1 0x0 PUSH20 0xFFFFFFFFFFFFFFFFFFFFFFFFFFFFFFFFFFFFFFFF AND PUSH1 0x4 PUSH1 0x0 CALLER PUSH20 0xFFFFFFFFFFFFFFFFFFFFFFFFFFFFFFFFFFFFFFFF AND PUSH20 0xFFFFFFFFFFFFFFFFFFFFFFFFFFFFFFFFFFFFFFFF AND DUP2 MSTORE PUSH1 0x20 ADD SWAP1 DUP2 MSTORE PUSH1 0x20 ADD PUSH1 0x0 KECCAK256 PUSH1 0x0 ADD PUSH1 0x0 SWAP1 SLOAD SWAP1 PUSH2 0x100 EXP SWAP1 DIV PUSH20 0xFFFFFFFFFFFFFFFFFFFFFFFFFFFFFFFFFFFFFFFF AND PUSH20 0xFFFFFFFFFFFFFFFFFFFFFFFFFFFFFFFFFFFFFFFF AND EQ PUSH2 0x1D6F JUMPI PUSH1 0x40 MLOAD PUSH32 0x8C379A000000000000000000000000000000000000000000000000000000000 DUP2 MSTORE PUSH1 0x4 ADD PUSH2 0x1D66 SWAP1 PUSH2 0x4D60 JUMP JUMPDEST PUSH1 0x40 MLOAD DUP1 SWAP2 SUB SWAP1 REVERT JUMPDEST PUSH1 0x40 MLOAD DUP1 PUSH1 0x80 ADD PUSH1 0x40 MSTORE DUP1 CALLER PUSH20 0xFFFFFFFFFFFFFFFFFFFFFFFFFFFFFFFFFFFFFFFF AND DUP2 MSTORE PUSH1 0x20 ADD PUSH1 0x0 DUP2 MSTORE PUSH1 0x20 ADD PUSH1 0x0 DUP2 MSTORE PUSH1 0x20 ADD PUSH1 0x0 PUSH8 0xFFFFFFFFFFFFFFFF DUP2 GT ISZERO PUSH2 0x1DBF JUMPI PUSH2 0x1DBE PUSH2 0x3B38 JUMP JUMPDEST JUMPDEST PUSH1 0x40 MLOAD SWAP1 DUP1 DUP3 MSTORE DUP1 PUSH1 0x20 MUL PUSH1 0x20 ADD DUP3 ADD PUSH1 0x40 MSTORE DUP1 ISZERO PUSH2 0x1DED JUMPI DUP2 PUSH1 0x20 ADD PUSH1 0x20 DUP3 MUL DUP1 CALLDATASIZE DUP4 CALLDATACOPY DUP1 DUP3 ADD SWAP2 POP POP SWAP1 POP JUMPDEST POP DUP2 MSTORE POP PUSH1 0x4 PUSH1 0x0 CALLER PUSH20 0xFFFFFFFFFFFFFFFFFFFFFFFFFFFFFFFFFFFFFFFF AND PUSH20 0xFFFFFFFFFFFFFFFFFFFFFFFFFFFFFFFFFFFFFFFF AND DUP2 MSTORE PUSH1 0x20 ADD SWAP1 DUP2 MSTORE PUSH1 0x20 ADD PUSH1 0x0 KECCAK256 PUSH1 0x0 DUP3 ADD MLOAD DUP2 PUSH1 0x0 ADD PUSH1 0x0 PUSH2 0x100 EXP DUP2 SLOAD DUP2 PUSH20 0xFFFFFFFFFFFFFFFFFFFFFFFFFFFFFFFFFFFFFFFF MUL NOT AND SWAP1 DUP4 PUSH20 0xFFFFFFFFFFFFFFFFFFFFFFFFFFFFFFFFFFFFFFFF AND MUL OR SWAP1 SSTORE POP PUSH1 0x20 DUP3 ADD MLOAD DUP2 PUSH1 0x1 ADD SSTORE PUSH1 0x40 DUP3 ADD MLOAD DUP2 PUSH1 0x2 ADD SSTORE PUSH1 0x60 DUP3 ADD MLOAD DUP2 PUSH1 0x3 ADD SWAP1 DUP1 MLOAD SWAP1 PUSH1 0x20 ADD SWAP1 PUSH2 0x1EA7 SWAP3 SWAP2 SWAP1 PUSH2 0x360E JUMP JUMPDEST POP SWAP1 POP POP CALLER PUSH20 0xFFFFFFFFFFFFFFFFFFFFFFFFFFFFFFFFFFFFFFFF AND PUSH32 0x54DB7A5CB4735E1AAC1F53DB512D3390390BB6637BD30AD4BF9FC98667D9B9B9 PUSH1 0x40 MLOAD PUSH1 0x40 MLOAD DUP1 SWAP2 SUB SWAP1 LOG2 JUMP JUMPDEST PUSH1 0x8 SLOAD DUP2 JUMP JUMPDEST PUSH1 0x0 PUSH20 0xFFFFFFFFFFFFFFFFFFFFFFFFFFFFFFFFFFFFFFFF AND PUSH1 0x5 PUSH1 0x0 CALLER PUSH20 0xFFFFFFFFFFFFFFFFFFFFFFFFFFFFFFFFFFFFFFFF AND PUSH20 0xFFFFFFFFFFFFFFFFFFFFFFFFFFFFFFFFFFFFFFFF AND DUP2 MSTORE PUSH1 0x20 ADD SWAP1 DUP2 MSTORE PUSH1 0x20 ADD PUSH1 0x0 KECCAK256 PUSH1 0x0 ADD PUSH1 0x0 SWAP1 SLOAD SWAP1 PUSH2 0x100 EXP SWAP1 DIV PUSH20 0xFFFFFFFFFFFFFFFFFFFFFFFFFFFFFFFFFFFFFFFF AND PUSH20 0xFFFFFFFFFFFFFFFFFFFFFFFFFFFFFFFFFFFFFFFF AND EQ PUSH2 0x1FC7 JUMPI PUSH1 0x40 MLOAD PUSH32 0x8C379A000000000000000000000000000000000000000000000000000000000 DUP2 MSTORE PUSH1 0x4 ADD PUSH2 0x1FBE SWAP1 PUSH2 0x4DCC JUMP JUMPDEST PUSH1 0x40 MLOAD DUP1 SWAP2 SUB SWAP1 REVERT JUMPDEST PUSH1 0x40 MLOAD DUP1 PUSH1 0x40 ADD PUSH1 0x40 MSTORE DUP1 CALLER PUSH20 0xFFFFFFFFFFFFFFFFFFFFFFFFFFFFFFFFFFFFFFFF AND DUP2 MSTORE PUSH1 0x20 ADD PUSH1 0x0 PUSH8 0xFFFFFFFFFFFFFFFF DUP2 GT ISZERO PUSH2 0x2009 JUMPI PUSH2 0x2008 PUSH2 0x3B38 JUMP JUMPDEST JUMPDEST PUSH1 0x40 MLOAD SWAP1 DUP1 DUP3 MSTORE DUP1 PUSH1 0x20 MUL PUSH1 0x20 ADD DUP3 ADD PUSH1 0x40 MSTORE DUP1 ISZERO PUSH2 0x2037 JUMPI DUP2 PUSH1 0x20 ADD PUSH1 0x20 DUP3 MUL DUP1 CALLDATASIZE DUP4 CALLDATACOPY DUP1 DUP3 ADD SWAP2 POP POP SWAP1 POP JUMPDEST POP DUP2 MSTORE POP PUSH1 0x5 PUSH1 0x0 CALLER PUSH20 0xFFFFFFFFFFFFFFFFFFFFFFFFFFFFFFFFFFFFFFFF AND PUSH20 0xFFFFFFFFFFFFFFFFFFFFFFFFFFFFFFFFFFFFFFFF AND DUP2 MSTORE PUSH1 0x20 ADD SWAP1 DUP2 MSTORE PUSH1 0x20 ADD PUSH1 0x0 KECCAK256 PUSH1 0x0 DUP3 ADD MLOAD DUP2 PUSH1 0x0 ADD PUSH1 0x0 PUSH2 0x100 EXP DUP2 SLOAD DUP2 PUSH20 0xFFFFFFFFFFFFFFFFFFFFFFFFFFFFFFFFFFFFFFFF MUL NOT AND SWAP1 DUP4 PUSH20 0xFFFFFFFFFFFFFFFFFFFFFFFFFFFFFFFFFFFFFFFF AND MUL OR SWAP1 SSTORE POP PUSH1 0x20 DUP3 ADD MLOAD DUP2 PUSH1 0x1 ADD SWAP1 DUP1 MLOAD SWAP1 PUSH1 0x20 ADD SWAP1 PUSH2 0x20DD SWAP3 SWAP2 SWAP1 PUSH2 0x360E JUMP JUMPDEST POP SWAP1 POP POP CALLER PUSH20 0xFFFFFFFFFFFFFFFFFFFFFFFFFFFFFFFFFFFFFFFF AND PUSH32 0x4D97D287A8F631378031B05CB24C876085261DDAA7B8F584477370EF473FBB3D PUSH1 0x40 MLOAD PUSH1 0x40 MLOAD DUP1 SWAP2 SUB SWAP1 LOG2 JUMP JUMPDEST PUSH1 0x5 DUP2 JUMP JUMPDEST PUSH8 0xDE0B6B3A7640000 DUP2 JUMP JUMPDEST PUSH1 0x5 PUSH1 0x20 MSTORE DUP1 PUSH1 0x0 MSTORE PUSH1 0x40 PUSH1 0x0 KECCAK256 PUSH1 0x0 SWAP2 POP SWAP1 POP DUP1 PUSH1 0x0 ADD PUSH1 0x0 SWAP1 SLOAD SWAP1 PUSH2 0x100 EXP SWAP1 DIV PUSH20 0xFFFFFFFFFFFFFFFFFFFFFFFFFFFFFFFFFFFFFFFF AND SWAP1 POP DUP2 JUMP JUMPDEST PUSH1 0x0 PUSH1 0x60 PUSH1 0x0 PUSH32 0x0 PUSH1 0x2 SLOAD TIMESTAMP PUSH2 0x21AA SWAP2 SWAP1 PUSH2 0x46E4 JUMP JUMPDEST GT SWAP1 POP PUSH1 0x0 PUSH1 0x64 PUSH8 0xFFFFFFFFFFFFFFFF DUP2 GT ISZERO PUSH2 0x21CA JUMPI PUSH2 0x21C9 PUSH2 0x3B38 JUMP JUMPDEST JUMPDEST PUSH1 0x40 MLOAD SWAP1 DUP1 DUP3 MSTORE DUP1 PUSH1 0x20 MUL PUSH1 0x20 ADD DUP3 ADD PUSH1 0x40 MSTORE DUP1 ISZERO PUSH2 0x21F8 JUMPI DUP2 PUSH1 0x20 ADD PUSH1 0x20 DUP3 MUL DUP1 CALLDATASIZE DUP4 CALLDATACOPY DUP1 DUP3 ADD SWAP2 POP POP SWAP1 POP JUMPDEST POP SWAP1 POP PUSH1 0x0 PUSH1 0x64 PUSH8 0xFFFFFFFFFFFFFFFF DUP2 GT ISZERO PUSH2 0x2218 JUMPI PUSH2 0x2217 PUSH2 0x3B38 JUMP JUMPDEST JUMPDEST PUSH1 0x40 MLOAD SWAP1 DUP1 DUP3 MSTORE DUP1 PUSH1 0x20 MUL PUSH1 0x20 ADD DUP3 ADD PUSH1 0x40 MSTORE DUP1 ISZERO PUSH2 0x2246 JUMPI DUP2 PUSH1 0x20 ADD PUSH1 0x20 DUP3 MUL DUP1 CALLDATASIZE DUP4 CALLDATACOPY DUP1 DUP3 ADD SWAP2 POP POP SWAP1 POP JUMPDEST POP SWAP1 POP PUSH1 0x0 DUP1 PUSH1 0x64 PUSH1 0x9 SLOAD PUSH2 0x225B SWAP2 SWAP1 PUSH2 0x46E4 JUMP JUMPDEST GT PUSH2 0x2267 JUMPI PUSH1 0x0 PUSH2 0x2277 JUMP JUMPDEST PUSH1 0x64 PUSH1 0x9 SLOAD PUSH2 0x2276 SWAP2 SWAP1 PUSH2 0x46E4 JUMP JUMPDEST JUMPDEST SWAP1 POP PUSH1 0x0 DUP2 SWAP1 POP JUMPDEST PUSH1 0x9 SLOAD DUP2 LT ISZERO PUSH2 0x23D0 JUMPI PUSH1 0x7 PUSH1 0x0 DUP3 DUP2 MSTORE PUSH1 0x20 ADD SWAP1 DUP2 MSTORE PUSH1 0x20 ADD PUSH1 0x0 KECCAK256 PUSH1 0x1 ADD PUSH1 0x0 SWAP1 SLOAD SWAP1 PUSH2 0x100 EXP SWAP1 DIV PUSH20 0xFFFFFFFFFFFFFFFFFFFFFFFFFFFFFFFFFFFFFFFF AND DUP5 PUSH1 0x1 DUP4 PUSH2 0x22CE SWAP2 SWAP1 PUSH2 0x46E4 JUMP JUMPDEST DUP2 MLOAD DUP2 LT PUSH2 0x22DF JUMPI PUSH2 0x22DE PUSH2 0x4778 JUMP JUMPDEST JUMPDEST PUSH1 0x20 MUL PUSH1 0x20 ADD ADD SWAP1 PUSH20 0xFFFFFFFFFFFFFFFFFFFFFFFFFFFFFFFFFFFFFFFF AND SWAP1 DUP2 PUSH20 0xFFFFFFFFFFFFFFFFFFFFFFFFFFFFFFFFFFFFFFFF AND DUP2 MSTORE POP POP PUSH1 0x4 PUSH1 0x0 PUSH1 0x7 PUSH1 0x0 DUP5 DUP2 MSTORE PUSH1 0x20 ADD SWAP1 DUP2 MSTORE PUSH1 0x20 ADD PUSH1 0x0 KECCAK256 PUSH1 0x1 ADD PUSH1 0x0 SWAP1 SLOAD SWAP1 PUSH2 0x100 EXP SWAP1 DIV PUSH20 0xFFFFFFFFFFFFFFFFFFFFFFFFFFFFFFFFFFFFFFFF AND PUSH20 0xFFFFFFFFFFFFFFFFFFFFFFFFFFFFFFFFFFFFFFFF AND PUSH20 0xFFFFFFFFFFFFFFFFFFFFFFFFFFFFFFFFFFFFFFFF AND DUP2 MSTORE PUSH1 0x20 ADD SWAP1 DUP2 MSTORE PUSH1 0x20 ADD PUSH1 0x0 KECCAK256 PUSH1 0x2 ADD SLOAD DUP4 PUSH1 0x1 DUP4 PUSH2 0x23A0 SWAP2 SWAP1 PUSH2 0x46E4 JUMP JUMPDEST DUP2 MLOAD DUP2 LT PUSH2 0x23B1 JUMPI PUSH2 0x23B0 PUSH2 0x4778 JUMP JUMPDEST JUMPDEST PUSH1 0x20 MUL PUSH1 0x20 ADD ADD DUP2 DUP2 MSTORE POP POP DUP1 DUP1 PUSH2 0x23C8 SWAP1 PUSH2 0x47A7 JUMP JUMPDEST SWAP2 POP POP PUSH2 0x227F JUMP JUMPDEST POP PUSH1 0x0 JUMPDEST DUP3 MLOAD DUP2 LT ISZERO PUSH2 0x25E5 JUMPI PUSH1 0x0 JUMPDEST PUSH1 0x1 DUP5 MLOAD PUSH2 0x23EE SWAP2 SWAP1 PUSH2 0x46E4 JUMP JUMPDEST DUP2 LT ISZERO PUSH2 0x25D1 JUMPI DUP4 PUSH1 0x1 DUP3 PUSH2 0x2403 SWAP2 SWAP1 PUSH2 0x4DEC JUMP JUMPDEST DUP2 MLOAD DUP2 LT PUSH2 0x2414 JUMPI PUSH2 0x2413 PUSH2 0x4778 JUMP JUMPDEST JUMPDEST PUSH1 0x20 MUL PUSH1 0x20 ADD ADD MLOAD DUP5 DUP3 DUP2 MLOAD DUP2 LT PUSH2 0x242F JUMPI PUSH2 0x242E PUSH2 0x4778 JUMP JUMPDEST JUMPDEST PUSH1 0x20 MUL PUSH1 0x20 ADD ADD MLOAD LT ISZERO PUSH2 0x25BE JUMPI PUSH1 0x0 DUP5 DUP3 DUP2 MLOAD DUP2 LT PUSH2 0x2452 JUMPI PUSH2 0x2451 PUSH2 0x4778 JUMP JUMPDEST JUMPDEST PUSH1 0x20 MUL PUSH1 0x20 ADD ADD MLOAD SWAP1 POP DUP5 PUSH1 0x1 DUP4 PUSH2 0x246A SWAP2 SWAP1 PUSH2 0x4DEC JUMP JUMPDEST DUP2 MLOAD DUP2 LT PUSH2 0x247B JUMPI PUSH2 0x247A PUSH2 0x4778 JUMP JUMPDEST JUMPDEST PUSH1 0x20 MUL PUSH1 0x20 ADD ADD MLOAD DUP6 DUP4 DUP2 MLOAD DUP2 LT PUSH2 0x2496 JUMPI PUSH2 0x2495 PUSH2 0x4778 JUMP JUMPDEST JUMPDEST PUSH1 0x20 MUL PUSH1 0x20 ADD ADD DUP2 DUP2 MSTORE POP POP DUP1 DUP6 PUSH1 0x1 DUP5 PUSH2 0x24B1 SWAP2 SWAP1 PUSH2 0x4DEC JUMP JUMPDEST DUP2 MLOAD DUP2 LT PUSH2 0x24C2 JUMPI PUSH2 0x24C1 PUSH2 0x4778 JUMP JUMPDEST JUMPDEST PUSH1 0x20 MUL PUSH1 0x20 ADD ADD DUP2 DUP2 MSTORE POP POP PUSH1 0x0 DUP7 DUP4 DUP2 MLOAD DUP2 LT PUSH2 0x24E3 JUMPI PUSH2 0x24E2 PUSH2 0x4778 JUMP JUMPDEST JUMPDEST PUSH1 0x20 MUL PUSH1 0x20 ADD ADD MLOAD SWAP1 POP DUP7 PUSH1 0x1 DUP5 PUSH2 0x24FB SWAP2 SWAP1 PUSH2 0x4DEC JUMP JUMPDEST DUP2 MLOAD DUP2 LT PUSH2 0x250C JUMPI PUSH2 0x250B PUSH2 0x4778 JUMP JUMPDEST JUMPDEST PUSH1 0x20 MUL PUSH1 0x20 ADD ADD MLOAD DUP8 DUP5 DUP2 MLOAD DUP2 LT PUSH2 0x2527 JUMPI PUSH2 0x2526 PUSH2 0x4778 JUMP JUMPDEST JUMPDEST PUSH1 0x20 MUL PUSH1 0x20 ADD ADD SWAP1 PUSH20 0xFFFFFFFFFFFFFFFFFFFFFFFFFFFFFFFFFFFFFFFF AND SWAP1 DUP2 PUSH20 0xFFFFFFFFFFFFFFFFFFFFFFFFFFFFFFFFFFFFFFFF AND DUP2 MSTORE POP POP DUP1 DUP8 PUSH1 0x1 DUP6 PUSH2 0x2570 SWAP2 SWAP1 PUSH2 0x4DEC JUMP JUMPDEST DUP2 MLOAD DUP2 LT PUSH2 0x2581 JUMPI PUSH2 0x2580 PUSH2 0x4778 JUMP JUMPDEST JUMPDEST PUSH1 0x20 MUL PUSH1 0x20 ADD ADD SWAP1 PUSH20 0xFFFFFFFFFFFFFFFFFFFFFFFFFFFFFFFFFFFFFFFF AND SWAP1 DUP2 PUSH20 0xFFFFFFFFFFFFFFFFFFFFFFFFFFFFFFFFFFFFFFFF AND DUP2 MSTORE POP POP POP POP JUMPDEST DUP1 DUP1 PUSH2 0x25C9 SWAP1 PUSH2 0x47A7 JUMP JUMPDEST SWAP2 POP POP PUSH2 0x23E0 JUMP JUMPDEST POP DUP1 DUP1 PUSH2 0x25DD SWAP1 PUSH2 0x47A7 JUMP JUMPDEST SWAP2 POP POP PUSH2 0x23D4 JUMP JUMPDEST POP DUP4 SWAP6 POP DUP3 PUSH1 0x40 MLOAD PUSH1 0x20 ADD PUSH2 0x25FA SWAP2 SWAP1 PUSH2 0x4453 JUMP JUMPDEST PUSH1 0x40 MLOAD PUSH1 0x20 DUP2 DUP4 SUB SUB DUP2 MSTORE SWAP1 PUSH1 0x40 MSTORE SWAP5 POP POP POP POP POP SWAP2 POP SWAP2 JUMP JUMPDEST PUSH1 0x1 PUSH1 0x0 SWAP1 SLOAD SWAP1 PUSH2 0x100 EXP SWAP1 DIV PUSH20 0xFFFFFFFFFFFFFFFFFFFFFFFFFFFFFFFFFFFFFFFF AND DUP2 JUMP JUMPDEST PUSH1 0x6 PUSH1 0x20 MSTORE DUP1 PUSH1 0x0 MSTORE PUSH1 0x40 PUSH1 0x0 KECCAK256 PUSH1 0x0 SWAP2 POP SWAP1 POP DUP1 PUSH1 0x0 ADD SLOAD SWAP1 DUP1 PUSH1 0x1 ADD DUP1 SLOAD PUSH2 0x2663 SWAP1 PUSH2 0x4747 JUMP JUMPDEST DUP1 PUSH1 0x1F ADD PUSH1 0x20 DUP1 SWAP2 DIV MUL PUSH1 0x20 ADD PUSH1 0x40 MLOAD SWAP1 DUP2 ADD PUSH1 0x40 MSTORE DUP1 SWAP3 SWAP2 SWAP1 DUP2 DUP2 MSTORE PUSH1 0x20 ADD DUP3 DUP1 SLOAD PUSH2 0x268F SWAP1 PUSH2 0x4747 JUMP JUMPDEST DUP1 ISZERO PUSH2 0x26DC JUMPI DUP1 PUSH1 0x1F LT PUSH2 0x26B1 JUMPI PUSH2 0x100 DUP1 DUP4 SLOAD DIV MUL DUP4 MSTORE SWAP2 PUSH1 0x20 ADD SWAP2 PUSH2 0x26DC JUMP JUMPDEST DUP3 ADD SWAP2 SWAP1 PUSH1 0x0 MSTORE PUSH1 0x20 PUSH1 0x0 KECCAK256 SWAP1 JUMPDEST DUP2 SLOAD DUP2 MSTORE SWAP1 PUSH1 0x1 ADD SWAP1 PUSH1 0x20 ADD DUP1 DUP4 GT PUSH2 0x26BF JUMPI DUP3 SWAP1 SUB PUSH1 0x1F AND DUP3 ADD SWAP2 JUMPDEST POP POP POP POP POP SWAP1 DUP1 PUSH1 0x2 ADD DUP1 SLOAD PUSH2 0x26F1 SWAP1 PUSH2 0x4747 JUMP JUMPDEST DUP1 PUSH1 0x1F ADD PUSH1 0x20 DUP1 SWAP2 DIV MUL PUSH1 0x20 ADD PUSH1 0x40 MLOAD SWAP1 DUP2 ADD PUSH1 0x40 MSTORE DUP1 SWAP3 SWAP2 SWAP1 DUP2 DUP2 MSTORE PUSH1 0x20 ADD DUP3 DUP1 SLOAD PUSH2 0x271D SWAP1 PUSH2 0x4747 JUMP JUMPDEST DUP1 ISZERO PUSH2 0x276A JUMPI DUP1 PUSH1 0x1F LT PUSH2 0x273F JUMPI PUSH2 0x100 DUP1 DUP4 SLOAD DIV MUL DUP4 MSTORE SWAP2 PUSH1 0x20 ADD SWAP2 PUSH2 0x276A JUMP JUMPDEST DUP3 ADD SWAP2 SWAP1 PUSH1 0x0 MSTORE PUSH1 0x20 PUSH1 0x0 KECCAK256 SWAP1 JUMPDEST DUP2 SLOAD DUP2 MSTORE SWAP1 PUSH1 0x1 ADD SWAP1 PUSH1 0x20 ADD DUP1 DUP4 GT PUSH2 0x274D JUMPI DUP3 SWAP1 SUB PUSH1 0x1F AND DUP3 ADD SWAP2 JUMPDEST POP POP POP POP POP SWAP1 DUP1 PUSH1 0x3 ADD SLOAD SWAP1 DUP1 PUSH1 0x4 ADD PUSH1 0x0 SWAP1 SLOAD SWAP1 PUSH2 0x100 EXP SWAP1 DIV PUSH20 0xFFFFFFFFFFFFFFFFFFFFFFFFFFFFFFFFFFFFFFFF AND SWAP1 DUP1 PUSH1 0x5 ADD SLOAD SWAP1 DUP1 PUSH1 0x6 ADD SLOAD SWAP1 DUP1 PUSH1 0x7 ADD SLOAD SWAP1 DUP1 PUSH1 0x8 ADD DUP1 SLOAD PUSH2 0x27BD SWAP1 PUSH2 0x4747 JUMP JUMPDEST DUP1 PUSH1 0x1F ADD PUSH1 0x20 DUP1 SWAP2 DIV MUL PUSH1 0x20 ADD PUSH1 0x40 MLOAD SWAP1 DUP2 ADD PUSH1 0x40 MSTORE DUP1 SWAP3 SWAP2 SWAP1 DUP2 DUP2 MSTORE PUSH1 0x20 ADD DUP3 DUP1 SLOAD PUSH2 0x27E9 SWAP1 PUSH2 0x4747 JUMP JUMPDEST DUP1 ISZERO PUSH2 0x2836 JUMPI DUP1 PUSH1 0x1F LT PUSH2 0x280B JUMPI PUSH2 0x100 DUP1 DUP4 SLOAD DIV MUL DUP4 MSTORE SWAP2 PUSH1 0x20 ADD SWAP2 PUSH2 0x2836 JUMP JUMPDEST DUP3 ADD SWAP2 SWAP1 PUSH1 0x0 MSTORE PUSH1 0x20 PUSH1 0x0 KECCAK256 SWAP1 JUMPDEST DUP2 SLOAD DUP2 MSTORE SWAP1 PUSH1 0x1 ADD SWAP1 PUSH1 0x20 ADD DUP1 DUP4 GT PUSH2 0x2819 JUMPI DUP3 SWAP1 SUB PUSH1 0x1F AND DUP3 ADD SWAP2 JUMPDEST POP POP POP POP POP SWAP1 POP DUP10 JUMP JUMPDEST PUSH1 0x0 DUP1 SLOAD SWAP1 PUSH2 0x100 EXP SWAP1 DIV PUSH20 0xFFFFFFFFFFFFFFFFFFFFFFFFFFFFFFFFFFFFFFFF AND PUSH20 0xFFFFFFFFFFFFFFFFFFFFFFFFFFFFFFFFFFFFFFFF AND CALLER PUSH20 0xFFFFFFFFFFFFFFFFFFFFFFFFFFFFFFFFFFFFFFFF AND EQ PUSH2 0x28CE JUMPI PUSH1 0x40 MLOAD PUSH32 0x8C379A000000000000000000000000000000000000000000000000000000000 DUP2 MSTORE PUSH1 0x4 ADD PUSH2 0x28C5 SWAP1 PUSH2 0x4861 JUMP JUMPDEST PUSH1 0x40 MLOAD DUP1 SWAP2 SUB SWAP1 REVERT JUMPDEST PUSH1 0x0 DUP1 SLOAD SWAP1 PUSH2 0x100 EXP SWAP1 DIV PUSH20 0xFFFFFFFFFFFFFFFFFFFFFFFFFFFFFFFFFFFFFFFF AND PUSH20 0xFFFFFFFFFFFFFFFFFFFFFFFFFFFFFFFFFFFFFFFF AND PUSH2 0x8FC DUP3 SWAP1 DUP2 ISZERO MUL SWAP1 PUSH1 0x40 MLOAD PUSH1 0x0 PUSH1 0x40 MLOAD DUP1 DUP4 SUB DUP2 DUP6 DUP9 DUP9 CALL SWAP4 POP POP POP POP ISZERO DUP1 ISZERO PUSH2 0x2934 JUMPI RETURNDATASIZE PUSH1 0x0 DUP1 RETURNDATACOPY RETURNDATASIZE PUSH1 0x0 REVERT JUMPDEST POP CALLER PUSH20 0xFFFFFFFFFFFFFFFFFFFFFFFFFFFFFFFFFFFFFFFF AND PUSH32 0x6EFAC6899EE41C0FAB9566F807FEE81972320248574EF8ADEAC6599EA7EAE246 DUP3 PUSH1 0x40 MLOAD PUSH2 0x297B SWAP2 SWAP1 PUSH2 0x39A5 JUMP JUMPDEST PUSH1 0x40 MLOAD DUP1 SWAP2 SUB SWAP1 LOG2 POP JUMP JUMPDEST PUSH32 0x0 DUP2 JUMP JUMPDEST PUSH1 0x7 PUSH1 0x20 MSTORE DUP1 PUSH1 0x0 MSTORE PUSH1 0x40 PUSH1 0x0 KECCAK256 PUSH1 0x0 SWAP2 POP SWAP1 POP DUP1 PUSH1 0x0 ADD SLOAD SWAP1 DUP1 PUSH1 0x1 ADD PUSH1 0x0 SWAP1 SLOAD SWAP1 PUSH2 0x100 EXP SWAP1 DIV PUSH20 0xFFFFFFFFFFFFFFFFFFFFFFFFFFFFFFFFFFFFFFFF AND SWAP1 DUP1 PUSH1 0x2 ADD SLOAD SWAP1 DUP1 PUSH1 0x3 ADD SLOAD SWAP1 POP DUP5 JUMP JUMPDEST PUSH1 0x4 PUSH1 0x20 MSTORE DUP1 PUSH1 0x0 MSTORE PUSH1 0x40 PUSH1 0x0 KECCAK256 PUSH1 0x0 SWAP2 POP SWAP1 POP DUP1 PUSH1 0x0 ADD PUSH1 0x0 SWAP1 SLOAD SWAP1 PUSH2 0x100 EXP SWAP1 DIV PUSH20 0xFFFFFFFFFFFFFFFFFFFFFFFFFFFFFFFFFFFFFFFF AND SWAP1 DUP1 PUSH1 0x1 ADD SLOAD SWAP1 DUP1 PUSH1 0x2 ADD SLOAD SWAP1 POP DUP4 JUMP JUMPDEST PUSH1 0x0 PUSH20 0xFFFFFFFFFFFFFFFFFFFFFFFFFFFFFFFFFFFFFFFF AND PUSH1 0x5 PUSH1 0x0 CALLER PUSH20 0xFFFFFFFFFFFFFFFFFFFFFFFFFFFFFFFFFFFFFFFF AND PUSH20 0xFFFFFFFFFFFFFFFFFFFFFFFFFFFFFFFFFFFFFFFF AND DUP2 MSTORE PUSH1 0x20 ADD SWAP1 DUP2 MSTORE PUSH1 0x20 ADD PUSH1 0x0 KECCAK256 PUSH1 0x0 ADD PUSH1 0x0 SWAP1 SLOAD SWAP1 PUSH2 0x100 EXP SWAP1 DIV PUSH20 0xFFFFFFFFFFFFFFFFFFFFFFFFFFFFFFFFFFFFFFFF AND PUSH20 0xFFFFFFFFFFFFFFFFFFFFFFFFFFFFFFFFFFFFFFFF AND SUB PUSH2 0x2B15 JUMPI PUSH1 0x40 MLOAD PUSH32 0x8C379A000000000000000000000000000000000000000000000000000000000 DUP2 MSTORE PUSH1 0x4 ADD PUSH2 0x2B0C SWAP1 PUSH2 0x4E92 JUMP JUMPDEST PUSH1 0x40 MLOAD DUP1 SWAP2 SUB SWAP1 REVERT JUMPDEST PUSH1 0x40 MLOAD DUP1 PUSH2 0x120 ADD PUSH1 0x40 MSTORE DUP1 PUSH1 0x8 SLOAD DUP2 MSTORE PUSH1 0x20 ADD DUP9 DUP2 MSTORE PUSH1 0x20 ADD DUP8 DUP2 MSTORE PUSH1 0x20 ADD DUP7 DUP2 MSTORE PUSH1 0x20 ADD CALLER PUSH20 0xFFFFFFFFFFFFFFFFFFFFFFFFFFFFFFFFFFFFFFFF AND DUP2 MSTORE PUSH1 0x20 ADD DUP6 DUP2 MSTORE PUSH1 0x20 ADD DUP5 DUP2 MSTORE PUSH1 0x20 ADD DUP4 DUP2 MSTORE PUSH1 0x20 ADD DUP3 DUP2 MSTORE POP PUSH1 0x6 PUSH1 0x0 PUSH1 0x8 SLOAD DUP2 MSTORE PUSH1 0x20 ADD SWAP1 DUP2 MSTORE PUSH1 0x20 ADD PUSH1 0x0 KECCAK256 PUSH1 0x0 DUP3 ADD MLOAD DUP2 PUSH1 0x0 ADD SSTORE PUSH1 0x20 DUP3 ADD MLOAD DUP2 PUSH1 0x1 ADD SWAP1 DUP2 PUSH2 0x2BA1 SWAP2 SWAP1 PUSH2 0x5054 JUMP JUMPDEST POP PUSH1 0x40 DUP3 ADD MLOAD DUP2 PUSH1 0x2 ADD SWAP1 DUP2 PUSH2 0x2BB7 SWAP2 SWAP1 PUSH2 0x5054 JUMP JUMPDEST POP PUSH1 0x60 DUP3 ADD MLOAD DUP2 PUSH1 0x3 ADD SSTORE PUSH1 0x80 DUP3 ADD MLOAD DUP2 PUSH1 0x4 ADD PUSH1 0x0 PUSH2 0x100 EXP DUP2 SLOAD DUP2 PUSH20 0xFFFFFFFFFFFFFFFFFFFFFFFFFFFFFFFFFFFFFFFF MUL NOT AND SWAP1 DUP4 PUSH20 0xFFFFFFFFFFFFFFFFFFFFFFFFFFFFFFFFFFFFFFFF AND MUL OR SWAP1 SSTORE POP PUSH1 0xA0 DUP3 ADD MLOAD DUP2 PUSH1 0x5 ADD SSTORE PUSH1 0xC0 DUP3 ADD MLOAD DUP2 PUSH1 0x6 ADD SSTORE PUSH1 0xE0 DUP3 ADD MLOAD DUP2 PUSH1 0x7 ADD SSTORE PUSH2 0x100 DUP3 ADD MLOAD DUP2 PUSH1 0x8 ADD SWAP1 DUP2 PUSH2 0x2C3D SWAP2 SWAP1 PUSH2 0x5054 JUMP JUMPDEST POP SWAP1 POP POP PUSH1 0x5 PUSH1 0x0 CALLER PUSH20 0xFFFFFFFFFFFFFFFFFFFFFFFFFFFFFFFFFFFFFFFF AND PUSH20 0xFFFFFFFFFFFFFFFFFFFFFFFFFFFFFFFFFFFFFFFF AND DUP2 MSTORE PUSH1 0x20 ADD SWAP1 DUP2 MSTORE PUSH1 0x20 ADD PUSH1 0x0 KECCAK256 PUSH1 0x1 ADD PUSH1 0x8 SLOAD SWAP1 DUP1 PUSH1 0x1 DUP2 SLOAD ADD DUP1 DUP3 SSTORE DUP1 SWAP2 POP POP PUSH1 0x1 SWAP1 SUB SWAP1 PUSH1 0x0 MSTORE PUSH1 0x20 PUSH1 0x0 KECCAK256 ADD PUSH1 0x0 SWAP1 SWAP2 SWAP1 SWAP2 SWAP1 SWAP2 POP SSTORE CALLER PUSH20 0xFFFFFFFFFFFFFFFFFFFFFFFFFFFFFFFFFFFFFFFF AND PUSH1 0x8 SLOAD PUSH32 0xEF311EEC1D40202FEE1909AB585DF5E024DF1930DC6BBA97722D1E60E91C01F7 DUP10 DUP8 PUSH1 0x40 MLOAD PUSH2 0x2CF7 SWAP3 SWAP2 SWAP1 PUSH2 0x5126 JUMP JUMPDEST PUSH1 0x40 MLOAD DUP1 SWAP2 SUB SWAP1 LOG3 PUSH1 0x8 PUSH1 0x0 DUP2 SLOAD DUP1 SWAP3 SWAP2 SWAP1 PUSH2 0x2D12 SWAP1 PUSH2 0x47A7 JUMP JUMPDEST SWAP2 SWAP1 POP SSTORE POP POP POP POP POP POP POP POP JUMP JUMPDEST PUSH1 0x3 DUP2 DUP2 SLOAD DUP2 LT PUSH2 0x2D30 JUMPI PUSH1 0x0 DUP1 REVERT JUMPDEST SWAP1 PUSH1 0x0 MSTORE PUSH1 0x20 PUSH1 0x0 KECCAK256 ADD PUSH1 0x0 SWAP2 POP SLOAD SWAP1 PUSH2 0x100 EXP SWAP1 DIV PUSH20 0xFFFFFFFFFFFFFFFFFFFFFFFFFFFFFFFFFFFFFFFF AND DUP2 JUMP JUMPDEST PUSH1 0x60 PUSH1 0x3 DUP1 SLOAD DUP1 PUSH1 0x20 MUL PUSH1 0x20 ADD PUSH1 0x40 MLOAD SWAP1 DUP2 ADD PUSH1 0x40 MSTORE DUP1 SWAP3 SWAP2 SWAP1 DUP2 DUP2 MSTORE PUSH1 0x20 ADD DUP3 DUP1 SLOAD DUP1 ISZERO PUSH2 0x2DE3 JUMPI PUSH1 0x20 MUL DUP3 ADD SWAP2 SWAP1 PUSH1 0x0 MSTORE PUSH1 0x20 PUSH1 0x0 KECCAK256 SWAP1 JUMPDEST DUP2 PUSH1 0x0 SWAP1 SLOAD SWAP1 PUSH2 0x100 EXP SWAP1 DIV PUSH20 0xFFFFFFFFFFFFFFFFFFFFFFFFFFFFFFFFFFFFFFFF AND PUSH20 0xFFFFFFFFFFFFFFFFFFFFFFFFFFFFFFFFFFFFFFFF AND DUP2 MSTORE PUSH1 0x20 ADD SWAP1 PUSH1 0x1 ADD SWAP1 DUP1 DUP4 GT PUSH2 0x2D99 JUMPI JUMPDEST POP POP POP POP POP SWAP1 POP SWAP1 JUMP JUMPDEST PUSH1 0xB PUSH1 0x20 MSTORE DUP1 PUSH1 0x0 MSTORE PUSH1 0x40 PUSH1 0x0 KECCAK256 PUSH1 0x0 SWAP2 POP SWAP1 POP SLOAD DUP2 JUMP JUMPDEST PUSH1 0xA PUSH1 0x20 MSTORE DUP1 PUSH1 0x0 MSTORE PUSH1 0x40 PUSH1 0x0 KECCAK256 PUSH1 0x0 SWAP2 POP SWAP1 POP SLOAD DUP2 JUMP JUMPDEST PUSH1 0x0 PUSH20 0xFFFFFFFFFFFFFFFFFFFFFFFFFFFFFFFFFFFFFFFF AND PUSH1 0x5 PUSH1 0x0 CALLER PUSH20 0xFFFFFFFFFFFFFFFFFFFFFFFFFFFFFFFFFFFFFFFF AND PUSH20 0xFFFFFFFFFFFFFFFFFFFFFFFFFFFFFFFFFFFFFFFF AND DUP2 MSTORE PUSH1 0x20 ADD SWAP1 DUP2 MSTORE PUSH1 0x20 ADD PUSH1 0x0 KECCAK256 PUSH1 0x0 ADD PUSH1 0x0 SWAP1 SLOAD SWAP1 PUSH2 0x100 EXP SWAP1 DIV PUSH20 0xFFFFFFFFFFFFFFFFFFFFFFFFFFFFFFFFFFFFFFFF AND PUSH20 0xFFFFFFFFFFFFFFFFFFFFFFFFFFFFFFFFFFFFFFFF AND SUB PUSH2 0x2EEE JUMPI PUSH1 0x40 MLOAD PUSH32 0x8C379A000000000000000000000000000000000000000000000000000000000 DUP2 MSTORE PUSH1 0x4 ADD PUSH2 0x2EE5 SWAP1 PUSH2 0x4E92 JUMP JUMPDEST PUSH1 0x40 MLOAD DUP1 SWAP2 SUB SWAP1 REVERT JUMPDEST PUSH10 0x10F0CF064DD59200000 DUP2 GT ISZERO PUSH2 0x2F3B JUMPI PUSH1 0x40 MLOAD PUSH32 0x8C379A000000000000000000000000000000000000000000000000000000000 DUP2 MSTORE PUSH1 0x4 ADD PUSH2 0x2F32 SWAP1 PUSH2 0x51A2 JUMP JUMPDEST PUSH1 0x40 MLOAD DUP1 SWAP2 SUB SWAP1 REVERT JUMPDEST PUSH3 0x278D00 PUSH1 0xB PUSH1 0x0 CALLER PUSH20 0xFFFFFFFFFFFFFFFFFFFFFFFFFFFFFFFFFFFFFFFF AND PUSH20 0xFFFFFFFFFFFFFFFFFFFFFFFFFFFFFFFFFFFFFFFF AND DUP2 MSTORE PUSH1 0x20 ADD SWAP1 DUP2 MSTORE PUSH1 0x20 ADD PUSH1 0x0 KECCAK256 SLOAD PUSH2 0x2F89 SWAP2 SWAP1 PUSH2 0x4DEC JUMP JUMPDEST TIMESTAMP GT ISZERO PUSH2 0x301A JUMPI PUSH1 0x0 PUSH1 0xA PUSH1 0x0 CALLER PUSH20 0xFFFFFFFFFFFFFFFFFFFFFFFFFFFFFFFFFFFFFFFF AND PUSH20 0xFFFFFFFFFFFFFFFFFFFFFFFFFFFFFFFFFFFFFFFF AND DUP2 MSTORE PUSH1 0x20 ADD SWAP1 DUP2 MSTORE PUSH1 0x20 ADD PUSH1 0x0 KECCAK256 DUP2 SWAP1 SSTORE POP TIMESTAMP PUSH1 0xB PUSH1 0x0 CALLER PUSH20 0xFFFFFFFFFFFFFFFFFFFFFFFFFFFFFFFFFFFFFFFF AND PUSH20 0xFFFFFFFFFFFFFFFFFFFFFFFFFFFFFFFFFFFFFFFF AND DUP2 MSTORE PUSH1 0x20 ADD SWAP1 DUP2 MSTORE PUSH1 0x20 ADD PUSH1 0x0 KECCAK256 DUP2 SWAP1 SSTORE POP JUMPDEST PUSH10 0x10F0CF064DD59200000 PUSH2 0x3077 DUP3 PUSH1 0xA PUSH1 0x0 CALLER PUSH20 0xFFFFFFFFFFFFFFFFFFFFFFFFFFFFFFFFFFFFFFFF AND PUSH20 0xFFFFFFFFFFFFFFFFFFFFFFFFFFFFFFFFFFFFFFFF AND DUP2 MSTORE PUSH1 0x20 ADD SWAP1 DUP2 MSTORE PUSH1 0x20 ADD PUSH1 0x0 KECCAK256 SLOAD PUSH2 0x34F6 SWAP1 SWAP2 SWAP1 PUSH4 0xFFFFFFFF AND JUMP JUMPDEST GT ISZERO PUSH2 0x30B8 JUMPI PUSH1 0x40 MLOAD PUSH32 0x8C379A000000000000000000000000000000000000000000000000000000000 DUP2 MSTORE PUSH1 0x4 ADD PUSH2 0x30AF SWAP1 PUSH2 0x520E JUMP JUMPDEST PUSH1 0x40 MLOAD DUP1 SWAP2 SUB SWAP1 REVERT JUMPDEST PUSH1 0x1 PUSH1 0x0 SWAP1 SLOAD SWAP1 PUSH2 0x100 EXP SWAP1 DIV PUSH20 0xFFFFFFFFFFFFFFFFFFFFFFFFFFFFFFFFFFFFFFFF AND PUSH20 0xFFFFFFFFFFFFFFFFFFFFFFFFFFFFFFFFFFFFFFFF AND PUSH4 0x70A08231 ADDRESS PUSH1 0x40 MLOAD DUP3 PUSH4 0xFFFFFFFF AND PUSH1 0xE0 SHL DUP2 MSTORE PUSH1 0x4 ADD PUSH2 0x3113 SWAP2 SWAP1 PUSH2 0x3E8F JUMP JUMPDEST PUSH1 0x20 PUSH1 0x40 MLOAD DUP1 DUP4 SUB DUP2 DUP7 GAS STATICCALL ISZERO DUP1 ISZERO PUSH2 0x3130 JUMPI RETURNDATASIZE PUSH1 0x0 DUP1 RETURNDATACOPY RETURNDATASIZE PUSH1 0x0 REVERT JUMPDEST POP POP POP POP PUSH1 0x40 MLOAD RETURNDATASIZE PUSH1 0x1F NOT PUSH1 0x1F DUP3 ADD AND DUP3 ADD DUP1 PUSH1 0x40 MSTORE POP DUP2 ADD SWAP1 PUSH2 0x3154 SWAP2 SWAP1 PUSH2 0x451C JUMP JUMPDEST DUP2 GT ISZERO PUSH2 0x3196 JUMPI PUSH1 0x40 MLOAD PUSH32 0x8C379A000000000000000000000000000000000000000000000000000000000 DUP2 MSTORE PUSH1 0x4 ADD PUSH2 0x318D SWAP1 PUSH2 0x4CF4 JUMP JUMPDEST PUSH1 0x40 MLOAD DUP1 SWAP2 SUB SWAP1 REVERT JUMPDEST PUSH1 0x1 PUSH1 0x0 SWAP1 SLOAD SWAP1 PUSH2 0x100 EXP SWAP1 DIV PUSH20 0xFFFFFFFFFFFFFFFFFFFFFFFFFFFFFFFFFFFFFFFF AND PUSH20 0xFFFFFFFFFFFFFFFFFFFFFFFFFFFFFFFFFFFFFFFF AND PUSH4 0xA9059CBB DUP4 DUP4 PUSH1 0x40 MLOAD DUP4 PUSH4 0xFFFFFFFF AND PUSH1 0xE0 SHL DUP2 MSTORE PUSH1 0x4 ADD PUSH2 0x31F3 SWAP3 SWAP2 SWAP1 PUSH2 0x45B5 JUMP JUMPDEST PUSH1 0x20 PUSH1 0x40 MLOAD DUP1 DUP4 SUB DUP2 PUSH1 0x0 DUP8 GAS CALL ISZERO DUP1 ISZERO PUSH2 0x3212 JUMPI RETURNDATASIZE PUSH1 0x0 DUP1 RETURNDATACOPY RETURNDATASIZE PUSH1 0x0 REVERT JUMPDEST POP POP POP POP PUSH1 0x40 MLOAD RETURNDATASIZE PUSH1 0x1F NOT PUSH1 0x1F DUP3 ADD AND DUP3 ADD DUP1 PUSH1 0x40 MSTORE POP DUP2 ADD SWAP1 PUSH2 0x3236 SWAP2 SWAP1 PUSH2 0x45F3 JUMP JUMPDEST POP PUSH2 0x3289 DUP2 PUSH1 0xA PUSH1 0x0 CALLER PUSH20 0xFFFFFFFFFFFFFFFFFFFFFFFFFFFFFFFFFFFFFFFF AND PUSH20 0xFFFFFFFFFFFFFFFFFFFFFFFFFFFFFFFFFFFFFFFF AND DUP2 MSTORE PUSH1 0x20 ADD SWAP1 DUP2 MSTORE PUSH1 0x20 ADD PUSH1 0x0 KECCAK256 SLOAD PUSH2 0x34F6 SWAP1 SWAP2 SWAP1 PUSH4 0xFFFFFFFF AND JUMP JUMPDEST PUSH1 0xA PUSH1 0x0 CALLER PUSH20 0xFFFFFFFFFFFFFFFFFFFFFFFFFFFFFFFFFFFFFFFF AND PUSH20 0xFFFFFFFFFFFFFFFFFFFFFFFFFFFFFFFFFFFFFFFF AND DUP2 MSTORE PUSH1 0x20 ADD SWAP1 DUP2 MSTORE PUSH1 0x20 ADD PUSH1 0x0 KECCAK256 DUP2 SWAP1 SSTORE POP POP POP JUMP JUMPDEST PUSH1 0x0 DUP1 SLOAD SWAP1 PUSH2 0x100 EXP SWAP1 DIV PUSH20 0xFFFFFFFFFFFFFFFFFFFFFFFFFFFFFFFFFFFFFFFF AND DUP2 JUMP JUMPDEST PUSH10 0x10F0CF064DD59200000 DUP2 JUMP JUMPDEST PUSH1 0x0 DUP2 GT PUSH2 0x3345 JUMPI PUSH1 0x40 MLOAD PUSH32 0x8C379A000000000000000000000000000000000000000000000000000000000 DUP2 MSTORE PUSH1 0x4 ADD PUSH2 0x333C SWAP1 PUSH2 0x527A JUMP JUMPDEST PUSH1 0x40 MLOAD DUP1 SWAP2 SUB SWAP1 REVERT JUMPDEST PUSH1 0x0 PUSH2 0x3362 PUSH8 0xDE0B6B3A7640000 DUP4 PUSH2 0x350C SWAP1 SWAP2 SWAP1 PUSH4 0xFFFFFFFF AND JUMP JUMPDEST SWAP1 POP PUSH1 0x1 PUSH1 0x0 SWAP1 SLOAD SWAP1 PUSH2 0x100 EXP SWAP1 DIV PUSH20 0xFFFFFFFFFFFFFFFFFFFFFFFFFFFFFFFFFFFFFFFF AND PUSH20 0xFFFFFFFFFFFFFFFFFFFFFFFFFFFFFFFFFFFFFFFF AND PUSH4 0x23B872DD CALLER ADDRESS DUP6 PUSH1 0x40 MLOAD DUP5 PUSH4 0xFFFFFFFF AND PUSH1 0xE0 SHL DUP2 MSTORE PUSH1 0x4 ADD PUSH2 0x33C3 SWAP4 SWAP3 SWAP2 SWAP1 PUSH2 0x4B99 JUMP JUMPDEST PUSH1 0x20 PUSH1 0x40 MLOAD DUP1 DUP4 SUB DUP2 PUSH1 0x0 DUP8 GAS CALL ISZERO DUP1 ISZERO PUSH2 0x33E2 JUMPI RETURNDATASIZE PUSH1 0x0 DUP1 RETURNDATACOPY RETURNDATASIZE PUSH1 0x0 REVERT JUMPDEST POP POP POP POP PUSH1 0x40 MLOAD RETURNDATASIZE PUSH1 0x1F NOT PUSH1 0x1F DUP3 ADD AND DUP3 ADD DUP1 PUSH1 0x40 MSTORE POP DUP2 ADD SWAP1 PUSH2 0x3406 SWAP2 SWAP1 PUSH2 0x45F3 JUMP JUMPDEST PUSH2 0x3445 JUMPI PUSH1 0x40 MLOAD PUSH32 0x8C379A000000000000000000000000000000000000000000000000000000000 DUP2 MSTORE PUSH1 0x4 ADD PUSH2 0x343C SWAP1 PUSH2 0x466C JUMP JUMPDEST PUSH1 0x40 MLOAD DUP1 SWAP2 SUB SWAP1 REVERT JUMPDEST CALLER PUSH20 0xFFFFFFFFFFFFFFFFFFFFFFFFFFFFFFFFFFFFFFFF AND PUSH2 0x8FC DUP3 SWAP1 DUP2 ISZERO MUL SWAP1 PUSH1 0x40 MLOAD PUSH1 0x0 PUSH1 0x40 MLOAD DUP1 DUP4 SUB DUP2 DUP6 DUP9 DUP9 CALL SWAP4 POP POP POP POP ISZERO DUP1 ISZERO PUSH2 0x348B JUMPI RETURNDATASIZE PUSH1 0x0 DUP1 RETURNDATACOPY RETURNDATASIZE PUSH1 0x0 REVERT JUMPDEST POP CALLER PUSH20 0xFFFFFFFFFFFFFFFFFFFFFFFFFFFFFFFFFFFFFFFF AND PUSH32 0xAE8BCD366B92D4B55D90C0CCBFD8A50A60BAE24F201C5899A989E99A3D877B93 DUP4 DUP4 PUSH1 0x40 MLOAD PUSH2 0x34D4 SWAP3 SWAP2 SWAP1 PUSH2 0x468C JUMP JUMPDEST PUSH1 0x40 MLOAD DUP1 SWAP2 SUB SWAP1 LOG2 POP POP JUMP JUMPDEST PUSH1 0x0 DUP2 DUP4 PUSH2 0x34EE SWAP2 SWAP1 PUSH2 0x4AFC JUMP JUMPDEST SWAP1 POP SWAP3 SWAP2 POP POP JUMP JUMPDEST PUSH1 0x0 DUP2 DUP4 PUSH2 0x3504 SWAP2 SWAP1 PUSH2 0x4DEC JUMP JUMPDEST SWAP1 POP SWAP3 SWAP2 POP POP JUMP JUMPDEST PUSH1 0x0 DUP2 DUP4 PUSH2 0x351A SWAP2 SWAP1 PUSH2 0x4A8B JUMP JUMPDEST SWAP1 POP SWAP3 SWAP2 POP POP JUMP JUMPDEST PUSH1 0x40 MLOAD DUP1 PUSH2 0x120 ADD PUSH1 0x40 MSTORE DUP1 PUSH1 0x0 DUP2 MSTORE PUSH1 0x20 ADD PUSH1 0x60 DUP2 MSTORE PUSH1 0x20 ADD PUSH1 0x60 DUP2 MSTORE PUSH1 0x20 ADD PUSH1 0x0 DUP2 MSTORE PUSH1 0x20 ADD PUSH1 0x0 PUSH20 0xFFFFFFFFFFFFFFFFFFFFFFFFFFFFFFFFFFFFFFFF AND DUP2 MSTORE PUSH1 0x20 ADD PUSH1 0x0 DUP2 MSTORE PUSH1 0x20 ADD PUSH1 0x0 DUP2 MSTORE PUSH1 0x20 ADD PUSH1 0x0 DUP2 MSTORE PUSH1 0x20 ADD PUSH1 0x60 DUP2 MSTORE POP SWAP1 JUMP JUMPDEST DUP3 DUP1 SLOAD DUP3 DUP3 SSTORE SWAP1 PUSH1 0x0 MSTORE PUSH1 0x20 PUSH1 0x0 KECCAK256 SWAP1 DUP2 ADD SWAP3 DUP3 ISZERO PUSH2 0x35FD JUMPI SWAP2 PUSH1 0x20 MUL DUP3 ADD JUMPDEST DUP3 DUP2 GT ISZERO PUSH2 0x35FC JUMPI DUP3 MLOAD DUP3 PUSH1 0x0 PUSH2 0x100 EXP DUP2 SLOAD DUP2 PUSH20 0xFFFFFFFFFFFFFFFFFFFFFFFFFFFFFFFFFFFFFFFF MUL NOT AND SWAP1 DUP4 PUSH20 0xFFFFFFFFFFFFFFFFFFFFFFFFFFFFFFFFFFFFFFFF AND MUL OR SWAP1 SSTORE POP SWAP2 PUSH1 0x20 ADD SWAP2 SWAP1 PUSH1 0x1 ADD SWAP1 PUSH2 0x35A4 JUMP JUMPDEST JUMPDEST POP SWAP1 POP PUSH2 0x360A SWAP2 SWAP1 PUSH2 0x365B JUMP JUMPDEST POP SWAP1 JUMP JUMPDEST DUP3 DUP1 SLOAD DUP3 DUP3 SSTORE SWAP1 PUSH1 0x0 MSTORE PUSH1 0x20 PUSH1 0x0 KECCAK256 SWAP1 DUP2 ADD SWAP3 DUP3 ISZERO PUSH2 0x364A JUMPI SWAP2 PUSH1 0x20 MUL DUP3 ADD JUMPDEST DUP3 DUP2 GT ISZERO PUSH2 0x3649 JUMPI DUP3 MLOAD DUP3 SSTORE SWAP2 PUSH1 0x20 ADD SWAP2 SWAP1 PUSH1 0x1 ADD SWAP1 PUSH2 0x362E JUMP JUMPDEST JUMPDEST POP SWAP1 POP PUSH2 0x3657 SWAP2 SWAP1 PUSH2 0x365B JUMP JUMPDEST POP SWAP1 JUMP JUMPDEST JUMPDEST DUP1 DUP3 GT ISZERO PUSH2 0x3674 JUMPI PUSH1 0x0 DUP2 PUSH1 0x0 SWAP1 SSTORE POP PUSH1 0x1 ADD PUSH2 0x365C JUMP JUMPDEST POP SWAP1 JUMP JUMPDEST PUSH1 0x0 DUP3 DUP3 MSTORE PUSH1 0x20 DUP3 ADD SWAP1 POP SWAP3 SWAP2 POP POP JUMP JUMPDEST PUSH32 0x4F7065726174696F6E206E6F7420737570706F72746564000000000000000000 PUSH1 0x0 DUP3 ADD MSTORE POP JUMP JUMPDEST PUSH1 0x0 PUSH2 0x36BF PUSH1 0x17 DUP4 PUSH2 0x3678 JUMP JUMPDEST SWAP2 POP PUSH2 0x36CA DUP3 PUSH2 0x3689 JUMP JUMPDEST PUSH1 0x20 DUP3 ADD SWAP1 POP SWAP2 SWAP1 POP JUMP JUMPDEST PUSH1 0x0 PUSH1 0x20 DUP3 ADD SWAP1 POP DUP2 DUP2 SUB PUSH1 0x0 DUP4 ADD MSTORE PUSH2 0x36EE DUP2 PUSH2 0x36B2 JUMP JUMPDEST SWAP1 POP SWAP2 SWAP1 POP JUMP JUMPDEST PUSH1 0x0 DUP2 MLOAD SWAP1 POP SWAP2 SWAP1 POP JUMP JUMPDEST PUSH1 0x0 DUP3 DUP3 MSTORE PUSH1 0x20 DUP3 ADD SWAP1 POP SWAP3 SWAP2 POP POP JUMP JUMPDEST PUSH1 0x0 DUP2 SWAP1 POP PUSH1 0x20 DUP3 ADD SWAP1 POP SWAP2 SWAP1 POP JUMP JUMPDEST PUSH1 0x0 DUP2 SWAP1 POP SWAP2 SWAP1 POP JUMP JUMPDEST PUSH2 0x3734 DUP2 PUSH2 0x3721 JUMP JUMPDEST DUP3 MSTORE POP POP JUMP JUMPDEST PUSH1 0x0 DUP2 MLOAD SWAP1 POP SWAP2 SWAP1 POP JUMP JUMPDEST PUSH1 0x0 DUP3 DUP3 MSTORE PUSH1 0x20 DUP3 ADD SWAP1 POP SWAP3 SWAP2 POP POP JUMP JUMPDEST PUSH1 0x0 JUMPDEST DUP4 DUP2 LT ISZERO PUSH2 0x3774 JUMPI DUP1 DUP3 ADD MLOAD DUP2 DUP5 ADD MSTORE PUSH1 0x20 DUP2 ADD SWAP1 POP PUSH2 0x3759 JUMP JUMPDEST PUSH1 0x0 DUP5 DUP5 ADD MSTORE POP POP POP POP JUMP JUMPDEST PUSH1 0x0 PUSH1 0x1F NOT PUSH1 0x1F DUP4 ADD AND SWAP1 POP SWAP2 SWAP1 POP JUMP JUMPDEST PUSH1 0x0 PUSH2 0x379C DUP3 PUSH2 0x373A JUMP JUMPDEST PUSH2 0x37A6 DUP2 DUP6 PUSH2 0x3745 JUMP JUMPDEST SWAP4 POP PUSH2 0x37B6 DUP2 DUP6 PUSH1 0x20 DUP7 ADD PUSH2 0x3756 JUMP JUMPDEST PUSH2 0x37BF DUP2 PUSH2 0x3780 JUMP JUMPDEST DUP5 ADD SWAP2 POP POP SWAP3 SWAP2 POP POP JUMP JUMPDEST PUSH1 0x0 PUSH20 0xFFFFFFFFFFFFFFFFFFFFFFFFFFFFFFFFFFFFFFFF DUP3 AND SWAP1 POP SWAP2 SWAP1 POP JUMP JUMPDEST PUSH1 0x0 PUSH2 0x37F5 DUP3 PUSH2 0x37CA JUMP JUMPDEST SWAP1 POP SWAP2 SWAP1 POP JUMP JUMPDEST PUSH2 0x3805 DUP2 PUSH2 0x37EA JUMP JUMPDEST DUP3 MSTORE POP POP JUMP JUMPDEST PUSH1 0x0 PUSH2 0x120 DUP4 ADD PUSH1 0x0 DUP4 ADD MLOAD PUSH2 0x3824 PUSH1 0x0 DUP7 ADD DUP3 PUSH2 0x372B JUMP JUMPDEST POP PUSH1 0x20 DUP4 ADD MLOAD DUP5 DUP3 SUB PUSH1 0x20 DUP7 ADD MSTORE PUSH2 0x383C DUP3 DUP3 PUSH2 0x3791 JUMP JUMPDEST SWAP2 POP POP PUSH1 0x40 DUP4 ADD MLOAD DUP5 DUP3 SUB PUSH1 0x40 DUP7 ADD MSTORE PUSH2 0x3856 DUP3 DUP3 PUSH2 0x3791 JUMP JUMPDEST SWAP2 POP POP PUSH1 0x60 DUP4 ADD MLOAD PUSH2 0x386B PUSH1 0x60 DUP7 ADD DUP3 PUSH2 0x372B JUMP JUMPDEST POP PUSH1 0x80 DUP4 ADD MLOAD PUSH2 0x387E PUSH1 0x80 DUP7 ADD DUP3 PUSH2 0x37FC JUMP JUMPDEST POP PUSH1 0xA0 DUP4 ADD MLOAD PUSH2 0x3891 PUSH1 0xA0 DUP7 ADD DUP3 PUSH2 0x372B JUMP JUMPDEST POP PUSH1 0xC0 DUP4 ADD MLOAD PUSH2 0x38A4 PUSH1 0xC0 DUP7 ADD DUP3 PUSH2 0x372B JUMP JUMPDEST POP PUSH1 0xE0 DUP4 ADD MLOAD PUSH2 0x38B7 PUSH1 0xE0 DUP7 ADD DUP3 PUSH2 0x372B JUMP JUMPDEST POP PUSH2 0x100 DUP4 ADD MLOAD DUP5 DUP3 SUB PUSH2 0x100 DUP7 ADD MSTORE PUSH2 0x38D1 DUP3 DUP3 PUSH2 0x3791 JUMP JUMPDEST SWAP2 POP POP DUP1 SWAP2 POP POP SWAP3 SWAP2 POP POP JUMP JUMPDEST PUSH1 0x0 PUSH2 0x38EA DUP4 DUP4 PUSH2 0x380B JUMP JUMPDEST SWAP1 POP SWAP3 SWAP2 POP POP JUMP JUMPDEST PUSH1 0x0 PUSH1 0x20 DUP3 ADD SWAP1 POP SWAP2 SWAP1 POP JUMP JUMPDEST PUSH1 0x0 PUSH2 0x390A DUP3 PUSH2 0x36F5 JUMP JUMPDEST PUSH2 0x3914 DUP2 DUP6 PUSH2 0x3700 JUMP JUMPDEST SWAP4 POP DUP4 PUSH1 0x20 DUP3 MUL DUP6 ADD PUSH2 0x3926 DUP6 PUSH2 0x3711 JUMP JUMPDEST DUP1 PUSH1 0x0 JUMPDEST DUP6 DUP2 LT ISZERO PUSH2 0x3962 JUMPI DUP5 DUP5 SUB DUP10 MSTORE DUP2 MLOAD PUSH2 0x3943 DUP6 DUP3 PUSH2 0x38DE JUMP JUMPDEST SWAP5 POP PUSH2 0x394E DUP4 PUSH2 0x38F2 JUMP JUMPDEST SWAP3 POP PUSH1 0x20 DUP11 ADD SWAP10 POP POP PUSH1 0x1 DUP2 ADD SWAP1 POP PUSH2 0x392A JUMP JUMPDEST POP DUP3 SWAP8 POP DUP8 SWAP6 POP POP POP POP POP POP SWAP3 SWAP2 POP POP JUMP JUMPDEST PUSH1 0x0 PUSH1 0x20 DUP3 ADD SWAP1 POP DUP2 DUP2 SUB PUSH1 0x0 DUP4 ADD MSTORE PUSH2 0x398E DUP2 DUP5 PUSH2 0x38FF JUMP JUMPDEST SWAP1 POP SWAP3 SWAP2 POP POP JUMP JUMPDEST PUSH2 0x399F DUP2 PUSH2 0x3721 JUMP JUMPDEST DUP3 MSTORE POP POP JUMP JUMPDEST PUSH1 0x0 PUSH1 0x20 DUP3 ADD SWAP1 POP PUSH2 0x39BA PUSH1 0x0 DUP4 ADD DUP5 PUSH2 0x3996 JUMP JUMPDEST SWAP3 SWAP2 POP POP JUMP JUMPDEST PUSH1 0x0 PUSH1 0x40 MLOAD SWAP1 POP SWAP1 JUMP JUMPDEST PUSH1 0x0 DUP1 REVERT JUMPDEST PUSH1 0x0 DUP1 REVERT JUMPDEST PUSH2 0x39DD DUP2 PUSH2 0x3721 JUMP JUMPDEST DUP2 EQ PUSH2 0x39E8 JUMPI PUSH1 0x0 DUP1 REVERT JUMPDEST POP JUMP JUMPDEST PUSH1 0x0 DUP2 CALLDATALOAD SWAP1 POP PUSH2 0x39FA DUP2 PUSH2 0x39D4 JUMP JUMPDEST SWAP3 SWAP2 POP POP JUMP JUMPDEST PUSH1 0x0 PUSH1 0x20 DUP3 DUP5 SUB SLT ISZERO PUSH2 0x3A16 JUMPI PUSH2 0x3A15 PUSH2 0x39CA JUMP JUMPDEST JUMPDEST PUSH1 0x0 PUSH2 0x3A24 DUP5 DUP3 DUP6 ADD PUSH2 0x39EB JUMP JUMPDEST SWAP2 POP POP SWAP3 SWAP2 POP POP JUMP JUMPDEST PUSH2 0x3A36 DUP2 PUSH2 0x37EA JUMP JUMPDEST DUP2 EQ PUSH2 0x3A41 JUMPI PUSH1 0x0 DUP1 REVERT JUMPDEST POP JUMP JUMPDEST PUSH1 0x0 DUP2 CALLDATALOAD SWAP1 POP PUSH2 0x3A53 DUP2 PUSH2 0x3A2D JUMP JUMPDEST SWAP3 SWAP2 POP POP JUMP JUMPDEST PUSH1 0x0 PUSH1 0x20 DUP3 DUP5 SUB SLT ISZERO PUSH2 0x3A6F JUMPI PUSH2 0x3A6E PUSH2 0x39CA JUMP JUMPDEST JUMPDEST PUSH1 0x0 PUSH2 0x3A7D DUP5 DUP3 DUP6 ADD PUSH2 0x3A44 JUMP JUMPDEST SWAP2 POP POP SWAP3 SWAP2 POP POP JUMP JUMPDEST PUSH1 0x0 DUP1 REVERT JUMPDEST PUSH1 0x0 DUP1 REVERT JUMPDEST PUSH1 0x0 DUP1 REVERT JUMPDEST PUSH1 0x0 DUP1 DUP4 PUSH1 0x1F DUP5 ADD SLT PUSH2 0x3AAB JUMPI PUSH2 0x3AAA PUSH2 0x3A86 JUMP JUMPDEST JUMPDEST DUP3 CALLDATALOAD SWAP1 POP PUSH8 0xFFFFFFFFFFFFFFFF DUP2 GT ISZERO PUSH2 0x3AC8 JUMPI PUSH2 0x3AC7 PUSH2 0x3A8B JUMP JUMPDEST JUMPDEST PUSH1 0x20 DUP4 ADD SWAP2 POP DUP4 PUSH1 0x1 DUP3 MUL DUP4 ADD GT ISZERO PUSH2 0x3AE4 JUMPI PUSH2 0x3AE3 PUSH2 0x3A90 JUMP JUMPDEST JUMPDEST SWAP3 POP SWAP3 SWAP1 POP JUMP JUMPDEST PUSH1 0x0 DUP1 PUSH1 0x20 DUP4 DUP6 SUB SLT ISZERO PUSH2 0x3B02 JUMPI PUSH2 0x3B01 PUSH2 0x39CA JUMP JUMPDEST JUMPDEST PUSH1 0x0 DUP4 ADD CALLDATALOAD PUSH8 0xFFFFFFFFFFFFFFFF DUP2 GT ISZERO PUSH2 0x3B20 JUMPI PUSH2 0x3B1F PUSH2 0x39CF JUMP JUMPDEST JUMPDEST PUSH2 0x3B2C DUP6 DUP3 DUP7 ADD PUSH2 0x3A95 JUMP JUMPDEST SWAP3 POP SWAP3 POP POP SWAP3 POP SWAP3 SWAP1 POP JUMP JUMPDEST PUSH32 0x4E487B7100000000000000000000000000000000000000000000000000000000 PUSH1 0x0 MSTORE PUSH1 0x41 PUSH1 0x4 MSTORE PUSH1 0x24 PUSH1 0x0 REVERT JUMPDEST PUSH2 0x3B70 DUP3 PUSH2 0x3780 JUMP JUMPDEST DUP2 ADD DUP2 DUP2 LT PUSH8 0xFFFFFFFFFFFFFFFF DUP3 GT OR ISZERO PUSH2 0x3B8F JUMPI PUSH2 0x3B8E PUSH2 0x3B38 JUMP JUMPDEST JUMPDEST DUP1 PUSH1 0x40 MSTORE POP POP POP JUMP JUMPDEST PUSH1 0x0 PUSH2 0x3BA2 PUSH2 0x39C0 JUMP JUMPDEST SWAP1 POP PUSH2 0x3BAE DUP3 DUP3 PUSH2 0x3B67 JUMP JUMPDEST SWAP2 SWAP1 POP JUMP JUMPDEST PUSH1 0x0 PUSH8 0xFFFFFFFFFFFFFFFF DUP3 GT ISZERO PUSH2 0x3BCE JUMPI PUSH2 0x3BCD PUSH2 0x3B38 JUMP JUMPDEST JUMPDEST PUSH1 0x20 DUP3 MUL SWAP1 POP PUSH1 0x20 DUP2 ADD SWAP1 POP SWAP2 SWAP1 POP JUMP JUMPDEST PUSH1 0x0 PUSH2 0x3BF2 PUSH2 0x3BED DUP5 PUSH2 0x3BB3 JUMP JUMPDEST PUSH2 0x3B98 JUMP JUMPDEST SWAP1 POP DUP1 DUP4 DUP3 MSTORE PUSH1 0x20 DUP3 ADD SWAP1 POP PUSH1 0x20 DUP5 MUL DUP4 ADD DUP6 DUP2 GT ISZERO PUSH2 0x3C15 JUMPI PUSH2 0x3C14 PUSH2 0x3A90 JUMP JUMPDEST JUMPDEST DUP4 JUMPDEST DUP2 DUP2 LT ISZERO PUSH2 0x3C3E JUMPI DUP1 PUSH2 0x3C2A DUP9 DUP3 PUSH2 0x39EB JUMP JUMPDEST DUP5 MSTORE PUSH1 0x20 DUP5 ADD SWAP4 POP POP PUSH1 0x20 DUP2 ADD SWAP1 POP PUSH2 0x3C17 JUMP JUMPDEST POP POP POP SWAP4 SWAP3 POP POP POP JUMP JUMPDEST PUSH1 0x0 DUP3 PUSH1 0x1F DUP4 ADD SLT PUSH2 0x3C5D JUMPI PUSH2 0x3C5C PUSH2 0x3A86 JUMP JUMPDEST JUMPDEST DUP2 CALLDATALOAD PUSH2 0x3C6D DUP5 DUP3 PUSH1 0x20 DUP7 ADD PUSH2 0x3BDF JUMP JUMPDEST SWAP2 POP POP SWAP3 SWAP2 POP POP JUMP JUMPDEST PUSH1 0x0 PUSH8 0xFFFFFFFFFFFFFFFF DUP3 GT ISZERO PUSH2 0x3C91 JUMPI PUSH2 0x3C90 PUSH2 0x3B38 JUMP JUMPDEST JUMPDEST PUSH1 0x20 DUP3 MUL SWAP1 POP PUSH1 0x20 DUP2 ADD SWAP1 POP SWAP2 SWAP1 POP JUMP JUMPDEST PUSH1 0x0 DUP2 ISZERO ISZERO SWAP1 POP SWAP2 SWAP1 POP JUMP JUMPDEST PUSH2 0x3CB7 DUP2 PUSH2 0x3CA2 JUMP JUMPDEST DUP2 EQ PUSH2 0x3CC2 JUMPI PUSH1 0x0 DUP1 REVERT JUMPDEST POP JUMP JUMPDEST PUSH1 0x0 DUP2 CALLDATALOAD SWAP1 POP PUSH2 0x3CD4 DUP2 PUSH2 0x3CAE JUMP JUMPDEST SWAP3 SWAP2 POP POP JUMP JUMPDEST PUSH1 0x0 PUSH2 0x3CED PUSH2 0x3CE8 DUP5 PUSH2 0x3C76 JUMP JUMPDEST PUSH2 0x3B98 JUMP JUMPDEST SWAP1 POP DUP1 DUP4 DUP3 MSTORE PUSH1 0x20 DUP3 ADD SWAP1 POP PUSH1 0x20 DUP5 MUL DUP4 ADD DUP6 DUP2 GT ISZERO PUSH2 0x3D10 JUMPI PUSH2 0x3D0F PUSH2 0x3A90 JUMP JUMPDEST JUMPDEST DUP4 JUMPDEST DUP2 DUP2 LT ISZERO PUSH2 0x3D39 JUMPI DUP1 PUSH2 0x3D25 DUP9 DUP3 PUSH2 0x3CC5 JUMP JUMPDEST DUP5 MSTORE PUSH1 0x20 DUP5 ADD SWAP4 POP POP PUSH1 0x20 DUP2 ADD SWAP1 POP PUSH2 0x3D12 JUMP JUMPDEST POP POP POP SWAP4 SWAP3 POP POP POP JUMP JUMPDEST PUSH1 0x0 DUP3 PUSH1 0x1F DUP4 ADD SLT PUSH2 0x3D58 JUMPI PUSH2 0x3D57 PUSH2 0x3A86 JUMP JUMPDEST JUMPDEST DUP2 CALLDATALOAD PUSH2 0x3D68 DUP5 DUP3 PUSH1 0x20 DUP7 ADD PUSH2 0x3CDA JUMP JUMPDEST SWAP2 POP POP SWAP3 SWAP2 POP POP JUMP JUMPDEST PUSH1 0x0 DUP1 PUSH1 0x0 DUP1 PUSH1 0x0 PUSH1 0xA0 DUP7 DUP9 SUB SLT ISZERO PUSH2 0x3D8D JUMPI PUSH2 0x3D8C PUSH2 0x39CA JUMP JUMPDEST JUMPDEST PUSH1 0x0 DUP7 ADD CALLDATALOAD PUSH8 0xFFFFFFFFFFFFFFFF DUP2 GT ISZERO PUSH2 0x3DAB JUMPI PUSH2 0x3DAA PUSH2 0x39CF JUMP JUMPDEST JUMPDEST PUSH2 0x3DB7 DUP9 DUP3 DUP10 ADD PUSH2 0x3C48 JUMP JUMPDEST SWAP6 POP POP PUSH1 0x20 DUP7 ADD CALLDATALOAD PUSH8 0xFFFFFFFFFFFFFFFF DUP2 GT ISZERO PUSH2 0x3DD8 JUMPI PUSH2 0x3DD7 PUSH2 0x39CF JUMP JUMPDEST JUMPDEST PUSH2 0x3DE4 DUP9 DUP3 DUP10 ADD PUSH2 0x3C48 JUMP JUMPDEST SWAP5 POP POP PUSH1 0x40 DUP7 ADD CALLDATALOAD PUSH8 0xFFFFFFFFFFFFFFFF DUP2 GT ISZERO PUSH2 0x3E05 JUMPI PUSH2 0x3E04 PUSH2 0x39CF JUMP JUMPDEST JUMPDEST PUSH2 0x3E11 DUP9 DUP3 DUP10 ADD PUSH2 0x3D43 JUMP JUMPDEST SWAP4 POP POP PUSH1 0x60 PUSH2 0x3E22 DUP9 DUP3 DUP10 ADD PUSH2 0x39EB JUMP JUMPDEST SWAP3 POP POP PUSH1 0x80 PUSH2 0x3E33 DUP9 DUP3 DUP10 ADD PUSH2 0x39EB JUMP JUMPDEST SWAP2 POP POP SWAP3 SWAP6 POP SWAP3 SWAP6 SWAP1 SWAP4 POP JUMP JUMPDEST PUSH1 0x0 DUP1 PUSH1 0x40 DUP4 DUP6 SUB SLT ISZERO PUSH2 0x3E57 JUMPI PUSH2 0x3E56 PUSH2 0x39CA JUMP JUMPDEST JUMPDEST PUSH1 0x0 PUSH2 0x3E65 DUP6 DUP3 DUP7 ADD PUSH2 0x3A44 JUMP JUMPDEST SWAP3 POP POP PUSH1 0x20 PUSH2 0x3E76 DUP6 DUP3 DUP7 ADD PUSH2 0x39EB JUMP JUMPDEST SWAP2 POP POP SWAP3 POP SWAP3 SWAP1 POP JUMP JUMPDEST PUSH2 0x3E89 DUP2 PUSH2 0x37EA JUMP JUMPDEST DUP3 MSTORE POP POP JUMP JUMPDEST PUSH1 0x0 PUSH1 0x20 DUP3 ADD SWAP1 POP PUSH2 0x3EA4 PUSH1 0x0 DUP4 ADD DUP5 PUSH2 0x3E80 JUMP JUMPDEST SWAP3 SWAP2 POP POP JUMP JUMPDEST PUSH1 0x0 DUP1 REVERT JUMPDEST PUSH1 0x0 PUSH8 0xFFFFFFFFFFFFFFFF DUP3 GT ISZERO PUSH2 0x3ECA JUMPI PUSH2 0x3EC9 PUSH2 0x3B38 JUMP JUMPDEST JUMPDEST PUSH2 0x3ED3 DUP3 PUSH2 0x3780 JUMP JUMPDEST SWAP1 POP PUSH1 0x20 DUP2 ADD SWAP1 POP SWAP2 SWAP1 POP JUMP JUMPDEST DUP3 DUP2 DUP4 CALLDATACOPY PUSH1 0x0 DUP4 DUP4 ADD MSTORE POP POP POP JUMP JUMPDEST PUSH1 0x0 PUSH2 0x3F02 PUSH2 0x3EFD DUP5 PUSH2 0x3EAF JUMP JUMPDEST PUSH2 0x3B98 JUMP JUMPDEST SWAP1 POP DUP3 DUP2 MSTORE PUSH1 0x20 DUP2 ADD DUP5 DUP5 DUP5 ADD GT ISZERO PUSH2 0x3F1E JUMPI PUSH2 0x3F1D PUSH2 0x3EAA JUMP JUMPDEST JUMPDEST PUSH2 0x3F29 DUP5 DUP3 DUP6 PUSH2 0x3EE0 JUMP JUMPDEST POP SWAP4 SWAP3 POP POP POP JUMP JUMPDEST PUSH1 0x0 DUP3 PUSH1 0x1F DUP4 ADD SLT PUSH2 0x3F46 JUMPI PUSH2 0x3F45 PUSH2 0x3A86 JUMP JUMPDEST JUMPDEST DUP2 CALLDATALOAD PUSH2 0x3F56 DUP5 DUP3 PUSH1 0x20 DUP7 ADD PUSH2 0x3EEF JUMP JUMPDEST SWAP2 POP POP SWAP3 SWAP2 POP POP JUMP JUMPDEST PUSH1 0x0 PUSH1 0x20 DUP3 DUP5 SUB SLT ISZERO PUSH2 0x3F75 JUMPI PUSH2 0x3F74 PUSH2 0x39CA JUMP JUMPDEST JUMPDEST PUSH1 0x0 DUP3 ADD CALLDATALOAD PUSH8 0xFFFFFFFFFFFFFFFF DUP2 GT ISZERO PUSH2 0x3F93 JUMPI PUSH2 0x3F92 PUSH2 0x39CF JUMP JUMPDEST JUMPDEST PUSH2 0x3F9F DUP5 DUP3 DUP6 ADD PUSH2 0x3F31 JUMP JUMPDEST SWAP2 POP POP SWAP3 SWAP2 POP POP JUMP JUMPDEST PUSH2 0x3FB1 DUP2 PUSH2 0x3CA2 JUMP JUMPDEST DUP3 MSTORE POP POP JUMP JUMPDEST PUSH1 0x0 DUP2 MLOAD SWAP1 POP SWAP2 SWAP1 POP JUMP JUMPDEST PUSH1 0x0 DUP3 DUP3 MSTORE PUSH1 0x20 DUP3 ADD SWAP1 POP SWAP3 SWAP2 POP POP JUMP JUMPDEST PUSH1 0x0 PUSH2 0x3FDE DUP3 PUSH2 0x3FB7 JUMP JUMPDEST PUSH2 0x3FE8 DUP2 DUP6 PUSH2 0x3FC2 JUMP JUMPDEST SWAP4 POP PUSH2 0x3FF8 DUP2 DUP6 PUSH1 0x20 DUP7 ADD PUSH2 0x3756 JUMP JUMPDEST PUSH2 0x4001 DUP2 PUSH2 0x3780 JUMP JUMPDEST DUP5 ADD SWAP2 POP POP SWAP3 SWAP2 POP POP JUMP JUMPDEST PUSH1 0x0 PUSH1 0x40 DUP3 ADD SWAP1 POP PUSH2 0x4021 PUSH1 0x0 DUP4 ADD DUP6 PUSH2 0x3FA8 JUMP JUMPDEST DUP2 DUP2 SUB PUSH1 0x20 DUP4 ADD MSTORE PUSH2 0x4033 DUP2 DUP5 PUSH2 0x3FD3 JUMP JUMPDEST SWAP1 POP SWAP4 SWAP3 POP POP POP JUMP JUMPDEST PUSH1 0x0 DUP2 SWAP1 POP SWAP2 SWAP1 POP JUMP JUMPDEST PUSH1 0x0 PUSH2 0x4061 PUSH2 0x405C PUSH2 0x4057 DUP5 PUSH2 0x37CA JUMP JUMPDEST PUSH2 0x403C JUMP JUMPDEST PUSH2 0x37CA JUMP JUMPDEST SWAP1 POP SWAP2 SWAP1 POP JUMP JUMPDEST PUSH1 0x0 PUSH2 0x4073 DUP3 PUSH2 0x4046 JUMP JUMPDEST SWAP1 POP SWAP2 SWAP1 POP JUMP JUMPDEST PUSH1 0x0 PUSH2 0x4085 DUP3 PUSH2 0x4068 JUMP JUMPDEST SWAP1 POP SWAP2 SWAP1 POP JUMP JUMPDEST PUSH2 0x4095 DUP2 PUSH2 0x407A JUMP JUMPDEST DUP3 MSTORE POP POP JUMP JUMPDEST PUSH1 0x0 PUSH1 0x20 DUP3 ADD SWAP1 POP PUSH2 0x40B0 PUSH1 0x0 DUP4 ADD DUP5 PUSH2 0x408C JUMP JUMPDEST SWAP3 SWAP2 POP POP JUMP JUMPDEST PUSH1 0x0 PUSH2 0x40C1 DUP3 PUSH2 0x373A JUMP JUMPDEST PUSH2 0x40CB DUP2 DUP6 PUSH2 0x3678 JUMP JUMPDEST SWAP4 POP PUSH2 0x40DB DUP2 DUP6 PUSH1 0x20 DUP7 ADD PUSH2 0x3756 JUMP JUMPDEST PUSH2 0x40E4 DUP2 PUSH2 0x3780 JUMP JUMPDEST DUP5 ADD SWAP2 POP POP SWAP3 SWAP2 POP POP JUMP JUMPDEST PUSH1 0x0 PUSH2 0x120 DUP3 ADD SWAP1 POP PUSH2 0x4105 PUSH1 0x0 DUP4 ADD DUP13 PUSH2 0x3996 JUMP JUMPDEST DUP2 DUP2 SUB PUSH1 0x20 DUP4 ADD MSTORE PUSH2 0x4117 DUP2 DUP12 PUSH2 0x40B6 JUMP JUMPDEST SWAP1 POP DUP2 DUP2 SUB PUSH1 0x40 DUP4 ADD MSTORE PUSH2 0x412B DUP2 DUP11 PUSH2 0x40B6 JUMP JUMPDEST SWAP1 POP PUSH2 0x413A PUSH1 0x60 DUP4 ADD DUP10 PUSH2 0x3996 JUMP JUMPDEST PUSH2 0x4147 PUSH1 0x80 DUP4 ADD DUP9 PUSH2 0x3E80 JUMP JUMPDEST PUSH2 0x4154 PUSH1 0xA0 DUP4 ADD DUP8 PUSH2 0x3996 JUMP JUMPDEST PUSH2 0x4161 PUSH1 0xC0 DUP4 ADD DUP7 PUSH2 0x3996 JUMP JUMPDEST PUSH2 0x416E PUSH1 0xE0 DUP4 ADD DUP6 PUSH2 0x3996 JUMP JUMPDEST DUP2 DUP2 SUB PUSH2 0x100 DUP4 ADD MSTORE PUSH2 0x4181 DUP2 DUP5 PUSH2 0x40B6 JUMP JUMPDEST SWAP1 POP SWAP11 SWAP10 POP POP POP POP POP POP POP POP POP POP JUMP JUMPDEST PUSH1 0x0 PUSH1 0x80 DUP3 ADD SWAP1 POP PUSH2 0x41A6 PUSH1 0x0 DUP4 ADD DUP8 PUSH2 0x3996 JUMP JUMPDEST PUSH2 0x41B3 PUSH1 0x20 DUP4 ADD DUP7 PUSH2 0x3E80 JUMP JUMPDEST PUSH2 0x41C0 PUSH1 0x40 DUP4 ADD DUP6 PUSH2 0x3996 JUMP JUMPDEST PUSH2 0x41CD PUSH1 0x60 DUP4 ADD DUP5 PUSH2 0x3996 JUMP JUMPDEST SWAP6 SWAP5 POP POP POP POP POP JUMP JUMPDEST PUSH1 0x0 PUSH1 0x60 DUP3 ADD SWAP1 POP PUSH2 0x41EB PUSH1 0x0 DUP4 ADD DUP7 PUSH2 0x3E80 JUMP JUMPDEST PUSH2 0x41F8 PUSH1 0x20 DUP4 ADD DUP6 PUSH2 0x3996 JUMP JUMPDEST PUSH2 0x4205 PUSH1 0x40 DUP4 ADD DUP5 PUSH2 0x3996 JUMP JUMPDEST SWAP5 SWAP4 POP POP POP POP JUMP JUMPDEST PUSH1 0x0 PUSH8 0xFFFFFFFFFFFFFFFF DUP3 GT ISZERO PUSH2 0x4228 JUMPI PUSH2 0x4227 PUSH2 0x3B38 JUMP JUMPDEST JUMPDEST PUSH2 0x4231 DUP3 PUSH2 0x3780 JUMP JUMPDEST SWAP1 POP PUSH1 0x20 DUP2 ADD SWAP1 POP SWAP2 SWAP1 POP JUMP JUMPDEST PUSH1 0x0 PUSH2 0x4251 PUSH2 0x424C DUP5 PUSH2 0x420D JUMP JUMPDEST PUSH2 0x3B98 JUMP JUMPDEST SWAP1 POP DUP3 DUP2 MSTORE PUSH1 0x20 DUP2 ADD DUP5 DUP5 DUP5 ADD GT ISZERO PUSH2 0x426D JUMPI PUSH2 0x426C PUSH2 0x3EAA JUMP JUMPDEST JUMPDEST PUSH2 0x4278 DUP5 DUP3 DUP6 PUSH2 0x3EE0 JUMP JUMPDEST POP SWAP4 SWAP3 POP POP POP JUMP JUMPDEST PUSH1 0x0 DUP3 PUSH1 0x1F DUP4 ADD SLT PUSH2 0x4295 JUMPI PUSH2 0x4294 PUSH2 0x3A86 JUMP JUMPDEST JUMPDEST DUP2 CALLDATALOAD PUSH2 0x42A5 DUP5 DUP3 PUSH1 0x20 DUP7 ADD PUSH2 0x423E JUMP JUMPDEST SWAP2 POP POP SWAP3 SWAP2 POP POP JUMP JUMPDEST PUSH1 0x0 DUP1 PUSH1 0x0 DUP1 PUSH1 0x0 DUP1 PUSH1 0x0 PUSH1 0xE0 DUP9 DUP11 SUB SLT ISZERO PUSH2 0x42CD JUMPI PUSH2 0x42CC PUSH2 0x39CA JUMP JUMPDEST JUMPDEST PUSH1 0x0 DUP9 ADD CALLDATALOAD PUSH8 0xFFFFFFFFFFFFFFFF DUP2 GT ISZERO PUSH2 0x42EB JUMPI PUSH2 0x42EA PUSH2 0x39CF JUMP JUMPDEST JUMPDEST PUSH2 0x42F7 DUP11 DUP3 DUP12 ADD PUSH2 0x4280 JUMP JUMPDEST SWAP8 POP POP PUSH1 0x20 DUP9 ADD CALLDATALOAD PUSH8 0xFFFFFFFFFFFFFFFF DUP2 GT ISZERO PUSH2 0x4318 JUMPI PUSH2 0x4317 PUSH2 0x39CF JUMP JUMPDEST JUMPDEST PUSH2 0x4324 DUP11 DUP3 DUP12 ADD PUSH2 0x4280 JUMP JUMPDEST SWAP7 POP POP PUSH1 0x40 PUSH2 0x4335 DUP11 DUP3 DUP12 ADD PUSH2 0x39EB JUMP JUMPDEST SWAP6 POP POP PUSH1 0x60 PUSH2 0x4346 DUP11 DUP3 DUP12 ADD PUSH2 0x39EB JUMP JUMPDEST SWAP5 POP POP PUSH1 0x80 PUSH2 0x4357 DUP11 DUP3 DUP12 ADD PUSH2 0x39EB JUMP JUMPDEST SWAP4 POP POP PUSH1 0xA0 PUSH2 0x4368 DUP11 DUP3 DUP12 ADD PUSH2 0x39EB JUMP JUMPDEST SWAP3 POP POP PUSH1 0xC0 DUP9 ADD CALLDATALOAD PUSH8 0xFFFFFFFFFFFFFFFF DUP2 GT ISZERO PUSH2 0x4389 JUMPI PUSH2 0x4388 PUSH2 0x39CF JUMP JUMPDEST JUMPDEST PUSH2 0x4395 DUP11 DUP3 DUP12 ADD PUSH2 0x4280 JUMP JUMPDEST SWAP2 POP POP SWAP3 SWAP6 SWAP9 SWAP2 SWAP5 SWAP8 POP SWAP3 SWAP6 POP JUMP JUMPDEST PUSH1 0x0 DUP2 MLOAD SWAP1 POP SWAP2 SWAP1 POP JUMP JUMPDEST PUSH1 0x0 DUP3 DUP3 MSTORE PUSH1 0x20 DUP3 ADD SWAP1 POP SWAP3 SWAP2 POP POP JUMP JUMPDEST PUSH1 0x0 DUP2 SWAP1 POP PUSH1 0x20 DUP3 ADD SWAP1 POP SWAP2 SWAP1 POP JUMP JUMPDEST PUSH1 0x0 PUSH2 0x43DC DUP4 DUP4 PUSH2 0x37FC JUMP JUMPDEST PUSH1 0x20 DUP4 ADD SWAP1 POP SWAP3 SWAP2 POP POP JUMP JUMPDEST PUSH1 0x0 PUSH1 0x20 DUP3 ADD SWAP1 POP SWAP2 SWAP1 POP JUMP JUMPDEST PUSH1 0x0 PUSH2 0x4400 DUP3 PUSH2 0x43A4 JUMP JUMPDEST PUSH2 0x440A DUP2 DUP6 PUSH2 0x43AF JUMP JUMPDEST SWAP4 POP PUSH2 0x4415 DUP4 PUSH2 0x43C0 JUMP JUMPDEST DUP1 PUSH1 0x0 JUMPDEST DUP4 DUP2 LT ISZERO PUSH2 0x4446 JUMPI DUP2 MLOAD PUSH2 0x442D DUP9 DUP3 PUSH2 0x43D0 JUMP JUMPDEST SWAP8 POP PUSH2 0x4438 DUP4 PUSH2 0x43E8 JUMP JUMPDEST SWAP3 POP POP PUSH1 0x1 DUP2 ADD SWAP1 POP PUSH2 0x4419 JUMP JUMPDEST POP DUP6 SWAP4 POP POP POP POP SWAP3 SWAP2 POP POP JUMP JUMPDEST PUSH1 0x0 PUSH1 0x20 DUP3 ADD SWAP1 POP DUP2 DUP2 SUB PUSH1 0x0 DUP4 ADD MSTORE PUSH2 0x446D DUP2 DUP5 PUSH2 0x43F5 JUMP JUMPDEST SWAP1 POP SWAP3 SWAP2 POP POP JUMP JUMPDEST PUSH32 0x4D4154494320616D6F756E742073686F756C6420626520677265617465722074 PUSH1 0x0 DUP3 ADD MSTORE PUSH32 0x68616E2030000000000000000000000000000000000000000000000000000000 PUSH1 0x20 DUP3 ADD MSTORE POP JUMP JUMPDEST PUSH1 0x0 PUSH2 0x44D1 PUSH1 0x25 DUP4 PUSH2 0x3678 JUMP JUMPDEST SWAP2 POP PUSH2 0x44DC DUP3 PUSH2 0x4475 JUMP JUMPDEST PUSH1 0x40 DUP3 ADD SWAP1 POP SWAP2 SWAP1 POP JUMP JUMPDEST PUSH1 0x0 PUSH1 0x20 DUP3 ADD SWAP1 POP DUP2 DUP2 SUB PUSH1 0x0 DUP4 ADD MSTORE PUSH2 0x4500 DUP2 PUSH2 0x44C4 JUMP JUMPDEST SWAP1 POP SWAP2 SWAP1 POP JUMP JUMPDEST PUSH1 0x0 DUP2 MLOAD SWAP1 POP PUSH2 0x4516 DUP2 PUSH2 0x39D4 JUMP JUMPDEST SWAP3 SWAP2 POP POP JUMP JUMPDEST PUSH1 0x0 PUSH1 0x20 DUP3 DUP5 SUB SLT ISZERO PUSH2 0x4532 JUMPI PUSH2 0x4531 PUSH2 0x39CA JUMP JUMPDEST JUMPDEST PUSH1 0x0 PUSH2 0x4540 DUP5 DUP3 DUP6 ADD PUSH2 0x4507 JUMP JUMPDEST SWAP2 POP POP SWAP3 SWAP2 POP POP JUMP JUMPDEST PUSH32 0x4E6F7420656E6F756768204C525420696E20636F6E7472616374000000000000 PUSH1 0x0 DUP3 ADD MSTORE POP JUMP JUMPDEST PUSH1 0x0 PUSH2 0x457F PUSH1 0x1A DUP4 PUSH2 0x3678 JUMP JUMPDEST SWAP2 POP PUSH2 0x458A DUP3 PUSH2 0x4549 JUMP JUMPDEST PUSH1 0x20 DUP3 ADD SWAP1 POP SWAP2 SWAP1 POP JUMP JUMPDEST PUSH1 0x0 PUSH1 0x20 DUP3 ADD SWAP1 POP DUP2 DUP2 SUB PUSH1 0x0 DUP4 ADD MSTORE PUSH2 0x45AE DUP2 PUSH2 0x4572 JUMP JUMPDEST SWAP1 POP SWAP2 SWAP1 POP JUMP JUMPDEST PUSH1 0x0 PUSH1 0x40 DUP3 ADD SWAP1 POP PUSH2 0x45CA PUSH1 0x0 DUP4 ADD DUP6 PUSH2 0x3E80 JUMP JUMPDEST PUSH2 0x45D7 PUSH1 0x20 DUP4 ADD DUP5 PUSH2 0x3996 JUMP JUMPDEST SWAP4 SWAP3 POP POP POP JUMP JUMPDEST PUSH1 0x0 DUP2 MLOAD SWAP1 POP PUSH2 0x45ED DUP2 PUSH2 0x3CAE JUMP JUMPDEST SWAP3 SWAP2 POP POP JUMP JUMPDEST PUSH1 0x0 PUSH1 0x20 DUP3 DUP5 SUB SLT ISZERO PUSH2 0x4609 JUMPI PUSH2 0x4608 PUSH2 0x39CA JUMP JUMPDEST JUMPDEST PUSH1 0x0 PUSH2 0x4617 DUP5 DUP3 DUP6 ADD PUSH2 0x45DE JUMP JUMPDEST SWAP2 POP POP SWAP3 SWAP2 POP POP JUMP JUMPDEST PUSH32 0x4C5254207472616E73666572206661696C656400000000000000000000000000 PUSH1 0x0 DUP3 ADD MSTORE POP JUMP JUMPDEST PUSH1 0x0 PUSH2 0x4656 PUSH1 0x13 DUP4 PUSH2 0x3678 JUMP JUMPDEST SWAP2 POP PUSH2 0x4661 DUP3 PUSH2 0x4620 JUMP JUMPDEST PUSH1 0x20 DUP3 ADD SWAP1 POP SWAP2 SWAP1 POP JUMP JUMPDEST PUSH1 0x0 PUSH1 0x20 DUP3 ADD SWAP1 POP DUP2 DUP2 SUB PUSH1 0x0 DUP4 ADD MSTORE PUSH2 0x4685 DUP2 PUSH2 0x4649 JUMP JUMPDEST SWAP1 POP SWAP2 SWAP1 POP JUMP JUMPDEST PUSH1 0x0 PUSH1 0x40 DUP3 ADD SWAP1 POP PUSH2 0x46A1 PUSH1 0x0 DUP4 ADD DUP6 PUSH2 0x3996 JUMP JUMPDEST PUSH2 0x46AE PUSH1 0x20 DUP4 ADD DUP5 PUSH2 0x3996 JUMP JUMPDEST SWAP4 SWAP3 POP POP POP JUMP JUMPDEST PUSH32 0x4E487B7100000000000000000000000000000000000000000000000000000000 PUSH1 0x0 MSTORE PUSH1 0x11 PUSH1 0x4 MSTORE PUSH1 0x24 PUSH1 0x0 REVERT JUMPDEST PUSH1 0x0 PUSH2 0x46EF DUP3 PUSH2 0x3721 JUMP JUMPDEST SWAP2 POP PUSH2 0x46FA DUP4 PUSH2 0x3721 JUMP JUMPDEST SWAP3 POP DUP3 DUP3 SUB SWAP1 POP DUP2 DUP2 GT ISZERO PUSH2 0x4712 JUMPI PUSH2 0x4711 PUSH2 0x46B5 JUMP JUMPDEST JUMPDEST SWAP3 SWAP2 POP POP JUMP JUMPDEST PUSH32 0x4E487B7100000000000000000000000000000000000000000000000000000000 PUSH1 0x0 MSTORE PUSH1 0x22 PUSH1 0x4 MSTORE PUSH1 0x24 PUSH1 0x0 REVERT JUMPDEST PUSH1 0x0 PUSH1 0x2 DUP3 DIV SWAP1 POP PUSH1 0x1 DUP3 AND DUP1 PUSH2 0x475F JUMPI PUSH1 0x7F DUP3 AND SWAP2 POP JUMPDEST PUSH1 0x20 DUP3 LT DUP2 SUB PUSH2 0x4772 JUMPI PUSH2 0x4771 PUSH2 0x4718 JUMP JUMPDEST JUMPDEST POP SWAP2 SWAP1 POP JUMP JUMPDEST PUSH32 0x4E487B7100000000000000000000000000000000000000000000000000000000 PUSH1 0x0 MSTORE PUSH1 0x32 PUSH1 0x4 MSTORE PUSH1 0x24 PUSH1 0x0 REVERT JUMPDEST PUSH1 0x0 PUSH2 0x47B2 DUP3 PUSH2 0x3721 JUMP JUMPDEST SWAP2 POP PUSH32 0xFFFFFFFFFFFFFFFFFFFFFFFFFFFFFFFFFFFFFFFFFFFFFFFFFFFFFFFFFFFFFFFF DUP3 SUB PUSH2 0x47E4 JUMPI PUSH2 0x47E3 PUSH2 0x46B5 JUMP JUMPDEST JUMPDEST PUSH1 0x1 DUP3 ADD SWAP1 POP SWAP2 SWAP1 POP JUMP JUMPDEST PUSH32 0x4F6E6C792061646D696E2063616E2063616C6C20746869732066756E6374696F PUSH1 0x0 DUP3 ADD MSTORE PUSH32 0x6E00000000000000000000000000000000000000000000000000000000000000 PUSH1 0x20 DUP3 ADD MSTORE POP JUMP JUMPDEST PUSH1 0x0 PUSH2 0x484B PUSH1 0x21 DUP4 PUSH2 0x3678 JUMP JUMPDEST SWAP2 POP PUSH2 0x4856 DUP3 PUSH2 0x47EF JUMP JUMPDEST PUSH1 0x40 DUP3 ADD SWAP1 POP SWAP2 SWAP1 POP JUMP JUMPDEST PUSH1 0x0 PUSH1 0x20 DUP3 ADD SWAP1 POP DUP2 DUP2 SUB PUSH1 0x0 DUP4 ADD MSTORE PUSH2 0x487A DUP2 PUSH2 0x483E JUMP JUMPDEST SWAP1 POP SWAP2 SWAP1 POP JUMP JUMPDEST PUSH32 0x55706B656570206E6F74206E6565646564000000000000000000000000000000 PUSH1 0x0 DUP3 ADD MSTORE POP JUMP JUMPDEST PUSH1 0x0 PUSH2 0x48B7 PUSH1 0x11 DUP4 PUSH2 0x3678 JUMP JUMPDEST SWAP2 POP PUSH2 0x48C2 DUP3 PUSH2 0x4881 JUMP JUMPDEST PUSH1 0x20 DUP3 ADD SWAP1 POP SWAP2 SWAP1 POP JUMP JUMPDEST PUSH1 0x0 PUSH1 0x20 DUP3 ADD SWAP1 POP DUP2 DUP2 SUB PUSH1 0x0 DUP4 ADD MSTORE PUSH2 0x48E6 DUP2 PUSH2 0x48AA JUMP JUMPDEST SWAP1 POP SWAP2 SWAP1 POP JUMP JUMPDEST PUSH1 0x0 PUSH8 0xFFFFFFFFFFFFFFFF DUP3 GT ISZERO PUSH2 0x4908 JUMPI PUSH2 0x4907 PUSH2 0x3B38 JUMP JUMPDEST JUMPDEST PUSH1 0x20 DUP3 MUL SWAP1 POP PUSH1 0x20 DUP2 ADD SWAP1 POP SWAP2 SWAP1 POP JUMP JUMPDEST PUSH1 0x0 PUSH2 0x492C PUSH2 0x4927 DUP5 PUSH2 0x48ED JUMP JUMPDEST PUSH2 0x3B98 JUMP JUMPDEST SWAP1 POP DUP1 DUP4 DUP3 MSTORE PUSH1 0x20 DUP3 ADD SWAP1 POP PUSH1 0x20 DUP5 MUL DUP4 ADD DUP6 DUP2 GT ISZERO PUSH2 0x494F JUMPI PUSH2 0x494E PUSH2 0x3A90 JUMP JUMPDEST JUMPDEST DUP4 JUMPDEST DUP2 DUP2 LT ISZERO PUSH2 0x4978 JUMPI DUP1 PUSH2 0x4964 DUP9 DUP3 PUSH2 0x3A44 JUMP JUMPDEST DUP5 MSTORE PUSH1 0x20 DUP5 ADD SWAP4 POP POP PUSH1 0x20 DUP2 ADD SWAP1 POP PUSH2 0x4951 JUMP JUMPDEST POP POP POP SWAP4 SWAP3 POP POP POP JUMP JUMPDEST PUSH1 0x0 DUP3 PUSH1 0x1F DUP4 ADD SLT PUSH2 0x4997 JUMPI PUSH2 0x4996 PUSH2 0x3A86 JUMP JUMPDEST JUMPDEST DUP2 CALLDATALOAD PUSH2 0x49A7 DUP5 DUP3 PUSH1 0x20 DUP7 ADD PUSH2 0x4919 JUMP JUMPDEST SWAP2 POP POP SWAP3 SWAP2 POP POP JUMP JUMPDEST PUSH1 0x0 PUSH1 0x20 DUP3 DUP5 SUB SLT ISZERO PUSH2 0x49C6 JUMPI PUSH2 0x49C5 PUSH2 0x39CA JUMP JUMPDEST JUMPDEST PUSH1 0x0 DUP3 ADD CALLDATALOAD PUSH8 0xFFFFFFFFFFFFFFFF DUP2 GT ISZERO PUSH2 0x49E4 JUMPI PUSH2 0x49E3 PUSH2 0x39CF JUMP JUMPDEST JUMPDEST PUSH2 0x49F0 DUP5 DUP3 DUP6 ADD PUSH2 0x4982 JUMP JUMPDEST SWAP2 POP POP SWAP3 SWAP2 POP POP JUMP JUMPDEST PUSH32 0x4D69736D6174636820696E2070726F647563742049447320616E64207175616E PUSH1 0x0 DUP3 ADD MSTORE PUSH32 0x746974696573206C656E67746800000000000000000000000000000000000000 PUSH1 0x20 DUP3 ADD MSTORE POP JUMP JUMPDEST PUSH1 0x0 PUSH2 0x4A55 PUSH1 0x2D DUP4 PUSH2 0x3678 JUMP JUMPDEST SWAP2 POP PUSH2 0x4A60 DUP3 PUSH2 0x49F9 JUMP JUMPDEST PUSH1 0x40 DUP3 ADD SWAP1 POP SWAP2 SWAP1 POP JUMP JUMPDEST PUSH1 0x0 PUSH1 0x20 DUP3 ADD SWAP1 POP DUP2 DUP2 SUB PUSH1 0x0 DUP4 ADD MSTORE PUSH2 0x4A84 DUP2 PUSH2 0x4A48 JUMP JUMPDEST SWAP1 POP SWAP2 SWAP1 POP JUMP JUMPDEST PUSH1 0x0 PUSH2 0x4A96 DUP3 PUSH2 0x3721 JUMP JUMPDEST SWAP2 POP PUSH2 0x4AA1 DUP4 PUSH2 0x3721 JUMP JUMPDEST SWAP3 POP DUP3 DUP3 MUL PUSH2 0x4AAF DUP2 PUSH2 0x3721 JUMP JUMPDEST SWAP2 POP DUP3 DUP3 DIV DUP5 EQ DUP4 ISZERO OR PUSH2 0x4AC6 JUMPI PUSH2 0x4AC5 PUSH2 0x46B5 JUMP JUMPDEST JUMPDEST POP SWAP3 SWAP2 POP POP JUMP JUMPDEST PUSH32 0x4E487B7100000000000000000000000000000000000000000000000000000000 PUSH1 0x0 MSTORE PUSH1 0x12 PUSH1 0x4 MSTORE PUSH1 0x24 PUSH1 0x0 REVERT JUMPDEST PUSH1 0x0 PUSH2 0x4B07 DUP3 PUSH2 0x3721 JUMP JUMPDEST SWAP2 POP PUSH2 0x4B12 DUP4 PUSH2 0x3721 JUMP JUMPDEST SWAP3 POP DUP3 PUSH2 0x4B22 JUMPI PUSH2 0x4B21 PUSH2 0x4ACD JUMP JUMPDEST JUMPDEST DUP3 DUP3 DIV SWAP1 POP SWAP3 SWAP2 POP POP JUMP JUMPDEST PUSH32 0x496E636F7272656374204D415449432073656E74000000000000000000000000 PUSH1 0x0 DUP3 ADD MSTORE POP JUMP JUMPDEST PUSH1 0x0 PUSH2 0x4B63 PUSH1 0x14 DUP4 PUSH2 0x3678 JUMP JUMPDEST SWAP2 POP PUSH2 0x4B6E DUP3 PUSH2 0x4B2D JUMP JUMPDEST PUSH1 0x20 DUP3 ADD SWAP1 POP SWAP2 SWAP1 POP JUMP JUMPDEST PUSH1 0x0 PUSH1 0x20 DUP3 ADD SWAP1 POP DUP2 DUP2 SUB PUSH1 0x0 DUP4 ADD MSTORE PUSH2 0x4B92 DUP2 PUSH2 0x4B56 JUMP JUMPDEST SWAP1 POP SWAP2 SWAP1 POP JUMP JUMPDEST PUSH1 0x0 PUSH1 0x60 DUP3 ADD SWAP1 POP PUSH2 0x4BAE PUSH1 0x0 DUP4 ADD DUP7 PUSH2 0x3E80 JUMP JUMPDEST PUSH2 0x4BBB PUSH1 0x20 DUP4 ADD DUP6 PUSH2 0x3E80 JUMP JUMPDEST PUSH2 0x4BC8 PUSH1 0x40 DUP4 ADD DUP5 PUSH2 0x3996 JUMP JUMPDEST SWAP5 SWAP4 POP POP POP POP JUMP JUMPDEST PUSH32 0x52657761726420506F696E7473207472616E73666572206661696C6564000000 PUSH1 0x0 DUP3 ADD MSTORE POP JUMP JUMPDEST PUSH1 0x0 PUSH2 0x4C06 PUSH1 0x1D DUP4 PUSH2 0x3678 JUMP JUMPDEST SWAP2 POP PUSH2 0x4C11 DUP3 PUSH2 0x4BD0 JUMP JUMPDEST PUSH1 0x20 DUP3 ADD SWAP1 POP SWAP2 SWAP1 POP JUMP JUMPDEST PUSH1 0x0 PUSH1 0x20 DUP3 ADD SWAP1 POP DUP2 DUP2 SUB PUSH1 0x0 DUP4 ADD MSTORE PUSH2 0x4C35 DUP2 PUSH2 0x4BF9 JUMP JUMPDEST SWAP1 POP SWAP2 SWAP1 POP JUMP JUMPDEST PUSH32 0x4C6F79616C747920546F6B656E207472616E73666572206661696C6564000000 PUSH1 0x0 DUP3 ADD MSTORE POP JUMP JUMPDEST PUSH1 0x0 PUSH2 0x4C72 PUSH1 0x1D DUP4 PUSH2 0x3678 JUMP JUMPDEST SWAP2 POP PUSH2 0x4C7D DUP3 PUSH2 0x4C3C JUMP JUMPDEST PUSH1 0x20 DUP3 ADD SWAP1 POP SWAP2 SWAP1 POP JUMP JUMPDEST PUSH1 0x0 PUSH1 0x20 DUP3 ADD SWAP1 POP DUP2 DUP2 SUB PUSH1 0x0 DUP4 ADD MSTORE PUSH2 0x4CA1 DUP2 PUSH2 0x4C65 JUMP JUMPDEST SWAP1 POP SWAP2 SWAP1 POP JUMP JUMPDEST PUSH32 0x4E6F7420656E6F75676820746F6B656E7320696E207472656173757279000000 PUSH1 0x0 DUP3 ADD MSTORE POP JUMP JUMPDEST PUSH1 0x0 PUSH2 0x4CDE PUSH1 0x1D DUP4 PUSH2 0x3678 JUMP JUMPDEST SWAP2 POP PUSH2 0x4CE9 DUP3 PUSH2 0x4CA8 JUMP JUMPDEST PUSH1 0x20 DUP3 ADD SWAP1 POP SWAP2 SWAP1 POP JUMP JUMPDEST PUSH1 0x0 PUSH1 0x20 DUP3 ADD SWAP1 POP DUP2 DUP2 SUB PUSH1 0x0 DUP4 ADD MSTORE PUSH2 0x4D0D DUP2 PUSH2 0x4CD1 JUMP JUMPDEST SWAP1 POP SWAP2 SWAP1 POP JUMP JUMPDEST PUSH32 0x5573657220616C72656164792072656769737465726564000000000000000000 PUSH1 0x0 DUP3 ADD MSTORE POP JUMP JUMPDEST PUSH1 0x0 PUSH2 0x4D4A PUSH1 0x17 DUP4 PUSH2 0x3678 JUMP JUMPDEST SWAP2 POP PUSH2 0x4D55 DUP3 PUSH2 0x4D14 JUMP JUMPDEST PUSH1 0x20 DUP3 ADD SWAP1 POP SWAP2 SWAP1 POP JUMP JUMPDEST PUSH1 0x0 PUSH1 0x20 DUP3 ADD SWAP1 POP DUP2 DUP2 SUB PUSH1 0x0 DUP4 ADD MSTORE PUSH2 0x4D79 DUP2 PUSH2 0x4D3D JUMP JUMPDEST SWAP1 POP SWAP2 SWAP1 POP JUMP JUMPDEST PUSH32 0x53656C6C657220616C7265616479207265676973746572656400000000000000 PUSH1 0x0 DUP3 ADD MSTORE POP JUMP JUMPDEST PUSH1 0x0 PUSH2 0x4DB6 PUSH1 0x19 DUP4 PUSH2 0x3678 JUMP JUMPDEST SWAP2 POP PUSH2 0x4DC1 DUP3 PUSH2 0x4D80 JUMP JUMPDEST PUSH1 0x20 DUP3 ADD SWAP1 POP SWAP2 SWAP1 POP JUMP JUMPDEST PUSH1 0x0 PUSH1 0x20 DUP3 ADD SWAP1 POP DUP2 DUP2 SUB PUSH1 0x0 DUP4 ADD MSTORE PUSH2 0x4DE5 DUP2 PUSH2 0x4DA9 JUMP JUMPDEST SWAP1 POP SWAP2 SWAP1 POP JUMP JUMPDEST PUSH1 0x0 PUSH2 0x4DF7 DUP3 PUSH2 0x3721 JUMP JUMPDEST SWAP2 POP PUSH2 0x4E02 DUP4 PUSH2 0x3721 JUMP JUMPDEST SWAP3 POP DUP3 DUP3 ADD SWAP1 POP DUP1 DUP3 GT ISZERO PUSH2 0x4E1A JUMPI PUSH2 0x4E19 PUSH2 0x46B5 JUMP JUMPDEST JUMPDEST SWAP3 SWAP2 POP POP JUMP JUMPDEST PUSH32 0x4F6E6C792073656C6C6572732063616E2063616C6C20746869732066756E6374 PUSH1 0x0 DUP3 ADD MSTORE PUSH32 0x696F6E0000000000000000000000000000000000000000000000000000000000 PUSH1 0x20 DUP3 ADD MSTORE POP JUMP JUMPDEST PUSH1 0x0 PUSH2 0x4E7C PUSH1 0x23 DUP4 PUSH2 0x3678 JUMP JUMPDEST SWAP2 POP PUSH2 0x4E87 DUP3 PUSH2 0x4E20 JUMP JUMPDEST PUSH1 0x40 DUP3 ADD SWAP1 POP SWAP2 SWAP1 POP JUMP JUMPDEST PUSH1 0x0 PUSH1 0x20 DUP3 ADD SWAP1 POP DUP2 DUP2 SUB PUSH1 0x0 DUP4 ADD MSTORE PUSH2 0x4EAB DUP2 PUSH2 0x4E6F JUMP JUMPDEST SWAP1 POP SWAP2 SWAP1 POP JUMP JUMPDEST PUSH1 0x0 DUP2 SWAP1 POP DUP2 PUSH1 0x0 MSTORE PUSH1 0x20 PUSH1 0x0 KECCAK256 SWAP1 POP SWAP2 SWAP1 POP JUMP JUMPDEST PUSH1 0x0 PUSH1 0x20 PUSH1 0x1F DUP4 ADD DIV SWAP1 POP SWAP2 SWAP1 POP JUMP JUMPDEST PUSH1 0x0 DUP3 DUP3 SHL SWAP1 POP SWAP3 SWAP2 POP POP JUMP JUMPDEST PUSH1 0x0 PUSH1 0x8 DUP4 MUL PUSH2 0x4F14 PUSH32 0xFFFFFFFFFFFFFFFFFFFFFFFFFFFFFFFFFFFFFFFFFFFFFFFFFFFFFFFFFFFFFFFF DUP3 PUSH2 0x4ED7 JUMP JUMPDEST PUSH2 0x4F1E DUP7 DUP4 PUSH2 0x4ED7 JUMP JUMPDEST SWAP6 POP DUP1 NOT DUP5 AND SWAP4 POP DUP1 DUP7 AND DUP5 OR SWAP3 POP POP POP SWAP4 SWAP3 POP POP POP JUMP JUMPDEST PUSH1 0x0 PUSH2 0x4F51 PUSH2 0x4F4C PUSH2 0x4F47 DUP5 PUSH2 0x3721 JUMP JUMPDEST PUSH2 0x403C JUMP JUMPDEST PUSH2 0x3721 JUMP JUMPDEST SWAP1 POP SWAP2 SWAP1 POP JUMP JUMPDEST PUSH1 0x0 DUP2 SWAP1 POP SWAP2 SWAP1 POP JUMP JUMPDEST PUSH2 0x4F6B DUP4 PUSH2 0x4F36 JUMP JUMPDEST PUSH2 0x4F7F PUSH2 0x4F77 DUP3 PUSH2 0x4F58 JUMP JUMPDEST DUP5 DUP5 SLOAD PUSH2 0x4EE4 JUMP JUMPDEST DUP3 SSTORE POP POP POP POP JUMP JUMPDEST PUSH1 0x0 SWAP1 JUMP JUMPDEST PUSH2 0x4F94 PUSH2 0x4F87 JUMP JUMPDEST PUSH2 0x4F9F DUP2 DUP5 DUP5 PUSH2 0x4F62 JUMP JUMPDEST POP POP POP JUMP JUMPDEST JUMPDEST DUP2 DUP2 LT ISZERO PUSH2 0x4FC3 JUMPI PUSH2 0x4FB8 PUSH1 0x0 DUP3 PUSH2 0x4F8C JUMP JUMPDEST PUSH1 0x1 DUP2 ADD SWAP1 POP PUSH2 0x4FA5 JUMP JUMPDEST POP POP JUMP JUMPDEST PUSH1 0x1F DUP3 GT ISZERO PUSH2 0x5008 JUMPI PUSH2 0x4FD9 DUP2 PUSH2 0x4EB2 JUMP JUMPDEST PUSH2 0x4FE2 DUP5 PUSH2 0x4EC7 JUMP JUMPDEST DUP2 ADD PUSH1 0x20 DUP6 LT ISZERO PUSH2 0x4FF1 JUMPI DUP2 SWAP1 POP JUMPDEST PUSH2 0x5005 PUSH2 0x4FFD DUP6 PUSH2 0x4EC7 JUMP JUMPDEST DUP4 ADD DUP3 PUSH2 0x4FA4 JUMP JUMPDEST POP POP JUMPDEST POP POP POP JUMP JUMPDEST PUSH1 0x0 DUP3 DUP3 SHR SWAP1 POP SWAP3 SWAP2 POP POP JUMP JUMPDEST PUSH1 0x0 PUSH2 0x502B PUSH1 0x0 NOT DUP5 PUSH1 0x8 MUL PUSH2 0x500D JUMP JUMPDEST NOT DUP1 DUP4 AND SWAP2 POP POP SWAP3 SWAP2 POP POP JUMP JUMPDEST PUSH1 0x0 PUSH2 0x5044 DUP4 DUP4 PUSH2 0x501A JUMP JUMPDEST SWAP2 POP DUP3 PUSH1 0x2 MUL DUP3 OR SWAP1 POP SWAP3 SWAP2 POP POP JUMP JUMPDEST PUSH2 0x505D DUP3 PUSH2 0x373A JUMP JUMPDEST PUSH8 0xFFFFFFFFFFFFFFFF DUP2 GT ISZERO PUSH2 0x5076 JUMPI PUSH2 0x5075 PUSH2 0x3B38 JUMP JUMPDEST JUMPDEST PUSH2 0x5080 DUP3 SLOAD PUSH2 0x4747 JUMP JUMPDEST PUSH2 0x508B DUP3 DUP3 DUP6 PUSH2 0x4FC7 JUMP JUMPDEST PUSH1 0x0 PUSH1 0x20 SWAP1 POP PUSH1 0x1F DUP4 GT PUSH1 0x1 DUP2 EQ PUSH2 0x50BE JUMPI PUSH1 0x0 DUP5 ISZERO PUSH2 0x50AC JUMPI DUP3 DUP8 ADD MLOAD SWAP1 POP JUMPDEST PUSH2 0x50B6 DUP6 DUP3 PUSH2 0x5038 JUMP JUMPDEST DUP7 SSTORE POP PUSH2 0x511E JUMP JUMPDEST PUSH1 0x1F NOT DUP5 AND PUSH2 0x50CC DUP7 PUSH2 0x4EB2 JUMP JUMPDEST PUSH1 0x0 JUMPDEST DUP3 DUP2 LT ISZERO PUSH2 0x50F4 JUMPI DUP5 DUP10 ADD MLOAD DUP3 SSTORE PUSH1 0x1 DUP3 ADD SWAP2 POP PUSH1 0x20 DUP6 ADD SWAP5 POP PUSH1 0x20 DUP2 ADD SWAP1 POP PUSH2 0x50CF JUMP JUMPDEST DUP7 DUP4 LT ISZERO PUSH2 0x5111 JUMPI DUP5 DUP10 ADD MLOAD PUSH2 0x510D PUSH1 0x1F DUP10 AND DUP3 PUSH2 0x501A JUMP JUMPDEST DUP4 SSTORE POP JUMPDEST PUSH1 0x1 PUSH1 0x2 DUP9 MUL ADD DUP9 SSTORE POP POP POP JUMPDEST POP POP POP POP POP POP JUMP JUMPDEST PUSH1 0x0 PUSH1 0x40 DUP3 ADD SWAP1 POP DUP2 DUP2 SUB PUSH1 0x0 DUP4 ADD MSTORE PUSH2 0x5140 DUP2 DUP6 PUSH2 0x40B6 JUMP JUMPDEST SWAP1 POP PUSH2 0x514F PUSH1 0x20 DUP4 ADD DUP5 PUSH2 0x3996 JUMP JUMPDEST SWAP4 SWAP3 POP POP POP JUMP JUMPDEST PUSH32 0x45786365656473206D6F6E74686C792063617000000000000000000000000000 PUSH1 0x0 DUP3 ADD MSTORE POP JUMP JUMPDEST PUSH1 0x0 PUSH2 0x518C PUSH1 0x13 DUP4 PUSH2 0x3678 JUMP JUMPDEST SWAP2 POP PUSH2 0x5197 DUP3 PUSH2 0x5156 JUMP JUMPDEST PUSH1 0x20 DUP3 ADD SWAP1 POP SWAP2 SWAP1 POP JUMP JUMPDEST PUSH1 0x0 PUSH1 0x20 DUP3 ADD SWAP1 POP DUP2 DUP2 SUB PUSH1 0x0 DUP4 ADD MSTORE PUSH2 0x51BB DUP2 PUSH2 0x517F JUMP JUMPDEST SWAP1 POP SWAP2 SWAP1 POP JUMP JUMPDEST PUSH32 0x45786365656473206D6F6E74686C792063617020666F722073656C6C65720000 PUSH1 0x0 DUP3 ADD MSTORE POP JUMP JUMPDEST PUSH1 0x0 PUSH2 0x51F8 PUSH1 0x1E DUP4 PUSH2 0x3678 JUMP JUMPDEST SWAP2 POP PUSH2 0x5203 DUP3 PUSH2 0x51C2 JUMP JUMPDEST PUSH1 0x20 DUP3 ADD SWAP1 POP SWAP2 SWAP1 POP JUMP JUMPDEST PUSH1 0x0 PUSH1 0x20 DUP3 ADD SWAP1 POP DUP2 DUP2 SUB PUSH1 0x0 DUP4 ADD MSTORE PUSH2 0x5227 DUP2 PUSH2 0x51EB JUMP JUMPDEST SWAP1 POP SWAP2 SWAP1 POP JUMP JUMPDEST PUSH32 0x416D6F756E742073686F756C642062652067726561746572207468616E203000 PUSH1 0x0 DUP3 ADD MSTORE POP JUMP JUMPDEST PUSH1 0x0 PUSH2 0x5264 PUSH1 0x1F DUP4 PUSH2 0x3678 JUMP JUMPDEST SWAP2 POP PUSH2 0x526F DUP3 PUSH2 0x522E JUMP JUMPDEST PUSH1 0x20 DUP3 ADD SWAP1 POP SWAP2 SWAP1 POP JUMP JUMPDEST PUSH1 0x0 PUSH1 0x20 DUP3 ADD SWAP1 POP DUP2 DUP2 SUB PUSH1 0x0 DUP4 ADD MSTORE PUSH2 0x5293 DUP2 PUSH2 0x5257 JUMP JUMPDEST SWAP1 POP SWAP2 SWAP1 POP JUMP INVALID LOG2 PUSH5 0x6970667358 0x22 SLT KECCAK256 PUSH18 0x54F3DD1DFABBFCDCB7DE2CC445D8A08EB674 0xBC PUSH7 0xD66D271AD13957 PUSH30 0xB57F3564736F6C6343000813003300000000000000000000000000000000 "},"methodIdentifiers":{"COMMISSION()":"562df3d5","RATE()":"664e9704","SELLER_CAP()":"fddbe9a8","addProduct(string,string,uint256,uint256,uint256,uint256,string)":"b656638b","admin()":"f851a440","checkUpkeep(bytes)":"6e04ff0d","exchangeLRTForMATIC(uint256)":"ffa8efc9","exchangeMATICForLRT()":"33ff7bbd","getAllProducts()":"02ee3a52","getLeaderBoard()":"c29d72bc","interval()":"947a36fb","issueTokens(address,uint256)":"475a9fa9","issueTokensBySeller(address,uint256)":"f6356b30","lastIssuedMonth(address)":"c2bd67e2","lastTimestamp()":"19d8ac61","leaderboard(uint256)":"bf368399","loyaltyToken()":"770aa84d","monthlyIssuedBySeller(address)":"d365cf6b","nextOrderId()":"2a58b330","nextProductId()":"4de91a63","orders(uint256)":"a85c38ef","performUpkeep(bytes)":"4585e33b","products(uint256)":"7acc0b20","purchaseProducts(uint256[],uint256[],bool[],uint256,uint256)":"45a38293","registerSeller()":"52c9224c","registerUser()":"4d3820eb","sellers(address)":"6d47ab72","setLRTToken(address)":"42df2b1d","users(address)":"a87430ba","withdrawMATIC(uint256)":"816837e3","withdrawTokens(uint256)":"315a095d"}}}}}